:020000040800F2
:1000000000070020F5040008F92B0008952B0008D4
:10001000D52B0008952B0008B52B0008F704000825
:10002000F7040008F7040008F7040008413F00083F
:10003000F7040008F7040008F7040008F7040008B4
:10004000F7040008F7040008F7040008F7040008A4
:10005000F7040008F7040008414E0008694E000844
:10006000914E0008B94E0008E14E0008F704000860
:10007000F7040008F7040008F7040008F704000874
:10008000F7040008F7040008F7040008112B000823
:100090003D2B0008692B0008F7040008094F0008F1
:1000A000F7040008F7040008F7040008F704000844
:1000B00005500008F7040008F7040008F7040008DA
:1000C000F7040008F7040008F7040008F704000824
:1000D000F7040008F7040008F7040008F704000814
:1000E0007D4F0008F7040008F7040008F704000833
:1000F000F7040008F7040008F7040008F7040008F4
:10010000F7040008F7040008F7040008F7040008E3
:10011000F7040008F7040008F7040008F7040008D3
:10012000F7040008F7040008F7040008F7040008C3
:10013000F7040008F7040008F7040008F7040008B3
:10014000F7040008F7040008F7040008F7040008A3
:10015000F7040008F7040008F7040008F704000893
:10016000F7040008F7040008F7040008F704000883
:10017000F7040008F7040008F7040008F704000873
:10018000F7040008F7040008F7040008F704000863
:10019000F7040008F7040008F7040008F704000853
:1001A000F7040008F7040008F7040008F704000843
:1001B000F7040008F7040008F7040008F704000833
:1001C000F7040008F7040008F7040008F704000823
:1001D000F7040008F7040008F7040008F704000813
:1001E000E51400080000000000000000000000000E
:1001F00053B94AB9002908BF00281CBF4FF0FF318E
:100200004FF0FF3000F074B9ADF1080C6DE904CE89
:1002100000F006F8DDF804E0DDE9022304B07047E1
:100220002DE9F047089D04468E46002B4DD18A42A9
:10023000944669D9B2FA82F252B101FA02F3C2F1DC
:10024000200120FA01F10CFA02FC41EA030E94406D
:100250004FEA1C48210CBEFBF8F61FFA8CF708FB8E
:1002600016E341EA034306FB07F199420AD91CEB66
:10027000030306F1FF3080F01F81994240F21C8198
:10028000023E63445B1AA4B2B3FBF8F008FB1033E0
:1002900044EA034400FB07F7A7420AD91CEB040415
:1002A00000F1FF3380F00A81A74240F207816444E5
:1002B000023840EA0640E41B00261DB1D44000236A
:1002C000C5E900433146BDE8F0878B4209D9002DCE
:1002D00000F0EF800026C5E9000130463146BDE858
:1002E000F087B3FA83F6002E4AD18B4202D38242C2
:1002F00000F2F980841A61EB030301209E46002D71
:10030000E0D0C5E9004EDDE702B9FFDEB2FA82F2C5
:10031000002A40F09280A1EB0C014FEA1C471FFA23
:100320008CFE0126200CB1FBF7F307FB131140EA0A
:1003300001410EFB03F0884208D91CEB010103F1D7
:10034000FF3802D2884200F2CB804346091AA4B299
:10035000B1FBF7F007FB101144EA01440EFB00FE6D
:10036000A64508D91CEB040400F1FF3102D2A645D2
:1003700000F2BB800846A4EB0E0440EA03409CE771
:10038000C6F12007B34022FA07FC4CEA030C20FA1E
:1003900007F401FA06F31C43F9404FEA1C4900FA3E
:1003A00006F3B1FBF9F8200C1FFA8CFE09FB1811BB
:1003B00040EA014108FB0EF0884202FA06F20BD92E
:1003C0001CEB010108F1FF3A80F08880884240F27E
:1003D0008580A8F102086144091AA4B2B1FBF9F0C2
:1003E00009FB101144EA014100FB0EFE8E4508D9BD
:1003F0001CEB010100F1FF346CD28E456AD9023842
:10040000614440EA0840A0FB0294A1EB0E01A14226
:10041000C846A64656D353D05DB1B3EB080261EB94
:100420000E0101FA07F722FA06F3F1401F43C5E96E
:10043000007100263146BDE8F087C2F12003D840A4
:100440000CFA02FC21FA03F3914001434FEA1C47E6
:100450001FFA8CFEB3FBF7F007FB10360B0C43EAD8
:10046000064300FB0EF69E4204FA02F408D91CEB88
:10047000030300F1FF382FD29E422DD90238634486
:100480009B1B89B2B3FBF7F607FB163341EA034126
:1004900006FB0EF38B4208D91CEB010106F1FF3875
:1004A00016D28B4214D9023E6144C91A46EA00466C
:1004B00038E72E46284605E70646E3E61846F8E6FE
:1004C0004B45A9D2B9EB020864EB0C0E0138A3E747
:1004D0004646EAE7204694E74046D1E7D0467BE728
:1004E000023B614432E7304609E76444023842E7A0
:1004F000704700BF02E000F000F8FEE772B6374830
:1005000080F30888364880F3098836483649086001
:1005100040F20000CCF200004EF63471CEF2000141
:100520000860BFF34F8FBFF36F8F40F20000C0F23F
:10053000F0004EF68851CEF200010860BFF34F8FF5
:10054000BFF36F8F4FF00000E1EE100A4EF63C71E2
:10055000CEF200010860062080F31488BFF36F8F8D
:1005600004F05EFA04F048FB4FF055301F491B4A77
:1005700091423CBF41F8040BFAE71D49184A9142E9
:100580003CBF41F8040BFAE71A491B4A1B4B9A423D
:100590003EBF51F8040B42F8040BF8E7002018495D
:1005A000184A91423CBF41F8040BFAE704F03CFAC8
:1005B00004F028FB144C154DAC4203DA54F8041B2C
:1005C0008847F9E700F042F8114C124DAC4203DACB
:1005D00054F8041B8847F9E704F024BA0007002008
:1005E000002300200000000808ED00E000010020CA
:1005F000000700206854000800230020802300200A
:1006000080230020684D0020E0010008E40100087C
:10061000E4010008E40100082DE9F04F2DED108AF7
:10062000C1F80CD0C3689D46BDEC108ABDE8F08FC0
:10063000002383F311882846A047002003F02EFEF4
:10064000FEE703F091FD00DFFEE70000F8B500F0E3
:1006500051FF04F079F9064604F0CEF90746A8B92F
:100660002B4B9E422DD001339E422DD026F0FF020F
:10067000284B9A4203D0054641F2883408E0F0B294
:1006800000F034FE3D4642F2107401E005460024BD
:1006900000F032FE08B10024254601F0D7FAB0B9C7
:1006A00014B14FF47A74012517B11B4B9E4214D13B
:1006B000002004F055F9ADB900F098FE00F01CFFE1
:1006C00022E005460024E3E700240125E0E70320BB
:1006D00000F02CF800242546E6E704F085F9002414
:1006E0002546E5E700F040F8E6E700F0D1FE4FF4DC
:1006F0007A7003F0DBFD002CF7D002F085FA401B86
:10070000A042F2D900F030F802F07EFA0546F2E796
:10071000010007B0000008B0263A09B0302383F387
:100720001188854680F308880847704708B50C4B48
:100730001870032806D8DFE800F00A06020E02202F
:1007400000F046FF08BD022000F038FFFAE7054B35
:1007500000225A60F6E7034B00225A60F2E700BF1E
:10076000802300208423002008B501F06FFA03469F
:1007700068B9072B0FD89A0002F1006202F58032A7
:100780001268B2F1FF3F05D00133DBB2F1E703207D
:10079000FFF7CCFF08BD174B5A68013B9A42F9D9C5
:1007A000154B9B6803F1006303F580339A42F1D245
:1007B00004F0ECF804F0FEF8002000F0B9FE02208E
:1007C000FFF7B4FF0D4B1A6C00221A64196E1A66FB
:1007D000196E596C5A64596E5A665B6E72B6054B47
:1007E0004FF0E022C2F8083D59681868FFF796FFFD
:1007F000D0E700BF000001080023002000380240BD
:10080000094A136899B21B0C49F2690000FB0133D5
:100810001360064B186882B2000C44F2506101FB71
:100820000200186080B270471823002014230020B3
:1008300010B50446FFF7E4FFB0FBF4F304FB13002C
:1008400080B210BD10B40346002202604260826094
:10085000C260044C07CC186059609A605DF8044B84
:10086000704700BF107AFF1F70B50E4614461D4634
:1008700002F070FE60B9022D33D1012C01D00020AE
:1008800030E019A3D3E90023C6E90023012029E0C1
:10089000282C1FD00CD8012C15D0052C06D114A360
:1008A000D3E90023C6E9002301201BE0002019E062
:1008B000302C06D110A3D3E90023C6E90023012080
:1008C00010E000200EE00EA3D3E90023C6E90023C8
:1008D000012007E00CA3D3E90023C6E9002301208F
:1008E00000E0002070BD00BF401DA12026812A0B22
:1008F000F017304A39059E5678F6339F93CACD8D4E
:100900009E6AC421818A46EE26417272DF25D7B7DE
:1009100070B58AB006460D4602F076F904464FF4EB
:10092000C870FFF785FF044404F51674174B1C606C
:10093000EB7E23B9164B00221A700AB070BD05A9D0
:10094000284600F087FF0028F7D101A8FFF77AFFBB
:100950009DF81640224601A90DF1170004F0E4FBB2
:1009600048B90F2C0BD80A4B1C70084A1368A3F522
:1009700016731360E1E7064B00221A70DDE79DF85D
:100980001410304602F0DEFDD7E700BFA033002090
:100990009D3300202DE9F043ADF5517D80460E4694
:1009A0000DF5E2790027719740F27512394672A869
:1009B00000F02CFE0EAC4FF4C4723946204600F015
:1009C00025FE02F021F92F4BA3FB003080092E4BAE
:1009D000186093E8070084E8070002232374677413
:1009E0000DF15A00FFF72EFF042384F820306E2308
:1009F00084F821300DF1180C244D0FCDACE80F0018
:100A000095E80F00ACE80700ACF800301D2384F82F
:100A100032310DF1180CBCE80F00CDF86B01CDF8A8
:100A20006F11CDF87321CDF87731BCE80700CDF810
:100A30007B01CDF87F11CDF883219CF800308DF833
:100A4000873101224946204600F034FE80B20590ED
:100A5000CDF810900397B37E029306F1190301932A
:100A60000123009305A3D3E90023F17E404602F061
:100A700027FE0DF5517DBDE8F08300BF9E6AC421BD
:100A8000818A46EED34D62108C2300201452000858
:100A9000F0B5FDB006460D462B4B1C7A6CBB07A982
:100AA000284600F01BFF002845D19DF81D70C82F77
:100AB00041D84FF4A6620021234800F0A7FD032C83
:100AC0000AD82202204B4FF48A7101FB0433C3F889
:100AD000E4200134E4B2F2E71B4C3A460DF11E016A
:100AE00004F1090000F07EFDE219002353729DF825
:100AF0001C3023720BB9EA7E2272812200213AA8AF
:100B000000F084FD5BAC012221463AA800F022FFF0
:100B100080B20590049400230393AB7E029305F109
:100B2000190301932823009305A3D3E90023E97E49
:100B3000304602F0C5FD7DB0F0BD00BFAFF30080D0
:100B400026417272DF25D7B7A8440020134BB3F8B3
:100B50002C35834200D9704710B50446002100F0BF
:100B600011FD01340D4BA3F82C450C4BB3F82C05AB
:100B700000F0ECFC88B1094BB3F82C0500F0F8FC50
:100B800058B9064C0021B4F82C0500F0FBFCB4F871
:100B90002C350133A4F82C35E7E710BDA84400201C
:100BA0002DE9F041F0B00646274C94F8D8304FF4C8
:100BB0008A7505FB004585F8DC30002785F8E8706C
:100BC000D82239463AA800F021FD04F10908404630
:100BD00000F012FDC2B28DF8F020D5F8E4303A935F
:100BE0003B9741460DF1F10000F0FCFC06AD0122FF
:100BF00029463AA800F0D8FE80B20590049501235A
:100C000003930823029304F1D80301933023009344
:100C10000BA3D3E90023217A0C4802F051FDB8421E
:100C200003DC002070B0BDE8F08101F0EDFF4FF46F
:100C30008A7202FB0646C6F8E0000120F2E700BF18
:100C400078F6339F93CACD8DA8440020A4330020AA
:100C500038B501F0D9FF0546002408E00532B3EBB2
:100C6000420F02D3FFF79CFFF8B10134E4B2032C2A
:100C70001BD80E4B93F8D900204400F003004FF42A
:100C80008A7202FB003393F8E830002BEDD1074B5A
:100C900002FB0033D3F8E030002BE3D0EB1A034A19
:100CA0001268F92ADAD8FA22D8E738BDA844002019
:100CB000F0B58FB000230A938DF834308DF83530BD
:100CC0000B930C9300242746002C46D101238DF86A
:100CD0000C3000238DF80D3041F2D00204FB02F2FB
:100CE000204955185258966800200021CDE900018E
:100CF0000DF10D0203A92846B0479DF80C604EB3D4
:100D0000194A536983F48053536100230693079370
:100D10000893099341F2D00304FB03F3114AD3581B
:100D20005F690DF10E0304AA0AA92846B84707AB6C
:100D30000BAA92E8030083E803009DF834308DF895
:100D400024300A9B0693DDE9042306A9074802F034
:100D5000BFFE37460134E4B2B6E7002FB2D10FB080
:100D6000F0BD00BFD833002000080240A4330020AB
:100D700010B58CB0264802F0EDFB08B10CB010BDE8
:100D800001F042FF234B1B689842F7D301F03CFF70
:100D900004464FF4C870FFF74BFD044404F5167485
:100DA0001C4B1C6000238DF828301B4B1B7813B99B
:100DB00001238DF8283006A8FFF744FD164B19785B
:100DC000C1F11004E4B2062C00D90624224606AB79
:100DD00019440DF1290000F005FC013404940AAB1C
:100DE0000393182302930D4B01930123009306A351
:100DF000D3E90023064802F003FC074B00221A70D7
:100E0000BCE700BFAFF30080401DA12026812A0B64
:100E1000A4330020A03300209D3300209C33002009
:100E200010B588B001F0F0FE114BA3FB00239B0925
:100E30001048036006AC0122214600F0E3FC80B2BA
:100E400004900394182302930B4B019340F2551323
:100E5000009305A3D3E90023084802F0D1FB08B0B2
:100E600010BD00BFAFF30080F1C6A7C1D068080F66
:100E7000D34D62108C230020DC490020A4330020D5
:100E800010B502460B46094C204602F051FC2046A4
:100E900002F060FB38B1064B1B7A2BB10322054BE5
:100EA0005A71FFF7BDFF10BD0222F8E7A4330020FE
:100EB000A84400208C230020012800D0704738B5BA
:100EC0004FF6FF73994200D038BD0025084C002D25
:100ED00007DB204601F0C2F904F586541034013DC9
:100EE000F5E7044A0449002004F0CEF8ECE700BF1F
:100EF000D8330020184A0020FD0E000838B50F4CEA
:100F00000F4B9C4219D0A4F58653A3F110040D4A4F
:100F100043F8102C41F25C03E21812793AB9E55813
:100F20002DB1284600F0A0FE284604F0B3F804F5E1
:100F30008250083000F098FEE2E738BDA844002057
:100F4000D833002074520008F0B587B0254802F06D
:100F5000E3FB002839D00446002302938DF81430B7
:100F60008DF8153003930493027B8DF8142003AAA7
:100F70004068A16803C2226842F0004202921D4606
:100F80001C46D5B941F2D00305FB03F3164A9E185F
:100F90009B581F6901F03CFE144A82184FF0000371
:100FA000009341F1000302A93046B8470028C8BFAA
:100FB00044F001040135EDB2E3E744B90C4B1B7872
:100FC000072B0BD801330A4A137007B0F0BD054850
:100FD00002F0A6FB064B00221A70B7E7014802F0A8
:100FE0009FFBF2E7A4330020D833002040420F00DB
:100FF000DD490020CA7E9B4B1B7A9A4240F031812A
:101000002DE9F04700AF08460024032C0CD8954B7F
:101010004FF48A7202FB043393F8DC20437E9A4239
:1010200007D00134E4B2F0E7002323B9BD46BDE8A0
:10103000F0870123F9E74FF48A7104FB01F1E031F5
:10104000884B19440A3100F0DBFC0028EED1854BB7
:101050004FF48A7202FB0434012384F8E83001F073
:10106000D3FDD4F8E030C31A192B05D940F6B832B5
:10107000934202D9134600E019237A4AD2ED007A4E
:10108000F8EE677A9FED787A27EE877A07EE903A46
:10109000F8EE677ADFED756A67EEA67A77EE277A63
:1010A000FCEEE77AC2ED007A3CE013464FF48A7218
:1010B00002FB0535002385F8E830C5F8E030C54669
:1010C000684B5B689B0A0133694A1381AEE70020D5
:1010D00042F8040B013B002BF9DA2246304600F0BF
:1010E00081FA604B5B68002B4BD05E4B93F8D200CB
:1010F00000F02CFA8246002847D05A4BD3F8D4305F
:10110000002B4ED0574BD3F8D430234453454ED800
:101110005FFA89F23146534B586800F081FA002893
:101120004CD1C5464F4B93F8D9504FF48A7202FB0D
:10113000053393F8E830002BC2D0E846494A4FF413
:101140008A7303FB0523D3F8E41053689942ACD1AA
:1011500044494FF48A7305FB03F3CA18B2F8EC4014
:10116000E21C4FEA9209E03319440E314A4609F174
:10117000FF3392000732D208A8EBC20295466E46B2
:10118000A9E7012000F0D4F9AFE70024354B1C7229
:1011900000F002FA204600F0CBF9354B0B221A8101
:1011A0008DE7304B93F8D200FFF7D0FCAAE72D4B28
:1011B00093F8D2000130FFF7C9FCA9E7294B5A6820
:1011C00022445A60D3F8D4602644C3F8D46093F81C
:1011D000D20000F0BBF986420BD3224B93F8D22009
:1011E000013283F8D220D3F8D420A2EB0A02C3F84C
:1011F000D420FF2C23D91B4C4FF48A7303FB0545E5
:10120000002385F8E830C5F8E030D5F8E43003F580
:101210008063C5F8E43094F8D900FFF7C1FCFFF70C
:1012200093FE94F8D93001335A4203F0030302F0DD
:10123000030258BF534284F8D930C54672E70024F0
:10124000084B1C7200F0A8F9204600F071F900F07C
:10125000FDFC074A108108B1C546E7E6FFF784FAAE
:10126000FAE77047A84400206666663FCDCCCC3DC7
:101270008C23002038B505460C4602F06BF950B1BE
:10128000E38A282B1CD014D8012B0FD121462846E5
:10129000FFF780FB0CE0237E022B09D1E38A012BB0
:1012A00006D121462846FFF733FB01E0052B0CD081
:1012B00038BD302BFCD121462846FFF79BFEF7E7CF
:1012C00021462846FFF7E4FBF2E7BFF34F8F0549BD
:1012D000CA6802F4E062044B1343CB60BFF34F8F44
:1012E00000BFFDE700ED00E00400FA05014B1870B7
:1012F000704700BF9823002030B585B04FF00053F1
:101300001A68324B9A420FD003F080FB044678B340
:101310002F4A136C43F0007313642E4B9A6D2E4BBF
:101320009A4228D0002423E04FF00054607DFFF75C
:10133000DDFF227D294B1A72002309E01902274A9A
:101340004FF48A7000FB0322C2F8E4100133DBB2D1
:10135000032BF3D94FF00054C92204F116012048A1
:1013600000F040F9E0220021204600F04FF901246E
:10137000204605B030BD174B1B6E23B37F2B01D920
:101380000024F5E7174A01AB10685168926807C35B
:10139000032101A800F08AFB0E4B5B6D984201D03F
:1013A0000024E5E70B4B1B6D994201D00024DFE7D9
:1013B000084D0023AB6595F86000FFF797FFEA6DD5
:1013C000094B1A60D4E70024D2E700BF9AAD44C5A8
:1013D00000380240006600405041A0B0A844002000
:1013E000B1440020586600401023002030B583B07F
:1013F00000F02CFC1D4B188102225A71002474B994
:1014000041F2D00304FB03F319481A58556801222E
:10141000184909681844A8470134E4B2EFE70023EB
:101420000193154B0093154B4FF480521449154806
:1014300002F06CF8144B197899B901F0E5FB0446F9
:101440004FF4C870FFF7F4F9044404F516740F4B19
:101450001C6003F0D1FA10B1044B0F221A8103B0C3
:1014600030BD084802F06EF8E7E700BF8C2300208B
:10147000D8330020102300206908000875120008E6
:101480009C230020A433002098230020A0330020B8
:1014900008B50CE0114B186001F0BAFBFFF7F0FC47
:1014A00013E0C82002F002FF0D4B1B7AA3B1FFF737
:1014B0004BFDFFF7FDFBFFF75BFC01F0A5FB074BC6
:1014C0001B68C31AB3F57A7FE4D2054B1B7A002B55
:1014D000E7D0FFF7BDFBE4E708BD00BFD849002017
:1014E000A844002008B54FF6FF710120FFF7E4FC87
:1014F00008BD00BF704700BF10B503F0F9F80A4BF4
:101500001880002406E003F0C9F80444074A136871
:1015100001331360B4F5803F05D2034B1B88034AA7
:1015200010688342EFD810BD0C4A0020E04900202B
:1015300008B503F037F908BD08B5920000F1006066
:1015400000F5803003F02AF908BD00BF08B5064B4E
:101550001B88064A12689B1A834201D8002008BDE6
:10156000104403F09BF8FAE70C4A0020E049002001
:1015700008B5034B1B68184403F0BCF808BD00BF56
:10158000E049002008B5034B1B68184403F0CAF873
:1015900008BD00BFE049002008B5074B93F8243090
:1015A0000BB9012008BD0449002381F8243008222A
:1015B000086AFFF7C1FFF5E7E4490020022800D0E0
:1015C0007047024B4FF080529A61F9E700080240E1
:1015D000022800D07047024B4FF480529A61F9E71D
:1015E00000080240002304E011F803C000F803C023
:1015F00001339342F8D370470346002000E00130E6
:1016000013F9012B002AFAD1704700BF034602E00C
:1016100003F8011B624602F1FF3C002AF8D1704733
:101620002DE9F843814688461546214B93F824302E
:1016300033B31F4A126A02EB8303834220D0FFF7C1
:10164000ABFF0346E0B930E0194E96F82400C0F134
:101650000804AC4228BF2C46E4B2A7003A464146F3
:1016600006EB8000FFF7BEFFB944B8442D1BEDB276
:1016700096F824301C44E4B286F82440082C0DD09F
:1016800095B10B4B93F82430002BDDD10848C0F8FE
:1016900020902022FF21FFF7B9FFD5E7FFF77CFF5D
:1016A00003460028ECD100E001231846BDE8F8838A
:1016B000E44900202DE9F84380460E46914640F269
:1016C000791200213046FFF7A1FF43462022002176
:1016D000304602F079F908F1040302222021304655
:1016E00002F072F908F1050303222221304602F0CC
:1016F0006BF908F1060303222521304602F064F954
:1017000008F1080310222821304602F05DF908F1A3
:10171000100308223821304602F056F908F111036F
:1017200008224021304602F04FF908F11203082246
:101730004821304602F048F908F1140320225021D4
:10174000304602F041F908F118034022702130467A
:1017500002F03AF908F120073B460822B021304652
:1017600002F032F908F121030822B821304602F0D4
:101770002BF9C025002408E03B1902330822294632
:10178000304602F021F9083501340F2CF4D907F165
:10179000120308222946304602F016F905F1080422
:1017A0000025BB7C9D420BD205F110033B44033363
:1017B00008222146304602F007F908340135F0E7E7
:1017C000B9F1000F10D0002598F832319D4214D2A3
:1017D00005F598734344033308222146304602F04E
:1017E000F3F808340135EFE708F59973072221462D
:1017F000304602F0E9F80734E5E7E01DC008BDE82F
:10180000F88300BF38B505460C4600212160C4F8B6
:10181000031003462022204602F0D6F82B1D022298
:101820002021204602F0D0F86B1D03222221204601
:1018300002F0CAF8AB1D03222521204602F0C4F8AD
:1018400005F1080310222821204602F0BDF80720E8
:1018500038BD00BFF0B583B007460E46047F009147
:1018600000230722194601F0ADFF731C00930023EB
:1018700001220721384601F0A5FF3CB1BB8ADB00FD
:10188000083BDB08B3700825002414E0B31C009368
:10189000002305220821384601F094FF0D25F3E7C7
:1018A000331903330093002308222946384601F0F8
:1018B00089FF08350134B3789C42F1D30735ED0830
:1018C0003B7F2BB1B88A401B18BF012003B0F0BD8D
:1018D000B88AA8422CBF00200120F7E7F0B583B0FA
:1018E00007460C46057F009100230822194601F0A7
:1018F00069FF661C3DB1BB8ADB00083BDB086370F7
:101900000825002413E000960023082211463846DB
:1019100001F058FF1025F4E7331901330093002339
:1019200008222946384601F04DFF08350134337846
:101930009C42F1D30735ED083B7F2BB1B88A401BA1
:1019400018BF012003B0F0BDB88AA8422CBF002008
:101950000120F7E7F8B506460F461446812200211C
:101960003846FFF753FE334608220021384602F07E
:101970002BF814B10825002410E0731C072208215D
:10198000384602F021F80F25F5E733190233082213
:101990002946384602F018F80835013473789C421D
:1019A000F3D3E81DC008F8BDF8B506460F46144647
:1019B000CE2200213846FFF729FE33462822002197
:1019C000384602F001F8083614B12825002410E04A
:1019D000334608222821384601F0F6FF3025F5E786
:1019E0003319013308222946384601F0EDFF083546
:1019F000013433789C42F3D3E81DC008F8BD00BF22
:101A0000F0B583B007460E46047F009101231022F3
:101A1000002101F0D7FE3CB1BB8ADB00103BDB08A4
:101A200073801025002414E0B31C009300230922C6
:101A30001021384601F0C6FE1925F3E733190433A7
:101A40000093002308222946384601F0BBFE0835E2
:101A5000013473889C42F1D30735ED083B7F2BB1ED
:101A6000B88A401B18BF012003B0F0BDB88AA84255
:101A70002CBF00200120F7E700B58E460AE040F3B6
:101A8000000C09490CEA010181EA50000133DBB284
:101A9000072BF4D91346013A23B11EF8013B5840F5
:101AA0000023F5E75DF804FB2083B8ED30B583B083
:101AB00004460B464FF0FF30014620E00018494134
:101AC0000133DBB2072B0BD80029F7DA10EB000C3F
:101AD00041EB010210488CEA000010495140EFE749
:101AE0000EF1010E5FFA8EFEBEF1030F06D801ABB8
:101AF00013F80E3081EA03610023E3E72B465D1EF5
:101B0000ADB22BB154F8043B01934FF0000EEBE75C
:101B1000C043C94303B030BD9336EAA9EBE1F042BC
:101B2000F0B583B01F4B6A4693E8030082E80300D8
:101B300008231D491D4803F007FB30B30446036921
:101B4000B3F5702F23D8418B40F26E42914220D1E1
:101B500000F11807164A024402F110018B421BD310
:101B60009B1AA3F1100511490020FFF785FF0646D7
:101B70002A4639460020FFF77FFFA368B3420DD104
:101B8000E36883420CD1002004E00A2002E00B202D
:101B900000E00C2003B0F0BD1020FBE70D20F9E7BA
:101BA0000D20F7E734520008DCFF0E0000000108AA
:101BB0000800FFF7F0B583B0204B6A4693E80300B6
:101BC00082E8030008231E491E4803F0BDFA38B31B
:101BD00004460369B3F5702F24D8B0F8661040F2BC
:101BE0006E42914220D100F16407174A024402F18B
:101BF0005C018B421BD39B1AA3F15C0511490020A9
:101C0000FFF73AFF06462A4639460020FFF734FF21
:101C1000A368B3420DD1E36883420CD1002004E0F5
:101C20000A2002E00B2000E00C2003B0F0BD1020E1
:101C3000FBE70D20F9E70D20F7E700BF4052000851
:101C400090FF0E00000001080800FFF710B5FFF735
:101C500067FF044608B9204610BDFFF7ABFF002818
:101C6000F9D10446F7E700BF10B50446037C0BB179
:101C7000204610BD006803F04FFAF9E7BFF35B8F11
:101C8000C368BFF35B8FBFF35B8F8268BFF35B8F6B
:101C90009A4208D94268BFF35B8F8068BFF35B8FBD
:101CA000101A18447047BFF35B8F8068BFF35B8FD7
:101CB000181A7047BFF35B8F0023C360BFF35B8FBD
:101CC000BFF35B8F8360BFF35B8F70470346406851
:101CD00000B97047BFF35B8F9A68BFF35B8FBFF3A8
:101CE0005B8FD968BFF35B8F914209D35868BFF30C
:101CF0005B8FDB68BFF35B8FD21A013A1044E8E7D1
:101D00000020F4E738B505460C46FFF7B7FFA042C0
:101D100001D2002038BDBFF35B8FA968BFF35B8F92
:101D20000C446968B4FBF1F301FB1344BFF35B8F10
:101D3000AC60BFF35B8F0120ECE700BF70B50446D9
:101D40000E461546FFF7C2FFA84200D3284608B941
:101D5000002070BD2368BFF35B8FE268BFF35B8F29
:101D6000134433606268BFF35B8FE368BFF35B8F3C
:101D7000D11A884207D971602168B1609B1A184452
:101D8000F0600220E5E770600120E2E738B5054623
:101D90000C46FFF79BFFA04201D2002038BDBFF3E5
:101DA0005B8FE968BFF35B8F0C446968B4FBF1F3A8
:101DB00001FB1344BFF35B8FEC60BFF35B8F01202B
:101DC000ECE700BF2DE9F04385B0814688466946BF
:101DD000FFF7B4FF0746002425460EE004AB03EBF3
:101DE000C40656F80C2C08EB050156F8100CFFF74A
:101DF000F9FB56F80C3C1D440134A742EEDC2946A1
:101E00004846FFF7C3FF284605B0BDE8F08300BF92
:101E1000BFF35B8FC368BFF35B8FBFF35B8F8268D9
:101E2000BFF35B8F9A4210D94368BFF35B8F826820
:101E3000BFF35B8F9B1A0B6073B10368BFF35B8FBB
:101E40008068BFF35B8F18447047BFF35B8F826875
:101E5000BFF35B8F9B1AEEE700207047F0B583B0AD
:101E600007460E461546FFF709FF04460190A842B3
:101E700000D32C4614B9002003B0F0BD01A93846A8
:101E8000FFF7C6FF019B6BB1A34200D901943060FC
:101E900001987060A0420DD23B68B360241AF460D0
:101EA0000220E9E73B68336074600023B360F360AD
:101EB0000120E1E70120DFE72DE9F04184B0884609
:101EC0006946FFF7CBFF0746002425460EE004AB2A
:101ED00003EBC40656F80C2C56F8101C08EB050052
:101EE000FFF780FB56F80C3C1D440134A742EEDCA2
:101EF000284604B0BDE8F08138B50546FFF7DCFFA1
:101F0000044601462846FFF7FDFE204638BD00BFC7
:101F100010B5026854681A46A04710BD01207047EA
:101F20000020704700207047704700BF00207047B6
:101F30000E20704700F5805090F8C800C0F34000B4
:101F4000704700BF00F5805090F9C900704700BF8E
:101F5000F0B583B0BDF820500C6814F0005F40F07D
:101F60008C800C7B082C00F28B80302484F3118849
:101F700062B64469A66816F0806F0FD1A66816F0A5
:101F8000006F6DD1A66816F0805F02D04FF0020E90
:101F900006E0002080F3118862B65FE04FF0000E8B
:101FA000F4460E68002E5EDB76050EF1180E4FEA41
:101FB0000E1E44F80E600E6816F0804F06D00CF12D
:101FC00018063601A75947F00207A7510F7B0CF1FD
:101FD00018064FEA061E04EB061677608E6804EBBF
:101FE0000C17C7F88C614E68C7F8886154F80E600A
:101FF00046F0010644F80E6041F2680E0EEB4C14F8
:10200000044400EB4C16764432607360D1F800E073
:102010004F688E68C4F808E0E76026618E89A68262
:102020000CF1840C00EB4C1C9CF8044065F300049C
:102030008CF80440C5F34006E4B266F341048CF822
:102040000440E4B26FF3C3048CF80440002484F32A
:10205000118862B6009500F00FFE012003B0F0BDBC
:102060004FF0010E9CE7F60046F004060EF1180E44
:102070004FEA0E1E44F80E609DE74FF0FF30EDE78B
:102080004FF0FF30EAE700BF08B5302383F3118833
:1020900062B600F58050C06DFFF70CFE002383F39D
:1020A000118862B608BD00BF70B504460D4641F206
:1020B0005C068059FFF70AFE1F2801D8002070BD7A
:1020C00020222946A059FFF77DFE202814BF0020BA
:1020D0000120F4E72DE9F04188B006460D46174689
:1020E0009846302383F3118862B600220023CDE99D
:1020F00000230024ADF8084003948DF818408DF8B3
:1021000019400494059441F25C040059FFF7B6FDB0
:102110001F2807D8002078B980F3118862B608B06C
:10212000BDE8F081202269463059FFF7E5FE2028FE
:1021300014BF00200120EEE703AB07CB28606960E5
:10214000AA601B88AB81DDE90023C7E90023BDF845
:102150000830A8F80030002383F3118862B64346A4
:102160003A462946304600F05FFDD8E710B5374BB8
:1021700003600023436083600246354C42F8184BED
:10218000836113735373C36103629FED2E7B80EDF4
:102190000A7B0386436380F8403080F841308363D4
:1021A000C36300F1480423464FF07F0C0DE09FED20
:1021B000257B83ED007B00221A81DA601A765A763D
:1021C0001A615A6120330CF1FF3CBCF1000FEEDACA
:1021D00000F58252083200F580539C644FF480541D
:1021E000DC6400241C655C654FF0010C83F858C06A
:1021F000DA6583F860C000F5835308334FF0020EB0
:10220000BEF1000F11DB9C469FED0E7BACEC027B18
:1022100000229A608CF80C208CF80D20DA601A618C
:102220009A6120330EF1FF3EEAE700F5805383F810
:10223000C91011B9074B436110BD074800F0DEFC1F
:10224000AFF300800000000000000000BC52000856
:1022500074520008006400404C52000810B5044657
:10226000034B19784A1C1A70FFF780FF204610BDF7
:10227000144A0020002977D070B582B00C46424B3A
:10228000994211D90A234149B1FBF4FC013BDBB26D
:102290009E46581CBCFBF0F100FB11C131B1022B72
:1022A00064D9013BDBB2F3E71123ECE7BCFBF0F0B0
:1022B000411EB1F5806F5CD2C3EBC30E1EF103016A
:1022C0004DD4C1F3C70C8DF800C0A3EB0C05EDB2E3
:1022D0008DF801500CF101064FF47A710CFB0111DD
:1022E000354491FBF5F189B2ADF80210B1F5617F8B
:1022F00018D9BEF1010E34D4CEF3C70E8DF804E028
:10230000A3EB0E03DBB28DF805300EF101054FF49F
:102310007A710EFB01112B4491FBF3F3ADF80630FB
:10232000019B00939DF800104B1C9DF80160334405
:1023300000FB03F3154DB5FBF3F3A3421BD10139A9
:10234000C9B20F2919D8D6B1082E1AD80138108071
:1023500000239370D170013E1671012007E0073110
:10236000AFE70EF1070EC7E700207047002002B06C
:1023700070BD0020FBE70020F9E70020F7E7002010
:10238000F5E70020F3E700BF3F420F0080DE800248
:1023900070B506460D460024B4F57A7F0BD27369FA
:1023A0005B6803F00103AB4207D04FF47A7001F091
:1023B0007DFF0134F0E7002000E0012070BD00BF88
:1023C000032964D870B588B004460D46164600F55A
:1023D000805393F8C830C3F3800113F0040F00D189
:1023E000114604F5805393F8C82061F3820283F804
:1023F000C82041F2680303EB451304EB030C05F11D
:10240000840304EB43131B7913F0010F08D03EB192
:1024100005F1840304EB43131B7913F0080F10D06C
:102420006EB105F1840304EB43131B7913F0080F1D
:1024300005D1843504EB451443F00803237108B03B
:1024400070BD00220023CDE900230023ADF8083041
:1024500003938DF818308DF819300493059303AB6E
:10246000DCF80800DCF80C10DCF8102007C3BCF81E
:1024700014201A80DDE90C23CDE900230123ADF8F7
:1024800008302368DB6B694620469847C8E77047E9
:102490004269936913F0700F23D00023936100E029
:1024A0000133022B1DDC03F1840200EB421212798E
:1024B00012F0040FF4D003F1840200EB42121279FF
:1024C00012F0020FECD04269064951F823109160D6
:1024D00003F1840200EB4212117941F00401117101
:1024E000DEE770476052000870B582B004461646B9
:1024F0001D4643699A6812F0010F0ED163699A680C
:1025000012F4807F14D163699A6812F4803F1CD161
:102510002046FFF7BDFF02B070BD9A6801219960A7
:1025200000960195C2F340020021FFF749FFE5E75D
:102530009A684FF48071996000960195C2F3402229
:1025400001212046FFF73CFFDDE79A684FF4803118
:10255000996000960195C2F3404202212046FFF7A0
:102560002FFFD5E738B504460846002971D16169C7
:1025700001F10C0CDCF8001011F0030F68D0DCF84E
:102580000010616900F11B052D014D5915F0040F74
:1025900063D100F11B052D014D596D0DA56100F1B1
:1025A0001B052D014D5915F0020F03D0A56945F00B
:1025B0008045A56100F11B0501EB05156D6805F06F
:1025C0000F0E84F824E001EB0011D1F8B801207758
:1025D000D1F8B801000A6077D1F8B801000CA077F3
:1025E000D1F8B801000EE077D1F8BC0184F82000E2
:1025F000D1F8BC01000A84F82100D1F8BC01000C1C
:1026000084F82200D1F8BC11090E84F82310382177
:10261000CCF80010A569E069216A6563A063E163F5
:10262000A18CA4F84010A262E362002323862368F1
:10263000DB6B04F128012046984704F5805292F89C
:10264000C83043F0040382F8C8302046FFF720FF6B
:1026500038BD616901F1100C8CE700F11B052D01FB
:102660004D59ED08A56145F00045A56197E700BF0C
:10267000302181F3118862B60021022937DC30B5A0
:1026800002E0013102292DDC01F1840C00EB4C1C2D
:102690009CF804C01CF0040FF3D101F1840C00EB92
:1026A0004C1C9CF804C01CF0100FEAD000EB411E3B
:1026B00041F2680C0EEB0C045EF80C506468954215
:1026C0009C41DED244690C4D55F82150A56001F1C2
:1026D000840C00EB4C1C9CF804E04EF0040E8CF8CB
:1026E00004E0CEE7002383F3118862B630BD0023F7
:1026F00083F3118862B670476052000808B5302332
:1027000083F3118862B6FFF7C3FE002383F31188B9
:1027100062B608BD43699B6803F0E053B3F1E05F24
:102720002DD070B505460E465BB3302383F3118878
:1027300062B6002400E00134022C1ADC04F18403A8
:1027400005EB43131B7913F0080FF4D104F1840354
:1027500005EB43131B7913F0040FECD141F2700128
:1027600001EB44112944304600F0C4FA0028E2D1BC
:1027700000E00120002383F3118862B670BD0120C0
:1027800070470020FAE700BF08B5302383F31188B3
:1027900062B600F58050C06DFFF770FA002383F336
:1027A000118862B61F288CBF0020012008BD00BF21
:1027B000F8B507460E4614461D4600231370FFF772
:1027C000E3FF80F00103337025B129463846FFF757
:1027D000A1FF2070F8BD00BFF8B504460D461646AF
:1027E0001F4600F015FA02460B46297809B93078E1
:1027F00060B12046FFF73CFF2046FFF77FFF3B46D6
:10280000324629462046FFF7D3FF0120F8BD00BF1E
:10281000302383F3118862B61C4B1A6C42F00072AD
:102820001A641A6A42F000721A621A6A22F000727E
:102830001A62002383F3118862B600F5805393F87F
:10284000C83013F0010F20D110B5044601B910BDF6
:10285000302383F3118862B60321132001F0D0FBEB
:102860000321142001F0CCFB0321152001F0C8FB4B
:1028700004F5805494F8C83043F0010384F8C8305C
:10288000002383F3118862B6E1E770470038024005
:1028900000F5805393F8C930012B00F233812DE904
:1028A000F0418AB004460E461746984A52F8232053
:1028B000002A38D0E6602774944B1B68002B36D072
:1028C00004F5805393F8C930012B06D18F4B18685B
:1028D00003681B6B9847002838D001212046FFF77A
:1028E00097FF302383F3118862B66269136823F07F
:1028F000020313606269136843F0010313606269A5
:102900000023536183F3118862B601212046FFF74B
:102910003FFD034648BB62694FF400411160184611
:102920000AB0BDE8F081794A42F82300C2E741F2DB
:10293000D00002F0B1FB054610B10021FFF716FCF4
:10294000724B1D60002DBBD10023E8E76F4D0021C5
:102950002868FFF75DFF286803685B683A463146E0
:10296000984703460028B8D1D9E704F58053D86DBD
:10297000FFF7A0F94FF000082BE020220021684665
:10298000FEF744FE002302938DF814308DF81530C5
:1029900003930493069341F2680505EB481504EB95
:1029A000050EEC46BCE80F006051CEF80410CEF8DE
:1029B0000820CEF80C30BCE80700CEF81000CEF8A6
:1029C0001410CEF818209CF800308EF81C3008F156
:1029D0000108B8F1020FD0D904F5805393F8C8204C
:1029E0006FF3820283F8C8200023ADF820308DF801
:1029F00022308DF823308DF8243008AA3146204645
:102A0000FFF738FC034600286FD0636961221A6023
:102A10009DF822301B0603F040739DF8232012041A
:102A200002F4702213439DF82420120502F4E00200
:102A30001343BDF82020C2F309021343022F59D0DB
:102A4000002162690B43D361636913225A61626991
:102A5000136823F00103136000212046FFF798FC60
:102A60000346002849D004F5805292F8C9209ABB49
:102A70006169D1F8002242F00102C1F800226169C7
:102A8000D1F8002222F47C5222F00E02C1F800227A
:102A90006169D1F8002242F46062C1F800226169E4
:102AA0000022C1F814226169C1F80422616941F66B
:102AB000FF70C1F80C026169C1F840226169C1F878
:102AC000442262690121C2F81C126169D1F8002216
:102AD00022F00102C1F8002204F5805494F8C820C5
:102AE00042F0020284F8C82019E762694FF40041FD
:102AF000116014E74FF00041A3E762694FF4004111
:102B000011600CE700231846704700BF104A0020F0
:102B100008B500F07DF802460B4652EA030102D0E8
:102B2000013A43F1FF330449086808B1FFF7DCFCC0
:102B300001F03AFA08BD00BF104A002008B500F0C5
:102B400067F802460B4652EA030102D0013A43F10C
:102B5000FF330449086810B10021FFF703FD01F0BD
:102B600023FA08BD104A002008B500F051F80246CB
:102B70000B4652EA030102D0013A43F1FF33044904
:102B8000086810B10121FFF7EDFC01F00DFA08BD56
:102B9000104A002000B59BB0EFF309816822684617
:102BA000FEF720FDEFF30583014B9B6BFEE700BFB3
:102BB00000ED00E000B59BB0EFF3098168226846A4
:102BC000FEF710FDEFF30583014B9B6BFEE700BFA3
:102BD00000ED00E000B59BB0EFF309816822684684
:102BE000FEF700FDEFF30583014B5B6BFEE700BFD3
:102BF00000ED00E0FEE700BFFEE700BF0FB408B540
:102C0000029801F0E3FAFEE708B501F035FE08BDD1
:102C100008B501F00BFE08BD00207047002070478A
:102C200000207047704700BF30B583B084460D4622
:102C3000043003C802AA02E9030069B10C461B88EC
:102C400013F0040F08D1DCF800309B6B6046984706
:102C50002A46C1B20098A047012003B030BD00BF92
:102C600082B0EC468CE80600031D9CE8030083E874
:102C70000500012002B0704770B58AB004460E46C8
:102C8000031D93E803000AAB03E9030069B10D4695
:102C9000BDF8383013F0040F0AD123689B6B20462F
:102CA00098473246C1B20898A84701200AB070BDC3
:102CB00000220023CDE900230023ADF80830039360
:102CC0008DF818308DF819300493059303AB3068F4
:102CD0007168B26807C3B2891A80FFF799FFCDE91E
:102CE00000010423ADF808302368DB6B69462046F9
:102CF0009847DAE7036823F0604C0A6822F06041E5
:102D0000D00FB0EBD37F0FD0002B08DB002A09DBFC
:102D10008C4513D08C452CBF0020012070474FEA12
:102D20009C4CF3E7890CF3E7C3F38073C2F3807024
:102D30008C4504D08C452CBF002001207047834275
:102D4000FCD1F7E7084670470846704708467047C9
:102D500008467047401A83B2002800DB704703F131
:102D6000200000B2FAE700BF03780133DBB2037042
:102D70001F2B01D900230370704700BF082818D902
:102D800009280BD00A280BD00B280BD00C280BD00D
:102D90000D280BD00E280BD0402070470C20704718
:102DA000102070471420704718207047202070476B
:102DB00030207047082818D90C280BD910280BD9B7
:102DC00014280BD918280BD920280BD930280BD957
:102DD0000F207047092070470A2070470B2070476A
:102DE0000C2070470D2070470E207047034621F0DD
:102DF000604C20F06042C00FB0EBD17F0FD00029B3
:102E000008DB002B09DB944513D094452CBF002030
:102E1000012070474FEA9C4CF3E7920CF3E7C1F3B3
:102E20008071C3F38070944504D094452CBF00207A
:102E3000012070478142FCD1F7E700BF2DE9F04146
:102E400007460D46D0F82480B8F1000F0CD0464656
:102E50004446A4B169686068FFF7C8FF30B92368C9
:102E600026465BB11C46F4E7796208E0A04502D033
:102E700035602C6003E02C607D6200E02560BDE8D9
:102E8000F08100BFC37DC3F38402013262F3860385
:102E9000C375C38A6FF30903C382C37D6FF3C7137E
:102EA000C375704738B504460D46006A04E00168F2
:102EB00004F10C00FFF74AFF10B10369AB42F6D1F1
:102EC00038BD00BF2DE9F043079CCE0803EBD405C5
:102ED00001F0070304F007041A442AE003F007088E
:102EE00004F00707C646B84538BFBE46CEF1080E07
:102EF000D11A8E4528BF8E464FF47F4C2CFA0EFC1B
:102F00005FFA8CFC4CFA07FCD90800EB060919F8AB
:102F1000011001FA08F1F940C9B24FEAD40815F8D6
:102F2000087079400CEA01014F4005F808707344BD
:102F300074449342D2D1BDE8F08300BF2DE9F04F35
:102F400087B004900E4605920393838AB1EBC30FBA
:102F500080F084801146DA0031448A4204D2D2B231
:102F6000F3B2D21AD3B20593049BDB683BB3272E8E
:102F700036D8C6F12803059A9A422ED35FFA86FB0B
:102F8000CBF1280B5FFA8BFB00230093039B5A467F
:102F9000314604988068FFF795FF5E44059BA3EBDC
:102FA0000B04E4B2049B9F8A07F10057053FFF0022
:102FB000D3F80C9028214B46B9461F4627E0049BC6
:102FC0001B69002BD3D100230093039B059A314644
:102FD00004988068FFF776FF33E0DDF814B0D3E79C
:102FE000059C4FF0000BDDE72546CDF800B0039BB4
:102FF0002A46711A381DFFF765FF2E44AB445FFA6D
:103000008BFB641BE4B2A9EB0A093F684146A7B1F8
:103010009CB1CA46B9F1E00F28BF4FF0E00A0AEBB5
:1030200001084645EFD2A8EB06039C42DCD35FFAC9
:1030300088F5F3B2ED1AEDB2D7E7049B186900B139
:1030400024B9BDF9140007B0BDE8F08FCDF800B089
:10305000039B2246711AFFF735FFF2E70020F2E7E3
:10306000002070470139002307E0C25C10F801C05E
:1030700000F803C04254013301398B42F5D3704745
:1030800080EA0120002303E0400080B20133DBB27C
:10309000072B09D810F4004FF6D0400080B280F41E
:1030A000815080F00100F1E7704700BF70B516460F
:1030B0001D46002411E0C4F12003A4F1200C26FADF
:1030C00004F105FA03F3194325FA0CFC41EA0C015B
:1030D000C9B2FFF7D5FF0834A4B23F2CEBD970BDBD
:1030E00038B50C4604E014F8011BFFF7C9FF2A4667
:1030F000551E002AF7D138BD38B5058C072D0BD9E0
:103100000446D0E902234FF6FF70FFF7CFFF2A46AF
:10311000E169FFF7E5FF38BD4FF6FF70FBE700BF41
:1031200010B4016100F1040C002305E001EB43142D
:10313000CCF80040A44601339A42F7D80023CCF8DB
:10314000003002814381838103605DF8044B704746
:103150000346406848B102685A605A89013292B207
:103160005A8199898A4200D99A81704708B5FFF738
:10317000EFFF08B10023036008BD00BF2DE9F84F41
:103180008246894616461F46CB8AC3F30903052BA0
:1031900034D018460024042B0BD8BAB2A24208D966
:1031A000315D09EB0302D17601339BB20134A4B245
:1031B000F1E7BBB2A34218D9B9F816B0CBF3090BAB
:1031C000ABF1050293083E49A1FB0313C3EBC30314
:1031D000A2EB83031FFA83F8D9F8041081B150469B
:1031E000FFF7B0FD054601231CE00344B9F81620A3
:1031F00063F30902A9F81620012055E00024DBE75B
:103200005046FFF7B3FF054601465046FFF79CFDC9
:10321000C9F80400002D49D04FF000082CE001331C
:103220009BB215462A68002AF9D107EB0B02053A32
:1032300092082349A1FB021292B2013292B2934248
:103240001AD2B8F1000F17D15046FFF78FFF286050
:1032500078B3054610E0325D05EB0C031A710CF1F2
:10326000010C1FFA8CFC0134A4B2BCF11B0F01D875
:10327000A142F0D8A14204D8B9B2A1420AD9C446A9
:10328000F3E75046FFF772FF2860A8B105464FF0FC
:103290000008F1E7B9F81630C3F30902114461F3ED
:1032A0000903A9F816300120BDE8F88F6FF002007D
:1032B000FAE76FF00200F7E76FF00200F4E700BFF3
:1032C0002549922443680B6041604389013B438157
:1032D000704700BFF8B506460D460EE006F10C0437
:1032E0002046FFF72FFD014607682046FFF7EAFF5B
:1032F00039462046FFF728FD686069680029EDD14E
:10330000EB8A6FF30903EB8200200021F8BD00BFB8
:1033100008B5FFF71DFF034628B100220260426096
:103320008260C2600261184608BD00BF2DE9F04FFF
:1033300083B001921D465B69002B00F08A808146B4
:103340008B462B8C1BB1EA69002A00F08580072B85
:1033500006D94FF0800A4FF000084446474664E023
:1033600009F10C00FFF7D4FF0446002877D02A8C1F
:10337000E9690830FEF736F9288C013080B2FFF792
:1033800019FDFFF7FBFC431E9BB22B840133237412
:103390006B691B7803F01F032A8C43F0C00322449F
:1033A00013724BF00043636021464846FFF746FD29
:1033B0000127384603B0BDE8F08F002007E0EA6936
:1033C000125D33441A72013080B20134A4B2034654
:1033D000062802D82A8CA242F1D82B8CA34235D0E1
:1033E000013080B2FFF7E6FCFFF7C8FC013880B27D
:1033F0004FEA4813DBB243EA0A0A6B691B7803F011
:103400001F034AEA030A331883F808A04BF000436D
:1034100073600130307431464846FFF70FFD0137C5
:103420003FB288F001084FF0000A2B8CA342C0D0B5
:1034300009F10C00FFF76CFF064698B1002CBCD1D7
:10344000019B03721B0A43720220C0E74FF0400A3F
:10345000C6E76FF00107ACE76FF00107A9E76FF06F
:103460000207A6E76FF00207A3E700BF30B589B0F7
:1034700004460D46202200216846FEF7C7F8049551
:103480002046FFF765FE8646A0B1EC46BCE80F007B
:10349000CEF80000CEF80410CEF80820CEF80C309C
:1034A000BCE80F00CEF81000CEF81410CEF81820AB
:1034B000CEF81C30704609B030BD00BF70B5044670
:1034C00000F10C063046FFF7D1FF054628B1216A0E
:1034D0003046FFF73DFC28602562284670BD00BFDE
:1034E00038B504460D46036A1BB1FFF7DBFC38B163
:1034F00038BD0C30FFF7BAFF0028F9D02062F7E79B
:1035000029462046FFF7DAFFF2E700BFF8B5044688
:103510000E4615461F4630220021FEF777F8A760B9
:10352000069B6360079BA3626A09B5F5001F01D380
:103530004FF6FF7292B2314604F10C00FFF7F0FD36
:10354000F8BD00BF037823B919B111F0800F00D185
:1035500001707047007870472DE9F84305460C4626
:10356000D1F81C90B9F1000F23D094F81880B8F16D
:103570001F0F3BD82846FFF7EDFF0646F8B9228C0F
:10358000072A36D8278A37F0030335D149464FF644
:10359000FF70FFF7A5FD47F6FE7303405B0243EAA9
:1035A00008633F0207F440773B431E434FF6FF7228
:1035B0000EE00B8C002BD8D06FF001050FE0238AB2
:1035C0001B0243EA08631E432046FFF795FD0246AF
:1035D000234631462846FFF7A9FE051E02DC284691
:1035E000BDE8F8836069FFF7BFFBF8E76FF00105FE
:1035F000F5E76FF00305F2E76FF00105EFE700BFB5
:1036000070B58AB0044616461D4628220021684639
:10361000FDF7FCFF02960395BDF83830ADF8103089
:103620000F9B05939DF840308DF81830119B079340
:10363000BDF84830ADF8203069462046FFF78CFFD2
:103640000AB070BD2DE9F04106460F461546D36914
:103650002BB395F81880B8F11F0F2AD83046FFF722
:1036600079FF48B32C8A240444EA08642B7844EA9E
:10367000C33444EA0724044344F080042846FFF797
:103680003BFD02462B4621463046FFF74FFE041E07
:1036900002DD2B78012B08D02046BDE8F081138C89
:1036A000002BD6D06FF00104F6E76869FFF75CFBEA
:1036B000F2E76FF00104EFE76FF00304ECE700BFFF
:1036C000F0B58BB004460D4617461E462822002151
:1036D0006846FDF79BFF9DF84C30012B14BF00237B
:1036E00001238DF80030029703969DF84030ADF825
:1036F0001030119B05939DF848308DF81830149BBD
:103700000793BDF85430ADF820306A46294620466C
:10371000FFF798FF0BB0F0BD406A00B1043070476E
:1037200008B5416A0B6843620C30FFF7CBFD08BD5A
:103730002DE9F041054616469846076A3C4619E0D1
:1037400021462846FFF7C6FD05F10C072B6A1968CC
:103750003846FFF7FBFA286221463846FFF7B2FDEC
:103760002C6A274606E0216805F10C00FFF7EEFA07
:10377000274604460CB3A168E368711A68EB03039B
:103780000F4A8A424FF0000272EB0303EBD22B6A1E
:10379000A342D5D021462846FFF79CFD23683B6015
:1037A00005F10C0321461C461846FFF78BFD3968CE
:1037B0002046FFF7CBFA0446DCE7BDE8F08100BF06
:1037C00080841E002DE9F04182B0089E002800F0A0
:1037D000E28014461D460746002E00F0DF80531E8F
:1037E000DBB23F2B00F2DD80012A02D1002D40F038
:1037F000DB800023009301936B4622463846FFF797
:103800009DFB071E3BDD14F0070F0AD002AB03EB54
:10381000D40111F8083C624202F00702134101F89A
:10382000083C012C0BD0082C2DD9102C2ED9202C83
:103830002FD9402C00F2BB804FF0080800E0A046D2
:10384000FFF70EFC40BB9DB1B4EBC80F10D0082CA5
:1038500027D89DF80020631E22FA03F313F0010F0E
:1038600006D00123A3405B42DBB213438DF8003046
:10387000002D72D0082C5ED89DF900303370384688
:1038800002B0BDE8F0814FF00108D9E74FF002081F
:10389000D6E74FF00408D3E741466846FFF7E2FB5E
:1038A000D1E7102C0FD8BDF80020631E22FA03F3D5
:1038B00013F0010FDCD00123A3405B429BB2134302
:1038C000ADF80030D4E7202C0CD8009A631E22FA01
:1038D00003F313F0010FCBD00123A3405B421A4343
:1038E0000092C5E73F2C65D8DDF800C0019A631E41
:1038F000C4F12100A4F121012CFA03F302FA00F033
:10390000034322FA01F10B4313F0010FB0D001235E
:10391000A4F12001C4F1200003FA01F123FA00F020
:103920000143A3405B4261EB41014CEA03030A43BC
:10393000009301929CE7102C03D8BDF9003033802E
:103940009DE7202C02D8009B336098E7402C34D8A8
:10395000DDE90023C6E9002391E7012C05D0082CFE
:1039600007D89DF80030337089E79DF80030337038
:1039700085E7102C03D8BDF8003033807FE7202C7A
:1039800002D8009B33607AE7402C19D8DDE9002388
:10399000C6E9002373E76FF0010770E76FF00107D6
:1039A0006DE76FF001076AE76FF0010767E76FF0F7
:1039B000080764E76FF0080761E76FF008075EE744
:1039C0006FF008075BE700BFF0B585B005460E460F
:1039D000402A03D8144612B9012400E040240022F2
:1039E00002920392012C06D0082C22D81B788DF865
:1039F0000830012703E01B788DF808302746FFF7D1
:103A00002FFB68BB14F0070F0AD004AB03EBD40103
:103A100011F8083C624202F00702934001F8083CAA
:103A200000962B462246002102A8FFF74BFA05B06C
:103A3000F0BD102C04D81B88ADF808300227DEE753
:103A4000202C03D81B6802930427D8E7402C05D804
:103A5000D3E90023CDE902230827D0E70027CEE7EA
:103A6000394602A8FFF7FEFACCE700BF70B506465C
:103A70000C4605E00D6806F10C00FFF723FCE5603D
:103A8000E1680029F6D10023E360A3602361A382EB
:103A900070BD00BF10F0800F04D010F4004F03D0B1
:103AA00001207047022070470020704710B504467F
:103AB000FFF7F0FF022802D0C4F3074010BDC4F3A3
:103AC0000F2014F07F0FF9D100F00300F6E700BFDC
:103AD0002DE9F04F99B006460D4603920493D1F8B4
:103AE00000904846FFF7D6FF0746022800F088807E
:103AF000C9F30628B9F1000F80F2028219F0C04F15
:103B000040F001822C7B002C00F00082022F05D0B7
:103B10003046FFF71FFD404540F0FB81C9F30463C9
:103B2000099309F07F0A4846FFF7C0FF0A9040EA70
:103B3000074949EA8A4949EA4869013C2C4494F812
:103B4000048000220023CDE916235FEAD8130293F4
:103B500059D07468CDF800A03B46024616A93046FD
:103B6000A047002800F0D88149463046FFF7B8FC4E
:103B70000446002800F0D381A368E168039A059306
:103B8000D01A0790049B069163EB0103089395F804
:103B90000DC0CDF82CC094F81AC0CDF830C094F800
:103BA0001790C9F3840908F01F0B59464846FFF7E0
:103BB000D1F80D9049465846FFF7CCF86368059A4E
:103BC000069952EA010C34D09D4A07998A424FF077
:103BD0000002089972EB010C7CD30B9A0C998A4273
:103BE0001BD0984B079A93424FF00003089A9341D9
:103BF00072D2029B002B71D00F2871DD002319E0D7
:103C00004FF0000876E749463046FFF74BF9044687
:103C10000028B1D16FF00C0085E1029A002AE0D0B3
:103C20000D9A012A01DD012304E0002BD9D00123E4
:103C300000E00123002B55D16A7BA37E9A4240F01D
:103C40007181029B13B118F0400F66D1C8F3401385
:103C5000E27DB3EBD21F40F06981C2F384039B4540
:103C600040F06781029B002B00F0908018F0400F1D
:103C700040F08C802B7B032B40F25E81039BA36082
:103C8000049BE360AF1D2B7B033BDBB23A4621462E
:103C900006F10C00FFF772FA00286DDB2B796A79C8
:103CA00043EA02232383DDE916234FF6FF70FFF773
:103CB000FDF9A0822A7B033AD2B23946FFF710FA07
:103CC000A082E37DDA43C2F3C01262F3C713E37547
:103CD000002028E10123ADE70023ABE70023A9E79B
:103CE0000123A7E7E37D68F38603E375DBB26FF397
:103CF000C713E37521463046FFF7ECFA6B7BA376DA
:103D0000029B002B98D1E37DC3F38402013262F35E
:103D10008603E3756FF00C0005E1039BA360049A32
:103D2000E260202200210EA8FDF770FC039B0E9399
:103D3000049A0F922B1D10932B7B013BDBB2ADF845
:103D40004C300A9BADF84E308DF850708DF851B064
:103D5000099B8DF852308DF853A096F82C3083F0E3
:103D600001038DF85430B3680EA9304698472046B9
:103D7000FFF788F80020D6E021463046FFF7AAFA80
:103D80002046FFF77FF86FF00200CCE0029B13B9EA
:103D900018F0400F1ED095F80C9009F1FF395FFA2A
:103DA00089F9B4F81680C8F30908B8F1040F30D8BF
:103DB00043464FF00008042B54D8C84552D205EBB7
:103DC00008021179E218D176013308F101085FFA8F
:103DD00088F8F0E72F1D2B7B013BDBB23A462146EA
:103DE00006F10C00FFF7CAF9002808DB2A7B013A2C
:103DF000D2B23946A08AFFF773F9A08261E7214663
:103E00003046FFF767FA2046FFF73CF86FF00200F4
:103E100089E0616806F10C00FEF794FF024608B1E4
:103E2000052304E04FF000081CE01C330A4611682B
:103E30000029FAD1A8EB03034FF000080EE000BF01
:103E400080841E0040420F0005EB08010879D1185C
:103E50000871013308F101085FFA88F81B2B01D8BB
:103E6000C845F1D3039B0E93049B0F9304F11B03EE
:103E70001093616806F10C00FEF764FF1190C845CD
:103E800035D2A84408F104031293E38AC3F309036B
:103E90009944ADF84C900A9BADF84E308DF85070B7
:103EA0008DF851B0099B8DF852308DF853A096F8DB
:103EB0002C3083F001038DF85430002363602A7B9B
:103EC000013A291DA08AFFF70BF9A082238B9842A3
:103ED0000FD00EA93046FFF7C9FD2046FEF7D2FFEE
:103EE000A28A238B9A4209D06FF010001BE00023B6
:103EF000CAE7B3680EA930469847EAE7002012E007
:103F00006FF009000FE06FF009000CE06FF009009E
:103F100009E06FF00A0006E06FF00B0003E06FF0BD
:103F2000020000E0002019B0BDE8F08F6FF00D0036
:103F3000F9E76FF00E00F6E76FF00F00F3E700BF50
:103F4000EFF30983683305494A6B22F001024A63A3
:103F500083F30988002383F31188704700EF00E0A2
:103F6000302080F3118862B60C4BD96821F4E061EF
:103F70000904090C0A4A0A43DA60D3F8FC2042F02B
:103F80008072C3F8FC2007490A6842F001020A6007
:103F90002022DA7783F82200704700BF00ED00E0AE
:103FA0000003FA05001000E0302383F31188104B62
:103FB0005B6813F4006F03D1002383F3118870470B
:103FC00010B5F1EE103AEFF30984683C4FF08073BE
:103FD000E361084BDB6B236684F3098800F0B8F8D3
:103FE00010B1054BA36110BD044BA361FBE700BFFB
:103FF00000ED00E000EF00E0430600084606000880
:104000000901C9B2074A131883F8001300F01F0111
:10401000400901238B4000F1600142F8213042F851
:104020002030704700E100E00023037503691B683E
:10403000996882689142FAD203605A6842601060BF
:104040005860704708B50846302383F311880B7D0C
:10405000032B0ED0042B10D043B14FF0FF338361FC
:10406000FFF7E2FF002383F3118808BD83F3118873
:10407000FBE78B6900221A60EFE74A680B68136060
:104080004A685A60E9E700BF0023037503691B68AB
:10409000996882689142FAD803605A684260106059
:1040A0005860704710B5084BD8681C6822681A60C1
:1040B000536001222275DC60FFF7E6FF01462046CF
:1040C000FCF7AAFA10BD00BF204A002008B5FFF790
:1040D000ABFF08BD08B5064BD968087518680268BB
:1040E0001A60536001220275D860FCF795FA08BD8A
:1040F000204A002030B587B004460C4BDD68B1F192
:10410000FF3F0FD02B460A4A684600F04BF9204685
:10411000FFF7E0FF009B13B1684600F051F9A86972
:1041200007B030BDFFF7D6FFF9E700BF204A0020F7
:104130004540000808B5054BD9681B689A688B682C
:104140009A4201D9FFF7AEFF08BD00BF204A002008
:10415000044BDA681B6898689368984294BF002003
:1041600001207047204A002010B5084BD8681C6811
:1041700022681A60536001222275DC60FFF784FF19
:1041800001462046FCF748FA10BD00BF204A002037
:1041900008B50B4B01221A70002353B109490A4894
:1041A00000F078FC064B02221A70002383F311887A
:1041B00008BD034A02EB8302002151600133ECE7A2
:1041C000884C002000530008204A002008B572B631
:1041D000044B186500F000FB00F0D6FB024B0322F5
:1041E0001A70FEE7204A0020884C002008B500F035
:1041F00021F908BDEFF3118058B9EFF30583C3F33C
:1042000008031BB1302383F311887047302383F3F5
:104210001188704778B908B5EFF30583C3F3080335
:104220001BB1002383F3118808BDFFF783FF002330
:1042300083F31188F8E770478B6002230B75002326
:104240004B7508610846704708B58168A1F1840381
:1042500041F8143C026941F8442C426941F8402C71
:10426000044A41F8242CC368026820390248FFF749
:10427000E3FF08BD31060008204A002008B5FFF71B
:10428000E3FFFFF723FF08BD08B5034BDB68986128
:104290000F20FFF71FFF08BD204A002008B530237C
:1042A00083F31188FFF7F0FF08BD00BF08B5014692
:1042B000302383F311880820FFF71CFF002383F3CA
:1042C000118808BDF8B515461C46C2608B60486071
:1042D00003680B6059600160092C00D80A24C0688B
:1042E000204400F0C3FB0A2700F0BCFB0646431B3A
:1042F0009C4202D90A2F07D8F8BD7C1C281900F06F
:10430000C3FB27463546EFE7012000F003FCF3E747
:1043100070B504460D46092900D80A250A266019F9
:1043200000F0B2FB00F09EFB041BA54202D90A2E4E
:1043300004D870BD013635460446F0E7012000F090
:10434000E9FBF6E7F8B505460E46174600F08AFB8E
:104350002B689D4209D0EC68041B3C1900D33C46F5
:104360009B68A34208D82B680CE03B4602463146C6
:104370002846FFF7A7FF14E03946FFF7C9FFF2E729
:10438000A41A1B689A689442FAD8B46033605A68D9
:10439000726016605E609A68121B9A604FF0FF337D
:1043A000AB60F8BD08B50361C260002343610A46F3
:1043B00001460248FFF7C6FF08BD00BF304A002093
:1043C00008B51B4B1B69984210D042680368136004
:1043D00042685A600268816893680B4493600023C6
:1043E0000360134B4FF0FF329A6108BD1968104A01
:1043F000134643F8101F4B600021016012699A4276
:1044000012D0816893680B44936000F02BFB084A3C
:10441000D369A0EB030C126991686145E5D91B1AB9
:104420001944FFF775FFE0E700F028FBDDE700BF68
:10443000204A0020F8B50BE0002383F31188E368DD
:10444000216920469847302383F311886369CBB9EB
:104450002C4D2C6900F006FBEB69C21AA568954249
:1044600042D81D44274BDD61616822680A6061689B
:1044700051600022226053F8102F9A42DCD100F0E4
:10448000FDFAD9E700F0EEFA0746461B6269B24230
:104490000CD32B1A13441B4A52F8101F91420AD016
:1044A0009E1900D23346174A12690CE0022000F030
:1044B00031FB0023EFE73A4621461348FFF702FF9E
:1044C0001FE05B1A126891688B42FAD8A3602260E1
:1044D000516861600C6054609168CB1A9360094B1D
:1044E0004FF0FF329A61B3E7064A52F8101F91422B
:1044F00007D0044AD0611B1AA1681944A160FFF7D4
:1045000007FFF8BD204A0020304A002000207047F5
:10451000FEE700BF704700BF4FF0FF30704700BF9D
:10452000BFF34F8F024BDB6813F4803FFAD1704723
:10453000003C0240014BF322DA607047003C02402D
:1045400008B50B4B1B7803B108BDFFF7E9FF094B1A
:104550001B69002B05DB074A136823F48063136093
:10456000F2E7044B044A5A6002F188325A60F2E7DB
:10457000904C0020003C02402301674508B50C4BDD
:104580001B7803B108BDFFF7CBFF0A4B1A6942F055
:1045900000421A611A6842F480521A601A6822F4C2
:1045A00080521A601A6842F480621A60EAE700BF1B
:1045B000904C0020003C024012F0010F65D1F8B58C
:1045C00004460E4615461318B3F1016F5FD8314B00
:1045D0001B6813F0010F01D1002059E0FFF7B0FF75
:1045E000FFF7A8FFFFF79CFF032D29D914F0030F55
:1045F00026D1294A136923F440731361136943F4E4
:10460000007343F00103136137682760BFF34F8FD6
:10461000FFF786FF23689F4203D1043D043604342C
:10462000E2E71D4A136923F00103136104E01A4A0B
:10463000136923F001031361FFF7A0FF002027E0B7
:10464000012D19D9144A136923F4407313611369B6
:1046500043F4807343F00103136133882380BFF375
:104660004F8FFFF75DFF23889BB232889A42DED1DD
:10467000023D02360234E3E7074A136923F00103DF
:104680001361FFF77BFF012002E00020704700204C
:10469000F8BD00BF00380240003C0240014B53F817
:1046A000200070470C5300080B281AD870B5064636
:1046B0000D4B1B788BB900244FF0006508E00B4BC5
:1046C00043F824502046FFF7E9FF05440134E4B2E3
:1046D0000B2CF4D9044B01221A70044B53F826001A
:1046E00070BD0020704700BFC44C0020944C0020D7
:1046F0000C2070470B2801D90020704738B50546BB
:10470000FFF7D2FF04462846FFF7C8FF30B1236801
:10471000B3F1FF3F04D104380434F7E7012038BD7A
:104720000020FCE70B2801D90020704738B504466B
:10473000FFF7F6FEFFF704FFFFF7FCFE154BA3FBA8
:104740000423DB081A4603EB4303A4EB8303DB00DB
:10475000DBB2D201D2B2134343F4007343F002033D
:104760000D4A1361136943F480331361FFF7D8FED8
:104770002046FFF799FF05462046FFF78FFF0146C9
:10478000284600F0FDF8FFF7F9FE2046FFF7B2FFDC
:1047900038BD00BFABAAAAAA003C024008B5FFF78B
:1047A0000BFF08BD08B5034610B10A4A127822B1C2
:1047B00013B9084B1B7833B908BDFFF7C1FE054B91
:1047C00001221A70F8E7034B00221A70FFF7D6FE99
:1047D000F2E700BF904C002010B500240BE0074822
:1047E00004EB44039A00134603445968805800F0D0
:1047F000C9F80134E4B2012CF1D910BD3C530008D2
:1048000008B50846114600F069FC08BD08B501204E
:1048100000F064FC08BD00BF08B5084600F07CFC51
:1048200008BD00BF08B500F01DF908BD70B582B025
:10483000FFF7E0FC0E4E0546FFF7F4FF32689042AA
:1048400003460ED30B49D1E900411C1941F1000187
:10485000284601913360FFF7DDFC0199204602B044
:1048600070BD044A5168146801315160EDE700BF22
:10487000C84C0020D04C002070B582B0FFF7BAFCC5
:10488000104E0546FFF7CEFF32689042034613D321
:104890000D49D1E900411C1941F10001284601915F
:1048A0003360FFF7B7FC01994FF47A72002320467A
:1048B000FBF79EFC02B070BD034A516814680131D9
:1048C0005160E8E7C84C0020D04C002009E000F11E
:1048D000010C064A52F8202041F8042B1A465FFAD0
:1048E0008CF0531EDBB2002AF1D1704750280040F3
:1048F00010B4124B1B6F13F4004F08D10F4B1C6FF9
:1049000044F400741C671C6F44F400441C670C4C96
:10491000236843F48073236009E000F1010C51F82F
:10492000044B084A42F820401A465FFA8CF0531EA6
:10493000DBB2002AF1D15DF8044B70470038024029
:10494000007000405028004000B583B0012201A94A
:104950000020FFF7BBFF019803B05DF804FB00BF28
:1049600010B582B00446FFF7EFFFA04201D102B0BC
:1049700010BD0194012201A90020FFF7B9FFF6E75D
:10498000704700BF704700BF704700BF074B45F23C
:1049900055521A6002225A6040F6FF729A604CF635
:1049A000CC421A60024B01221A707047003000405E
:1049B000DC4C0020034B1B781BB1034B4AF6AA22A8
:1049C0001A607047DC4C002000300040044B1B682C
:1049D00023B9044BD3F87428014B1A60704700BF09
:1049E000D84C002000300240024B4FF08072C3F8D8
:1049F000742870470030024008B5FFF7E7FF024B0C
:104A00001868C0F3407008BDD84C002008B5FFF707
:104A1000DDFF024B1868C0F3007008BDD84C0020C1
:104A2000704700BFFEE700BF084B094903E051F89B
:104A3000042B43F8042B074A9342F8D302E00022E8
:104A400043F8042B044A9342F9D37047684D002081
:104A5000E8540008684D0020684D002008B500F0BB
:104A6000DBF808BD4FF08043586A70474FF0804331
:104A7000586300221A610222DA6070474FF08043C7
:104A80000022DA60704700BF4FF0804358637047E0
:104A9000FEE700BF70B586B004460E46194B58605D
:104AA000002585620163FFF75BFA24606460A560FE
:104AB000E56204F11003236163614FF0FF33A361EA
:104AC000E561FFF7CFFF02462B46C4E908232565C1
:104AD00080230D4A04F134012046FFF7ADFBE0606E
:104AE00001230375094A009272680192B26802922A
:104AF0000393074B049305956846FFF7BFFB06B089
:104B000070BD00BF884C0020545300085C5300085F
:104B1000914A0008024AD36A0343D362704700BF38
:104B2000204A00204B6843608B688360CB68C36079
:104B30000B6943614B6903628B6943620B680360D5
:104B4000704700BF10B5214B1A6940F2FF110A43AC
:104B50001A611A6922F4FF7222F001021A611A69BD
:104B60001A6B0A431A631A6D0A431A651B6D184CB7
:104B700021461848FFF7D6FF04F11C011648FFF73D
:104B8000D1FF04F138011548FFF7CCFF04F15401BF
:104B90001348FFF7C7FF04F170011248FFF7C2FF87
:104BA00004F18C011048FFF7BDFF04F1A8010F4884
:104BB000FFF7B8FF04F1C4010D48FFF7B3FF04F19C
:104BC000E0010C48FFF7AEFF10BD00BF0038024007
:104BD0006453000800000240000402400008024044
:104BE000000C024000100240001402400018024075
:104BF000001C02400020024008B5FFF7A3FF00F0B0
:104C000095F808BD08B500F025FAFFF7C1FAFFF7DF
:104C1000DDFE08BD704700BF0F4B1A6C42F0010269
:104C20001A641A6E42F001021A661B6E0B4A9368F0
:104C300043F0010393604FF0804353229A624FF098
:104C4000FF32DA6200229A615A63DA605A60012206
:104C50005A611A60704700BF00380240002004E02B
:104C600008B54FF080421369D168C9B20B40D943EF
:104C7000116113F0020F00D108BD302383F31188B6
:104C8000FFF7B4FA002383F31188F5E70B4A1368A2
:104C900043F4807313600A4B1B6F03F44073B3F546
:104CA000007F05D0064B4FF480321A6700221A6746
:104CB000024A536823F40073536070470070004049
:104CC0000038024008B5184B1A696FEAC2526FEA01
:104CD000D2521A611A69C2F308021A611A695A6932
:104CE0004FF0FF3058615A69002159615A691A6AB8
:104CF00062F080521A621A6A02F080521A621A6ACC
:104D00005A6A58625A6A59625A6A1A6C42F0805258
:104D10001A641A6E42F080521A661B6EFFF7B6FFD5
:104D200000F076F908BD00BF003802403B4B4FF061
:104D300080521A643A4A4FF4404111601A6842F0B6
:104D400001021A60354B1B6813F0020FFAD0334A88
:104D5000936823F003039360304B9B6813F00C0FB0
:104D6000FAD12E4B1A6802F0F9021A6000229A60FA
:104D70001A6842F480321A60284B1B6813F4003F13
:104D8000FAD0264A536F43F001035367234B5B6FFE
:104D900013F0020FFAD0214B224A5A601A6842F0EF
:104DA00080721A601E4B5B6813F4804FFAD01B4B65
:104DB0001B6813F0007FFAD0184B1B4A9A601B4BFC
:104DC0001A681B4B9A421FD01A4B40F205721A60A8
:104DD000184B1B6803F00F03052BF9D10F4A93689A
:104DE00043F0020393600D4B9B6803F00C03082B08
:104DF000F9D10A4B5A6C42F480425A645A6E42F41A
:104E000080425A665B6E70470B4B1A680B4B9A4296
:104E1000DAD1084B40F205121A60D9E70038024097
:104E2000007000400854400700948838002004E0D7
:104E300011640020003C024000ED00E041C20F413F
:104E400008B5074A536903F0010353612BB1054BC1
:104E50001B6813B1034A50689847FFF7A5F808BDCF
:104E6000003C0140E04C002008B5074A536903F0BC
:104E7000020353612BB1054B9B6813B1034AD06801
:104E80009847FFF791F808BD003C0140E04C002036
:104E900008B5074A536903F0040353612BB1054B6E
:104EA0001B6913B1034A50699847FFF77DF808BDA5
:104EB000003C0140E04C002008B5074A536903F06C
:104EC000080353612BB1054B9B6913B1034AD069A9
:104ED0009847FFF769F808BD003C0140E04C00200E
:104EE00008B5074A536903F0100353612BB1054B12
:104EF0001B6A13B1034A506A9847FFF755F808BD7B
:104F0000003C0140E04C002010B51A4B5C6904F4F1
:104F100078725A6114F0200F05D0174B9B6A13B1B9
:104F2000154AD06A984714F0400F05D0124B1B6BFE
:104F300013B1114A506B984714F0800F05D00E4BF7
:104F40009B6B13B10C4AD06B984714F4807F05D04B
:104F5000094B1B6C13B1084A506C984714F4007F3E
:104F600005D0054B9B6C13B1034AD06C9847FFF7F3
:104F70001BF810BD003C0140E04C002010B51F4B59
:104F80005C6904F47C425A6114F4806F05D01C4BB8
:104F90001B6D13B11A4A506D984714F4006F05D079
:104FA000174B9B6D13B1164AD06D984714F4805F70
:104FB00005D0134B1B6E13B1114A506E984714F471
:104FC000005F05D00E4B9B6E13B10D4AD06E984713
:104FD00014F4804F05D00A4B1B6F13B1084A506F71
:104FE000984714F4004F05D0054B9B6F13B1044A4A
:104FF000D06F9847FEF7D8FF10BD00BF003C0140BE
:10500000E04C002008B5FFF72BFEFEF7CDFF08BDF2
:1050100008B506210846FEF7F3FF06210720FEF734
:10502000EFFF06210820FEF7EBFF06210920FEF71F
:10503000E7FF06210A20FEF7E3FF06211720FEF70F
:10504000DFFF06212820FEF7DBFF07211C20FEF7EB
:10505000D7FF08BD08B5FFF735FE00F005F8FFF7EC
:10506000D9FDFFF7FBFC08BD002307E0054A00213E
:1050700042F8331002EBC302516001330F2BF5D914
:10508000704700BFE04C00200B460146184600F078
:105090002DB8000000F040B8012838BF012010B53D
:1050A0000446204600F030F830B900F007F808B99F
:1050B00000F00CF88047F4E710BD0000024B1868C0
:1050C000BFF35B8F704700BF604D002008B506201E
:1050D00000F084F80120FFF71BFA0000024B0A469B
:1050E00001461868FFF78CBB1C23002010B5054C47
:1050F00013462CB10A4601460220AFF3008010BDD2
:105100002046FCE700000000024B01461868FFF74C
:105110007DBB00BF1C230020024B01461868FFF72F
:105120007BBB00BF1C23002010B501390244904214
:1051300001D1002005E0037811F8014FA34201D00E
:10514000181B10BD0130F2E72DE9F041A3B1C91AD7
:1051500017780144044603F1FF3C8C42204601D9F4
:10516000002009E00578BD4204F10104F5D10CEB03
:105170000405D618A54201D1BDE8F08115F8018DCE
:1051800016F801EDF045F5D0E7E700001F2938B526
:1051900004460D4604D9162303604FF0FF3038BD96
:1051A000426C12B152F821304BB9204600F030F871
:1051B0002A4601462046BDE8384000F017B8012BCA
:1051C0000AD0591C03D1162303600120E7E700240D
:1051D00042F82540284698470020E0E7024B014668
:1051E0001868FFF7D3BF00BF1C23002038B5074D58
:1051F00000230446084611462B60FFF78DF9431C37
:1052000002D12B6803B1236038BD00BF644D00207C
:10521000FFF77CB96F72672E6172647570696C6F8D
:10522000742E41522D46343037536D617274426191
:105230007400000040A2E4F16468910600000000E0
:1052400041A3E5F265699207000000004261642015
:1052500043414E496661636520696E6465782E003E
:1052600080000000008000000000800000000000BE
:1052700000000000111F000891280008D92700082D
:105280001D1F0008511F0008D5200008211F00081D
:10529000311F0008251F00082D1F0008291F0008C6
:1052A00089200008351F0008612C0008451F0008F0
:1052B000A92000080000000000000000111F0008E5
:1052C000F52B0008192C00081D1F0008792C000878
:1052D000292C0008211F00081D2C0008251F00088C
:1052E000212C0008291F0008252C0008F52B000898
:1052F000612C0008F52B0008F52B00086330000036
:10530000FC520008784A0020884C00200040000031
:1053100000400000004000000040000000000100CC
:105320000000020000000200000002000000020075
:105330000000020000000200000002000000002047
:105340000000020001000000000002200000020036
:10535000020000006D61696E0000000069646C6508
:10536000000000000000802A00000000AAAAAAAAEB
:1053700000000024FFFF0000000000000090090072
:105380000000000000000000AAAAAAAA0000000075
:10539000FFFF00000000000000000000000000050A
:1053A00000000000AAAAAAA600000000FFEF00006B
:1053B00000000000000000000000000000000000ED
:1053C000AAAAAAAA00000000FFFF00000000000037
:1053D000000000000000000000000000AAAAAAAA25
:1053E00000000000FFFF00000000000000000000BF
:1053F0000000000000000000AAAAAAAA0000000005
:10540000FFFF00000000000000000000000000009E
:1054100000000000AAAAAAAA00000000FFFF0000E6
:10542000000000000000000000000000000000007C
:105430000A0000000000000003000000000000005F
:10544000000000000000000000000000000000005C
:10545000000000000000000000000000000000004C
:10546000C0ADFF7F010000006E04000000000000DE
:1054700000000F000000000040420F00FE2A010063
:10548000D2040000202300200000000000000000E3
:10549000000000000000000000000000000000000C
:1054A00000000000000000000000000000000000FC
:1054B00000000000000000000000000000000000EC
:1054C00000000000000000000000000000000000DC
:1054D00000000000000000000000000000000000CC
:0854E0000000000000000000C4
:00000001FF
