:020000040800F2
:1000000000060020E1010008F50E0008F90E0008C6
:10001000510F0008F90E0008250F0008E301000841
:10002000E3010008E3010008E301000805290008D6
:10003000E3010008E3010008E3010008E301000810
:10004000E3010008E3010008E3010008E301000800
:10005000E3010008E3010008D5390008013A00086F
:100060002D3A0008593A0008853A0008E3010008D3
:10007000E3010008E3010008E3010008E3010008D0
:10008000E3010008E3010008E3010008E3010008C0
:10009000E3010008E3010008E3010008B13A0008A9
:1000A000E3010008E3010008E3010008E3010008A0
:1000B000E3010008E3010008E3010008E301000890
:1000C000E3010008E3010008E3010008E301000880
:1000D000E3010008E3010008011100081511000800
:1000E000193B0008E3010008E3010008E3010008F0
:1000F000E3010008E3010008E3010008E301000850
:10010000E3010008E301000841380008E3010008AA
:10011000E3010008E3010008E3010008E30100082F
:10012000E3010008E3010008E3010008E30100081F
:10013000E3010008E3010008E3010008E30100080F
:10014000E3010008E3010008E3010008493000086A
:10015000E3010008E3010008E3010008E3010008EF
:10016000E3010008E3010008E3010008E3010008DF
:10017000E3010008E3010008E3010008E3010008CF
:10018000E3010008E301000829110008E301000869
:10019000E3010008E3010008E3010008E3010008AF
:1001A000E3010008E3010008E3010008E30100089F
:1001B000E3010008E3010008E3010008E30100088F
:1001C000E3010008E3010008E3010008E30100087F
:1001D000E3010008E3010008E3010008E30100086F
:1001E00002E000F000F8FEE772B6394880F30888B4
:1001F000384880F3098838484EF60851CEF200019D
:10020000086040F20000CCF200004EF63471CEF2ED
:1002100000010860BFF34F8FBFF36F8F40F2000003
:10022000C0F2F0004EF68851CEF200010860BFF334
:100230004F8FBFF36F8F4FF00000E1EE100A4EF6C4
:100240003C71CEF200010860062080F31488BFF3F1
:100250006F8F02F0B5FB03F04BFA4FF055301F499A
:100260001B4A91423CBF41F8040BFAE71C49194A6A
:1002700091423CBF41F8040BFAE71A491A4A1B4B5A
:100280009A423EBF51F8040B42F8040BF8E70020F5
:100290001749184A91423CBF41F8040BFAE702F0B3
:1002A00093FB03F081FA144C144DAC4203DA54F87A
:1002B000041B8847F9E700F041F8114C114DAC429E
:1002C00003DA54F8041B8847F9E702F07BBB00000F
:1002D000000600200022002000000008000000208E
:1002E00000060020C03F0008002200203422002029
:1002F0003822002014350020E0010008E001000849
:10030000E0010008E00100082DE9F04F2DED108A12
:10031000C1F80CD0C3689D46BDEC108ABDE8F08FD3
:10032000002383F311882846A047002001F00CFF2A
:10033000FEE701F08DFE00DFFEE7000038B500F0BB
:10034000AFFC40B1174B6FF03F01002259720F21F3
:100350001A729972DA7202F0A7FA044602F0CCFA25
:100360000546D8B9104B9C421AD001339C4218BFA5
:10037000054641F2883404BF01250024002002F024
:100380009DFA0DB100F05AF800F05AFD00F0B6FBEE
:10039000204600F0B1F800F051F8F9E70024EDE74D
:1003A0000446EBE700220020010007B008B500F08A
:1003B00071FBA0F120035842584108BD07B5054B19
:1003C00002211B88ADF8043001A800F081FB03B0C6
:1003D0005DF804FB003C000810B5202383F311886E
:1003E0001248C3680BB101F04BFF0023104A0F48BD
:1003F0004FF47A7101F0F2FE002383F311880D4C63
:10040000236813B12368013B2360636813B16368F9
:10041000013B6360084B1B7833B9636823B9022042
:1004200000F07CFC3223636010BD00BF3822002046
:10043000D9030008542300204C22002010B5254B7E
:10044000254953F8042F013200D110BD8B42F8D159
:10045000224C234B22689A423AD9224B9B6803F1E3
:10046000006303F580439A4232D2002000F060FB23
:100470001D4B0220187000F047FC1C4B1A6C002228
:100480001A64196E1A66196E596C5A64596E5A6656
:100490005A6E5A6942F080025A615A6922F080020B
:1004A0005A615A691A6942F000521A611A6922F0B7
:1004B00000521A611B6972B60D4A0E4B13601B681D
:1004C0002268202181F311889D4683F30888104714
:1004D00010BD00BFFC3F00081C400008044000089D
:1004E000FF3F0008002200204C220020003802407C
:1004F00008ED00E0004000082DE9F04F99B0B94D3B
:1005000000902022FF2110A8AC6800F03BFCB64A06
:1005100001951378A3B9B5480121C3601170202358
:1005200083F31188C3680BB101F0AAFE0023B04A1F
:10053000AE484FF47A7101F051FE002383F3118825
:10054000009BAC4A03B11360AB4B009D02930026A5
:100550001E705660B2463746B146012000F0D4FB0B
:10056000002D00F02582A34B1B68002B40F0208259
:1005700019B0BDE8F08F0220FFF718FF002840F007
:100580001082009B002E08BF1D469C4B02211B8839
:10059000ADF82C300BA800F09BFADEE74FF47A7030
:1005A00000F078FAB0F10008EBDB0220FFF7FEFE66
:1005B0000028E6D008F1FF38B8F1040F00F2F3810B
:1005C000DFE808F0031E2124270018A8052340F8BF
:1005D000343D042100F07CFA012303FA08F848EACC
:1005E0000A0A5FFA8AFA4FF0000900F01FFC27B1EF
:1005F0000AF00B030B2B08BF0025FFF7DFFEACE76B
:1006000004217848E6E704217D48E3E704217D489A
:10061000E0E74FF01C09484600F08CFA09F10409A4
:100620000B9004210BA800F053FAB9F12C0FF2D172
:10063000D2E7002FA5D00AF00B030B2BA1D102208B
:10064000FFF7B4FE804600289BD001206A4E00F0E0
:100650006FFA0220307000F057FB00275FFA87FB2B
:10066000584600F075FA054688B1584600F080FA01
:1006700001370028F2D146460025634B02211B8832
:10068000ADF82C300BA800F023FA474665E70123AC
:100690000220337000F02EFB2C46019B9B689C428D
:1006A00006D2204600F046FA0130E4D10434F4E7E3
:1006B000029B00241C704F4B46465C604746254613
:1006C00093E7002F3FF45DAF0AF00B030B2B7FF491
:1006D00058AF029B0220187000F016FB322000F089
:1006E000D9F9B0F1000BFFF64CAF1BF003087FF413
:1006F00048AF019B996804EB0B028A423FF641AF79
:10070000BBF5807F3FF63DAF404A0392D8450FDAF4
:100710004FF47A7000F0BEF9049004990029FFF6B6
:1007200030AF039A049908F8021008F10108ECE7C9
:10073000C820FFF73BFE804600283FF422AF1F2C65
:1007400011D8C4F120075F4528BF5F4610AB24F0E5
:1007500003003A462D49184400F0EAFA3A46FF21D0
:100760002A4800F00FFB4FEAAB03DAB227490393A4
:10077000204600F00FFB074600283FF47EAF039BA6
:1007800004EB830431E70220FFF710FE00283FF45A
:10079000F8AE00F013FA00283FF4F3AE4FF0000873
:1007A0004346019A9268904532D2B8F11F0F12D891
:1007B000109A01320FD028F0030218A90A4452F807
:1007C000202C0B92184604220BA900F0D5FB08F14F
:1007D00004080346E5E74046039300F0ABF9039BAA
:1007E0000B90EFE700220020502300203822002049
:1007F000D9030008542300204C220020023C0008AA
:100800000422002008220020043C0008502200207E
:1008100018A8042140F84C3D00F05AF9E5E618A864
:10082000002340F8343D642100F048F900287FF4AB
:10083000A8AE0220FFF7BAFD00283FF4A2AE0B9845
:1008400000F0A8F918AB43F8480D04211846E3E777
:1008500018A8002340F8343D642100F02FF9002847
:100860007FF48FAE0220FFF7A1FD00283FF489AE90
:100870000B9800F09DF918AB43F8440DE5E7022012
:10088000FFF794FD00283FF47CAE00F0A7F918AB09
:1008900043F8400DD9E70220FFF788FD00283FF418
:1008A00070AE0BA9142000F09FF9804618A804210F
:1008B00040F83C8D00F00CF941460BA8ACE7322023
:1008C00000F0E8F8B0F10008FFF65BAE18F0030F97
:1008D0007FF457AE019A926808EB090393423FF602
:1008E00050AE0220FFF762FD00283FF44AAE28F028
:1008F0000308C844C1453FF478AE484600F01AF9F1
:1009000004210A900AA800F0E3F809F10409F1E7CC
:100910004FF47A70FFF74AFD00283FF432AE00F042
:100920004DF9002842D0109B01330BD0082210A9AA
:10093000002000F02FFA002838D02022FF2110A834
:1009400000F020FAFFF73AFD364801F003FC0FE60D
:10095000002F3FF416AE0AF00B030B2B7FF411AE01
:1009600018A8002340F8343D642100F0A7F8804621
:1009700000287FF406AE0220FFF718FD00283FF4A0
:1009800000AE0390FFF71AFD41F2883001F0E2FB60
:100990000B9800F08FFA00F049FA039B45461F467A
:1009A000DBE5074621E64FF00009EAE5B84664E6D4
:1009B000002000F06FF80490049B002BFFF6D0ADF0
:1009C000012000F097F9049B213B122B3FF6C5ADA7
:1009D00001A252F823F000BF770500089D0500082A
:1009E000330600085B0500085B0500085B0500088E
:1009F000C3060008BF080008870700081F08000892
:100A0000510800087F0800085B05000897080008E7
:100A10005B05000811090008EB0500085B050008EC
:100A200051090008A08601002DE9F84F4FF47A75AE
:100A3000DFF85880DFF8589007460E4655430024EB
:100A400098F900305A1C5FFA84FA01D0A34210D101
:100A500059F8240003683246D3F820B039462B46B3
:100A6000D847864205D1084B83F800A00120BDE895
:100A7000F88F0134042CE3D14FF4FA7001F06AFBD3
:100A80000020BDE8F88F00BF9C2300200C2200202E
:100A9000583C000807B502AB002203F8012D0121E4
:100AA00002461846FFF7C0FF20B19DF8070003B0CB
:100AB0005DF804FB4FF0FF30F9E700000A4608B587
:100AC0000421FFF7B1FF80F00100C0B2404208BD31
:100AD00030B4074B1A78074B53F822402368DD697E
:100AE000054B0A46AC460146204630BC604700BF75
:100AF0009C230020583C0008A086010070B501F03E
:100B0000CFFD094C094E20800025306823888342A0
:100B100008D901F0BFFD336805440133B5F5804FB6
:100B20003360F2D370BD00BF9E2300205C23002001
:100B300001F06CBE00F1006000F580400068704775
:100B400000F10060920000F5804001F0F7BD000068
:100B5000054B1A68054B1B889B1A834202D9104427
:100B600001F098BD002070475C2300209E230020E8
:100B700038B5074D04462868204401F093FD28B994
:100B800028682044BDE8384001F0A4BD38BD00BF4E
:100B90005C23002010F0030308D1B0F5047F05D2D8
:100BA00000F10050A0F50840006870470020704731
:100BB000014BC058704700BF107AFF1F064991F8DB
:100BC000243033B100230822086A81F82430FFF76B
:100BD000B7BF0120704700BF60230020014B186899
:100BE000704700BF002004E070B52A4B1C68C4F3B6
:100BF0000B03240C63B140F21342934231D040F214
:100C0000194293422FD040F2214293422DD1032327
:100C1000214A0C2505FB03235D6893F9082042F265
:100C200001039C4224D0B4F5805F23D041F201033C
:100C30009C4221D041F203039C421FD041F20703A2
:100C40009C4208BF3122441E0C44013D0B46A34286
:100C50001ED215F9016F581C96B1034600F8016CBD
:100C6000F5E70123D4E70223D2E73F220B4DD6E775
:100C70003322E3E74122E1E75A22E4E75922E2E79F
:100C80002C2584421D7001D9981C5A70401A70BDE1
:100C90001846FBE7002004E0283C0008083C000858
:100CA000124B5A8842F201018A4293B214D0B3F532
:100CB000805F13D041F20102934211D041F203024E
:100CC00093420FD041F2070293420DD10423084A08
:100CD00002EB8303D87870470023F8E70123F6E797
:100CE0000223F4E70323F2E700207047002004E02A
:100CF000143C0008022802BF024B4FF480529A6154
:100D0000704700BF00100240022802BF024B4FF0A4
:100D100080529A61704700BF00100240022801BF54
:100D2000024A536983F480535361704700100240B4
:100D300010B50023934203D0CC5CC4540133F9E7CF
:100D400010BD000030B5441E14F9010F0B4660B110
:100D500093F90050854201F1010106D11AB993F9C6
:100D60000020801A30BD013AEEE7002AF7D1104684
:100D700030BD000002460346981A13F9011B0029F2
:100D8000FAD1704702440346934202D003F8011B94
:100D9000FAE770472DE9F047234C94F824300546D4
:100DA0008846174683BB2E46DFF87C90C7B394F87D
:100DB00024302BB92022FF2148462662FFF7E2FFAC
:100DC00094F82400C0F10805BD4228BF3D465FFAF3
:100DD00085FAAD0041462A4604EB8000FFF7A8FFE4
:100DE00094F82430A7EB0A079A445FFA8AFABAF11A
:100DF000080F2E44A844FFB284F824A0D6D1FFF7F0
:100E0000DDFE0028D2D108E0266A06EB8306B04258
:100E1000CAD0FFF7D3FE0028C5D10020BDE8F08777
:100E20000120BDE8F08700BF60230020024B1A7844
:100E3000024B1A70704700BF9C2300200C22002038
:100E4000F8B5164C1648174D174E154F00F098FC84
:100E50002146134800F0C0FC24681448626D936B6F
:100E600023F40023936301F075F92046104900F044
:100E7000BFFD626D936B43F4002393634FF4E13342
:100E80002B60002456F82400B84202D0294600F016
:100E9000D5FB0134042CF5D1F8BD00BF683D000836
:100EA000102D002088230020583C000840420F00ED
:100EB000943D000838B50B4B1A780B4B53F8224081
:100EC0000A4B9C4205460CD0094B002118461422BF
:100ED000FFF758FF056001462046BDE8384000F0A6
:100EE000ADBB38BD9C230020583C0008102D0020CD
:100EF00088230020FEE7000000B59BB0EFF30981D6
:100F000068226846FFF714FFEFF30583044B9A6BE2
:100F1000DA6A9A6A9A6A9A6A9A6A9A6A9B6AFEE78F
:100F200000ED00E000B59BB0EFF309816822684650
:100F3000FFF7FEFEEFF30583044B9A6B9A6A9A6AF9
:100F40009A6A9A6A9A6A9B6AFEE700BF00ED00E01F
:100F500000B59BB0EFF3098168226846FFF7E8FE11
:100F6000EFF30583034B5A6B9A6A9A6A9A6A9A6AF4
:100F70009B6AFEE700ED00E030B5084D0A4491425F
:100F80000BD011F8013B09245840013CF7D040F345
:100F900000032B4083EA5000F7E730BD2083B8ED13
:100FA000002304491A465A50C8180833802B42605F
:100FB000F9D17047A0230020026843681143016003
:100FC00003B1184770470000024AD36843F0C003DA
:100FD000D360704700440040024AD36843F0C00326
:100FE000D360704700480040024AD36843F0C00312
:100FF000D3607047007800402DE9F041D0F85C6282
:10100000F7683368DA0505469CB20DD5202383F3D3
:1010100011884FF400710430FFF7CEFF6FF4807336
:101020003360002383F31188202383F3118805F1B3
:10103000040814F02F0333D183F31188380615D533
:10104000210613D5202383F3118805F1380000F021
:1010500053FA002846DA0821281DFFF7ADFF4FF6A6
:101060007F733B40F360002383F311887A060ED52B
:1010700063060CD5202383F31188EA6C2B6D9A420A
:1010800002D12B6C002B2FD1002383F31188D5F8CC
:101090006422D368002B31D01069BDE8F0411847B5
:1010A000230713D014F0080F0CBF00218021E007A4
:1010B00048BF41F02001A20748BF41F0400163074B
:1010C00048BF41F480714046FFF776FFA40673687D
:1010D00005D595F860122846194000F0BDFA34682D
:1010E000A4B2A6E77060BEE727F040073F041021D6
:1010F000281D3F0CFFF760FFF760C5E7BDE8F081F2
:1011000008B50348FFF778FFBDE8084001F02EBCA2
:101110002024002008B50348FFF76EFFBDE8084013
:1011200001F024BC8826002008B50348FFF764FFBF
:10113000BDE8084001F01ABCF028002010B50E4CA4
:101140000E4A2046002100F057FA0D4BC4F85C32DD
:101150000C4C0D4A2046002100F04EFA0B4BC4F80F
:101160005C320B4C0B4A0021204600F045FA0A4B3A
:10117000C4F85C3210BD00BF20240020C90F000855
:101180000044004088260020D90F00080048004095
:10119000F0280020E90F00080078004038B5394DEC
:1011A000037C002918BF0D46012B0446C0F8645289
:1011B00010D1354B984242D1344B1A6C42F4003274
:1011C0001A641A6E42F400321A661B6E0B21262036
:1011D00000F06AF82E4BD4F85C229A422B6802D0B9
:1011E0002C498A424BD12C4901EB5301B1FBF3F35B
:1011F000A988080442BF23F0070003F0070343EA6D
:1012000040039360EB8843F040039BB213612B894A
:1012100043F001039BB2536141F4045343F02C03A8
:10122000D36001F4A05100231360B1F5806F1368FF
:1012300053680CBF7F23FF2384F8603238BD174BFF
:1012400098420CD1114B1A6C42F480221A641A6E27
:1012500042F480221A661B6E0B212720B8E7104B40
:101260009842B7D1094B1A6C42F080421A641A6E48
:1012700042F080421A661B6E0B215220A8E70949F2
:10128000B2E700BF883C000820240020003802405C
:10129000001001400014014000BD01058826002017
:1012A000F028002080DE800200F1604300F01F0281
:1012B000400903F5614309018000C9B200F16040B3
:1012C00083F8001300F5614001239340C0F880319A
:1012D00003607047F8B5154682680669AA420B4656
:1012E000816938BF8568761AB542044607D2184628
:1012F0002A46FFF71DFDA3692B44A3610DE011D918
:1013000032461846FFF714FDAF1B3A46E1683044F9
:10131000FFF70EFDE2683A44A261A3685B1BA3607D
:101320002846F8BD18462A46FFF702FDE368E4E7C1
:1013300083682DE9F041044693421546266938BF7B
:1013400085684069361AB5420F4606D22A46FFF72D
:10135000EFFC63692B4463610DE012D93246A5EBC3
:101360000608FFF7E5FC4246B919E068FFF7E0FC24
:10137000E26842446261A3685B1BA3602846BDE843
:10138000F0812A46FFF7D4FCE368E4E710B50A448D
:101390000024C361029B006040608460C160816181
:1013A00041610261036210BD08B5826943699342DD
:1013B00001D1826882B98268013282605A1C42611E
:1013C0001970426903699A4201D3C36843610021DD
:1013D00000F0DCFE002008BD4FF0FF3008BD00002B
:1013E00070B5202304460E4683F31188A568A5B185
:1013F000A368A269013BA360531CA361157822690D
:10140000934224BFE368A361E3690BB12046984788
:10141000002383F31188284670BD3146204600F032
:10142000A5FE0028E2DA85F3118870BD2DE9F74F9B
:1014300005460F4690469A46D0F81C90202686F323
:1014400011884FF0000B144664B1224639462846F5
:10145000FFF740FF034668B95146284600F086FE74
:101460000028F1D0002383F31188A8EB040003B017
:10147000BDE8F08FB9F1000F03D001902846C847AE
:10148000019B8BF31188E41A1F4486F31188DBE774
:10149000C16081614161C3611144009B0060406093
:1014A0008260016103627047F8B504460E46174634
:1014B000202383F31188A568A5B1A368013BA3602D
:1014C00063695A1C62611E70236962699A4224BF73
:1014D000E3686361E3690BB120469847002080F31D
:1014E0001188F8BD3946204600F040FE0028E2DAB7
:1014F00085F31188F8BD0000836942699A4210B5EE
:1015000001D182687AB98268013282605A1C826194
:101510001C7803699A4201D3C3688361002100F0FB
:1015200035FE204610BD4FF0FF3010BD2DE9F74FBE
:1015300005460F4690469A46D0F81C90202686F322
:1015400011884FF0000B144664B1224639462846F4
:10155000FFF7EEFE034668B95146284600F006FE46
:101560000028F1D0002383F31188A8EB040003B016
:10157000BDE8F08FB9F1000F03D001902846C847AD
:10158000019B8BF31188E41A1F4486F31188DBE773
:10159000026843681143016003B1184770470000B7
:1015A0001430FFF743BF00004FF0FF331430FFF754
:1015B0003DBF00003830FFF7B9BF00004FF0FF33E8
:1015C0003830FFF7B3BF00001430FFF709BF000049
:1015D0004FF0FF311430FFF703BF00003830FFF742
:1015E00063BF00004FF0FF323830FFF75DBF0000EF
:1015F00000207047FFF7A2BD37B50F4B03600023F3
:1016000043608360C3600123044603741546009061
:101610000B464FF4807200F15C011430FFF7B6FE08
:1016200000942B464FF4807204F5AE7104F138003B
:10163000FFF72EFF03B030BD9C3C000810B52023FF
:10164000044683F31188FFF7A9FD022323740023C6
:1016500083F3118810BD000038B5C36904460D46F8
:101660001BB904210844FFF793FF294604F1140035
:10167000FFF79AFE002806DA201D4FF48061BDE8CE
:101680003840FFF785BF38BD0268436811430160E9
:1016900003B118477047000013B5446BD4F8943475
:1016A0001A681178042915D1217C022912D11979DF
:1016B000128901238B4013420CD101A904F14C0083
:1016C00001F014FFD4F89444019B2179024620686C
:1016D00000F0DAF902B010BD143001F097BE00003E
:1016E0004FF0FF33143001F091BE00004C3001F098
:1016F00069BF00004FF0FF334C3001F063BF0000C2
:10170000143001F065BE00004FF0FF31143001F0DD
:101710005FBE00004C3001F035BF00004FF0FF32DB
:101720004C3001F02FBF0000D0F8942438B5136876
:1017300019780429054601D0012038BD017C022911
:10174000FAD112795C89012090400440F4D105F16E
:10175000140001F0F7FD02460028EDD0D5F89454AE
:101760004FF480732868697900F07CF9204638BD11
:10177000406BFFF7D9BF00000020704770470000A2
:101780007FB5124B0360002343608360C360012573
:1017900002260F4B057404460290019300F1840267
:1017A000294600964FF48073143001F0A7FD094BD1
:1017B0000193029400964FF4807304F52372294636
:1017C00004F14C0001F06EFE04B070BDC43C000892
:1017D00071170008991600080B68202282F31188FF
:1017E0000A7903EB820290614A79093243F82200B8
:1017F0008A7912B103EB8203986102230374C0F863
:101800009414002383F311887047000038B5037FD8
:10181000044613B190F85430ABB9201D01250221C4
:10182000FFF732FF04F1140025776FF0010100F09B
:10183000B9FC84F8545004F14C006FF00101BDE88C
:10184000384000F0AFBC38BD10B50121044604306B
:10185000FFF71AFF0023237784F8543010BD0000EF
:1018600038B504460025143001F060FD04F14C0049
:10187000257701F02FFE201D84F854500121FFF739
:1018800003FF2046BDE83840FFF74EBF90F84430D4
:1018900003F06003202B19D190F84520212A0AD0AB
:1018A000222A4FF000030ED0202A0FD1084A82636B
:1018B0000722C26304E0064B83630723C36300234C
:1018C0000364012070478363C363F9E70020704716
:1018D0000D220020D0F8943437B51A681178042905
:1018E00004461AD1017C022917D1197912890123E2
:1018F0008B40134211D100F14C05284601F0AAFE9D
:1019000058B101A9284601F0F1FDD4F89444019B97
:1019100021790246206800F0B7F803B030BD00001E
:1019200000EB8103F7B59C6905460E46F4B1202310
:1019300083F3118805EB8607201D0821FFF7A4FE1D
:10194000FB685B691B684C3413B1204601F0DCFD79
:1019500001A9204601F0CAFD024648B1019B31466B
:10196000284600F091F8002383F3118803B0F0BDFE
:10197000FB685A691268002AF5D01B8A013B1340A4
:10198000F1D105F14402EAE7093138B550F82140B8
:10199000DCB1202383F31188D4F89424136852799E
:1019A00003EB8203DB689B695D6845B10421601825
:1019B000FFF76AFE294604F1140001F0CDFC204631
:1019C000FFF7B2FE002383F3118838BD7047000093
:1019D00001F08CB80123037000234360C36183626C
:1019E0000362C36243620363038143817047000063
:1019F00038B50446202383F3118800254160C56073
:101A000005614561856101F081F80223237085F34A
:101A1000118838BD70B500EB810305465069DA6066
:101A20000E46144618B110220021FFF7ABF9A06949
:101A300018B110220021FFF7A5F931462846BDE86C
:101A4000704001F02DB90000028902F0010202810C
:101A5000428902F0010242810022026142618261F8
:101A600001F0B2B9F0B400EB81044789E4680125C4
:101A7000A4698D403D43458123600023A2606360DB
:101A8000F0BC01F0CDB90000F0B400EB810407898F
:101A9000E468012564698D403D430581236000238E
:101AA000A2606360F0BC01F047BA000070B5022389
:101AB000002504460370A0F84C5080F84E5080F882
:101AC0004F5005814581C56005614561856180F89C
:101AD000345001F081F863681B6823B12946204621
:101AE000BDE87040184770BD037880F8503005237A
:101AF000037043681B6810B504460BB10421984776
:101B000000232381638110BD436890F850201B6837
:101B100002700BB1052118477047000090F834306F
:101B200070B5044613B1002380F8343004F1440248
:101B3000204601F06BF963689B6863BB94F84450DE
:101B400015F0600615D194F8453005F07F0545EA9B
:101B5000032540F202339D4200F00E815BD8022D36
:101B600000F0DC803FD8002D00F08780012D00F0D0
:101B7000CF800021204601F0A3FB0021204601F088
:101B800095FB63681B6813B106212046984706231E
:101B900084F8343070BD204698470028CED094F8A1
:101BA0004B2094F84A3043EA0223E26B934238BF59
:101BB000E36394F94430E56B002B4FF0200380F28F
:101BC000FD80002D00F0EC80092284F8342083F39E
:101BD00011880021E36BA26B2046FFF755FF00231D
:101BE00083F3118870BDB5F5817F00F0B180B5F544
:101BF000407F49D0B5F5807FBBD194F84630012BAA
:101C0000B7D1B4F84C3023F00203A4F84C30A663EB
:101C1000E6632664C3E740F201639D421ED8B5F532
:101C2000C06F3BD2B5F5A06FA3D1B4F84430B3F583
:101C3000A06F0ED194F8463084F84E30204601F063
:101C400023F863681B6813B10121204698470323DA
:101C500023700023A363E3632364A0E7B5F5106F4B
:101C600032D040F602439D4252D0B5F5006F80D18C
:101C700004F14F03A363012324E004F14C03A363A5
:101C80000223E36325648AE794F84630012B7FF44E
:101C900070AFB4F84C3043F00203B6E794F8492033
:101CA000616894F848304D6894F8471043EA02237D
:101CB000204694F84620A84700283FF45AAF4368CE
:101CC000A3630368E363A4E72378042B10D12023E4
:101CD00083F311882046FFF7B7FE86F31188636807
:101CE00084F84F601B68032121700BB12046984790
:101CF00094F84630002BACD084F84F300423237086
:101D000063681B68002BA4D0022120469847A0E7F7
:101D1000374BA3630223E36300239DE794F8481045
:101D200011F0800F204601F00F010ED001F060F895
:101D3000012806D002287FF41CAF2E4BA363E0637A
:101D400067E72D4BA363E56363E701F043F8EFE733
:101D500094F84630002B7FF40CAF94F8483013F021
:101D60000F013FF476AF1A06204602D501F0BCFA07
:101D70006FE701F0AFFA6CE794F84630002B7FF480
:101D8000F8AE94F8483013F00F013FF462AF1B0631
:101D9000204602D501F094FA5BE701F087FA58E794
:101DA000142284F8342083F311882B462A462946CE
:101DB0002046FFF757FE85F3118870BD5DB11522EF
:101DC00084F8342083F311880021E36BA26B204652
:101DD000FFF748FE03E70B2284F8342083F31188D1
:101DE0002B462A4629462046FFF74EFEE3E700BF72
:101DF000F43C0008EC3C0008F03C000838B590F8D2
:101E000034300446152B29D8DFE803F03E28282873
:101E100028283E28280B2939282828282828282837
:101E20003E3E90F84B1090F84A20C36B42EA0122E4
:101E30009A4214D9C268128AB3FBF2F502FB153537
:101E40006DB9202383F311882B462A462946FFF7D4
:101E50001BFE85F311880A2384F8343038BD14231F
:101E600084F83430202383F3118800231A4619465E
:101E70002046FFF7F7FD002383F3118838BD036C7C
:101E800003B198470023E7E7002101F019FA002188
:101E9000204601F00BFA63681B6813B10621204647
:101EA00098470623D8E7000090F83420152A38B563
:101EB000044622D80123934040F6416213421DD1CB
:101EC00013F480150FD19B0217D50B2380F8343003
:101ED000202383F311882B462A462946FFF7D4FD99
:101EE00085F3118838BDC3689B695B682BB9036CA7
:101EF00003B19847002384F8343038BD002101F045
:101F0000DFF90021204601F0D1F963681B6813B1A5
:101F10000621204698470623EDE70000024B0022E9
:101F20001B605B609A607047582B0020002303748D
:101F30008268054B1B6899689142FBD25A6803601E
:101F40004260106058607047582B002008B520236D
:101F500083F31188037C032B05D0042B0DD02BB900
:101F600083F3118808BD436900221A604FF0FF33E4
:101F70004361FFF7DBFF0023F2E790E80C001A60F3
:101F800002685360F2E70000002303748268054B87
:101F90001B6899689142FBD85A68036042601060E0
:101FA00058607047582B0020054B19690874186851
:101FB00002681A605360186101230374FEF7A4B924
:101FC000582B002030B54B1C87B005460A4C10D06A
:101FD00023690A4A01A800F001F92846FFF7E4FF47
:101FE000049B13B101A800F04BF92369586907B0AD
:101FF00030BDFFF7D9FFF8E7582B00204D1F000830
:1020000038B50C4D41612B6981689A68914204464C
:1020100003D8BDE83840FFF789BF1846FFF7B4FF83
:1020200001232C61014623742046BDE83840FEF7A9
:102030006BB900BF582B0020044B1A681B699068CD
:102040009B68984294BF002001207047582B0020C5
:1020500010B5084C236820691A6822605460012278
:1020600023611A74FFF790FF01462069BDE8104014
:10207000FEF74AB9582B0020FEE7000010B50C4CC3
:10208000FFF74CFF00F09CF880220A49204600F040
:1020900021F8012344F8180C037400F043FC0023DA
:1020A00083F3118862B60448BDE8104000F034B8EC
:1020B000802B0020F83C0008003D000800F01AB911
:1020C000034B59685A68521A9042FBD8704700BFB8
:1020D000001000E082600222027400224274704705
:1020E0008368A3F17C0243F80C2C026943F83C2C72
:1020F000426943F8382C074A43F81C2CC26843F85D
:10210000102C022203F8082C002203F8072CA3F15C
:10211000180070472103000810B5202383F31188AD
:10212000FFF7DEFF00210446FFF76AFF002383F379
:102130001188204610BD0000024B1B6958610F201A
:10214000FFF732BF582B0020202383F31188FFF7BD
:10215000F3BF000008B50146202383F3118808204F
:10216000FFF730FF002383F3118808BD49B1064B08
:1021700042681B6918605A60136043600420FFF7CF
:1021800021BF4FF0FF307047582B00200368984262
:1021900006D01A680260506059611846FFF7C6BE43
:1021A0007047000038B504460D462068844200D1CF
:1021B00038BD036823605C604561FFF7B7FEF4E754
:1021C000054B03F114025A619A614FF0FF32DA6154
:1021D00000221A62704700BF582B0020F8B5274F25
:1021E0000361C2600D46044601F06CFA3B46022DC5
:1021F00053F8142F294638BF02219A423E461D4605
:102200000AD138627C61BC61084422606260A160CE
:10221000BDE8F84001F040BAD7F820E0A0EB0E038B
:102220005F181FD300279068834217D8376AAA42E5
:102230001F44376201D0C01A906073699A68914256
:1022400019D85A682360626014605C60A160986865
:10225000411A99604FF0FF33F361F8BD97601B1A84
:102260001268E0E793689F4203D20EEB070001F08B
:1022700023FA3946E1E7891A1B68DFE7582B00206B
:1022800038B51B4B01685A6990421D4603F1140290
:102290000CD0446821600368002193425C60C160F7
:1022A00025D09A6881680A449A6038BD59614A60AD
:1022B0005B6900219342C16003D1BDE8384001F061
:1022C000F5B99A6881680A449A602C6A01F0FAF9B3
:1022D0006A699268001B824209D9111A012998BFC4
:1022E000821C286ABDE83840104401F0E5B938BDC9
:1022F000582B00202DE9F84F204C0027656904F188
:102300001406B84601F0DEF9236AA0EB030AAB68B5
:1023100053451DD84FF02009236AAA68D5F80CB0A0
:1023200013442362AB68AAEB030A2B68B3425E60D6
:102330006361EF6001D101F0B9F988F31188286970
:10234000D84789F311886569AB689A45E4D2D9E723
:102350006369B34210D020629A68A2EB0A029A60C5
:10236000226AAB68821A9B1A022B2CBFC01802305B
:10237000BDE8F84F01F0A0B9BDE8F88F582B002058
:1023800000207047FEE70000704700004FF0FF306C
:1023900070470000022906D0032906D0012906480B
:1023A00018BF0020704705487047032A9ABF0448A9
:1023B00000EBC20000207047F03D0008A43D00087B
:1023C0001422002070B59AB001AD06460846294691
:1023D000144600F095F82846FEF7CCFCC0B2431C2A
:1023E0005B0086E818002370032363700023023427
:1023F0001946DAB2904204F1020401D81AB070BD55
:10240000EA5C04F8022C04F8011C0133F1E7000037
:1024100008B5202383F311880348FFF75BFA0023F4
:1024200083F3118808BD00BF102D002010B50446AD
:10243000052916D8DFE801F016150316161D20230E
:1024400083F311880E4A0121FFF7E4FA20460D4A72
:102450000221FFF7DFFA0C48FFF702FA002383F3AB
:10246000118810BD202383F311880748FFF7CEF9A8
:10247000F4E7202383F311880348FFF7E5F9EDE73C
:10248000203D0008443D0008102D002038B50C4DBB
:102490000C4C0D492A4604F10800FFF793FF05F1A3
:1024A000CA0204F110000949FFF78CFF05F5CA7252
:1024B00004F118000649BDE83840FFF783BF00BFAC
:1024C000D831002014220020703D00087D3D000816
:1024D0008A3D000870B5044608460D46FEF74AFCE2
:1024E000C6B22046013403780BB9184670BD324697
:1024F0002946FEF727FC0028F3D1012070BD00001B
:102500002DE9F84F05460C46FEF734FC2B49C6B2C0
:102510002846FFF7DFFF08B10236F6B22849284601
:10252000FFF7D8FF08B11036F6B2632E0DD8DFF8EA
:102530008C80DFF88C90234FDFF890A0DFF890B00C
:102540002E7846B92670BDE8F88F29462046BDE8AA
:10255000F84F01F04DBB252E2CD1072241462846CD
:10256000FEF7F0FB58B9DBF800302360DBF80430ED
:1025700063609BF80830237207350934E0E70822CE
:1025800049462846FEF7DEFBA0B90F4BA21C13F804
:10259000011F09095345C95D02F8021C197801F0B1
:1025A0000F0102F10202C95D02F8031CEFD11834D9
:1025B0000835C5E7267001350134C1E7103E000833
:1025C0008A3D0008223E00080F7AFF1F1B7AFF1F7A
:1025D000183E0008BFF34F8F024AD368DB03FCD4D8
:1025E000704700BF003C024008B5094B1B7873B927
:1025F000FFF7F0FF074B1A69002ABFBF064A5A606F
:1026000002F188325A601A6822F480621A6008BDAA
:1026100036340020003C02402301674508B50B4BCF
:102620001B7893B9FFF7D6FF094B1A6942F00042B5
:102630001A611A6842F480521A601A6822F48052B1
:102640001A601A6842F480621A6008BD36340020AD
:10265000003C0240172870B513D80B4A0B4C137876
:1026600063B90B4E4FF0006144F8231056F8235025
:102670000133182B2944F7D10123137054F820009B
:1026800070BD002070BD00BF983400203834002099
:10269000343E0008014B53F820007047343E0008D8
:1026A00018207047172810B5044601D9002010BD26
:1026B000FFF7D0FF064B53F824301844C21A0BB969
:1026C000012010BD12680132F0D1043BF6E700BFD3
:1026D000343E0008172810B5044629D8FFF77AFFC2
:1026E000FFF782FF1349F323CB600C23B0FBF3F217
:1026F00003FB1200D30143EAC003DBB243F40073CF
:1027000043F002030B610B6943F480330B61FFF765
:1027100061FF2046FFF79EFF074B53F8241000F09F
:10272000DDF8FFF77BFF2046BDE81040FFF7BABF9A
:10273000002010BD003C0240343E00082DE9F84363
:1027400012F00103154640D18218B2F1026F3CD25B
:102750002C4B1B6813F0010337D02B4CFFF744FFC1
:10276000F323E360FFF736FF40F20127032D01D981
:10277000830713D0244C0F46401A40F20118EB1B7C
:102780000B44012B00EB0706236924D823F0010337
:102790002361FFF743FF0120BDE8F883236923F499
:1027A0004073236123693B43236151F8046B066046
:1027B000BFF34F8FFFF70EFF03689E4208D02369D7
:1027C00023F001032361FFF729FF0020BDE8F88310
:1027D000043D0430CAE723F440732361236943EACC
:1027E00008032361B94637F8023B3380BFF34F8FAC
:1027F000FFF7F0FE3688B9F80030B6B2B342BED06B
:10280000DDE700BF00380240003C0240084908B53F
:102810000B7828B153B9FFF7E7FE01230B7008BD11
:1028200023B1BDE808400870FFF7F8BE08BD00BF3F
:102830003634002010B50244064B0439D2B290421F
:1028400000D110BD441C00B253F8200041F8040F21
:10285000E0B2F4E750280040104B30B51C6F240460
:1028600007D41C6F44F400741C671C6F44F40044CC
:102870001C670B4C236843F4807323600244094BAC
:102880000439D2B2904200D130BD441C00B251F89C
:10289000045F43F82050E0B2F4E700BF0038024084
:1028A000007000405028004007B5012201A9002017
:1028B000FFF7C0FF019803B05DF804FB13B50446B1
:1028C000FFF7F2FFA04206D002A9012241F8044D11
:1028D0000020FFF7C1FF02B010BD000070470000EC
:1028E000034B1B689B0042BF024B01221A707047CA
:1028F0007438024099340020014B1878704700BFAB
:1029000099340020EFF3098305494A6822F0010257
:102910004A60683383F30988002383F31188704782
:1029200030EF00E0202080F3118862B60B4B0C4A98
:10293000D96821F4E0610904090C0A430949DA6005
:10294000CA6842F08072CA6007490A6842F0010210
:102950000A601022DA7783F82200704700ED00E069
:102960000003FA05F0ED00E0001000E010B52023B0
:1029700083F311880E4B5B6813F4006314D0F1EEFF
:10298000103AEFF30984683C4FF08073E361094B20
:10299000DB68236684F30988FFF74EFB10B1064B12
:1029A000A36110BD054BFBE783F3118810BD00BF89
:1029B00000ED00E030EF00E03303000836030008CC
:1029C00070470000FEE70000084A094B09498B42A6
:1029D00004D3094A0021934205D3704752F8040FEB
:1029E00043F8040BF3E743F8041BF4E7F03F000857
:1029F000143500201435002014350020836D70B587
:102A0000446D9E6800214FF0FF354A01A318013143
:102A1000D3F800090028BEBFD3F8000940F0804079
:102A2000C3F80009D3F8000B0028BEBFD3F8000B91
:102A300040F08040C3F8000BA3188E42C3F8085939
:102A4000C3F8085BE1D24FF00113C4F81C3870BD25
:102A5000890141F02001016103699B06FCD4122029
:102A6000FFF72EBB204B03EB80022DE9F047D2F895
:102A70000CE05D6DDEF81420461CD2F800C005EBBA
:102A8000063605EB4018516861450BD3D5F834285C
:102A9000012303FA00F022EA0000C5F834081846C2
:102AA000BDE8F087BEF81040ACEB0103A34228BF9D
:102AB0002346D8F81849A4B2B3EB840F10D8946811
:102AC0001F46A4F1040959F804AFC6F800A0042F6A
:102AD00001D9043FF7E71C440B4494605360D2E7EC
:102AE0000020BDE8F08700BF9C34002010B5054CE5
:102AF0002046FEF76FFF4FF0A0436365024BA365CE
:102B000010BD00BF9C340020B83E00080378012BA4
:102B100070B5054650D12A4B446D98421BD1294BC4
:102B20005A6B42F080025A635A6D42F080025A6535
:102B30005A6D5A6942F080025A615A6922F0800245
:102B40005A610E2143205B69FEF7AEFB1E4BE3602A
:102B50001E4BC4F800380023C4F8003EC023236095
:102B60006E6D4FF45023A3633369002BFCDA01230D
:102B700033610C20FFF7A4FA3369DB07FCD4122081
:102B8000FFF79EFA3369002BFCDA0026A660284680
:102B9000FFF734FF6B68C4F81068DB68C4F814688A
:102BA000C4F81C684BB90A4BA3614FF0FF33636153
:102BB000A36843F00103A36070BD064BF4E700BFB8
:102BC0009C340020003802404014004003002002E2
:102BD000003C30C0083C30C0F8B5446D05460021CB
:102BE0002046FFF735FFA96D00234FF001128F68D3
:102BF000C4F834384FF00066C4F81C284FF0FF309A
:102C000004EB431201339F42C2F80069C2F8006B23
:102C1000C2F80809C2F8080BF2D20B686A6DEB65BE
:102C2000636210231361166916F01006FBD112209F
:102C3000FFF746FAD4F8003823F4FE63C4F80038EE
:102C4000A36943F4402343F01003A3610923C4F8AC
:102C50001038C4F814380A4BEB604FF0C043C4F886
:102C6000103B084BC4F8003BC4F81069C4F80039A5
:102C7000EB6D03F1100243F48013EA65A362F8BD23
:102C8000943E000840800010426D90F84E10D2F83B
:102C9000003823F4FE6343EA0113C2F8003870479A
:102CA0002DE9F0410EB200EB86080D46D8F80C1065
:102CB0000F6807F00303022B50D0032B50D03D4A7E
:102CC0003D4F012B18BF1746446D4FEA451E04EBDC
:102CD0000E030022C3F8102B8A6905F1100C002A9C
:102CE00040D04A8A05F158035B013A43E250012380
:102CF000D4F81C2803FA0CF31343A6444A69C4F819
:102D00001C380023CEF8103905F13F03002A39D0D2
:102D10000A8A898B9208012988BF4A43C16D04EB56
:102D20008303561841EA0242C66529465A60204686
:102D3000FFF78EFED8F80C301B8A43EA85531F43F9
:102D400005F148035B01E7500123D4F81C2803FA7E
:102D500005F51543C4F81C58BDE8F081174FB3E7DB
:102D6000174FB1E704EB4613D3F8002B22F40042CF
:102D7000C3F8002BD4F81C28012303FA0CF322EA31
:102D80000303BAE704EB83030E4A5A6004EB4616CA
:102D900029462046FFF75CFED6F8003923F40043AD
:102DA000C6F80039D4F81C38012202FA05F523EAE6
:102DB0000505CFE700800010008004100080081097
:102DC00000800C1000040002826D1268C265FFF7DB
:102DD00015BE00005831436D49015B5813F40040A3
:102DE00004D013F4001F14BF01200220704700001C
:102DF0004831436D49015B5813F4004004D013F48B
:102E0000001F14BF012002207047000000EB810169
:102E1000CB68196A0B6813604B68536070470000F9
:102E200000EB810330B5DD68AA691368D36019B976
:102E3000402B84BF402313606B8A1468426D1C448E
:102E4000013CB4FBF3F46343033323F0030302EBCD
:102E5000411043EAC44343F0C043C0F8103B2B6821
:102E600003F00303012B09B20ED1D2F8083802EBAC
:102E7000411013F4807FD0F8003B14BF43F080531F
:102E800043F00053C0F8003B02EB4112D2F8003B84
:102E900043F00443C2F8003B30BD00002DE9F0418F
:102EA000244D6E6D06EB40130446D3F8087BC3F83F
:102EB000087B38070AD5D6F81438190706D505EB6C
:102EC00084032146DB6828465B689847FA072FD5BC
:102ED000D6F81438DB072BD505EB8403D968CCB9B9
:102EE0008B69488A5E68B6FBF0F200FB12628AB911
:102EF0001868DA6890420DD2121A83E81400202371
:102F000083F311880B482146FFF78AFF84F3118869
:102F1000BDE8F081012303FA04F26B8923EA02037E
:102F20006B81CB6823B121460248BDE8F0411847C8
:102F3000BDE8F0819C34002000EB810370B5DD68B2
:102F4000436D6C692668E6604A0156BB1A444FF42B
:102F50000020C2F810092A6802F00302012A0AB20E
:102F60000ED1D3F8080803EB421410F4807FD4F894
:102F7000000914BF40F0805040F00050C4F8000930
:102F800003EB4212D2F8000940F00440C2F80009F5
:102F9000D3F83408012202FA01F10143C3F83418CE
:102FA00070BD19B9402E84BF4020206020682E8A51
:102FB000841940F00050013C1A44B4FBF6F440EA96
:102FC000C440C6E7F8B504461E48456D05EB4413FA
:102FD000D3F80869C3F80869F10717D5D5F8103890
:102FE000DA0713D500EB8403D9684B691F68DA68E8
:102FF000974218D2D21B00271A605F60202383F308
:1030000011882146FFF798FF87F31188330617D5FB
:10301000D5F834280123A340134211D02046BDE83F
:10302000F840FFF71FBD012303FA04F2038923EAE6
:10303000020303818B68002BE8D021469847E5E71F
:10304000F8BD00BF9C34002097482DE9F84F456D2E
:103050006E69AB691E4016F4805F6E61044605D050
:10306000FEF724FDBDE8F84FFFF780BC002E12DA12
:10307000D5F8003E8C489B071EBFD5F8003E23F0D4
:103080000303C5F8003ED5F8043823F00103C5F862
:103090000438FEF739FD370505D58348FFF7AEFC48
:1030A0008148FEF721FDB0040CD5D5F8083813F09F
:1030B000060FEB6823F470530CBF43F4105343F432
:1030C000A053EB60310704D56368DB680BB1764829
:1030D0009847F2025AD4B3020CD5D4F85480DFF8E2
:1030E000C8A100274FF00109A36D9B68F9B28B427C
:1030F00080F08780F70619D5616D0A6AC2F30A1756
:1031000002F00F0302F4F012B2F5802F00F0A1805C
:10311000B2F5402F0AD104EB830301F58051DB683F
:10312000186A00231A469F4240F087803003D5F882
:10313000184813D5E10302D50020FFF7AFFEA20324
:1031400002D50120FFF7AAFE630302D50220FFF794
:10315000A5FE270302D50320FFF7A0FE750381D546
:10316000E00702D50020FFF72DFFA10702D50120BF
:10317000FFF728FF620702D50220FFF723FF23078E
:103180007FF570AF0320FFF71DFF6BE7D4F8548085
:10319000DFF814A100274FF00109A36D9B685FFAC7
:1031A00087FB5B4597D308EB4B13D3F8002902F458
:1031B0004022B2F5802F22D1D3F80029002A1EDA4E
:1031C000D3F8002942F09042C3F80029D3F800292F
:1031D000002AFBDB5946606DFFF73AFC228909FAA9
:1031E0000BF322EA0303238104EB8B03DB689B6868
:1031F00013B15946504698475846FFF733FC0137FC
:10320000CBE708EB4112D2F8003B03F44023B3F5BF
:10321000802F10D1D2F8003B002B0CDA628909FA1A
:1032200001F322EA0303638104EB8103DB68DB68BB
:103230000BB150469847013756E79C0708BF0A680C
:10324000072B98BF027003F101039CBF120A0130E3
:1032500069E7023304EB830201F5805152689069FB
:103260000268D0F808C04068A2EB000E00221046A9
:1032700097420AD104EB830463689B699A683A44D5
:103280009A605A6817445F6050E712F0030F08BF56
:103290000868964588BF8CF8000002F1010284BFDF
:1032A000000A0CF1010CE3E79C340020436D03EBB2
:1032B0004111D1F8003B43F40013C1F8003B7047C3
:1032C000436D03EB4111D1F8003943F40013C1F809
:1032D00000397047436D03EB4111D1F8003B23F4F3
:1032E0000013C1F8003B7047436D03EB4111D1F867
:1032F000003923F40013C1F80039704730B5039C3E
:103300000172043304FB0325C361049B03630021A2
:10331000059B00604060C16042610261856104629A
:1033200042628162C162436330BD00000022416A93
:1033300041610161C2608262C2626FF00101FEF709
:1033400031BF000003694269934203D1C2680AB1E8
:1033500000207047181D704703691960C268013268
:10336000C260C269134482690361934224BF436A05
:1033700003610021FEF70ABF38B504460D46E36835
:103380003BB16269131D1268A3621344E36200201B
:1033900038BD237A33B929462046FEF7E7FE0028D8
:1033A000EDDA38BD6FF00100FBE70000C368C269C9
:1033B000013BC3604369134482694361934224BF64
:1033C000436A436100238362036B03B1184770476C
:1033D00070B52023044683F31188866A3EB9FFF74F
:1033E000CBFF054618B186F31188284670BDA36A45
:1033F000E26A13F8015BA362934202D32046FFF70F
:10340000D5FF002383F31188EFE700002DE9F84F83
:1034100004460E4690469946202787F311880025DA
:10342000AA46D4F828B0BBF1000F09D1494620467E
:10343000FFF7A2FF20B18BF311882846BDE8F88F73
:10344000A16AE36AA8EB050B5B1A9B4528BF9B4664
:10345000BBF1400F1BD9334601F1400251F8040B78
:1034600043F8040B9142F9D1A36A40334036A3627A
:103470004035A26AE36A9A4202D32046FFF796FFDC
:103480008AF311884545D8D287F31188C9E73046B9
:103490005A46FDF74DFCA36A5B445E44A3625D445B
:1034A000E7E7000010B5029C0172043303FB04211E
:1034B000C36100238362C362039B0363049B0060B8
:1034C0004060C460426102618161046242624363A0
:1034D00010BD0000026AC260426A426102610022BD
:1034E0008262C2626FF00101FEF75CBE436902694D
:1034F0009A4203D1C2680AB100207047184650F8BA
:10350000043B0B6070470000C368C2690133C360AD
:103510004369134482694361934224BF436A436110
:103520000021FEF733BE000038B504460D46E368BF
:103530003BB123691A1DA262E2691344E3620020D1
:1035400038BD237A33B929462046FEF70FFE0028FE
:10355000EDDA38BD6FF00100FBE700000369196088
:10356000C268013AC260C26913448269036193422E
:1035700024BF436A036100238362036B03B11847CE
:103580007047000070B5202304460E4683F311886F
:10359000856A35B91146FFF7C7FF10B185F3118869
:1035A00070BDA36A1E70A36AE26A01339342A362EC
:1035B00004D3E16920460439FFF7D0FF002080F3EF
:1035C000118870BD2DE9F84F04460D4691469A4684
:1035D0004FF0200888F311880026B346A76A4FB938
:1035E00051462046FFF7A0FF20B187F311883046EF
:1035F000BDE8F88FA06AE76AA9EB06033F1A9F426D
:1036000028BF1F46402F1BD905F1400355F8042B56
:1036100040F8042B9D42F9D1A36A4033A36240369F
:10362000A26AE36A9A4204D3E16920460439FFF7AB
:1036300095FF8BF311884E45D9D288F31188CDE7D9
:1036400029463A46FDF774FBA36A3B443D44A36216
:103650003E44E5E7026943699A4203D1C3681BB956
:10366000184670470023FBE7836A002BF8D0043B21
:103670009B1AF5D01360C368013BC360C3691A4449
:10368000836902619A4224BF436A03610023836213
:103690000123E5E700F096B8034B002258631A6156
:1036A0000222DA60704700BF000C0040014B00228C
:1036B000DA607047000C0040014B5863704700BF50
:1036C000000C0040014B586A704700BF000C0040DE
:1036D0004B6843608B688360CB68C3600B69436150
:1036E0004B6903628B6943620B680360704700009B
:1036F00008B5224B22481A6940F2FF110A431A61A9
:103700001A6922F4FF7222F001021A611A691A6B17
:103710000A431A631A6D0A431A651A4A1B6D114649
:10372000FFF7D6FF184802F11C01FFF7D1FF174839
:1037300002F13801FFF7CCFF154802F15401FFF701
:10374000C7FF144802F17001FFF7C2FF124802F1EF
:103750008C01FFF7BDFF114802F1A801FFF7B8FF88
:103760000F4802F1C401FFF7B3FF0E4802F1E00178
:10377000FFF7AEFFBDE8084000F0AEB800380240E9
:1037800000000240C43E000800040240000802405D
:10379000000C0240001002400014024000180240D9
:1037A000001C02400020024008B500F00FFAFEF7AE
:1037B00065FCFFF795F8BDE80840FEF767BE00001E
:1037C00070470000104B1A6C42F008021A641A6E1F
:1037D00042F008021A660D4A1B6E936843F0080314
:1037E00093600B4B53229A624FF0FF32DA62002251
:1037F0009A615A63DA605A6001225A6108211A609C
:103800003220FDF751BD00BF00380240002004E027
:10381000000C0040094A08B51369D1680B40D9B2C1
:10382000C9439B07116107D5202383F31188FEF755
:1038300045FC002383F3118808BD00BF000C004045
:1038400008B5FFF7E7FFBDE80840FFF78FB80000B5
:103850001F4B1A696FEAC2526FEAD2521A611A6993
:10386000C2F308021A614FF0FF301A695A695861B1
:1038700000215A6959615A691A6A62F080521A62C3
:103880001A6A02F080521A621A6A5A6A58625A6AAE
:1038900059625A6A1A6C42F080521A641A6E42F0E7
:1038A00080521A661A6E0B4A106840F480701060DD
:1038B000186F00F44070B0F5007F1EBF4FF48030E9
:1038C00018671967536823F40073536000F05EB9FA
:1038D0000038024000700040354B4FF080521A64AF
:1038E000344A4FF4404111601A6842F001021A60F4
:1038F0001A689207FCD59A6822F003029A602C4B52
:1039000019469A6812F00C02FBD1186800F0F90011
:1039100018609A601A6842F480321A600B689B0340
:10392000FCD54B6F43F001034B67214B5A6F900757
:10393000FCD5214A5A601A6842F080721A601D4A0A
:1039400053685904FCD51A4B1A689201FCD51B4ADE
:103950009A600322C3F88C20194B1A68194B9A42BB
:10396000194B21D1194A1168194A91421CD140F2D0
:1039700005121A60144A136803F00F03052BFAD1DD
:103980000B4B9A6842F002029A609A6802F00C02AD
:10399000082AFAD15A6C42F480425A645A6E42F4B0
:1039A00080425A665B6E704740F20572E1E700BFE5
:1039B00000380240007000401854400700948838D6
:1039C000002004E011640020003C024000ED00E013
:1039D00041C20F41084A08B5536911680B4003F012
:1039E0000103536123B1054A13680BB1506898472E
:1039F000BDE80840FEF7BABF003C0140A02300200C
:103A0000084A08B5536911680B4003F0020353617B
:103A100023B1054A93680BB1D0689847BDE80840C8
:103A2000FEF7A4BF003C0140A0230020084A08B5CF
:103A3000536911680B4003F00403536123B1054A35
:103A400013690BB150699847BDE80840FEF78EBF77
:103A5000003C0140A0230020084A08B553691168C2
:103A60000B4003F00803536123B1054A93690BB17E
:103A7000D0699847BDE80840FEF778BF003C014098
:103A8000A0230020084A08B5536911680B4003F0D1
:103A90001003536123B1054A136A0BB1506A98476A
:103AA000BDE80840FEF762BF003C0140A0230020B3
:103AB000174B10B55C691A68144004F478725A61A7
:103AC000A30604D5134A936A0BB1D06A98476006DF
:103AD00004D5104A136B0BB1506B9847210604D5DF
:103AE0000C4A936B0BB1D06B9847E20504D5094A99
:103AF000136C0BB1506C9847A30504D5054A936C21
:103B00000BB1D06C9847BDE81040FEF72FBF00BF47
:103B1000003C0140A02300201A4B10B55C691A68D4
:103B2000144004F47C425A61620504D5164A136DB0
:103B30000BB1506D9847230504D5134A936D0BB113
:103B4000D06D9847E00404D50F4A136E0BB1506E48
:103B50009847A10404D50C4A936E0BB1D06E9847D8
:103B6000620404D5084A136F0BB1506F98472304C1
:103B700004D5054A936F0BB1D06F9847BDE810404C
:103B8000FEF7F4BE003C0140A0230020062108B54A
:103B90000846FDF789FB06210720FDF785FB062176
:103BA0000820FDF781FB06210920FDF77DFB06219A
:103BB0000A20FDF779FB06211720FDF775FB06218A
:103BC0002820BDE80840FDF76FBB000008B5FFF7EF
:103BD0003FFEFDF7E5F9FDF70DFDFDF7F9FEFDF7F9
:103BE000CDFDFFF7EDFDBDE80840FFF753BD000038
:103BF000034611F8012B03F8012B002AF9D1704775
:103C0000121012131211000053544D3332463F3F2D
:103C10003F000000012033000010410101105A0153
:103C2000031059010710310100000000083C000892
:103C30003F00000013040000683C00083F00000043
:103C400019040000723C00083F000000210400003D
:103C50007C3C00083F000000102D002020240020A4
:103C600088260020F028002053544D33324634304B
:103C7000780053544D3332463432780053544D3328
:103C800032463434365858000096000000000000D8
:103C90000000000000000000000000000000000024
:103CA000BD150008A9150008E5150008D115000884
:103CB000DD150008C9150008B5150008A115000894
:103CC000F115000800000000F5160008E1160008D4
:103CD0001D1700080917000815170008011700082C
:103CE000ED160008D916000879170008000000003A
:103CF00001000000000000006D61696E000000001E
:103D0000183D0008982B0020102D00200100000015
:103D1000792000080000000069646C650000000064
:103D200002000000000000002119000889190008A5
:103D300040004000A8310020B831002002000000FF
:103D4000000000000300000000000000CD19000882
:103D50000000000010000000C8310020000000003A
:103D600001000000000000009C340020010102005E
:103D70004865782F50726F6669434E430043756201
:103D800065426C61636B2D424C002553455249419D
:103D90004C2500002D240008952300088D180008EC
:103DA0001124000843000000AC3D00080902430054
:103DB000020100C0320904000001020201000524D2
:103DC000001001052401000104240202052406005C
:103DD00001070582030800FF09040100020A000030
:103DE00000070501024000000705810240000000B5
:103DF00012000000F83D000812011001020000400E
:103E0000AE2D0110000201020301000004030904A9
:103E100025424F415244250043756265426C6163FF
:103E20006B00303132333435363738394142434410
:103E30004546000000400000004000000040000037
:103E4000004000000000010000000200000002002D
:103E5000000002000000020000000200000002005A
:103E60000000020000400000004000000040000090
:103E700000400000000001000000020000000200FD
:103E8000000002000000020000000200000002002A
:103E900000000200000000001D1B0008FD1D0008BE
:103EA000A91E000840004000FC340020FC34002023
:103EB000010000000C3500208000000040010000DF
:103EC000030000000000812A00020000AAAAAAAA9A
:103ED00000000000FFFF00000000000000A00A003A
:103EE0000000000000000000AAAAAAAA000000002A
:103EF000FFFF00000000000000000000140000545C
:103F000000000000AAAAAAAA14000054FFFF0000A3
:103F1000000000000000000080699A01000000001D
:103F2000AAAA8AAA40555501FFFF00000070700739
:103F3000777000004081020100000000AAAAAAAA2E
:103F400000410100F7FF00000000008008000000B1
:103F50000000000000000000AAAAAAAA00000000B9
:103F6000FFFF000000000000000000000000000053
:103F700000000000AAAAAAAA00000000FFFF00009B
:103F80000000000000000000000000000000000031
:103F90000A00000000000000030000000000000014
:103FA0000000000000000000000000000000000011
:103FB0000000000000000000000000000000000001
:103FC000090000000000000000C01F00FF00960074
:103FD00000000008040000000C3E00080000000083
:103FE00000000000000000000000000000000000D1
:043FF00000000000CD
:00000001FF
