:020000040800F2
:1000000000060020A50500086D1F0008251F000838
:100010004D1F0008251F0008451F0008A705000800
:10002000A7050008A7050008A705000895730008A4
:10003000A7050008A7050008A7050008A7050008F0
:10004000A7050008A7050008A7050008A7050008E0
:10005000A7050008A70500082D820008598200089E
:1000600085820008B1820008DD820008A70500082B
:10007000A7050008A7050008A7050008A7050008B0
:10008000A7050008A7050008A7050008A7050008A0
:10009000A7050008A7050008A705000809830008B0
:1000A000A7050008A7050008A7050008A705000880
:1000B000A7050008A7050008A7050008A705000870
:1000C000A7050008A7050008A7050008A705000860
:1000D000A7050008A7050008E1830008F5830008CC
:1000E0006D830008A7050008A7050008A7050008FC
:1000F000A7050008A7050008A7050008A705000830
:10010000A7050008714500081D840008A705000820
:10011000A7050008A7050008A7050008A70500080F
:10012000A7050008A7050008A7050008A7050008FF
:10013000A7050008A7050008A7050008A7050008EF
:10014000A7050008A7050008A7050008A7050008DF
:10015000A7050008A7050008A7050008A7050008CF
:10016000A7050008A7050008A7050008A7050008BF
:10017000A7050008017F0008A7050008A7050008DB
:10018000A7050008A705000809840008A7050008BE
:10019000A7050008A7050008A7050008A70500088F
:1001A000A7050008A7050008A7050008A70500087F
:1001B000A7050008A7050008A7050008A70500086F
:1001C000A7050008A7050008A7050008A70500085F
:1001D000A7050008ED7E0008A7050008A705000890
:1001E000A7050008A7050008A7050008A70500083F
:1001F000A7050008A7050008A7050008A70500082F
:10020000A7050008A7050008A7050008A70500081E
:10021000A7050008A7050008A7050008A70500080E
:10022000A7050008A7050008A7050008A7050008FE
:10023000A7050008A7050008A7050008A7050008EE
:10024000A7050008A7050008A7050008A7050008DE
:10025000A7050008A7050008A7050008A7050008CE
:10026000A7050008A7050008A7050008A7050008BE
:10027000A7050008A7050008A7050008A7050008AE
:10028000A7050008A7050008A7050008A70500089E
:10029000A7050008A7050008A7050008A70500088E
:1002A00053B94AB9002908BF00281CBF4FF0FF31DD
:1002B0004FF0FF3000F074B9ADF1080C6DE904CED9
:1002C00000F006F8DDF804E0DDE9022304B0704731
:1002D0002DE9F047089D04468E46002B4DD18A42F9
:1002E000944669D9B2FA82F252B101FA02F3C2F12C
:1002F000200120FA01F10CFA02FC41EA030E9440BD
:100300004FEA1C48210CBEFBF8F61FFA8CF708FBDD
:1003100016E341EA034306FB07F199420AD91CEBB5
:10032000030306F1FF3080F01F81994240F21C81E7
:10033000023E63445B1AA4B2B3FBF8F008FB10332F
:1003400044EA034400FB07F7A7420AD91CEB040464
:1003500000F1FF3380F00A81A74240F20781644434
:10036000023840EA0640E41B00261DB1D4400023B9
:10037000C5E900433146BDE8F0878B4209D9002D1D
:1003800000F0EF800026C5E9000130463146BDE8A7
:10039000F087B3FA83F6002E4AD18B4202D3824211
:1003A00000F2F980841A61EB030301209E46002DC0
:1003B000E0D0C5E9004EDDE702B9FFDEB2FA82F215
:1003C000002A40F09280A1EB0C014FEA1C471FFA73
:1003D0008CFE0126200CB1FBF7F307FB131140EA5A
:1003E00001410EFB03F0884208D91CEB010103F127
:1003F000FF3802D2884200F2CB804346091AA4B2E9
:10040000B1FBF7F007FB101144EA01440EFB00FEBC
:10041000A64508D91CEB040400F1FF3102D2A64521
:1004200000F2BB800846A4EB0E0440EA03409CE7C0
:10043000C6F12007B34022FA07FC4CEA030C20FA6D
:1004400007F401FA06F31C43F9404FEA1C4900FA8D
:1004500006F3B1FBF9F8200C1FFA8CFE09FB18110A
:1004600040EA014108FB0EF0884202FA06F20BD97D
:100470001CEB010108F1FF3A80F08880884240F2CD
:100480008580A8F102086144091AA4B2B1FBF9F011
:1004900009FB101144EA014100FB0EFE8E4508D90C
:1004A0001CEB010100F1FF346CD28E456AD9023891
:1004B000614440EA0840A0FB0294A1EB0E01A14276
:1004C000C846A64656D353D05DB1B3EB080261EBE4
:1004D0000E0101FA07F722FA06F3F1401F43C5E9BE
:1004E000007100263146BDE8F087C2F12003D840F4
:1004F0000CFA02FC21FA03F3914001434FEA1C4736
:100500001FFA8CFEB3FBF7F007FB10360B0C43EA27
:10051000064300FB0EF69E4204FA02F408D91CEBD7
:10052000030300F1FF382FD29E422DD902386344D5
:100530009B1B89B2B3FBF7F607FB163341EA034175
:1005400006FB0EF38B4208D91CEB010106F1FF38C4
:1005500016D28B4214D9023E6144C91A46EA0046BB
:1005600038E72E46284605E70646E3E61846F8E64D
:100570004B45A9D2B9EB020864EB0C0E0138A3E796
:100580004646EAE7204694E74046D1E7D0467BE777
:10059000023B614432E7304609E76444023842E7EF
:1005A000704700BF02E000F000F8FEE73B488047DC
:1005B00072B63B4880F308883A4880F309883A4885
:1005C0004EF60851CEF20001086040F20000CCF275
:1005D00000004EF63471CEF200010860BFF34F8F79
:1005E000BFF36F8F40F20000C0F2F0004EF688516A
:1005F000CEF200010860BFF34F8FBFF36F8F4FF053
:100600000000E1EE100A4EF63C71CEF200010860E7
:10061000062080F31488BFF36F8F06F079FF06F091
:100620001BFF06F0A9F84FF0553020491C4A9142B3
:100630003CBF41F8040BFAE71D491A4A91423CBFFE
:1006400041F8040BFAE71B491B4A1C4B9A423EBF78
:1006500051F8040B42F8040BF8E700201849194A36
:1006600091423CBF41F8040BFAE706F033FF06F075
:1006700007F9154C154DAC4203DA54F8041B8847B2
:10068000F9E700F043F8124C124DAC4203DA54F88B
:10069000041B8847F9E706F01BBF0000711F000824
:1006A00000060020002200200000000800000020BA
:1006B00000060020C894000800220020D822002054
:1006C000D822002064680020A0020008A0020008D0
:1006D000A0020008A00200082DE9F04F2DED108ABD
:1006E000C1F80CD0D0F80CD0BDEC108ABDE8F08F6A
:1006F000002383F311882846A047002005F0A0FEC0
:10070000FEE705F0EDFD00DFFEE7000038B506F07E
:1007100043FD054606F028FE0446E0B9104B9D4215
:100720001BD001339D4241F2883504BF01240025CE
:10073000002006F03BFD0CB100F07AF801F02CFB34
:1007400001F0E4F900F026FD08B100F071F8284648
:1007500000F01CF9F9E70025EAE70546E8E700BFE5
:10076000010007B008B501F09DF9A0F1200358423F
:10077000584108BD07B541F21203022101A8ADF8A6
:10078000043001F0ADF903B05DF804FB38B5202367
:1007900083F311881748C3680BB105F0EFFE0023FF
:1007A000154A4FF47A71134805F0ACFE002383F329
:1007B0001188124C236813B12368013B23606368DE
:1007C00013B16368013B63600D4D2B7833B96368E7
:1007D0007BB9022001F05AFA322363602B78032B95
:1007E00007D163682BB9022001F050FA4FF47A73F5
:1007F000636038BDD82200208D070008F423002054
:10080000EC220020084B187003280CD8DFE800F019
:1008100008050208022001F02FBA022001F022BAD6
:10082000024B00225A607047EC220020F423002083
:10083000F8B5504B504A1C461968013100F09980B8
:1008400004339342F8D162684C4B9A4240F2918053
:100850004B4B9B6803F1006303F500339A4280F031
:100860008880002001F06CF90220FFF7CBFF454B98
:100870000021D3F8E820C3F8E810D3F81021C3F81A
:100880001011D3F81021D3F8EC20C3F8EC10D3F8F2
:100890001421C3F81411D3F81421D3F8F020C3F8AD
:1008A000F010D3F81821C3F81811D3F81821D3F891
:1008B000802042F00062C3F88020D3F8802022F02C
:1008C0000062C3F88020D3F88020D3F8802042F063
:1008D0000072C3F88020D3F8802022F00072C3F8A1
:1008E0008020D3F8803072B64FF0E023C3F8084D73
:1008F000D4E90004BFF34F8FBFF36F8F224AC2F8D1
:100900008410BFF34F8F536923F480335361BFF3D7
:100910004F8FD2F8803043F6E076C3F3C905C3F3B6
:100920004E335B0103EA060C29464CEA8177013914
:10093000C2F87472F9D2203B13F1200FF2D1BFF349
:100940004F8FBFF36F8FBFF34F8FBFF36F8F53691D
:1009500023F4003353610023C2F85032BFF34F8FAA
:10096000BFF36F8F202383F31188854680F30888B7
:100970002047F8BD0000020820000208FFFF010820
:10098000002200200044025800ED00E02DE9F04F65
:1009900093B0B44B2022FF2100900AA89D6801F07B
:1009A000A5F9B14A1378A3B90121B0481170C36009
:1009B000202383F31188C3680BB105F0DFFD00230A
:1009C000AB4A4FF47A71A94805F09CFD002383F3EC
:1009D0001188009B13B1A74B009A1A60A64A13789E
:1009E000032B03D000231370A24A53604FF0000A78
:1009F000009CD3465646D146012001F03DF924B172
:100A00009C4B1B68002B00F02682002001F04AF866
:100A10000390039B002BF2DB012001F023F9039BE1
:100A2000213B1F2BE8D801A252F823F0AD0A0008A1
:100A3000D50A0008690B0008F9090008F90900083F
:100A4000F9090008FB0B0008CB0D0008E50C0008B5
:100A5000470D00086F0D0008950D0008F909000802
:100A6000A70D0008F9090008190E00084D0B000831
:100A7000F90900085D0E0008B90A00084D0B0008CE
:100A8000F9090008470D0008F9090008F9090008EC
:100A9000F9090008F9090008F9090008F90900082E
:100AA000F9090008F9090008690B00080220FFF79E
:100AB00059FE002840F0F981009B022105A8BAF1F7
:100AC000000F08BF1C4641F21233ADF8143001F09C
:100AD00007F891E74FF47A7000F0E4FF071EEBDBB4
:100AE0000220FFF73FFE0028E6D0013F052F00F26D
:100AF000DE81DFE807F0030A0D1013360523042119
:100B000005A8059300F0ECFF17E004215548F9E72C
:100B100004215A48F6E704215948F3E74FF01C082E
:100B2000404608F1040801F00DF80421059005A8DD
:100B300000F0D6FFB8F12C0FF2D101204FF00009E0
:100B400000FA07F747EA0B0B5FFA8BFB01F01AF983
:100B500026B10BF00B030B2B08BF0024FFF70AFE96
:100B60004AE704214748CDE7002EA5D00BF00B0340
:100B70000B2BA1D10220FFF7F5FD074600289BD0E3
:100B80000120002600F0DCFF0220FFF73BFE5FFAA9
:100B900086F8404600F0E4FF0446B0B103994046B1
:100BA0000136A1F140025142514100F0E9FF002815
:100BB000EDD1BA46044641F21213022105A83E4681
:100BC000ADF8143000F08CFF16E725460120FFF742
:100BD00019FE244B9B68AB4207D9284600F0B2FFB0
:100BE000013040F067810435F3E70025224BBA4617
:100BF0003E461D701F4B5D60A8E7002E3FF45CAFC2
:100C00000BF00B030B2B7FF457AF0220FFF7FAFD1D
:100C1000322000F047FFB0F10008FFF64DAF18F0AA
:100C200003077FF449AF0F4A08EB0503926893422C
:100C30003FF642AFB8F5807F3FF73EAF124BB84565
:100C4000019323DD4FF47A7000F02CFF0390039A98
:100C5000002AFFF631AF039A0137019B03F8012BFD
:100C6000EDE700BF00220020F0230020D822002062
:100C70008D070008F4230020EC220020042200202D
:100C8000082200200C220020F0220020C820FFF7BC
:100C900069FD074600283FF40FAF1F2D11D8C5F19D
:100CA00020020AAB25F0030084494245184428BFBE
:100CB0004246019200F0F4FF019AFF217F4801F0C3
:100CC00015F84FEAA803C8F387027C492846019328
:100CD00001F014F8064600283FF46DAF019B05EBC8
:100CE000830533E70220FFF73DFD00283FF4E4AE23
:100CF00000F064FF00283FF4DFAE0027B846704BD9
:100D00009B68BB4218D91F2F11D80A9B01330ED004
:100D100027F0030312AA134453F8203C05934046DE
:100D2000042205A9043701F041F98046E7E7384677
:100D300000F008FF0590F2E7CDF81480042105A823
:100D400000F0CEFE02E70023642104A8049300F023
:100D5000BDFE00287FF4B0AE0220FFF703FD00289F
:100D60003FF4AAAE049800F01FFF0590E6E70023C9
:100D7000642104A8049300F0A9FE00287FF49CAE2F
:100D80000220FFF7EFFC00283FF496AE049800F035
:100D90000DFFEAE70220FFF7E5FC00283FF48CAEE8
:100DA00000F01CFFE1E70220FFF7DCFC00283FF425
:100DB00083AE05A9142000F017FF07460421049014
:100DC00004A800F08DFE3946B9E7322000F06AFE33
:100DD000071EFFF671AEBB077FF46EAE384A07EB15
:100DE0000903926893423FF667AE0220FFF7BAFC10
:100DF00000283FF461AE27F003074F44B9453FF4A4
:100E0000A5AE484609F1040900F09CFE04210590B6
:100E100005A800F065FEF1E74FF47A70FFF7A2FC39
:100E200000283FF449AE00F0C9FE002844D00A9BD8
:100E300001330BD008220AA9002000F05FFF002830
:100E40003AD02022FF210AA800F050FFFFF792FCC1
:100E50001C4805F0FBFA13B0BDE8F08F002E3FF4FC
:100E60002BAE0BF00B030B2B7FF426AE002364217B
:100E700005A8059300F02AFE074600287FF41CAE63
:100E80000220FFF76FFC804600283FF415AEFFF705
:100E900071FC41F2883005F0D9FA059800F0BAFFEC
:100EA00046463C4600F06EFFA6E506464EE64FF08D
:100EB000000901E6BA467EE637467CE6F0220020CD
:100EC00000220020A086010070470000704700004B
:100ED000704700002DE9F04100F5803704461646C2
:100EE0003B7C5BB9C0681030204400F0D9FEE56857
:100EF0003544B5F5004FE56002D816B1BDE8F08184
:100F0000DEB905F07F0605F110000021C6F180066C
:100F10002044F6B232462E4400F0E8FEA06804F108
:100F20001008324600F10060414600F5003005F03F
:100F3000EBFE30B901233B74E0E74FF40046354641
:100F4000ECE7A26805F11001404632442144A2605A
:100F5000E268521BE26000F0A3FE0220BDE8F0410F
:100F600000F094BE183000F0E9BC000010B5044653
:100F700007F064FD204610BD10B5044607F05EFD85
:100F8000204610BDC3B280B2A3F14102052A02D8A7
:100F9000373800B27047613B052B94BF5738303863
:100FA000F7E70000F8B504461546084603220C4949
:100FB00000F080FE014688B908346F1C15F9110055
:100FC000FFF7E0FF064617F911000131FFF7DAFFDE
:100FD000102940EA061004F8010BEFD1F8BD00BF5C
:100FE000988B00082DE9F04FADF53F7D074641682D
:100FF00001222AA802F05EFE002840F08780064603
:10100000824681461125DFF80C81DFF80CB101AB77
:101010004FF4805241462AA802F0A8FF002875D15B
:10102000019AB2F5805F71D8002A65D00446019A12
:101030009442ECD2282D0FD008DC132D2DD01E2D7C
:1010400039D0112D13D00134A4B2F0E7322D2DD0B8
:10105000372D2FD02D2DF6D13B68121B08EB040144
:1010600038461B692D259847BDF80440EBE7121B55
:10107000022A09D9594608EB040000F01BFE18B9F2
:1010800002342825A4B2DEE718F804303A2B3DD00C
:101090000A2B1CBFA1461325D5E718F804300A2BEC
:1010A00034D03A2B04BFA2463225CCE718F80430DE
:1010B000202BC8D0264618F804300A2B1AD1AAEBE8
:1010C000090208EB090102A811254F2A28BF4F2267
:1010D00007F04EFDA21B08EB060116A84F2A28BFF9
:1010E0004F2207F045FD3B6816AA02A9DB68384687
:1010F0009847A8E71E25A6E73B68384604491B69C0
:10110000984701200DF53F7DBDE8F08F0020F9E7FD
:101110008A8C0008FC2300209C8B000800F1180139
:1011200010B5044686B00846019100F0F1FB204658
:10113000FFF758FF60B1019902A800F049FC1022A6
:1011400004F1080102A807F09DFCB0FA80F0400904
:1011500006B010BD70B504460025EEB2304600F072
:10116000FFFC58B100213046013500F009FD08B9F7
:10117000002070BD022000F089FDEEE72046FFF759
:1011800031FF0028F4D004F58034207C80F0010089
:10119000EFE70000F0B5C9B006F016F800F074FEF5
:1011A00018B90025284649B0F0BD69462A4802F022
:1011B0009FFF00284BD1294C204602F0C9FF284848
:1011C00002F0C6FF274802F0C3FF2146224803F081
:1011D0003BF80028E5D1702007F032FC064610B13C
:1011E000214B44600360336830469B68984705464E
:1011F00000282ED01A4F1948394603F025F8054625
:101200000028CED1194807F01BFC044638B1184B12
:101210004760036000F58033C0E902551D74236800
:1012200020469B689847054628B10E490C4803F0B4
:101230000BF80028B5D1336830465B6898471CB17D
:10124000236820465B68984700F006FEAAE7002561
:10125000FAE70446EFE700BFA08B0008B08B000858
:10126000C78B0008DD8B0008008C0008140001000B
:101270001C8C00082DE9F04FD44A8DB00B68D0F8D3
:1012800004A001931A440368D14E1A44D1F81C906B
:10129000DFF8B4C3DFF8B4B3D0E90234634003EA43
:1012A0000A03634013444A6802920AEB7363029C88
:1012B000C84A2244C468224484688AEA04051D405E
:1012C000654015448A68039203EB3555039CC24A76
:1012D0002244846822448AEA03042C4084EA0A04F3
:1012E0001444CA6805EBF4340492164483EA0502F8
:1012F000224056445A4032440E69059604EBB2220D
:10130000059FB64E3E441E4485EA040313406B40DD
:1013100033444E69069602EB7363069FB04E3E441B
:101320002E4484EA02051D40654035448E690796C7
:1013300003EB3555079FAB4E3E44264482EA030437
:101340002C4054403444A84E4E4405EBF43416442B
:1013500083EA050222405A4032440E6A089604EBA2
:10136000B222089FA14E3E441E4485EA0403134066
:101370006B4033444E6A099602EB7363099F9C4E9F
:10138000D1F830E03E44D1F83880F3442E4484EA6A
:1013900002051D40654035448E6AA6F5244703EBDF
:1013A00035550A964F3F274482EA03042C405440A7
:1013B0003C44CF6A0B9705EBF4340B9E8D4F3744BA
:1013C000029E174483EA050222405A403A448A4F5B
:1013D000774404EBB2221F4485EA040313406B40B8
:1013E0003B444F6BBC4402EB7363654484EA020CDC
:1013F0000CEA030C8CEA040C6544DFF854C2C444C4
:1014000003EB3555A44482EA03042C405440644461
:10141000D1F83CC0794905EBF4346144114483EAC6
:10142000050222405A400A44754904EBB222314475
:10143000079E194484EA02032B4063400B44714920
:1014400002EBF36331440B9E0D4482EA0301214019
:10145000514029446C4D03EBF1513544019E254424
:1014600083EA010414405C402C44684D01EBB44411
:101470003544069E154481EA04021A404A402A4433
:10148000634D04EB323235440A9E1D4484EA020364
:101490000B4063402B445F4D02EBF3633544059EE4
:1014A0000D4482EA03012140514029445A4D03EB87
:1014B000F1516544254483EA010414405C402C4406
:1014C000564D01EBB4443544099E154481EA0402AB
:1014D0001A404A402A44524D04EB32323544049EAD
:1014E0001D4484EA02030B4063402B444D4D02EB44
:1014F000F36345440D4482EA0301214051402944ED
:10150000494D03EBF1513544089E2C4483EA010513
:1015100015405D402C44454D01EBB4443544039ED9
:101520002A4481EA04051D404D402A44404D04EB05
:1015300032323D442B4484EA020593440D40654019
:101540002B443C4D02EBF3633544069E294482EA6A
:101550000305254055402944374D03EBF1514D44D7
:101560002C4483EA010515405D40254401EBB54557
:1015700081EA050404EA03024A405A44A6F5B82B5E
:10158000089E05EB3232ABF2BE6B54405B44234401
:101590002A4C344402EB33730B9E0C4485EA02015F
:1015A00059402144264C344403EB7151029E25449A
:1015B00082EA03044C402544224C444401EB354567
:1015C000144483EA01026A40224443E078A46AD7C3
:1015D000EECEBDC156B7C7E8DB702024AF0F7CF557
:1015E0002AC68747134630A8019546FDD8988069DA
:1015F000AFF7448BBED75C892211906B2108B449A8
:1016000062251EF640B340C0515A5E26AAC7B6E90D
:101610005D102FD65314440281E6A1D8C8FBD3E74E
:10162000E6CDE121D60737C3870DD5F4ED145A4531
:1016300005E9E3A9F8A3EFFCD9026F6781F671878A
:1016400022619D6D0C38E5FD937198FD8A4C2A8DC1
:101650008E4379A6934C344405EB7222059E1C44BC
:1016600081EA0503534023448F4C344402EB337327
:101670000A9E0C4485EA0201594021448B4C4C449B
:1016800003EB7151254482EA03044C402C44884DFD
:10169000354401EB3444019E154483EA0102624063
:1016A0002A44844D3D4404EB72221D4481EA040324
:1016B00053402B44804D354402EB3373049E294440
:1016C00084EA02055D4029447C4D354403EB7151A9
:1016D000079E254482EA03044C402C44784D35444F
:1016E00001EB3444099E2A4483EA01056540154410
:1016F000744A324404EB7525039E134481EA0402C4
:101700006A401A44704B734405EB32720B4484EA0E
:101710000501514019446D4B634402EB71511C4467
:1017200085EA02034B401C44694B334401EB3444CB
:10173000019E1D4482EA010363402B44654D04EB86
:1017400073233544069E154463EA010262402A442D
:10175000614D03EBB2624D4462EA040929445F4DD6
:1017600089EA0309454449442C445D4D02EBB151DB
:101770003544049E61EA03081D4488EA0208444493
:1017800001EB744464EA02034B402B44554D04EBD7
:10179000F323754463EA010E15448EEA040E0EEB42
:1017A0000502514D03EBB262354462EA040E29444E
:1017B0000A9D8EEA030EA5F580164C4D7144A6F6DF
:1017C000833602EBB151264461EA030454403444A9
:1017D000029E01EB7444354464EA02061D444E4007
:1017E0007319089E424D04EBF323354463EA010666
:1017F0001544664072193F4D03EBB262654462EADC
:10180000040629443C4D5E403144079E02EBB15131
:10181000354461EA03062C44384D56403D44344477
:10182000059E1D4401EB744464EA02034B402B44C3
:10183000334D04EBF32335440B9E154463EA010258
:1018400062402A442F4D03EBB2623544039E0D449F
:1018500062EA0401594029442B4D02EBB151354451
:101860002A4E254461EA030454402C44099D01EBAF
:1018700074442E4464EA02051E4485EA01039D195E
:1018800003681A440AEB040303EBF5230260436088
:1018900083681C44C36819448460C1600DB0BDE80E
:1018A000F08F00BF44EABEA4A9CFDE4B604BBBF66D
:1018B00070BCBFBEC67E9B28FA27A1EA8530EFD454
:1018C000051D880439D0D4D9E599DBE6F87CA21F40
:1018D0006556ACC4442229F497FF2A43A72394AB4E
:1018E00039A093FCC3595B6592CC0C8FD15D848584
:1018F0004F7EA86FE0E62CFE144301A3A111084E11
:10190000827E53F735F23ABDBBD2D72A91D386EB0C
:10191000094B036003F18833436003F12943A3F5C6
:101920009613A3F68B638360A3F18833C36000230F
:10193000C0E90433704700BF012345672DE9F84330
:101940001446026905460E46E300C2F3C50800F1DD
:1019500018079B18036122BF43690133436112F4E6
:10196000FC7F436903EB5473436114D0C8F1400911
:1019700007EB08004C4504D22246BDE8F84307F0C7
:1019800091B8403C4A464E4407F08CF844443946EE
:101990002846FFF76FFCA04606EB0409B8F13F0F9D
:1019A000A9EB08010AD94022384607F07BF83946EE
:1019B0002846A8F14008FFF75DFCEFE7A1096FF0AA
:1019C0003F02384602FB014206EB8111D5E70000D9
:1019D00070B50B6901F1180506460C46C3F3C50343
:1019E000EA18501C8022EA54C3F13F02072A1FD88C
:1019F000002100F07BF929462046FFF73BFC382206
:101A00000021284600F072F9236929462046236503
:101A100063696365FFF72EFC21461022304607F00C
:101A200041F8204658220021BDE8704000F05EB920
:101A3000C3F137020021E5E72DE9F84F4FF47A733F
:101A400006460D46002402FB03F7DFF85080DFF85E
:101A5000509098F900305FFA84FA5A1C01D0A342E2
:101A600010D159F824002A4631460368D3F820B033
:101A70003B46D847854205D1074B012083F800A09B
:101A8000BDE8F88F0134042CE3D14FF4FA7004F070
:101A9000DDFC0020F4E700BF4034002010220020CD
:101AA00014220020002307B5024601210DF1070092
:101AB0008DF80730FFF7C0FF20B19DF8070003B095
:101AC0005DF804FB4FF0FF30F9E700000A460421FF
:101AD00008B5FFF7B1FF80F00100C0B2404208BD79
:101AE000074B0A4630B41978064B53F8214001469B
:101AF00023682046DD69044BAC4630BC604700BF1C
:101B00004034002014220020A086010070B50A4E47
:101B100000240A4D05F096F8308028683388834207
:101B200008D905F08BF82B6804440133B4F5003F65
:101B30002B60F2D370BD00BF42340020FC33002084
:101B400005F05EB900F1006000F5003000687047F4
:101B500000F10060920000F5003005F0D5B80000FB
:101B6000054B1A68054B1B889B1A834202D9104407
:101B700005F064B800207047FC3300204234002098
:101B800038B50446074D29B128682044BDE83840DF
:101B900005F06CB82868204405F056F80028F3D00A
:101BA00038BD00BFFC3300200020704700F1FF501B
:101BB00000F58F10D0F8000870470000064991F832
:101BC000243033B100230822086A81F82430FFF75B
:101BD000BFBF0120704700BF00340020014B1868D0
:101BE000704700BF0010005C1B4B0246F0B5186840
:101BF0001A4BC0F30B06000C1F885C68BE4293F9B9
:101C0000085003D09F89BE4203D10C335C6893F91E
:101C100008500426124B1F880433874208BF13F96B
:101C2000025C013EF7D1013A013C0B460A44934263
:101C300007D214F9016F581C2EB1034600F8016C4D
:101C4000F5E7184605E02C2482421C7001D9981C47
:101C50005D70401AF0BD00BF0010005C242200201F
:101C60004C8C0008022803D1024B4FF080529A613D
:101C7000704700BF00100258022803D1024B4FF4F6
:101C800080529A61704700BF00100258022804D1A8
:101C9000024A536983F4805353617047001002581D
:101CA000002310B5934203D0CC5CC4540133F9E750
:101CB00010BD0000013810B510F9013F3BB191F99A
:101CC00000409C4203D11AB10131013AF4E71AB144
:101CD00091F90020981A10BD1046FCE70346024611
:101CE000D01A12F9011B0029FAD1704702440346A9
:101CF000934202D003F8011BFAE770472DE9F8433D
:101D00001F4D14460746884695F8242052BBDFF83D
:101D100070909CB395F824302BB92022FF214846BF
:101D20002F62FFF7E3FF95F824004146C0F1080257
:101D300005EB8000A24228BF2246D6B29200FFF7F0
:101D4000AFFF95F82430A41B17441E449044E4B21E
:101D5000F6B2082E85F82460DBD1FFF72FFF0028AC
:101D6000D7D108E02B6A03EB82038342CFD0FFF781
:101D700025FF0028CBD10020BDE8F8830120FBE738
:101D800000340020024B1A78024B1A70704700BFD3
:101D90004034002010220020F8B5184C184803F0F9
:101DA000B9FC2146164803F0E1FC24681548D4F834
:101DB0009020154ED2F80438144D43F00203104F12
:101DC000C2F8043804F042FB2046114903F0DCFD60
:101DD000D4F890200424D2F8043823F00203C2F887
:101DE00004384FF4E133336055F8040BB84202D0A5
:101DF000314603F0EDFB013CF6D1F8BD54930008E9
:101E0000504A002040420F002834002014220020B5
:101E10005C9300080C4B70B50C4D04461E780C4BBF
:101E200055F826209A420DD00A4B00211822184658
:101E3000FFF75CFF0460014655F82600BDE87040DE
:101E400003F0C6BB70BD00BF403400201422002048
:101E5000504A00202834002010B5084C01220849BF
:101E6000002001F003FF23783BB1064803F02CFB70
:101E7000044803F05FFB0023237010BD44340020AE
:101E80005C8C0008A03600201E482DE9F041D0F8F7
:101E9000503233B901224FF4805100F5147005F02F
:101EA000D5F9194E33780BB1FFF7D6FF0324174F3E
:101EB0004FF00008134D2846144987F8058003F0B9
:101EC0002BFB284603F054F948B1013C284603F0A7
:101ED00031FB14F0FF04EED1204634700FE00C49C2
:101EE00001220C4801F0C2FE014618B1284603F059
:101EF000EBFAEAE7084800F011F801203070BDE87D
:101F0000F08100BFA0360020443400203C22002095
:101F10005C8C000848340020608C00080FB400205E
:101F200004B0704700B59BB0EFF3098168226846A2
:101F3000FFF7B6FEEFF30583014B9B6BFEE700BF97
:101F400000ED00E008B5FFF7EDFF000000B59BB025
:101F5000EFF3098168226846FFF7A2FEEFF30583DD
:101F6000014B5B6BFEE700BF00ED00E0FEE7000009
:101F700000B595B0132101A805F006FA9DF84F3081
:101F80007BB10023132101A88DF84F3005F0F6F93D
:101F9000054BD3F8002882F30888D3F80438984713
:101FA000FEE715B05DF804FB0090F01F30B50A4461
:101FB000084D91420DD011F8013B5840082340F3E1
:101FC0000004013B2C4013F0FF0384EA5000F6D1DB
:101FD000EFE730BD2083B8ED006870470346006826
:101FE000596870470B0A017043700B0C090E83701F
:101FF000C1707047110A027003714170110C120E0A
:102000008170C2701A0A42711A0C1B0E8271C37160
:1020100070470000024400F8011B9042FBD170475A
:10202000024410B510F8013B11F8014B9042A3EBAC
:10203000040301D0002BF5D0184610BDC36A023945
:10204000023B8B4283BF4389006C01FB03000020ED
:1020500070470000C2F307238A76CB760378032B00
:1020600001BF120C0A75120A4A75704700F10B0184
:102070000022D30143EA520310F8012B52FA83F3F2
:102080008842DAB2F5D110467047000010B54178A9
:1020900004460020013102464901022A16BFA35C12
:1020A000032203EBC03302F101021EBF9BB203EB1C
:1020B000500398B29142F0D810BD000002684AB1B6
:1020C000134613F8011B1F290DD93A29F9D1911C88
:1020D0008B4202D04FF0FF3070471278302AF9D18E
:1020E000036000207047014B187870479436002039
:1020F00038B50D46044618B9092000232B6038BDB9
:102100000368002BF8D01A78002AF5D08188DA8885
:102110009142F1D1587804F0B3FA10F00100EBD1FC
:102120002368EBE738B50D4640F25231144602F011
:1021300073F9FF2806D9012C0AD9030A6870022016
:102140002B7038BD0028FCD024B128700120F8E79E
:102150000020F6E72046F4E72DE9F8430026D0F802
:10216000008007460C468E76836B3BB398F80030B0
:10217000042B4BD1D8F8108040273546334698F8C9
:10218000232096421CD3002B40F0BF80002D00F08E
:10219000BC8000232544AB76637398F80430237326
:1021A000DB0630D408F13800FFF718FFC4E900015E
:1021B000B8F80C306381B8F80E302381BDE8F8839D
:1021C000B7F5187F80F0A180FA0606F1010608BF76
:1021D000023738F8070002372BB900F5205292B2C7
:1021E000B2F5006F0DD305F11A01C5F1FF0240EA07
:1021F00003402144FFF796FF002800F08680054445
:1022000000200346BBE700200146CFE7C36C013343
:102210005DD1FA6B00232E26551E184615F8011FB6
:10222000013020290CD0052908BFE521092804D157
:102230000B2B9EBFE71801337E73E71801337973C8
:102240000B28EBD1E11800204873A17E00294CD166
:10225000002B41D06FF00C0604F10D000825361B51
:10226000331810F8011B002939D02E298BB249D020
:10227000A3F14101192903D8117B0D4200D020336D
:102280000373EDE7B9F1000F05D100F520539BB2C0
:10229000B3F5006F0BD305F11A01C5F1FF0240EA57
:1022A00009402144FFF73EFFA0B10544002002365B
:1022B0008146D8F80C30985B0028E3D1B9F1000FC3
:1022C0004FF0000318BF00252544AB76A1E7B146C7
:1022D0003546EEE70546F1E73F23A3760123234485
:1022E00000219976137B03B96373D37A02F11C0042
:1022F00023730023FFF770FE20606360D38A63813D
:10230000138B5AE710250B46BAE73F230125A37626
:102310003FE7000038B50546002435F8020B08B940
:10232000204638BD02F0ACF86308C2B203EBC433F8
:1023300012FA83F39AB2C0F3072303EB520303EBC1
:10234000C2339CB2E9E7000001380A4411F8013BAE
:10235000914200F8013FF9D17047000037B5C378CA
:1023600004461BB90025284603B030BD00F14C01DE
:10237000826C01234078019104F0A8F9054680B9E8
:10238000A36BE070A06C226BC31A9342EAD2A378CD
:102390000199022BE6D102440123607804F096F9FA
:1023A000E1E70125DFE7000038B5836C05460C4600
:1023B0008B4210D0FFF7D2FF60B92246012305F10E
:1023C0004C01687804F05EF900281CBF4FF0FF3420
:1023D0000120AC6438BD0020FCE7000038B50023C4
:1023E0000446C3704FF0FF338364FFF7DDFF00281E
:1023F0003FD1B4F84A524AF655239D4206D10B22EA
:102400001E4904F14C00FFF70BFEA0B394F84C30CA
:10241000EB2B03D01833DBB2012B23D84AF655231C
:102420009D4206D10822164904F19E00FFF7F8FDEF
:10243000F0B1B4F857305A1E1A4213D1B3F5007FE9
:1024400010D194F8590068B1431E18400AD194F88D
:102450005C30013B012B05D8B4F85D3013B1B4F802
:1024600062302BB94AF6552085420CBF022003206A
:1024700038BD0420FCE70120FAE700BF8C8C00087F
:10248000988C000802392DE9F04701F007044FF05D
:10249000010A466C05460AFA04F41746984606EB0C
:1024A0001136C1F3C809E4B2314628460136FFF7B8
:1024B0007BFF18B10120BDE8F087994605EB0902C2
:1024C00092F84C30234214BF01210021414513D022
:1024D0006340013F82F84C3085F803A0EBD06400E4
:1024E00014F0FF04EAD109F1010301244FF00009BF
:1024F000B3F5007FE1D1D7E70220DCE701290246EE
:10250000F8B50C4640F28C800668F36A8B4240F2C4
:1025100087803378013B032B00F28280DFE803F0F1
:102520000229384B04EB5405B16B304601EB5521C1
:10253000FFF73AFF10B14FF0FF30F8BD6F1CC5F345
:102540000805B16B3046354401EB572195F84C50E6
:10255000FFF72AFF0028EED1C7F30807E3073E4440
:1025600096F84C0045EA00204CBF0009C0F30B0070
:10257000E3E7B16B304601EB1421FFF715FF0028AC
:10258000D9D1640004F4FF742644B6F84C00D4E7B3
:10259000B16B304601EBD411FFF706FF0028CAD11A
:1025A000A40006F14C0004F4FE742044FFF714FD6F
:1025B00020F07040C1E7D0E90430D57953EA00013A
:1025C00001D0916801B95DBB9168022DA4EB0101B6
:1025D0000DD1013B728940F1FF305B0A43EAC053E1
:1025E000B3FBF2F399421BD81CD0601CA5E7032D66
:1025F00002D193698B42F8D8D3699BB9B16B30464D
:1026000001EBD411FFF7D0FE002894D1A0004C3686
:1026100000F4FE703044FFF7DFFC20F000408CE750
:1026200001208AE76FF0004087E70000F8B50668F0
:1026300004460D463378042B0CBF4FF080524FF404
:1026400000128A4201D80220F8BDCA06FBD1826876
:102650000163D2B9022B13D83389B3EB551FF2D9DA
:10266000F36BA363A36B6263002BECD003EB5523E6
:102670004C36C5F308050020A3633544E563E3E762
:10268000F36BC271002BE7D01A4677897F02BD42F7
:10269000114604D23046FFF7D1FCA063E2E72046A2
:1026A000FFF72CFF431C024606D00128CBD9F36A62
:1026B0008342C8D9ED1BEAE70120C5E701292DE9CE
:1026C000F04706460C46174608D9C36A8B4205D91F
:1026D0000378022B62D003D8012B22D0022552E0CE
:1026E000033B012BFAD8816B01EBD411FFF75CFEA1
:1026F0000546002847D1A40006F14C0304F4FE74FB
:102700001C443378042B07D0204627F07047FFF78E
:1027100063FC00F07040074339462046FFF762FC37
:102720002FE001EB5108816B01EB5821FFF73CFED4
:10273000054640BB14F0010406F14C0908F1010AFA
:10274000C8F3080808BFFBB230461FBF19F80830AD
:1027500003F00F023B0103F0F00318BF134309F825
:1027600008300123B16BF37001EB5A21FFF71CFE17
:10277000054640B9CAF3080A44B1C7F3071709F878
:102780000A700123F3702846BDE8F08719F80A3073
:10279000C7F3032723F00F031F43F0E7816B01EB1F
:1027A0001421FFF701FE05460028ECD1640006F174
:1027B0004C0304F4FF741F551919C7F307274F7012
:1027C000DFE70000F8B504460E461746E3690BB98B
:1027D0001846F8BD012BA6EB0305206814BFAA1C00
:1027E0003A46691CFFF76AFF0028F2D1E369013B12
:1027F000E361EBE701292DE9F84306460C4617464D
:10280000056802D80220BDE8F883EB6A8B42F9D94B
:102810007AB9A14621463046A046FFF76FFE04462E
:10282000B0B92B78042B02D1002F43D1F7710020CF
:10283000E9E72B78042B02D1C379022BE9D04FF0C2
:10284000FF3239462846FFF739FF0028E1D0DAE7A2
:102850000128D7D0421C01D10120D4E72B78042BCA
:1028600019D1EA6AAB69023A93421CD308F101021A
:10287000A2420CD02B78042B08D10023A2EB090232
:1028800049462846FFF7FEFD0028BCD1A146EB6A69
:10289000A342BFD8C5E7002241462846FFF70EFFF6
:1028A0000028DED0AFE70133AB612B7943F00103A1
:1028B0002B71DBE7F3798BB9B468BC4202D10223F8
:1028C000F371B4E721463046FFF718FE012899D985
:1028D000431CC1D001348442EFD0A8E7032BA6D11A
:1028E000B368BB42A3D8B2691344BB429FD3E6E7A7
:1028F00070B5C3790446032B06D181688369CD186E
:10290000A94203D10023E371002070BD4E1C206852
:102910003246FFF7D3FE0028F7D13146F0E700003A
:102920002DE9F74306460191FFF718FD04460028FC
:1029300049D106F14C09019930464FF40072FFF776
:102940007DFB2146B06407464846FFF763FB748968
:102950006402B4F5006F28BF4FF40064B4F5007F43
:102960002FD9204603F0EAFE804630B100212246EE
:10297000FFF750FB640A0D4609E06408EEE72346C2
:102980007A194146707803F0A1FE18B9254473897D
:102990009D42F4D3404603F0D3FE7089401B18BF1C
:1029A000012003B0BDE8F083013573899D42F4D264
:1029B00001237A194946707803F088FE0028F3D085
:1029C000EBE70025F1E70120EBE70000F8B504464E
:1029D000FFF7C4FC0546002842D12378032B37D1EA
:1029E0002779012F34D104F14C06552301464FF4C9
:1029F00000723046FFF70EFB84F84A32AA234122C8
:102A0000722104F50D7084F84B32522384F84F2064
:102A100084F84C3084F84D30612384F8301284F807
:102A20004E3084F8333284F8311284F83222A169AE
:102A3000FFF7D8FA616904F50E70FFF7D3FA626BFD
:102A40003B46314601326078A26403F03FFE2571B7
:102A500000226078114603F05DFE003818BF0120A7
:102A6000F8BD000000232DE9F0430B6085B00F4650
:102A70001546FFF723FB061EC0F2B281804B53F8C8
:102A80002640002C00F0AE813C6005F0FE05237866
:102A90006BB1607803F0F4FDC70708D41DB110F0E6
:102AA000040500D00A25284605B0BDE8F0830023C0
:102AB000F0B22370607003F0D1FDC10700F1948182
:102AC0000DB14207EED400212046FFF787FC022813
:102AD00040F099806E4604F2122304F252213246ED
:102AE00018461033FFF778FA42F8040B8B42F7D1FF
:102AF000002556F8041B00297DD02046FFF76EFC08
:102B0000012879D80128A26C40F0C08004F1570355
:102B100004F18C0113F8015B002D7BD18B42F9D1BC
:102B2000B4F8B430B3F5807F74D194F8B830092B81
:102B300070D104F19400FFF751FA4FF0FF331718EA
:102B400041F10001BB4275EB010363D304F1A00026
:102B5000FFF742FA94F8BA302063012BA37059D1E1
:102B600094F8B99003FA09F91FFA89F36381002BED
:102B700050D0444B04F1A800FFF72EFA06469842C5
:102B800048D8831C626304F1A400E362FFF724FACF
:102B900000EB020804F19C00C4F84080FFF71CFA27
:102BA00010441FFA89F2A06306FB02F313EB08033B
:102BB00045EB05029F4271EB02032BD32E4604F135
:102BC000AC00FFF709FAE06365B96389B34221D924
:102BD000E16B2046FFF732FA81192046FFF7E4FB4C
:102BE00098B90136631993F84C30812B14D02035F5
:102BF000C5F30805E8E703200135042D7FF479AF1C
:102C0000042807D101E0042801D101254BE7012860
:102C10007FF678AF0D2546E705F1140004F14C0668
:102C20003044FFF7D9F901280546F3D9E36A834216
:102C3000F0D96189821E236C02FB01336364A16BAE
:102C4000204601EBD511FFF7AFFB0028DDD105F0E1
:102C50007F0006EB8000FFF7BFF9431C03D001356E
:102C6000A842ECD0D6E70425C4E90500064A257041
:102C700000251388E56101339BB21380E38012E7DE
:102C800098360020FDFFFF7F9C360020B4F85730B7
:102C9000B3F5007FBED1B4F8626026B904F17000CC
:102CA000FFF79AF9064694F85C302663591EA37024
:102CB0000129AFD894F859506581002DAAD0691E1A
:102CC0002942A7D1B4F85D8018F00F0FA4F808804E
:102CD000A0D1B4F85F0018B904F16C00FFF77CF9DB
:102CE000B4F85A10002995D006FB03FE01EB181C1E
:102CF000F44460458ED3A0EB0C00A842B0FBF5F382
:102D000088D33E48834285D84FF6F57083426DD90B
:102D100003259F1C114402EB0C03032DE762626341
:102D2000A16323644CD1B4F8763053EA08037FF4EE
:102D300071AFBB0004F17800FFF74EF9E06303F2D6
:102D4000FF13B6EB532FFFF465AF4FF0FF33032DA6
:102D5000C4E905334FF08003237187D1B4F87C3088
:102D6000012B83D1511C2046FFF71EFB00287FF466
:102D70007DAFB4F84A224AF6552320719A427FF477
:102D800075AF1F4B04F14C00FFF726F998427FF412
:102D90006DAF03F1FF5304F50C70FFF71DF903F558
:102DA0000053203398427FF461AF04F50D70FFF7B4
:102DB00013F9A06104F50E70FFF70EF9606155E795
:102DC000B8F1000F3FF426AF7144022D4FEA4703DC
:102DD000E1631EBFD91907F0010303EB5103AEE70E
:102DE0000B2560E60C255EE603255CE640F6F575EE
:102DF000AB428CBF022501258BE700BFF5FFFF0F1B
:102E0000525261412DE9F84F07460568884649B995
:102E10006E69C6B1EB6AB34298BF0126AB69A3B92C
:102E2000002405E0FFF76AFB0128044603D80124CB
:102E30002046BDE8F88F421C00F0D280EB6A834246
:102E4000F6D84646EAE70126E8E72A78EB6A042A3C
:102E500040F08380A6F1020A023B4FF0010B9A4535
:102E600028BF4FF0000AD146696C284601EB1931A2
:102E7000FFF79AFA00283BD109F00703EA6AC9F381
:102E8000C8010BFA03F3901EDBB26A184C4609F135
:102E9000010992F84C20814502EA030233BF5B002E
:102EA00000234FF40071DBB228BF9946B2B9023457
:102EB000631E0333BCD80123214628461A46FFF778
:102EC000E1FA0228B3D0012800F08A80B8F1000F9F
:102ED00013D10223FB710028A9D130E0CA450AD0E2
:102EE000002BD2D10131B1F5007FBDD20123CCE757
:102EF0004FF0FF34DCE70024DAE7FB79022B07D13F
:102F0000731CA342E7D0BB68F31ABB610323FB71B8
:102F100008F10102FB69A24205D113B10133FB6143
:102F2000D9E70223FBE70BB90123FB6122464146A7
:102F30003846FFF747FC00284FD10123FB61EA6ABE
:102F4000AB69023A6C6193429CBF03F1FF33AB6102
:102F50002B7943F001032B716AE7464514D1741CA9
:102F60003846A34298BF02242146FFF7C7FA01283A
:102F70003FF45DAF431C33D0E0B16B69012B03D943
:102F8000EA6A934238BF1E4634460134EB6AA342D4
:102F900003D8012E7FF644AF022421463846FFF7BE
:102FA000ADFA48B101283FF442AF013018D0B44225
:102FB000EBD135E7002CE7D04FF0FF322146284611
:102FC000FFF77CFB48B9B8F1000FB8D02246414664
:102FD0002846FFF773FB0028B1D001287FF427AF04
:102FE0004FF0FF3424E700002DE9F843066804465B
:102FF000076B894633782037042B0CBF4FF0805382
:103000004FF40013BB429CBF00238363836B73B1F7
:10301000C7F30808B8F1000F3CD10133416B83635B
:1030200039B93389B3EB571F34D80023A363042085
:103030000AE07389013B13EA57232BD1FFF75EFAAD
:103040000128054602D80220BDE8F883421C01D1C0
:103050000120F9E7F36A834216D8B9F1000FE4D0F2
:10306000616B2046FFF7CEFE0546C8B10128EAD0C5
:10307000431CEDD001463046FFF752FC0028E7D153
:10308000E37943F00403E371294630466563FEF7B4
:10309000D5FFA0634C36002027634644E663D3E7A0
:1030A0000720D1E72DE9F04105460068A96B0669C4
:1030B000FFF77AF9044620B9E96B0B78852B03D02A
:1030C00002242046BDE8F08120223046FFF73CF97B
:1030D000777801377F01A7F16003B3F5007FEFD860
:1030E00021462846FFF780FF04280446E8D0002840
:1030F000E7D1A96B2868FFF757F904460028E0D10B
:10310000E96B0B78C02BDBD12022B018FFF71CF93C
:1031100096F823300F222C33B3FBF2F3B7EB431FA7
:10312000CED34FF0400800212846FFF75DFF04286A
:103130000446C5D00028C4D1A96B2868FFF734F92C
:1031400004460028BDD1E96B0B78C12BB8D1B8F586
:10315000187F04D2202206EB0800FFF7F5F808F1EB
:1031600020084745DFD8B8F5187FAAD83046FEF7C3
:103170008DFF73888342A4D0A2E700000B68002271
:1031800010B5036004460B6A83604B6AC261C37169
:1031900023F0FF03896AC0E90432C164FFF746FAED
:1031A00020B92046BDE81040FFF77CBF10BD0000ED
:1031B000F8B50E46002104460768FFF737FA98B9BC
:1031C0000546A16B3846FFF7EFF868B93A78E36B2C
:1031D000042A1B780CD11B060ED50546012120467A
:1031E000FFF702FF0028ECD0042808BF072006E004
:1031F000E52B01D0002BF0D10135B542EED1F8BD61
:1032000003682DE9F0411E6905464FF0010830467C
:10321000FEF73CFFB070000A7778F0702846E96C42
:10322000FFF704FA04462CB1022C28BF0224E0B2B6
:10323000BDE8F081A96B2868FFF7B6F804460028BE
:10324000F2D120223146E86BFFF77EF82B6883F835
:103250000380002FE8D021462846FFF7C5FE203620
:103260000446013FDFE70000C16C4B1C2DE9F04133
:1032700004460568066B1FD1E5274FF00108A16BD6
:103280002846FFF791F898B92A78E36B042A09BF1A
:103290001A781F7002F07F021A7085F80380236B82
:1032A000B3420DD200212046FFF79EFE0028E6D053
:1032B000042808BF022003E0FFF7B8F90028DBD09C
:1032C000BDE8F0812DE9F8434FF0FF080646076896
:1032D000042445464FF6FF79B16B11B9002C73D029
:1032E00063E03846FFF760F8044600285DD1F06BD4
:1032F0000378002B6ED03A78042A11D1852B4DD15A
:10330000336B3046F364FFF7CDFE044600284CD102
:103310003B691B7903F03F03B3712046BDE8F88396
:10332000C27AE52B02F03F02B27143D02E2B41D07E
:1033300022F0200108293DD00F2A40D1590637D567
:1033400003F0BF05336B90F80D80F364437B434576
:1033500030D1428B72BB03780D21FC6823F040030F
:10336000DFF874E0013B4B4301211EF801CB30F83C
:103370000CC009B3FF2B1DD824F813C061460133DC
:1033800001320D2AF1D10278520605D521B1FF2B69
:1033900010D8002224F81320013DEDB20021304660
:1033A000FFF722FE0446002896D00023B363B4E75B
:1033B000AB42CBD0FF25F1E7CC45E1D0FAE72DB900
:1033C000FEF754FE404501D10024A6E74FF0FF333D
:1033D000F364A2E70424E8E7348D00082DE9F04FF8
:1033E000002187B00446D0F80090FFF71FF980460F
:1033F00070B999F80030042B33D1D9F80C00FEF7DE
:1034000089FF07462046FFF75DFF054620B180464D
:10341000404607B0BDE8F08FD9F810309A8CBA4218
:10342000F0D193F823B040265D4506D1D9F80C3091
:1034300033F81530002BE5D1EAE7F106D9F8103062
:1034400008BF0236985B01F01BF8D9F80C308246B1
:1034500033F8150001F014F88245D3D10236013556
:10346000E2E74FF0FF0A4FF0FF3B5546C4F84CB07F
:10347000A16B4846FEF798FF00285CD1E66B3778D1
:10348000002F77D0F27AE52F02F03F03A37103D02B
:10349000120704D50F2B04D0C4F84CB04FE00F2B0B
:1034A00054D194F84B3058063FD4790645D5236B58
:1034B00007F0BF0796F80DA0E364737B53453ED138
:1034C000738B002B3BD135780121D9F80C3005F0F6
:1034D0003F0501930D23013D5D43284B13F8012B5C
:1034E000B25A71B3FF2D059329D81046049200F00B
:1034F000C7FF6B1C03900293019B33F8150000F08B
:10350000BFFF039981421AD1049A029D1146059B7F
:103510001B4A9342E2D133785A0604D519B1019B74
:1035200033F815305BB97D1EEDB200212046FFF760
:103530005BFD00289CD080466AE7BD42BDD0FF25D8
:10354000F3E74FF6FF708242E2D0F8E72DB930463C
:10355000FEF78CFD50453FF45BAF94F84B30DB0732
:103560009AD40B2204F140013046FEF759FD0028A1
:1035700092D14DE74FF004084AE700BF348D0008B0
:10358000418D00082DE9F04F90F84B5099B004465A
:1035900015F0A00540F061810668F26832F8153038
:1035A000002B4AD13378042B40F086800F230E3550
:1035B0002046B5FBF3F5A91CFFF7FAFD814600286C
:1035C00076D1236B0135A3EB4515E3795A07E56402
:1035D00035D523F004032046E371FFF789F950BB8A
:1035E0004FF0FF32616B2046FFF7ECF818BBA36881
:1035F0002BB3214604A8FFF7C1FDE0B970894FF451
:103600000071D4E90423E0FB01233069C4E90423F9
:103610003830FEF7EFFC3069D4E904232830FEF798
:10362000E9FCE379326904A843F0010382F8213010
:10363000FFF7E6FD18B181463AE00135AEE7D6E97D
:1036400003548523002140222046FEF7E3FC01229B
:103650002370C0230E464FF0C10C84F820308E46F4
:10366000402304EB02085F1C04F803C0F0B20233ED
:1036700004F807E022B135F811200AB10131C9B2CE
:10368000170AE25408F803700233DF06F2D135F866
:1036900011700136002FE6D1831C84F823102846D0
:1036A0006370FEF737FE84F82400000A84F82500D2
:1036B000484619B0BDE8F08F04F140070C2204A879
:1036C0003946FEF741FE9DF81B30DB0740F1CF8005
:1036D00040234FF0010ADFF8F88184F84B300B22C9
:1036E00004A93846D6F80C90FEF72EFEBAF1050F65
:1036F00054D9A9F10201534631F8022F002A3FD1D3
:103700000DF10F00072203F00F0C0CF130013929E5
:1037100088BF0CF13701013A00F801194FEA131183
:1037200001D00F2B3CD818AB7E21134403F8581C52
:1037300039460023934205D011F8010B03F1010C27
:1037400020282FD104F13F00072A03F1010397BF7E
:1037500018A920218918013298BF11F8581C072B8D
:10376000C154F1D92046FFF739FE8146002877D1B0
:103770000AF1010ABAF1640FB1D14FF0070997E7D6
:10378000102002F0010C52080CEB430313F4803FAD
:1037900018BF83EA08030138F3D1ADE75346AFE71A
:1037A0000B46B0E76346C5E7216B2046A1EB451108
:1037B000FEF73CFF814600287FF47AAF4FF6FF7892
:1037C0003846FEF753FC0190A16B3046FEF7ECFD46
:1037D000814600287FF46CAFE36BE9B2019A4FF0A9
:1037E0000D0CD6F80CE05A734FF00F02DFF8E4A08E
:1037F000DA724A1E18730CFB02F284469876D87669
:1038000040451AF8019B0CF1010C18BF3EF812005C
:1038100003EB090B18BF013203F809004FEA102926
:10382000002808BF4046BCF10D0F8BF80190E7D18E
:10383000404502D03EF812200AB941F0400119700B
:10384000012300212046F370FFF7CEFB81460028BC
:103850007FF42EAF013DB7D11EE04FF0060927E7F8
:1038600004287FF425AF9DF81B3084F84B309DF879
:103870001B3020469B0745BF0C350D210125B5FBAC
:10388000F1F548BF01352946FFF792FC8146002833
:103890007FF40EAF013D87D1A16B3046FEF784FD6A
:1038A000814600287FF404AF01462022E06BFEF73A
:1038B000B1FB0B223946E06BFEF746FD94F84B3026
:1038C000E26B03F0180313730123F370F0E600BFFB
:1038D00021100100348D000810B504460A4634302A
:1038E000FEF77AFB886004F13800FEF777FBC2E947
:1038F000040194F8213003F00203D3710023D36153
:1039000010BD000003284B8B04BF8A8A43EA0243A0
:10391000184670472DE9F04F0B7899B00446884659
:103920002F2BD0F800B001D05C2B09D14246137880
:10393000904601322F2BFAD05C2BF8D0002301E007
:10394000DBF81C30A3600023E3619BF80030042BFC
:103950001ED1A368E3B1DBF82030214604A823621E
:10396000DBF824306362DBF82830A362FFF706FC43
:103970000346002859D1DBF8102002F13800FEF789
:103980002BFBC4E9040392F8213003F00203E37136
:1039900098F800301F2B00F223818023002120465D
:1039A00084F84B3019B0BDE8F04FFEF73FBEFF2E54
:1039B00000F038812AF81600013615E142461378E6
:1039C000904601322F2BFAD05C2BF8D00025012E27
:1039D00030D1BAF800302E2B32D1002304F140024E
:1039E0002AF816309E428CBF2E21202101330B2B4A
:1039F00002F8011BF6D145F02005204684F84B5013
:103A0000FFF7ECFC94F84B30002800F0D08004283D
:103A10000BD1990603F0040240F1C580002A00F0A2
:103A2000DF808023002084F84B3019B0BDE8F08F90
:103A30000425CCE7022E03D1BAF802302E2BC8D0D1
:103A4000AAF102028EBB00222AF81620002E00F0F6
:103A5000E9803AF81210134601322029F9D00BB947
:103A60002E2901D145F00305AAF1020131F81620F3
:103A70002E2A01D0013EF9D14FF000090B2220215E
:103A800004F14000FEF7C6FA4F460822591C3AF8E6
:103A900013000191F0B1202803D02E280DD1B1429E
:103AA00010D045F00305019BF0E732F81630202BCB
:103AB00001D02E2BC7D1013EC4E7914505D2019B11
:103AC000B34235D10B2A2CD101E00B2A23D145F08A
:103AD00003050B2294F84030E52B04BF052384F83E
:103AE0004030082A04BFBF00FFB207F00C030C2BC4
:103AF00003D007F00303032B01D145F00205AB0708
:103B00003FF57BAFFE0748BF45F01005780748BF7B
:103B100045F0080571E7019BB34202D045F003056B
:103B2000D8D8BF000B224FF008090196FFB2BAE7C0
:103B30007F2812D945F0020340F2523103920293DA
:103B400000F06AFC10F0800FDDE9023210D000F0C6
:103B50007F004349085C1D4630B1424911F8013BE2
:103B6000002B6DD08342F9D145F003055F2010E0B2
:103B7000FF28F0D9511E894503D345F0030591462E
:103B800091E704EB0901050A09F1010981F84050A8
:103B90001D4604EB090309F1010983F8400082E79F
:103BA00047F00207F5E7002A08BF05203DE75A075E
:103BB0003FF53BAFA379DB0640D59BF80000042816
:103BC00032D1A3682146E27923622369DBF8100031
:103BD00023F0FF0313436362E36CA362FFF77CFEF1
:103BE00023680026D3F80CA018F8010B00283FF436
:103BF0001FAF40F2523100F02FFC98B11F287FF622
:103C000017AF2F283FF4DAAE5C283FF4D7AE7F28F9
:103C10003FF6CDAE144A12F8013B002B3FF4C7AE7D
:103C20008342F8D1062000E7216B0BF14C03C1F36E
:103C300008011944FFF766FEA060D1E70520F4E60D
:103C4000A0F141039BB2192BAAD9A0F161039BB249
:103C5000192B9EBF203847F0010780B299E700BFBB
:103C6000B48C0008AD8C0008A48C00081FB5CDE909
:103C7000001003A814460391FEF720FA002815DB74
:103C80000B4A52F820300BB100211970019B0BB187
:103C90000021197042F820302CB1002201A9684699
:103CA000FEF7E0FE0446204604B010BD0B24FAE700
:103CB000983600202DE9F04798B0904605460191CE
:103CC000002800F04F8102F03F0603A901A8324608
:103CD000FEF7C8FE002840F04381039B4FF48C6040
:103CE000049302F02BFD0746002800F03D81039B62
:103CF00000F500720199D86004A81A61FFF70AFE66
:103D0000044620B99DF95B30002BB8BF062418F09B
:103D10001C0F00F0C980002C4BD0042C3FD104A80C
:103D2000FFF730FC0446002839D146F00806039B13
:103D30001A78042A7FD1186929462B60FFF7CCFD39
:103D4000039B00211E2218690230FEF763F9039BD2
:103D50001A2218692630FEF75DF9039B20211A69A3
:103D600011711C6903F050F9014601220834204604
:103D7000FEF738F9039B04A81B6983F82120FFF79D
:103D80003FFA044658B9A96801B302462846FEF72F
:103D900031FDAB68039A0446013B5361B4B1384628
:103DA00002F0CEFC0CB100232B60204618B0BDE819
:103DB000F0879DF8163013F0110F40F0818018F055
:103DC000040F40F0C78018F0080FB0D1039A3107F4
:103DD0001399936C48BF46F04006E964AB641078D1
:103DE00004286FD1069B9DF817102B62089B106961
:103DF00023F0FF030B4329466B62179BAB62FFF76F
:103E00006BFD039B0024002205F150082B60214626
:103E1000DB88404685F83060AB80002385F8314070
:103E20006C64C5E90E234FF40072FEF7F3F8B20696
:103E300053D40024B3E703F0E7F801460090139849
:103E40000E30FEF7CFF8139800991630FEF7CAF837
:103E5000039C13992078FFF755FD2023002280460C
:103E6000CB7220461399FEF7F5F8139B002201212F
:103E70001A775A779A77DA77039BD970B8F1000FDF
:103E8000A4D0414604A8D3F84890FEF7B3FC0446FA
:103E9000002884D149460398FEF786FA039B04461E
:103EA00008F1FF30586179E7002C7FF478AF9DF876
:103EB0001630DC0650D418F0020F87D0D80785D50D
:103EC00007246CE7FFF71EFD0023A86001F11C002A
:103ED000FEF782F86B61286193E7D5E9046956EA39
:103EE0000903A6D0039BA968B3F80AA04FEA4A2A9F
:103EF000C5E90E69B24574EB09031BD3002429649C
:103F0000002C7FF44CAFC6F30803002B91D0039C28
:103F10002046FEF793F808B3760A0123414646EAA5
:103F2000C95682196A64607802F0ACFB041E18BF9F
:103F3000012434E72846FEF7E1FAB6EB0A0601460B
:103F400069F10009012803D9431CD3D10124D6E724
:103F50000224D4E7082422E7042420E702241EE7F1
:103F6000044620E7092420E711241EE72DE9F04F3D
:103F7000994685B00023884603A90446C9F8003055
:103F80001646FEF7B5F8054680BB94F831506DBB78
:103F900094F8303013F00103009300F0A68004F190
:103FA000500AD4E90432D4E90E011B1A62EB010273
:103FB000B34272F1000238BF1E46BEB1D4E90E1002
:103FC000C1F30803002B40F08280039B5A894B0AFF
:103FD000013A43EAC0531A401BD151EA000309D108
:103FE000A06801280DD8022584F83150284605B074
:103FF000BDE8F08F216C20460192FEF77FFA019A0E
:10400000EFE7431C04D10123009D84F83130EDE734
:104010002064DDF80CB0216C5846FEF70FF800283C
:10402000E1D0B6F5007F02EB000731D3BBF80A10F0
:1040300002EB5620730A88429BF8010088BF8B1A56
:104040003A464146019302F01DFB0028DBD194F96A
:104050003020019B002A0BDA606CC01B984207D20B
:104060004FF40072514608EB4020FEF76DF9019BBA
:104070005F02D9F80030F61BB8443B44C9F8003061
:10408000D4E90E32DB1942F10002C4E90E3294E7A2
:10409000626CBA421AD094F93030002B0DDA012349
:1040A00051469BF8010002F011FB0028ABD194F8B7
:1040B000303003F07F0384F83030039801233A4610
:1040C0005146407802F0DEFA00289CD16764A16B6B
:1040D0004046C1F30801C1F500775144B74228BFFB
:1040E00037463A46FEF730F9C3E707257EE700007A
:1040F00070B596B00E460022019002A901A8FEF705
:10410000B1FC0446E0B94FF48C6002F017FB0546A1
:10411000D8B1029B00F500720199D86002A81A611B
:10412000FFF7F8FB044640B99DF95330002B0ADB3A
:104130001EB1314602A8FEF70FF8284602F000FB38
:10414000204616B070BD0624F7E71124F8E70000FA
:1041500070B5B8B00222019003A901A8FEF782FC55
:10416000044608BB039B4FF48C60109302F0E6FA00
:104170000546002866D0039B00F500720199D860BF
:1041800010A81A61FFF7C6FB044650B99DF88B30A2
:10419000980655D4190653D49DF84630DA0706D54B
:1041A0000724284602F0CCFA204638B070BD039BA5
:1041B00004931878042814D104A91869FFF78CFB1C
:1041C000069E9DF84630DB0610D410A8FFF74CF889
:1041D00004460028E5D156BB0398FEF7F7FB0446DA
:1041E000DFE71F99FFF78EFB0646EAE7039BDA69D4
:1041F000B242D5D024930021269624A81B78042B04
:1042000001BFDDE90823CDE928239DF817308DF89B
:104210009730FEF70BFA04460028C2D124A8FFF716
:1042200051F804460028BBD00428BAD1CDE7024695
:10423000314604A8FEF7DEFA04460028B1D1CBE7E8
:104240000624AEE71124AFE7F0B5BDB0CDE900100C
:104250006846FDF733FF022203A901A8FEF702FC1E
:104260000446002838D1039B4FF48C60149302F06D
:1042700065FA0546002800F0CD80039B00F500722A
:104280000199D86014A81A61FFF744FB044600BBEB
:104290009DF89B3013F0A00F40F0B880039B1A7874
:1042A000042A58D11969402204A8FEF74DF850227B
:1042B00028A80DEB0201FEF747F8009928A8FFF7A0
:1042C00029FB0446002843D12A9A169B9A4206D01D
:1042D0000824284602F034FA20463DB0F0BD349A56
:1042E000209B9A42F4D128A8FFF74CF904460028F5
:1042F000EFD1039B04A940221869848C477890F879
:104300002360FEF721F8039B28A81B695F70039BBD
:104310001A6982F823601A6982F82440240A82F814
:1043200025401A691379D9065CBF43F02003137145
:10433000FEF766FF04460028CBD114A8FEF794FFD1
:1043400004460028C5D10398FEF740FB0446C0E7A9
:104350000428BED1C7E72022239904A8FDF7F4FF63
:10436000502228A80DEB0201FDF7EEFF009928A8C6
:10437000FFF7D0FA0446002844D12A9A169B9A42A5
:10438000A6D1349A209B9A42A2D128A8FFF7FAF826
:10439000044600289DD1379C13220DF11D010127F1
:1043A00004F10D00FDF7D0FF9DF81B30039EDA06E7
:1043B00058BF43F02003E372F770E37ADB06BCD505
:1043C000169A2A9B9A42B8D021463078FFF79AFA7B
:1043D00001463046FDF732FE0146C8B13046FDF7D2
:1043E000E3FF044600287FF474AF039890F86D3023
:1043F0002E2BA2D12A9A00F16C01FDF72BFE039B14
:10440000DF709AE704287FF464AFBEE7062460E714
:1044100002245EE711245FE77F2810B501D880B23F
:1044200010BDB0F5803F13D240F2523399420FD104
:104430000849002231F8024B93B2844203D103F1C0
:104440008000C0B2ECE70132802AF3D11346F6E7D0
:104450000020E5E7F48F00087F280DD940F25233A1
:10446000994208D1FF2806D800F10040034B80385C
:1044700033F8100070470020704700BFF48F000829
:10448000B0F5803FF0B522D21F4A83B21F49B0F584
:10449000805F28BF0A46141D34F8042C2146AAB1B7
:1044A000934213D334F8025C2E0AEFB252FA85F528
:1044B000A84222DA082E09D8DFE806F0050A101211
:1044C0001416181A1C00801A34F810301846F0BD63
:1044D000981A00F001001B1A9BB2F7E7103BFBE7AC
:1044E000203BF9E7303BF7E71A3BF5E70833F3E702
:1044F000503BF1E7A3F5E353EEE70434002ECBD1B4
:1045000001EB4702C7E700BF448D0008388F000861
:1045100001F001038A0748BF43F002034A0748BF7E
:1045200043F008030A0748BF43F00403CA0648BF24
:1045300043F010038A06426B48BF43F02003134345
:1045400043637047094BC26A994228BF1946D0F8A5
:104550004C328B4210B5507906D95A1E4C0002EBF2
:104560004103B3FBF4F3184410BD00BF20BCBE00F0
:1045700010B5202383F311880024064B06482146FA
:10458000DC6301F07DFF84F31188BDE8104002F088
:1045900039BF00BF00700052DC36002010B5094C56
:1045A000204600F0ADFF084B00220849636431202B
:1045B000C4E90F23064BC4E992130921BDE810405A
:1045C00000F022BCA0360020005A620200700052A7
:1045D00000B4C404C36A0BB90F4BC3620379012B47
:1045E00011D10E4B98420ED10D4BD3F8D42042F48A
:1045F0008032C3F8D420D3F8FC2042F48032C3F8D0
:10460000FC20D3F8FC30D0F8483200221A605A60FF
:10461000DA625A62704700BFF4900008A0360020AA
:10462000004402580379012B18D0D0F848320022F8
:104630001A605A60DA625A62094B98420ED1094BED
:10464000D3F8D42022F48032C3F8D420D3F8FC204D
:1046500022F48032C3F8FC20D3F8FC30704700BF4E
:10466000A03600200044025810B5D0F8484207494F
:10467000FFF768FF6060236842F2107043F00303A5
:104680002360BDE8104001F0E1BE00BF801A0600C3
:1046900038B5D0F8485201296C6808BF054924F0A4
:1046A000FF0418BF0449FFF74DFF044344F480544E
:1046B0006C6038BD80F0FA0240787D01D0F8483255
:1046C00000225A601A607047D0F8482201295368C6
:1046D00023F4404304D0022905D001B95360704748
:1046E00043F48043FAE743F40043F7E7D0F8483255
:1046F00041F480519A60D9605A6B1206FCD5802231
:104700009A63704710B541F48851D0F84842A260CE
:10471000E160616B11F04502FBD0A26311F004026D
:1047200003D0FFF7F5FE012010BD61691046196046
:10473000FAE7000010B541F48851D0F84842A26071
:10474000E160616B11F04502FBD0A26311F005023C
:1047500003D0FFF7DDFE012010BD6169104619602E
:10476000FAE700002DE9F041044628200F461646DE
:1047700001F06CFED4F84802C56A00F1580115F04A
:1047800002053FD0826AD4F8500202F077FD10B9DA
:104790000120BDE8F081202383F311884FF0FF3121
:1047A000D4F848024FF49D738163C363012303650A
:1047B000C36A43F00103C36204F13C0001F052FEFE
:1047C000D4F848220023136583F31188D4F84832C3
:1047D000D4F85002996D9A6A02F078FDD4F8483204
:1047E0005A6BD205D4D54FF0FF32012F9A634FF0A8
:1047F0000002DA6231D9334620460C21BDE8F0418F
:10480000FFF798BF4FF0FF384FF49D73C0F8388022
:10481000C363826AD4F8500202F066FD0028B7D064
:10482000202383F311880122D4F84832414604F151
:104830003C001A65DA6A42F00102DA6201F012FE07
:10484000D4F848321D6585F31188D4F84832D4F87D
:104850005002996D02F074FDC0E7104699E7000020
:1048600073B5D0F84842002501924FF0FF320E4652
:10487000616B2565A263E562FFF74AFE012E07D949
:10488000019B2A460C2102B0BDE87040FFF752BFE1
:1048900002B070BD10B541F49851D0F84842A26002
:1048A000E160616B11F04502FBD0A26311F03F02A1
:1048B00003D0FFF72DFE012010BD216A10461960BC
:1048C000E1695960A16999606169D960F4E7000004
:1048D0007FB516460193026C0D46D0F84832044667
:1048E0005A6200F0D3FD019938B1204603AA012194
:1048F000FFF7B6FF012004B070BDD4F84802089A53
:10490000C36A43F40053C3624FF0FF33836306234B
:1049100086628565C36203AB2046FFF70BFF002864
:10492000E3D1064B039A1340002BDED103AA0121E9
:104930002046FFF717FF0028DDD0D6E708E0FFFD8F
:10494000F7B517461D46026C0446D0F848320E46AD
:104950005A6200F09BFD00BBD4F84832DA6A42F498
:104960000052DA624FF0FF329A636A029A62922230
:104970009F65DA62236BDB0601AB58BF7602012D1F
:1049800032460CD912212046FFF7D4FE48B120460A
:1049900001AA2946FFF764FF012003B0F0BD1121F1
:1049A000F1E7064B019A1340002BF0D101AA2946EA
:1049B0002046FFF7D7FE0028EFD0E8E708E0FFFD2C
:1049C000F7B517461D46426C0446D0F848320E46ED
:1049D0005A6200F05BFDE8B9D4F84832DA6A42F472
:1049E0000052DA624FF0FF329A636A029A62236BD6
:1049F000DB0601AB58BF7602012D32460CD91921D6
:104A00002046FFF797FE48B1204601AA2946FFF746
:104A100027FF012003B0F0BD1821F1E7084B019AF0
:104A20001340002BF0D1D4F848329022294620467A
:104A30009F65DA6201AAFFF795FE0028EAD0E3E756
:104A400008E0FFFD12F0030F2DE9F04107460C4688
:104A500015461E461CD0C1EBC1520E44DFF838800B
:104A600005EB4225B44202D10020BDE8F0810123CC
:104A7000094A21463846FFF763FF0028F5D105EBC8
:104A800044204FF4007241460134FDF709F9E9E78B
:104A9000BDE8F041FFF754BFF438002012F0030FD7
:104AA0002DE9F04107460C4615461E461CD0C1EBC9
:104AB000C1520E44DFF8388005EB4225B44202D1E2
:104AC0000020BDE8F0814FF4007205EB4421404620
:104AD000FDF7E6F80123424621463846FFF770FF0E
:104AE0000028EED10134E9E7BDE8F041FFF768BFE7
:104AF000F4380020002070470268436811430160C9
:104B000003B1184770470000024A136843F0C0031E
:104B10001360704700440040024A136843F0C0032A
:104B20001360704700480040024A136843F0C00316
:104B3000136070470078004037B5274C274D20465A
:104B400000F03AFD04F11400009400234FF40072C9
:104B5000234900F0C9F94FF40072224904F13800EA
:104B60000094214B00F042FA204BC4E91735204C49
:104B7000204600F021FD04F11400009400234FF4BE
:104B800000721C4900F0B0F94FF400721A4904F1A8
:104B900038000094194B00F029FA194BC4E9173575
:104BA000184C204600F008FD04F1140000234FF4D7
:104BB00000721549009400F097F9144B4FF40072FD
:104BC000134904F13800009400F010FA114BC4E9C5
:104BD000173503B030BD00BFF43A002000E1F50501
:104BE000383C002038420020094B000800440040B7
:104BF000603B0020383E002038440020194B00085C
:104C000000480040CC3B002038400020294B0008E1
:104C10003846002000780040037C30B5334C002932
:104C200018BF0C46012B18D1314B98420FD1314B94
:104C3000D3F8E82042F40032C3F8E820D3F810217A
:104C400042F40032C3F81021D3F8103105E02A4BAA
:104C500098422FD0294B984238D02268036EC16DFC
:104C600003EB52038466B3FBF2F36268150442BFA0
:104C700023F0070503F0070343EA4503CB60A3686D
:104C800043F040034B60E36843F001038B6042F460
:104C9000967343F001030B604FF0FF330B62510535
:104CA00005D512F010221DD0B2F1805F1CD080F823
:104CB000643030BD0F4BD3F8E82042F48022C3F8B3
:104CC000E820D3F8102142F48022BBE7094BD3F847
:104CD000E82042F08042C3F8E820D3F8102142F0E7
:104CE0008042AFE77F23E2E73F23E0E7FC90000844
:104CF000F43A002000440258603B0020CC3B0020E6
:104D00002DE9F047C66D05463768F469210734621E
:104D100019D014F0080118BF8021E20748BF41F004
:104D20002001A3074FF0200348BF41F04001600776
:104D300048BF41F4807183F31188281DFFF7DCFE22
:104D4000002383F31188E2050AD5202383F3118819
:104D50004FF40071281DFFF7CFFE002383F3118865
:104D60004FF020094FF0000A14F0200838D13B061C
:104D700016D54FF0200905F1380A200610D589F321
:104D80001188504600F066F9002836DA0821281DFF
:104D9000FFF7B2FE27F080033360002383F311880E
:104DA000790614D5620612D5202383F31188D5E93C
:104DB00013239A4208D12B6C33B127F040071021FE
:104DC000281DFFF799FE3760002383F31188E3065F
:104DD00018D5AA6E1369ABB15069BDE8F047184702
:104DE00089F31188736A284695F86410194000F019
:104DF000FDFB8AF31188F469B6E7B06288F3118885
:104E0000F469BAE7BDE8F087090100F160430122C7
:104E100003F56143C9B283F8001300F01F039A4001
:104E200043099B0003F1604303F56143C3F880210C
:104E30001A607047F8B51546826804460B46AA42C8
:104E400000D28568A1692669761AB5420BD2184648
:104E50002A46FCF725FFA3692B44A3612846A368D3
:104E60005B1BA360F8BD0CD9AF1B18463246FCF79C
:104E700017FF3A46E1683044FCF712FFE3683B4411
:104E8000EBE718462A46FCF70BFFE368E5E700006E
:104E900083689342F7B50446154600D28568D4E985
:104EA0000460361AB5420BD22A46FCF7F9FE636954
:104EB0002B4463612846A3685B1BA36003B0F0BD6D
:104EC0000DD93246AF1B0191FCF7EAFE01993A4633
:104ED000E0683144FCF7E4FEE3683B44E9E72A4636
:104EE000FCF7DEFEE368E4E710B50A440024C36182
:104EF000029B8460C16002610362C0E90000C0E9F6
:104F0000051110BD08B5D0E90532934201D1826880
:104F100082B98268013282605A1C42611970002194
:104F2000D0E904329A4224BFC368436101F0C2FA57
:104F3000002008BD4FF0FF30FBE7000070B52023D4
:104F400004460E4683F31188A568A5B1A368A2693B
:104F5000013BA360531CA36115782269934224BFCF
:104F6000E368A361E3690BB120469847002383F30C
:104F70001188284607E03146204601F08BFA0028C8
:104F8000E2DA85F3118870BD2DE9F74F04460E462D
:104F900017469846D0F81C904FF0200A8AF31188E3
:104FA0004FF0000B154665B12A4631462046FFF703
:104FB00041FF034660B94146204601F06BFA0028E4
:104FC000F1D0002383F31188781B03B0BDE8F08F84
:104FD000B9F1000F03D001902046C847019B8BF325
:104FE0001188ED1A1E448AF31188DCE7C160C361A1
:104FF000009B82600362C0E905111144C0E9000012
:1050000001617047F8B504460D461646202383F328
:105010001188A768A7B1A368013BA36063695A1C04
:1050200062611D70D4E904329A4224BFE36863616F
:10503000E3690BB120469847002080F3118807E010
:105040003146204601F026FA0028E2DA87F311887B
:10505000F8BD0000D0E9052310B59A4201D182685D
:105060007AB982680021013282605A1C82611C7800
:1050700003699A4224BFC368836101F01BFA20468A
:1050800010BD4FF0FF30FBE72DE9F74F04460E4609
:1050900017469846D0F81C904FF0200A8AF31188E2
:1050A0004FF0000B154665B12A4631462046FFF702
:1050B000EFFE034660B94146204601F0EBF90028B7
:1050C000F1D0002383F31188781B03B0BDE8F08F83
:1050D000B9F1000F03D001902046C847019B8BF324
:1050E0001188ED1A1E448AF31188DCE70379052B39
:1050F00005BF836A002001204B6004BF4FF400739A
:105100000B60704770B55D1E866A04460D44B5425B
:1051100005D9436B43F080034363012070BD06252E
:105120000571FFF78FFC05232371F7E770B55D1E4E
:10513000866A04460D44B54205D9436B43F08003AB
:105140004363012070BD07250571FFF7A7FC052308
:105150002371F7E738B505790446052D05D10823F5
:105160000371FFF7C7FC257138BD0120FCE7000083
:105170002DE9F041032384B0044602AF0371FFF729
:1051800073FA002220461146FFF7B0FA4FF4D572A9
:105190003B1D08212046FFF7CDFA0246B8B901238E
:1051A00023637B68C3F30323012B09D13B1D372104
:1051B0002046FFF7BFFA18B9AB4B7A681340ABB182
:1051C00020460125FFF77AFA0223237140E13B1DB7
:1051D000002237212046FFF7ADFA28B9A24A7B68A2
:1051E0001A40002A00F0A98002232363236B03F0F6
:1051F0000F03022B40F0AB8064259C4E42F21070EE
:1052000001F024F93B1D324601212046FFF77AFACE
:105210000028D5D17B68002B80F295805A0003D5F9
:10522000236B43F010032363002204F108030221DF
:105230002046FFF72FFB02460028C1D104F13803B6
:1052400003212046FFF776FA0028B9D104F11805AA
:10525000A26B092120462B46FFF71CFB0028AFD18B
:105260003B46A26B07212046FFF764FA064600285A
:10527000A6D1236B03F00F03022B40F093807E2214
:105280007F21284603F0E8FA012840F28B8004F1E0
:1052900048084FF47A7001F0D9F808234FF40072EF
:1052A000414620460096FFF713FB002888D1404670
:1052B00003F020FB236BA06203F00F03022B77D1D6
:1052C0003B1D6B4A06212046FFF734FA00286DD1BA
:1052D00065497B681940B1FA81F149092046FFF719
:1052E000D7F93B464FF4007210212046FFF722FA0F
:1052F000054600287FF464AF5B4E3B6833427FF481
:105300005FAF236B13F00E0F03F00F027BD0022A66
:105310007FF456AFE36A1979012900F09E800229D3
:1053200000F09E80002900F09180DFF85481204633
:10533000FFF7CAF93B1D42467DE011462046226335
:10534000FFF7D4F952E7013D7FF458AF38E7494DF4
:105350006426494ADFF81081012B18BF15463B1D12
:10536000002237212046FFF7E5F900287FF428AF17
:105370007B6813EA080F7FF423AF3B1D2A462921DF
:105380002046FFF7BFF900287FF41AAF7B68002B97
:10539000FFF644AF013E3FF413AF42F2107001F04C
:1053A00055F8DCE7284603F079FA83E7002195E712
:1053B000E84690B07E227F21284602AE03F04CFAE8
:1053C00010B90021C54689E7002340223146204616
:1053D00000930623FFF77CFA0028F2D1B3895BBA69
:1053E0009B07EED5254B40223146204600930623ED
:1053F000FFF76EFA0028E4D1317C01F00F010F397C
:1054000018BF0121DEE7E36A1979F9B101297FF4B8
:10541000D7AE2046FFF758F93B1DA26B3721204637
:10542000FFF788F900287FF4CBAE7B6833427FF426
:10543000C7AE3B1D022206212046FFF77BF900285C
:105440007FF4BEAE7B6833427FF4BAAE052323718E
:1054500028460837BD46BDE8F081DFF8288066E7BA
:10546000DFF8248063E700BF08E0FFFD0080FFC095
:105470000001B9030080FF5000001080F1FFFF80A1
:105480000000B7030001B7030002B70337B50446B5
:105490000C4D01ABA26B0D212046FFF74BF978B9FB
:1054A000019B2B420BD1C3F34323042B08D0053BB4
:1054B000022B04D84FF47A7000F0C8FFE9E701200E
:1054C00003B030BD08E0FFFD70B52023054683F32F
:1054D000118803790024022B03D184F3118820461C
:1054E00070BD0423037184F311880226FFF7CEFFF9
:1054F00004462846FFF7E2F82E71F0E7FFF74EB8B2
:10550000044B03600123037100234363C0E90A33A2
:10551000704700BF1491000810B52023044683F3A0
:105520001188C162FFF756F802232371002383F329
:10553000118810BD10B52023044683F31188FFF7AE
:1055400071F800230122E362227183F3118810BDF8
:10555000026843681143016003B1184770470000B7
:105560001430FFF711BD00004FF0FF331430FFF788
:105570000BBD00003830FFF787BD00004FF0FF3350
:105580003830FFF781BD00001430FFF7D7BC0000B2
:105590004FF0FF311430FFF7D1BC00003830FFF777
:1055A00031BD00004FF0FF323830FFF72BBD000057
:1055B00000207047FFF7C0BA044B0360002343602C
:1055C000C0E9023301230374704700BF389100081B
:1055D00010B52023044683F31188FFF71DFB022337
:1055E0002374002383F3118810BD000038B5C3690C
:1055F00004460D461BB904210844FFF7A9FF2946BC
:1056000004F11400FFF77EFC002806DA201D4FF499
:105610008061BDE83840FFF79BBF38BD0268436832
:105620001143016003B118477047000013B5406B88
:1056300000F58054D4F8A4381A681178042914D1DC
:10564000017C022911D11979012312898B4013425F
:105650000BD101A94C3003F02DF8D4F8A448024630
:10566000019B2179206800F0DFF902B010BD000035
:10567000143002F0AFBF00004FF0FF33143002F0DF
:10568000A9BF00004C3003F081B800004FF0FF3399
:105690004C3003F07BB80000143002F07DBF0000F6
:1056A0004FF0FF31143002F077BF00004C3003F0B0
:1056B0004DB800004FF0FF324C3003F047B8000007
:1056C0000020704710B500F58054D4F8A4381A684B
:1056D0001178042917D1017C022914D159790123A9
:1056E00052898B4013420ED1143002F00FFF024654
:1056F00048B1D4F8A4484FF4407361792068BDE8FC
:10570000104000F07FB910BD406BFFF7DBBF000019
:10571000704700007FB5124B012504260446036044
:105720000023057400F1840243602946C0E9023376
:105730000C4B0290143001934FF44073009602F02A
:10574000C1FE094B04F69442294604F14C00029430
:10575000CDE900634FF4407302F088FF04B070BDE0
:1057600060910008095700082D5600080A68202398
:1057700083F311880B790B3342F823004B791333F1
:1057800042F823008B7913B10B3342F8230000F564
:105790008053C3F8A41802230374002383F31188F1
:1057A0007047000038B5037F044613B190F85430B9
:1057B000ABB90125201D0221FFF730FF04F11400D1
:1057C0006FF00101257700F081FE04F14C0084F8B0
:1057D00054506FF00101BDE8384000F077BE38BD8D
:1057E00010B5012104460430FFF718FF002323778A
:1057F00084F8543010BD000038B50446002514303C
:1058000002F078FE04F14C00257702F047FF201DDE
:1058100084F854500121FFF701FF2046BDE83840CD
:10582000FFF750BF90F8803003F06003202B06D1C3
:1058300090F881200023212A03D81F2A06D80020AF
:105840007047222AFBD1C0E91D3303E0034A4267B7
:1058500007228267C3670120704700BF44220020EF
:1058600037B500F58055D5F8A4381A6811780429A1
:105870001AD1017C022917D11979012312898B4091
:10588000134211D100F14C04204602F0C7FF58B179
:1058900001A9204602F00EFFD5F8A4480246019B5C
:1058A0002179206800F0C0F803B030BD01F10B038E
:1058B000F0B550F8236085B004460D46FEB12023B4
:1058C00083F3118804EB8507301D0821FFF7A6FE3E
:1058D000FB6806F14C005B691B681BB1019002F08C
:1058E000F7FE019803A902F0E5FE024648B1039BCA
:1058F0002946204600F098F8002383F3118805B06C
:10590000F0BDFB685A691268002AF5D01B8A013B7A
:105910001340F1D104F18002EAE70000133138B5F9
:1059200050F82140ECB1202383F3118804F5805313
:10593000D3F8A4281368527903EB8203DB689B69D0
:105940005D6845B104216018FFF768FE294604F13F
:10595000140002F0E5FD2046FFF7B4FE002383F3B8
:10596000118838BD7047000001F046BE0123402277
:10597000002110B5044600F8303BFCF7B7F90023CE
:10598000C4E9013310BD000010B52023044683F3A1
:1059900011882422416000210C30FCF7A7F9204631
:1059A00001F04CFE02232370002383F3118810BD05
:1059B00070B500EB8103054650690E461446DA6067
:1059C00018B110220021FCF791F9A06918B110223A
:1059D0000021FCF78BF931462846BDE8704001F004
:1059E0003FBF000083682022002103F0011310B59F
:1059F000044683601030FCF779F92046BDE810407A
:105A000001F0BABFF0B4012500EB810447898D4055
:105A1000E4683D43A469458123600023A26063607C
:105A2000F0BC01F0D7BF0000F0B4012500EB810409
:105A300007898D40E4683D43646905812360002344
:105A4000A2606360F0BC02F04DB8000070B50223A4
:105A500000250446242203702946C0F888500C30E3
:105A600040F8045CFCF742F9204684F8705001F0DD
:105A70008BFE63681B6823B129462046BDE8704051
:105A8000184770BD037880F88C3005230370436895
:105A90001B6810B504460BB1042198470023A3608E
:105AA00010BD000090F88C20436802701B680BB199
:105AB000052118477047000070B590F87030044613
:105AC00013B1002380F8703004F18002204601F009
:105AD00077FF63689B68B3B994F8803013F0600572
:105AE00035D00021204602F021FA0021204602F0A4
:105AF00011FA63681B6813B10621204698470623F4
:105B000084F8703070BD204698470028E4D0B4F87F
:105B10008630A26F9A4288BFA36794F98030A56F40
:105B2000002B4FF0200380F20381002D00F0F28063
:105B3000092284F8702083F3118800212046D4E9DB
:105B40001D23FFF771FF002383F31188DAE794F830
:105B5000812003F07F0343EA022340F202329342A2
:105B600000F0C58021D8B3F5807F48D00DD8012B37
:105B70003FD0022B00F09380002BB2D104F18802B9
:105B800062670222A267E367C1E7B3F5817F00F095
:105B90009B80B3F5407FA4D194F88230012BA0D133
:105BA000B4F8883043F0020332E0B3F5006F4DD013
:105BB00017D8B3F5A06F31D0A3F5C063012B90D8EF
:105BC0006368204694F882205E6894F88310B4F8E5
:105BD0008430B047002884D0436863670368A367B4
:105BE0001AE0B3F5106F36D040F6024293427FF4CC
:105BF00078AF5C4B63670223A3670023C3E794F885
:105C00008230012B7FF46DAFB4F8883023F00203AB
:105C1000A4F88830C4E91D55E56778E7B4F880300A
:105C2000B3F5A06F0ED194F88230204684F88A3004
:105C300001F008FE63681B6813B1012120469847F4
:105C4000032323700023C4E91D339CE704F18B0375
:105C500063670123C3E72378042B10D1202383F348
:105C600011882046FFF7BEFE85F311880321636883
:105C700084F88B5021701B680BB12046984794F82C
:105C80008230002BDED084F88B30042323706368CD
:105C90001B68002BD6D0022120469847D2E794F803
:105CA000843020461D0603F00F010AD501F07AFE6C
:105CB000012804D002287FF414AF2B4B9AE72B4B1A
:105CC00098E701F061FEF3E794F88230002B7FF44F
:105CD00008AF94F8843013F00F01B3D01A062046B1
:105CE00002D502F03BF9ADE702F02CF9AAE794F8EF
:105CF0008230002B7FF4F5AE94F8843013F00F015E
:105D0000A0D01B06204602D502F010F99AE702F057
:105D100001F997E7142284F8702083F311882B4649
:105D20002A4629462046FFF76DFE85F31188E9E6ED
:105D30005DB1152284F8702083F31188002120467C
:105D4000D4E91D23FFF75EFEFDE60B2284F87020E8
:105D500083F311882B462A4629462046FFF764FE26
:105D6000E3E700BF90910008889100088C9100083B
:105D700038B590F870300446002B3ED0063BDAB2BE
:105D80000F2A34D80F2B32D8DFE803F0373131082F
:105D9000223231313131313131313737856FB0F81D
:105DA00086309D4214D2C3681B8AB5FBF3F203FB15
:105DB00012556DB9202383F311882B462A462946B4
:105DC000FFF732FE85F311880A2384F870300EE065
:105DD000142384F87030202383F311880023204695
:105DE0001A461946FFF70EFE002383F3118838BDCB
:105DF000C36F03B198470023E7E70021204602F074
:105E000095F80021204602F085F863681B6813B1FD
:105E10000621204698470623D7E7000010B590F8E2
:105E200070300446142B29D017D8062B05D001D882
:105E30001BB110BD093B022BFBD80021204602F00C
:105E400075F80021204602F065F863681B6813B1FD
:105E5000062120469847062319E0152BE9D10B238C
:105E600080F87030202383F3118800231A461946E6
:105E7000FFF7DAFD002383F31188DAE7C3689B6933
:105E80005B68002BD5D1C36F03B19847002384F81A
:105E90007030CEE70448054B03600023C0E90133AE
:105EA0000C3000F0DFB800BF384800208D890008B2
:105EB000CB1D083A23F00703591A521A10B4D2081E
:105EC0000024C0E9004384600C301C605A605DF817
:105ED000044B00F0C7B800002DE9F74F364FCD1D39
:105EE0008846002818BF0746082A4FEAD50538BF5C
:105EF000082207F10C003C1D9146019000F0F2F8D9
:105F0000019809F10701C9F1000E2246246864B91D
:105F100000F0F2F83B68CBB308224946E800984706
:105F2000044698B340E9027830E004EB010CD4F861
:105F300004A00CEA0E0C0AF10106ACF1080304EB14
:105F4000C6069E42E1D9A6EB0C0CB5EBEC0F4FEA6E
:105F5000EC0BDAD89C421DD204F10802AB45A3EB4E
:105F600002024FEAE202626009D9691CED4303EBC9
:105F7000C1025D445560256843F8315022601C46DB
:105F8000C3F8048044F8087B00F0B6F8204603B05C
:105F9000BDE8F08FAA45216802D111602346EEE7E3
:105FA000013504EBC50344F8351003F10801761AF6
:105FB000F6105E601360F1E73848002073B50446C0
:105FC000A0F1080550F8080C54F8043C061D0C30EC
:105FD00007330190DB0844F8043C00F083F83346B3
:105FE0000198B3421A6801D09D4228D90AB195425E
:105FF00025D244F8082C54F8042C1D60013254F8C2
:10600000081C05EBC206B14206D14E68324444F882
:10601000042C0A6844F8082C5E68711C03EBC1016B
:106020008D4207D154F8042C013232445A6054F89E
:10603000082C1A6002B0BDE8704000F05DB813464D
:10604000CFE700000B4610B51B68994203D09C684F
:1060500082689442F8D25A680360426010605860C7
:1060600010BD00000023C0E9000083600361704799
:1060700038B504461A4B80689D6948B3A84212D1CE
:1060800023690133236138BD836090F820307BB1F0
:10609000062B13D1416AD0E9003213605A60FFF732
:1060A000D1FF436A9868AB6882689A42ECD305E0F6
:1060B000D0E9003213605A6000F05AF828462146B1
:1060C000FFF7C0FF6C620620BDE8384000F092B8D0
:1060D0002369A56001332361EB6AE360EC62D2E7D8
:1060E0005848002008B5202383F31188FFF7C0FF2C
:1060F000002383F3118808BD174B10B5996920233D
:1061000083F311880269013A0261B2B90468C36875
:106110008442CB621ED00A6B9BB901238A60036163
:1061200003681A6802605060DA6A8360C260D862ED
:10613000184600F01DF800F0C9F8002383F3118819
:1061400010BD1C68A34203D0A468A24238BF2246F7
:10615000DB68E1E7A260F0E758480020034B00222B
:10616000C3E900339A60C3E90433704758480020FC
:106170000023826880F82030054B1B6899689142A3
:10618000FBD25A680360426010605860704700BFDD
:106190005848002008B5202383F3118890F8203058
:1061A000032B05D0042B0DD02BB983F3118808BD28
:1061B000436A00221A604FF0FF334362FFF7D8FFB3
:1061C0000023F2E7D0E9003213605A60F3E70000E1
:1061D0000023826880F82030054B1B689968914243
:1061E000FBD85A680360426010605860704700BF77
:1061F00058480020064B996981F820001868026809
:1062000053601A609861012380F82030FAF764BA6D
:10621000584800204B1C30B5044687B00A4D10D0BA
:10622000AB6901A8094A00F06DF92046FFF7E2FFCB
:10623000049B13B101A800F0A1F9AB69586A07B03B
:1062400030BDFFF7D7FFF8E75848002095610008F8
:1062500038B50C4D04464162AB6981689A68914239
:1062600003D8BDE83840FFF783BF1846FFF7B0FFFB
:1062700001230146AC61204684F82030BDE8384057
:10628000FAF72ABA58480020044B1A689B699068AC
:106290009B68984294BF0020012070475848002016
:1062A00010B5094C2368A0691A6854602260012265
:1062B000A36183F82020FFF78BFF0146A069BDE8AA
:1062C0001040FAF709BA00BF5848002008B5FFF798
:1062D000DBFF18B1BDE80840FFF7E2BF08BD0000D2
:1062E000FFF7DEBFFEE7000010B50F4CFFF736FFEB
:1062F00000F0FAF802F02CFBFFF7CCFD80220B49EE
:10630000204600F03DF8012344F8180C002480F8E2
:106310002030C46101F04EF884F3118862B604485D
:10632000BDE8104000F05CB888480020A494000844
:106330009C91000800F05CB9EFF3118020B9EFF3F5
:106340000583202282F311887047000010B530B910
:10635000EFF30584C4F3080414B180F3118810BD71
:10636000FFF7B4FF84F31188F9E70000034A51688E
:1063700053685B1A9842FBD8704700BF001000E0DA
:106380008260026300228161C262022202840122D1
:1063900080F82220044A516902614161086150611C
:1063A00000F128028262704758480020D0E901239A
:1063B000016843F81C2CA3F19C0243F82C2C0269C1
:1063C00043F85C2C426943F8582C044A43F83C2CAF
:1063D000C268A3F13800FFF7D3BF00BFF106000881
:1063E00010B5202383F31188FFF7E0FF0021044656
:1063F000FFF72EFF002383F31188204610BD000015
:1064000038B50E4B9C6904F128056062A06AA84269
:106410000FD194F822303BB994F821309B0702BF8A
:10642000D4E9043213615A610F20BDE83840FFF708
:10643000E1BE0368A362FFF79BFEE7E75848002030
:10644000202383F31188FFF7DBBF000008B5014666
:10645000202383F311880820FFF7DCFE002383F359
:10646000118808BD054B9B6921B103605862032068
:10647000FFF7D0BE4FF0FF30704700BF58480020F4
:1064800003682BB10022026018465962FFF770BE04
:106490007047000049B1064B42689B6918605A601A
:1064A000136043600420FFF7B5BE4FF0FF30704724
:1064B000584800200368984206D01A68026050606D
:1064C00018465962FFF754BE7047000038B50446BD
:1064D0000D462068844200D138BD036823605C60AB
:1064E0004562FFF745FEF4E7054B4FF0FF3103F13E
:1064F0001C02C3E907220022C3E90912704700BF4A
:106500005848002070B51C4E05460C46C0E90323D0
:1065100002F018FA334653F81C2F9A420DD1B0629C
:106520000A2C2CBF00190A302A60C5E90124C6E9EB
:106530000755BDE8704002F0EFB9B16A431AE3189D
:1065400038BF1C469368A34202D9081902F0F4F937
:10655000F3699A6894420CD85A68AC602B606A6000
:1065600015609A685D60121B9A604FF0FF3373628A
:1065700070BDA41A1B68ECE75848002038B51B4CC6
:10658000E36998420DD08168D0E9003213605A6007
:106590000022C2609A680A449A604FF0FF33636237
:1065A00038BD03682246002142F81C3F93425A60DE
:1065B000C16003D1BDE8384002F0B8B99A6881687B
:1065C000A56A0A449A6002F0BDF9E369411B9A6822
:1065D0008A42E5D9AB181D1AA06A092D98BF01F1AE
:1065E0000A02BDE83840104402F0A6B9584800201D
:1065F0002DE9F041184C002704F11C06E56902F072
:10660000A1F9A36AAA68C11A8A4215D81344D5F819
:106610000C80A362D5E9003213605A60E369EF6031
:10662000B34201D102F082F987F311882869C0478B
:10663000202383F31188E1E7E169B14209D01344D3
:106640001B1ABDE8F0410A2B2CBFC0180A3002F01B
:1066500073B9BDE8F08100BF5848002010B558B9A3
:1066600006480479053C18BF012400F035F908B14B
:1066700044F00404204610BD0124FBE7A0360020AE
:10668000FFF7ECBF2DE9F8430F461646994604463E
:10669000B0B9DFF8348098F80450052D05D00324F4
:1066A0000BE0013D15F0FF050CD04B463A46314654
:1066B0004046FEF727FD0028F3D12046BDE8F883C9
:1066C0000424FAE70124F8E7A03600202DE9F84376
:1066D0000F46164699460446B0B9DFF8348098F85C
:1066E0000450052D05D003240BE0013D15F0FF05F6
:1066F0000CD04B463A4631464046FEF717FD00287F
:10670000F3D12046BDE8F8830424FAE70124F8E732
:10671000A036002070B9012905D0032907D000292F
:1067200018BF04207047044B9B6A136070474FF4F6
:106730008073FAE704207047A036002000F0F2BB17
:1067400000F02CBC00207047FEE7000070470000FE
:106750004FF0FF30704700004B6843608B688360E8
:10676000CB68C3600B6943614B6903628B69436209
:106770000B6803607047000008B53C4B40F2FF71A6
:106780003B48D3F888200A43C3F88820D3F88820F0
:1067900022F4FF6222F00702C3F88820D3F8882091
:1067A000D3F8E0200A43C3F8E020D3F808210A43D5
:1067B000C3F808212F4AD3F808311146FFF7CCFF60
:1067C00000F5806002F11C01FFF7C6FF00F5806054
:1067D00002F13801FFF7C0FF00F5806002F15401BB
:1067E000FFF7BAFF00F5806002F17001FFF7B4FF18
:1067F00000F5806002F18C01FFF7AEFF00F58060CC
:1068000002F1A801FFF7A8FF00F5806002F1C401C2
:10681000FFF7A2FF00F5806002F1E001FFF79CFFA7
:1068200000F5806002F1FC01FFF796FF02F58C7124
:1068300000F58060FFF790FF01F014FC0E4BD3F8D9
:10684000902242F00102C3F89022D3F8942242F041
:106850000102C3F894220522C3F898204FF0605239
:10686000C3F89C20054AC3F8A02008BD0044025884
:1068700000000258B491000800ED00E01F0008037A
:1068800008B501F00BFEFFF72FFD104BD3F8DC200D
:1068900042F04002C3F8DC20D3F8042122F0400289
:1068A000C3F80421D3F80431094B1A6842F00802F6
:1068B0001A601A6842F004021A6000F049FD00F004
:1068C00035FBBDE8084000F0B5B800BF00440258F1
:1068D00000180248012070470020704770470000F0
:1068E00002290CD0032904D00129074818BF002031
:1068F0007047032A05D8054800EBC20070470448DA
:1069000070470020704700BFB89300085422002051
:106910006C93000870B59AB005460846144601A964
:1069200000F0C2F801A8FBF7D9F9431C0022C6B257
:106930005B001046C5E9003423700323023404F8D9
:10694000013C01ABD1B202348E4201D81AB070BD05
:1069500013F8011B013204F8010C04F8021CF1E7E2
:1069600008B5202383F311880348FEF779FF00233D
:1069700083F3118808BD00BF504A002090F8803092
:1069800003F01F02012A07D190F881200B2A03D1BE
:106990000023C0E91D3315E003F06003202B08D16C
:1069A000B0F884302BB990F88120212A03D81F2A0F
:1069B00004D8FEF737BF222AEBD0FAE7034A426732
:1069C00007228267C3670120704700BF4B22002067
:1069D00007B5052917D8DFE801F0191603191920A2
:1069E000202383F31188104A01210190FEF7E0FF74
:1069F000019802210D4AFEF7DBFF0D48FEF7FCFE71
:106A0000002383F3118803B05DF804FB202383F394
:106A100011880748FEF7C6FEF2E7202383F31188AA
:106A20000348FEF7DDFEEBE70C9300083093000807
:106A3000504A002038B50C4D0C4C2A460C4904F144
:106A40000800FFF767FF05F1CA0204F110000949C9
:106A5000FFF760FF05F5CA7204F118000649BDE8AA
:106A60003840FFF757BF00BF2863002054220020A2
:106A7000E8920008F29200080193000870B50446FD
:106A800008460D46FBF72AF9C6B2204601340378C2
:106A90000BB9184670BD32462946FBF70BF90028A2
:106AA000F3D10120F6E700002DE9F04705460C463A
:106AB000FBF714F92B49C6B22846FFF7DFFF08B1F0
:106AC0000E36F6B228492846FFF7D8FF08B110362F
:106AD000F6B2632E0BD8DFF88C80DFF88C90234F52
:106AE000DFF894A02E7846B92670BDE8F0872946D5
:106AF0002046BDE8F04702F033B8252E2ED10722FC
:106B000041462846FBF7D6F870B9194B224603F1E7
:106B1000140153F8040B8B4242F8040BF9D11B7893
:106B2000073515341370DDE7082249462846FBF780
:106B3000C1F898B9A21C0F4B197802320909C95D36
:106B400002F8041C13F8011B01F00F015345C95D45
:106B500002F8031CF0D118340835C3E7013504F8F6
:106B6000016BBFE7D893000801930008F693000873
:106B7000E093000800E8F11F0CE8F11FBFF34F8F0E
:106B8000044B1A695107FCD1D3F810215207F8D1F0
:106B9000704700BF0020005208B50D4B1B78ABB901
:106BA000FFF7ECFF0B4BDA68D10704D50A4A5A60AD
:106BB00002F188325A60D3F80C21D20706D5064A72
:106BC000C3F8042102F18832C3F8042108BD00BFD4
:106BD00086650020002000522301674508B5114B4F
:106BE0001B78F3B9104B1A69510703D5DA6842F0E4
:106BF0004002DA60D3F81021520705D5D3F80C21F2
:106C000042F04002C3F80C21FFF7B8FF064BDA68E8
:106C100042F00102DA60D3F80C2142F00102C3F81D
:106C20000C2108BD86650020002000520F289ABF65
:106C300000F5806040040020704700004FF40030F1
:106C400070470000102070470F2808B50BD8FFF7D9
:106C5000EDFF00F500330268013204D104308342B5
:106C6000F9D1012008BD0020FCE700000F2870B515
:106C7000054645D8FFF760FB224CFFF77FFF06462D
:106C8000FFF78AFF4FF0FF33072D6361C4F814311B
:106C900020D82361FFF772FF2B0243F02403E36047
:106CA000E36843F08003E36023695A07FCD4284675
:106CB000FFF764FF4FF40031FFF7B8FF00F0A2FACE
:106CC0003046FFF78BFFFFF741FB2846BDE87040D9
:106CD000FFF7BABFC4F81031FFF750FFA5F1080362
:106CE0001B0243F02403C4F80C31D4F80C3143F0F8
:106CF0008003C4F80C31D4F810315B07FBD4D6E71D
:106D0000002070BD002000522DE9F84F40EA020338
:106D100005460C461746D80602D00020BDE8F88F7D
:106D200027F01F07DFF8D4B0FFF736FF2744BC4237
:106D300003D10120FFF752FFF0E720222946204629
:106D400001F0A0FE10B920352034F0E72B4605F104
:106D500020021E68711CE0D104339A42F9D1FFF77A
:106D6000EBFA05F17843234AB3F5801F224B28BF85
:106D70009A4603F1040338BF9046A2F1080228BFE7
:106D80009846A3F108033ABF9146DA469946FFF7C1
:106D9000F5FEC8F80060A5EB040CD9F8002004F15A
:106DA0001C0142F00202C9F80020221FDAF800603C
:106DB00016F00506FAD152F8043F8A424CF8023028
:106DC000F4D1BFF34F8FFFF7D9FE4FF0FF32C8F871
:106DD0000020D9F8002022F00202C9F80020FFF7B5
:106DE000B5FA20222146284601F04CFE0028AAD000
:106DF00030469FE71420005210210052102000520C
:106E000010B5084C237828B11BB9FFF7C5FE012344
:106E1000237010BD002BFCD02070BDE81040FFF7A0
:106E2000DDBE00BF866500202DE9F74F0E46054602
:106E3000002863D011F0050762D139B9082229462C
:106E40003046FFF749F80446002847D108224FF0A2
:106E50000109DFF8C08006F00403DFF8BCA006EAF1
:106E6000090BBBF1000F27D0D8F81410C80723D4A2
:106E700009F1010908F10C08B9F1060FF1D18FB938
:106E8000224E2946F0190092FFF726F8044628BB47
:106E90002037009AA02FF4D12946FFF71DF80446A9
:106EA000E0B9009A29461A48FFF716F8044600BBD5
:106EB000204603B0BDE8F08FA3B1D8F8141011F04C
:106EC000040FD5D029460AEB4910CDE90023FFF77E
:106ED00003F80446DDE900230028C9D02A46002132
:106EE000204608E0B107EDD5D8F8141011F0020FD4
:106EF000E7E72A460021FAF7F9FED9E70446D7E783
:106F00001F35202225F01F05A1E700BFC86500201E
:106F10008865002008940008A86500200021FFF77C
:106F200083BF00000121FFF77FBF000070B5144D43
:106F30000124144E40F2FF3200210120FAF7D6FE60
:106F400006EB441001342A6955F80C1FFEF7B0FF18
:106F5000062CF5D137254FF4C0542046FFF7E2FF49
:106F6000014628B122460848BDE87040FEF7A0BFA0
:106F7000C4EBC404013D4FEAD404EED170BD00BFA0
:106F800008940008A8650020886500200421FFF708
:106F90004BBF00004843FFF7C1BF000008B1FFF737
:106FA0000DB8704770B5104E82B0FFF7C5F90546B1
:106FB00001F0C8FC326803469042336037BF0B4A89
:106FC0000A495168146836BF0131D1E90041516066
:106FD0000419284641F100010191FFF7B7F9204655
:106FE000019902B070BD00BF686600207066002085
:106FF00008B5FFF7D7FF034AD2E90032C01842EBC9
:10700000010108BD78660020434BD3E900232DE938
:10701000F34113437CD0FFF7EBFF404A00230027E6
:10702000F9F73EF906460D463D4A0023F9F738F9CF
:107030000023144630462946394AF9F731F94FF40E
:1070400061613C23ADF80170B4FBF1F5B4FBF3F6DC
:1070500001FB154103FB16464624B1FBF3F1314B0E
:10706000F6B28DF8004098423CD84FF0640C4FF4D3
:10707000C87EA30704F26C7225D1B2FBFCF30CFBB3
:10708000132313BBB2FBFEF30EFB1322B2FA82F3FF
:107090005B0903F26D18621C8045D2B217D90FB19B
:1070A0008DF800400022204C4FF00C0C17460CFBD2
:1070B0000343D4B2013213F804C084450CD8A0EBCA
:1070C0000C000127F5E70023E3E70123E1E7A0EB4C
:1070D000080014460127CCE70FB18DF80140431C8E
:1070E0008DF802309DF80100431C9DF800005038D7
:1070F000400640EA43509DF8023040EA034040EA2F
:10710000560040EAC52040EA411002B0BDE8F081D7
:107110004FF40410F9E700BF7866002040420F00EA
:107120008051010090230B00509400080244074B4B
:10713000D2B210B5904200D110BD441C00B253F839
:10714000200041F8040BE0B2F4E700BF50400058C3
:107150000E4B30B51C6F240405D41C6F1C671C6FCC
:1071600044F400441C670A4C02442368D2B243F43E
:1071700080732360074B904200D130BD441C51F80E
:10718000045B00B243F82050E0B2F4E70044025838
:10719000004802585040005807B5012201A90020BC
:1071A000FFF7C4FF019803B05DF804FB13B5044674
:1071B000FFF7F2FFA04205D0012201A900200194AF
:1071C000FFF7C6FF02B010BD10B56424013C4FF4B8
:1071D0007A70FFF73BF914F0FF04F7D1084B4FF03A
:1071E000807214249A6103F5805308229A61013C4D
:1071F0004FF47A70FFF72AF914F0FF04F7D110BDAD
:10720000000002580144BFF34F8F064B884204D35D
:10721000BFF34F8FBFF36F8F7047C3F85C0220300E
:10722000F4E700BF00ED00E00144BFF34F8F064BD1
:10723000884204D3BFF34F8FBFF36F8F7047C3F8FB
:1072400070022030F4E700BF00ED00E070B50546A5
:1072500016460C4601201021FFF79CFE286046735D
:107260003CB1204636B1FFF791FE2B68186000B1A3
:107270009C6070BDFFF756FEF7E7000070B50E4644
:107280001546044600B30B6843608368934210D2EE
:1072900013B10068FFF782FE637B28462BB1FFF72E
:1072A00075FE206020B9A06070BDFFF73BFEF8E7D7
:1072B000A560206805F11F01306021F01F01FFF774
:1072C000A1FF01202073EFE70120EDE710B5044690
:1072D00040B10068884205D1606808B1FAF7E0FC67
:1072E0000023237310BD000070B50E4615460446FA
:1072F00020B38368934210D213B10068FFF74EFEAB
:10730000637B28462BB1FFF741FE206020B9A060C7
:1073100070BDFFF707FEF8E7A560316819B12A468E
:107320002068FAF7BDFC206805F11F01306021F0EC
:107330001F01FFF779FF01202073E9E70120E7E74C
:1073400020B103688B4204BF002303737047000021
:10735000034B1A681AB9034AD2F8D0241A6070474E
:10736000806600200040025808B5FFF7F1FF024B8D
:107370001868C0F3806008BD80660020CAB201466C
:107380000120FFF7E5BE0000CAB201460120FFF769
:10739000CDBE0000EFF30983054968334A6B22F044
:1073A00001024A6383F30988002383F3118870473D
:1073B00000EF00E0202080F3118862B60D4B0E4AEA
:1073C000D96821F4E0610904090C0A430B49DA6029
:1073D000D3F8FC2042F08072C3F8FC20084AC2F8BF
:1073E000B01F116841F0010111601022DA7783F8B3
:1073F0002200704700ED00E00003FA0555CEACC551
:10740000001000E0202310B583F311880E4B5B6859
:1074100013F4006314D0F1EE103AEFF309844FF047
:107420008073683CE361094BDB6B236684F3098856
:10743000FEF72AFF10B1064BA36110BD054BFBE719
:1074400083F31188F9E700BF00ED00E000EF00E0F2
:10745000030700080607000870B5BFF34F8FBFF39E
:107460006F8F1A4A0021C2F85012BFF34F8FBFF33B
:107470006F8F536943F400335361BFF34F8FBFF3F2
:107480006F8FC2F88410BFF34F8FD2F8803043F66D
:10749000E074C3F3C900C3F34E335B0103EA04068F
:1074A000014646EA81750139C2F86052F9D2203BA3
:1074B00013F1200FF2D1BFF34F8F536943F48033A0
:1074C0005361BFF34F8FBFF36F8F70BD00ED00E0CE
:1074D000FEE700000A4B0B480B4A90420BD30B4BC4
:1074E000C11EDA1C121A22F003028B4238BF00229E
:1074F0000021FAF7FBBB53F8041B40F8041BECE730
:10750000A09500086468002064680020646800207A
:107510007047000070B5D0E9244300224FF0FF35DA
:107520009E6804EB42135101D3F80009002805DAE4
:10753000D3F8000940F08040C3F80009D3F8000BED
:10754000002805DAD3F8000B40F08040C3F8000BA8
:10755000013263189642C3F80859C3F8085BE0D2B9
:107560004FF00113C4F81C3870BD000000EB81031C
:10757000D3F80CC02DE9F043DCF814204E1CD0F8F1
:107580009050D2F800E005EB063605EB4118506844
:1075900070450AD30122D5F8343802FA01F123EA02
:1075A0000101C5F83418BDE8F083AEEB0003BCF868
:1075B0001040A34228BF2346D8F81849A4B2B3EB21
:1075C000840FF0D89468A4F1040959F8047F376057
:1075D000A4EB09071F44042FF7D81C44034494600C
:1075E0005360D4E7890141F02001016103699B06E2
:1075F000FCD41220FEF7BABE10B50A4C2046FEF7A6
:10760000B5F9094BC4F89030084BC4F89430084CD5
:107610002046FEF7ABF9074BC4F89030064BC4F890
:10762000943010BD84660020000008408C9400084F
:1076300020670020000004409894000870B503788B
:107640000546012B5DD1494BD0F89040984259D165
:10765000474B0E216520D3F8D82042F00062C3F8D2
:10766000D820D3F8002142F00062C3F80021D3F8FB
:107670000021D3F8802042F00062C3F88020D3F8C4
:10768000802022F00062C3F88020D3F88030FDF71C
:10769000BBFB384BE360384BC4F800380023D5F807
:1076A0009060C4F8003EC02323604FF40413A3632A
:1076B0003369002BFCDA01230C203361FEF756FE00
:1076C0003369DB07FCD41220FEF750FE3369002B30
:1076D000FCDA00262846A660FFF71CFF6B68C4F89A
:1076E0001068DB68C4F81468C4F81C68002B3AD131
:1076F000224BA3614FF0FF336361A36843F00103A2
:10770000A36070BD1E4B9842C8D1194B0E214D206D
:10771000D3F8D82042F00072C3F8D820D3F8002163
:1077200042F00072C3F80021D3F80021D3F8802082
:1077300042F00072C3F88020D3F8802022F000725B
:10774000C3F88020D3F88020D3F8D82022F08062BC
:10775000C3F8D820D3F8002122F08062C3F80021BA
:10776000D3F8003193E7074BC3E700BF84660020DE
:10777000004402584014004003002002003C30C086
:1077800020670020083C30C0F8B5D0F8904005468E
:1077900000214FF000662046FFF724FFD5F8941033
:1077A00000234FF001128F684FF0FF30C4F83438D7
:1077B000C4F81C2804EB431201339F42C2F800694D
:1077C000C2F8006BC2F80809C2F8080BF2D20B68C5
:1077D000D5F89020C5F898306362102313611669BC
:1077E00016F01006FBD11220FEF7C0FDD4F80038C9
:1077F00023F4FE63C4F80038A36943F4402343F044
:107800001003A3610923C4F81038C4F814380B4BD3
:10781000EB604FF0C043C4F8103B094BC4F8003B89
:10782000C4F81069C4F80039D5F8983003F1100293
:1078300043F48013C5F89820A362F8BD689400084B
:1078400040800010D0F8902090F88A10D2F80038CC
:1078500023F4FE6343EA0113C2F8003870470000C6
:107860002DE9F84300EB8103D0F890500C46804698
:10787000DA680FFA81F94801166806F00306731EEC
:10788000022B05EB41134FF0000194BFB604384EB4
:10789000C3F8101B4FF0010104F1100398BF06F16B
:1078A000805601FA03F3916998BF06F50046002956
:1078B0003AD0578A04F15801374349016F50D5F83F
:1078C0001C180B430021C5F81C382B180127C3F8DE
:1078D0001019A7405369611E9BB3138A928B9B08B2
:1078E000012A88BF5343D8F89820981842EA0343E6
:1078F00001F140022146C8F89800284605EB8202B3
:107900005360FFF76FFE08EB8900C3681B8A43EAE8
:10791000845348341E4364012E51D5F81C381F434C
:10792000C5F81C78BDE8F88305EB4917D7F8001BAC
:1079300021F40041C7F8001BD5F81C1821EA030305
:10794000C0E704F13F030B4A2846214605EB8303B9
:107950005A60FFF747FE05EB4910D0F8003923F4D1
:107960000043C0F80039D5F81C3823EA0707D7E7E9
:107970000080001000040002D0F894201268C0F8C3
:107980009820FFF7C7BD00005831D0F8903049016A
:107990005B5813F4004004D013F4001F0CBF022006
:1079A000012070474831D0F8903049015B5813F4FA
:1079B000004004D013F4001F0CBF022001207047C8
:1079C00000EB8101CB68196A0B6813604B68536048
:1079D0007047000000EB810330B5DD68AA691368C9
:1079E000D36019B9402B84BF402313606B8A14689D
:1079F000D0F890201C4402EB4110013C09B2B4FBCA
:107A0000F3F46343033323F0030343EAC44343F033
:107A1000C043C0F8103B2B6803F00303012B0ED1C9
:107A2000D2F8083802EB411013F4807FD0F8003B05
:107A300014BF43F0805343F00053C0F8003B02EB07
:107A40004112D2F8003B43F00443C2F8003B30BD82
:107A50002DE9F041D0F8906005460C4606EB411345
:107A6000D3F8087B3A07C3F8087B08D5D6F8143852
:107A70001B0704D500EB8103DB685B689847FA07B6
:107A80001FD5D6F81438DB071BD505EB8403D9685E
:107A9000CCB98B69488A5A68B2FBF0F600FB162213
:107AA0008AB91868DA6890420DD2121AC3E9002424
:107AB000202383F3118821462846FFF78BFF84F3A8
:107AC0001188BDE8F081012303FA04F26B8923EAEF
:107AD00002036B81CB68002BF3D021462846BDE81A
:107AE000F041184700EB81034A0170B5DD68D0F81A
:107AF00090306C692668E66056BB1A444FF400204B
:107B0000C2F810092A6802F00302012A0AB20ED153
:107B1000D3F8080803EB421410F4807FD4F800096E
:107B200014BF40F0805040F00050C4F8000903EB4F
:107B30004212D2F8000940F00440C2F800090122C4
:107B4000D3F8340802FA01F10143C3F8341870BDC8
:107B500019B9402E84BF4020206020681A442E8A24
:107B60008419013CB4FBF6F440EAC44040F00050F4
:107B7000C6E700002DE9F041D0F8906004460D46BC
:107B800006EB4113D3F80879C3F80879FB071CD535
:107B9000D6F81038DA0718D500EB8103D3F80CC0FB
:107BA000DCF81430D3F800E0DA6896451BD2A2EB7B
:107BB0000E024FF000081A60C3F80480202383F3FC
:107BC0001188FFF78FFF88F311883B0618D5012332
:107BD000D6F83428AB40134212D029462046BDE8DF
:107BE000F041FFF7C3BC012303FA01F2038923EA42
:107BF00002030381DCF80830002BE6D09847E4E765
:107C0000BDE8F0812DE9F84FD0F8905004466E6938
:107C1000AB691E4016F480586E6103D0BDE8F84F82
:107C2000FDF714BF002E12DAD5F8003E9F0705D0ED
:107C3000D5F8003E23F00303C5F8003ED5F804381C
:107C4000204623F00103C5F80438FDF72BFF30056B
:107C500005D52046FFF75EFC2046FDF713FFB10473
:107C60000CD5D5F8083813F0060FEB6823F47053E1
:107C70000CBF43F4105343F4A053EB60320704D518
:107C80006368DB680BB120469847F30200F1BA80C5
:107C9000B70226D5D4F8909000274FF0010A09EBDF
:107CA0004712D2F8003B03F44023B3F5802F11D1E3
:107CB000D2F8003B002B0DDA62890AFA07F322EAB8
:107CC0000303638104EB8703DB68DB6813B1394688
:107CD000204698470137D4F89430FFB29B689F4202
:107CE000DDD9F00619D5D4F89000026AC2F30A175C
:107CF00002F00F0302F4F012B2F5802F00F0CC80F6
:107D0000B2F5402F09D104EB8303002200F5805027
:107D1000DB681B6A974240F0B2803003D5F81858F0
:107D200035D5E90303D500212046FFF791FEAA03CC
:107D300003D501212046FFF78BFE6B0303D50221FB
:107D40002046FFF785FE2F0303D503212046FFF7CA
:107D50007FFEE80203D504212046FFF779FEA90241
:107D600003D505212046FFF773FE6A0203D50621DD
:107D70002046FFF76DFE2B0203D507212046FFF7B3
:107D800067FEEF0103D508212046FFF761FE70036F
:107D900040F1A980E90703D500212046FFF7EAFE5C
:107DA000AA0703D501212046FFF7E4FE6B0703D5A0
:107DB00002212046FFF7DEFE2F0703D503212046D0
:107DC000FFF7D8FEEE0603D504212046FFF7D2FECA
:107DD000A80603D505212046FFF7CCFE690603D58A
:107DE00006212046FFF7C6FE2A0603D507212046B6
:107DF000FFF7C0FEEB0576D520460821BDE8F84F19
:107E0000FFF7B8BED4F8909000274FF0010AD4F8DD
:107E100094305FFA87FB9B689B453FF639AF09EBCF
:107E20004B13D3F8002902F44022B2F5802F24D15D
:107E3000D3F80029002A20DAD3F8002942F0904232
:107E4000C3F80029D3F80029002AFBDB5946D4F8EF
:107E50009000FFF7C7FB22890AFA0BF322EA03031B
:107E6000238104EB8B03DB689B6813B159462046E2
:107E7000984759462046FFF779FB0137C7E7910736
:107E800001D1D0F80080072A02F101029CBF03F85B
:107E9000018B4FEA18283DE704EB830300F580507F
:107EA000DA68D2F818C0DCF80820DCE9001CA1EB85
:107EB0000C0C00218F4208D1DB689B699A683A4418
:107EC0009A605A683A445A6027E711F0030F01D1CB
:107ED000D0F800808C4501F1010184BF02F8018BCC
:107EE0004FEA1828E6E7BDE8F88F000008B5034818
:107EF000FFF788FEBDE80840FFF784BA84660020DB
:107F000008B50348FFF77EFEBDE80840FFF77ABAE0
:107F100020670020D0F8903003EB4111D1F8003BEE
:107F200043F40013C1F8003B70470000D0F89030D4
:107F300003EB4111D1F8003943F40013C1F80039C3
:107F400070470000D0F8903003EB4111D1F8003BAE
:107F500023F40013C1F8003B70470000D0F89030C4
:107F600003EB4111D1F8003923F40013C1F80039B3
:107F7000704700003A4B4FF0FF31D3F8802062F099
:107F80000042C3F88020D3F8802002F00042C3F8FA
:107F90008020D3F88020D3F88420C3F88410D3F84D
:107FA00084200022C3F88420D3F88400D86F40F0E6
:107FB000FF4040F4FF0040F43F5040F03F00D867DE
:107FC000D86F20F0FF4020F4FF0020F43F5020F055
:107FD0003F00D867D86FD3F888006FEA40506FEA47
:107FE0005050C3F88800D3F88800C0F30A00C3F8E3
:107FF0008800D3F88800D3F89000C3F89010D3F825
:108000009000C3F89020D3F89000D3F89400C3F800
:108010009410D3F89400C3F89420D3F89400D3F8C4
:108020009800C3F89810D3F89800C3F89820D3F8B4
:108030009800D3F88C00C3F88C10D3F88C00C3F8E8
:108040008C20D3F88C00D3F89C00C3F89C10D3F894
:108050009C10C3F89C20D3F89C3000F0E7B900BF17
:1080600000440258614B0122C3F80821604BD3F849
:10807000F42042F00202C3F8F420D3F81C2142F0AD
:108080000202C3F81C210422D3F81C31594BDA60D8
:108090005A689104FCD5584A1A6001229A60574ADE
:1080A000DA6000221A614FF440429A61514B9A699A
:1080B0009204FCD51A6842F480721A604C4B1A6F15
:1080C00012F4407F04D04FF480321A6700221A67FE
:1080D0001A6842F001021A60454B1A685007FCD535
:1080E00000221A611A6912F03802FBD101211960CD
:1080F0004FF0804159605A67414ADA62414A1A6139
:108100001A6842F480321A60394B1A689103FCD520
:108110001A6842F480521A601A689204FCD53A4AEE
:108120003A499A6200225A6319633949DA639963BA
:108130005A64384A1A64384ADA621A6842F0A85215
:108140001A602B4B1A6802F02852B2F1285FF9D15D
:1081500048229A614FF48862DA6140221A622F4AFB
:10816000DA644FF080521A652D4A5A652D4A9A6595
:1081700032232D4A1360136803F00F03022BFAD148
:108180001B4B1A6942F003021A611A6902F03802A5
:10819000182AFAD1D3F8DC2042F00052C3F8DC20D0
:1081A000D3F8042142F00052C3F80421D3F804218B
:1081B000D3F8DC2042F08042C3F8DC20D3F804215D
:1081C00042F08042C3F80421D3F80421D3F8DC2024
:1081D00042F00042C3F8DC20D3F8042142F0004210
:1081E000C3F80421D3F80431704700BF0080005168
:1081F000004402580048025800C000F0040000018A
:108200000000FF010088900832206000630209012D
:108210001D02040047040508FD0BFF01200000209B
:108220000010E00000010100002000524FF0B042B9
:1082300008B5D2F8883003F00103C2F8883023B1C2
:10824000044A13680BB150689847BDE80840FFF72F
:10825000D9B800BFDC6700204FF0B04208B5D2F8B3
:10826000883003F00203C2F8883023B1044A9368CF
:108270000BB1D0689847BDE80840FFF7C3B800BF0E
:10828000DC6700204FF0B04208B5D2F8883003F028
:108290000403C2F8883023B1044A13690BB1506952
:1082A0009847BDE80840FFF7ADB800BFDC67002085
:1082B0004FF0B04208B5D2F8883003F00803C2F896
:1082C000883023B1044A93690BB1D0699847BDE85F
:1082D0000840FFF797B800BFDC6700204FF0B042BE
:1082E00008B5D2F8883003F01003C2F8883023B103
:1082F000044A136A0BB1506A9847BDE80840FFF77B
:1083000081B800BFDC6700204FF0B04310B5D3F850
:10831000884004F47872C3F88820A30604D5124A72
:10832000936A0BB1D06A9847600604D50E4A136B66
:108330000BB1506B9847210604D50B4A936B0BB1D8
:10834000D06B9847E20504D5074A136C0BB1506C0B
:108350009847A30504D5044A936C0BB1D06C984799
:10836000BDE81040FFF74EB8DC6700204FF0B04387
:1083700010B5D3F8884004F47C42C3F88820620525
:1083800004D5164A136D0BB1506D9847230504D5DB
:10839000124A936D0BB1D06D9847E00404D50F4A93
:1083A000136E0BB1506E9847A10404D50B4A936E1F
:1083B0000BB1D06E9847620404D5084A136F0BB115
:1083C000506F9847230404D5044A936F0BB1D06FC4
:1083D0009847BDE81040FFF715B800BFDC670020E4
:1083E00008B50348FCF78CFCBDE80840FFF70AB865
:1083F000F43A002008B50348FCF782FCBDE80840C9
:10840000FFF700B8603B002008B50348FCF778FC94
:10841000BDE80840FEF7F6BFCC3B002008B500F0F1
:10842000F7FABDE80840FEF7EDBF0000062108B5E9
:108430000846FCF7E9FC06210720FCF7E5FC0621CD
:108440000820FCF7E1FC06210920FCF7DDFC0621F1
:108450000A20FCF7D9FC06211720FCF7D5FC0621E1
:108460002820FCF7D1FC09217A20FCF7CDFC09215A
:108470003120FCF7C9FC07213220FCF7C5FC0C2198
:108480002620FCF7C1FC0C212720FCF7BDFC0C21A9
:108490005220BDE80840FCF7B7BC000008B5FFF764
:1084A00069FD00F07DFAFDF785F8FDF727F8FDF787
:1084B0005BFAFDF72DF9FEF711FABDE8084000F070
:1084C00029BA000030B50433039C0172002104FB7B
:1084D0000325C160C0E90653049B0363059BC0E903
:1084E0000000C0E90422C0E90842C0E90A11436360
:1084F00030BD00000022416AC260C0E90411C0E939
:108500000A226FF00101FDF7E1BF0000D0E904325B
:10851000934201D1C2680AB9181D70470020704704
:10852000036919600021C2680132C260C269134444
:1085300082699342036124BF436A0361FDF7BABFB6
:1085400038B504460D46E3683BB162690020131D4F
:108550001268A3621344E36207E0237A33B9294621
:108560002046FDF797FF0028EDDA38BD6FF00100D7
:10857000FBE70000C368C269013BC3604369134461
:1085800082699342436124BF436A4361002383624B
:10859000036B03B11847704770B52023044683F37B
:1085A0001188866A3EB9FFF7CBFF054618B186F3FE
:1085B0001188284670BDA36AE26A13F8015B9342F2
:1085C000A36202D32046FFF7D5FF002383F311886F
:1085D000EFE700002DE9F84F04460E46174698468F
:1085E0004FF0200989F311880025AA46D4F828B055
:1085F000BBF1000F09D141462046FFF7A1FF20B192
:108600008BF311882846BDE8F88FD4E90A12A7EB4E
:10861000050B521A934528BF9346BBF1400F1BD957
:10862000334601F1400251F8040B914243F8040B28
:10863000F9D1A36A403640354033A362D4E90A2316
:108640009A4202D32046FFF795FF8AF31188BD4274
:10865000D8D289F31188C9E730465A46F9F720FB8A
:10866000A36A5E445D445B44A362E7E710B5029CE5
:108670000433017204FB0321C460C0E90613002324
:10868000C0E90A33039B0363049BC0E90000C0E90F
:108690000422C0E90842436310BD0000026A6FF083
:1086A0000101C260426AC0E904220022C0E90A2234
:1086B000FDF70CBFD0E904239A4201D1C26822B968
:1086C000184650F8043B0B607047002070470000CC
:1086D000C3680021C2690133C360436913448269DE
:1086E0009342436124BF436A4361FDF7E3BE000048
:1086F00038B504460D46E3683BB1236900201A1DD6
:10870000A262E2691344E36207E0237A33B929469F
:108710002046FDF7BFFE0028EDDA38BD6FF00100FE
:10872000FBE7000003691960C268013AC260C269D0
:10873000134482699342036124BF436A03610023A7
:108740008362036B03B118477047000070B52023A4
:108750000D460446114683F31188866A2EB9FFF749
:10876000C7FF10B186F3118870BDA36A1D70A36A9C
:10877000E26A01339342A36204D3E16920460439DB
:10878000FFF7D0FF002080F31188EDE72DE9F84FC7
:1087900004460D46904699464FF0200A8AF3118808
:1087A0000026B346A76A4FB949462046FFF7A0FF07
:1087B00020B187F311883046BDE8F88FD4E90A0765
:1087C0003A1AA8EB0607974228BF1746402F1BD935
:1087D00005F1400355F8042B9D4240F8042BF9D1D4
:1087E000A36A40364033A362D4E90A239A4204D3F1
:1087F000E16920460439FFF795FF8BF31188464560
:10880000D9D28AF31188CDE729463A46F9F748FAD2
:10881000A36A3D443E443B44A362E5E7D0E9042318
:108820009A4217D1C3689BB1836A8BB1043B9B1AF0
:108830000ED01360C368013BC360C3691A448369E7
:108840009A42026124BF436A0361002383620123C9
:10885000184670470023FBE701F01F03F0B502F054
:108860001F0456095A1C0123B6EB511F50F826501D
:1088700003FA02F34FEA511703F1FF333DBF50F8FB
:108880002720C4F12000134003EA05003BBF03FA90
:1088900000F225FA04F0E0401043F0BD70B57E22EE
:1088A0007F210546FFF7D8FF18B1012819D0002015
:1088B00070BD3E2249212846FFF7CEFF2F220446F5
:1088C00031212846FFF7C8FF064601345022023600
:1088D00053212846B440FFF7BFFF093804FA00F0DF
:1088E000E6E7302245212846FFF7B6FF0130800237
:1088F000DEE7000090F8D63090F8D7201B0403EB99
:10890000026390F8D42090F8D500134403EB0020C4
:108910007047000000F052B8034B002258631A6100
:108920000222DA60704700BF000C0040014B0022B9
:10893000DA607047000C0040014B5863704700BF7D
:10894000000C0040014B586A704700BF000C00400B
:10895000024B034A1A60034A5A607047D4670020EA
:108960006868002000000220074B494210B55C688F
:10897000201A08401968821A914203D8944201D300
:108980005A6010BD0020FCE7D467002008B5202302
:1089900083F31188FFF7E8FF002383F3118808BDF4
:1089A0000023054A19460133102BC2E9001102F1D8
:1089B0000802F8D1704700BFDC670020114BD3F8E4
:1089C000E82042F00802C3F8E820D3F8102142F072
:1089D0000802C3F810210C4AD3F81031D36B43F0CE
:1089E0000803D363C722094B9A624FF0FF32DA6261
:1089F00000229A615A63DA605A6001225A611A6051
:108A0000704700BF004402580010005C000C00409A
:108A1000094A08B51169D3680B40D9B29B076FEAC0
:108A20000101116107D5202383F31188FDF782FC32
:108A3000002383F3118808BD000C0040FEF7AEBA96
:108A4000012838BF012010B504462046FEF766FA1B
:108A500030B900F007F808B900F00CF88047F4E7E7
:108A600010BD0000024B1868BFF35B8F704700BF5A
:108A70005C68002008B5062000F056F80120FDF7DC
:108A800063FE000010B501390244904201D100207C
:108A900005E0037811F8014FA34201D0181B10BD67
:108AA0000130F2E7884210B501EB020402D984429A
:108AB000234607D8431EA14208D011F8012B03F822
:108AC000012FF8E7024401468A4200D110BD13F895
:108AD000014D02F8014DF7E71F2938B504460D4650
:108AE00004D9162303604FF0FF3038BD426C12B139
:108AF00052F821304BB9204600F030F82A460146A2
:108B00002046BDE8384000F017B8012B0AD0591CA8
:108B100003D1162303600120E7E7002442F8254033
:108B2000284698470020E0E7024B01461868FFF707
:108B3000D3BF00BF7422002038B5074D0023044680
:108B4000084611462B60FDF703FE431C02D12B683B
:108B500003B1236038BD00BF60680020FDF7F2BD9F
:108B6000034611F8012B03F8012B002AF9D17047B5
:108B700010B50139034632B111F8014F03F8014B2A
:108B8000013A002CF7D11A440021934200D110BDC4
:108B900003F8011BF9E700004D4435002D2D0A00B4
:108BA0002F6172647570696C6F742E6162696E00FA
:108BB0002F6172647570696C6F742D766572696669
:108BC000792E6162696E002F6172647570696C6FD5
:108BD000742D666C6173682E6162696E002F61721C
:108BE000647570696C6F742D666C61736865642E52
:108BF0006162696E000000000000000000000000DB
:108C0000D10E00086D0F00081D110008A50F000807
:108C1000650F00080000000000000000CD0E0008F5
:108C2000790F000855110008C90E0008D50E00087C
:108C300053544D333248373F3F3F0053544D333246
:108C4000483734332F3735330000000001105A0005
:108C50000310590001205800032056002F00000087
:108C60005375636365737366756C6C79206D6F758E
:108C70006E746564205344436172642028736C6F82
:108C800077646F776E3D2575290A0000EB76904575
:108C900058464154202020004641543332202020A1
:108CA00000000000222A3A3C3E3F7C7F002B2C3BF8
:108CB0003D5B5D0043554541414141434545454983
:108CC000494941414592924F4F4F5555594F554F44
:108CD0009C4F9E9F41494F55A5A5A6A7A8A9AAAB01
:108CE000ACADAEAFB0B1B2B3B4414141B8B9BABBAB
:108CF000BCBDBEBFC0C1C2C3C4C54141C8C9CACB47
:108D0000CCCDCECFD1D145454549494949D9DADB0A
:108D1000DCDD49DF4FE14F4F4F4FE6E8E855555551
:108D20005959EEEFF0F1F2F3F4F5F6F7F8F9FAFB32
:108D3000FCFDFEFF01030507090E10121416181C96
:108D40001E00000061001A03E0001703F80007038B
:108D5000FF000100780100013001320106013901F4
:108D600010014A012E017901060180014D004302E4
:108D700081018201820184018401860187018701CA
:108D800089018A018B018B018D018E018F01900178
:108D90009101910193019401F601960197019801C7
:108DA00098013D029B019C019D0120029F01A001B1
:108DB000A001A201A201A401A401A601A701A7018B
:108DC000A901AA01AB01AC01AC01AE01AF01AF0139
:108DD000B101B201B301B301B501B501B701B801E9
:108DE000B801BA01BB01BC01BC01BE01F701C00161
:108DF000C101C201C301C401C501C401C701C80149
:108E0000C701CA01CB01CA01CD011001DD0101007A
:108E10008E01DE011201F3010300F101F401F401FE
:108E2000F8012801220212013A020900652C3B02D6
:108E30003B023D02662C3F024002410241024602D3
:108E40000A015302400081018601550289018A010D
:108E500058028F015A0290015C025D025E025F02BD
:108E60009301610262029401640265026602670274
:108E7000970196016A02622C6C026D026E029C01DF
:108E8000700271029D01730274029F0176027702E3
:108E9000780279027A027B027C02642C7E027F02D5
:108EA000A60181028202A90184028502860287024C
:108EB000AE014402B101B20145028D028E028F0261
:108EC00090029102B7017B030300FD03FE03FF0341
:108ED000AC0304008603880389038A03B1031103EA
:108EE000C2030200A303A303C4030803CC030300CB
:108EF0008C038E038F03D8031801F2030A00F903D1
:108F0000F303F403F503F603F703F703F903FA0396
:108F1000FA033004200350041007600422018A047D
:108F20003601C1040E01CF040100C004D004440185
:108F300061052604000000007D1D0100632C001E59
:108F40009601A01E5A01001F0806101F0606201FCA
:108F50000806301F0806401F0606511F0700591F4C
:108F6000521F5B1F541F5D1F561F5F1F601F0806A7
:108F7000701F0E00BA1FBB1FC81FC91FCA1FCB1FFF
:108F8000DA1FDB1FF81FF91FEA1FEB1FFA1FFB1F79
:108F9000801F0806901F0806A01F0806B01F0400C7
:108FA000B81FB91FB21FBC1FCC1F0100C31FD01FA9
:108FB0000206E01F0206E51F0100EC1FF31F01007F
:108FC000FC1F4E210100322170211002842101007A
:108FD0008321D0241A05302C2F04602C0201672C29
:108FE0000601752C0201802C6401002D260841FF2A
:108FF0001A030000C700FC00E900E200E400E00002
:10900000E500E700EA00EB00E800EF00EE00EC000E
:10901000C400C500C900E600C600F400F600F20076
:10902000FB00F900FF00D600DC00F800A300D80028
:10903000D7009201E100ED00F300FA00F100D10049
:10904000AA00BA00BF00AE00AC00BD00BC00A10089
:10905000AB00BB0091259225932502252425C10054
:10906000C200C000A9006325512557255D25A20037
:10907000A5001025142534252C251C2500253C256C
:10908000E300C3005A25542569256625602550252F
:109090006C25A400F000D000CA00CB00C80031014C
:1090A000CD00CE00CF0018250C2588258425A600EC
:1090B000CC008025D300DF00D400D200F500D5001D
:1090C000B500FE00DE00DA00DB00D900FD00DD00A7
:1090D000AF00B400AD00B1001720BE00B600A7007D
:1090E000F700B800B000A800B700B900B300B200A4
:1090F000A025A00000000000010000000096000074
:10910000000000000000000000000000000000005F
:109110000000000000000000D5680008D9680008C1
:1091200071510008C9540008055100082D5100086C
:1091300055510008ED500008000000007D55000862
:1091400069550008A5550008915500089D5500086F
:10915000895500087555000861550008B15500088B
:10916000000000008D56000879560008B55600082A
:10917000A1560008AD56000899560008855600080B
:1091800071560008C15600080000000001000000F0
:109190000000000069646C65000000009491000804
:1091A000C0480020504A002001000000E56200088D
:1091B000000000000000812A00000000AAAAAAAA5C
:1091C00000000024FFFE00000000000000A00A00D4
:1091D0000001000000000000AAAAAAAA00000000E6
:1091E000FFFF000000000000000000001400AA566D
:1091F00000000000AAAAAAAA14005554FFFF00000C
:1092000000000000CCCC0C0020681A000000000018
:10921000AAAA8AAA10541500FFFF0000000C7007CC
:10922000770000004081020100100000AAAAAAAA4B
:1092300000410100F7FF000000000070070000007F
:109240000000000000000000AAAAAAAA0000000076
:10925000FFFF000000000000000000000000000010
:1092600000000000AAAAAAAA00000000FFFF000058
:1092700000000000000000000000000000000000EE
:10928000AAAAAAAA00000000FFFF00000000000038
:10929000000000000000000000000000AAAAAAAA26
:1092A00000000000FFFF00000000000000000000C0
:1092B0000000000000000000AAAAAAAA0000000006
:1092C000FFFF0000000000000000000000000000A0
:1092D00000000000AAAAAAAA00000000FFFF0000E8
:1092E00000000000000000004375626550696C6F6B
:1092F0007400437562654F72616E67652B2D424C39
:10930000002553455249414C250000000200000051
:1093100000000000AD5800081D5900084000400042
:10932000F862002008630020020000000000000036
:109330000300000000000000655900080000000064
:109340001000000018630020000000000100000071
:10935000000000008466002001010200D1690008BD
:10936000E16800087D6900086169000843000000A9
:109370007493000809024300020100C0320904008E
:109380000001020201000524001001052401000172
:10939000042402020524060001070582030800FFD9
:1093A00009040100020A0000000705010240000054
:1093B000070581024000000012000000C093000871
:1093C0001201100102000040AE2D581000020102EF
:1093D000030100000403090425424F4152442500C3
:1093E000437562654F72616E6765506C75732D626F
:1093F0006473686F7400303132333435363738393E
:1094000041424344454600000000002000000200A5
:109410000200000000000030000004000000000016
:109420000000002400000800040000000004000008
:1094300000FC00000200000000000430008000007A
:1094400000000000000000380000010001000000E2
:109450001F1C1F1E1F1E1F1F1E1F1E1F1F1D1F1E26
:109460001F1E1F1F1E1F1E1F00000000B95A0008EC
:10947000715D00081D5E000840004000BC670020D0
:10948000BC67002001000000CC67002080000000C5
:10949000400100000800000000010000000400007E
:1094A000080000006D61696E001643300404340842
:1094B0000C1014181C20212200000000146EFF7FE5
:1094C0000100000000000000270400000000000070
:1094D00000001E0000000000FF000000504A0020B5
:1094E000F43A0020603B0020CC3B0020000000004C
:1094F000308C00083F000000500400003B8C000846
:109500003F00000000000000010000000096000085
:1095100000000800960000000008000004000000A1
:10952000D4930008000000000000000000000000CC
:109530000000000000000000000000007822002071
:10954000000000000000000000000000000000001B
:10955000000000000000000000000000000000000B
:1095600000000000000000000000000000000000FB
:1095700000000000000000000000000000000000EB
:1095800000000000000000000000000000000000DB
:1095900000000000000000000000000000000000CB
:00000001FF
