:020000040800F2
:1000000000060020B5050008551A0008D11900089F
:10001000291A0008D1190008FD190008B7050008C1
:10002000B7050008B7050008B7050008CD4B000864
:10003000B7050008B7050008B7050008B7050008B0
:10004000B7050008B7050008B7050008B7050008A0
:10005000B7050008B7050008316200085D620008B6
:1000600089620008B5620008E1620008B70500086F
:10007000B7050008B7050008B7050008B705000870
:10008000B7050008B7050008B7050008B705000860
:10009000B7050008B7050008B70500080D6300089C
:1000A000B7050008B7050008B7050008B705000840
:1000B000B7050008B7050008B7050008B705000830
:1000C000B7050008B7050008B7050008B705000820
:1000D000B7050008F9630008B7050008B705000870
:1000E00071630008B7050008B7050008B7050008E8
:1000F000B7050008B7050008B7050008B7050008F0
:10010000B7050008B705000821640008B705000816
:10011000B7050008B7050008B7050008B7050008CF
:10012000B7050008B7050008B7050008B7050008BF
:10013000B7050008B7050008B7050008B7050008AF
:10014000B7050008B7050008B7050008B70500089F
:10015000B7050008B7050008B7050008B70500088F
:10016000B7050008B7050008B7050008B70500087F
:10017000B7050008ED580008B7050008B7050008E6
:10018000B7050008B70500080D640008B7050008AA
:10019000B7050008B7050008B7050008B70500084F
:1001A000B7050008B7050008B7050008B70500083F
:1001B000E5630008B7050008B7050008B7050008A3
:1001C000B7050008B7050008B7050008B70500081F
:1001D000B7050008D9580008B7050008B70500089A
:1001E000B7050008B7050008B7050008B7050008FF
:1001F000B7050008B7050008B7050008B7050008EF
:10020000B7050008B7050008B7050008B7050008DE
:10021000B7050008B7050008B7050008B7050008CE
:10022000B7050008B70500085D4D0008B7050008D0
:10023000B7050008B7050008B7050008B7050008AE
:10024000B7050008B7050008B7050008B70500089E
:10025000B7050008B7050008B7050008B70500088E
:10026000B7050008B7050008B7050008B70500087E
:10027000B7050008B7050008B7050008B70500086E
:10028000B7050008B7050008B7050008B70500085E
:10029000B7050008B7050008B7050008B70500084E
:1002A0009D070008A5190008BD24000800000000F3
:1002B00053B94AB9002908BF00281CBF4FF0FF31CD
:1002C0004FF0FF3000F074B9ADF1080C6DE904CEC9
:1002D00000F006F8DDF804E0DDE9022304B0704721
:1002E0002DE9F047089D04468E46002B4DD18A42E9
:1002F000944669D9B2FA82F252B101FA02F3C2F11C
:10030000200120FA01F10CFA02FC41EA030E9440AC
:100310004FEA1C48210CBEFBF8F61FFA8CF708FBCD
:1003200016E341EA034306FB07F199420AD91CEBA5
:10033000030306F1FF3080F01F81994240F21C81D7
:10034000023E63445B1AA4B2B3FBF8F008FB10331F
:1003500044EA034400FB07F7A7420AD91CEB040454
:1003600000F1FF3380F00A81A74240F20781644424
:10037000023840EA0640E41B00261DB1D4400023A9
:10038000C5E900433146BDE8F0878B4209D9002D0D
:1003900000F0EF800026C5E9000130463146BDE897
:1003A000F087B3FA83F6002E4AD18B4202D3824201
:1003B00000F2F980841A61EB030301209E46002DB0
:1003C000E0D0C5E9004EDDE702B9FFDEB2FA82F205
:1003D000002A40F09280A1EB0C014FEA1C471FFA63
:1003E0008CFE0126200CB1FBF7F307FB131140EA4A
:1003F00001410EFB03F0884208D91CEB010103F117
:10040000FF3802D2884200F2CB804346091AA4B2D8
:10041000B1FBF7F007FB101144EA01440EFB00FEAC
:10042000A64508D91CEB040400F1FF3102D2A64511
:1004300000F2BB800846A4EB0E0440EA03409CE7B0
:10044000C6F12007B34022FA07FC4CEA030C20FA5D
:1004500007F401FA06F31C43F9404FEA1C4900FA7D
:1004600006F3B1FBF9F8200C1FFA8CFE09FB1811FA
:1004700040EA014108FB0EF0884202FA06F20BD96D
:100480001CEB010108F1FF3A80F08880884240F2BD
:100490008580A8F102086144091AA4B2B1FBF9F001
:1004A00009FB101144EA014100FB0EFE8E4508D9FC
:1004B0001CEB010100F1FF346CD28E456AD9023881
:1004C000614440EA0840A0FB0294A1EB0E01A14266
:1004D000C846A64656D353D05DB1B3EB080261EBD4
:1004E0000E0101FA07F722FA06F3F1401F43C5E9AE
:1004F000007100263146BDE8F087C2F12003D840E4
:100500000CFA02FC21FA03F3914001434FEA1C4725
:100510001FFA8CFEB3FBF7F007FB10360B0C43EA17
:10052000064300FB0EF69E4204FA02F408D91CEBC7
:10053000030300F1FF382FD29E422DD902386344C5
:100540009B1B89B2B3FBF7F607FB163341EA034165
:1005500006FB0EF38B4208D91CEB010106F1FF38B4
:1005600016D28B4214D9023E6144C91A46EA0046AB
:1005700038E72E46284605E70646E3E61846F8E63D
:100580004B45A9D2B9EB020864EB0C0E0138A3E786
:100590004646EAE7204694E74046D1E7D0467BE767
:1005A000023B614432E7304609E76444023842E7DF
:1005B000704700BF02E000F000F8FEE772B63A486C
:1005C00080F30888394880F3098839484EF6085185
:1005D000CEF20001086040F20000CCF200004EF6BE
:1005E0003471CEF200010860BFF34F8FBFF36F8FFD
:1005F00040F20000C0F2F0004EF68851CEF2000149
:100600000860BFF34F8FBFF36F8F4FF00000E1EE34
:10061000100A4EF63C71CEF200010860062080F30D
:100620001488BFF36F8F04F08FFB04F031FB05F0EB
:10063000CDFB4FF055301F491B4A91423CBF41F85A
:10064000040BFAE71C49194A91423CBF41F8040BDC
:10065000FAE71A491A4A1B4B9A423EBF51F8040B5B
:1006600042F8040BF8E700201749184A91423CBFB2
:1006700041F8040BFAE704F049FB05F011FC144CB7
:10068000144DAC4203DA54F8041B8847F9E700F034
:100690004FF8114C114DAC4203DA54F8041B884753
:1006A000F9E704F031BB0000000600200022002022
:1006B000000000080000002000060020486C000830
:1006C00000220020C0220020C0220020584E00201E
:1006D000A0020008AC020008AC020008AC0200084E
:1006E0002DE9F04F2DED108AC1F80CD0D0F80CD0C8
:1006F000BDEC108ABDE8F08F002383F311882846F3
:10070000A047002003F0A8FCFEE703F0D7FB00DFC2
:10071000FEE70000054B10B504460360806810B189
:1007200003685B689847204610BD00BF0C6800084E
:1007300038B504F073F9054604F042FA0446F0B9FE
:10074000144B9D421DD001339D4241F2883512BFAA
:10075000044600250124002004F06AF90CB100F0E1
:100760007FF80D4C00F024FF00F096FD204601F0CC
:10077000DFFC40B94FF47A7003F074FCF6E7002513
:10078000E9E70546E7E7284600F02AF900F068F8AF
:10079000F9E700BF010007B0C02200200448054B64
:1007A000054A036000230549836005F097BE00BF3A
:1007B000C02200200C680008EC2400201507000867
:1007C00008B500F035FDA0F120035842584108BD9E
:1007D00007B5042101900DEB010000F047FD03B0C7
:1007E0005DF804FB07B541F21203022101A8ADF840
:1007F000043000F03BFD03B05DF804FB202310B58E
:1008000083F311881248C3680BB103F0C3FC0023C3
:10081000104A4FF47A710E4803F080FC002383F3F2
:1008200011880D4C236813B12368013B2360636872
:1008300013B16368013B6360084B1B7833B963688D
:1008400023B9022000F0F4FD3223636010BD00BF25
:1008500050230020FD0700086C24002064230020A2
:10086000F7B5574801A901F0DDFD002800F0A5808B
:10087000544B554A1C461968013100F09B800433E3
:100880009342F8D16268514B9A4240F29380504BA8
:10089000DB6803F1104303F580139A4280F08A80ED
:1008A000002000F013FD02204A4B187000F0B8FD44
:1008B000494B0021D3F8E820C3F8E810D3F8102101
:1008C000C3F81011D3F81021D3F8EC20C3F8EC10C2
:1008D000D3F81421C3F81411D3F81421D3F8F0205D
:1008E000C3F8F010D3F81821C3F81811D3F8182161
:1008F000D3F8802042F00062C3F88020D3F8802033
:1009000022F00062C3F88020D3F88020D3F8802042
:1009100042F00072C3F88020D3F8802022F00072E9
:10092000C3F88020D3F8803072B64FF0E023C3F8CC
:10093000084DD4E90004BFF34F8FBFF36F8F274AF0
:10094000C2F88410BFF34F8F536923F4803353618F
:10095000BFF34F8FD2F8803043F6E076C3F3C9057A
:10096000C3F34E335B0103EA060C29464CEA817758
:100970000139C2F87472F9D2203B13F1200FF2D181
:10098000BFF34F8FBFF36F8FBFF34F8FBFF36F8FE7
:10099000536923F4003353610023C2F85032BFF38C
:1009A0004F8FBFF36F8F202383F31188854680F329
:1009B00008882047024801F093F803B0F0BD00BF5B
:1009C000C02200200000109020001090FFFF0F9028
:1009D00000220020642300200044025800ED00E0C3
:1009E0002DE9F04FA84B9FB02022FF21089016A8B8
:1009F0009E68DB68079300F085FDA44A1378A3B9CD
:100A00000121A3481170C360202383F31188C368B8
:100A10000BB103F0BFFB00239E4A4FF47A719C4850
:100A200003F07CFB002383F31188089B9A4A03B1EF
:100A3000136000239949089D98469B46984F0B7078
:100A40005360CDE90533012000F0EAFC25B1924B5B
:100A50001B68002B00F07D83002000F0E9FB0E9066
:100A60000E9B002BF2DB012000F0D0FC0E9B213B03
:100A7000162BE8D801A252F823F000BFD90A0008CB
:100A8000010B00089B0B0008470A0008470A0008F2
:100A9000470A0008910E0008951000082B0F000867
:100AA00013100008391000085F100008470A0008FA
:100AB00071100008470A0008DD100008790B0008D3
:100AC000470A0008591100083D0C0008770D00087E
:100AD000470A0008890F00080220FFF771FE00286E
:100AE00040F06383089B0221069A11A8002A08BFE0
:100AF0001D4641F21233ADF8443000F0B7FBA2E7D7
:100B00004FF47A7000F094FB041EEBDB0220FFF739
:100B100057FE0028E6D0013C052C00F24883DFE8B0
:100B200004F0030A0D1013390523042111A81193B1
:100B300000F09CFB17E004215348F9E704215948D1
:100B4000F6E704215848F3E74FF01C09484609F13D
:100B5000040900F0BDFB0421119011A800F086FBF0
:100B6000B9F12C0FF2D10120059B4FF0000B00FAD8
:100B700004F41C43E3B2059300F010FDB8F1000F3C
:100B800005D0059B03F00B030B2B08BF0025FFF7D7
:100B900029FE58E704214548CAE7B8F1000FA1D063
:100BA000059B03F00B030B2B9CD10220FFF708FEE3
:100BB0000446002896D00120DFF8E08000F086FB94
:100BC0004FF00009022088F8000000F029FC5FFACD
:100BD00089FA504600F08AFB054690B1504609F16B
:100BE000010900F093FB0028F1D10546069441F27B
:100BF0001213022111A8A046ADF8443000F036FBD4
:100C000021E701232E46DFF88090022088F800308B
:100C100000F0FCFBD9F80830B34207D9304600F0A9
:100C200057FB013040F0C6820436F3E700261A4B2A
:100C3000069488F80060A0465E609DE7B8F1000F5A
:100C40003FF450AF059B03F00B030B2B7FF44AAF2F
:100C500064210FA800F000FB814600287FF442AF1A
:100C60000220FFF7ADFD044600283FF43BAF3A6A8F
:100C70007B6A0F9953438DF837908B421AD20C48F8
:100C800000F0E0FB2EE700BF0022002068240020D7
:100C900050230020FD0700086C240020642300205E
:100CA000C022002004220020082200200C22002064
:100CB000206600084FF4801AAE48C846BAFBF2FA24
:100CC00000F0C0FBFFF78EFD01210DF1370000F0B1
:100CD000CDFA0F9B434542D9002310AA514638460E
:100CE000CDE9103311AB00F0FFFE00283FF47FAFD9
:100CF00000F0B8FE109B00EB030901210DF1370055
:100D000000F0B4FA00F0AEFE484520D9384601F0B4
:100D100021F980B964210F9B97480AF1010A01FB70
:100D200008F1B1FBF3F18DF83710C9B200F08AFB7E
:100D30003B6A9844CDE700F095FE119B1844484566
:100D40003FF655AF00F08EFE109B00EB0309109BA1
:100D50004FF47A70A3FB000303F084F9CDE764231A
:100D600001210DF13700A0468DF8373000F07EFAF2
:100D70000023079300E7B8F1000F3FF4B3AE059BE3
:100D800003F00B030B2B7FF4ADAE02207B4B1870EE
:100D900000F046FB322000F04BFAB0F1000AFFF6FB
:100DA000A1AE079BD14653440993754B099ADB6862
:100DB0009A423FF697AEBAF5807F3FF793AE714AFD
:100DC0000024A2450A920EDD4FF47A7000F030FA4A
:100DD0000E900E9B002BFFF685AE0E9B01340A9AF7
:100DE00002F8013BEDE7C820FFF7EAFC04460028C3
:100DF0003FF478AE079B1F2B11D8C3F1200223F0DC
:100E0000030016AB5F495245184428BF52460A9268
:100E100000F046FB0A9AFF215A4800F073FB0023BA
:100E20009846CDE91033079B03F580130B93B9F176
:100E3000000F02D1A046099B9BE711AB514A0B99C9
:100E40003846029310AB4244414401930FAB0093E8
:100E50004B4601F053FA00283FF4C9AE00F004FEFF
:100E60000F9B82460A919844A9EB030900F0FCFD10
:100E7000109B0A9A13EB0A0342F10002834272EBC1
:100E80000103F3D2384601F065F80028EED1CEE731
:100E9000B8F1000F3FF426AE059B03F00B030B2BBC
:100EA0007FF420AE0220354B187000F0B9FA3220E2
:100EB00000F0BEF9B0F1000AFFF614AE1AF0030418
:100EC0007FF410AE2E4A0AEB0603926893423FF677
:100ED00009AEBAF5807F3FF705AEDFF8A890A245CE
:100EE0000DDD4FF47A7000F0A3F90E900E9B002BED
:100EF000FFF6F8AD0E9B013409F8013BEFE7C8207F
:100F0000FFF75EFC044600283FF4ECADCAF387020D
:100F10001C4930464FEAAA0900F0FCFA8046002836
:100F20003FF465AE06EB890626E60220FFF748FC93
:100F300000283FF4D7AD00F005FA00283FF4D2AD09
:100F40004FF00009DFF838A04C46DAF808304B457E
:100F50000CD9484609F1040900F0BAF904221190AD
:100F600011A9204601F0D0FA0446EEE72046FFF72B
:100F70002FFC01E6456600085D660008642300203A
:100F80000022002068230020642110A800F064F9EA
:100F9000044600287FF4A6AD0220FFF711FC0028CC
:100FA0003FF4A0AD109BA14603F0030A1099A1EBFA
:100FB0000A01A1421BD91F2C11D8169B01330ED058
:100FC00024F003031EAA134453F8203C119348460F
:100FD000042211A9043401F097FA8146E6E70423BC
:100FE00011AA04F58011384601F0D4F9EFE7BAF1FF
:100FF000000F0CD0534611AA01F58011384601F0BC
:10100000C9F94846524611A901F07EFA8146484680
:10101000ADE70023642111A8119300F01DF9002809
:101020007FF460AD0220FFF7CBFB00283FF45AAD00
:10103000119800F07DF99AE70023642111A811931B
:1010400000F00AF900287FF44DAD0220FFF7B8FB4D
:1010500000283FF447AD119800F06CF987E70220B3
:10106000FFF7AEFB00283FF43DAD00F07BF97EE7D3
:101070000220FFF7A5FB00283FF434AD11A914208E
:1010800000F076F90990FFF7A3FB099911A800F089
:10109000EDF871E5322000F0CBF8041EFFF622AD2A
:1010A000A3077FF41FAD444A04EB0B0392689342FD
:1010B0003FF618AD0220FFF783FB00283FF412AD86
:1010C00024F003045C44A3453FF456AD58460BF1AD
:1010D000040B00F0FDF8FFF77BFBF4E74FF47A70A8
:1010E000FFF76EFB00283FF4FDAC00F02BF980B158
:1010F000169B013328D011AB16AA4FF48011384645
:10110000029310AB01930FAB0093202301F0F6F88C
:1011100008B944466BE500F0A7FC284E04460D468E
:1011200000F0A2FC109B1B1945F10002834272EBF8
:101130000103F5D2304600F00DFF0028F0D1202247
:10114000FF2116A800F0DEF9FFF74CFB1C4802F067
:1011500089FF1FB0BDE8F08FB8F1000F3FF4C2ACBB
:10116000059B03F00B030B2B7FF4BCAC0023642125
:1011700011A8119300F070F8044600287FF4B2AC77
:101180000220FFF71DFB814600283FF4ABACFFF7C0
:1011900029FB41F2883002F065FF119800F04AFA0D
:1011A000C846254600F0FAF94DE48046E4E44FF0E5
:1011B000000B97E406941AE500220020C0220020CC
:1011C000A08601002DE9F84F4FF47A7306460D46CC
:1011D000002402FB03F7DFF85080DFF8509098F905
:1011E00000305FFA84FA5A1C01D0A34210D159F89A
:1011F00024002A4631460368D3F820B03B46D8473E
:10120000854205D1074B012083F800A0BDE8F88F87
:101210000134032CE3D14FF4FA7002F023FF0020D5
:10122000F4E700BFB82400201022002088660008E0
:10123000002307B5024601210DF107008DF80730A4
:10124000FFF7C0FF20B19DF8070003B05DF804FB75
:101250004FF0FF30F9E700000A46042108B5FFF718
:10126000B1FF80F00100C0B2404208BD074B0A4602
:1012700030B41978064B53F82140014623682046C4
:10128000DD69044BAC4630BC604700BFB824002089
:1012900088660008A086010070B50A4E00240A4D39
:1012A00003F0B0F9308028683388834208D903F00E
:1012B000A5F92B6804440133B4F5003F2B60F2D349
:1012C00070BD00BFBA2400207424002003F040BA8F
:1012D00000F1006000F500300068704700F1006028
:1012E000920000F5003003F0BFB90000054B1A680A
:1012F000054B1B889B1A834202D9104403F07EB928
:101300000020704774240020BA24002038B5074D0F
:1013100004462868204403F077F928B92868204457
:10132000BDE8384003F076B938BD00BF7424002012
:101330000020704700F1FF5000F58F10D0F8000832
:1013400070470000064991F8243033B10023082289
:10135000086A81F82430FFF7C1BF0120704700BF41
:1013600078240020014B1868704700BF0010005C13
:10137000244BF0B51A680446234BC2F30B06120C3B
:101380001F885868BE4293F9085028D09F89BE42F2
:1013900006D101200C2505FB0033586893F908504D
:1013A00041F201039A421CD041F203039A421AD03F
:1013B00042F201039A4218D042F203039A4208BF54
:1013C0005625621E0B46441E0A4493420FD214F95E
:1013D000016F581C6EB1034600F8016CF5E7002060
:1013E000D8E75A25EDE75925EBE75825E9E71846F0
:1013F00005E02C2482421C7001D9981C5D70401AB3
:10140000F0BD00BF0010005C14220020022803D1B0
:10141000024B4FF400329A61704700BF000002583F
:10142000022801D1014B9861704700BF00000258AB
:10143000022804D1024A536983F0020353617047C2
:10144000000002580FB4124B30B51A78B5B042B94B
:101450000122104910481A704FF461430B6001F0EB
:10146000BBFE39AB0C4C389AC82102A8019300F09E
:10147000ADFA2368C8280246DD6902A9074B28BFD8
:10148000C8222046A84735B0BDE8304004B07047B8
:10149000BC240020C024002084250020A086010058
:1014A000002310B5934203D0CC5CC4540133F9E758
:1014B00010BD0000013810B510F9013F3BB191F9A2
:1014C00000409C4203D11AB10131013AF4E71AB14C
:1014D00091F90020981A10BD1046FCE70138013937
:1014E00010F9013F11F9012F0BB19342F8D0981A6E
:1014F0007047000003460246D01A12F9011B00296A
:10150000FAD1704702440346934202D003F8011B0C
:10151000FAE770472DE9F8431F4D14460746884601
:1015200095F8242052BBDFF870909CB395F82430D6
:101530002BB92022FF2148462F62FFF7E3FF95F8E1
:1015400024004146C0F1080205EB8000A24228BFFA
:101550002246D6B29200FFF7A3FF95F82430A41BD1
:1015600017441E449044E4B2F6B2082E85F8246075
:10157000DBD1FFF7E7FE0028D7D108E02B6A03EBA9
:1015800082038342CFD0FFF7DDFE0028CBD10020BD
:10159000BDE8F8830120FBE778240020024B1A788D
:1015A000024B1A70704700BFB824002010220020A0
:1015B00038B5194C194D204601F0B0FE2946204699
:1015C00001F0D8FE2D681648D5F89020D2F80438DE
:1015D00043F00203C2F8043802F044FD11492846E2
:1015E00001F0D6FFD5F890200F48D2F804380F4903
:1015F000A04223F00203C2F804384FF4E1330B6039
:1016000001D001F0E9FD0A48A04204D00749BDE835
:10161000384001F0E1BD38BDC02F00209C690008B2
:1016200040420F00A469000818250020A0240020D3
:101630008425002038B50B4B04461A780A4B53F822
:1016400022500A4B9D420CD0094B0021182218460B
:10165000FFF758FF046001462846BDE8384001F016
:10166000BBBD38BDB824002088660008C02F00200C
:10167000A024002038B5084B044615460175436088
:101680000A21243003F008FA04F128002A460A212E
:1016900003F002FA204638BD54680008F8B51E462B
:1016A0001B6805460C4617461BB9236863B901241D
:1016B00008E0BDF818203146806A03F005FA0028DA
:1016C000F3D100242046F8BD21463A46686A03F06B
:1016D00031FA04460028EAD13368002BF1D0A86A19
:1016E00003F05CFAEEE7000038B50D4611460446FB
:1016F0001A4611B1806A03F00FFA2DB12946606ACB
:10170000BDE8384003F042BA38BD00007047000021
:10171000704700000020704700207047002070478D
:1017200013B56C4600F10C0384E8060094E803004E
:1017300083E8050002B010BD0023C0E90333704701
:1017400082B002AB03E9060002B0704770470000A8
:10175000002070477047000000207047002070474D
:101760000120704782B0002002A901E90C0002B0FC
:101770007047000000207047002070470B6803632B
:101780004B68C3628B684363CB6883630B69C36335
:101790007047000038B5836A0446154D1B7955F82B
:1017A000330002F0F1F9D4E909231B7955F833101D
:1017B00002F130034968994218D000231363626A2A
:1017C0005363D4E90912537C581E137C92681B049E
:1017D00043EA002313438B63D4E909131B793031A7
:1017E00055F83300BDE8384002F062B938BD00BF9B
:1017F000EC660008F8B51A4F05460E4611463868E3
:10180000FFF76CFE40BB74683B792CB194F82C2038
:101810009A420FD02468F8E7402004F069FE0122C4
:10182000B5210446FFF726FF736823603B79746097
:1018300084F82C30402004F05BFE00232860037104
:10184000C0E90333037A43F007030372054BC0E991
:10185000094703602846F8BD00232B60FAE700BF64
:10186000D8240020FC660008044B10B50446036031
:10187000C06908B104F03AFE204610BDA466000815
:1018800010B50446FFF7F0FF204604F02DFE204679
:1018900010BD000008B519B1FFF77CFF012008BD9D
:1018A000836A1A79024B53F8320002F071F9F5E7B6
:1018B000EC6600082DE9FF41DDF828800546174653
:1018C00003911FFA88F60293FFF764FF02ABBAB2E6
:1018D00003A9686A0096FFF7E1FE044638B90021C3
:1018E0002846FFF7D7FF204604B0BDE8F081AFB926
:1018F000AB6A05F12C011A79134B53F83200B8F199
:10190000000F19D102F0E2F880F00104E4B233468E
:10191000686ADDE90221FFF7E7FEE0E7029B83B991
:10192000AB6A3A46084805F12C011C79039B50F834
:10193000340002F0E1F8E7E7029B424602F0F2F8D9
:10194000E2E70024E3E700BFEC66000813B50446B5
:101950000191FFF71FFF019AA36A04F12C01187986
:10196000054B53F8300002F0F3F800212046FFF752
:1019700091FF012002B010BDEC66000810B50446CE
:10198000FFF708FFA36A1A79054B53F8320002F0FB
:10199000EDF800212046FFF77DFF012010BD00BFBC
:1019A000EC660008064B0121064A1A6000221A71F3
:1019B000054AC3E9021240F217221A82704700BF9B
:1019C000D824002094660008000E270700F094BF7A
:1019D00000B59BB0EFF3098168226846FFF760FD10
:1019E000EFF30583044B9A6BDA6A9A6A9A6A9A6AE9
:1019F0009A6A9A6A9B6AFEE700ED00E000B59BB028
:101A0000EFF3098168226846FFF74AFDEFF305838B
:101A1000044B9A6B9A6A9A6A9A6A9A6A9A6A9B6A59
:101A2000FEE700BF00ED00E000B59BB0EFF30981D9
:101A300068226846FFF734FDEFF30583034B5A6BCA
:101A40009A6A9A6A9A6A9A6A9B6AFEE700ED00E0CF
:101A5000FEE70000FEE700000FB408B5029802F0B0
:101A600091FAFEE702F07ABF02F052BF8069704738
:101A7000C0697047006A7047406A7047806A704763
:101A8000F0B5ADF2044D0E46054600214FF47F72CD
:101A900001A80091FFF736FD2C6A744301362B6ACA
:101AA0007343A34216D92B686A46214628465F68CD
:101AB0004FF48063B84770B16A464FF4806312F800
:101AC000011BFF290AD1013B9BB2002BF7D104F582
:101AD0008064E4E701200DF2044DF0BD0020FAE738
:101AE00080680368DB69184730B5456A85B00446ED
:101AF0008D420FD30568CDE90023026A03ABAD6ABE
:101B00005143A84720B1206A039BC31A5842584149
:101B100005B030BD0020FBE7F0B5C56987B00446CD
:101B20008D4212D30C9F866905687143CDE9013758
:101B300005AB00936D69036AA84720B1A069059BB6
:101B4000C31A5842584107B0F0BD0020FBE700001F
:101B5000F0B5662389B0002405464FF4807680688E
:101B6000079403A9CDE90336CDE9054403685B6911
:101B70009847A86822462146036800941F692346B7
:101B8000B847A8689923079403A9CDE90336CDE99E
:101B9000054403685B699847A868224621460368A4
:101BA00000941D692346A84709B0F0BD254B2DE9D7
:101BB000F04F1B789FB0002504468DF828304FF079
:101BC0009F0E80684FF00123ADF8295005A90995B3
:101BD000CDE905E3CDE9075503685B699847A0683F
:101BE00003222946036800922A461E690AABB047C1
:101BF00028B394F88C20144B9DF8281003EBC203F3
:101C00001A7991421BD19DF829205B799A4216D10D
:101C1000A0684FF05A0C0D4B082605A90996CDE98E
:101C200005C3CDE9075503685B699847A0682A4654
:101C30002946036800961F690AABB84740B90020DF
:101C400048E100BF08660008F467000800250001AD
:101C50000422B1490AA804F07BFC05460028EED115
:101C6000BDF82C306FF48277A3813B44012BE6D87A
:101C7000079605A9CDE90A00A06803685B69984743
:101C8000A0682A462946036800961E690AABB04739
:101C90000028D4D0DDE90A361A0202F4706242EA62
:101CA0001662FF2ACBD11B0E26F07F465022294612
:101CB000142B26610AA828BF1423A373FFF722FC64
:101CC000A068079605A903685B699847A068A37B8D
:101CD000294602689B0000930AAB16692A46B04762
:101CE0000028ACD00B990029A9DBC9086FF07E430E
:101CF000149D4FF0010E994228BF1946C5F30313F6
:101D00000EFA03F221FA03F303916161A261E36128
:101D1000002B94D02646A44600274FF002081EAAA6
:101D2000C7F3460302EB830353F834AC07F0010317
:101D30001B01DA1D0EFA03F908FA02F2A2EB0902FE
:101D400002EA0A02DA401AD003F108090F330EFA48
:101D500002F2216A08FA03F30EFA09FBCCF83020EC
:101D60008A42A3EB0B0B0BEA0A0A2AFA09F98CF850
:101D70002C90A36A88BF2262934288BFA262013777
:101D80000CF1100C042FCAD1236A4FF0020C039AF5
:101D90004FF0010E139F9A4224BFB2FBF3F1616230
:101DA00007F00F0138BF01234FF0090201F10101D3
:101DB00038BF63624900336B33B3531C0EFA02F829
:101DC000A2F105090CFA03F30EFA09FAA3EB0803D2
:101DD00002F1FF380CFA08F83B40A8EB0A08D340A0
:101DE00008EA070828FA09F877D0012B77D0022BE8
:101DF00077D0032B08BF4FF47A735FFA88F808FB9B
:101E0000033373634B43B36307321036252AD2D1B1
:101E100015F0C04FC5F3417365D0012B65D0022B7F
:101E20000CBF4FF47A634FF47A43C5F3046202FBAC
:101E30000333E3664B432367199B9E0758D0062361
:101E400084F8743015F4005F05F00F03C5F3042522
:101E500014BF40220822013305FB02255B00A56761
:101E60005D430A9B9F02E5677FF5E9AE0C9B1A0A6A
:101E700084F88020C3F3421203F01F0384F8882003
:101E800084F88130189BC3F3025213F4401F84F886
:101E900083207FF4D4AEDE0602D5042A7FF4CFAED1
:101EA00003F40072002A14BF0122002284F8872064
:101EB00004D0DD0324D5002384F88930179B1A074A
:101EC00022D5002384F88630702384F885300123DE
:101ED00084F88D301FB0BDE8F08F01238DE710230B
:101EE0008BE7802389E710239FE74FF480739CE7FB
:101EF000590701D55023A3E713F0780FA2D09EE62F
:101F00009903DBD50123D7E75B07E0D5012384F8EC
:101F100086300523D9E700BF5867000830B58BB07D
:101F200000240546806803924FF00122059105A91F
:101F3000CDE90624CDE90844026852699047A868B3
:101F40000121039B02680091214615692246A8479A
:101F50000BB030BD13B504460DF1070290F88510A3
:101F6000FFF7DCFF94F886309DF807001BB100F006
:101F7000010002B010BDC043C0F3C010F9E700007B
:101F800030B54FF001238BB00024054680688DF8F2
:101F90000F20059105A9CDE90634CDE90844036871
:101FA0005B699847A86801220DF10F01036800944E
:101FB0001D692346A8470BB030BD0000F7B5174692
:101FC0000DF1070206461D46FFF7A8FF68B19DF810
:101FD000074039469DF82020304624EA05042A406F
:101FE00022438DF80720FFF7CBFF03B0F0BD0000C0
:101FF00030B54FF4807389B00024054680680391A2
:1020000003A9CDE90434CDE9064403685B69984728
:10201000A86822462146036800941D692346A84704
:1020200009B030BD10B5044623682046DB6A9847E6
:102030000028F9D110BD000010B590F874300446A6
:102040005BB1FFF7EFFF012394F87410204684F88A
:102050008E30BDE81040FFF7CBBF012010BD00005F
:1020600010B590F87430044653B1FFF7DBFF01233D
:102070002046042184F88E30BDE81040FFF7B8BF39
:10208000012010BD70B590F883308AB00446042B4F
:1020900048D10DF10E020521FFF740FF00282FD097
:1020A0000DF10F0235212046FFF738FF40B32046DF
:1020B0001E4EFFF7C1FF2046FFF7B4FF05AD0FCE60
:1020C0000FC5336805A99DF80E202B609DF80F30D1
:1020D000A06843F002038DF810208DF80F308DF8C2
:1020E000113003685B699847A068002304A902685F
:1020F000009315690222A84728B92046FFF7B0FFD0
:1021000000200AB070BD2046FFF7AAFF0DF10F02B4
:1021100035212046FFF702FF0028F1D09DF80F304F
:102120009B07EDD501202071EBE700BF0C6600088E
:102130002DE9F341002304468068A36010B10368D1
:102140005B6898470025244E244F56F8352001A897
:1021500039465FFA85F8FFF74DFB019BA068002226
:10216000A360019210B103685B689847019810B1B1
:1021700003685B689847A368DBB141F2883084F854
:102180008C8001F06FFF2046FFF7E2FC1E2001F07B
:1021900069FF2046FFF70AFD054668B994F88C30C0
:1021A0000F4856F83310FFF74DF9284602B0BDE846
:1021B000F08175B90125C8E72046FFF763FF94F861
:1021C0008C30054656F8331008B90648EBE7064848
:1021D000E9E70648FFF740FCF4670008F024002018
:1021E000606700088A670008B4670008D6670008BF
:1021F0002DE9F041044688B00F461646FFF71CFF54
:102200002046FFF70FFF0025C722A0684FF4807318
:10221000079503A9CDE90323CDE9055503685B695B
:102220009847A0682A46294603680095D3F810808D
:102230002B46C047054630B92046FFF711FF284618
:1022400008B0BDE8F081E36E3B60236F3360F3E7D5
:102250002DE9F0414FF0000888B01F4604460D46B6
:102260000E9B00F1400C4646C7F80080016B81B11F
:10227000B1420ED391420CD8B5FBF1FE01FB1E51C9
:1022800039B9416B90F82C800F9E1960816B3160D9
:10229000164610306045E9D16EB3731962699342F6
:1022A00029D82046FFF7C8FE2046FFF7BBFE4FF4B3
:1022B0001453A06803A9CDF80C80CDE9043500259E
:1022C000CDE9065503685B699847A0682A46294608
:1022D00003680095D3F810802B46C047054620467A
:1022E0002DB9FFF7BDFE284608B0BDE8F081FFF725
:1022F000B7FE3E60F7E70025F5E700002DE9F04165
:102300008669054688B00F46B3429046B1FBF6FC9D
:1023100006FB1C1C28BF3346A6EB0C0C00269C4574
:10232000644628BF1C46FFF787FE2846FFF77AFE63
:102330000222A86803A9164B0597CDE90323CDE92E
:10234000066603685B699847A868224641460368A9
:1023500000961F693346B847064628462EB9FFF750
:102360007FFE304608B0BDE8F081FFF779FE0E9B96
:102370001C60AB6FAA696343B3FBF2F30F9A13605F
:10238000EA6F109B5443AA69B4FBF2F41C60E8E7BF
:10239000002500012DE9F04FCE18436989B00446AD
:1023A0009E420F46904634D83D464FF00009DFF874
:1023B00070A0FFF737FEAE422FD9A6EB050B94F8BD
:1023C000803094F8882003A9BBF5806F039394F8BC
:1023D000813028BF4FF4806B012AA06808BF03F149
:1023E000FF33CDF810A0CDE90559079303685B6969
:1023F0009847A068A8EB07030268CDF800B02B440B
:10240000D2F810B000221146D84718B105F5806502
:10241000D1E7002009B0BDE8F08F0120FAE700BF46
:1024200000ED0003F0B5044689B00E46FFF7FAFD53
:1024300094F887502DB194F889302BB1012B1AD024
:102440000025284609B0F0BD94F880200392A5220B
:102450000692184ACDE9042394F88130A06803A9B4
:10246000079303685B699847A068314603689B69D6
:1024700098470546E5E720460027FFF7DDFD2046A3
:10248000FFF7D0FD08238122852120460097FFF722
:1024900095FD054618B92046FFF7E2FDD1E794F80F
:1024A000803006970393044BCDE9043794F88130CC
:1024B000013BD3E700ED000300ED0013014B024A9E
:1024C0001A607047F02400204C6700080368002160
:1024D0001B68184703790BB1002202711846704738
:1024E00003685B681847000003791BB90123037177
:1024F00018467047002070477047000010B504462A
:1025000003F0F2FF204610BD30B50A44084D914259
:102510000DD011F8013B5840082340F30004013B63
:102520002C4013F0FF0384EA5000F6D1EFE730BDF2
:102530002083B8EDF0B500F10B0423460D46B1FB46
:10254000F2F102FB115707F13006392EC8BF07F12F
:102550003706954203F8016DF0D2421EE11A13F8D6
:10256000015B9C4202F8015FF9D10844F0BD000014
:102570002DE9F04F804687B015464FF000090C4614
:1025800014F8013B002B3BD0252B08D0D8F80020B5
:102590001946404609F10109D268904749E14B7854
:1025A0002D2B06BF8C1C01230023019323782B2B9A
:1025B00006BF01340127002794F800A0BAF1300FBC
:1025C0000CBF01344FF0200A23782A2B1CD16178EC
:1025D000023455F804BB2E2943D1217881B12A2930
:1025E00021D0661C0020A1F130023446D2B2092A63
:1025F0001DD80A2316F8011B03FB00200029F2D185
:10260000484607B0BDE8F08F4FF0000B14F8011BEF
:102610000029F5D0A1F13002D2B2092ADBD80A2371
:1026200003FB0B2BF2E76178023455F8040B01F041
:10263000DF024C2A17D121780029E1D0782904F152
:1026400001041FD8622900F2008158291AD84E29A6
:1026500000F23081442900F09180492900F08E80F9
:1026600010E00020E3E7A1F141027829D2B209D8B5
:1026700062290BD8582905D84E293BD8442978D04F
:10268000492976D02E468DF80C1056E0A1F163064C
:10269000152EF7D80FF2040C5CF826F02D27000851
:1026A000732700088526000885260008852600086F
:1026B000852600087327000885260008852600085F
:1026C00085260008852600088526000803280008BE
:1026D000F128000885260008852600084327000801
:1026E00085260008ED2800088526000885260008B4
:1026F000F1280008A1F14F02092AC3D801A050F81F
:1027000022F000BF03280008F128000885260008F1
:10271000852600088526000885260008ED28000883
:102720008526000885260008F12800082E464FF06F
:10273000200A56F8042B8DF80C2003AD0DF10D0086
:102740002BE02E4647F6FF726A4B56F8045B0028D2
:1027500008BF1046002D08BF1D462A462F181046F8
:1027600012F8011B11B1B91A0029F8DA4FF0200A4A
:1027700013E02E46192A56F8041B02D82E4656F8A6
:10278000041B002936DA2D2249428DF80C200DF168
:102790000D000A2203ADFFF7CDFE471B0199ABEBFD
:1027A000070323EAE372002945D1002BC2F1000B95
:1027B0001EDD29782D2901D02B290DD1BAF1300F3A
:1027C0000AD1D8F800304046019209F10109DB68CE
:1027D000013F98470135019AD8F8003051464046EC
:1027E0000192DB6898471BF1010B019AF4D19144E7
:1027F0003B4615E01FB12B228DF80C20C7E703A83C
:10280000C7E708222E4603A856F8041BC2E7D8F8EB
:102810000020404615F8011BD26801939047019BA8
:10282000013BF4D5002FA8BFB9445D462DB9D9446A
:1028300035462146A3E69346DAE7D8F800305146FC
:102840004046013DDB689847F0E7A1F16302152A95
:102850003FF618AF01A353F822F000BF2D27000860
:102860007D270008852600088526000885260008A3
:10287000852600087D270008852600088526000893
:1028800085260008852600088526000803280008FC
:10289000F12800088526000885260008432700083F
:1028A00085260008ED2800088526000885260008F2
:1028B000F1280008A1F14F02092A3FF6E3AE01A377
:1028C00053F822F003280008F128000885260008A4
:1028D000852600088526000885260008ED280008C2
:1028E0008526000885260008F12800080A2289E7C5
:1028F000102287E76C680008F0B5054687B01646D9
:102900001F460C4689B14A1E0023294601A800F043
:1029100053F83A46314601A8FFF72AFE049BA3422A
:102920003CBF0022EA5407B0F0BD0A46ECE70000C5
:10293000D0E902239A421FBF4268D154C3680133D1
:102940001ABFC36000206FF001007047D0E9032375
:102950009A421FBF4268D25C0133036114BF104624
:102960006FF001007047000038B504460846D4E90E
:1029700003315B1A934228BF13461D4663682A46FB
:102980001944FEF78DFD236928462B44236138BD89
:1029900038B50446D0E902301B1A934228BF1346CB
:1029A0001D4663682A461844FEF77AFDE368284608
:1029B0002B44E36038BD000010B5C0E90223034C8E
:1029C0000023C0E90041036110BD00BF7468000826
:1029D00038B5836904460D465B695A0118D54368CA
:1029E0001B682BB10522027098472378052B01D173
:1029F00002232370202383F31188002104F10800AF
:102A000001F04AFB002383F31188E06902F06AFABF
:102A1000EB0704D50248BDE8384001F0B3BA38BD31
:102A20008868000810B5044C204601F039F8034AC4
:102A30000023C4E9062310BDF824002000500052F2
:102A400010B503780446012B17D1104B984214D1CE
:102A500002460F49102002F011FA0E4BE061D3F844
:102A6000D42042F48042C3F8D420D3F8FC2042F4AE
:102A70008042C3F8FC20D3F8FC306268A3699268F6
:102A80005A60054A1A601B22DA6010BDF824002043
:102A9000D1290008004402581500020183691B2255
:102AA00010B5DA60D1E9002012F44C4406D192014D
:102AB0001C61D86102F440425A6110BD00241043E9
:102AC00012F4406F1C61CC68DC61586101D08A68E7
:102AD0009A619A689206FCD4EFE7000030B58469E9
:102AE0001B25C069E5600068836104F12003C361B0
:102AF00002234261013A03614623C36016238362C5
:102B0000CB682261E361D1E90023134312F4406FE3
:102B1000636101D08B68A361C36843F00103C360A4
:102B200030BD000030B5D0E90640006804F1200552
:102B30008561C36108234261013A036146230D693F
:102B4000C36016238362CB682261E361D1E900236D
:102B5000134312F4406F43EA854343F0806363619B
:102B600001D08B68A361C36843F00103C36030BD2B
:102B70008069036823F0040310B503600023036138
:102B8000C3618361D1E900430969234343EA814377
:102B900043F04063436112B14FF01043136010BD26
:102BA00083691A6842F002021A601A689207FCD41C
:102BB0001A6842F004021A607047000083691B2201
:102BC00010B5DA6004465B695B011AD443681B6880
:102BD0002BB10522027098472378052B01D10223DF
:102BE0002370202383F31188002104F1080001F0F1
:102BF00053FA002383F31188E069BDE8104002F026
:102C000071B910BD026843681143016003B11847F0
:102C100070470000024A136843F0C0031360704716
:102C200000100140024A136843F0C003136070476C
:102C30000078004037B51A4C1A4D204600F0C0FA13
:102C400004F11400009400234FF40072164900F0C0
:102C500081F94FF40072154904F138000094144BC7
:102C600000F0FAF9134BC4E91735134C204600F075
:102C7000A7FA04F1140000234FF400720F490094E6
:102C800000F068F90E4B4FF400720E4904F1380061
:102C9000009400F0E1F90C4BC4E9173503B030BDE6
:102CA0001825002000E1F505F0250020F02900207E
:102CB000152C00080010014084250020F02700207A
:102CC000252C0008F02B002000780040037C30B554
:102CD0002D4C002918BF0C46012B11D12B4B9842CB
:102CE0003BD12B4BD3F8F02042F01002C3F8F02078
:102CF000D3F8182142F01002C3F81821D3F8183184
:102D00002268036EC16D03EB52038466B3FBF2F3DA
:102D10006268150442BF23F0070503F0070343EA86
:102D20004503CB60A36843F040034B60E36843F086
:102D300001038B6042F4967343F001030B604FF084
:102D4000FF330B62510505D512F0102218D0B2F1F5
:102D5000805F17D080F8643030BD0E4B9842CFD1E1
:102D60000B4BD3F8E82042F08042C3F8E820D3F8B8
:102D7000102142F08042C3F81021D3F81031BFE790
:102D80007F23E7E73F23E5E7986800081825002040
:102D900000440258842500202DE9F047C66D054601
:102DA0003768F4692107346219D014F0080118BF9C
:102DB0008021E20748BF41F02001A3074FF0200324
:102DC00048BF41F04001600748BF41F4807183F380
:102DD0001188281DFFF716FF002383F31188E205F1
:102DE0000AD5202383F311884FF40071281DFFF7C3
:102DF00009FF002383F311884FF020094FF0000AE8
:102E000014F0200838D13B0616D54FF0200905F103
:102E1000380A200610D589F31188504600F050F981
:102E2000002836DA0821281DFFF7ECFE27F0800382
:102E30003360002383F31188790614D5620612D516
:102E4000202383F31188D5E913239A4208D12B6CF0
:102E500033B127F040071021281DFFF7D3FE37605C
:102E6000002383F31188E30618D5AA6E1369ABB16A
:102E70005069BDE8F047184789F31188736A2846FE
:102E800095F86410194000F0B5F98AF31188F469D7
:102E9000B6E7B06288F31188F469BAE7BDE8F08755
:102EA000F8B51546826804460B46AA4200D28568EA
:102EB000A1692669761AB5420BD218462A46FEF752
:102EC000EFFAA3692B44A3612846A3685B1BA360A8
:102ED000F8BD0CD9AF1B18463246FEF7E1FA3A4668
:102EE000E1683044FEF7DCFAE3683B44EBE7184660
:102EF0002A46FEF7D5FAE368E5E7000083689342C7
:102F0000F7B50446154600D28568D4E90460361A40
:102F1000B5420BD22A46FEF7C3FA63692B446361BC
:102F20002846A3685B1BA36003B0F0BD0DD93246F1
:102F3000AF1B0191FEF7B4FA01993A46E0683144BB
:102F4000FEF7AEFAE3683B44E9E72A46FEF7A8FA43
:102F5000E368E4E710B50A440024C361029B84607F
:102F6000C16002610362C0E90000C0E9051110BD43
:102F700008B5D0E90532934201D1826882B98268EE
:102F8000013282605A1C426119700021D0E904327A
:102F90009A4224BFC368436101F098F8002008BD3D
:102FA0004FF0FF30FBE7000070B5202304460E46CB
:102FB00083F31188A568A5B1A368A269013BA3604A
:102FC000531CA36115782269934224BFE368A3616F
:102FD000E3690BB120469847002383F31188284604
:102FE00007E03146204601F061F80028E2DA85F377
:102FF000118870BD2DE9F74F04460E4617469846D6
:10300000D0F81C904FF0200A8AF311884FF0000B83
:10301000154665B12A4631462046FFF741FF034673
:1030200060B94146204601F041F80028F1D0002364
:1030300083F31188781B03B0BDE8F08FB9F1000F5E
:1030400003D001902046C847019B8BF31188ED1AED
:103050001E448AF31188DCE7C160C361009B826073
:103060000362C0E905111144C0E900000161704725
:10307000F8B504460D461646202383F31188A76849
:10308000A7B1A368013BA36063695A1C62611D700C
:10309000D4E904329A4224BFE3686361E3690BB167
:1030A00020469847002080F3118807E031462046EB
:1030B00000F0FCFF0028E2DA87F31188F8BD000079
:1030C000D0E9052310B59A4201D182687AB98268A5
:1030D0000021013282605A1C82611C7803699A4285
:1030E00024BFC368836100F0F1FF204610BD4FF09C
:1030F000FF30FBE72DE9F74F04460E46174698468A
:10310000D0F81C904FF0200A8AF311884FF0000B82
:10311000154665B12A4631462046FFF7EFFE0346C5
:1031200060B94146204600F0C1FF0028F1D00023DD
:1031300083F31188781B03B0BDE8F08FB9F1000F5D
:1031400003D001902046C847019B8BF31188ED1AEC
:103150001E448AF31188DCE702684368114301606A
:1031600003B11847704700001430FFF743BF000059
:103170004FF0FF331430FFF73DBF00003830FFF74A
:10318000B9BF00004FF0FF333830FFF7B3BF000086
:103190001430FFF709BF00004FF0FF311430FFF784
:1031A00003BF00003830FFF763BF00004FF0FF326D
:1031B0003830FFF75DBF000000207047FFF73ABDD1
:1031C000044B036000234360C0E90233012303740E
:1031D000704700BFB068000810B52023044683F391
:1031E0001188FFF773FD02232374002383F31188F2
:1031F00010BD000038B5C36904460D461BB9042153
:103200000844FFF7A9FF294604F11400FFF7B0FEB8
:10321000002806DA201D4FF48061BDE83840FFF732
:103220009BBF38BD026843681143016003B1184772
:103230007047000013B5406B00F58054D4F8A438F3
:103240001A681178042914D1017C022911D1197945
:10325000012312898B4013420BD101A94C3002F09B
:103260008DFCD4F8A4480246019B2179206800F027
:10327000DFF902B010BD0000143002F00FBC0000F6
:103280004FF0FF33143002F009BC00004C3002F064
:10329000E1BC00004FF0FF334C3002F0DBBC00001B
:1032A000143002F0DDBB00004FF0FF31143002F0AB
:1032B000D7BB00004C3002F0ADBC00004FF0FF3235
:1032C0004C3002F0A7BC00000020704710B500F59C
:1032D0008054D4F8A4381A681178042917D1017CD5
:1032E000022914D15979012352898B4013420ED1FE
:1032F000143002F06FFB024648B1D4F8A4484FF4F2
:10330000407361792068BDE8104000F07FB910BDBE
:10331000406BFFF7DBBF0000704700007FB5124B2A
:1033200001250426044603600023057400F184028D
:1033300043602946C0E902330C4B029014300193DC
:103340004FF44073009602F021FB094B04F69442BF
:10335000294604F14C000294CDE900634FF4407318
:1033600002F0E8FB04B070BDD86800081133000813
:10337000353200080A68202383F311880B790B3358
:1033800042F823004B79133342F823008B7913B1B1
:103390000B3342F8230000F58053C3F8A41802232E
:1033A0000374002383F311887047000038B5037F4E
:1033B000044613B190F85430ABB90125201D022109
:1033C000FFF730FF04F114006FF00101257700F0E2
:1033D00089FE04F14C0084F854506FF00101BDE8FF
:1033E000384000F07FBE38BD10B5012104460430DE
:1033F000FFF718FF0023237784F8543010BD000036
:1034000038B504460025143002F0D8FA04F14C0017
:10341000257702F0A7FB201D84F854500121FFF707
:1034200001FF2046BDE83840FFF750BF90F88030DC
:1034300003F06003202B06D190F881200023212A7D
:1034400003D81F2A06D800207047222AFBD1C0E9E2
:103450001D3303E0034A426707228267C3670120E6
:10346000704700BF2C22002037B500F58055D5F8F5
:10347000A4381A68117804291AD1017C022917D1BD
:103480001979012312898B40134211D100F14C04A8
:10349000204602F027FC58B101A9204602F06EFB3D
:1034A000D5F8A4480246019B2179206800F0C0F8B5
:1034B00003B030BD01F10B03F0B550F8236085B0C7
:1034C00004460D46FEB1202383F3118804EB8507E3
:1034D000301D0821FFF7A6FEFB6806F14C005B6972
:1034E0001B681BB1019002F057FB019803A902F081
:1034F00045FB024648B1039B2946204600F098F858
:10350000002383F3118805B0F0BDFB685A69126887
:10351000002AF5D01B8A013B1340F1D104F180024F
:10352000EAE70000133138B550F82140ECB1202310
:1035300083F3118804F58053D3F8A42813685279D3
:1035400003EB8203DB689B695D6845B10421601869
:10355000FFF768FE294604F1140002F045FA204600
:10356000FFF7B4FE002383F3118838BD70470000D5
:1035700001F038BD01234022002110B5044600F8B7
:10358000303BFDF7BFFF0023C4E9013310BD00004D
:1035900010B52023044683F31188242241600021C2
:1035A0000C30FDF7AFFF204601F03EFD02232370F3
:1035B000002383F3118810BD70B500EB810305462D
:1035C00050690E461446DA6018B110220021FDF74A
:1035D00099FFA06918B110220021FDF793FF314631
:1035E0002846BDE8704001F031BE0000836820220B
:1035F000002103F0011310B5044683601030FDF77D
:1036000081FF2046BDE8104001F0ACBEF0B40125BA
:1036100000EB810447898D40E4683D43A4694581FE
:1036200023600023A2606360F0BC01F0C9BE00000B
:10363000F0B4012500EB810407898D40E4683D4327
:103640006469058123600023A2606360F0BC01F01F
:103650003FBF000070B502230025044624220370FA
:103660002946C0F888500C3040F8045CFDF74AFF4A
:10367000204684F8705001F07DFD63681B6823B11B
:1036800029462046BDE87040184770BD037880F891
:103690008C300523037043681B6810B504460BB1DA
:1036A000042198470023A36010BD000090F88C20EF
:1036B000436802701B680BB1052118477047000072
:1036C00070B590F87030044613B1002380F8703064
:1036D00004F18002204601F069FE63689B68B3B97B
:1036E00094F8803013F0600535D00021204602F0B8
:1036F00013F90021204602F003F963681B6813B137
:10370000062120469847062384F8703070BD204675
:1037100098470028E4D0B4F88630A26F9A4288BF58
:10372000A36794F98030A56F002B4FF0200380F23F
:103730000381002D00F0F280092284F8702083F3C9
:10374000118800212046D4E91D23FFF771FF0023D3
:1037500083F31188DAE794F8812003F07F0343EACA
:10376000022340F20232934200F0C58021D8B3F523
:10377000807F48D00DD8012B3FD0022B00F09380E2
:10378000002BB2D104F1880262670222A267E367CC
:10379000C1E7B3F5817F00F09B80B3F5407FA4D1F2
:1037A00094F88230012BA0D1B4F8883043F00203A2
:1037B00032E0B3F5006F4DD017D8B3F5A06F31D01C
:1037C000A3F5C063012B90D86368204694F882204B
:1037D0005E6894F88310B4F88430B047002884D031
:1037E000436863670368A3671AE0B3F5106F36D0C8
:1037F00040F6024293427FF478AF5C4B636702234A
:10380000A3670023C3E794F88230012B7FF46DAFE8
:10381000B4F8883023F00203A4F88830C4E91D55B9
:10382000E56778E7B4F88030B3F5A06F0ED194F86F
:103830008230204684F88A3001F0FAFC63681B6805
:1038400013B1012120469847032323700023C4E9C4
:103850001D339CE704F18B0363670123C3E72378DF
:10386000042B10D1202383F311882046FFF7BEFEDE
:1038700085F311880321636884F88B5021701B68DD
:103880000BB12046984794F88230002BDED084F8A4
:103890008B300423237063681B68002BD6D0022171
:1038A00020469847D2E794F8843020461D0603F05E
:1038B0000F010AD501F06CFD012804D002287FF425
:1038C00014AF2B4B9AE72B4B98E701F053FDF3E72E
:1038D00094F88230002B7FF408AF94F8843013F012
:1038E0000F01B3D01A06204602D502F02DF8ADE73D
:1038F00002F01EF8AAE794F88230002B7FF4F5AEB0
:1039000094F8843013F00F01A0D01B06204602D596
:1039100002F002F89AE701F0F3FF97E7142284F827
:10392000702083F311882B462A4629462046FFF74C
:103930006DFE85F31188E9E65DB1152284F87020EB
:1039400083F3118800212046D4E91D23FFF75EFE92
:10395000FDE60B2284F8702083F311882B462A465B
:1039600029462046FFF764FEE3E700BF0869000828
:10397000006900080469000838B590F87030044602
:10398000002B3ED0063BDAB20F2A34D80F2B32D8A8
:10399000DFE803F037313108223231313131313152
:1039A00031313737856FB0F886309D4214D2C36805
:1039B0001B8AB5FBF3F203FB12556DB9202383F389
:1039C00011882B462A462946FFF732FE85F31188D7
:1039D0000A2384F870300EE0142384F8703020231A
:1039E00083F31188002320461A461946FFF70EFE7E
:1039F000002383F3118838BDC36F03B198470023B8
:103A0000E7E70021204601F087FF0021204601F072
:103A100077FF63681B6813B1062120469847062389
:103A2000D7E7000010B590F870300446142B29D069
:103A300017D8062B05D001D81BB110BD093B022BAE
:103A4000FBD80021204601F067FF0021204601F04D
:103A500057FF63681B6813B1062120469847062369
:103A600019E0152BE9D10B2380F87030202383F364
:103A7000118800231A461946FFF7DAFD002383F365
:103A80001188DAE7C3689B695B68002BD5D1C36FE7
:103A900003B19847002384F87030CEE7FEF7C2BF29
:103AA000012100230170C0E901330C3000F008BA95
:103AB00010B52023044683F311884160FEF7C0FF50
:103AC00002232370002383F3118810BD10B5202337
:103AD000044683F31188032304F8083BFEF7DEFF56
:103AE0004FF0FF31204600F0C9FA002383F311881C
:103AF000C01A18BF012010BD38B50446202585F333
:103B00001188032504F8085BFEF7E8FF4FF0FF314A
:103B1000204600F0B3FA002383F31188C01A18BFBF
:103B2000012038BD38B50446202585F311880425C9
:103B300004F8085BFEF7F6FF4FF0FF31204600F077
:103B40009DFA002383F31188C01A18BF012038BDE5
:103B500010B52023044683F31188FFF709F80623E4
:103B60002370002383F3118810BD000010B52023BB
:103B7000044683F31188FFF713F802232370002310
:103B800083F3118810BD00000C3000F0B5B90000BF
:103B90000C3000F0BBB9000004480121044B036065
:103BA0000023C0E901330C3000F08AB9F02D002069
:103BB000995D0008CB1D083A23F00703591A521AE1
:103BC000012110B4D2080024C0E9004384600C3005
:103BD0001C605A605DF8044B00F072B92DE9F84F93
:103BE000364ECD1D0F46002818BF0646082A4FEA5C
:103BF000D50538BF082206F10C08341D9146404611
:103C000000F07AF909F10701C9F1000E2246246893
:103C10006CB9404600F07AF93368CBB308224946C4
:103C2000E8009847044698B340E9026730E004EBA7
:103C3000010CD4F804A00CEA0E0C0AF10100ACF15E
:103C4000080304EBC0009842E0D9A0EB0C0CB5EBE4
:103C5000EC0F4FEAEC0BD9D89C421CD204F10802BD
:103C6000AB45A3EB02024FEAE202626009D9691C8C
:103C7000ED43206803EBC1025D44556043F8310019
:103C800022601C465F60404644F8086B00F03EF935
:103C90002046BDE8F88FAA45216802D1116023466D
:103CA000EFE7013504EBC50344F8351003F10801D3
:103CB000401AC01058601360F1E700BFF02D0020DB
:103CC000F8B550F8043C044650F8085CA0F108062A
:103CD00007332F1D0C35DB0840F8043C284600F064
:103CE0000BF93B46BB421A6801D09E4228D90AB163
:103CF000964225D244F8082C54F8042C1E60013258
:103D000054F8081C06EBC200814206D14868024400
:103D100044F8042C0A6844F8082C5868411C03EB4A
:103D2000C1018E4207D154F8042C013202445A607A
:103D300054F8082C1A602846BDE8F84000F0E6B8B0
:103D40001346CFE7024B0022C3E900339A60704765
:103D5000082E0020002382680374054B1B689968B5
:103D60009142FBD25A68036042601060586070470D
:103D7000082E002008B5202383F31188027C00233D
:103D8000052A06D8DFE802F00B050503120E42698A
:103D900013604FF0FF334361FFF7DCFF002383F331
:103DA000118808BD4269936801339360D0E90032FD
:103DB00013605A60EDE70000002382680374054B2E
:103DC0001B6899689142FBD85A6803604260106092
:103DD00058607047082E0020054B19690874186850
:103DE000026853601A60186101230374FCF778BC01
:103DF000082E00204B1C30B5044687B00A4D10D069
:103E00002B6901A8094A00F089F92046FFF7E4FF71
:103E1000049B13B101A800F0BDF92B69586907B0E4
:103E200030BDFFF7D9FFF8E7082E0020753D0008E8
:103E300038B50C4D044641612B6981689A689142FE
:103E400003D8BDE83840FFF785BF1846FFF7B4FF39
:103E500001232C61014623742046BDE83840FCF75D
:103E60003FBC00BF082E0020044B1A681B699068F5
:103E70009B68984294BF002001207047082E0020C4
:103E800010B5084C236820691A685460226001222A
:103E900023611A74FFF790FF01462069BDE81040C6
:103EA000FCF71EBC082E002008B5FFF7DDFF18B197
:103EB000BDE80840FFF7E4BF08BD0000FFF7E0BF22
:103EC000C0E90000816070478368013B002B10B59A
:103ED00083600DDA074C42682369586118605A60A4
:103EE000136043600520FFF777FF2369586910BD11
:103EF0000020FCE7082E002008B5202383F311885A
:103F0000FFF7E2FF002383F3118808BD08B52023E3
:103F100083F3118883680133002B836007DC036817
:103F200000211A68026050601846FFF781FF0023E5
:103F300083F3118808BD0000FEE7000010B50E4CA9
:103F4000FFF700FF00F0DCF801F008FFFFF724FEA8
:103F500080220A49204600F047F8012344F8180C53
:103F6000037400F043FE002383F3118862B6044813
:103F7000BDE8104000F058B8302E00200C69000851
:103F80001C69000808B572B6034B586200F0B2FC19
:103F900000F080FDFEE700BF082E002000F034B9DD
:103FA000EFF3118020B9EFF30583202282F311880B
:103FB0007047000010B530B9EFF30584C4F308046E
:103FC00014B180F3118810BDFFF76EFF84F31188E0
:103FD000F9E70000034A516853685B1A9842FBD81E
:103FE000704700BF001000E082600222028270472A
:103FF0008368A3F17C0243F80C2C026943F83C2C43
:10400000426943F8382C074A43F81C2CC268A3F1D4
:10401000180043F8102C022203F8082C002203F8A1
:10402000072C7047F906000810B5202383F3118888
:10403000FFF7DEFF00210446FFF7FAFE002383F3BB
:104040001188204610BD0000024B1B6958610F20EB
:10405000FFF7C2BE082E0020202383F31188FFF74C
:10406000F3BF000008B50146202383F31188082020
:10407000FFF7C0FE002383F3118808BD054B1B69C1
:1040800021B1036058610320FFF7B4BE4FF0FF3049
:10409000704700BF082E002003682BB10022026089
:1040A00018465961FFF756BE7047000049B1064BEC
:1040B00042681B6918605A60136043600420FFF770
:1040C00099BE4FF0FF307047082E002003689842D9
:1040D00006D01A680260506018465961FFF73ABE70
:1040E0007047000038B504460D462068844200D170
:1040F00038BD036823605C604561FFF72BFEF4E781
:10410000054B4FF0FF3103F11402C3E905220022F1
:10411000C3E90712704700BF082E002070B51C4E7F
:1041200005460C46C0E9032301F012FE334653F85E
:10413000142F9A420DD130620A2C2CBF00190A307C
:104140002A60C5E90124C6E90555BDE8704001F0C3
:10415000E9BD316A431AE31838BF1C469368A3428D
:1041600002D9081901F0EEFD73699A6894420CD8DF
:104170005A68AC602B606A6015609A685D60121BBB
:104180009A604FF0FF33F36170BDA41A1B68ECE72F
:10419000082E002038B51B4C636998420DD0816809
:1041A000D0E9003213605A600022C2609A680A4463
:1041B0009A604FF0FF33E36138BD03682246002167
:1041C00042F8143F93425A60C16003D1BDE83840C1
:1041D00001F0B2BD9A688168256A0A449A6001F0CC
:1041E000B7FD6369411B9A688A42E5D9AB181D1A6D
:1041F000206A092D98BF01F10A02BDE83840104439
:1042000001F0A0BD082E00202DE9F041184C002738
:1042100004F11406656901F09BFD236AAA68C11ABE
:104220008A4215D81344D5F80C802362D5E90032B0
:1042300013605A606369EF60B34201D101F07CFD05
:1042400087F311882869C047202383F31188E1E7A9
:104250006169B14209D013441B1ABDE8F0410A2B31
:104260002CBFC0180A3001F06DBDBDE8F08100BF61
:10427000082E002000207047FEE700007047000075
:104280004FF0FF307047000002290CD0032904D002
:104290000129074818BF00207047032A05D80548A0
:1042A00000EBC2007047044870470020704700BF11
:1042B000006A00083C220020B469000870B59AB07A
:1042C00005460846144601A900F0C2F801A8FDF70A
:1042D00011F9431C0022C6B25B001046C5E9003448
:1042E00023700323023404F8013C01ABD1B2023441
:1042F0008E4201D81AB070BD13F8011B013204F8C8
:10430000010C04F8021CF1E708B5202383F311889F
:104310000348FFF7A9F8002383F3118808BD00BF05
:10432000C02F002090F8803003F01F02012A07D12F
:1043300090F881200B2A03D10023C0E91D3315E03A
:1043400003F06003202B08D1B0F884302BB990F82B
:104350008120212A03D81F2A04D8FFF767B8222A10
:10436000EBD0FAE7034A426707228267C36701205E
:10437000704700BF3322002007B5052917D8DFE8B2
:1043800001F0191603191920202383F31188104A0C
:1043900001210190FFF710F9019802210D4AFFF762
:1043A0000BF90D48FFF72CF8002383F3118803B0B5
:1043B0005DF804FB202383F311880748FEF7F6FF1E
:1043C000F2E7202383F311880348FFF70DF8EBE7AA
:1043D0005469000878690008C02F002038B50C4DDA
:1043E0000C4C2A460C4904F10800FFF767FF05F161
:1043F000CA0204F110000949FFF760FF05F5CA720F
:1044000004F118000649BDE83840FFF757BF00BF68
:10441000984800203C220020346900083E690008CA
:104420004969000870B5044608460D46FDF762F874
:10443000C6B22046013403780BB9184670BD324627
:104440002946FDF737F80028F3D10120F6E70000F0
:104450002DE9F84F05460C46FDF74CF82D49C6B23C
:104460002846FFF7DFFF08B10436F6B22A4928468E
:10447000FFF7D8FF08B11036F6B2632E0DD8DFF87B
:104480009490DFF894A0DFF89C80DFF89CB0234F75
:104490002E7846B92670BDE8F88F29462046BDE83B
:1044A000F84F02F0A9B8252E30D1072249462846F8
:1044B000FDF700F870B93B6807350B3444F80B3C46
:1044C0007B6844F8073C3B8924F8033CBB7A04F83A
:1044D000013CDDE7082251462846FCF7EBFFA8B96E
:1044E000A21C0F4B19780232090911F8081002F8C2
:1044F000041C13F8011B01F00F015B4511F80810B3
:1045000002F8031CEED118340835C1E7013504F870
:10451000016BBDE7206A000849690008286A0008A5
:1045200000E8F11F346A00080CE8F11FBFF34F8F59
:10453000044B1A695107FCD1D3F810215207F8D166
:10454000704700BF0020005208B50D4B1B78ABB977
:10455000FFF7ECFF0B4BDA68D10704D50A4A5A6023
:1045600002F188325A60D3F80C21D20706D5064AE8
:10457000C3F8042102F18832C3F8042108BD00BF4A
:10458000F64A002000200052230167454FF00063E7
:10459000054A1968013104D104339342F9D101204D
:1045A00070470020704700BF0000020808B5114B9B
:1045B0001B78F3B9104B1A69510703D5DA6842F03A
:1045C0004002DA60D3F81021520705D5D3F80C2148
:1045D00042F04002C3F80C21FFF7A8FF064BDA684F
:1045E00042F00102DA60D3F80C2142F00102C3F874
:1045F0000C2108BDF64A0020002000524FF4003084
:10460000704700000120704708B9FFF7BFBF0020C6
:104610007047000008B518BB1248FFF787FFFFF787
:1046200093FF4FF0FF334361C0F814310361FFF78C
:104630007DFF2423C360C36843F08003C360036924
:104640005B07FCD4FFF772FF4FF000604FF40031BE
:1046500000F0FCF9FFF7AAFFBDE80840FFF796BF9E
:10466000002008BD002000522DE9F84F05460C46F9
:10467000104645EA0203DB065DD122F003022B4619
:104680002A44934209D120F01F00DFF8BCB0DFF8C4
:10469000BCA0FFF759FF271844E0196801314AD13F
:1046A0000433EEE705F1784324492548B3F5801F2C
:1046B000244B38BF184603F1F80339BF8846D94662
:1046C0009846D146FFF732FF4FF0FF33A5EB040CBD
:1046D00004F11C010360D8F8003043F00203C8F86D
:1046E0000030231FD9F8006016F00506FAD153F800
:1046F000042F99424CF80320F4D1BFF34F8FFFF7FA
:1047000015FF4FF0FF332022214603602846D8F8DA
:10471000003023F00203C8F8003001F019FF40B95F
:1047200020352034BC42BDD10120FFF73FFFBDE85A
:10473000F88F3046F9E70020F9E700BF0C2000525F
:104740001421005214200052102000521021005257
:1047500010B5084C237828B11BB9FFF7F5FE0123EB
:10476000237010BD002BFCD02070BDE81040FFF777
:104770001DBF00BFF64A00202DE9F74F0E46054643
:10478000002864D011F0050763D139B90822294601
:104790003046FFF723FA0446002848D108224FF09C
:1047A0000109DFF8C08006F00403DFF8BCA006EAC8
:1047B000090BBBF1000F27D0D8F81410C80723D479
:1047C00009F1010908F10C08B9F1060FF1D18FB90F
:1047D000224E2946F0190092FFF700FA044630BB3A
:1047E0001837009A782FF4D12946FFF7F7F90446D5
:1047F000E8B9009A29461A48FFF7F0F9044608BBC1
:10480000204603B0BDE8F08FABB1D8F8141011F01A
:10481000040FD5D01820294600FB09A0CDE90023BC
:10482000FFF7DCF90446DDE900230028C8D02A465A
:104830000021204608E0B107ECD5D8F8141011F09B
:10484000020FE6E72A460021FCF75CFED8E70446A3
:10485000D6E71F35202225F01F05A0E7284B0020B2
:10486000F84A0020486A0008104B00200021FFF79A
:1048700083BF00000121FFF77FBF0000F8B5144D92
:1048800001241827134E40F2FF3200210120FCF7CB
:1048900039FE07FB046001342A6955F80C1FFFF745
:1048A00089F9062CF5D137254FF4C0542046FFF77F
:1048B000E1FF014628B122460748BDE8F840FFF76E
:1048C00079B9C4EBC404013D4FEAD404EED1F8BD7C
:1048D000486A0008104B0020F84A00200421FFF726
:1048E0004BBF00004843FFF7C1BF000008B1FFF70E
:1048F000E7B9704738B5054D00240334696855F8A9
:104900000C0B00F0B5F8122CF7D138BD486A00083E
:1049100070B5104E82B0FFF743FB054601F018FA60
:10492000326803469042336037BF0B4A0A495168E8
:10493000146836BF0131D1E900415160041928469D
:1049400041F100010191FFF735FB2046019902B0CA
:1049500070BD00BFA04B0020A84B002070B5124EC8
:1049600082B0FFF71DFB054601F0F2F932680346FD
:104970009042336037BF0D4A0C495168146836BF06
:104980000131D1E9004151600419284641F100018B
:104990000191FFF70FFB4FF47A7200232046019933
:1049A000FBF786FC02B070BDA04B0020A84B002096
:1049B0000244074BD2B210B5904200D110BD441C46
:1049C00000B253F8200041F8040BE0B2F4E700BF56
:1049D000504000580E4B30B51C6F240405D41C6F9A
:1049E0001C671C6F44F400441C670A4C0244236893
:1049F000D2B243F480732360074B904200D130BDA4
:104A0000441C51F8045B00B243F82050E0B2F4E7D4
:104A100000440258004802585040005807B501228F
:104A200001A90020FFF7C4FF019803B05DF804FB63
:104A300013B50446FFF7F2FFA04205D0012201A9F9
:104A400000200194FFF7C6FF02B010BD0144BFF380
:104A50004F8F064B884204D3BFF34F8FBFF36F8F46
:104A60007047C3F85C022030F4E700BF00ED00E0BF
:104A70000144BFF34F8F064B884204D3BFF34F8FDF
:104A8000BFF36F8F7047C3F870022030F4E700BFA8
:104A900000ED00E07047000070B5054616460C4674
:104AA00001201021FFF71EFF286046733CB120460D
:104AB00036B1FFF713FF2B68186000B19C6070BD22
:104AC000FFF7D8FEF7E7000070B50E46154604461E
:104AD00000B30B6843608368934210D213B100683F
:104AE000FFF704FF637B28462BB1FFF7F7FE20603A
:104AF00020B9A06070BDFFF7BDFEF8E7A560206893
:104B000005F11F01306021F01F01FFF79FFF012019
:104B10002073EFE70120EDE710B5044640B10068CF
:104B2000884205D1606808B1FCF7BAFC0023237302
:104B300010BD000070B50E461546044620B38368CC
:104B4000934210D213B10068FFF7D0FE637B284672
:104B50002BB1FFF7C3FE206020B9A06070BDFFF746
:104B600089FEF8E7A560316819B12A462068FCF78C
:104B700097FC206805F11F01306021F01F01FFF74D
:104B800077FF01202073E9E70120E7E720B1036800
:104B90008B4204BF002303737047000008B1002359
:104BA00003737047044BD3F8D0345B0142BF034B0F
:104BB00001221A70704700BF00400258B04B00201D
:104BC000014B1878704700BFB04B0020EFF309830A
:104BD000054968334A6B22F001024A6383F309886E
:104BE000002383F31188704700EF00E0202080F35A
:104BF000118862B60D4B0E4AD96821F4E0610904B0
:104C0000090C0A430B49DA60D3F8FC2042F08072A9
:104C1000C3F8FC20084AC2F8B01F116841F0010136
:104C200011601022DA7783F82200704700ED00E06F
:104C30000003FA0555CEACC5001000E0202310B5E6
:104C400083F311880E4B5B6813F4006314D0F1EE0C
:104C5000103AEFF309844FF08073683CE361094B2D
:104C6000DB6B236684F30988FFF7FEF810B1064B6F
:104C7000A36110BD054BFBE783F31188F9E700BF83
:104C800000ED00E000EF00E00B0700080E07000851
:104C900070B5BFF34F8FBFF36F8F1A4A0021C2F870
:104CA0005012BFF34F8FBFF36F8F536943F400333C
:104CB0005361BFF34F8FBFF36F8FC2F88410BFF300
:104CC0004F8FD2F8803043F6E074C3F3C900C3F3CA
:104CD0004E335B0103EA0406014646EA8175013959
:104CE000C2F86052F9D2203B13F1200FF2D1BFF38A
:104CF0004F8F536943F480335361BFF34F8FBFF33A
:104D00006F8F70BD00ED00E0FEE700000A4B0B481E
:104D10000B4A90420BD30B4BC11EDA1C121A22F025
:104D200003028B4238BF00220021FCF7EBBB53F893
:104D3000041B40F8041BECE7086D0008584E0020E7
:104D4000584E0020584E0020704700000368196834
:104D5000596043680BB18068184770474FF0A4430F
:104D600010B51C68E00702D52848FFF7EFFFA10740
:104D700002D52748FFF7EAFF620702D52548FFF76B
:104D8000E5FF230702D52448FFF7E0FFE00602D540
:104D90002248FFF7DBFFA10602D52148FFF7D6FF27
:104DA000620602D51F48FFF7D1FF230602D51E4831
:104DB000FFF7CCFFE00502D51C48FFF7C7FFA105B0
:104DC00002D51B48FFF7C2FF620502D51948FFF75D
:104DD000BDFF230502D51848FFF7B8FFE00402D550
:104DE0001648FFF7B3FFA10402D51548FFF7AEFF41
:104DF000620402D51348FFF7A9FF230402D5124825
:104E0000FFF7A4FFBDE81040FFF718BFB84B002024
:104E1000C44B0020D04B0020DC4B0020E84B00208E
:104E2000F44B0020004C00200C4C0020184C0020BB
:104E3000244C0020304C00203C4C0020484C0020EA
:104E4000544C0020604C00206C4C002030B5094BC5
:104E50000021094C10200725196054F8042B013853
:104E6000C3E90121D16003F10C0311615560F4D154
:104E700030BD00BFB44B0020906A00080F28F0B589
:104E80000AD9102806D10F230020144C01272568C9
:104E9000984203D900201DE00346F6E707FA00F622
:104EA000354218D10C23354343432560181D234454
:104EB000C3E902120A4B2044D3F8D42042F0010285
:104EC000C3F8D420D3F8FC2042F00102C3F8FC2040
:104ED000D3F8FC30F0BD0130DAE700BFB44B00205E
:104EE000004402580368D968DA68C90722F03F0213
:104EF000DA6002D51A689207FCD507225A6070471B
:104F000070B5D0E9244300224FF0FF359E6804EBD2
:104F100042135101D3F80009002805DAD3F800093B
:104F200040F08040C3F80009D3F8000B002805DAF0
:104F3000D3F8000B40F08040C3F8000B0132631837
:104F40009642C3F80859C3F8085BE0D24FF001134A
:104F5000C4F81C3870BD000000EB8103D3F80CC00E
:104F60002DE9F043DCF814204E1CD0F89050D2F814
:104F700000E005EB063605EB4118506870450AD392
:104F80000122D5F8343802FA01F123EA0101C5F80B
:104F90003418BDE8F083AEEB0003BCF81040A34228
:104FA00028BF2346D8F81849A4B2B3EB840FF0D831
:104FB0009468A4F1040959F8047F3760A4EB090749
:104FC0001F44042FF7D81C44034494605360D4E773
:104FD000890141F02001016103699B06FCD4122084
:104FE000FEF7F8BF10B50A4C2046FEF7C3FA094B8E
:104FF000C4F89030084BC4F89430084C2046FEF7B3
:10500000B9FA074BC4F89030064BC4F8943010BD81
:10501000784C002000000840F46A0008144D00207D
:1050200000000440006B000870B503780546012BB2
:105030005DD1494BD0F89040984259D1474B0E2151
:105040006520D3F8D82042F00062C3F8D820D3F806
:10505000002142F00062C3F80021D3F80021D3F808
:10506000802042F00062C3F88020D3F8802022F034
:105070000062C3F88020D3F8803000F071FC384B18
:10508000E360384BC4F800380023D5F89060C4F8CA
:10509000003EC02323604FF40413A3633369002B45
:1050A000FCDA01230C203361FEF794FF3369DB0740
:1050B000FCD41220FEF78EFF3369002BFCDA0026A9
:1050C0002846A660FFF71CFF6B68C4F81068DB6811
:1050D000C4F81468C4F81C68002B3AD1224BA361B1
:1050E0004FF0FF336361A36843F00103A36070BD19
:1050F0001E4B9842C8D1194B0E214D20D3F8D82011
:1051000042F00072C3F8D820D3F8002142F00072B8
:10511000C3F80021D3F80021D3F8802042F00072B8
:10512000C3F88020D3F8802022F00072C3F88020DA
:10513000D3F88020D3F8D82022F08062C3F8D8209A
:10514000D3F8002122F08062C3F80021D3F80031A7
:1051500093E7074BC3E700BF784C00200044025898
:105160004014004003002002003C30C0144D0020D9
:10517000083C30C0F8B5D0F89040054600214FF00B
:1051800000662046FFF724FFD5F8941000234FF067
:1051900001128F684FF0FF30C4F83438C4F81C286F
:1051A00004EB431201339F42C2F80069C2F8006B5E
:1051B000C2F80809C2F8080BF2D20B68D5F89020A3
:1051C000C5F89830636210231361166916F0100653
:1051D000FBD11220FEF7FEFED4F8003823F4FE6364
:1051E000C4F80038A36943F4402343F01003A361DB
:1051F0000923C4F81038C4F814380B4BEB604FF097
:10520000C043C4F8103B094BC4F8003BC4F8106914
:10521000C4F80039D5F8983003F1100243F4801334
:10522000C5F89820A362F8BDD06A0008408000103D
:10523000D0F8902090F88A10D2F8003823F4FE635A
:1052400043EA0113C2F80038704700002DE9F84323
:1052500000EB8103D0F890500C468046DA680FFAD4
:1052600081F94801166806F00306731E022B05EB50
:1052700041134FF0000194BFB604384EC3F8101B21
:105280004FF0010104F1100398BF06F1805601FAB6
:1052900003F3916998BF06F5004600293AD0578A72
:1052A00004F15801374349016F50D5F81C180B43DE
:1052B0000021C5F81C382B180127C3F81019A74086
:1052C0005369611E9BB3138A928B9B08012A88BF86
:1052D0005343D8F89820981842EA034301F140025A
:1052E0002146C8F89800284605EB82025360FFF774
:1052F0006FFE08EB8900C3681B8A43EA8453483475
:105300001E4364012E51D5F81C381F43C5F81C7884
:10531000BDE8F88305EB4917D7F8001B21F40041DD
:10532000C7F8001BD5F81C1821EA0303C0E704F1F5
:105330003F030B4A2846214605EB83035A60FFF7DB
:1053400047FE05EB4910D0F8003923F40043C0F8BC
:105350000039D5F81C3823EA0707D7E7008000108A
:1053600000040002D0F894201268C0F89820FFF7DB
:10537000C7BD00005831D0F8903049015B5813F494
:10538000004004D013F4001F0CBF0220012070471E
:105390004831D0F8903049015B5813F4004004D0F4
:1053A00013F4001F0CBF02200120704700EB8101A5
:1053B000CB68196A0B6813604B6853607047000034
:1053C00000EB810330B5DD68AA691368D36019B9B1
:1053D000402B84BF402313606B8A1468D0F8902060
:1053E0001C4402EB4110013C09B2B4FBF3F46343EB
:1053F000033323F0030343EAC44343F0C043C0F83C
:10540000103B2B6803F00303012B0ED1D2F80838B0
:1054100002EB411013F4807FD0F8003B14BF43F03F
:10542000805343F00053C0F8003B02EB4112D2F826
:10543000003B43F00443C2F8003B30BD2DE9F0418E
:10544000D0F8906005460C4606EB4113D3F8087B74
:105450003A07C3F8087B08D5D6F814381B0704D5DB
:1054600000EB8103DB685B689847FA071FD5D6F825
:105470001438DB071BD505EB8403D968CCB98B69DD
:10548000488A5A68B2FBF0F600FB16228AB91868FF
:10549000DA6890420DD2121AC3E90024202383F364
:1054A000118821462846FFF78BFF84F31188BDE859
:1054B000F081012303FA04F26B8923EA02036B8172
:1054C000CB68002BF3D021462846BDE8F0411847B1
:1054D00000EB81034A0170B5DD68D0F890306C694B
:1054E0002668E66056BB1A444FF40020C2F8100943
:1054F0002A6802F00302012A0AB20ED1D3F8080882
:1055000003EB421410F4807FD4F8000914BF40F07C
:10551000805040F00050C4F8000903EB4212D2F86A
:10552000000940F00440C2F800090122D3F8340811
:1055300002FA01F10143C3F8341870BD19B9402EC5
:1055400084BF4020206020681A442E8A8419013CC0
:10555000B4FBF6F440EAC44040F00050C6E7000057
:105560002DE9F041D0F8906004460D4606EB41135A
:10557000D3F80879C3F80879FB071CD5D6F810389A
:10558000DA0718D500EB8103D3F80CC0DCF814302F
:10559000D3F800E0DA6896451BD2A2EB0E024FF07A
:1055A00000081A60C3F80480202383F31188FFF7F2
:1055B0008FFF88F311883B0618D50123D6F83428CD
:1055C000AB40134212D029462046BDE8F041FFF718
:1055D000C3BC012303FA01F2038923EA0203038116
:1055E000DCF80830002BE6D09847E4E7BDE8F0810E
:1055F0002DE9F84FD0F8905004466E69AB691E4013
:1056000016F480586E6103D0BDE8F84FFEF722B85B
:10561000002E12DAD5F8003E9F0705D0D5F8003EDF
:1056200023F00303C5F8003ED5F80438204623F0E4
:105630000103C5F80438FEF739F8300505D52046D2
:10564000FFF75EFC2046FEF721F8B1040CD5D5F833
:10565000083813F0060FEB6823F470530CBF43F4C3
:10566000105343F4A053EB60320704D56368DB6842
:105670000BB120469847F30200F1BA80B70226D555
:10568000D4F8909000274FF0010A09EB4712D2F8A6
:10569000003B03F44023B3F5802F11D1D2F8003B37
:1056A000002B0DDA62890AFA07F322EA0303638109
:1056B00004EB8703DB68DB6813B139462046984763
:1056C0000137D4F89430FFB29B689F42DDD9F006D1
:1056D00019D5D4F89000026AC2F30A1702F00F033A
:1056E00002F4F012B2F5802F00F0CC80B2F5402F1A
:1056F00009D104EB8303002200F58050DB681B6AAC
:10570000974240F0B2803003D5F8185835D5E903F8
:1057100003D500212046FFF791FEAA0303D50121FE
:105720002046FFF78BFE6B0303D502212046FFF7CF
:1057300085FE2F0303D503212046FFF77FFEE802F5
:1057400003D504212046FFF779FEA90203D50521E0
:105750002046FFF773FE6A0203D506212046FFF7B5
:105760006DFE2B0203D507212046FFF767FEEF01F0
:1057700003D508212046FFF761FE700340F1A980A0
:10578000E90703D500212046FFF7EAFEAA0703D563
:1057900001212046FFF7E4FE6B0703D502212046D6
:1057A000FFF7DEFE2F0703D503212046FFF7D8FEC3
:1057B000EE0603D504212046FFF7D2FEA80603D546
:1057C00005212046FFF7CCFE690603D506212046B9
:1057D000FFF7C6FE2A0603D507212046FFF7C0FEC5
:1057E000EB0576D520460821BDE8F84FFFF7B8BE97
:1057F000D4F8909000274FF0010AD4F894305FFA63
:1058000087FB9B689B453FF639AF09EB4B13D3F8F9
:10581000002902F44022B2F5802F24D1D3F80029C8
:10582000002A20DAD3F8002942F09042C3F8002978
:10583000D3F80029002AFBDB5946D4F89000FFF783
:10584000C7FB22890AFA0BF322EA0303238104EB44
:105850008B03DB689B6813B159462046984759462D
:105860002046FFF779FB0137C7E7910701D1D0F850
:105870000080072A02F101029CBF03F8018B4FEA66
:1058800018283DE704EB830300F58050DA68D2F86E
:1058900018C0DCF80820DCE9001CA1EB0C0C00218E
:1058A0008F4208D1DB689B699A683A449A605A68CB
:1058B0003A445A6027E711F0030F01D1D0F8008075
:1058C0008C4501F1010184BF02F8018B4FEA1828D1
:1058D000E6E7BDE8F88F000008B50348FFF788FE4B
:1058E000BDE80840FFF7AAB9784C002008B5034886
:1058F000FFF77EFEBDE80840FFF7A0B9144D002079
:10590000D0F8903003EB4111D1F8003B43F4001381
:10591000C1F8003B70470000D0F8903003EB411114
:10592000D1F8003943F40013C1F800397047000082
:10593000D0F8903003EB4111D1F8003B23F4001371
:10594000C1F8003B70470000D0F8903003EB4111E4
:10595000D1F8003923F40013C1F800397047000072
:10596000090100F16043012203F56143C9B283F8E4
:10597000001300F01F039A4043099B0003F16043AA
:1059800003F56143C3F880211A60704730B50433D2
:10599000039C0172002104FB0325C160C0E906538A
:1059A000049B0363059BC0E90000C0E90422C0E931
:1059B0000842C0E90A11436330BD00000022416A79
:1059C000C260C0E90411C0E90A226FF00101FEF7CC
:1059D00089BB0000D0E90432934201D1C2680AB900
:1059E000181D704700207047036919600021C268C4
:1059F0000132C260C269134482699342036124BFC9
:105A0000436A0361FEF762BB38B504460D46E3689E
:105A10003BB162690020131D1268A3621344E36264
:105A200007E0237A33B929462046FEF73FFB0028DA
:105A3000EDDA38BD6FF00100FBE70000C368C26912
:105A4000013BC3604369134482699342436124BFAD
:105A5000436A436100238362036B03B118477047B5
:105A600070B52023044683F31188866A3EB9FFF798
:105A7000CBFF054618B186F31188284670BDA36A8E
:105A8000E26A13F8015B9342A36202D32046FFF758
:105A9000D5FF002383F31188EFE700002DE9F84FCD
:105AA00004460E46174698464FF0200989F31188A0
:105AB0000025AA46D4F828B0BBF1000F09D1414611
:105AC0002046FFF7A1FF20B18BF311882846BDE8DF
:105AD000F88FD4E90A12A7EB050B521A934528BF99
:105AE0009346BBF1400F1BD9334601F1400251F8F8
:105AF000040B914243F8040BF9D1A36A40364035B8
:105B00004033A362D4E90A239A4202D32046FFF726
:105B100095FF8AF31188BD42D8D289F31188C9E76D
:105B200030465A46FBF7BCFCA36A5E445D445B44C6
:105B3000A362E7E710B5029C0433017204FB032162
:105B4000C460C0E906130023C0E90A33039B036362
:105B5000049BC0E90000C0E90422C0E90842436395
:105B600010BD0000026A6FF00101C260426AC0E924
:105B700004220022C0E90A22FEF7B4BAD0E90423C5
:105B80009A4201D1C26822B9184650F8043B0B6012
:105B90007047002070470000C3680021C2690133CC
:105BA000C3604369134482699342436124BF436ADB
:105BB0004361FEF78BBA000038B504460D46E36832
:105BC0003BB1236900201A1DA262E2691344E3621B
:105BD00007E0237A33B929462046FEF767FA002802
:105BE000EDDA38BD6FF00100FBE7000003691960D2
:105BF000C268013AC260C269134482699342036178
:105C000024BF436A036100238362036B03B1184717
:105C10007047000070B520230D460446114683F3FB
:105C20001188866A2EB9FFF7C7FF10B186F3118875
:105C300070BDA36A1D70A36AE26A01339342A36236
:105C400004D3E16920460439FFF7D0FF002080F338
:105C50001188EDE72DE9F84F04460D469046994628
:105C60004FF0200A8AF311880026B346A76A4FB97D
:105C700049462046FFF7A0FF20B187F31188304640
:105C8000BDE8F88FD4E90A073A1AA8EB060797424D
:105C900028BF1746402F1BD905F1400355F8042BA8
:105CA0009D4240F8042BF9D1A36A40364033A362E9
:105CB000D4E90A239A4204D3E16920460439FFF764
:105CC00095FF8BF311884645D9D28AF31188CDE729
:105CD00029463A46FBF7E4FBA36A3D443E443B4475
:105CE000A362E5E7D0E904239A4217D1C3689BB1C8
:105CF000836A8BB1043B9B1A0ED01360C368013BCF
:105D0000C360C3691A4483699A42026124BF436A2B
:105D10000361002383620123184670470023FBE7D9
:105D200000F0EAB8034B002258631A610222DA60DD
:105D3000704700BF000C0040014B0022DA60704742
:105D4000000C0040014B5863704700BF000C00403E
:105D5000014B586A704700BF000C0040024B034AD9
:105D60001A60034A5A607047C84D0020584E002000
:105D700000000220074B494210B55C68201A084019
:105D80001968821A914203D8944201D35A6010BD17
:105D90000020FCE7C84D002008B5202383F31188BC
:105DA000FFF7E8FF002383F3118808BD4B684360C9
:105DB0008B688360CB68C3600B6943614B69036286
:105DC0008B6943620B6803607047000008B52F4B76
:105DD00040F2FF70D3F8E0100143C3F8E010D3F8AD
:105DE000082102432A48C3F808212A4AD3F8083177
:105DF0001146FFF7DBFF00F5806002F11C01FFF7A1
:105E0000D5FF00F5806002F13801FFF7CFFF00F504
:105E1000806002F15401FFF7C9FF00F5806002F1D4
:105E20007001FFF7C3FF00F5806002F18C01FFF7FE
:105E3000BDFF00F5806002F1A801FFF7B7FF00F594
:105E4000806002F1C401FFF7B1FF00F5806002F14C
:105E5000E001FFF7ABFF00F5806002F1FC01FFF706
:105E6000A5FF02F58C7100F58060FFF79FFF00F041
:105E7000FBF8094B0522C3F898204FF06052C3F895
:105E80009C20064AC3F8A02008BD00BF0044025869
:105E9000000002580C6B000800ED00E01F00080332
:105EA00008B500F0F9FAFEF749F8104BD3F8DC20FA
:105EB00042F04002C3F8DC20D3F8042122F0400273
:105EC000C3F80421D3F80431094B1A6842F00802E0
:105ED0001A601A6842F004021A60FEF763FEFEF7C9
:105EE000CDFCBDE80840FEF779BA00BF0044025877
:105EF0000018024870470000114BD3F8E82042F028
:105F00000802C3F8E820D3F8102142F00802C3F8D1
:105F100010210C4AD3F81031D36B43F00803D3633C
:105F2000C722094B9A624FF0FF32DA6200229A616F
:105F30005A63DA605A6001225A611A60704700BFE2
:105F4000004402580010005C000C0040094A08B5EB
:105F50001169D3680B40D9B29B076FEA0101116147
:105F600007D5202383F31188FEF718F8002383F365
:105F7000118808BD000C004008B54FF0FF31394BC7
:105F8000D3F88020C3F88010D3F880200022C3F813
:105F90008020D3F88000D3F88400C3F88410D3F8AD
:105FA0008400C3F88420D3F88400D86F40F0FF4009
:105FB00040F4FF0040F43F5040F03F00D867D86FF6
:105FC00020F0FF4020F4FF0020F43F5020F03F007D
:105FD000D867D86FD3F888006FEA40506FEA505006
:105FE000C3F88800D3F88800C0F30A00C3F888001B
:105FF000D3F88800D3F89000C3F89010D3F890003D
:10600000C3F89020D3F89000D3F89400C3F894100C
:10601000D3F89400C3F89420D3F89400D3F89800F0
:10602000C3F89810D3F89800C3F89820D3F89800D4
:10603000D3F88C00C3F88C10D3F88C00C3F88C20F4
:10604000D3F88C00D3F89C00C3F89C10D3F89C10B4
:10605000C3F89C20D3F89C30FEF7F8FEBDE808405A
:1060600000F0E6B900440258614B0122C3F8082150
:10607000604BD3F8F42042F00202C3F8F420D3F8C6
:106080001C2142F00202C3F81C210222D3F81C3169
:10609000594BDA605A689104FCD5584A1A600122BB
:1060A0009A60574ADA6000221A614FF440429A61BE
:1060B000514B9A699204FCD51A6842F480721A60B6
:1060C0004C4B1A6F12F4407F04D04FF480321A67A1
:1060D00000221A671A6842F001021A60454B1A68DA
:1060E0005007FCD500221A611A6912F03802FBD160
:1060F000012119604FF0804159605A67414ADA62C4
:10610000414A1A611A6842F480321A60394B1A689F
:106110009103FCD51A6842F480521A601A689204FE
:10612000FCD53A4A3A499A6200225A6319633949BE
:10613000DA6399635A64384A1A64384ADA621A6828
:1061400042F0A8521A602B4B1A6802F02852B2F1A2
:10615000285FF9D148229A614FF48862DA614022BF
:106160001A622F4ADA644FF000521A652D4A5A65B6
:106170002D4A9A6532232D4A1360136803F00F03EA
:10618000022BFAD11B4B1A6942F003021A611A69F9
:1061900002F03802182AFAD1D3F8DC2042F000527B
:1061A000C3F8DC20D3F8042142F00052C3F80421E4
:1061B000D3F80421D3F8DC2042F08042C3F8DC207D
:1061C000D3F8042142F08042C3F80421D3F804211B
:1061D000D3F8DC2042F00042C3F8DC20D3F80421DD
:1061E00042F00042C3F80421D3F80431704700BFE5
:1061F00000800051004402580048025800C000F0DE
:10620000020000010000FF010088900822505000A9
:106210003F020701470204002F040407BD0BFF01E2
:10622000200000200010E0000001010000200052CA
:106230004FF0B04208B5D2F8883003F00103C2F83D
:10624000883023B1044A13680BB150689847BDE801
:106250000840FEF7F3BC00BFD04D00204FF0B04225
:1062600008B5D2F8883003F00203C2F8883023B1B1
:10627000044A93680BB1D0689847BDE80840FEF720
:10628000DDBC00BFD04D00204FF0B04208B5D2F8C1
:10629000883003F00403C2F8883023B1044A13693C
:1062A0000BB150699847BDE80840FEF7C7BC00BF76
:1062B000D04D00204FF0B04208B5D2F8883003F03E
:1062C0000803C2F8883023B1044A93690BB1D0693E
:1062D0009847BDE80840FEF7B1BC00BFD04D002094
:1062E0004FF0B04208B5D2F8883003F01003C2F87E
:1062F000883023B1044A136A0BB1506A9847BDE84D
:106300000840FEF79BBC00BFD04D00204FF0B043CB
:1063100010B5D3F8884004F47872C3F88820A30637
:1063200004D5124A936A0BB1D06A9847600604D527
:106330000E4A136B0BB1506B9847210604D50B4ADC
:10634000936B0BB1D06B9847E20504D5074A136CE9
:106350000BB1506C9847A30504D5044A936C0BB15C
:10636000D06C9847BDE81040FEF768BCD04D0020C7
:106370004FF0B04310B5D3F8884004F47C42C3F822
:106380008820620504D5164A136D0BB1506D9847ED
:10639000230504D5124A936D0BB1D06D9847E004E4
:1063A00004D50F4A136E0BB1506E9847A10404D563
:1063B0000B4A936E0BB1D06E9847620404D5084A1D
:1063C000136F0BB1506F9847230404D5044A936FA1
:1063D0000BB1D06F9847BDE81040FEF72FBC00BF4F
:1063E000D04D002008B50348FCF7E8FBBDE80840A5
:1063F000FEF724BCF824002008B50348FCF7CCFCC9
:10640000BDE80840FEF71ABC1825002008B503486F
:10641000FCF7C2FCBDE80840FEF710BC8425002054
:1064200008B5FFF793FDBDE80840FEF707BC000084
:10643000062108B50846FFF793FA06210720FFF763
:106440008FFA06210820FFF78BFA06210920FFF7B3
:1064500087FA06210A20FFF783FA06211720FFF7A3
:106460007FFA06212820FFF77BFA09217A20FFF71F
:1064700077FA0A215C20FFF773FA07213220FFF731
:106480006FFA0C212520FFF76BFA0C215220BDE892
:106490000840FFF765BA000008B5FFF76DFD00F092
:1064A0000FF8FCF78BFEFDF763F8FCF735FFFDF7FF
:1064B000F5FAFFF71FFDBDE80840FFF731BC00000B
:1064C0000023054A19460133102BC2E9001102F1DD
:1064D0000802F8D1704700BFD04D00200B4601469E
:1064E000184600F027B80000FEF700BAFFF7FCBF1F
:1064F000012838BF012010B504462046FEF7B6F942
:1065000030B900F007F808B900F00CF88047F4E75C
:1065100010BD0000024B1868BFF35B8F704700BFCF
:10652000504E002008B5062000F04AF80120FDF783
:10653000A3FE000010B5054C13462CB10A460146D7
:106540000220AFF3008010BD2046FCE700000000F1
:1065500010B501390244904201D1002005E00378D2
:1065600011F8014FA34201D0181B10BD0130F2E712
:106570001F2938B504460D4604D9162303604FF091
:10658000FF3038BD426C12B152F821304BB9204671
:1065900000F030F82A4601462046BDE8384000F0B9
:1065A00017B8012B0AD0591C03D116230360012010
:1065B000E7E7002442F82540284698470020E0E716
:1065C000024B01461868FFF7D3BF00BF5C220020D2
:1065D00038B5074D00230446084611462B60FDF7E9
:1065E0004FFE431C02D12B6803B1236038BD00BFAE
:1065F000544E0020FDF73EBE034611F8012B03F870
:10660000012B002AF9D170470000000001000000B2
:106610000001000100000000000000000000000078
:1066200052657175657374656420746F206572615D
:106630007365206D6F7265207468616E20776520C8
:1066400063616E0A00457261736520436F6D6D6111
:106650006E642052656365697665640A0050435430
:1066600020444F4E453A2025640A000053544D33D0
:106670003248373F3F3F0053544D3332483734336D
:106680002F37353300000000C02F002018250020D0
:1066900084250020773235710000000000000000E2
:1066A0000000000000000000000000000D170008BE
:1066B000511A0008511A0008111700081517000890
:1066C00019170008511A0008511A0008511A000839
:1066D0001D17000821170008391700084117000886
:1066E0004D1700085117000855170008F82400201E
:1066F0000100000000000000000000006918000810
:10670000811800080D17000861170008B518000867
:106710007D1700084D1900087D1900087917000839
:1067200065170008751700081D17000821170008D5
:1067300039170008411700084D17000851170008C5
:10674000551700080000000000000000F5170008C1
:10675000591700085D170008534644500000000018
:106760004A454445433A204661696C656420746F2C
:106770002064657465637420666C61736820646569
:10678000766963653A2025730A004A454445433AD1
:10679000204661696C656420746F20636F6E666962
:1067A0006720666C617368206465766963653A206A
:1067B00025730A004A454445433A2044657465639D
:1067C00074656420466C617368204465766963650E
:1067D0003A2025730A0045787420466C617368205E
:1067E0004E6F7420466F756E642100006D743235F3
:1067F00071000000EC67000820BA000094660008F1
:10680000EF400000000000000000000031210008FF
:10681000952300086D1A0008711A0008191B00085A
:10682000FD220008751A0008791A0008F1210008F5
:10683000E91A000851220008551F0008811A0008B3
:106840007D1A000825240008E11A00080000000055
:1068500000000000E1240008E9240008CD2400081D
:10686000D5240008F9240008FD240008286E756C62
:106870006C29000000000000912900086929000827
:10688000312900084D2900084D444D4120666169B9
:106890006C757265000000000096000000000000AA
:1068A00000000000000000000000000000000000E8
:1068B000000000008531000871310008AD3100088A
:1068C00099310008A5310008913100087D31000898
:1068D00069310008B9310008000000009532000855
:1068E00081320008BD320008A9320008B532000824
:1068F000A13200088D32000879320008C932000840
:106900000000000001000000000000006D61696EE1
:106910000000000069646C65000000001469000854
:10692000482E0020C02F002001000000393F000841
:10693000000000004172647550696C6F740025425C
:106940004F415244252D424C002553455249414C5C
:10695000250000000200000000000000B53400081F
:106960002535000840004000684800207848002095
:106970000200000000000000030000000000000012
:106980006D3500080000000010000000884800205D
:10699000000000000100000000000000784C002012
:1069A00001010200794300088942000825430008DC
:1069B0000943000843000000BC69000809024300C5
:1069C000020100C032090400000102020100052496
:1069D0000010010524010001042402020524060020
:1069E00001070582030800FF09040100020A0000F4
:1069F0000007050102400000070581024000000079
:106A000012000000086A0008120110010200004094
:106A100009124157000201020301000004030904A6
:106A200025424F415244250044657645426F7848DF
:106A300037763200303132333435363738394142E7
:106A40004344454600000000000000200000020012
:106A50000200000000000030000004000000000000
:106A600000000024000008000400000000040000F2
:106A700000FC000002000000000004300080000064
:106A800000000000000000380000010001000000CC
:106A90004000005280000052C0000052000100522D
:106AA0004001005280010052C00100520002005219
:106AB0004002005280020052C00200520003005205
:106AC0004003005280030052C003005200040052F1
:106AD00000000000C136000879390008253A000896
:106AE00040004000B04D0020B04D002001000000EB
:106AF000C04D0020800000004001000008000000A0
:106B00000001000000040000080000000401A82AA1
:106B100000000000AAAAAAAA00011424FDFF000098
:106B20000000000070A70A00202000000000000004
:106B3000AAAAAAAA00000000FFFF00000009000A9C
:106B4000000000000000000000000000AAAAAAAA9D
:106B500000000000FFFF0000000000000000000037
:106B60000000800A00000000AAAAAAAA00000000F3
:106B7000FFFF00000000000000909900208002004C
:106B800000000000AAAAAAAA00400100FFFF00001E
:106B90000009007007000000000000000000000075
:106BA000AAAAAAAA00000000FFFF0000000000003F
:106BB000000000000000000000000000AAAAAAAA2D
:106BC00000000000FFFF00000000000000000000C7
:106BD0000000000000000000AAAAAAAA000000000D
:106BE000FFFF0000000000000000000000000000A7
:106BF00000000000AAAAAAAA00000000FFFF0000EF
:106C00000000000000000000000000000000000084
:106C1000AAAAAAAA00000000FFFF000000000000CE
:106C2000000000000000000000000000AAAAAAAABC
:106C300000000000FFFF0000000000000000000056
:106C4000A096FF7F01000000250400000000000066
:106C50000000000000006900FF00000000000000CC
:106C60006C6600083F0000005004000077660008D2
:106C70003F000000009600000000080096000000A1
:106C800000080000040000001C6A0008000000006A
:106C900000000000000000000000000000000000F4
:106CA0000000000060220020000000000000000042
:106CB00000000000000000000000000000000000D4
:106CC00000000000000000000000000000000000C4
:106CD00000000000000000000000000000000000B4
:106CE00000000000000000000000000000000000A4
:106CF0000000000000000000000000000000000094
:086D000000000000000000008B
:00000001FF
