:020000040800F2
:1000000000090020B5040008CD250008852500085A
:10001000AD25000885250008A5250008B7040008BF
:10002000B7040008B7040008B7040008C135000889
:10003000B7040008B7040008B704000875430008B7
:10004000B7040008B7040008B7040008B7040008A4
:10005000B7040008B70400085940000885400008AC
:10006000B1400008DD40000809410008B70400085D
:10007000B7040008B7040008B7040008B704000874
:10008000B7040008B7040008B704000839250008C1
:100090006525000875250008B704000835410008EB
:1000A000B7040008B7040008B7040008B704000844
:1000B000B7040008B7040008B7040008B704000834
:1000C000B7040008B7040008B7040008B704000824
:1000D000B70400086545000879450008B704000822
:1000E0009D410008B7040008B7040008B7040008E1
:1000F000B7040008B7040008B7040008B7040008F4
:10010000B7040008B7040008B7040008B7040008E3
:10011000B7040008B7040008B7040008B7040008D3
:10012000B7040008B7040008B7040008B7040008C3
:10013000B7040008B7040008B7040008B7040008B3
:10014000B7040008B7040008B7040008B7040008A3
:10015000B7040008B7040008B7040008B704000893
:10016000B7040008B7040008B7040008B704000883
:10017000B7040008B7040008B7040008B704000873
:10018000B7040008B7040008B7040008B704000863
:10019000B7040008B7040008B7040008B704000853
:1001A0002112000800000000000000000000000014
:1001B00053B94AB9002908BF00281CBF4FF0FF31CE
:1001C0004FF0FF3000F074B9ADF1080C6DE904CECA
:1001D00000F006F8DDF804E0DDE9022304B0704722
:1001E0002DE9F047089D04468E46002B4DD18A42EA
:1001F000944669D9B2FA82F252B101FA02F3C2F11D
:10020000200120FA01F10CFA02FC41EA030E9440AD
:100210004FEA1C48210CBEFBF8F61FFA8CF708FBCE
:1002200016E341EA034306FB07F199420AD91CEBA6
:10023000030306F1FF3080F01F81994240F21C81D8
:10024000023E63445B1AA4B2B3FBF8F008FB103320
:1002500044EA034400FB07F7A7420AD91CEB040455
:1002600000F1FF3380F00A81A74240F20781644425
:10027000023840EA0640E41B00261DB1D4400023AA
:10028000C5E900433146BDE8F0878B4209D9002D0E
:1002900000F0EF800026C5E9000130463146BDE898
:1002A000F087B3FA83F6002E4AD18B4202D3824202
:1002B00000F2F980841A61EB030301209E46002DB1
:1002C000E0D0C5E9004EDDE702B9FFDEB2FA82F206
:1002D000002A40F09280A1EB0C014FEA1C471FFA64
:1002E0008CFE0126200CB1FBF7F307FB131140EA4B
:1002F00001410EFB03F0884208D91CEB010103F118
:10030000FF3802D2884200F2CB804346091AA4B2D9
:10031000B1FBF7F007FB101144EA01440EFB00FEAD
:10032000A64508D91CEB040400F1FF3102D2A64512
:1003300000F2BB800846A4EB0E0440EA03409CE7B1
:10034000C6F12007B34022FA07FC4CEA030C20FA5E
:1003500007F401FA06F31C43F9404FEA1C4900FA7E
:1003600006F3B1FBF9F8200C1FFA8CFE09FB1811FB
:1003700040EA014108FB0EF0884202FA06F20BD96E
:100380001CEB010108F1FF3A80F08880884240F2BE
:100390008580A8F102086144091AA4B2B1FBF9F002
:1003A00009FB101144EA014100FB0EFE8E4508D9FD
:1003B0001CEB010100F1FF346CD28E456AD9023882
:1003C000614440EA0840A0FB0294A1EB0E01A14267
:1003D000C846A64656D353D05DB1B3EB080261EBD5
:1003E0000E0101FA07F722FA06F3F1401F43C5E9AF
:1003F000007100263146BDE8F087C2F12003D840E5
:100400000CFA02FC21FA03F3914001434FEA1C4726
:100410001FFA8CFEB3FBF7F007FB10360B0C43EA18
:10042000064300FB0EF69E4204FA02F408D91CEBC8
:10043000030300F1FF382FD29E422DD902386344C6
:100440009B1B89B2B3FBF7F607FB163341EA034166
:1004500006FB0EF38B4208D91CEB010106F1FF38B5
:1004600016D28B4214D9023E6144C91A46EA0046AC
:1004700038E72E46284605E70646E3E61846F8E63E
:100480004B45A9D2B9EB020864EB0C0E0138A3E787
:100490004646EAE7204694E74046D1E7D0467BE768
:1004A000023B614432E7304609E76444023842E7E0
:1004B000704700BF02E000F000F8FEE772B6374870
:1004C00080F30888364880F3098836483649086042
:1004D00040F20000CCF200004EF63471CEF2000182
:1004E0000860BFF34F8FBFF36F8F40F20000C0F280
:1004F000F0004EF68851CEF200010860BFF34F8F36
:10050000BFF36F8F4FF00000E1EE100A4EF63C7122
:10051000CEF200010860062080F31488BFF36F8FCD
:1005200003F04EFC03F0C2FC4FF055301F491B4A4C
:1005300091423CBF41F8040BFAE71D49184A914229
:100540003CBF41F8040BFAE71A491B4A1B4B9A427D
:100550003EBF51F8040B42F8040BF8E7002018499D
:10056000184A91423CBF41F8040BFAE703F02CFC17
:1005700003F0D8FC144C154DAC4203DA54F8041BBC
:100580008847F9E700F042F8114C124DAC4203DA0B
:1005900054F8041B8847F9E703F014BC0009002055
:1005A000001100200000000808ED00E0000100201C
:1005B00000090020704B0008001100207C11002071
:1005C00080110020583C0020A0010008A401000870
:1005D000A4010008A40100082DE9F04F2DED108AB8
:1005E000C1F80CD0C3689D46BDEC108ABDE8F08F01
:1005F000002383F311882846A047002003F06AF9FE
:10060000FEE703F0CDF800DFFEE70000F8B500F0EC
:1006100019FE03F079FB074603F0C8FB05460028E6
:1006200040D12C4B9F423DD001339F423DD02A4BBD
:1006300027F0FF029A423BD1F8B200F03FFC2E4671
:1006400042F2107400F040FC08B10024264601F08C
:10065000B1F888B3032000F045F80024264635B1F0
:100660001E4B9F4203D003F099FB00242646002036
:1006700003F054FB1A4B1B6913F0400322D00EB158
:1006800000F046F800F052FC00F0DEFD01F0A6FF9D
:100690000546CCB101F0A2FF401BA04214D900F0E6
:1006A00037F8F3E72E460024CCE704460126C9E7D5
:1006B00006464FF47A74C5E7002CD0D04FF47A7414
:1006C0000126CCE71C46DDE700F078FC012003F0B2
:1006D00007F9DEE7010007B0000008B0263A09B0CC
:1006E00000040048084B187003280CD8DFE800F01D
:1006F00008050208022000F003BE022000F0F8BD49
:10070000024B00225A6070478011002084110020A3
:1007100038B501F04FF830B11F4B03221A701F4B50
:1007200000225A6038BD1E4B1E4A19680131F9D0AB
:1007300004339342F9D11C4C194DD4F80428AA4231
:10074000F0D31A4B9B6803F1006303F5D0439A4240
:10075000E8D203F0F7FA03F009FB002000F08EFD69
:100760000220FFF7BFFF124BDA690022DA61D96974
:1007700099699A619B6972B64FF0E0233021C3F802
:10078000085DD4F80038D4F8042881F311889D4618
:1007900083F308881047C5E78011002084110020EA
:1007A00000680008206800080060000800110020B0
:1007B00000100240094A136849F2690099B21B0C03
:1007C00000FB01331360064B186844F2506182B29B
:1007D000000C01FB0200186080B270471411002069
:1007E0001011002010B500211022044600F0A2FDD7
:1007F000034B03CB206061601868A06010BD00BF90
:10080000ACF7FF1F2DE9F041ADF54E7D0DF1340839
:100810006CAC40F2751207460D460EA80021C8F8D0
:10082000001000F087FD4FF4C4720021204600F054
:1008300081FD01F0D3FE254B4FF47A72B0FBF2F04C
:10084000186093E80700022384E807000DF5E970BB
:100850002382FFF7C7FF4EF603431D49238406A8F2
:1008600004F0B6F8192384F832310DF2E32206AB16
:100870000DF1300C1E4603CE6645106051603346C4
:1008800002F10802F6D13378137041460122204666
:1008900000F09CFD00230393AB7E029305F1190346
:1008A000019380B20123CDE904800093E97E05A382
:1008B000D3E90023384602F059FA0DF54E7DBDE824
:1008C000F08100BF9E6AC421818A46EE8C1100200F
:1008D000E04900082DE9F0412C4C237ADAB080463B
:1008E0000D465BBB27A9284600F080FE074600287E
:1008F00042D19DF89D60C82E3ED801464FF4A662B5
:10090000204600F017FD4FF48073C4F8F8314FF41F
:100910000073C4F80C334FF44073C4F820343246EB
:100920000DF19E0104F1090000F0F2FC26449DF84F
:100930009C30777223720BB9EB7E237281220021E7
:1009400006AC27A800F0F6FC0122214627A800F0FB
:1009500089FE00230393AB7E029305F1190380B255
:1009600001932823CDE904400093E97E05A3D3E950
:100970000023404602F0FAF95AB0BDE8F08100BF0A
:10098000AFF3008026417272DF25D7B7A83200206E
:10099000F0B5254E4FF48A7505FB0065F1B096F869
:1009A000D83085F8DC300024D822214685F8E8408C
:1009B0003AA800F0BFFC06F1090000F0B3FCD5F83E
:1009C000E4308DF8F000C2B206AF06F109010DF176
:1009D000F100CDE93A3400F09BFC394601223AA8F7
:1009E00000F06CFE80B2CDE9047008230127CDE948
:1009F000023706F1D803019330230093317A0B4874
:100A000007A3D3E9002302F0B1F9A04206DD01F00B
:100A1000E5FDC5F8E000384671B0F0BD2046FBE7C3
:100A200078F6339F93CACD8DA8320020A4210020F0
:100A30002DE9F0411D4D1E4E1E4F86B0284602F096
:100A4000C1F9034658B30024CDE90344ADF814407E
:100A5000027B8DF8142099684068029403AA03C2AF
:100A60001B68DFF8548043F00043029301F0B8FDA7
:100A7000821941F10003009402A9384601F07CF884
:100A8000A04205DD284602F0A1F988F80040D5E72C
:100A900098F80030072B05D8013388F8003006B0ED
:100AA000BDE8F081014802F091F9F8E7A4210020A7
:100AB00040420F00D8210020DD37002070B50D46E0
:100AC00014461E4602F0AEF850B9022E10D1012C89
:100AD0000ED112A3D3E90023C5E90023012007E0CA
:100AE000282C10D005D8012C09D0052C0FD00020BF
:100AF00070BD302CFBD10BA3D3E90023ECE70BA393
:100B0000D3E90023E8E70BA3D3E90023E4E70BA331
:100B1000D3E90023E0E700BFAFF30080401DA12030
:100B200026812A0B78F6339F93CACD8D9E6AC42105
:100B3000818A46EE26417272DF25D7B7F017304A18
:100B400039059E5638B505460E4C0021013500F09A
:100B5000B7FBA4F82C55B4F82C0500F099FB78B13C
:100B6000B4F82C0500F0A4FB014648B9B4F82C05F4
:100B700000F0A6FBB4F82C350133A4F82C35EAE7D5
:100B800038BD00BFA832002010B50A4B0A4A1A60CF
:100B900003F5805393F860203AB9DC6D2CB1204600
:100BA00000F082FE204603F053FEBDE810400348EB
:100BB00000F07ABED8210020384A000820320020F8
:100BC0002DE9F04F8FB000AF05460C4602F02AF831
:100BD000002849D1237E022B1BD1E38A012B18D197
:100BE00001F0FCFC0646FFF7E5FD03464FF4C87034
:100BF000DFF8C482B3FBF0F206F5167602FB103381
:100C000016FA83F3C8F80030E37E33B9A34B002211
:100C10001A703C37BD46BDE8F08F07F1240120462D
:100C200000F0A2FC0028F4D107F11400FFF7DAFD70
:100C300097F8264007F11401224607F1270003F038
:100C400051FE0028E2D10F2C08D8944B1C70D8F824
:100C50000030A3F51673C8F80030DAE797F82410CF
:100C6000284601F0D7FFD4E7E38A282B2BD010D8F1
:100C7000012B23D0052BCCD1BFF34F8F8849894B53
:100C8000CA6802F4E0621343CB60BFF34F8F00BF2A
:100C9000FDE7302BBDD1844EE17E327A9142B8D14E
:100CA000607E3146002291F8DC50854200F0A5803C
:100CB0000132042A01F58A71F5D1AAE721462846B6
:100CC000FFF7A0FDA5E721462846FFF703FEA0E7B2
:100CD000B2F8EC507B6005F103094FEA99094FEA3D
:100CE0008902D11DC908A8EBC1039D46EB4600212E
:100CF000584600F01FFB04F1EE012A4631445846E5
:100D000000F006FB7B6813B9012000F0B7FA96F8F3
:100D1000D20000F0BDFA044630B9307200F0D8FAC3
:100D2000204600F0ABFAB1E0D6F8D4203AB996F8F4
:100D3000D200B6F82C25824201D8FFF703FFD6F87F
:100D4000D4202A44944208D296F8D200B6F82C2532
:100D50000130824201D8FFF7F5FE70685FFA89F230
:100D6000594600F0EFFA08B9C54679E0726896F87E
:100D7000D2002A447260D6F8D42005EB0209C6F8E6
:100D8000D49000F085FA814509D396F8D220D6F8A0
:100D9000D4000132001B86F8D220C6F8D400FF2D03
:100DA0000FD80024347200F093FA204600F066FA5F
:100DB00000F000FD3D4B188108B9FFF7A9FCC546BE
:100DC00027E7BB6896F8D9000AFB0362FB68D2F8F4
:100DD000E41082F8E83001F58061C2F8E030C2F832
:100DE000E410FFF7D5FDFFF723FE96F8D920013276
:100DF00002F0030286F8D920B6E74FF48A7A0AFB9C
:100E000002F505F1EA013144204600F083FCF86068
:100E100000287FF4FEAE3544012285F8E82001F079
:100E2000DDFBD5F8E020D6ED007ADFED216A801AEF
:100E3000192838BF192040F6B832904228BF104612
:100E4000B8EE677A07EE900AF8EEE77A67EEA67AD0
:100E5000DFED186AE7EE267AFCEEE77AC6ED007A57
:100E600096F8D930BB60BA6873680AFB02F432198D
:100E700092F8E81059B1D2F8E4108B42E8463FF4FA
:100E800027AF002182F8E810C2F8E010C546736869
:100E9000064A9B0A01331381BBE600BF9D21002057
:100EA00000ED00E00400FA05A83200208C110020BB
:100EB000CDCCCC3D6666663FA0210020014B18706A
:100EC000704700BF9811002038B54FF00054134B05
:100ED00022689A4220D1124B627D12481A70237DFB
:100EE00003724FF48073C0F8F8314FF40073C0F808
:100EF0000C3300254FF44073C0F820340A49C0F881
:100F0000E450C922093000F003FAE02229462046C5
:100F100000F010FA012038BD0020FCE79AAD44C56E
:100F200098110020A83200201600002037B500F0EC
:100F300041FC194D194928810223012218486B717F
:100F400001F0EAF900230193164B17490093174863
:100F5000174B4FF4805201F035FE164B197811B142
:100F6000124801F057FE01F039FB0446FFF722FC5E
:100F70004FF4C873B0FBF3F202FB130304F51670D1
:100F800010FA83F00C4B186002F010FF08B10F2329
:100F90002B8103B030BD00BF8C11002040420F00F8
:100FA000D8210020BD0A00089C110020A4210020A7
:100FB000C10B000898110020A02100202DE9F04F5E
:100FC0002DED028B8EA7D7E900670FF23C29D9E9F6
:100FD0000089864C95B00DAD9FED828BFFF728FD03
:100FE000DFF82CB200230C93ADF83C300D936B600E
:100FF00000230DF125028DED008B4FF0010A09A9A8
:1010000058468DF825308DF824A001F035F99DF86B
:1010100024200023002A40F0AB80204601F002FE8D
:101020000546002847D1DFF8ECB101F0D7FADBF82C
:10103000003098423FD301F0D1FA0790FFF7BAFB96
:10104000079A4FF4C873B0FBF3F101FB130302F5E9
:10105000167010FA83F0CBF80000DFF8BCB19BF8F3
:1010600000100791002914BF2B46534610A88DF895
:101070003030FFF7B7FB0799C1F11002D2B2062A50
:1010800010AB28BF062219440DF13100079200F081
:101090003FF9079A0CAB0393182302930132544B88
:1010A000D2B2CDE900A304923B463246204601F07D
:1010B000FFFD8BF8005001F091FA4E4A4E4D136837
:1010C000C31AB3F57A7F32D3106001F089FA024671
:1010D0000B46204601F084FE204601F0A3FD30B30C
:1010E0002B7ADFF838A1002B14BF032302238AF8E0
:1010F000053001F073FA0DF1400B4FF47A730122C1
:10110000B0FBF3F05946CAF80000504600F004FA6C
:1011100018230293394B019380B240F25513CDE965
:1011200003B0009342464B46204601F0C1FD2B7AA6
:10113000CBB101F053FA4FF0000A83464FF48A72A4
:1011400095F8D900504400F0030002FB005393F8D7
:10115000E81089B30AF1010ABAF1040FF0D12B7A31
:10116000002B7FF438AF15B0BDEC028BBDE8F08FDB
:101170004FF0904110A84A6982F010024A61194666
:10118000102200F0D7F80DF126030AAA0CA9584640
:1011900000F0F0FD95E8030011AB83E803009DF833
:1011A0003C308DF84C300C9B109310A9DDE90A23DC
:1011B000204601F0E9FF1BE7D3F8E01049B12B68A6
:1011C000FA2B38BFFA23ABEB01010533B1EB430F28
:1011D000C0D3FFF7DDFB4FF48A720028BAD1BEE717
:1011E000AFF300800000000000000000A4210020F8
:1011F0009C210020D8370020A8320020DC370020B6
:10120000401DA12026812A0BF1C6A7C1D068080F76
:10121000D8210020A02100209D2100208C11002039
:1012200008B5054800F040FEBDE80840034A0449FF
:10123000002003F007BB00BFD82100201838002091
:10124000890B00087047000070B502F013FC094ECE
:10125000094D3080002428683388834208D902F081
:1012600005FC2B6804440133B4F5D04F2B60F2D356
:1012700070BD00BF0C380020E037002002F086BCB3
:1012800000F10060920000F5D04002F02DBC00009B
:10129000054B1A68054B1B889B1A834202D91044E0
:1012A00002F0E4BB00207047E03700200C3800203B
:1012B000024B1B68184402F0DFBB00BFE037002080
:1012C000024B1B68184402F0E9BB00BFE037002066
:1012D000064991F8243033B10023086A81F824309C
:1012E0000822FFF7CDBF0120704700BFE437002080
:1012F000022802BF4FF0904310229A61704700000D
:10130000022802BF4FF090434FF480129A61704759
:1013100010B50023934203D0CC5CC4540133F9E7E9
:1013200010BD000003460246D01A12F9011B002925
:10133000FAD1704702440346934202D003F8011BDE
:10134000FAE770472DE9F8431F4D144695F824201D
:101350000746884652BBDFF870909CB395F824305E
:101360002BB92022FF2148462F62FFF7E3FF95F8B3
:101370002400C0F10802A24228BF2246D6B241464C
:10138000920005EB8000FFF7C3FF95F82430A41B03
:101390001E44F6B2082E17449044E4B285F8246047
:1013A000DBD1FFF795FF0028D7D108E02B6A03EBCC
:1013B00082038342CFD0FFF78BFF0028CBD10020E0
:1013C000BDE8F8830120FBE7E43700202DE9F04772
:1013D0000D46044600219046284640F27912FFF758
:1013E000A9FF234620220021284601F06FFE231D7D
:1013F00002222021284601F069FE631D03222221DA
:10140000284601F063FEA31D03222521284601F092
:101410005DFE04F1080310222821284601F056FE43
:1014200004F1100308223821284601F04FFE04F190
:10143000110308224021284601F048FE04F112035E
:1014400008224821284601F041FE04F1140320221D
:101450005021284601F03AFE04F118034022702181
:10146000284601F033FE04F120030822B02128466B
:1014700001F02CFE04F121030822B821284601F0D6
:1014800025FE04F12207C0263B46314608222846A5
:10149000083601F01BFEB6F5A07F07F10107F3D176
:1014A00004F1320308223146284601F00FFE0027DE
:1014B00004F1330A94F832304FEAC7099F4209F524
:1014C000A47615D3B8F1000F08D1314604F599730D
:1014D0000722284601F0FAFD09F24F16274694F834
:1014E00032213B1B93420CD3F01DC008BDE8F087AE
:1014F0000AEB070308223146284601F0E7FD0137D1
:10150000D8E707F2331331460822284601F0DEFD02
:1015100008360137E3E7000013B50446084600210A
:1015200001602346C0F803102022019001F0CEFD97
:101530000198231D0222202101F0C8FD0198631D9E
:101540000322222101F0C2FD0198A31D03222521BF
:1015500001F0BCFD019804F108031022282101F0DC
:10156000B5FD072002B010BDF7B50023047F009140
:101570000E4607221946054601F06CFC731C0093C9
:10158000012200230721284601F064FCC4B9B31CE2
:101590000093052223460821284601F05BFC0D2418
:1015A0003746B278BB1B934211D32B7FA88A0734EE
:1015B000E408BBB9844294BF0020012003B0F0BD11
:1015C000AB8ADB00083BDB08B3700824E8E7FB1CB0
:1015D0000093214600230822284601F03BFC0834F2
:1015E0000137DEE7201A18BF0120E7E7F7B500232F
:1015F000047F00910E4608221946054601F02AFC98
:10160000731CC4B90822009311462346284601F0F2
:1016100021FC1024012372785F1C013B934211D3FB
:101620002B7FA88A0734E408BBB9844294BF00200A
:10163000012003B0F0BDAB8ADB00083BDB08737010
:101640000824E7E7F31900932146002308222846DF
:1016500001F000FC08343B46DDE7201A18BF0120EA
:10166000E7E70000F8B50E46054614460021812242
:101670003046FFF75FFE2B4608220021304601F07E
:1016800025FD7CB96B1C07220821304601F01EFDA8
:101690000F2401236A785F1C013B934204D3E01DB1
:1016A000C008F8BD0824F4E7EB19214608223046AB
:1016B00001F00CFD08343B46ECE70000F8B50E469F
:1016C000054614460021CE223046FFF733FE2B4656
:1016D00028220021304601F0F9FC7CB905F108030D
:1016E00008222821304601F0F1FC30242F462A7AC6
:1016F0007B1B934204D3E01DC008F8BD2824F5E706
:1017000007F1090321460822304601F0DFFC0834C6
:101710000137ECE7F7B5047F00910E460123102254
:101720000021054601F096FBC4B9B31C00930922C1
:1017300023461021284601F08DFB19243746728874
:10174000BB1B9A4211D82B7FA88A0734E408BBB987
:10175000844294BF0020012003B0F0BDAB8ADB00BF
:10176000103BDB0873801024E8E73B1D0093214603
:1017700000230822284601F06DFB08340137DEE71C
:10178000201A18BF0120E7E730B5094D0A449142FD
:101790000DD011F8013B5840082340F30004013BF1
:1017A0002C4013F0FF0384EA5000F6D1EFE730BD80
:1017B0002083B8EDF7B5364A106851686B4603C30D
:1017C0006A4634493448082303F09CF8044690BB29
:1017D0000A25324A106851686B4603C36A4630498D
:1017E0002D48082303F08EF80446002847D00369EB
:1017F000B3F5663F43D8B0F86620B2F57B7F3ED1A3
:10180000284A024402F15C018B4238D35C3B2249F6
:1018100000209E1AFFF7B8FF3246074604F1640124
:101820000020FFF7B1FFA3689F4228D1E3689842E8
:1018300008BF002523E00369B3F5663F26D8428B35
:10184000B2F57B7F20D1174A024402F110018B428E
:1018500018D3103B104900209D1AFFF795FF2A4628
:10186000064604F118010020FFF78EFFA3689E4290
:1018700002D1E368984201D00D25AAE70025284649
:1018800003B0F0BD1025A4E70C25A2E70B25A0E7C7
:10189000FC490008DC97030000680008054A0008BE
:1018A000909703000898FFF710B5037C044613B91E
:1018B000006803F00FF8204610BD00000023BFF3BE
:1018C0005B8FC360BFF35B8FBFF35B8F8360BFF33E
:1018D0005B8F7047BFF35B8F0068BFF35B8F704710
:1018E00070B505460C30FFF7F5FF05F10806044614
:1018F0003046FFF7EFFFA04206D930466D68FFF78C
:10190000E9FF2544281A70BD3046FFF7E3FF201A8F
:10191000F9E7000070B50546406898B105F1080088
:10192000FFF7D8FF05F10C0604463046FFF7D2FF5B
:101930008442304694BF6D680025FFF7CBFF013C21
:101940002C44201A70BD000038B50C460546FFF740
:10195000C7FFA04210D305F10800FFF7BBFF044406
:101960006868B4FBF0F100FB1144BFF35B8F01200A
:10197000AC60BFF35B8F38BD0020FCE72DE9F04180
:10198000144607460D46FFF7C5FF844228BF0446AC
:10199000D4B1B84658F80C6B4046FFF79BFF304473
:1019A000286040467E68FFF795FF331A9C4203D8B3
:1019B0006C600120BDE8F0816B60A41B3B68AB60EC
:1019C0002044E8600220F5E72046F3E738B50C46EE
:1019D0000546FFF79FFFA04210D305F10C00FFF76B
:1019E00079FF04446868B4FBF0F100FB1144BFF3D5
:1019F0005B8F0120EC60BFF35B8F38BD0020FCE7FC
:101A00002DE9FF41884669460746FFF7B7FF6C4658
:101A100006B204EBC6060025B44209D0626820680D
:101A200008EB0501FFF774FC636808341D44F3E715
:101A300029463846FFF7CAFF284604B0BDE8F081C2
:101A4000F8B505460C300F46FFF744FF05F10806D0
:101A500004463046FFF73EFFA042304688BF6C6820
:101A6000FFF738FF201A386020B130462C68FFF7A6
:101A700031FF2044F8BD000073B5144606460D46FC
:101A8000FFF72EFF844228BF04460190DCB101A974
:101A90003046FFF7D5FF019B33B93268C5E9023301
:101AA000C5E9002401200CE09C4238BF0194286065
:101AB000019868608442F5D93368AB60241AEC6001
:101AC000022002B070BD2046FBE700002DE9FF4177
:101AD0000F466946FFF7D0FF6C4600B204EBC00525
:101AE0000026AC4209D0D4F8048054F8081BB81979
:101AF0004246FFF70DFC4644F3E7304604B0BDE82C
:101B0000F081000038B50546FFF7E0FF04460146C6
:101B10002846FFF719FF204638BD0000302383F325
:101B2000118862B670470000002383F3118862B603
:101B30007047000010B4026854681A4623465DF8E6
:101B4000044B184701207047002070470020704761
:101B500070470000002070470E20704700F580504D
:101B600090F8C800C0F340007047000000F58050B6
:101B700090F9C90070470000F7B50C68BDF82070F7
:101B800014F000541E466FD10B7B082B6CD8FFF766
:101B9000C5FF4569AB685B010CD4AB681B0108D479
:101BA000AC6814F080545DD1FFF7BEFF204603B04F
:101BB000F0BD01240B6804F1180C002BB8BFDB004A
:101BC0004FEA0C1CB4BF43F004035B0545F80C302E
:101BD0000B680FFA84FC13F0804F18BF05EB0C1E46
:101BE00005EB0C1C1EBFDEF8803143F00203CEF87B
:101BF00080310B7BCCF8843105EB04158B68C5F87C
:101C00008C314B68C5F88831DCF8803143F0010332
:101C1000CCF8803100EB441541F268031D4403EB1E
:101C200044130344C5E9002608330D4601F10C0CAA
:101C300055F804EB43F804EB6545F9D184342D885D
:101C40001D8000EB441407F00303257925F00B05F4
:101C50002B432371FFF768FF0097334600F0E0FC49
:101C60000120A4E70224A5E74FF0FF309FE7000022
:101C700013B500F580540191E06DFFF74BFE1F286E
:101C80000AD90199E06D2022FFF7BAFEA0F12003E6
:101C90005842584102B010BD0020FBE708B500F5DE
:101CA0008050FFF73BFFC06DFFF708FEBDE808401E
:101CB000FFF73ABF00220260828142608260704773
:101CC00010B500220023C0E900230023044603814D
:101CD0000C30FFF7EFFF204610BD0000F0B50546C1
:101CE00000F580500C4690F8C83013F0040FC3F391
:101CF000800108BF114661F3820304F1840680F875
:101D0000C83005EB461389B01B79D8072ED57AB3B6
:101D100019072DD46846FFF7D3FF05EB441303F5ED
:101D2000835303F1180703AA10331868596814463F
:101D300003C40833BB422246F7D1186820609B8851
:101D4000A380DDE90E23CDE900230123ADF808309F
:101D50002B686946DB6B2846984705EB46152B79BF
:101D60001A075CBF43F008032B7101E0002AF4D18D
:101D700009B0F0BD2DE9F047074688B007F580545B
:101D800068469A468846FFF7C9FE9146FFF798FFD6
:101D9000E06DFFF7A5FD1F2829D9E06D20226946D7
:101DA000FFF7B0FE202822D103AD444605AB2E46F6
:101DB00003CE9E4220606160354604F10804F6D1EE
:101DC00030682060B388A380DDE90023C9E90023DF
:101DD000BDF80830AAF80030FFF7A6FE4A46534681
:101DE0004146384608B0BDE8F04700F007BCFFF7B1
:101DF0009BFE002008B0BDE8F08700002DE9F84FF9
:101E00000023C0E90133254B044640F8183B0F4638
:101E1000FFF750FF04F12800FFF752FF04F14808D4
:101E200004F582554646083530462036FFF748FF10
:101E3000AE42F9D104F580554FF480534FF00009BC
:101E4000C5E91339C5F848800123EE6504F58758C4
:101E500004F58456C5F8549085F8583085F86030FC
:101E6000083608F108084FF0000A4FF0000B46E969
:101E700008ABA6F11800FFF71DFF203646F8289C96
:101E80004645F4D185F8C97017B1054800F0A0FBAC
:101E9000044B63612046BDE8F88F00BF384A000854
:101EA000104A00080064004010B5044B197804463D
:101EB0004A1C1A70FFF7A2FF204610BD14380020FC
:101EC0002DE9F047002950D0294B2A4FB7FBF1F5F7
:101ED00099428CBF0A231123581EB5FBF3FC03FB68
:101EE0001C53C4B22BB102280346F5D80020BDE82C
:101EF000F0870CF1FF36B6F5806FF7D2C4EBC40E55
:101F00000EF103034FEAE309C3F3C703A4EB03088D
:101F100009F1010A4FF47A755FFA88F009FB05555B
:101F20005AFA88F8B5FBF8F5B5F5617FC1BF0EF137
:101F3000FF33C3F3C703E01AC0B25C1C50FA84F449
:101F40000CFB04F4B7FBF4F4A142CFD1013BDBB2AC
:101F50000F2BCBD80138C0B20728C7D80021107189
:101F600016809170D3700120C1E70846BFE700BF1B
:101F70003F420F000051250270B505460E464FF452
:101F80007A746B695B6803F00103B3424FF00100A0
:101F900004D001F0A5FC013CF3D1204670BD000047
:101FA00030B54269936913F0700F16D000230B4CC3
:101FB000936103F1840200EB421211794D0709D5B8
:101FC000890707D5416954F823508D60117941F094
:101FD000040111710133032BEBD130BD244A0008F9
:101FE00073B51D46436916469A68D207044609D55B
:101FF0009A6801219960C2F34002CDE90065002191
:10200000FFF76CFE63699A68D1050BD59A684FF4A7
:1020100080719960C2F34022CDE90065012120461C
:10202000FFF75CFE63699A68D2030BD59A684FF498
:1020300080319960C2F34042CDE90065022120461B
:10204000FFF74CFE204602B0BDE87040FFF7A8BF86
:10205000F8B50446466900296CD106F10C073868CA
:1020600080076AD006EB01153868D5F8B00110F08A
:10207000040FD5F8B0011ABFC00840F00040400D71
:10208000A061D5F8B0C11CF0020F1CBF40F0804029
:10209000A061D5F8B40106EB011100F00F0084F83F
:1020A0002400D1F8B8012077D1F8B801000A607790
:1020B000D1F8B801000CA077D1F8B801000EE07794
:1020C000D1F8BC0184F82000D1F8BC01000A84F8E2
:1020D0002100D1F8BC01000C84F82200D1F8BC1119
:1020E000090E84F823103821396004F1340004F11A
:1020F000180104F1240551F8046B40F8046BA9425F
:10210000F9D109880180C4E90A23214600232386E6
:1021100051F8283B2046DB6B984704F58052204657
:1021200092F8C83043F0040382F8C830BDE8F840A4
:10213000FFF736BF06F1100791E7F8BD10B504466A
:1021400000F04EFA02460B4652EA030102D0013A71
:1021500063F100030449086820B12146BDE810403E
:10216000FFF776BF10BD00BF10380020F8B500F5AE
:1021700083511E46FFF7D2FCDFF844C0083100242B
:1021800004F1840500EB45152B795F070ED4DB06BF
:102190000CD5D1E900739742B34107D243695CF88B
:1021A00024709F602B7943F004032B710134032CBE
:1021B00001F12001E4D1BDE8F840FFF7B5BC00BF54
:1021C000244A000808B5FFF7A9FCFFF7E9FEBDE8BF
:1021D0000840FFF7A9BC0000F8B5436905469868B8
:1021E00000F0E050B0F1E05F0F461FD0E8B1FFF71C
:1021F00095FC05F583541034002606F1840305EBA5
:1022000043131B791A0706D50136032E04F1200467
:10221000F3D1012007E05B07F6D42146384600F0F1
:1022200039FA0028F0D1FFF77FFCF8BD0120FCE768
:1022300000F5805008B5FFF771FCC06DFFF750FB4B
:10224000FFF772FC43090CBF0120002008BD00000D
:10225000F8B51D46002313700F4606461446FFF7D7
:10226000E7FF80F00100387025B129463046FFF7BE
:10227000B3FF2070F8BD00002DE9B8410C461546AB
:102280001F46804600F0ACF90B462178024609B99A
:10229000287850B14046FFF769FFFFF793FF3B46B0
:1022A0002A462146FFF7D4FF0120BDE8B88100008F
:1022B00010B5FFF733FC174BDA6942F00072DA61B0
:1022C0001A6942F000721A611A6900F5805422F00E
:1022D00000721A61FFF728FC94F8C830DB0718D4A5
:1022E000B9B103211320FFF719FC01F0C7F903214D
:1022F000142001F0C3F90321152001F0BFF994F86F
:10230000C83043F0010384F8C830BDE81040FFF73F
:102310000BBC10BD001002402DE9F04700F58055C0
:1023200088B095F8C930012B0446884616467FD8F8
:10233000804F57F823200AB947F82300D7F800A0A8
:10234000C4F80C802674BAF1000F63D095F8C93038
:10235000012B6FD001212046FFF7AAFFFFF7DEFB1C
:102360006269136823F0020313606269136843F023
:1023700001031360636900275F6101212046FFF7B5
:10238000D3FBFFF7F9FD002800F09580E86DFFF71B
:1023900095FA04F58359BA4609F10809202200216B
:1023A0006846FEF7C7FF02A8FFF784FCCDF818A027
:1023B0006A4609EB07030DF1180E9446BCE80300CA
:1023C000F44518605960624603F10803F5D1DCF862
:1023D0000000186020379CF804201A71602FDDD1AE
:1023E00095F8C8306FF38203002785F8C8306A4635
:1023F00041462046ADF80070ADF802708DF80470CB
:10240000FFF75EFD636948BB4FF400421A6008B0F5
:10241000BDE8F08741F2D00002F01CFA814610B10D
:102420005146FFF7EBFCC7F80090B9F1000F8DD1D2
:102430000020ECE7386803681B6B984701460028CA
:1024400088D13868FFF734FF3868036832465B6824
:102450004146984700287FF47DAFE9E761221A6082
:102460009DF802309DF803201B06120402F470222E
:1024700003F040731343BDF80020C2F30902134375
:102480009DF804201205022E02F4E0020CBF4FF06A
:1024900000410021134362690B43D3616369132236
:1024A0005A616269136823F00103136039462046BC
:1024B000FFF762FD08B96369A6E795F8C93093BBD9
:1024C0006169D1F8002242F00102C1F8002261697D
:1024D000D1F8002222F47C5222F00E02C1F8002230
:1024E0006169D1F8002242F46062C1F80022626999
:1024F000C2F814326269C2F80432626941F6FF71AF
:10250000C2F80C126269C2F840326269C2F8443201
:1025100063690122C3F81C226269D2F8003223F0F9
:102520000103C2F8003295F8C83043F0020385F881
:10253000C8306CE71038002008B500F051F850EAB8
:102540000103024602D0421E61F10001044B1868EB
:1025500010B10B46FFF744FDBDE8084001F064B838
:102560001038002008B50020FFF7E8FDBDE808405E
:1025700001F05AB808B50120FFF7E0FDBDE80840BA
:1025800001F052B800B59BB0EFF3098168226846AC
:10259000FEF7BEFEEFF30583014B9B6BFEE700BF2A
:1025A00000ED00E008B5FFF7EDFF000000B59BB0BF
:1025B000EFF3098168226846FEF7AAFEEFF3058370
:1025C000014B5B6BFEE700BF00ED00E0FEE70000A3
:1025D0000FB408B5029801F019F9FEE701F02EBB1F
:1025E00001F004BB13B56C4684E80600031D94E8B3
:1025F000030083E80500012002B010BD73B58568B3
:10260000019155B11B885B0707D4D0E900369B6B5D
:102610009847019AC1B23046A847012002B070BD68
:10262000F0B5866889B005460C465EB1BDF8383015
:102630005B070AD4D0E900379B6B98472246C1B2AA
:102640003846B047012009B0F0BD00220023CDE993
:1026500000230023ADF808300A4603AB01F1080659
:10266000106851681C4603C40832B2422346F7D1B1
:10267000106820609288A280FFF7B2FF0423ADF8B3
:1026800008302B68CDE90001DB6B69462846984786
:10269000D8E7000030B503680968DD0FB5EBD17FDE
:1026A00023F0604421F060424FEAD1700BD0002B40
:1026B000B8BFA40C0029B8BF920C944202D034BF1A
:1026C0000120002030BD944205D1C1F38070C3F3D6
:1026D00080738342F6D194422CBF00200120F1E7A1
:1026E0002DE9F041456A15B94162BDE8F0814B68BA
:1026F00023F06047C3F38A464FEAD37EC3F3807862
:1027000016EA230638BF3E46AC462B465A68BEEB57
:10271000D27F22F060440AD0002A18DAA40CB44216
:1027200017D19D420FD10D60DEE71346EEE7A742B9
:1027300007D102F08044C2F3807242450BD054B1FD
:10274000EFE708D2EDE7CCF800100B60CDE7B4421C
:1027500001D0B442E5D81A689C46002AE5D1196038
:10276000C3E700002DE9F047089D01F007044FEA98
:10277000D508224405F0070500EBD1004FF47F494E
:10278000944201D1BDE8F08704F0070705F0070A7D
:1027900057453E4638BF5646C6F10806111B8E42C5
:1027A00028BF0E46E10808EBD50E415C13F80EC0B9
:1027B000B94029FA06F721FA0AF1FFB28CEA0101C1
:1027C00047FA0AF739408CEA010C03F80EC034448A
:1027D0003544D5E780EA0120082341F2210201B205
:1027E0004000002980B203F1FF33B8BF504013F01E
:1027F000FF03F4D17047000038B50C468D18A54290
:1028000000D138BD14F8011BFFF7E4FFF7E7000023
:1028100042684AB1136843604389818901339BB29E
:102820009942438138BF83811046704770B588B0A4
:10283000202204460D4668460021FEF77BFD204617
:102840000495FFF7E5FF024658B16B46054608AE12
:102850001C4603CCB44228606960234605F1080594
:10286000F6D1104608B070BD082817D909280CD039
:102870000A280CD00B280CD00C280CD00D280CD01A
:102880000E2814BF4020302070470C2070471020C5
:1028900070471420704718207047202070470000B0
:1028A000082817D90C280CD910280CD914280CD9B1
:1028B00018280CD920280CD930288CBF0F200E20C6
:1028C0007047092070470A2070470B2070470C2082
:1028D00070470D20704700002DE9F843078C072F43
:1028E00004461ED9D0E9029800254FF6FF73C5F1C2
:1028F0002006A5F1200029FA05F108FA06F628FAC3
:1029000000F031430143C9B21846FFF763FF0835B1
:10291000402D0346EBD1E1693A46BDE8F843FFF7A5
:102920006BBF4FF6FF70BDE8F883000010B54B6831
:1029300023B9CA8A63F30902CA8210BD04691A68FE
:102940001C600361C38A013BC3824A60EFE7000059
:102950002DE9F84F1D46CB8A0F46C3F3090105291F
:10296000814692460B4630D00020AAB207F11A04E5
:102970009EB2042E1FFA80F80FD8904503F1010390
:1029800006D3FB8A0A4462F30903FB8201201AE0A2
:102990001AF80060E6540130EAE79045F1D2A1F15F
:1029A000050B1C237C68BBFBF3F203FB12BB1FFA75
:1029B0008BF6002C45D14846FFF72AFF044638B96C
:1029C00078606FF00200BDE8F88F4FF00008E6E78E
:1029D000002606607860ADB24FF0000B454510D977
:1029E0000AEB0803221D13F8011B9155B1B208F13F
:1029F00001081B291FFA88F82BD0454506F101066E
:102A0000F1D8FB8AC3F30902154465F30903BCE757
:102A1000013292B21C462368002BF9D16B1F0B4484
:102A20001C21B3FBF1F301339BB29A42D3D2BBF129
:102A3000000FD0D14846FFF7EBFE20B9C4F800B034
:102A4000BFE70122E7E7C0F800B05E462060044619
:102A5000C1E74545D5D94846FFF7DAFE08B92060F9
:102A6000AFE7C0F800B0002620600446B6E70000DB
:102A70002DE9F04F2DED028B1C4683B05B6901926E
:102A800007468846002B00F09A80238C2BB1E26920
:102A9000002A00F09480072B35D807F10C00FFF7CF
:102AA000B7FE054638B96FF00205284603B0BDEC05
:102AB000028BBDE8F08F14220021FEF73BFC228C34
:102AC000E16905F10800FEF723FC208C013080B29B
:102AD000FFF7E6FEFFF7C8FE013880B22084013020
:102AE00028746369228C1B782A4403F01F0363F067
:102AF0003F0348F000411372384669602946FFF7EA
:102B0000EFFD0125D1E700F10C034FF0000908EEBD
:102B1000103A4FF0800A4E464D4618EE100AFFF765
:102B200077FE83460028BED014220021FEF702FC67
:102B3000002E3AD1019BABF8083002220BF1080EAF
:102B40001FFA82FC0CF10100BCF1060F218C80B24F
:102B500001D88E422BD3FFF7A3FEFFF785FE6269F3
:102B60001278013802F01F028E4208BF4FF0400A6F
:102B700042EA49121BFA80F14AEA020A013048F09F
:102B8000004281F808A08BF81000CBF804205946C9
:102B90003846FFF7A5FD238C0135B3422DB289F0ED
:102BA00001094FF0000AB8D17FE70022C6E7E169CA
:102BB000895D0EF802100136B6B20132C0E76FF03F
:102BC000010572E7F8B515460E463022002104468D
:102BD0001F46FEF7AFFB069B6360B5F5001F079B22
:102BE000A76034BF6A094FF6FF72A36297B2E6612D
:102BF00004F1100000239A4206D800230360A78244
:102C0000E3822383E360F8BD06600133304620365B
:102C1000F1E7000003781BB94BB2002BC8BF01706D
:102C20007047000000787047F8B50C46C969074640
:102C300011B9238C002B37D1257E1F2D34D838783D
:102C400028BB228C072A2CD8268A36F003032BD1E6
:102C50004FF6FF70FFF7D0FD20F001003102400475
:102C600041EA0561400C41EA40254FF6FF722346D8
:102C700029463846FFF7FCFE002807DD6269137815
:102C80000133DBB21F2B88BF00231370F8BD218AEC
:102C90002D0645EA012505432046FFF71DFE0246A5
:102CA000E5E76FF00300F1E76FF00100EEE70000E9
:102CB00070B58AB0044616460021282268461D4693
:102CC000FEF738FBBDF83830ADF810300F9B059398
:102CD0009DF840308DF81830119B07936946BDF878
:102CE0004830ADF820302046CDE90265FFF79CFF63
:102CF0000AB070BD2DE9F041D36905460C46164671
:102D00000BB9138C5BBB377E1F2F28D895F800803A
:102D1000B8F1000F26D03046FFF7DEFD33782102F0
:102D200041EAC33141EA0801338A41EA076141EAD5
:102D300003410246334641F080012846FFF798FEE2
:102D400000280ADD3378012B07D17269137801332B
:102D5000DBB21F2B88BF00231370BDE8F0816FF03A
:102D60000100FAE76FF00300F7E70000F0B58BB061
:102D700004460D4617460021282268461E46FEF7E7
:102D8000D9FA9DF84C305A1E534253418DF8003009
:102D90009DF84030ADF81030119B05939DF84830F8
:102DA0008DF81830149B07936A46BDF85430ADF87F
:102DB000203029462046CDE90276FFF79BFF0BB075
:102DC000F0BD0000406A00B104307047436A1A68E1
:102DD000426202691A600361C38A013BC382704781
:102DE0002DE9F041D0F82080194E14461D46414689
:102DF000002709B9BDE8F081D1E90223A21A65EBE9
:102E00000303964277EB03031ED2036A8B420DD174
:102E1000FFF78CFD036A1B68036203690B60C38ABA
:102E20000161016A013BC3828846E2E7FFF77EFD4C
:102E30000B68C8F8003003690B60C38A0161013B6D
:102E4000C382D8F80010D4E788460968D1E700BFEC
:102E500080841E002DE9F04F8BB00D46DDF85090B8
:102E600014469B468046002800F01981B9F1000FF6
:102E700000F01581531E3F2B00F21181012A03D16E
:102E8000BBF1000F40F00B810023CDE90833B8F807
:102E90001430B5EBC30F4FEAC30703D300200BB0C8
:102EA000BDE8F08F2B199F42D8F80C303ABF7F1B3A
:102EB000FFB227461BB9D8F81030002B7AD0272D47
:102EC0004ED8C5F12806B7424FF000032CBFF6B22A
:102ED0003E4600932946D8F8080008AB3246FFF773
:102EE00041FCA7EB060A35445FFA8AFAB8F81430B9
:102EF00003F10053053BDB000493D8F80C30039337
:102F00002821039B13B1BAF1000F2CD1D8F810007F
:102F100040B1BAF1000F05D0009608AB5246691ACD
:102F2000FFF720FC38B2002FB8D066070AD00AABF2
:102F300003EBD401624211F8083C02F0070213418E
:102F400001F8083C082C3CD9102C40F2B580202C0C
:102F500040F2B780BBF1000F00F09C80082334E002
:102F6000BA460026C2E7049BE02B28BFE023069365
:102F70000B44AB42059314D95A1B03980096924513
:102F800034BF5246D2B2691A08AB04300792FFF739
:102F9000E9FB079A1644AAEB020A1544F6B25FFA57
:102FA0008AFA049B069A05999B1A0493039B1B6853
:102FB0000393A6E70093D8F8080008AB3A462946E1
:102FC000AEE7BBF1000F13D00123B4EBC30F6CD0FD
:102FD000082C12D89DF82030621E23FA02F2D50781
:102FE00006D54FF0FF3202FA04F423438DF8203067
:102FF0009DF8203089F8003051E7102C12D8BDF828
:103000002030621E23FA02F2D10706D54FF0FF32BC
:1030100002FA04F42343ADF82030BDF82030A9F8BB
:1030200000303CE7202C0FD80899631E21FA03F3E7
:10303000DA0705D54FF0FF3202FA04F40C43089486
:10304000089BC9F800302AE7402C2BD0DDE9086541
:10305000611EC4F12102A4F1210326FA01F105FA4F
:1030600002F225FA03F311431943CB0712D50122CB
:10307000A4F12003C4F1200102FA03F322FA01F1C2
:10308000A240524243EA010363EB430332432B4322
:10309000CDE90823DDE90823C9E90023FFE66FF045
:1030A0000100FCE66FF00800F9E6082CA0D9102C0E
:1030B000B3D9202CEED8C3E7BBF1000FADD002236B
:1030C00083E7BBF1000FBBD004237EE730B5012AB4
:1030D000144638BF0124402C85B028BF4024002569
:1030E000012ACDE9025518D81B788DF808306307FE
:1030F0000AD004AB03EBD405624215F8083C02F099
:103100000702934005F8083C00910346224600213F
:1031100002A8FFF727FB05B030BD082AE4D9102A22
:1031200003D81B88ADF80830E1E7202A8DBFD3E92A
:1031300000231B680293CDE90223D8E710B5CB68C2
:103140001BB98B600B618B8210BD04691A681C600F
:103150000361C38A013BC382CA60F0E703064CBF28
:10316000C0F3C0300220704708B50246FFF7F6FFF3
:10317000022806D15306C2F30F2001D100F003004C
:1031800008BDC2F30740FBE72DE9F04F93B0CDE94E
:1031900003230A6804461046FFF7E0FF022814BF25
:1031A000C2F306260026002A0D46824680F2F281EE
:1031B00012F0C04940F0EE81097B002900F0EA815D
:1031C000022803D02378B34240F0E781C2F30463BE
:1031D0000693104602F07F030593FFF7C5FF059B9A
:1031E00029444FEA834848EA0A4848EA4668CE78C4
:1031F00000230022CDE90823F309834648EA0008AA
:10320000029367D0059B009302466768534608A95E
:103210002046B847002800F0C381276A4FB94146CD
:1032200004F10C00FFF702FB074690B96FF00200B3
:1032300054E03B6998450DD03F68002FF9D14146D5
:1032400004F10C00FFF7F2FA07460028EED0236ADB
:103250003B60276297F817C006F01F08CCF3840C78
:10326000ACEB08001FFA80FE0028B8BF0EF120006A
:10327000A8EB0C031FFA83FED7E90221B8BF00B206
:10328000002B0793BEBF0EF120031BB2079352EA37
:10329000010338D0039BDFF824E39A1A049B4FF014
:1032A000000C63EB010196457CEB01032BD36B7B98
:1032B00097F81AE0734519D1029B002B78D00128AA
:1032C00021DC7868F8B9DFF8F0C2944570EB0103AF
:1032D00016D337E0276A27B96FF00C0013B0BDE8AA
:1032E000F08F3B699845B5D03F68F4E7B24890420B
:1032F0007CEB010301D30020F0E7029B002BFAD006
:10330000079B0F2B17DCFA7DB30002F0030203F0DA
:103310007C031343FB7539462046FFF707FB6B7BA5
:10332000BB76029B3BB9FB7DC3F38402013262F39F
:103330008603FB75D0E76A7BBB7E9A42DBD1029B9A
:10334000002B35D0B309022B32D0039BBB60049B0A
:10335000FB60142200210DA8FDF7ECFF039B0A93EC
:10336000049B0B932B1D0C932B7BADF83EB0013BC4
:10337000DBB2ADF83C30069B8DF84230059B8DF8F2
:10338000433094F82C308DF840A083F001038DF881
:1033900044308DF84180A3680AA920469847FB7DF8
:1033A000C3F38403013303F01F039B02FB82A2E7F4
:1033B000FB7DC6F34012B2EBD31F40F0F480C3F3A1
:1033C0008403434540F0F280029A2B7BB609002A21
:1033D0004DD0F2075DD4032B40F2EB80039BBB6022
:1033E000049BFB602B7BAE1D033BDBB232463946B0
:1033F00004F10C00FFF7ACFA00280CDA394620463D
:10340000FFF794FAFB7DC3F38403013303F01F033A
:103410009B02FB820AE7DDE90884AB883B834FF619
:10342000FF73C9F12000A9F1200228FA09F104FA7A
:1034300000F0014324FA02F211431846C9B2FFF723
:10344000C9F909F10809B9F1400F0346E9D1B88279
:103450002A7B033AD2B23146FFF7CEF9FB7DB88220
:10346000DA43C2F3C01262F3C713FB7543E786B9B0
:103470002E1D013BDBB23246394604F10C00FFF74A
:1034800067FA0028BADB2A7BB88A013AD2B2314601
:10349000E2E7F98AC1F30901013B0429DAB25BD8FA
:1034A000281D002307F11B069A4208D910F801CB0A
:1034B00006F801C0013101330529DBB2F4D10399CB
:1034C0000A9104990B91934207F11B010C9138BFAB
:1034D000043379680D9134BF55FA83F300230E93BA
:1034E000FB8AADF83EB0C3F309031A44069B8DF87E
:1034F0004230059B8DF8433094F82C30ADF83C20D9
:1035000083F001038DF8443000238DF840A08DF83E
:1035100041807B602A7BB88A013A291DFFF76CF94C
:103520003B8BB882834203D1A3680AA920469847FF
:1035300020460AA9FFF702FEFB7DBA8AC3F3840383
:10354000013303F01F039B02FB823B8B9A420CBFAB
:1035500000206FF01000C1E67B68002BAFD0052083
:1035600001E01C3033461E68002EFAD1091A081DEE
:103570002E1D184401EB090CBCF11B0F5FFA89F3F7
:103580009DD89A429BD916F8013B00F8013B09F1FE
:103590000109EFE76FF00900A0E66FF00A009DE671
:1035A0006FF00B009AE66FF00D0097E66FF00E00DB
:1035B00094E66FF00F0091E640420F0080841E00F9
:1035C000EFF3098305494A6B22F001024A6368332D
:1035D00083F30988002383F31188704700EF00E02C
:1035E000302080F3118862B60C4B0D4AD96821F463
:1035F000E0610904090C0A43DA60D3F8FC200949A8
:1036000042F08072C3F8FC200A6842F001020A60AE
:103610002022DA7783F82200704700BF00ED00E037
:103620000003FA05001000E010B5302383F3118881
:103630000E4B5B6813F4006314D0F1EE103AEFF315
:103640000984683C4FF08073E361094BDB6B2366B0
:1036500084F3098800F098F810B1064BA36110BDFF
:10366000054BFBE783F31188F9E700BF00ED00E0AD
:1036700000EF00E0030600080606000800F16043C2
:1036800003F561430901C9B283F80013012200F078
:103690001F039A4043099B0003F1604303F5614314
:1036A000C3F880211A60704700F16040090100F5FD
:1036B0006D40C9B2017670470023037582680369C3
:1036C0001B6899689142FBD25A680360426010609F
:1036D0005860704700230375826803691B68996806
:1036E0009142FBD85A68036042601060586070478E
:1036F00008B50846302383F311880B7D032B05D0D2
:10370000042B0DD02BB983F3118808BD8B690022DF
:103710001A604FF0FF338361FFF7CEFF0023F2E71B
:10372000D1E9003213605A60F3E70000FFF7C4BF2D
:10373000054BD9680875186802681A605360012241
:103740000275D860FCF748BF2038002030B50C4B1C
:10375000DD684B1C87B004460FD02B46094A6846EB
:1037600000F0FEF82046FFF7E3FF009B13B1684628
:1037700000F000F9A86907B030BDFFF7D9FFF9E7FD
:1037800020380020F1360008044B1A68DB68906886
:103790009B68984294BF0020012070472038002089
:1037A000084B10B51C68D86822681A605360012263
:1037B0002275DC60FFF78EFF01462046BDE8104011
:1037C000FCF70ABF20380020044B1A68DB689268B7
:1037D0009B689A4201D9FFF7E3BF70472038002069
:1037E00038B5074C07490848012300252370656058
:1037F00000F00AFB0223237085F3118838BD00BF57
:10380000483A00207C4A00082038002008B572B6EB
:10381000044B186500F0CEF900F092FA024B032237
:103820001A70FEE720380020483A002000F0B4B8B3
:10383000EFF3118020B9EFF30583302282F3118872
:103840007047000010B530B9EFF30584C4F30804E5
:1038500014B180F3118810BDFFF7B6FF84F311880F
:10386000F9E700008B60022308618B8208467047ED
:103870008368A3F1840243F8142C026943F8442CB2
:10388000426943F8402C094A43F8242CC26843F8A3
:10389000182C022203F80C2C002203F80B2C044AEB
:1038A00043F8102CA3F12000704700BFF105000879
:1038B0002038002008B5FFF7DBFFBDE80840FFF720
:1038C00035BF0000024BDB6898610F20FFF730BF67
:1038D00020380020302383F31188FFF7F3BF000066
:1038E00008B50146302383F311880820FFF72EFF27
:1038F000002383F3118808BD064BDB6839B14268A9
:1039000018605A60136043600420FFF71FBF4FF038
:10391000FF307047203800200368984206D01A68AC
:103920000260506099611846FFF700BF70470000C1
:1039300010B50A4C23699A6891420CD85A68816084
:103940000360426010609A685860511A99604FF0A5
:10395000FF33A36110BD1B68891AECE720380020F3
:1039600010B4C0E9032300235DF8044B4361FFF763
:10397000DFBF0000036881689A680A449A60426861
:1039800013605A6000230360024B4FF0FF329A61CC
:10399000704700BF2038002070B5124DEB692A46F1
:1039A0000133EB6152F8103F934206D09A68013A16
:1039B0009A6030262C69A36803B170BDD4E9002158
:1039C0000A605160236083F31188D4E903312046F3
:1039D000984786F3118861690029EBD02046FFF7EC
:1039E000A7FFE7E72038002000207047FEE700002F
:1039F000704700004FF0FF3070470000BFF34F8F5B
:103A0000024AD368DB07FCD4704700BF00200240A5
:103A100008B5074B1B7853B9FFF7F0FF054B1A6940
:103A2000120641BF044A5A6002F188325A6008BD4A
:103A3000603A0020002002402301674508B5054B8D
:103A40001B7833B9FFF7DAFF034A136943F08003A9
:103A5000136108BD603A0020002002407F289ABF11
:103A600000F58030C0020020704700004FF4006075
:103A700070470000802070477F2808B50BD8FFF7FB
:103A8000EDFF00F500630268013204D10430834287
:103A9000F9D1012008BD0020FCE700007F2810B507
:103AA00004461CD8FFF7AAFFFFF7B2FF0D4BF32225
:103AB000DA6002221A61FFF7D1FF58611A6942F0F9
:103AC00040021A614FF40061FFF798FF00F034F9EB
:103AD000FFF7B4FF2046BDE81040FFF7CDBF002040
:103AE00010BD00BF002002402DE9F84312F0010391
:103AF000144606D01F4B40F2F3221A600020BDE8A6
:103B0000F88385181C4A954204D91A4A4FF43E712D
:103B10001160F3E7FFF77CFFFFF770FFDFF86880C5
:103B2000451A4FF00109012C05EB01060F4603D899
:103B3000FFF784FF0120E2E73B88C8F8109033804C
:103B40000020FFF75BFFC8F81000338831F8022B24
:103B50009BB29A420CD0074B40F20F321A60074BCF
:103B60001E60074B1C60074B1F60FFF767FFC6E72F
:103B7000023CD8E75C3A002000000408503A0020DC
:103B8000583A0020543A002000200240084908B565
:103B90000B7828B11BB9FFF73BFF01230B7008BD61
:103BA000002BFCD0BDE808400870FFF747BF00BFFE
:103BB000603A002008B54FF420414FF0005000F06B
:103BC000BDF8BDE808404FF400514FF0805000F0C0
:103BD000B5B800000846114600F05EBE012000F0B6
:103BE0005BBE0000084600F075BE000030B583B033
:103BF000FFF71EFE0E4B0F4DDB692A684FF47A71FA
:103C000001FB03F3934237BF0B4A0B495168146819
:103C10002B602EBFD1E90041013151601C1941F1E7
:103C200000010191FFF70EFE0199204603B030BD5F
:103C300020380020643A0020683A002030B583B074
:103C4000FFF7F6FD114B124DDB692A684FF47A71CC
:103C500001FB03F3934237BF0E4A0E4951681468C3
:103C60002B602EBFD1E90041013151601C1941F197
:103C700000010191FFF7E6FD01994FF47A720023EC
:103C80002046FCF795FA03B030BD00BF2038002075
:103C9000643A0020683A002010B50244064BD2B2C4
:103CA000904200D110BD441C00B253F8200041F8EE
:103CB000040BE0B2F4E700BF502800400F4B30B5D2
:103CC0001C6A240407D41C6A44F440741C621C6AF5
:103CD00044F400441C620A4C236843F4807323605C
:103CE0000244084BD2B2904200D130BD441C00B215
:103CF00051F8045B43F82050E0B2F4E700100240B2
:103D0000007000405028004007B5012201A90020A2
:103D1000FFF7C2FF019803B05DF804FB13B504463A
:103D2000FFF7F2FFA04205D0012201A90020019473
:103D3000FFF7C4FF02B010BD7047000070470000DD
:103D400070470000074B45F255521A6002225A6034
:103D500040F6FF729A604CF6CC421A60024B012288
:103D60001A70704700300040743A0020034B1B78F3
:103D70001BB1034B4AF6AA221A607047743A00201E
:103D800000300040044B1A682AB902F1804202F563
:103D90000432526A1A607047703A0020024B4FF0AA
:103DA00080725A62704700BF0010024008B5FFF7EA
:103DB000E9FF024B1868C0F3407008BD703A00205C
:103DC00070470000FEE700000A4B0B480B4A904288
:103DD0000BD30B4BDA1C121AC11E22F003028B42CA
:103DE00038BF00220021FDF7A5BA53F8041B40F8A4
:103DF000041BECE7EC4B0008583C0020583C00202A
:103E0000583C0020FEE7000070B51B4B0163002505
:103E1000044686B0586085620E46FFF7E1FB04F168
:103E20001003C4E904334FF0FF33A361134BE56182
:103E3000D969A5600A462B46C4E9082304F1340178
:103E4000C4E900440E4AE562256580232046FFF759
:103E500009FD0123E0600B4A03750092726801922C
:103E6000B268CDE90223084B6846CDE90435FFF777
:103E700021FD06B070BD00BF483A00202038002068
:103E8000884A00088D4A0008053E00084B684360D8
:103E90008B688360CB68C3600B6943614B690362C5
:103EA0008B6943620B6803607047000008B51B4BC9
:103EB0009A6A42F4FC029A629A6A22F4FC029A62BA
:103EC0009A6A5A6942F4FC025A61154A5B691146C2
:103ED0004FF09040FFF7DAFF02F11C0100F580601F
:103EE000FFF7D4FF02F1380100F58060FFF7CEFF45
:103EF00002F1540100F58060FFF7C8FF02F1700184
:103F000000F58060FFF7C2FF02F18C0100F58060D0
:103F1000FFF7BCFFBDE8084000F05AB800100240AF
:103F2000944A000808B500F093F9FFF759FCBDE882
:103F30000840FFF727BF00007047000010B5214C74
:103F4000A36A63F4FC03A362A36A03F4FC03A36201
:103F50004FF0FF32A36A23692261236900232361A2
:103F60002169E168E260E268E360E268E2691649BB
:103F700042F08052E261E2690A6842F480720A60AB
:103F8000226A02F44072B2F5407F1EBF4FF48032C5
:103F900022622362236A1B0407D4236A43F440731A
:103FA0002362236A43F40043236200F031F9A369DA
:103FB000064A43F00103A361A369136843F0200399
:103FC000136010BD0010024000700040000001406E
:103FD0001E4B1A6842F001021A601A689007FCD55D
:103FE0005A6822F003025A605A6812F00C02FBD1A0
:103FF000196801F0F90119605A601A6842F48032B8
:104000001A601A689103FCD5114A5A604FF40452A1
:10401000DA6230221A631A6842F080721A601A68F3
:104020009201FCD50B4912220A600A6802F00702CD
:10403000022AFAD15A6842F002025A605A6802F023
:104040000C02082AFAD11A6B1A637047001002405A
:1040500000241D0000200240084A08B55169136879
:104060000B4003F00103536123B1054A13680BB100
:1040700050689847BDE80840FFF7D6BA00040140F1
:10408000783A0020084A08B5516913680B4003F0DC
:104090000203536123B1054A93680BB1D068984776
:1040A000BDE80840FFF7C0BA00040140783A00209C
:1040B000084A08B5516913680B4003F004035361C3
:1040C00023B1054A13690BB150699847BDE8084010
:1040D000FFF7AABA00040140783A0020084A08B560
:1040E000516913680B4003F00803536123B1054A7B
:1040F00093690BB1D0699847BDE80840FFF794BABF
:1041000000040140783A0020084A08B55169136854
:104110000B4003F01003536123B1054A136A0BB13E
:10412000506A9847BDE80840FFF77EBA0004014096
:10413000783A0020174B10B55A691C68144004F4F3
:1041400078725A61A30604D5134A936A0BB1D06AF8
:104150009847600604D5104A136B0BB1506B984713
:10416000210604D50C4A936B0BB1D06B9847E2053E
:1041700004D5094A136C0BB1506C9847A30504D5BC
:10418000054A936C0BB1D06C9847BDE81040FFF71F
:104190004BBA00BF00040140783A00201A4B10B51A
:1041A0005A691C68144004F47C425A61620504D5C3
:1041B000164A136D0BB1506D9847230504D5134A69
:1041C000936D0BB1D06D9847E00404D50F4A136E80
:1041D0000BB1506E9847A10404D50C4A936E0BB1F5
:1041E000D06E9847620404D5084A136F0BB1506F24
:1041F0009847230404D5054A936F0BB1D06F9847B5
:10420000BDE81040FFF710BA00040140783A0020E2
:10421000062108B50846FFF731FA06210720FFF707
:104220002DFA06210820FFF729FA06210920FFF7B9
:1042300025FA06210A20FFF721FA06211720FFF7A9
:104240001DFABDE8084006212820FFF717BA000034
:1042500008B5FFF773FE00F067F800F03DF8FFF7D0
:104260006BFEBDE8084000F05DB8000002684368DE
:104270001143016003B1184770470000143000F08B
:104280002FBA00004FF0FF33143000F029BA0000BD
:10429000383000F0A5BA00004FF0FF33383000F09E
:1042A0009FBA0000143000F0F5B900004FF0FF3164
:1042B000143000F0EFB90000383000F04FBA0000C1
:1042C0004FF0FF32383000F049BA0000012914BF26
:1042D0006FF013000020704700F06CB8044B0360CF
:1042E0000023C0E90233436001230374704700BF19
:1042F0003C4B000838B5C36904460D461BB9042180
:104300000844FFF7B3FF294604F1140000F0A6F9B2
:10431000002806DA201D4FF40061BDE83840FFF7A1
:10432000A5BF38BD00F00EB80023054A1946013379
:10433000102BC2E9001102F10802F8D1704700BF4A
:10434000783A00204FF0E023044A5A6100229A6133
:1043500007221A6108210B20FFF7A6B93F190100B7
:1043600008B5302383F31188FFF760FA002383F345
:10437000118808BD08B5FFF7F3FFBDE80840FFF757
:1043800053B90000026843681143016003B1184744
:1043900070470000024A136843F0C003136070477F
:1043A00000380140024A136843F0C00313607047AD
:1043B0000044004037B51D4C1D4D2046FFF78EFFD1
:1043C000009404F114001B490023202200F038F966
:1043D0002022009404F13800174B184900F0B2F97C
:1043E000174BC4E91735174C0C212520FFF746F968
:1043F0002046FFF773FF04F11400134900940023D3
:10440000202200F01DF904F13800104B10490094EF
:10441000202200F097F90F4B0C212620C4E9173514
:1044200003B0BDE83040FFF729B900BFF83A0020DB
:1044300000512502D03B002095430008103C00208D
:1044400000380140643B0020F03B0020A5430008F9
:10445000303C0020004400402DE9F047C66D37682D
:10446000F46934622107054619D014F0080118BF19
:104470004FF48071E20748BF41F02001A30748BF15
:1044800041F04001600748BF41F08001302383F3D1
:104490001188281DFFF776FF002383F31188E205BA
:1044A0000AD5302383F311884FF48061281DFFF76C
:1044B00069FF002383F311884FF030094FF0000AA1
:1044C00014F0200838D13B0616D54FF0300905F11D
:1044D000380A200610D589F31188504600F066F995
:1044E000002836DA0821281DFFF74CFF27F080034B
:1044F0003360002383F31188790614D5620612D540
:10450000302383F31188D5E913239A4208D12B6C09
:1045100033B11021281D27F04007FFF733FF376024
:10452000002383F31188E30619D5AA6E1369B3B18A
:10453000BDE8F0475069184789F31188B38C95F8A6
:10454000641028461940FFF7D5FE8AF31188F469F4
:10455000B6E780B2308588F31188F469B9E7BDE821
:10456000F087000008B50348FFF776FFBDE8084074
:10457000FFF75AB8F83A002008B50348FFF76CFF78
:10458000BDE80840FFF750B8643B0020F8B5154679
:1045900082680669AA420B46816938BF8568761A27
:1045A000B54204460BD218462A46FCF7B1FEA36971
:1045B0002B44A361A3685B1BA3602846F8BD0CD9FC
:1045C00018463246FCF7A4FEAF1BE1683A46304479
:1045D000FCF79EFEE3683B44EBE718462A46FCF7EF
:1045E00097FEE368E5E7000083689342F7B5154658
:1045F000044638BF8568D0E90460361AB5420BD24C
:104600002A46FCF785FE63692B446361A36828464C
:104610005B1BA36003B0F0BD0DD932460191FCF7DE
:1046200077FE0199E068AF1B3A463144FCF770FE13
:10463000E3683B44E9E72A46FCF76AFEE368E4E7FF
:1046400010B50A440024C361029B8460C0E90000E5
:10465000C0E90511C1600261036210BD08B5D0E96F
:104660000532934201D1826882B982680132826048
:104670005A1C42611970D0E904329A4224BFC368BF
:1046800043610021FFF748F9002008BD4FF0FF30DB
:10469000FBE7000070B5302304460E4683F3118813
:1046A000A568A5B1A368A269013BA360531CA361DF
:1046B00015782269934224BFE368A361E3690BB1D3
:1046C00020469847002383F31188284607E03146A7
:1046D0002046FFF711F90028E2DA85F3118870BD52
:1046E0002DE9F74F04460E4617469846D0F81C9021
:1046F0004FF0300A8AF311884FF0000B154665B170
:104700002A4631462046FFF741FF034660B941463D
:104710002046FFF7F1F80028F1D0002383F3118839
:10472000781B03B0BDE8F08FB9F1000F03D0019002
:104730002046C847019B8BF31188ED1A1E448AF36B
:104740001188DCE7C0E90511C160C3611144009B19
:104750008260C0E90000016103627047F8B5044659
:104760000D461646302383F31188A768A7B1A368C6
:10477000013BA36063695A1C62611D70D4E9043275
:104780009A4224BFE3686361E3690BB1204698470E
:10479000002080F3118807E031462046FFF7ACF88F
:1047A0000028E2DA87F31188F8BD0000D0E905237C
:1047B0009A4210B501D182687AB98268013282606A
:1047C0005A1C82611C7803699A4224BFC3688361C2
:1047D0000021FFF7A1F8204610BD4FF0FF30FBE7A6
:1047E0002DE9F74F04460E4617469846D0F81C9020
:1047F0004FF0300A8AF311884FF0000B154665B16F
:104800002A4631462046FFF7EFFE034660B941468F
:104810002046FFF771F80028F1D0002383F31188B8
:10482000781B03B0BDE8F08FB9F1000F03D0019001
:104830002046C847019B8BF31188ED1A1E448AF36A
:104840001188DCE70B460146184600F02DB8000041
:1048500000F040B8012838BF012010B504462046BA
:1048600000F030F830B900F007F808B900F00CF8A3
:104870008047F4E710BD0000024B1868BFF35B8F60
:10488000704700BF503C002008B5062000F084F8B7
:104890000120FFF7ABF80000024B0A4601461868FA
:1048A000FFF798B91811002010B5054C13462CB12C
:1048B0000A4601460220AFF3008010BD2046FCE707
:1048C00000000000024B01461868FFF787B900BFDF
:1048D00018110020024B01461868FFF783B900BF8A
:1048E0001811002010B501390244904201D1002076
:1048F00005E0037811F8014FA34201D0181B10BD49
:104900000130F2E72DE9F041A3B1C91A177801444B
:10491000044603F1FF3C8C42204601D9002009E007
:104920000578BD4204F10104F5D10CEB0405D6185D
:10493000A54201D1BDE8F08115F8018D16F801ED11
:10494000F045F5D0E7E700001F2938B504460D46CD
:1049500004D9162303604FF0FF3038BD426C12B10A
:1049600052F821304BB9204600F030F82A46014673
:104970002046BDE8384000F017B8012B0AD0591C7A
:1049800003D1162303600120E7E7002442F8254005
:10499000284698470020E0E7024B01461868FFF7D9
:1049A000D3BF00BF1811002038B5074D00230446BF
:1049B000084611462B60FFF71DF8431C02D12B68F7
:1049C00003B1236038BD00BF543C0020FFF70CB892
:1049D000034611F8012B03F8012B002AF9D1704787
:1049E0006F72672E6172647570696C6F742E6633B6
:1049F00030332D4D313030323500000040A2E4F12B
:104A0000646891060041A3E5F26569920700000021
:104A10004261642043414E496661636520696E646A
:104A200065782E00800000000080000000008000FB
:104A30000000000000000000351B000819230008DA
:104A400079220008451B0008791B0008751D000825
:104A5000491B0008591B00084D1B0008551B000886
:104A6000511B00089D1C00085D1B0008E52500087F
:104A70006D1B0008711C000863300000784A0008B4
:104A800078380020483A00206D61696E0069646CD6
:104A900065000000A001A82A00000000FAAABEAA32
:104AA00050001424EFFF0000007700007097090009
:104AB0000100000000000000AAAAAAAA010000004C
:104AC000FFFF0000000000000000000000000000E8
:104AD00000000000AAAAAAAA00000000FFFF000030
:104AE00000000000000000000000000000000000C6
:104AF000AAAAAAAA00000000FFFF00000000000010
:104B0000000000000000000000000000AAAAAAAAFD
:104B100000000000FFFF0000000000000000000097
:104B20000000000000000000AAAAAAAA00000000DD
:104B3000FFFF000000000000000000000000000077
:104B40009942000885420008C1420008AD420008B1
:104B5000B9420008A5420008914200087D420008C1
:104B6000CD4200087CB6FF7F01000000000000007D
:104B7000EC030000000000000098030000000000AB
:104B8000FE2A0100D20400001C11002000000000D9
:104B90000000000000000000000000000000000015
:104BA0000000000000000000000000000000000005
:104BB00000000000000000000000000000000000F5
:104BC00000000000000000000000000000000000E5
:104BD00000000000000000000000000000000000D5
:0C4BE000000000000000000000000000C9
:00000001FF
