:020000040800F2
:1000000000070020F5040008B12E0008692E000842
:10001000912E0008692E0008892E0008F7040008B8
:10002000F7040008F7040008F7040008A53E0008DC
:10003000F7040008F7040008F7040008F7040008B4
:10004000F7040008F7040008F7040008F7040008A4
:10005000F7040008F7040008756400089D640008B0
:10006000C5640008ED64000815650008F704000881
:10007000F7040008F7040008F7040008F704000874
:10008000F7040008F7040008F70400081D2E000814
:10009000492E0008592E0008F70400083D650008A5
:1000A000F7040008F7040008F7040008F704000844
:1000B00011660008F7040008F7040008F7040008B8
:1000C000F7040008F7040008F7040008F704000824
:1000D000F7040008F7040008F7040008F704000814
:1000E000A1650008F7040008F7040008F7040008F9
:1000F000F7040008F7040008F7040008F7040008F4
:10010000F7040008F7040008F7040008F7040008E3
:10011000F7040008F7040008F7040008F7040008D3
:10012000F7040008F7040008F7040008F7040008C3
:10013000F7040008F7040008F7040008F7040008B3
:10014000F7040008F7040008F7040008695A0008DB
:10015000F7040008F7040008F7040008F704000893
:10016000F7040008F7040008F7040008F704000883
:10017000F7040008F7040008F7040008F704000873
:10018000F7040008F7040008F7040008F704000863
:10019000F7040008F7040008F7040008F704000853
:1001A000F7040008F7040008F7040008F704000843
:1001B000F7040008F7040008F7040008F704000833
:1001C000F7040008F7040008F7040008F704000823
:1001D000F7040008F7040008F7040008F704000813
:1001E000651800080000000000000000000000008A
:1001F00053B94AB9002908BF00281CBF4FF0FF318E
:100200004FF0FF3000F074B9ADF1080C6DE904CE89
:1002100000F006F8DDF804E0DDE9022304B07047E1
:100220002DE9F047089D04468E46002B4DD18A42A9
:10023000944669D9B2FA82F252B101FA02F3C2F1DC
:10024000200120FA01F10CFA02FC41EA030E94406D
:100250004FEA1C48210CBEFBF8F61FFA8CF708FB8E
:1002600016E341EA034306FB07F199420AD91CEB66
:10027000030306F1FF3080F01F81994240F21C8198
:10028000023E63445B1AA4B2B3FBF8F008FB1033E0
:1002900044EA034400FB07F7A7420AD91CEB040415
:1002A00000F1FF3380F00A81A74240F207816444E5
:1002B000023840EA0640E41B00261DB1D44000236A
:1002C000C5E900433146BDE8F0878B4209D9002DCE
:1002D00000F0EF800026C5E9000130463146BDE858
:1002E000F087B3FA83F6002E4AD18B4202D38242C2
:1002F00000F2F980841A61EB030301209E46002D71
:10030000E0D0C5E9004EDDE702B9FFDEB2FA82F2C5
:10031000002A40F09280A1EB0C014FEA1C471FFA23
:100320008CFE0126200CB1FBF7F307FB131140EA0A
:1003300001410EFB03F0884208D91CEB010103F1D7
:10034000FF3802D2884200F2CB804346091AA4B299
:10035000B1FBF7F007FB101144EA01440EFB00FE6D
:10036000A64508D91CEB040400F1FF3102D2A645D2
:1003700000F2BB800846A4EB0E0440EA03409CE771
:10038000C6F12007B34022FA07FC4CEA030C20FA1E
:1003900007F401FA06F31C43F9404FEA1C4900FA3E
:1003A00006F3B1FBF9F8200C1FFA8CFE09FB1811BB
:1003B00040EA014108FB0EF0884202FA06F20BD92E
:1003C0001CEB010108F1FF3A80F08880884240F27E
:1003D0008580A8F102086144091AA4B2B1FBF9F0C2
:1003E00009FB101144EA014100FB0EFE8E4508D9BD
:1003F0001CEB010100F1FF346CD28E456AD9023842
:10040000614440EA0840A0FB0294A1EB0E01A14226
:10041000C846A64656D353D05DB1B3EB080261EB94
:100420000E0101FA07F722FA06F3F1401F43C5E96E
:10043000007100263146BDE8F087C2F12003D840A4
:100440000CFA02FC21FA03F3914001434FEA1C47E6
:100450001FFA8CFEB3FBF7F007FB10360B0C43EAD8
:10046000064300FB0EF69E4204FA02F408D91CEB88
:10047000030300F1FF382FD29E422DD90238634486
:100480009B1B89B2B3FBF7F607FB163341EA034126
:1004900006FB0EF38B4208D91CEB010106F1FF3875
:1004A00016D28B4214D9023E6144C91A46EA00466C
:1004B00038E72E46284605E70646E3E61846F8E6FE
:1004C0004B45A9D2B9EB020864EB0C0E0138A3E747
:1004D0004646EAE7204694E74046D1E7D0467BE728
:1004E000023B614432E7304609E76444023842E7A0
:1004F000704700BF02E000F000F8FEE772B6374830
:1005000080F30888364880F3098836483649086001
:1005100040F20000CCF200004EF63471CEF2000141
:100520000860BFF34F8FBFF36F8F40F20000C0F23F
:10053000F0004EF68851CEF200010860BFF34F8FF5
:10054000BFF36F8F4FF00000E1EE100A4EF63C71E2
:10055000CEF200010860062080F31488BFF36F8F8D
:1005600004F04AFF05F02EFE4FF055301F491B4A9C
:1005700091423CBF41F8040BFAE71D49184A9142E9
:100580003CBF41F8040BFAE71A491B4A1B4B9A423D
:100590003EBF51F8040B42F8040BF8E7002018495D
:1005A000184A91423CBF41F8040BFAE704F028FFD7
:1005B00005F05CFE144C154DAC4203DA54F8041BF4
:1005C0008847F9E700F042F8114C124DAC4203DACB
:1005D00054F8041B8847F9E704F010BF0007002017
:1005E000002300200000000808ED00E000010020CA
:1005F00000070020F86B000800230020B023002033
:10060000B023002048560020E0010008E401000863
:10061000E4010008E40100082DE9F04F2DED108AF7
:10062000C1F80CD0C3689D46BDEC108ABDE8F08FC0
:10063000002383F311882846A047002004F0EAF93C
:10064000FEE704F043F900DFFEE70000F8B501F033
:100650001BF904F06BFE074604F0BAFE0546B8BB72
:10066000204B9F4234D001339F4234D01E4B27F0A1
:10067000FF029A4232D1F8B200F012FF2E4642F247
:10068000107400F013FF08B10024264601F0FEFCB0
:1006900020B1032000F07CF80024264635B1134B2E
:1006A0009F4203D004F08CFE00242646002004F074
:1006B00047FE0EB100F082F801F098FA00F062FFF8
:1006C00001F048F9204600F0D5F800F077F8F9E796
:1006D0002E460024D5E704460126D2E7064641F21D
:1006E0008834CEE7010007B0000008B0263A09B010
:1006F00008B501F001F9A0F120035842584108BDA6
:1007000007B541F21203022101A8ADF8043001F04F
:1007100011F903B05DF804FB38B5302383F3118879
:10072000174803680BB104F041FA164A1448002335
:100730004FF47A7104F030FA002383F31188124CDD
:10074000236813B12368013B2360636813B16368B6
:10075000013B63600D4D2B7833B963687BB9022090
:1007600001F0BEF9322363602B78032B07D1636855
:100770002BB9022001F0B4F94FF47A73636038BDED
:10078000B023002019070008D0240020C82300202F
:10079000084B187003280CD8DFE800F008050208A1
:1007A000022001F093B9022001F086B9024B002229
:1007B0005A607047C8230020D024002010B501F0F3
:1007C00065FC30B1244B03221A70244B00225A607E
:1007D00010BD234B234A1C4619680131F8D004335D
:1007E0009342F9D16268204B9A42F1D91F4B9B6822
:1007F00003F1006303F580339A42E9D204F0B4FDBB
:1008000004F0C6FD002001F0BFF80220FFF7C0FF92
:10081000174B1A6C00221A64196E1A66196E596CFD
:100820005A64596E5A665A6E1A6942F000521A6139
:100830001A6922F000521A611B6972B64FF0E02368
:100840003021C3F8084DD4E9003281F311889D4668
:1008500083F308881047BBE7C8230020D02400207A
:100860000000010820000108FFFF0008002300200D
:10087000003802402DE9F04F93B0AC4B009020229D
:10088000FF210AA89D6801F05BF9A94A1378A3B972
:10089000A848012103601170302383F31188036895
:1008A0000BB104F083F9A44AA24800234FF47A71F3
:1008B00004F072F9002383F31188009B13B19F4B5E
:1008C000009A1A609E4A009C1378032B1EBF0023D7
:1008D00013709A4A4FF0000A18BF5360D346564629
:1008E000D146012001F0F2F824B1944B1B68002B93
:1008F00000F01582002000F0FFFF0390039B002B07
:1009000001DA00F087FE039B002BEDDB012001F0F4
:10091000D3F8039B213B162BE3D801A252F823F016
:100920007D090008A5090008390A0008E308000845
:10093000E3080008E3080008C30A0008930C000855
:10094000AD0B00080F0C0008370C00085D0C000808
:10095000E30800086F0C0008E3080008E10C000839
:100960001D0A0008E3080008250D00088909000891
:100970001D0A0008E30800080F0C00080220FFF71A
:10098000B7FE002840F0F581009B0221BAF1000F6C
:1009900008BF1C4605A841F21233ADF8143000F030
:1009A000C9FF9EE74FF47A7000F0A6FF071EEBDB4D
:1009B0000220FFF79DFE0028E6D0013F052F00F240
:1009C000DA81DFE807F0030A0D10133605230593DB
:1009D000042105A800F0AEFF17E054480421F9E710
:1009E00058480421F6E758480421F3E74FF01C0863
:1009F000404600F0CBFF08F104080590042105A84B
:100A000000F098FFB8F12C0FF2D1012000FA07F79F
:100A100047EA0B0B5FFA8BFB4FF0000901F0DCF8A3
:100A200026B10BF00B030B2B08BF0024FFF768FE69
:100A300057E746480421CDE7002EA5D00BF00B0365
:100A40000B2BA1D10220FFF753FE074600289BD0B5
:100A5000012000F099FF0220FFF79AFE00261FFAFE
:100A600086F8404600F0A0FF044690B100214046C1
:100A700000F0B2FF01360028F1D1BA46044641F237
:100A80001213022105A8ADF814303E4600F052FFC3
:100A900027E70120FFF77CFE2546244B9B68AB42ED
:100AA00007D9284600F072FF013040F06781043515
:100AB000F3E7234B00251D70204BBA465D603E4690
:100AC000ACE7002E3FF460AF0BF00B030B2B7FF471
:100AD0005BAF0220FFF75CFE322000F00DFFB0F1AB
:100AE0000008FFF651AF18F003077FF44DAF0F4A2F
:100AF000926808EB050393423FF646AFB8F5807F56
:100B00003FF742AF124B0193B84523DD4FF47A70A3
:100B100000F0F2FE0390039A002AFFF635AF019B26
:100B2000039A03F8012B0137EDE700BF00230020F3
:100B3000CC240020B023002019070008D024002076
:100B4000C823002004230020082300200C230020B9
:100B5000CC230020C820FFF7CBFD074600283FF438
:100B600013AF1F2D11D8C5F1200242450AAB25F065
:100B7000030028BF424683490192184400F0BAFF9F
:100B8000019A8048FF2100F0DBFF4FEAA8037D496E
:100B90000193C8F38702284600F0DAFF06460028D2
:100BA0003FF46DAF019B05EB830537E70220FFF7AC
:100BB0009FFD00283FF4E8AE00F02EFF00283FF430
:100BC000E3AE0027B846704B9B68BB4218D91F2F75
:100BD00011D80A9B01330ED027F0030312AA134445
:100BE00053F8203C05934046042205A901F006FA7B
:100BF00004378046E7E7384600F0C8FE0590F2E784
:100C0000CDF81480042105A800F094FE06E7002327
:100C1000642104A8049300F083FE00287FF4B4AE9E
:100C20000220FFF765FD00283FF4AEAE049800F007
:100C3000DBFE0590E6E70023642104A8049300F09E
:100C40006FFE00287FF4A0AE0220FFF751FD0028C0
:100C50003FF49AAE049800F0D7FEEAE70220FFF7CF
:100C600047FD00283FF490AE00F0E6FEE1E70220E9
:100C7000FFF73EFD00283FF487AE05A9142000F0E1
:100C8000E1FE04210746049004A800F053FE394613
:100C9000B9E7322000F030FE071EFFF675AEBB0745
:100CA0007FF472AE384A926807EB090393423FF62D
:100CB0006BAE0220FFF71CFD00283FF465AE27F065
:100CC00003074F44B9453FF4A9AE484600F05EFE25
:100CD0000421059005A800F02DFE09F10409F1E7B3
:100CE0004FF47A70FFF704FD00283FF44DAE00F09A
:100CF00093FE002844D00A9B01330BD008220AA996
:100D0000002000F025FF00283AD02022FF210AA869
:100D100000F016FFFFF7F4FC1C4803F081FE13B04F
:100D2000BDE8F08F002E3FF42FAE0BF00B030B2B22
:100D30007FF42AAE0023642105A8059300F0F0FD9E
:100D4000074600287FF420AE0220FFF7D1FC804642
:100D500000283FF419AEFFF7D3FC41F2883003F0CE
:100D60005FFE059800F06AFF464600F035FF3C46FE
:100D7000B7E5064652E64FF0000905E6BA467EE6BC
:100D800037467CE6CC23002000230020A08601000B
:100D9000094A136849F2690099B21B0C00FB013340
:100DA0001360064B186844F2506182B2000C01FBDC
:100DB0000200186080B2704718230020142300201E
:100DC00010B500211022044600F0BAFE034B03CBFD
:100DD000206061601868A06010BD00BF107AFF1F1E
:100DE0002DE9F041ADF54E7D0DF134086CAC40F2CB
:100DF000751207460D460EA80021C8F8001000F035
:100E00009FFE4FF4C4720021204600F099FE02F0CC
:100E100057F8274B4FF47A72B0FBF2F0186093E862
:100E20000700022384E807000DF5E9702382FFF72D
:100E3000C7FF4FF203631F49238406A805F0F8FC9F
:100E40001B2384F832310DF2E32206AB0DF1300C96
:100E50001E4603CE664510605160334602F108021B
:100E6000F6D13188B3789370118020464146012233
:100E700000F0E6FE00230393AB7E029305F1190315
:100E8000019380B20123CDE904800093E97E06A39B
:100E9000D3E90023384602F0DBFB0DF54E7DBDE8BB
:100EA000F08100BFAFF300809E6AC421818A46EEC4
:100EB000D8240020406800082DE9F0412C4C237A0A
:100EC000DAB080460D465BBB27A9284600F0C8FF74
:100ED0000746002842D19DF89D60C82E3ED80146A5
:100EE0004FF4A662204600F02BFE4FF48073C4F846
:100EF000F8314FF40073C4F80C334FF44073C4F866
:100F0000203432460DF19E0104F1090000F0F2FD9B
:100F100026449DF89C30777223720BB9EB7E2372C6
:100F20008122002106AC27A800F00AFE01222146FA
:100F300027A800F0D1FF00230393AB7E029305F1B5
:100F4000190380B201932823CDE904400093E97E80
:100F500005A3D3E90023404602F07AFB5AB0BDE86E
:100F6000F08100BFAFF3008026417272DF25D7B752
:100F7000F0450020F0B5254E4FF48A7505FB00655D
:100F8000F1B096F8D83085F8DC300024D82221461C
:100F900085F8E8403AA800F0D3FD06F1090000F01A
:100FA000C7FDD5F8E4308DF8F000C2B206AF06F107
:100FB00009010DF1F100CDE93A3400F09BFD39460D
:100FC00001223AA800F0B4FF80B2CDE904700823F2
:100FD0000127CDE9023706F1D803019330230093AE
:100FE000317A0B4807A3D3E9002302F031FBA0427A
:100FF00006DD01F065FFC5F8E000384671B0F0BDD0
:101000002046FBE778F6339F93CACD8DF04500204C
:10101000F03400202DE9F0411D4D1E4E1E4F86B0CC
:10102000284602F041FB034658B30024CDE90344AF
:10103000ADF81440027B8DF8142099684068029442
:1010400003AA03C21B68DFF8548043F000430293F5
:1010500001F038FF821941F10003009402A93846DB
:1010600001F0FAF9A04205DD284602F021FB88F8DC
:101070000040D5E798F80030072B05D8013388F8F1
:10108000003006B0BDE8F081014802F011FBF8E73E
:10109000F034002040420F0020350020254B002076
:1010A00070B50D4614461E4602F02EFA50B9022EB7
:1010B00010D1012C0ED112A3D3E90023C5E90023DE
:1010C000012007E0282C10D005D8012C09D0052CD0
:1010D0000FD0002070BD302CFBD10BA3D3E900232F
:1010E000ECE70BA3D3E90023E8E70BA3D3E9002344
:1010F000E4E70BA3D3E90023E0E700BFAFF30080F0
:10110000401DA12026812A0B78F6339F93CACD8DEE
:101110009E6AC421818A46EE26417272DF25D7B7C6
:10112000F017304A39059E5638B505460E4C002159
:10113000013500F051FCA4F82C55B4F82C0500F052
:1011400033FC78B1B4F82C0500F03EFC014648B9F8
:10115000B4F82C0500F040FCB4F82C350133A4F8A9
:101160002C35EAE738BD00BFF045002010B50A4B2A
:101170000A4A1A6003F5805393F860203AB9DC6D8F
:101180002CB1204601F000F8204605F091FABDE8A8
:101190001040034800F0F8BF20350020F868000830
:1011A000684500202DE9F04F8FB000AF05460C4692
:1011B00002F0AAF9002849D1237E022B1BD1E38A31
:1011C000012B18D101F07CFE0646FFF7E1FD034636
:1011D0004FF4C870DFF8C482B3FBF0F206F5167660
:1011E00002FB103316FA83F3C8F80030E37E33B9FC
:1011F000A34B00221A703C37BD46BDE8F08F07F1C3
:101200002401204600F0EAFD0028F4D107F1140083
:10121000FFF7D6FD97F8264007F11401224607F1A3
:10122000270005F08FFA0028E2D10F2C08D8944B44
:101230001C70D8F80030A3F51673C8F80030DAE750
:1012400097F82410284602F057F9D4E7E38A282BB0
:101250002BD010D8012B23D0052BCCD1BFF34F8F2F
:101260008849894BCA6802F4E0621343CB60BFF33C
:101270004F8F00BFFDE7302BBDD1844EE17E327A27
:101280009142B8D1607E3146002291F8DC5085420F
:1012900000F0A5800132042A01F58A71F5D1AAE790
:1012A00021462846FFF79CFDA5E721462846FFF783
:1012B00003FEA0E7B2F8EC507B6005F103094FEAAA
:1012C00099094FEA8902D11DC908A8EBC1039D46BF
:1012D000EB460021584600F033FC04F1EE012A46AB
:1012E0003144584600F006FC7B6813B9012000F039
:1012F0004BFB96F8D20000F057FB044630B9307231
:1013000000F08AFB204600F03FFBB1E0D6F8D42085
:101310003AB996F8D200B6F82C25824201D8FFF7E8
:1013200003FFD6F8D4202A44944208D296F8D2007B
:10133000B6F82C250130824201D8FFF7F5FE70681F
:101340005FFA89F2594600F003FC08B9C54679E016
:10135000726896F8D2002A447260D6F8D42005EB61
:101360000209C6F8D49000F01FFB814509D396F816
:10137000D220D6F8D4000132001B86F8D220C6F85D
:10138000D400FF2D0FD80024347200F045FB204616
:1013900000F0FAFA00F07AFE3D4B188108B9FFF729
:1013A0000DFAC54627E7BB6896F8D9000AFB036229
:1013B000FB68D2F8E41082F8E83001F58061C2F8E9
:1013C000E030C2F8E410FFF7D5FDFFF723FE96F8F2
:1013D000D920013202F0030286F8D920B6E74FF493
:1013E0008A7A0AFB02F505F1EA013144204600F051
:1013F000CBFDF86000287FF4FEAE3544012285F86D
:10140000E82001F05DFDD5F8E020D6ED007ADFEDB3
:10141000216A801A192838BF192040F6B832904244
:1014200028BF1046B8EE677A07EE900AF8EEE77A22
:1014300067EEA67ADFED186AE7EE267AFCEEE77A29
:10144000C6ED007A96F8D930BB60BA6873680AFBBB
:1014500002F4321992F8E81059B1D2F8E4108B4234
:10146000E8463FF427AF002182F8E810C2F8E01008
:10147000C5467368064A9B0A01331381BBE600BF69
:10148000E934002000ED00E00400FA05F0450020FA
:10149000D8240020CDCCCC3D6666663FEC340020DD
:1014A000014B1870704700BFE424002030B54FF0A6
:1014B00000542B4B22689A4285B007D003F092FF6C
:1014C000044620BB0024204605B030BD254B627D7C
:1014D00025481A70237D03724FF48073C0F8F831E9
:1014E0004FF40073C0F80C3300254FF44073C0F87C
:1014F00020341E49C0F8E450C922093000F0FAFA3D
:101500002046E022294600F01BFB0124DBE7184AB5
:10151000184D136C43F000731364AA6D164B9A4276
:10152000D0D12B6E013B7E2BCCD8144A07CA01AB1D
:1015300083E807001846032100F076FD6B6D8342B7
:101540004FF00003BED12A6D8A4201BFAB65054B47
:101550002A6E1A7003BF0A4BEA6D1A601C46B2E786
:101560009AAD44C5E4240020F04500201600002078
:1015700000380240006600405041A0B0586600406C
:101580001023002037B51A4D00F080FD02236B7147
:10159000184B288119681848012201F02FFB0023FD
:1015A0000193164B164900931648174B4FF480527F
:1015B00001F07AFF154B197811B1124801F09CFF28
:1015C00001F07EFC0446FFF7E3FB4FF4C873B0FB69
:1015D000F3F202FB130304F5167010FA83F00C4BC0
:1015E000186003F0F5FE08B10F232B8103B030BD66
:1015F000D82400201023002020350020A11000084E
:10160000E8240020F0340020A5110008E424002084
:10161000EC3400202DE9F04F2DED028B0FF238292C
:10162000D9E90089834C93B00BAE9FED7E8BFFF719
:10163000F1FC814FDFF828A200230A93ADF8343083
:101640000B9373604FF0000B5B468DED008B012513
:101650000DF11D0207A938468DF81C508DF81DB0FC
:1016600001F07CFA9DF81C30002B40F0A58020464C
:1016700001F04AFF0646002845D1704F01F020FCDA
:101680003B6898423FD301F01BFC8246FFF780FB8A
:101690004FF4C873B0FBF3F202FB13030AF51670A4
:1016A00010FA83F03860664F97F800B0CBF1100A5B
:1016B000BBF1000F14BF33462B465FFA8AFA0EA81F
:1016C0008DF82830FFF77CFBBAF1060F28BF4FF0EA
:1016D000060A0EAB03EB0B0152460DF1290000F098
:1016E00009FA0AAB0393182302930AF10102554B3E
:1016F000D2B2CDE90053049220464CA3D3E9002393
:1017000001F048FF3E7001F0DBFB4F4A4F4D13687C
:10171000C31AB3F57A7F2ED3106001F0D3FB0246D3
:101720000B46204601F0CEFF204601F0EDFE10B33F
:101730002B7A474E002B14BF03230223737101F051
:10174000BFFB0EAF4FF47A730122B0FBF3F03946C2
:101750003060304600F01AFB182302933D4B019392
:1017600080B240F25513CDE90370009342464B46D8
:10177000204601F00FFF2B7A93B101F0A1FB002668
:1017800007464FF48A7A95F8D900304400F00300F8
:101790000AFB005393F8E82092B30136042EF2D1ED
:1017A000C82003F03DF92B7A002B7FF43DAF13B036
:1017B000BDEC028BBDE8F08FDAF8143083F480437F
:1017C000CAF81430594610220EA800F0B9F90DF1EC
:1017D0001E0308AA0AA9384600F03CFF96E8030059
:1017E0000FAB83E803009DF834308DF844300A9B3A
:1017F0000E930EA9DDE90823204602F037F921E710
:10180000D3F8E02042B12B68FA2B38BFFA23BA1A7A
:101810000533B2EB430FC0D3FFF7ACFB0028BCD1BC
:10182000BEE700BF0000000000000000401DA12036
:1018300026812A0BF034002020350020EC340020D3
:10184000E9340020E8340020204B0020F04500203F
:10185000D8240020244B0020F1C6A7C1D068080F6F
:101860000000024008B5054800F08EFFBDE80840C2
:10187000034A0449002004F015BF00BF20350020B2
:10188000604B00206D1100087047000070B50F4BD1
:101890001B780133DBB2012B0C4611D80C4D2968A3
:1018A0004FF47A730E6AA2FB0332014622462846A1
:1018B000B047844204D1074B00221A70012070BD4A
:1018C0004FF4FA7003F0ACF80020F8E71C23002076
:1018D000D84D0020544B002070B504464FF47A7662
:1018E000412C254628BF412506FB05F003F098F85A
:1018F000641BF5D170BD000007B50023024601212D
:101900000DF107008DF80730FFF7C0FF20B19DF8FB
:10191000070003B05DF804FB4FF0FF30F9E700006B
:101920000A4608B50421FFF7B1FF80F00100C0B2FC
:10193000404208BD30B4054C2368DD69044B0A46BB
:10194000AC460146204630BC604700BFD84D002061
:10195000A086010070B503F083FB094E094D30806D
:10196000002428683388834208D903F073FB2B686E
:1019700004440133B4F5803F2B60F2D370BD00BF47
:10198000564B0020284B002003F018BC00F10060EB
:1019900000F580300068704700F10060920000F5AB
:1019A000803003F0A3BB0000054B1A68054B1B8871
:1019B0009B1A834202D9104403F04CBB00207047AD
:1019C000284B0020564B0020024B1B68184403F0A4
:1019D00049BB00BF284B0020024B1B68184403F092
:1019E00059BB00BF284B002010F003030AD1B0F50B
:1019F000047F05D200F10050A0F51040D0F8003867
:101A0000184670470023FBE700F10050A0F5104096
:101A1000D0F8100A70470000064991F8243033B11D
:101A20000023086A81F824300822FFF7B5BF01209F
:101A3000704700BF2C4B0020014B1868704700BF57
:101A4000002004E070B5194B1D68194B0138C5F32F
:101A50000B0408442D0C04221E88A6420BD15C689E
:101A60000A46013C824213460FD214F9016F4EB16F
:101A700002F8016BF6E7013A03F10803ECD1814269
:101A80000B4602D22C2203F8012B0A4A05241688A1
:101A9000AE4204D1984284BF967803F8016B013CB2
:101AA00002F10402F3D1581A70BD00BF002004E017
:101AB0009C68000888680008022802BF024B4FF0AB
:101AC00080429A61704700BF00000240022802BFB6
:101AD000024B4FF480429A61704700BF0000024001
:101AE000022801BF024A536983F48043536170475F
:101AF0000000024010B50023934203D0CC5CC454D4
:101B00000133F9E710BD000010B5013810F9013FAD
:101B10003BB191F900409C4203D11AB10131013A25
:101B2000F4E71AB191F90020981A10BD1046FCE7AD
:101B300003460246D01A12F9011B0029FAD1704758
:101B400002440346934202D003F8011BFAE77047B0
:101B50002DE9F8431F4D144695F824200746884682
:101B600052BBDFF870909CB395F824302BB920223B
:101B7000FF2148462F62FFF7E3FF95F82400C0F1EC
:101B80000802A24228BF2246D6B24146920005EB87
:101B90008000FFF7AFFF95F82430A41B1E44F6B277
:101BA000082E17449044E4B285F82460DBD1FFF797
:101BB00033FF0028D7D108E02B6A03EB820383426E
:101BC000CFD0FFF729FF0028CBD10020BDE8F88354
:101BD0000120FBE72C4B0020024B1A78024B1A70B5
:101BE000704700BF544B00201C23002010B5104C40
:101BF000104802F045FA21460E4802F06DFA2468BA
:101C0000626DD2F8043843F00203C2F804384FF48E
:101C10007A70FFF761FE0849204602F063FB626DAF
:101C2000D2F8043823F00203C2F8043810BD00BF14
:101C3000E4690008D84D0020EC69000870470000F6
:101C40002DE9F0470D46044600219046284640F213
:101C50007912FFF775FF234620220021284601F064
:101C6000A7FE231D02222021284601F0A1FE631DAC
:101C700003222221284601F09BFEA31D03222521D9
:101C8000284601F095FE04F1080310222821284679
:101C900001F08EFE04F1100308223821284601F0DD
:101CA00087FE04F1110308224021284601F080FE3E
:101CB00004F1120308224821284601F079FE04F1BC
:101CC000140320225021284601F072FE04F118036B
:101CD00040227021284601F06BFE04F12003082207
:101CE000B021284601F064FE04F121030822B82146
:101CF000284601F05DFE04F12207C0263B4631462E
:101D000008222846083601F053FEB6F5A07F07F1F9
:101D10000107F3D104F1320308223146284601F0CD
:101D200047FE002704F1330A94F832304FEAC7091E
:101D30009F4209F5A47615D3B8F1000F08D13146BA
:101D400004F599730722284601F032FE09F24F1676
:101D5000274694F832213B1B93420CD3F01DC00858
:101D6000BDE8F0870AEB070308223146284601F058
:101D70001FFE0137D8E707F2331331460822284601
:101D800001F016FE08360137E3E7000013B50446FC
:101D90000846002101602346C0F80310202201906C
:101DA00001F006FE0198231D0222202101F000FE11
:101DB0000198631D0322222101F0FAFD0198A31D61
:101DC0000322252101F0F4FD019804F108031022FB
:101DD000282101F0EDFD072002B010BDF7B500236A
:101DE000047F00910E4607221946054601F0A4FC27
:101DF000731C0093012200230721284601F09CFC5C
:101E0000C4B9B31C0093052223460821284601F0DB
:101E100093FC0D243746B278BB1B934211D32B7F22
:101E2000A88A0734E408BBB9844294BF002001208B
:101E300003B0F0BDAB8ADB00083BDB08B3700824BD
:101E4000E8E7FB1C0093214600230822284601F006
:101E500073FC08340137DEE7201A18BF0120E7E7DA
:101E6000F7B50023047F00910E4608221946054667
:101E700001F062FC731CC4B908220093114623468A
:101E8000284601F059FC1024012372785F1C013BA5
:101E9000934211D32B7FA88A0734E408BBB984424C
:101EA00094BF0020012003B0F0BDAB8ADB00083BEB
:101EB000DB0873700824E7E7F31900932146002339
:101EC0000822284601F038FC08343B46DDE7201A9A
:101ED00018BF0120E7E70000F8B50E460546144696
:101EE000002181223046FFF72BFE2B4608220021DD
:101EF000304601F05DFD7CB96B1C0722082130469D
:101F000001F056FD0F2401236A785F1C013B9342C8
:101F100004D3E01DC008F8BD0824F4E7EB192146FE
:101F20000822304601F044FD08343B46ECE700004F
:101F3000F8B50E46054614460021CE223046FFF77E
:101F4000FFFD2B4628220021304601F031FD7CB9EF
:101F500005F1080308222821304601F029FD30242C
:101F60002F462A7A7B1B934204D3E01DC008F8BD9C
:101F70002824F5E707F1090321460822304601F03D
:101F800017FD08340137ECE7F7B5047F00910E46E2
:101F9000012310220021054601F0CEFBC4B9B31C79
:101FA0000093092223461021284601F0C5FB19247D
:101FB00037467288BB1B9A4211D82B7FA88A0734F8
:101FC000E408BBB9844294BF0020012003B0F0BDF7
:101FD000AB8ADB00103BDB0873801024E8E73B1D75
:101FE0000093214600230822284601F0A5FB08346F
:101FF0000137DEE7201A18BF0120E7E730B5094DA9
:102000000A4491420DD011F8013B5840082340F397
:102010000004013B2C4013F0FF0384EA5000F6D18A
:10202000EFE730BD2083B8EDF7B54FF0FF33DFF8B1
:1020300054C0DFF854E000EB81011A4688421CD0FE
:1020400050F8044B019401AF042417F8015B82EAB5
:1020500005620825DB18164605F1FF355241002EB2
:10206000BCBF83EA0C0382EA0E0215F0FF05F1D132
:10207000013C14F0FF04E8D1E0E7D843D14303B0BA
:10208000F0BD00BF9336EAA9EBE1F042F7B5384A5C
:10209000106851686B4603C36A46364936480823C0
:1020A00004F060FB0446002833D10A25334A106847
:1020B00051686B4603C36A4631492F48082304F030
:1020C00051FB0446002849D00369B3F5702F45D869
:1020D000B0F8661040F2F63291423FD1294A0244EC
:1020E00002F15C018B4239D35C3B234900209E1AEC
:1020F000FFF784FF3246074604F164010020FFF732
:102100007DFFA3689F4229D1E368984208BF00255C
:1021100024E00369B3F5702F27D8418B40F2F632E3
:10212000914220D1174A024402F110018B4218D388
:10213000103B114900209D1AFFF760FF2A46064612
:1021400004F118010020FFF759FFA3689E4202D155
:10215000E368984201D00D25A8E70025284603B082
:10216000F0BD1025A2E70C25A0E70B259EE700BFD8
:10217000BC680008DCFF0E0000000108C56800080C
:1021800090FF0E000800FFF710B5037C044613B95A
:10219000006804F0CFFA204610BD00000023BFF312
:1021A0005B8FC360BFF35B8FBFF35B8F8360BFF355
:1021B0005B8F7047BFF35B8F0068BFF35B8F704727
:1021C00070B505460C30FFF7F5FF05F1080604462B
:1021D0003046FFF7EFFFA04206D930466D68FFF7A3
:1021E000E9FF2544281A70BD3046FFF7E3FF201AA7
:1021F000F9E7000070B50546406898B105F10800A0
:10220000FFF7D8FF05F10C0604463046FFF7D2FF72
:102210008442304694BF6D680025FFF7CBFF013C38
:102220002C44201A70BD000038B50C460546FFF757
:10223000C7FFA04210D305F10800FFF7BBFF04441D
:102240006868B4FBF0F100FB1144BFF35B8F012021
:10225000AC60BFF35B8F38BD0020FCE72DE9F04197
:10226000144607460D46FFF7C5FF844228BF0446C3
:10227000D4B1B84658F80C6B4046FFF79BFF30448A
:10228000286040467E68FFF795FF331A9C4203D8CA
:102290006C600120BDE8F0816B60A41B3B68AB6003
:1022A0002044E8600220F5E72046F3E738B50C4605
:1022B0000546FFF79FFFA04210D305F10C00FFF782
:1022C00079FF04446868B4FBF0F100FB1144BFF3EC
:1022D0005B8F0120EC60BFF35B8F38BD0020FCE713
:1022E0002DE9FF41884669460746FFF7B7FF6C4670
:1022F00006B204EBC6060025B44209D06268206825
:1023000008EB0501FFF7F6FB636808341D44F3E7AB
:1023100029463846FFF7CAFF284604B0BDE8F081D9
:10232000F8B505460C300F46FFF744FF05F10806E7
:1023300004463046FFF73EFFA042304688BF6C6837
:10234000FFF738FF201A386020B130462C68FFF7BD
:1023500031FF2044F8BD000073B5144606460D4613
:10236000FFF72EFF844228BF04460190DCB101A98B
:102370003046FFF7D5FF019B33B93268C5E9023318
:10238000C5E9002401200CE09C4238BF019428607C
:10239000019868608442F5D93368AB60241AEC6018
:1023A000022002B070BD2046FBE700002DE9FF418E
:1023B0000F466946FFF7D0FF6C4600B204EBC0053C
:1023C0000026AC4209D0D4F8048054F8081BB81990
:1023D0004246FFF78FFB4644F3E7304604B0BDE8C2
:1023E000F081000038B50546FFF7E0FF04460146DE
:1023F0002846FFF719FF204638BD0000302383F33D
:10240000118862B670470000002383F3118862B61A
:102410007047000010B4026854681A4623465DF8FD
:10242000044B184701207047002070470020704778
:1024300070470000002070470E20704700F5805064
:1024400090F8C800C0F340007047000000F58050CD
:1024500090F9C90070470000F7B50C68BDF820700E
:1024600014F000541E466FD10B7B082B6CD8FFF77D
:10247000C5FF4569AB685B010CD4AB681B0108D490
:10248000AC6814F080545DD1FFF7BEFF204603B066
:10249000F0BD01240B6804F1180C002BB8BFDB0061
:1024A0004FEA0C1CB4BF43F004035B0545F80C3045
:1024B0000B680FFA84FC13F0804F18BF05EB0C1E5D
:1024C00005EB0C1C1EBFDEF8803143F00203CEF892
:1024D00080310B7BCCF8843105EB04158B68C5F893
:1024E0008C314B68C5F88831DCF8803143F001034A
:1024F000CCF8803100EB441541F268031D4403EB36
:1025000044130344C5E9002608330D4601F10C0CC1
:1025100055F804EB43F804EB6545F9D184342D8874
:102520001D8000EB441407F00303257925F00B050B
:102530002B432371FFF768FF0097334600F0E2FC5E
:102540000120A4E70224A5E74FF0FF309FE7000039
:1025500013B500F580540191E06DFFF74BFE1F2885
:102560000AD90199E06D2022FFF7BAFEA0F12003FD
:102570005842584102B010BD0020FBE708B500F5F5
:102580008050FFF73BFFC06DFFF708FEBDE8084035
:10259000FFF73ABF0022026082814260826070478A
:1025A00010B500220023C0E9002300230446038164
:1025B0000C30FFF7EFFF204610BD0000F0B50546D8
:1025C00000F580500C4690F8C83013F0040FC3F3A8
:1025D000800108BF114661F3820304F1840680F88C
:1025E000C83005EB461389B01B79D8072ED57AB3CE
:1025F00019072DD46846FFF7D3FF05EB441303F505
:10260000835303F1180703AA103318685968144656
:1026100003C40833BB422246F7D1186820609B8868
:10262000A380DDE90E23CDE900230123ADF80830B6
:102630002B686946DB6B2846984705EB46152B79D6
:102640001A075CBF43F008032B7101E0002AF4D1A4
:1026500009B0F0BD2DE9F047074688B007F5805472
:1026600068469A468846FFF7C9FE9146FFF798FFED
:10267000E06DFFF7A5FD1F2829D9E06D20226946EE
:10268000FFF7B0FE202822D103AD444605AB2E460D
:1026900003CE9E4220606160354604F10804F6D105
:1026A00030682060B388A380DDE90023C9E90023F6
:1026B000BDF80830AAF80030FFF7A6FE4A46534698
:1026C0004146384608B0BDE8F04700F009BCFFF7C6
:1026D0009BFE002008B0BDE8F08700002DE9F84F10
:1026E0000023C0E90133254B044640F8183B0F4650
:1026F000FFF750FF04F12800FFF752FF04F14808EC
:1027000004F582554646083530462036FFF748FF27
:10271000AE42F9D104F580554FF480534FF00009D3
:10272000C5E91339C5F848800123EE6504F58758DB
:1027300004F58456C5F8549085F8583085F8603013
:10274000083608F108084FF0000A4FF0000B46E980
:1027500008ABA6F11800FFF71DFF203646F8289CAD
:102760004645F4D185F8C97017B1054800F0A2FBC1
:10277000044B63612046BDE8F88F00BFF86800088D
:10278000D06800080064004010B5044B1978044676
:102790004A1C1A70FFF7A2FF204610BD5C4B0020B8
:1027A0002DE9F047002950D0294B2A4FB7FBF1F50E
:1027B00099428CBF0A231123581EB5FBF3FC03FB7F
:1027C0001C53C4B22BB102280346F5D80020BDE843
:1027D000F0870CF1FF36B6F5806FF7D2C4EBC40E6C
:1027E0000EF103034FEAE309C3F3C703A4EB0308A5
:1027F00009F1010A4FF47A755FFA88F009FB055573
:102800005AFA88F8B5FBF8F5B5F5617FC1BF0EF14E
:10281000FF33C3F3C703E01AC0B25C1C50FA84F460
:102820000CFB04F4B7FBF4F4A142CFD1013BDBB2C3
:102830000F2BCBD80138C0B20728C7D800211071A0
:1028400016809170D3700120C1E70846BFE700BF32
:102850003F420F0080DE800270B505460E464FF401
:102860007A746B695B6803F00103B34207D04FF4DD
:102870007A7002F0D5F8013CF3D1204670BD0120FA
:10288000FCE7000030B54269936913F0700F16D071
:1028900000230B4C936103F1840200EB4212117987
:1028A0004D0709D5890707D5416954F823508D6034
:1028B000117941F0040111710133032BEBD130BDCB
:1028C000E468000873B51D46436916469A68D20746
:1028D000044609D59A6801219960C2F34002CDE906
:1028E00000650021FFF76AFE63699A68D1050BD580
:1028F0009A684FF480719960C2F34022CDE9006577
:1029000001212046FFF75AFE63699A68D2030BD56E
:102910009A684FF480319960C2F34042CDE9006576
:1029200002212046FFF74AFE204602B0BDE8704073
:10293000FFF7A8BFF8B50446466900296CD106F137
:102940000C07386880076AD006EB01153868D5F89F
:10295000B00110F0040FD5F8B0011ABFC00840F064
:102960000040400DA061D5F8B0C11CF0020F1CBFA3
:1029700040F08040A061D5F8B40106EB011100F0F1
:102980000F0084F82400D1F8B8012077D1F8B801FD
:10299000000A6077D1F8B801000CA077D1F8B8012F
:1029A000000EE077D1F8BC0184F82000D1F8BC011A
:1029B000000A84F82100D1F8BC01000C84F8220040
:1029C000D1F8BC11090E84F823103821396004F1C4
:1029D000340004F1180104F1240551F8046B40F8A7
:1029E000046BA942F9D109880180C4E90A23214670
:1029F0000023238651F8283B2046DB6B984704F5DB
:102A00008052204692F8C83043F0040382F8C83060
:102A1000BDE8F840FFF736BF06F1100791E7F8BDB3
:102A200010B5044600F04EFA02460B4652EA030186
:102A300002D0013A63F100030449086820B121463D
:102A4000BDE81040FFF776BF10BD00BF584B002017
:102A5000F8B500F583511E46FFF7D0FCDFF844C0FF
:102A60000831002404F1840500EB45152B795F073C
:102A70000ED4DB060CD5D1E900739742B34107D2DF
:102A800043695CF824709F602B7943F004032B7139
:102A90000134032C01F12001E4D1BDE8F840FFF737
:102AA000B3BC00BFE468000808B5FFF7A7FCFFF758
:102AB000E9FEBDE80840FFF7A7BC0000F8B5436990
:102AC0000546986800F0E050B0F1E05F0F461FD077
:102AD000E8B1FFF793FC05F583541034002606F1A6
:102AE000840305EB43131B791A0706D50136032E21
:102AF00004F12004F3D1012007E05B07F6D421465E
:102B0000384600F039FA0028F0D1FFF77DFCF8BD17
:102B10000120FCE700F5805008B5FFF76FFCC06DA1
:102B2000FFF74EFBFFF770FC43090CBF01200020AC
:102B300008BD0000F8B51D46002313700F46064679
:102B40001446FFF7E7FF80F00100387025B12946F1
:102B50003046FFF7B3FF2070F8BD00002DE9B84103
:102B60000C4615461F46804600F0ACF90B4621780E
:102B7000024609B9287850B14046FFF769FFFFF7D0
:102B800093FF3B462A462146FFF7D4FF0120BDE8CC
:102B9000B881000010B5FFF731FC174B1A6C42F0FA
:102BA00000721A641A6A42F000721A621A6A00F518
:102BB000805422F000721A62FFF726FC94F8C830A5
:102BC000DB0718D4B9B103211320FFF717FC01F07C
:102BD000C7F90321142001F0C3F90321152001F0E6
:102BE000BFF994F8C83043F0010384F8C830BDE859
:102BF0001040FFF709BC10BD003802402DE9F04736
:102C000000F5805588B095F8C930012B04468846F8
:102C100016467FD8804F57F823200AB947F823007B
:102C2000D7F800A0C4F80C802674BAF1000F63D066
:102C300095F8C930012B6FD001212046FFF7AAFF7C
:102C4000FFF7DCFB6269136823F00203136062691B
:102C5000136843F001031360636900275F6101217A
:102C60002046FFF7D1FBFFF7F7FD002800F0958025
:102C7000E86DFFF793FA04F58359BA4609F108099C
:102C8000202200216846FEF75BFF02A8FFF782FCC6
:102C9000CDF818A06A4609EB07030DF1180E94460B
:102CA000BCE80300F44518605960624603F108036C
:102CB000F5D1DCF80000186020379CF804201A7168
:102CC000602FDDD195F8C8306FF38203002785F8B7
:102CD000C8306A4641462046ADF80070ADF8027033
:102CE0008DF80470FFF75CFD636948BB4FF4004248
:102CF0001A6008B0BDE8F08741F2D00003F0DAFCBA
:102D0000814610B15146FFF7E9FCC7F80090B9F1D0
:102D1000000F8DD10020ECE7386803681B6B9847E3
:102D20000146002888D13868FFF734FF3868036807
:102D300032465B684146984700287FF47DAFE9E75B
:102D400061221A609DF802309DF803201B061204D0
:102D500002F4702203F040731343BDF80020C2F365
:102D6000090213439DF804201205022E02F4E0022A
:102D70000CBF4FF000410021134362690B43D36144
:102D8000636913225A616269136823F001031360B7
:102D900039462046FFF760FD08B96369A6E795F854
:102DA000C93093BB6169D1F8002242F00102C1F839
:102DB00000226169D1F8002222F47C5222F00E0236
:102DC000C1F800226169D1F8002242F46062C1F8C2
:102DD00000226269C2F814326269C2F80432626980
:102DE00041F6FF71C2F80C126269C2F840326269A2
:102DF000C2F8443263690122C3F81C226269D2F826
:102E0000003223F00103C2F8003295F8C83043F0D5
:102E1000020385F8C8306CE7584B002008B500F075
:102E200051F850EA0103024602D0421E61F100014E
:102E3000044B186810B10B46FFF744FDBDE808408D
:102E400001F064B8584B002008B50020FFF7E8FDFA
:102E5000BDE8084001F05AB808B50120FFF7E0FDD1
:102E6000BDE8084001F052B800B59BB0EFF309810E
:102E700068226846FEF73EFEEFF30583014B9B6B2D
:102E8000FEE700BF00ED00E008B5FFF7EDFF000032
:102E900000B59BB0EFF3098168226846FEF72AFE71
:102EA000EFF30583014B5B6BFEE700BF00ED00E035
:102EB000FEE700000FB408B5029801F03DFDFEE703
:102EC00002F0D2B902F0AAB913B56C4684E8060044
:102ED000031D94E8030083E80500012002B010BD43
:102EE00073B58568019155B11B885B0707D4D0E99C
:102EF00000369B6B9847019AC1B23046A847012023
:102F000002B070BDF0B5866889B005460C465EB16A
:102F1000BDF838305B070AD4D0E900379B6B98477F
:102F20002246C1B23846B047012009B0F0BD0022A8
:102F30000023CDE900230023ADF808300A4603AB97
:102F400001F10806106851681C4603C40832B242F9
:102F50002346F7D1106820609288A280FFF7B2FF65
:102F60000423ADF808302B68CDE90001DB6B69461E
:102F700028469847D8E7000030B503680968DD0F98
:102F8000B5EBD17F23F0604421F060424FEAD1706D
:102F90000BD0002BB8BFA40C0029B8BF920C9442F0
:102FA00002D034BF0120002030BD944205D1C1F3CE
:102FB0008070C3F380738342F6D194422CBF00200B
:102FC0000120F1E72DE9F041456A15B94162BDE8FC
:102FD000F0814B6823F06047C3F38A464FEAD37E03
:102FE000C3F3807816EA230638BF3E46AC462B462C
:102FF0005A68BEEBD27F22F060440AD0002A18DA69
:10300000A40CB44217D19D420FD10D60DEE71346E8
:10301000EEE7A74207D102F08044C2F38072424536
:103020000BD054B1EFE708D2EDE7CCF800100B60FD
:10303000CDE7B44201D0B442E5D81A689C46002AD4
:10304000E5D11960C3E700002DE9F047089D01F0C4
:1030500007044FEAD508224405F0070500EBD1002C
:103060004FF47F49944201D1BDE8F08704F007078F
:1030700005F0070A57453E4638BF5646C6F10806D2
:10308000111B8E4228BF0E46E10808EBD50E415CAD
:1030900013F80EC0B94029FA06F721FA0AF1FFB277
:1030A0008CEA010147FA0AF739408CEA010C03F86F
:1030B0000EC034443544D5E780EA0120082341F2AC
:1030C000210201B24000002980B203F1FF33B8BFF2
:1030D000504013F0FF03F4D17047000038B50C46A0
:1030E0008D18A54200D138BD14F8011BFFF7E4FF8D
:1030F000F7E7000042684AB1136843604389818959
:1031000001339BB29942438138BF83811046704797
:1031100070B588B0202204460D4668460021FEF7AF
:103120000FFD20460495FFF7E5FF024658B16B46B8
:10313000054608AE1C4603CCB442286069602346AD
:1031400005F10805F6D1104608B070BD082817D95A
:1031500009280CD00A280CD00B280CD00C280CD035
:103160000D280CD00E2814BF4020302070470C20B2
:103170007047102070471420704718207047202097
:1031800070470000082817D90C280CD910280CD932
:1031900014280CD918280CD920280CD930288CBF19
:1031A0000F200E207047092070470A2070470B201F
:1031B00070470C2070470D20704700002DE9F84340
:1031C000078C072F04461ED9D0E9029800254FF638
:1031D000FF73C5F12006A5F1200029FA05F108FAD0
:1031E00006F628FA00F031430143C9B21846FFF74A
:1031F00063FF0835402D0346EBD1E1693A46BDE84F
:10320000F843FFF76BBF4FF6FF70BDE8F88300008F
:1032100010B54B6823B9CA8A63F30902CA8210BD8C
:1032200004691A681C600361C38A013BC3824A6057
:10323000EFE700002DE9F84F1D46CB8A0F46C3F398
:1032400009010529814692460B4630D00020AAB2DA
:1032500007F11A049EB2042E1FFA80F80FD8904589
:1032600003F1010306D3FB8A0A4462F30903FB82DC
:1032700001201AE01AF80060E6540130EAE79045B0
:10328000F1D2A1F1050B1C237C68BBFBF3F203FB1D
:1032900012BB1FFA8BF6002C45D14846FFF72AFFD8
:1032A000044638B978606FF00200BDE8F88F4FF03F
:1032B0000008E6E7002606607860ADB24FF0000B2C
:1032C000454510D90AEB0803221D13F8011B91553F
:1032D000B1B208F101081B291FFA88F82BD0454527
:1032E00006F10106F1D8FB8AC3F30902154465F320
:1032F0000903BCE7013292B21C462368002BF9D1C6
:103300006B1F0B441C21B3FBF1F301339BB29A42B8
:10331000D3D2BBF1000FD0D14846FFF7EBFE20B966
:10332000C4F800B0BFE70122E7E7C0F800B05E468E
:1033300020600446C1E74545D5D94846FFF7DAFE87
:1033400008B92060AFE7C0F800B00026206004464E
:10335000B6E700002DE9F04F2DED028B1C4683B03F
:103360005B69019207468846002B00F09A80238C07
:103370002BB1E269002A00F09480072B35D807F1C1
:103380000C00FFF7B7FE054638B96FF00205284676
:1033900003B0BDEC028BBDE8F08F14220021FEF7D4
:1033A000CFFB228CE16905F10800FEF7A3FB208C1E
:1033B000013080B2FFF7E6FEFFF7C8FE013880B2A9
:1033C0002084013028746369228C1B782A4403F01E
:1033D0001F0363F03F0348F00041137238466960F1
:1033E0002946FFF7EFFD0125D1E700F10C034FF06F
:1033F000000908EE103A4FF0800A4E464D4618EE8E
:10340000100AFFF777FE83460028BED01422002161
:10341000FEF796FB002E3AD1019BABF80830022252
:103420000BF1080E1FFA82FC0CF10100BCF1060F33
:10343000218C80B201D88E422BD3FFF7A3FEFFF779
:1034400085FE62691278013802F01F028E4208BFC1
:103450004FF0400A42EA49121BFA80F14AEA020A96
:10346000013048F0004281F808A08BF81000CBF83A
:10347000042059463846FFF7A5FD238C0135B34299
:103480002DB289F001094FF0000AB8D17FE7002280
:10349000C6E7E169895D0EF802100136B6B2013265
:1034A000C0E76FF0010572E7F8B515460E46302209
:1034B000002104461F46FEF743FB069B6360B5F5FB
:1034C000001F079BA76034BF6A094FF6FF72A36213
:1034D00097B2E66104F1100000239A4206D8002357
:1034E0000360A782E3822383E360F8BD06600133B3
:1034F00030462036F1E7000003781BB94BB2002BB1
:10350000C8BF01707047000000787047F8B50C46DE
:10351000C969074611B9238C002B37D1257E1F2D91
:1035200034D8387828BB228C072A2CD8268A36F043
:1035300003032BD14FF6FF70FFF7D0FD20F0010001
:103540003102400441EA0561400C41EA40254FF652
:10355000FF72234629463846FFF7FCFE002807DDA8
:10356000626913780133DBB21F2B88BF002313700D
:10357000F8BD218A2D0645EA012505432046FFF7BF
:103580001DFE0246E5E76FF00300F1E76FF0010072
:10359000EEE7000070B58AB00446164600212822E6
:1035A00068461D46FEF7CCFABDF83830ADF810304D
:1035B0000F9B05939DF840308DF81830119B0793B1
:1035C0006946BDF84830ADF820302046CDE90265A7
:1035D000FFF79CFF0AB070BD2DE9F041D3690546A5
:1035E0000C4616460BB9138C5BBB377E1F2F28D8B1
:1035F00095F80080B8F1000F26D03046FFF7DEFDC9
:103600003378210241EAC33141EA0801338A41EAB1
:10361000076141EA03410246334641F080012846F2
:10362000FFF798FE00280ADD3378012B07D1726975
:1036300013780133DBB21F2B88BF00231370BDE862
:10364000F0816FF00100FAE76FF00300F7E7000088
:10365000F0B58BB004460D46174600212822684677
:103660001E46FEF76DFA9DF84C305A1E53425341E8
:103670008DF800309DF84030ADF81030119B059367
:103680009DF848308DF81830149B07936A46BDF8B2
:103690005430ADF8203029462046CDE90276FFF7B8
:1036A0009BFF0BB0F0BD0000406A00B104307047D2
:1036B000436A1A68426202691A600361C38A013B65
:1036C000C38270472DE9F041D0F82080194E14468E
:1036D0001D464146002709B9BDE8F081D1E9022322
:1036E000A21A65EB0303964277EB03031ED2036A2B
:1036F0008B420DD1FFF78CFD036A1B6803620369DF
:103700000B60C38A0161016A013BC3828846E2E71C
:10371000FFF77EFD0B68C8F8003003690B60C38AB1
:103720000161013BC382D8F80010D4E788460968DC
:10373000D1E700BF80841E002DE9F04F8BB00D460D
:10374000DDF8509014469B468046002800F0198111
:10375000B9F1000F00F01581531E3F2B00F21181CB
:10376000012A03D1BBF1000F40F00B810023CDE90A
:103770000833B8F81430B5EBC30F4FEAC30703D3CF
:1037800000200BB0BDE8F08F2B199F42D8F80C3009
:103790003ABF7F1BFFB227461BB9D8F81030002B69
:1037A0007AD0272D4ED8C5F12806B7424FF0000336
:1037B0002CBFF6B23E4600932946D8F8080008AB65
:1037C0003246FFF741FCA7EB060A35445FFA8AFA56
:1037D000B8F8143003F10053053BDB000493D8F82C
:1037E0000C3003932821039B13B1BAF1000F2CD1A5
:1037F000D8F8100040B1BAF1000F05D0009608AB20
:103800005246691AFFF720FC38B2002FB8D066077D
:103810000AD00AAB03EBD401624211F8083C02F073
:103820000702134101F8083C082C3CD9102C40F247
:10383000B580202C40F2B780BBF1000F00F09C80D7
:10384000082334E0BA460026C2E7049BE02B28BFD9
:10385000E02306930B44AB42059314D95A1B0398FB
:103860000096924534BF5246D2B2691A08AB043072
:103870000792FFF7E9FB079A1644AAEB020A1544E0
:10388000F6B25FFA8AFA049B069A05999B1A04938A
:10389000039B1B680393A6E70093D8F8080008ABC6
:1038A0003A462946AEE7BBF1000F13D00123B4EB33
:1038B000C30F6CD0082C12D89DF82030621E23FA5A
:1038C00002F2D50706D54FF0FF3202FA04F4234383
:1038D0008DF820309DF8203089F8003051E7102C09
:1038E00012D8BDF82030621E23FA02F2D10706D5A5
:1038F0004FF0FF3202FA04F42343ADF82030BDF854
:103900002030A9F800303CE7202C0FD80899631E1E
:1039100021FA03F3DA0705D54FF0FF3202FA04F477
:103920000C430894089BC9F800302AE7402C2BD0A0
:10393000DDE90865611EC4F12102A4F1210326FA24
:1039400001F105FA02F225FA03F311431943CB07FB
:1039500012D50122A4F12003C4F1200102FA03F3DD
:1039600022FA01F1A240524243EA010363EB43030E
:1039700032432B43CDE90823DDE90823C9E90023BD
:10398000FFE66FF00100FCE66FF00800F9E6082C96
:10399000A0D9102CB3D9202CEED8C3E7BBF1000F6F
:1039A000ADD0022383E7BBF1000FBBD004237EE739
:1039B00030B5012A144638BF0124402C85B028BFF9
:1039C00040240025012ACDE9025518D81B788DF82E
:1039D000083063070AD004AB03EBD405624215F844
:1039E000083C02F00702934005F8083C00910346AA
:1039F0002246002102A8FFF727FB05B030BD082AA8
:103A0000E4D9102A03D81B88ADF80830E1E7202A52
:103A10008DBFD3E900231B680293CDE90223D8E7C9
:103A200010B5CB681BB98B600B618B8210BD04692C
:103A30001A681C600361C38A013BC382CA60F0E755
:103A400003064CBFC0F3C0300220704708B50246E1
:103A5000FFF7F6FF022806D15306C2F30F2001D16B
:103A600000F0030008BDC2F30740FBE72DE9F04F6B
:103A700093B0CDE903230A6804461046FFF7E0FF40
:103A8000022814BFC2F306260026002A0D468246ED
:103A900080F2F28112F0C04940F0EE81097B0029EA
:103AA00000F0EA81022803D02378B34240F0E78196
:103AB000C2F304630693104602F07F030593FFF7F9
:103AC000C5FF059B29444FEA834848EA0A4848EA6B
:103AD0004668CE7800230022CDE90823F309834607
:103AE00048EA0008029367D0059B00930246676886
:103AF000534608A92046B847002800F0C381276A2A
:103B00004FB9414604F10C00FFF702FB074690B99C
:103B10006FF0020054E03B6998450DD03F68002FDC
:103B2000F9D1414604F10C00FFF7F2FA07460028EC
:103B3000EED0236A3B60276297F817C006F01F0893
:103B4000CCF3840CACEB08001FFA80FE0028B8BF51
:103B50000EF12000A8EB0C031FFA83FED7E9022127
:103B6000B8BF00B2002B0793BEBF0EF120031BB2FB
:103B7000079352EA010338D0039BDFF824E39A1A33
:103B8000049B4FF0000C63EB010196457CEB0103B5
:103B90002BD36B7B97F81AE0734519D1029B002B4E
:103BA00078D0012821DC7868F8B9DFF8F0C29445B4
:103BB00070EB010316D337E0276A27B96FF00C00CA
:103BC00013B0BDE8F08F3B699845B5D03F68F4E786
:103BD000B24890427CEB010301D30020F0E7029B46
:103BE000002BFAD0079B0F2B17DCFA7DB30002F0F5
:103BF000030203F07C031343FB7539462046FFF7AD
:103C000007FB6B7BBB76029B3BB9FB7DC3F3840256
:103C1000013262F38603FB75D0E76A7BBB7E9A4272
:103C2000DBD1029B002B35D0B309022B32D0039B92
:103C3000BB60049BFB60142200210DA8FDF780FFF0
:103C4000039B0A93049B0B932B1D0C932B7BADF8CA
:103C50003EB0013BDBB2ADF83C30069B8DF8423004
:103C6000059B8DF8433094F82C308DF840A083F0FC
:103C700001038DF844308DF84180A3680AA92046DD
:103C80009847FB7DC3F38403013303F01F039B02BA
:103C9000FB82A2E7FB7DC6F34012B2EBD31F40F0DC
:103CA000F480C3F38403434540F0F280029A2B7BF7
:103CB000B609002A4DD0F2075DD4032B40F2EB8009
:103CC000039BBB60049BFB602B7BAE1D033BDBB205
:103CD0003246394604F10C00FFF7ACFA00280CDA42
:103CE00039462046FFF794FAFB7DC3F38403013382
:103CF00003F01F039B02FB820AE7DDE90884AB881F
:103D00003B834FF6FF73C9F12000A9F1200228FA86
:103D100009F104FA00F0014324FA02F211431846B3
:103D2000C9B2FFF7C9F909F10809B9F1400F034613
:103D3000E9D1B8822A7B033AD2B23146FFF7CEF9F5
:103D4000FB7DB882DA43C2F3C01262F3C713FB757E
:103D500043E786B92E1D013BDBB23246394604F1FA
:103D60000C00FFF767FA0028BADB2A7BB88A013A11
:103D7000D2B23146E2E7F98AC1F30901013B0429D5
:103D8000DAB25BD8281D002307F11B069A4208D936
:103D900010F801CB06F801C0013101330529DBB26F
:103DA000F4D103990A9104990B91934207F11B01F5
:103DB0000C9138BF043379680D9134BF55FA83F301
:103DC00000230E93FB8AADF83EB0C3F309031A44F7
:103DD000069B8DF84230059B8DF8433094F82C30CB
:103DE000ADF83C2083F001038DF8443000238DF8BA
:103DF00040A08DF841807B602A7BB88A013A291D5A
:103E0000FFF76CF93B8BB882834203D1A3680AA900
:103E10002046984720460AA9FFF702FEFB7DBA8A92
:103E2000C3F38403013303F01F039B02FB823B8B2C
:103E30009A420CBF00206FF01000C1E67B68002B97
:103E4000AFD0052001E01C3033461E68002EFAD1A9
:103E5000091A081D2E1D184401EB090CBCF11B0F9B
:103E60005FFA89F39DD89A429BD916F8013B00F876
:103E7000013B09F10109EFE76FF00900A0E66FF0DF
:103E80000A009DE66FF00B009AE66FF00D0097E6D2
:103E90006FF00E0094E66FF00F0091E640420F00C5
:103EA00080841E00EFF3098305494A6B22F001026A
:103EB0004A63683383F30988002383F311887047CA
:103EC00000EF00E0302080F3118862B60C4B0D4A01
:103ED000D96821F4E0610904090C0A43DA60D3F8D7
:103EE000FC20094942F08072C3F8FC200A6842F0C5
:103EF00001020A602022DA7783F82200704700BFAF
:103F000000ED00E00003FA05001000E010B53023DA
:103F100083F311880E4B5B6813F4006314D0F1EE49
:103F2000103AEFF30984683C4FF08073E361094B6A
:103F3000DB6B236684F3098800F0BCFC10B1064BF0
:103F4000A36110BD054BFBE783F31188F9E700BFC0
:103F500000ED00E000EF00E0430600084606000820
:103F600000F1604303F561430901C9B283F800130E
:103F7000012200F01F039A4043099B0003F16043B4
:103F800003F56143C3F880211A60704702684368F3
:103F90001143016003B118477047000013B5446B2B
:103FA000D4F894341A681178042915D1217C022997
:103FB00012D11979128901238B4013420CD101A926
:103FC00004F14C0001F0BAFFD4F89444019B21792C
:103FD0000246206800F0D0F902B010BD143001F0A4
:103FE0003DBF00004FF0FF33143001F037BF000039
:103FF0004C3002F00FB800004FF0FF334C3002F0AD
:1040000009B80000143001F00BBF00004FF0FF3181
:10401000143001F005BF00004C3001F0DBBF0000A0
:104020004FF0FF324C3001F0D5BF00000020704748
:1040300010B5D0F894341A6811780429044617D1C1
:10404000017C022914D15979528901238B401342F2
:104050000ED1143001F09EFE024648B1D4F89444CB
:104060004FF4807361792068BDE8104000F072B9A8
:1040700010BD0000406BFFF7DBBF00007047000081
:104080007FB5124B036000234360C0E90233012572
:1040900002260F4B057404460290019300F184023E
:1040A000294600964FF48073143001F04FFE094BFF
:1040B0000294CDE9006304F523724FF4807329461E
:1040C00004F14C0001F016FF04B070BD386900081F
:1040D000754000089D3F00080B68302282F311886C
:1040E0000A7903EB820290614A79093243F822008F
:1040F0008A7912B103EB820398610223C0F8941409
:104100000374002080F311887047000038B5037FE6
:10411000044613B190F85430ABB9201D012502219B
:10412000FFF734FF04F1140025776FF0010100F070
:104130009FFC84F8545004F14C006FF00101BDE87D
:10414000384000F095BC38BD10B50121044604305C
:10415000FFF71CFF0023237784F8543010BD0000C4
:1041600038B504460025143001F008FE04F14C0077
:10417000257701F0D7FE201D84F854500121FFF768
:1041800005FF2046BDE83840FFF752BF90F84430A5
:1041900003F06003202B07D190F84520212A4FF02F
:1041A000000303D81F2A06D800207047222AFBD11B
:1041B000C0E90E3303E0034A82630722C26303644B
:1041C000012070471D23002037B5D0F894341A68B9
:1041D0001178042904461AD1017C022917D11979D2
:1041E000128901238B40134211D100F14C0528465E
:1041F00001F058FF58B101A9284601F09FFED4F8FC
:104200009444019B21790246206800F0B5F803B080
:1042100030BD0000F0B500EB810385B09E69044617
:104220000D46FEB1302383F3118804EB8507301D62
:104230000821FFF7ABFEFB685B691B6806F14C00C9
:104240001BB1019001F088FE019803A901F076FEF0
:10425000024648B1039B2946204600F08DF8002312
:1042600083F3118805B0F0BDFB685A691268002A13
:10427000F5D01B8A013B1340F1D104F14402EAE777
:10428000093138B550F82140DCB1302383F311886F
:10429000D4F894241368527903EB8203DB689B699A
:1042A0005D6845B104216018FFF770FE294604F1EE
:1042B000140001F079FD2046FFF7BAFE002383F3D6
:1042C000118838BD7047000001F0EEB8012303707B
:1042D0000023C0E90133C36183620362C3624362A6
:1042E0000363704738B50446302383F311880025F3
:1042F000C0E90355C0E90555416001F0E5F8022326
:10430000237085F31188284638BD000070B500EB96
:10431000810305465069DA600E46144618B1102232
:104320000021FDF70DFCA06918B110220021FDF756
:1043300007FC31462846BDE8704001F08FB9000007
:10434000826802F0011282600022C0E904228261C8
:1043500001F010BAF0B400EB81044789E46801254C
:10436000A4698D403D43458123600023A2606360C2
:10437000F0BC01F02BBA0000F0B400EB8104078917
:10438000E468012564698D403D4305812360002375
:10439000A2606360F0BC01F0A5BA000070B5022312
:1043A000002504460370C0E90255C0E90455C56400
:1043B000856180F8345001F0EDF863681B6823B123
:1043C00029462046BDE87040184770BD0378052B8C
:1043D00010B504460AD080F85030052303704368B6
:1043E0001B680BB1042198470023A36010BD000097
:1043F0000178052906D190F85020436802701B68A7
:1044000003B118477047000070B590F83430044687
:1044100013B1002380F8343004F14402204601F047
:10442000CBF963689B68B3B994F8443013F0600526
:1044300035D00021204601F06BFC0021204601F020
:104440005DFC63681B6813B106212046984706236C
:1044500084F8343070BD204698470028E4D0B4F882
:104460004A30E26B9A4288BFE36394F94430E56BCB
:10447000002B4FF0300380F20381002D00F0F2801A
:10448000092284F8342083F311880021D4E90E2313
:104490002046FFF771FF002383F31188DAE794F8D1
:1044A000452003F07F0343EA022340F202329342A5
:1044B00000F0C58021D8B3F5807F48D00DD8012BFE
:1044C0003FD0022B00F09380002BB2D104F14C02BC
:1044D000A2630222E2632364C1E7B3F5817F00F0A7
:1044E0009B80B3F5407FA4D194F84630012BA0D136
:1044F000B4F84C3043F0020332E0B3F5006F4DD016
:1045000017D8B3F5A06F31D0A3F5C063012B90D8B5
:10451000636894F846205E6894F84710B4F8483011
:104520002046B047002884D04368A3630368E36350
:104530001AE0B3F5106F36D040F6024293427FF492
:1045400078AF5C4BA3630223E3630023C3E794F8D3
:104550004630012B7FF46DAFB4F84C3023F00203EA
:10456000C4E90E55A4F84C30256478E7B4F844301B
:10457000B3F5A06F0ED194F8463084F84E30204643
:1045800001F060F863681B6813B101212046984769
:10459000032323700023C4E90E339CE704F14F0387
:1045A000A3630123C3E72378042B10D1302383F3C3
:1045B00011882046FFF7C4FE85F311880321636844
:1045C00084F84F5021701B680BB12046984794F82F
:1045D0004630002BDED084F84F300423237063680C
:1045E0001B68002BD6D0022120469847D2E794F8CA
:1045F00048301D0603F00F0120460AD501F0CEF821
:10460000012804D002287FF414AF2B4B9AE72B4BE0
:1046100098E701F0B5F8F3E794F84630002B7FF403
:1046200008AF94F8483013F00F01B3D01A062046B3
:1046300002D501F081FBADE701F074FBAAE794F825
:104640004630002B7FF4F5AE94F8483013F00F019C
:10465000A0D01B06204602D501F05AFB9AE701F0D4
:104660004DFB97E7142284F8342083F311882B46FE
:104670002A4629462046FFF76DFE85F31188E9E6B4
:104680005DB1152284F8342083F311880021D4E928
:104690000E232046FFF75EFEFDE60B2284F8342051
:1046A00083F311882B462A4629462046FFF764FEED
:1046B000E3E700BF686900086069000864690008F2
:1046C00038B590F834300446002B3ED0063BDAB2C1
:1046D0000F2A34D80F2B32D8DFE803F037313108F6
:1046E000223231313131313131313737C56BB0F8A8
:1046F0004A309D4214D2C3681B8AB5FBF3F203FB18
:1047000012556DB9302383F311882B462A4629466A
:10471000FFF732FE85F311880A2384F834300EE067
:10472000142384F83430302383F3118800231A468D
:1047300019462046FFF70EFE002383F3118838BD8B
:10474000036C03B198470023E7E70021204601F0FE
:10475000DFFA0021204601F0D1FA63681B6813B12B
:104760000621204698470623D7E7000010B590F8A9
:104770003430142B044629D017D8062B05D001D885
:104780001BB110BD093B022BFBD80021204601F0D4
:10479000BFFA0021204601F0B1FA63681B6813B12B
:1047A000062120469847062319E0152BE9D10B2353
:1047B00080F83430302383F3118800231A461946D9
:1047C000FFF7DAFD002383F31188DAE7C3689B69FA
:1047D0005B68002BD5D1036C03B19847002384F8A4
:1047E0003430CEE700230375826803691B6899683B
:1047F0009142FBD25A680360426010605860704773
:1048000000230375826803691B6899689142FBD88D
:104810005A680360426010605860704708B50846E7
:10482000302383F311880B7D032B05D0042B0DD08F
:104830002BB983F3118808BD8B6900221A604FF0F1
:10484000FF338361FFF7CEFF0023F2E7D1E90032A7
:1048500013605A60F3E70000FFF7C4BF054BD96847
:104860000875186802681A60536001220275D860E2
:10487000FBF7D2BE684B002030B50C4BDD684B1CFB
:1048800087B004460FD02B46094A684600F084F9E9
:104890002046FFF7E3FF009B13B1684600F086F95E
:1048A000A86907B030BDFFF7D9FFF9E7684B0020D2
:1048B0001D480008044B1A68DB6890689B689842A2
:1048C00094BF002001207047684B0020084B10B5B2
:1048D0001C68D86822681A60536001222275DC6067
:1048E000FFF78EFF01462046BDE81040FBF794BE5F
:1048F000684B0020044B1A68DB6892689B689A42F8
:1049000001D9FFF7E3BF7047684B002038B5074C6B
:1049100007490848012300252370656001F0FAFB70
:104920000223237085F3118838BD00BFD04D0020CD
:1049300070690008684B002008B572B6044B186512
:1049400000F050FC00F00EFD024B03221A70FEE74F
:10495000684B0020D04D002000F05EB9EFF31180CD
:1049600020B9EFF30583302282F3118870470000ED
:1049700010B530B9EFF30584C4F3080414B180F323
:10498000118810BDFFF7B6FF84F31188F9E7000026
:10499000034A516853685B1A9842FBD8704700BFBE
:1049A000001000E08B60022308618B82084670478C
:1049B0008368A3F1840243F8142C026943F8442C61
:1049C000426943F8402C094A43F8242CC26843F852
:1049D000182C022203F80C2C002203F80B2C044A9A
:1049E00043F8102CA3F12000704700BF31060008E7
:1049F000684B002008B5FFF7DBFFBDE80840FFF774
:104A00002BBF0000024BDB6898610F20FFF726BF29
:104A1000684B0020302383F31188FFF7F3BF0000B9
:104A200008B50146302383F311880820FFF724FFDF
:104A3000002383F3118808BD064BDB6839B1426857
:104A400018605A60136043600420FFF715BF4FF0F1
:104A5000FF307047684B00200368984206D01A6800
:104A60000260506099611846FFF7F6BE704700007B
:104A700038B504460D462068844200D138BD03682D
:104A800023605C608561FFF7E7FEF4E710B503681B
:104A90009C68A2420CD85C688A600B604C60216004
:104AA000596099688A1A9A604FF0FF33836010BD8D
:104AB0001B68121BECE700000A2938BF0A2170B5F9
:104AC00004460D460A26601901F01EFB01F00AFBA0
:104AD000041BA54203D8751C2E460446F3E70A2E94
:104AE00004D9BDE87040012001F054BB70BD000046
:104AF000F8B5144B0D46D96103F1100141600A2A43
:104B00001969826038BF0A22016048601861A818DC
:104B1000144601F0EBFA0A2701F0E4FA431BA34222
:104B2000064606D37C1C281901F0EEFA27463546C6
:104B3000F2E70A2F04D9BDE8F840012001F02ABBB2
:104B4000F8BD00BF684B0020F8B506460D4601F0E1
:104B5000C9FA0F4A134653F8107F9F4206D12A46DE
:104B600001463046BDE8F840FFF7C2BFD169BB68D7
:104B7000441A2C1928BF2C46A34202D92946FFF714
:104B80009BFF224631460348BDE8F840FFF77EBF51
:104B9000684B0020784B002010B4C0E903230023A9
:104BA0005DF8044B4361FFF7CFBF000010B5194C0F
:104BB000236998420DD0D0E90032816813605A60B1
:104BC0009A680A449A60002303604FF0FF33A361A0
:104BD00010BD2346026843F8102F53600022026084
:104BE00022699A4203D1BDE8104001F087BA936868
:104BF00081680B44936001F075FA2269E16992685B
:104C0000441AA242E4D91144BDE81040091AFFF742
:104C100053BF00BF684B00202DE9F047DFF8BC8090
:104C200008F110072C4ED8F8105001F05BFAD8F8B4
:104C30001C40AA68031B9A423ED81444D5E90032AE
:104C40004FF00009C8F81C4013605A60C5F8009086
:104C5000D8F81030B34201D101F050FA89F311882D
:104C6000D5E9033128469847302383F311886B69CF
:104C7000002BD8D001F036FA6A69A0EB04094A4546
:104C800082460DD2022001F085FA0022D8F81030B9
:104C9000B34208D151462846BDE8F047FFF728BF88
:104CA000121A2244F2E712EB090938BF4A46294694
:104CB0003846FFF7EBFEB5E7D8F81030B34208D01E
:104CC0001444211AC8F81C00A960BDE8F047FFF79A
:104CD000F3BEBDE8F08700BF784B0020684B002092
:104CE00000207047FEE70000704700004FF0FF30E3
:104CF0007047000002290CD0032904D0012907487D
:104D000018BF00207047032A05D8054800EBC200F1
:104D10007047044870470020704700BF486A000889
:104D20002C230020FC69000870B59AB0054608469F
:104D300001A9144600F0C2F801A8FCF7F9FE431CD3
:104D40005B00C5E900340022237003236370C6B200
:104D500001AB02341046D1B28E4204F1020401D8F4
:104D60001AB070BD13F8011B04F8021C04F8010C02
:104D70000132F0E708B5302383F311880348FFF7C9
:104D800023FA002383F3118808BD00BFD84D00200B
:104D900090F8443003F01F02012A07D190F8452013
:104DA0000B2A03D10023C0E90E3315E003F06003A2
:104DB000202B08D1B0F848302BB990F84520212A93
:104DC00003D81F2A04D8FFF7E1B9222AEBD0FAE76B
:104DD000034A82630722C26303640120704700BF55
:104DE0002423002007B5052917D8DFE801F019169C
:104DF00003191920302383F31188104A01900121EF
:104E0000FFF784FA01980E4A0221FFF77FFA0D4856
:104E1000FFF7A6F9002383F3118803B05DF804FBC4
:104E2000302383F311880748FFF770F9F2E7302346
:104E300083F311880348FFF787F9EBE79C690008C3
:104E4000C0690008D84D002038B50C4D0C4C0D49F8
:104E50002A4604F10800FFF767FF05F1CA0204F1D2
:104E600010000949FFF760FF05F5CA7204F1180048
:104E70000649BDE83840FFF757BF00BFA0520020E9
:104E80002C2300207C6900088669000891690008CD
:104E900070B5044608460D46FCF74AFEC6B22046E9
:104EA000013403780BB9184670BD32462946FCF729
:104EB0002BFE0028F3D10120F6E700002DE9F04792
:104EC00005460C46FCF734FE2B49C6B22846FFF7D0
:104ED000DFFF08B10636F6B228492846FFF7D8FFAB
:104EE00008B11036F6B2632E0BD8DFF88C80DFF8ED
:104EF0008C90234FDFF894A02E7846B92670BDE839
:104F0000F08729462046BDE8F04701F091BC252EE8
:104F10002ED1072241462846FCF7F6FD70B9194B01
:104F2000224603F10C0153F8040B42F8040B8B42A8
:104F3000F9D11B78137007350D34DDE70822494697
:104F40002846FCF7E1FD98B90F4BA21C1978090916
:104F50000232C95D02F8041C13F8011B01F00F01B5
:104F60005345C95D02F8031CF0D118340835C3E776
:104F700004F8016B0135BFE7686A00089169000811
:104F8000706A00084E680008107AFF1F1C7AFF1F25
:104F9000BFF34F8F024AD368DB03FCD4704700BFD6
:104FA000003C024008B5094B1B7873B9FFF7F0FFCE
:104FB000074B1A69002ABFBF064A5A6002F18832BD
:104FC0005A601A6822F480621A6008BDFE540020FC
:104FD000003C02402301674508B50B4B1B7893B991
:104FE000FFF7D6FF094B1A6942F000421A611A68AE
:104FF00042F480521A601A6822F480521A601A68C9
:1050000042F480621A6008BDFE540020003C024059
:105010000B28F0B516D80C4C0C4923787BB90C4DF5
:105020000E460C234FF0006255F8047B46F8042B23
:10503000013B13F0FF033A44F6D10123237051F8EA
:105040002000F0BD0020FCE7305500200055002076
:10505000846A0008014B53F820007047846A0008F6
:105060000C2070470B2810B5044601D9002010BD54
:10507000FFF7CEFF064B53F824301844C21A0BB981
:105080000120F4E712680132F0D1043BF6E700BFDB
:10509000846A00080B2810B5044621D8FFF778FF72
:1050A000FFF780FF0F4AF323D360C300DBB243F462
:1050B000007343F002031361136943F480331361F7
:1050C000FFF766FFFFF7A4FF074B53F8241000F02B
:1050D00045F9FFF781FF2046BDE81040FFF7C2BF4A
:1050E000002010BD003C0240846A0008F8B512F0B0
:1050F0000103144642D18218B2F1016F57D82D4BEB
:105100001B6813F0010352D02B4DFFF74BFFF32325
:10511000EB60FFF73DFF40F20127032C15D824F088
:1051200001046618244C401A40F20117B142236969
:1051300000EB010524D123F001032361FFF74CFFAD
:105140000120F8BD043C0430E7E78307E7D12B6971
:1051500023F440732B612B693B432B6151F8046BA3
:105160000660BFF34F8FFFF713FF03689E42E9D03D
:105170002B6923F001032B61FFF72EFF0020E0E7EE
:1051800023F44073236123693B4323610B882B8005
:10519000BFF34F8FFFF7FCFE2D8831F8023BADB215
:1051A000AB42C3D0236923F001032361E4E718462F
:1051B000C7E700BF00380240003C0240084908B57C
:1051C0000B7828B11BB9FFF7EDFE01230B7008BD6A
:1051D000002BFCD0BDE808400870FFF7FDBE00BF03
:1051E000FE54002008B54FF400314FF0005000F09D
:1051F000B7F8BDE808404FF480314FF0805000F020
:10520000AFB800000846114601F076BA012001F05F
:1052100073BA0000084601F08DBA000070B582B084
:10522000FFF79CFB0E4E054600F05CFF3268904293
:1052300037BF0C4A0B49516814682EBFD1E90041B1
:10524000013151600419034641F1000128460191E2
:105250003360FFF78DFB0199204602B070BD00BF9F
:10526000345500203855002070B582B0FFF776FB2A
:10527000104E054600F036FF3268904237BF0E4AA6
:105280000D49516814682EBFD1E9004101315160C8
:10529000041941F100010346284601913360FFF7EC
:1052A00067FB01994FF47A7200232046FAF7A0FFBA
:1052B00002B070BD345500203855002010B50244AE
:1052C000064BD2B2904200D110BD441C00B253F83C
:1052D000200041F8040BE0B2F4E700BF5028004082
:1052E0000F4B30B51C6F240407D41C6F44F40074BA
:1052F0001C671C6F44F400441C670A4C236843F489
:10530000807323600244084BD2B2904200D130BD7A
:10531000441C00B251F8045B43F82050E0B2F4E7BB
:1053200000380240007000405028004007B50122BC
:1053300001A90020FFF7C2FF019803B05DF804FB4C
:1053400013B50446FFF7F2FFA04205D0012201A9E0
:1053500000200194FFF7C4FF02B010BD70470000A9
:105360007047000070470000074B45F255521A6025
:1053700002225A6040F6FF729A604CF6CC421A60E4
:10538000024B01221A707047003000404455002043
:10539000034B1B781BB1034B4AF6AA221A607047D5
:1053A0004455002000300040034B1A681AB9034AE4
:1053B000D2F874281A60704740550020003002402F
:1053C000024B4FF08072C3F87428704700300240DF
:1053D00008B5FFF7E9FF024B1868C0F3407008BD3D
:1053E0004055002008B5FFF7DFFF024B1868C0F3F7
:1053F000007008BD4055002070470000FEE7000027
:105400000A4B0B480B4A90420BD30B4BDA1C121A77
:10541000C11E22F003028B4238BF00220021FCF79C
:105420008FBB53F8041B40F8041BECE7A86C000882
:1054300048560020485600204856002070B5D0E954
:1054400015439E6800224FF0FF3504EB42135101D3
:10545000D3F800090028BEBFD3F8000940F080400F
:10546000C3F80009D3F8000B0028BEBFD3F8000B27
:1054700040F08040C3F8000B013263189642C3F835
:105480000859C3F8085BE0D24FF00113C4F81C3888
:1054900070BD0000890141F02001016103699B0694
:1054A000FCD41220FFF774BA10B5054C2046FEF765
:1054B0000DFF4FF0A0436365024BA36510BD00BF15
:1054C00048550020D86A000870B50378012B0546BE
:1054D00050D12A4B446D98421BD1294B5A6B42F054
:1054E00080025A635A6D42F080025A655A6D5A69B9
:1054F00042F080025A615A6922F080025A610E21FC
:1055000043205B69FEF72CFD1E4BE3601E4BC4F885
:1055100000380023C4F8003EC02323606E6D4FF4B2
:105520000413A3633369002BFCDA012333610C20DD
:10553000FFF72EFA3369DB07FCD41220FFF728FAB5
:105540003369002BFCDA0026A6602846FFF776FFB9
:105550006B68C4F81068DB68C4F81468C4F81C6889
:105560004BB90A4BA3614FF0FF336361A36843F06B
:105570000103A36070BD064BF4E700BF485500204F
:10558000003802404014004003002002003C30C0BC
:10559000083C30C0F8B5446D054600212046FFF7B1
:1055A00079FFA96D00234FF001128F68C4F83438D9
:1055B0004FF00066C4F81C284FF0FF3004EB431294
:1055C00001339F42C2F80069C2F8006BC2F80809B3
:1055D000C2F8080BF2D20B686A6DEB6563621023A8
:1055E0001361166916F01006FBD11220FFF7D0F9EF
:1055F000D4F8003823F4FE63C4F80038A36943F4F8
:10560000402343F01003A3610923C4F81038C4F801
:1056100014380A4BEB604FF0C043C4F8103B084B02
:10562000C4F8003BC4F81069C4F80039EB6D03F10D
:10563000100243F48013EA65A362F8BDB46A00085F
:1056400040800010426D90F84E10D2F8003823F4DC
:10565000FE6343EA0113C2F8003870472DE9F843AE
:1056600000EB8103456DDA68166806F00306731EC9
:10567000022B05EB41130C4680460FFA81F94FEAE5
:1056800041104FF00001C3F8101B4FF0010104F16D
:10569000100398BFB60401FA03F391698EBF334E2D
:1056A00006F1805606F5004600293AD0578A04F1E3
:1056B0005801490137436F50D5F81C180B43C5F802
:1056C0001C382B180021C3F8101953690127611EDB
:1056D000A7409BB3138A928B9B08012A88BF534330
:1056E000D8F85C20981842EA034301F1400205EB28
:1056F0008202C8F85C00214653602846FFF7CAFEC4
:1057000008EB8900C3681B8A43EA84534834640168
:105710001E432E51D5F81C381F43C5F81C78BDE830
:10572000F88305EB4917D7F8001B21F40041C7F8AF
:10573000001BD5F81C1821EA0303C0E704F13F035E
:1057400005EB83030A4A5A6028462146FFF7A2FE6A
:1057500005EB4910D0F8003923F40043C0F80039B4
:10576000D5F81C3823EA0707D7E700BF00800010F0
:1057700000040002826D1268C265FFF75FBE000080
:105780005831436D49015B5813F4004004D013F4C1
:10579000001F0CBF02200120704700004831436DFC
:1057A00049015B5813F4004004D013F4001F0CBFF0
:1057B000022001207047000000EB8101CB68196ACC
:1057C0000B6813604B6853607047000000EB810367
:1057D00030B5DD68AA691368D36019B9402B84BF5E
:1057E000402313606B8A1468426D1C44013CB4FB77
:1057F000F3F46343033323F0030302EB411043EA62
:10580000C44343F0C043C0F8103B2B6803F00303CC
:10581000012B09B20ED1D2F8083802EB411013F473
:10582000807FD0F8003B14BF43F0805343F0005317
:10583000C0F8003B02EB4112D2F8003B43F00443B6
:10584000C2F8003B30BD00002DE9F041244D6E6DE3
:1058500006EB40130446D3F8087BC3F8087B3807EF
:105860000AD5D6F81438190706D505EB8403214666
:10587000DB6828465B689847FA071FD5D6F81438C6
:10588000DB071BD505EB8403D968CCB98B69488A43
:105890005A68B2FBF0F600FB16228AB91868DA687B
:1058A00090420DD2121AC3E90024302383F31188E9
:1058B0000B482146FFF78AFF84F31188BDE8F08189
:1058C000012303FA04F26B8923EA02036B81CB689C
:1058D000002BF3D021460248BDE8F041184700BF35
:1058E0004855002000EB810370B5DD68436D6C699D
:1058F0002668E6604A0156BB1A444FF40020C2F8FD
:1059000010092A6802F00302012A0AB20ED1D3F864
:10591000080803EB421410F4807FD4F8000914BF88
:1059200040F0805040F00050C4F8000903EB4212F0
:10593000D2F8000940F00440C2F80009D3F8340856
:10594000012202FA01F10143C3F8341870BD19B9FC
:10595000402E84BF4020206020682E8A8419013C9C
:10596000B4FBF6F440EAC44040F000501A44C6E7E5
:105970002DE9F8433B4D6E6D06EB40130446D3F81A
:105980000889C3F8088918F0010F4FEA40171AD0A8
:10599000D6F81038DB0716D505EB8003D9684B69BC
:1059A0001868DA68904230D2121A4FF000091A6073
:1059B000C3F80490302383F3118821462846FFF76B
:1059C00091FF89F3118818F0800F1CD0D6F8343875
:1059D0000126A640334216D005EB84036D6DD3F843
:1059E0000CC0DCF814200134E4B2D2F800E005EB7E
:1059F00004342F445168714515D3D5F8343823EA5F
:105A00000606C5F83468BDE8F883012303FA04F2FA
:105A10002B8923EA02032B818B68002BD3D02146EC
:105A200028469847CFE7BCF81000AEEB010383424D
:105A300028BF0346D7F8180980B2B3EB800FE2D82D
:105A40009068A0F1040959F8048FC4F80080A0EB15
:105A500009089844B8F1040FF5D818440B44906035
:105A60005360C7E7485500202DE9F74FA24C656DFC
:105A70006E69AB691E4016F480586E6107D02046EF
:105A8000FEF78CFC03B0BDE8F04FFEF73FBA002EE6
:105A900012DAD5F8003E98489B071EBFD5F8003EA5
:105AA00023F00303C5F8003ED5F8043823F00103C2
:105AB000C5F80438FEF79CFC370505D58E48FFF77E
:105AC000BDFC8D48FEF782FCB0040CD5D5F8083833
:105AD00013F0060FEB6823F470530CBF43F410531C
:105AE00043F4A053EB6031071BD56368DB681BB937
:105AF000AB6923F00803AB612378052B0CD1D5F8F3
:105B0000003E7D489A071EBFD5F8003E23F00303F0
:105B1000C5F8003EFEF76CFC6368DB680BB17648A5
:105B20009847F30274D4B70227D5D4F85490DFF81D
:105B3000C8B100274FF0010A09EB4712D2F8003B29
:105B400003F44023B3F5802F11D1D2F8003B002B92
:105B50000DDA62890AFA07F322EA0303638104EB90
:105B60008703DB68DB6813B1394658469847A36D55
:105B700001379B68FFB29F42DED9F00617D5676DEB
:105B80003A6AC2F30A1002F00F0302F4F012B2F5FF
:105B9000802F00F08580B2F5402F08D104EB8303FD
:105BA0000022DB681B6A07F5805790426AD13003F8
:105BB000D5F8184813D5E10302D50020FFF744FEBD
:105BC000A20302D50120FFF73FFE630302D50220A6
:105BD000FFF73AFE270302D50320FFF735FE7503D2
:105BE0007FF550AFE00702D50020FFF7C1FEA10707
:105BF00002D50120FFF7BCFE620702D50220FFF7A5
:105C0000B7FE23077FF53EAF0320FFF7B1FE39E76C
:105C1000636DDFF8E4A0019300274FF00109A36D45
:105C20009B685FFA87FB9B453FF67DAF019B03EBCB
:105C30004B13D3F8001901F44021B1F5802F1FD187
:105C4000D3F8001900291BDAD3F8001941F090416C
:105C5000C3F80019D3F800190029FBDB5946606D21
:105C6000FFF718FC218909FA0BF321EA03032381CA
:105C700004EB8B03DB689B6813B159465046984789
:105C80000137CCE7910708BFD7F80080072A98BFF3
:105C900003F8018B02F1010298BF4FEA182884E74C
:105CA000023304EB830207F580575268D2F818C01C
:105CB000DCF80820DCE9001CA1EB0C0C0021884278
:105CC0000AD104EB830463689B699A6802449A6072
:105CD0005A6802445A606AE711F0030F08BFD7F808
:105CE00000808C4588BF02F8018B01F1010188BF5B
:105CF0004FEA1828E3E700BF48550020436D03EB47
:105D00004111D1F8003B43F40013C1F8003B704748
:105D1000436D03EB4111D1F8003943F40013C1F88E
:105D200000397047436D03EB4111D1F8003B23F478
:105D30000013C1F8003B7047436D03EB4111D1F8EC
:105D4000003923F40013C1F80039704730B5039CC3
:105D50000172043304FB0325C0E90653049B03636B
:105D60000021059BC160C0E90000C0E90422C0E930
:105D70000842C0E90A11436330BD0000416A0022B5
:105D8000C0E90411C0E90A22C2606FF00101FEF708
:105D90006FBE0000D0E90432934201D1C2680AB953
:105DA000181D70470020704703691960C2680132EE
:105DB000C260C269134482690361934224BF436A8B
:105DC00003610021FEF748BE38B504460D46E3687E
:105DD0003BB16269131D1268A3621344E3620020A1
:105DE00007E0237A33B929462046FEF725FE00282E
:105DF000EDDA38BD6FF00100FBE70000C368C2694F
:105E0000013BC3604369134482694361934224BFE9
:105E1000436A436100238362036B03B118477047F1
:105E200070B53023044683F31188866A3EB9FFF7C4
:105E3000CBFF054618B186F31188284670BDA36ACA
:105E4000E26A13F8015BA362934202D32046FFF794
:105E5000D5FF002383F31188EFE700002DE9F84F09
:105E600004460E46174698464FF0300989F31188CC
:105E70000025AA46D4F828B0BBF1000F09D141464D
:105E80002046FFF7A1FF20B18BF311882846BDE81B
:105E9000F88FD4E90A12A7EB050B521A934528BFD5
:105EA0009346BBF1400F1BD9334601F1400251F834
:105EB000040B43F8040B9142F9D1A36A40334036F6
:105EC000A3624035D4E90A239A4202D32046FFF761
:105ED00095FF8AF31188BD42D8D289F31188C9E7AA
:105EE00030465A46FBF706FEA36A5B445E44A36253
:105EF0005D44E7E710B5029C0172043303FB042103
:105F0000C0E906130023C0E90A33039B0363049B23
:105F1000C460C0E90000C0E90422C0E9084243634C
:105F200010BD0000026AC260426AC0E90422002279
:105F3000C0E90A226FF00101FEF79ABDD0E90423FF
:105F40009A4201D1C26822B9184650F8043B0B604E
:105F5000704700231846FAE7C368C2690133C3607B
:105F60004369134482694361934224BF436A436196
:105F70000021FEF771BD000038B504460D46E36808
:105F80003BB123691A1DA262E2691344E362002057
:105F900007E0237A33B929462046FEF74DFD002855
:105FA000EDDA38BD6FF00100FBE70000036919600E
:105FB000C268013AC260C2691344826903619342B4
:105FC00024BF436A036100238362036B03B1184754
:105FD0007047000070B530230D460446114683F328
:105FE0001188866A2EB9FFF7C7FF10B186F31188B2
:105FF00070BDA36A1D70A36AE26A01339342A36273
:1060000004D3E16920460439FFF7D0FF002080F374
:106010001188EDE72DE9F84F04460D469046994664
:106020004FF0300A8AF311880026B346A76A4FB9A9
:1060300049462046FFF7A0FF20B187F3118830467C
:10604000BDE8F88FD4E90A073A1AA8EB0607974289
:1060500028BF1746402F1BD905F1400355F8042BE4
:1060600040F8042B9D42F9D1A36A4033A362403625
:10607000D4E90A239A4204D3E16920460439FFF7A0
:1060800095FF8BF311884645D9D28AF31188CDE765
:1060900029463A46FBF72EFDA36A3B443D44A362E2
:1060A0003E44E5E7D0E904239A4217D1C3689BB187
:1060B000836A8BB1043B9B1A0ED01360C368013B0B
:1060C000C360C3691A44836902619A4224BF436A68
:1060D0000361002383620123184670470023FBE716
:1060E00000F0D2B84FF08043586A70474FF08043B9
:1060F000002258631A610222DA6070474FF0804331
:106100000022DA60704700004FF080435863704708
:10611000FEE7000070B51B4B01630025044686B006
:10612000586085620E46FDF7CDFE04F11003C4E908
:1061300004334FF0FF33C4E90635C4E90044A560D9
:10614000E562FFF7CFFF2B460246C4E9082304F1BE
:1061500034010D4A256580232046FEF723FC0123E8
:10616000E0600A4A0375009272680192B268CDE954
:106170000223074B6846CDE90435FEF73BFC06B029
:1061800070BD00BFD04D0020E46A0008E96A000835
:1061900011610008024AD36A1843D062704700BFF9
:1061A000684B00204B6843608B688360CB68C3609A
:1061B0000B6943614B6903628B6943620B6803603F
:1061C0007047000008B5264B26481A6940F2FF11B7
:1061D0000A431A611A6922F4FF7222F001021A615D
:1061E0001A691A6B0A431A631A6D0A431A651E4A22
:1061F0001B6D1146FFF7D6FF02F11C0100F5806010
:10620000FFF7D0FF02F1380100F58060FFF7CAFF09
:1062100002F1540100F58060FFF7C4FF02F1700144
:1062200000F58060FFF7BEFF02F18C0100F5806091
:10623000FFF7B8FF02F1A80100F58060FFF7B2FF99
:1062400002F1C40100F58060FFF7ACFF02F1E0014C
:1062500000F58060FFF7A6FFBDE8084000F090B8A9
:106260000038024000000240F06A000808B500F063
:10627000FBF9FEF74BFBFFF797F8BDE80840FEF788
:10628000E3BD0000704700000F4B1A6C42F00102A2
:106290001A641A6E42F001021A660C4A1B6E936869
:1062A00043F0010393604FF0804353229A624FF012
:1062B000FF32DA6200229A615A63DA605A60012280
:1062C0005A611A60704700BF00380240002004E0A5
:1062D0004FF0804208B51169D3680B40D9B2C94369
:1062E0009B07116107D5302383F31188FEF734FB38
:1062F000002383F3118808BD1F4B1A696FEAC2524D
:106300006FEAD2521A611A69C2F308021A614FF099
:10631000FF301A695A69586100215A6959615A69EE
:106320001A6A62F080521A621A6A02F080521A6285
:106330001A6A5A6A58625A6A59625A6A1A6C42F060
:1063400080521A641A6E42F080521A661A6E0B4A14
:10635000106840F480701060186F00F44070B0F561
:10636000007F1EBF4FF4803018671967536823F40D
:106370000073536000F054B90038024000700040D0
:10638000334B4FF080521A64324A4FF4404111604F
:106390001A6842F001021A601A689107FCD59A68DF
:1063A00022F003029A602A4B9A6812F00C02FBD189
:1063B000196801F0F90119609A601A6842F4803294
:1063C0001A601A689203FCD55A6F42F001025A67AC
:1063D0001F4B5A6F9007FCD51F4A5A601A6842F04B
:1063E00080721A601B4A53685904FCD5184B1A680E
:1063F0009201FCD5194A9A60194B1A68194B9A42B6
:10640000194B21D1194A1168194A91421CD140F205
:1064100005121A60144A136803F00F03052BFAD112
:106420000B4B9A6842F002029A609A6802F00C02E2
:10643000082AFAD15A6C42F480425A645A6E42F4E5
:1064400080425A665B6E704740F20572E1E700BF1A
:10645000003802400070004008544007009488381B
:10646000002004E011640020003C024000ED00E048
:1064700041C20F41074A08B5536903F00103536154
:1064800023B1054A13680BB150689847BDE808402E
:10649000FDF73CBD003C0140C0550020074A08B54F
:1064A000536903F00203536123B1054A93680BB1AA
:1064B000D0689847BDE80840FDF728BD003C014082
:1064C000C0550020074A08B5536903F0040353611F
:1064D00023B1054A13690BB150699847BDE80840DC
:1064E000FDF714BD003C0140C0550020074A08B527
:1064F000536903F00803536123B1054A93690BB153
:10650000D0699847BDE80840FDF700BD003C014058
:10651000C0550020074A08B5536903F010035361C2
:1065200023B1054A136A0BB1506A9847BDE8084089
:10653000FDF7ECBC003C0140C0550020164B10B5E7
:106540005C6904F478725A61A30604D5134A936A0D
:106550000BB1D06A9847600604D5104A136B0BB193
:10656000506B9847210604D50C4A936B0BB1D06B46
:106570009847E20504D5094A136C0BB1506C984753
:10658000A30504D5054A936C0BB1D06C9847BDE8C0
:106590001040FDF7BBBC00BF003C0140C0550020CF
:1065A000194B10B55C6904F47C425A61620504D54C
:1065B000164A136D0BB1506D9847230504D5134A45
:1065C000936D0BB1D06D9847E00404D50F4A136E5C
:1065D0000BB1506E9847A10404D50C4A936E0BB1D1
:1065E000D06E9847620404D5084A136F0BB1506F00
:1065F0009847230404D5054A936F0BB1D06F984791
:10660000BDE81040FDF782BC003C0140C0550020B1
:1066100008B5FFF75DFEBDE80840FDF777BC000058
:10662000062108B50846FDF79BFC06210720FDF76B
:1066300097FC06210820FDF793FC06210920FDF7B1
:106640008FFC06210A20FDF78BFC06211720FDF7A1
:1066500087FC06212820FDF783FCBDE808400721C0
:106660001C20FDF77DBC000008B5FFF745FE00F0DB
:106670000BF8FDF729FEFDF701FDFFF703FEBDE86E
:106680000840FFF72DBD00000023054A19460133DD
:10669000102BC2E9001102F10802F8D1704700BFC7
:1066A000C05500200B460146184600F02DB80000EA
:1066B00000F040B8012838BF012010B5044620463C
:1066C00000F030F830B900F007F808B900F00CF825
:1066D0008047F4E710BD0000024B1868BFF35B8FE2
:1066E000704700BF4056002008B5062000F084F82F
:1066F0000120FEF7F7FA0000024B0A46014618682F
:10670000FEF780BD4C23002010B5054C13462CB17C
:106710000A4601460220AFF3008010BD2046FCE788
:1067200000000000024B01461868FEF76FBD00BF75
:106730004C230020024B01461868FEF76BBD00BFDA
:106740004C23002010B501390244904201D10020B1
:1067500005E0037811F8014FA34201D0181B10BDCA
:106760000130F2E72DE9F041A3B1C91A17780144CD
:10677000044603F1FF3C8C42204601D9002009E089
:106780000578BD4204F10104F5D10CEB0405D618DF
:10679000A54201D1BDE8F08115F8018D16F801ED93
:1067A000F045F5D0E7E700001F2938B504460D464F
:1067B00004D9162303604FF0FF3038BD426C12B18C
:1067C00052F821304BB9204600F030F82A460146F5
:1067D0002046BDE8384000F017B8012B0AD0591CFC
:1067E00003D1162303600120E7E7002442F8254087
:1067F000284698470020E0E7024B01461868FFF75B
:10680000D3BF00BF4C23002038B5074D00230446FA
:10681000084611462B60FEF769FA431C02D12B682B
:1068200003B1236038BD00BF44560020FEF758BABC
:10683000034611F8012B03F8012B002AF9D1704708
:106840006F72672E6172647570696C6F742E663436
:1068500030352D4D6174656B4750530053544D33A3
:1068600032463F3F3F0053544D3332463430780078
:1068700053544D3332463432780053544D333246FC
:106880003434365858000000012033000010410015
:1068900001105A00031059000710310000000000D9
:1068A0005C68000813040000666800081904000012
:1068B00070680008210400007A68000840A2E4F132
:1068C000646891060041A3E5F26569920700000043
:1068D0004261642043414E496661636520696E648C
:1068E00065782E008000000000800000000080001D
:1068F000000000000000000015240008FD2B000827
:106900005D2B00082524000859240008552600089E
:1069100029240008392400082D2400083524000803
:10692000312400087D2500083D240008C92E0008F8
:106930004D2400085125000800000000F93F000820
:10694000E53F0008214000080D40000819400008FC
:1069500005400008F13F0008DD3F00082D40000819
:106960000000000001000000000000006330000093
:106970006C690008C04B0020D04D00204172647546
:1069800050696C6F740025424F415244252D424C92
:10699000002553455249414C2500000002000000EB
:1069A000000000001542000881420008400040003D
:1069B0007052002080520020020000000000000001
:1069C0000300000000000000C542000800000000B5
:1069D00010000000905200200000000001000000A4
:1069E000000000004855002001010200E54D0008AC
:1069F000F54C0008914D0008754D0008430000005B
:106A0000046A000809024300020100C032090400C0
:106A1000000102020100052400100105240100010B
:106A2000042402020524060001070582030800FF72
:106A300009040100020A00000007050102400000ED
:106A4000070581024000000012000000506A0008A3
:106A50001201100102000040091241570002010218
:106A6000030100000403090425424F41524425005C
:106A70003031323334353637383941424344454674
:106A80000000000000400000004000000040000046
:106A900000400000000001000000020000000200B1
:106AA00000000200000002000000020000000200DE
:106AB000000002000000000009440008C146000870
:106AC0006D47000840004000A8550020A855002050
:106AD00001000000B85500208000000040010000C7
:106AE000030000006D61696E0069646C6500000060
:106AF000AA01A81200000000AAAAAAAA550114001F
:106B0000FFBF00008877000070A70A0000000A019C
:106B100000000000AAAAAAAA00000001FFFF0000CE
:106B200000000000990000000000A0160000000016
:106B3000AAAAAAA600005011FFDF00000000000072
:106B4000007708002000000000000000AAAAAAAAFE
:106B500010000000FFFF000000080000000000001F
:106B60000000000000000000AAAAAAAA000000007D
:106B7000FFFF000000000000000000000000000017
:106B800000000000AAAAAAAA00000000FFFF00005F
:106B900000000000000000000000000000000000F5
:106BA000AAAAAAAA00000000FFFF0000000000003F
:106BB0000000000000000000000000000A000000CB
:106BC00000000000030000000000000000000000C2
:106BD00000000000000000000000000000000000B5
:106BE0000000000000000000000000003496FF7F5D
:106BF0000100000000000000F6030000000000009B
:106C000000000F000000000040420F00FE2A0100BB
:106C1000D2040000FF00960000000008009600006B
:106C20000000080004000000646A00080000000082
:106C30000000000000000000000000000000000054
:106C400000000000502300200000000000000000B1
:106C50000000000000000000000000000000000034
:106C60000000000000000000000000000000000024
:106C70000000000000000000000000000000000014
:106C80000000000000000000000000000000000004
:106C900000000000000000000000000000000000F4
:086CA0000000000000000000EC
:00000001FF
