:020000040800F2
:1000000000060020E1010008E3010008E301000808
:10001000E3010008E3010008E3010008E301000830
:10002000E3010008E3010008E30100081D360008B1
:10003000E3010008E3010008E3010008E301000810
:10004000E3010008E3010008E3010008E301000800
:10005000E3010008E3010008C9380008F13800088E
:10006000193900084139000869390008E30100081E
:10007000E3010008E3010008E3010008E3010008D0
:10008000E3010008E3010008E3010008E3010008C0
:10009000E3010008E3010008E301000891390008CA
:1000A000E3010008E3010008E3010008E3010008A0
:1000B000E3010008E3010008E3010008E301000890
:1000C000E3010008E3010008E3010008E301000880
:1000D000E3010008E3010008E3010008E301000870
:1000E000F5390008E3010008E3010008E301000816
:1000F000E3010008E3010008E3010008E301000850
:10010000E3010008E3010008793A0008E301000870
:10011000E3010008653A0008E3010008E301000874
:10012000E3010008E3010008E3010008E30100081F
:10013000E3010008E3010008E3010008E30100080F
:10014000E3010008E3010008E3010008C52D0008F1
:10015000E3010008E3010008E3010008E3010008EF
:10016000E3010008E3010008E3010008E3010008DF
:10017000E3010008E3010008E3010008E3010008CF
:10018000E3010008E3010008E3010008E3010008BF
:10019000E3010008E3010008E3010008E3010008AF
:1001A000E3010008E3010008E3010008E30100089F
:1001B000E3010008E3010008E3010008E30100088F
:1001C000E3010008E3010008E3010008E30100087F
:1001D000E3010008E3010008E3010008E30100086F
:1001E00002E000F000F8FEE772B6374880F30888B6
:1001F000364880F3098836483649086040F20000E6
:10020000CCF200004EF63471CEF200010860BFF36C
:100210004F8FBFF36F8F40F20000C0F2F0004EF638
:100220008851CEF200010860BFF34F8FBFF36F8F8C
:100230004FF00000E1EE100A4EF63C71CEF20001E4
:100240000860062080F31488BFF36F8F02F082FAF3
:1002500003F082F94FF055301F491B4A91423CBFD1
:1002600041F8040BFAE71D49184A91423CBF41F896
:10027000040BFAE71A491B4A1B4B9A423EBF51F83E
:10028000040B42F8040BF8E700201849184A914281
:100290003CBF41F8040BFAE702F060FA03F0B0F952
:1002A000144C154DAC4203DA54F8041B8847F9E7A7
:1002B00000F042F8114C124DAC4203DA54F8041B22
:1002C0008847F9E702F048BA000600200022002023
:1002D0000000000808ED00E00000002000060020FB
:1002E000883E0008002200204C22002050220020DE
:1002F000F0300020E0010008E0010008E001000803
:10030000E00100082DE9F04F2DED108AC1F80CD066
:10031000C3689D46BDEC108ABDE8F08F002383F3CF
:1003200011882846A047002001F0B0FDFEE701F04B
:1003300019FD00DFFEE7000038B502F0DBF90546E5
:1003400002F0FEF90446D8B90F4B9D421AD0013392
:100350009D4218BF044641F2883504BF01240025A0
:10036000002002F0D1F90CB100F076F800F012FD97
:1003700000F0AEFB284600F0B7F800F06DF8F9E7A2
:100380000025EDE70546EBE7010007B008B500F0F2
:100390006BFBA0F120035842584108BD07B541F25C
:1003A0001203022101A8ADF8043000F07BFB03B07A
:1003B0005DF804FB38B5302383F3118817480368D0
:1003C0000BB101F02FFE164A144800234FF47A7146
:1003D00001F01EFE002383F31188124C236813B131
:1003E0002368013B2360636813B16368013B63606A
:1003F0000D4D2B7833B963687BB9022000F03CFCCB
:10040000322363602B78032B07D163682BB902205A
:1004100000F032FC4FF47A73636038BD5022002044
:10042000B50300087023002068220020084B1870D4
:1004300003280CD8DFE800F008050208022000F0CD
:100440000BBC022000F0FABB024B00225A6070473E
:1004500068220020702300201F4B204A10B51C4644
:100460001968013136D004339342F9D16268A2424F
:1004700030D31B4B9B6803F1006303F580439A4222
:1004800028D2002000F03EFB0220FFF7CFFF154BE3
:100490001A6C00221A64196E1A66196E596C5A6425
:1004A000596E5A665A6E1A6942F000521A611A69F8
:1004B00022F000521A611B6972B64FF0E02330211E
:1004C000C3F8084DD4E9003281F311889D4683F3C7
:1004D0000888104710BD00BF0040000820400008F9
:1004E00000220020003802402DE9F04F93B0AA4BC3
:1004F00000902022FF210AA89D6800F0F5FBA74A82
:100500001378A3B9A648012103601170302383F347
:10051000118803680BB101F085FDA24AA0480023B1
:100520004FF47A7101F074FD002383F31188009B6E
:1005300013B19D4B009A1A609C4A009C1378032BC0
:100540001EBF00231370984A4FF0000A18BF536073
:10055000D3465646D146012000F07EFB24B1924B93
:100560001B68002B00F01182002000F07DFA039040
:10057000039B002BF2DB012000F060FB039B213B7F
:10058000162BE8D801A252F823F000BFE9050008B5
:1005900011060008A50600085705000857050008C1
:1005A000570500082F070008FF0800081908000871
:1005B0007B080008A3080008C908000857050008C0
:1005C000DB080008570500084D09000889060008E7
:1005D0005705000891090008F5050008890600087C
:1005E000570500087B0800080220FFF7CFFE00280F
:1005F00040F0F581009B0221BAF1000F08BF1C46B4
:1006000005A841F21233ADF8143000F04BFAA2E71E
:100610004FF47A7000F028FA071EEBDB0220FFF798
:10062000B5FE0028E6D0013F052F00F2DA81DFE8B1
:1006300007F0030A0D10133605230593042105A8BE
:1006400000F030FA17E054480421F9E75848042133
:10065000F6E758480421F3E74FF01C08404600F045
:1006600053FA08F104080590042105A800F01AFACD
:10067000B8F12C0FF2D1012000FA07F747EA0B0B73
:100680005FFA8BFB4FF0000900F07AFB26B10BF00C
:100690000B030B2B08BF0024FFF780FE5BE74648E7
:1006A0000421CDE7002EA5D00BF00B030B2BA1D11D
:1006B0000220FFF76BFE074600289BD0012000F0C8
:1006C00021FA0220FFF7B2FE00265FFA86F84046C4
:1006D00000F028FA044690B10021404600F032FABA
:1006E00001360028F1D1BA46044641F21213022124
:1006F00005A8ADF814303E4600F0D4F92BE70120F0
:10070000FFF794FE2546244B9B68AB4207D9284649
:1007100000F0FAF9013040F067810435F3E7234B2C
:1007200000251D70204BBA465D603E46ACE7002EAA
:100730003FF460AF0BF00B030B2B7FF45BAF022099
:10074000FFF774FE322000F08FF9B0F10008FFF6D9
:1007500051AF18F003077FF44DAF0F4A926808EBD2
:10076000050393423FF646AFB8F5807F3FF742AFAF
:10077000124B0193B84523DD4FF47A7000F074F901
:100780000390039A002AFFF635AF019B039A03F802
:10079000012B0137EDE700BF002200206C23002071
:1007A00050220020B503000870230020682200209A
:1007B00004220020082200200C2200206C220020AD
:1007C000C820FFF7E3FD074600283FF413AF1F2DB5
:1007D00011D8C5F1200242450AAB25F0030028BF1D
:1007E000424683490192184400F058FA019A804821
:1007F000FF2100F079FA4FEAA8037D490193C8F37D
:100800008702284600F078FA064600283FF46DAFCC
:10081000019B05EB830537E70220FFF7B7FD0028B2
:100820003FF4E8AE00F0BAF900283FF4E3AE002749
:10083000B846704B9B68BB4218D91F2F11D80A9B32
:1008400001330ED027F0030312AA134453F8203CBF
:1008500005934046042205A900F0FEFA04378046BD
:10086000E7E7384600F050F90590F2E7CDF814803C
:10087000042105A800F016F906E70023642104A866
:10088000049300F005F900287FF4B4AE0220FFF7CE
:100890007DFD00283FF4AEAE049800F067F90590A6
:1008A000E6E70023642104A8049300F0F1F800288F
:1008B0007FF4A0AE0220FFF769FD00283FF49AAE56
:1008C000049800F063F9EAE70220FFF75FFD0028D3
:1008D0003FF490AE00F072F9E1E70220FFF756FD19
:1008E00000283FF487AE05A9142000F06DF904211B
:1008F0000746049004A800F0D5F83946B9E732203D
:1009000000F0B2F8071EFFF675AEBB077FF472AEBB
:10091000384A926807EB090393423FF66BAE022018
:10092000FFF734FD00283FF465AE27F003074F447E
:10093000B9453FF4A9AE484600F0E6F80421059019
:1009400005A800F0AFF809F10409F1E74FF47A7057
:10095000FFF71CFD00283FF44DAE00F01FF9002802
:1009600044D00A9B01330BD008220AA9002000F0D2
:10097000C3F900283AD02022FF210AA800F0B4F9D8
:10098000FFF70CFD1C4801F087FA13B0BDE8F08FAB
:10099000002E3FF42FAE0BF00B030B2B7FF42AAE8F
:1009A0000023642105A8059300F072F8074600288B
:1009B0007FF420AE0220FFF7E9FC804600283FF4D8
:1009C00019AEFFF7EBFC41F2883001F065FA0598AB
:1009D00000F020FA464600F0D3F93C46BBE5064657
:1009E00052E64FF0000905E6BA467EE637467CE659
:1009F0006C22002000220020A08601002DE9F84F83
:100A00004FF47A73DFF85880DFF8589006460D46A9
:100A100002FB03F7002498F900305A1C5FFA84FAAD
:100A200001D0A34212D159F8240003682A46D3F812
:100A300020B031463B46D847854207D1074B0120BD
:100A400083F800A0BDE8F88F0124E4E7002CFBD078
:100A50004FF4FA7001F020FA0020F3E7B8230020E9
:100A6000102200201422002007B500230246012195
:100A70000DF107008DF80730FFF7C0FF20B19DF89A
:100A8000070003B05DF804FB4FF0FF30F9E700000A
:100A90000A4608B50421FFF7B1FF80F00100C0B29B
:100AA000404208BD30B4074B0A461978064B53F84C
:100AB00021402368DD69054B0146AC46204630BC29
:100AC000604700BFB823002014220020A086010048
:100AD00070B501F001FD094E094D308000242868F1
:100AE0003388834208D901F0F1FC2B6804440133B8
:100AF000B4F5804F2B60F2D370BD00BFBA23002045
:100B00007823002001F0AABD00F1006000F58040CC
:100B10000068704700F10060920000F5804001F02D
:100B200029BD0000054B1A68054B1B889B1A8342A0
:100B300002D9104401F0CABC00207047782300207D
:100B4000BA23002038B5084D044629B1286820444E
:100B5000BDE8384001F0DABC2868204401F0BEFC52
:100B60000028F3D038BD00BF7823002010F0030325
:100B70000AD1B0F5047F05D200F10050A0F5104075
:100B8000D0F80038184670470023FBE700F100500A
:100B9000A0F51040D0F8100A70470000064991F8FF
:100BA000243033B10023086A81F824300822FFF78B
:100BB000B1BF0120704700BF7C230020014B1868A3
:100BC000704700BF002004E070B5194B1D68194B39
:100BD0000138C5F30B0408442D0C04221E88A642DC
:100BE0000BD15C680A46013C824213460FD214F9CD
:100BF000016F4EB102F8016BF6E7013A03F1080309
:100C0000ECD181420B4602D22C2203F8012B0A4A76
:100C100005241688AE4204D1984284BF967803F822
:100C2000016B013C02F10402F3D1581A70BD00BF00
:100C3000002004E0683B0008543B0008022803D170
:100C4000044B08229A6170470128FCD1014B042211
:100C5000F8E700BF00100240022804D1054B4FF412
:100C600000229A6170470128FCD1024B4FF4802288
:100C7000F7E700BF00100240022805D1064A536979
:100C800083F00803536170470128FCD1024A53697D
:100C900083F00403F6E700BF0010024010B5002304
:100CA000934203D0CC5CC4540133F9E710BD00007B
:100CB00010B5013810F9013F3BB191F900409C4259
:100CC00003D11AB10131013AF4E71AB191F90020C8
:100CD000981A10BD1046FCE703460246D01A12F9D6
:100CE000011B0029FAD1704702440346934202D007
:100CF00003F8011BFAE770472DE9F8431F4D14462E
:100D000095F824200746884652BBDFF870909CB3C4
:100D100095F824302BB92022FF2148462F62FFF797
:100D2000E3FF95F82400C0F10802A24228BF224642
:100D3000D6B24146920005EB8000FFF7AFFF95F871
:100D40002430A41B1E44F6B2082E17449044E4B28B
:100D500085F82460DBD1FFF721FF0028D7D108E018
:100D60002B6A03EB82038342CFD0FFF717FF0028E3
:100D7000CBD10020BDE8F8830120FBE77C230020D5
:100D8000024B1A78024B1A70704700BFB82300203C
:100D90001022002038B5194C194D204600F0BCFB3C
:100DA0002946204600F0E4FB2D6816486A6DD2F80B
:100DB000043843F00203C2F8043801F06DF8124918
:100DC000284600F0DBFC6A6D104DD2F80438286824
:100DD0000F4923F00203C2F80438A0424FF4E13374
:100DE0000B6001D000F0F8FA6868A04204D0BDE8BA
:100DF0003840074900F0F0BA38BD00BF98280020FD
:100E0000703C000840420F00783C0008142200208B
:100E1000A423002070B50C4B0C4D1E780C4B55F8DC
:100E200026209A4204460DD00A4B0021142218466F
:100E3000FFF75AFF0460014655F82600BDE87040F0
:100E400000F0CABA70BD00BFB823002014220020F1
:100E500098280020A423002030B5094D0A4491426F
:100E60000DD011F8013B5840082340F30004013B2A
:100E70002C4013F0FF0384EA5000F6D1EFE730BDB9
:100E80002083B8ED026843681143016003B118473D
:100E900070470000024AD36843F0C003D360704734
:100EA0000050004010B5054C054A0021204600F0D6
:100EB00071FA044A044BC4E9972310BDBC230020F7
:100EC000950E00080050004080DE8002234A037C1B
:100ED000002918BF0A46012B30B5C0F868220CD192
:100EE0001F4B984209D11F4B196C41F480111964B2
:100EF000196E41F4801119661B6EB2F90450146822
:100F0000D0F86032D0F85C12002D03EB5403B3FB31
:100F1000F4F3BEBF23F0070503F0070343EA4503DC
:100F200094888B60D38843F040030B61138943F0AE
:100F300001034B6144F4045343F02C03CB6004F4ED
:100F4000A05400230B60B4F5806F0B684B680CBF96
:100F50007F23FF2380F8643230BD00BF883B000848
:100F6000BC230020003802402DE9F041D0F85C623B
:100F7000F7683368DA0504469DB20DD5302383F354
:100F800011884FF480610430FFF77CFF6FF48073A9
:100F90003360002383F31188302383F3118804F135
:100FA000040815F02F033AD183F31188380615D5BC
:100FB000290613D5302383F3118804F1380000F09B
:100FC00065F900284EDA0821201DFFF75BFF4FF678
:100FD0007F733B40F360002383F311887A0616D5B4
:100FE0006B0614D5302383F31188D4E913239A4276
:100FF0000AD1236C43B127F040073F041021201D84
:101000003F0CFFF73FFFF760002383F31188D4F80C
:101010006822D36843B3BDE8F041106918472B0735
:1010200014D015F0080F0CBF00214FF48071E807B1
:1010300048BF41F02001AA0748BF41F040016B07BB
:1010400048BF41F080014046FFF71CFFAD067368C2
:1010500005D594F864122046194000F0CBF93568A4
:10106000ADB29EE77060B6E7BDE8F081F8B5154611
:1010700082680669AA420B46816938BF8568761A7C
:10108000B54204460BD218462A46FFF707FEA3696D
:101090002B44A361A3685B1BA3602846F8BD0CD951
:1010A00018463246FFF7FAFDAF1BE1683A46304476
:1010B000FFF7F4FDE3683B44EBE718462A46FFF7E9
:1010C000EDFDE368E5E7000083689342F7B5154658
:1010D000044638BF8568D0E90460361AB5420BD2A1
:1010E0002A46FFF7DBFD63692B446361A36828464A
:1010F0005B1BA36003B0F0BD0DD932460191FFF731
:10110000CDFD0199E068AF1B3A463144FFF7C6FDBB
:10111000E3683B44E9E72A46FFF7C0FDE368E4E7FC
:1011200010B50A440024C361029B8460C0E900003A
:10113000C0E90511C1600261036210BD08B5D0E9C4
:101140000532934201D1826882B98268013282609D
:101150005A1C42611970D0E904329A4224BFC36814
:101160004361002100F0B4FE002008BD4FF0FF30C5
:10117000FBE7000070B5302304460E4683F3118868
:10118000A568A5B1A368A269013BA360531CA36134
:1011900015782269934224BFE368A361E3690BB128
:1011A00020469847002383F31188284607E03146FC
:1011B000204600F07DFE0028E2DA85F3118870BD3C
:1011C0002DE9F74F04460E4617469846D0F81C9076
:1011D0004FF0300A8AF311884FF0000B154665B1C5
:1011E0002A4631462046FFF741FF034660B9414693
:1011F000204600F05DFE0028F1D0002383F3118823
:10120000781B03B0BDE8F08FB9F1000F03D0019057
:101210002046C847019B8BF31188ED1A1E448AF3C0
:101220001188DCE7C0E90511C160C3611144009B6E
:101230008260C0E90000016103627047F8B50446AE
:101240000D461646302383F31188A768A7B1A3681B
:10125000013BA36063695A1C62611D70D4E90432CA
:101260009A4224BFE3686361E3690BB12046984763
:10127000002080F3118807E03146204600F018FE78
:101280000028E2DA87F31188F8BD0000D0E90523D1
:101290009A4210B501D182687AB9826801328260BF
:1012A0005A1C82611C7803699A4224BFC368836117
:1012B000002100F00DFE204610BD4FF0FF30FBE78F
:1012C0002DE9F74F04460E4617469846D0F81C9075
:1012D0004FF0300A8AF311884FF0000B154665B1C4
:1012E0002A4631462046FFF7EFFE034660B94146E5
:1012F000204600F0DDFD0028F1D0002383F31188A3
:10130000781B03B0BDE8F08FB9F1000F03D0019056
:101310002046C847019B8BF31188ED1A1E448AF3BF
:101320001188DCE7026843681143016003B1184784
:10133000704700001430FFF743BF00004FF0FF3349
:101340001430FFF73DBF00003830FFF7B9BF000091
:101350004FF0FF333830FFF7B3BF00001430FFF712
:1013600009BF00004FF0FF311430FFF703BF00004A
:101370003830FFF763BF00004FF0FF323830FFF71F
:101380005DBF0000012914BF6FF0130000207047FB
:10139000FFF788BD37B515460E4A0260002242604D
:1013A000C0E902220122044602740B46009000F1BB
:1013B0005C014FF480721430FFF7B2FE00942B46AC
:1013C0004FF4807204F5AE7104F13800FFF72AFF84
:1013D00003B030BD9C3B000810B53023044683F3B6
:1013E0001188FFF773FD02232374002080F3118816
:1013F00010BD000038B5C36904460D461BB9042171
:101400000844FFF78FFF294604F11400FFF796FE0A
:10141000002806DA201D4FF40061BDE83840FFF7D0
:1014200081BF38BD026843681143016003B11847AA
:101430007047000013B5446BD4F894341A681178DF
:10144000042915D1217C022912D11979128901238D
:101450008B4013420CD101A904F14C0001F032FF82
:10146000D4F89444019B21790246206800F0D0F919
:1014700002B010BD143001F0B5BE00004FF0FF33D4
:10148000143001F0AFBE00004C3001F087BF000007
:101490004FF0FF334C3001F081BF0000143001F0F9
:1014A00083BE00004FF0FF31143001F07DBE00001C
:1014B0004C3001F053BF00004FF0FF324C3001F0D0
:1014C0004DBF00000020704710B5D0F894341A6862
:1014D00011780429044617D1017C022914D15979C5
:1014E000528901238B4013420ED1143001F016FEB5
:1014F000024648B1D4F894444FF48073617920686F
:10150000BDE8104000F072B910BD0000406BFFF75D
:10151000DBBF0000704700007FB5124B0360002363
:101520004360C0E90233012502260F4B05740446CF
:101530000290019300F18402294600964FF48073D3
:10154000143001F0C7FD094B0294CDE9006304F5A6
:1015500023724FF48073294604F14C0001F08EFE93
:1015600004B070BDC43B00080D1500083514000818
:101570000B68302282F311880A7903EB82029061B2
:101580004A79093243F822008A7912B103EB8203C7
:1015900098610223C0F894140374002080F311882A
:1015A0007047000038B5037F044613B190F85430FB
:1015B000ABB9201D01250221FFF734FF04F114000F
:1015C00025776FF0010100F08FFC84F8545004F18E
:1015D0004C006FF00101BDE8384000F085BC38BD1B
:1015E00010B5012104460430FFF71CFF00232377C8
:1015F00084F8543010BD000038B50446002514307E
:1016000001F080FD04F14C00257701F04FFE201D14
:1016100084F854500121FFF705FF2046BDE838400B
:10162000FFF752BF90F8443003F06003202B07D13E
:1016300090F84520212A4FF0000303D81F2A06D82E
:1016400000207047222AFBD1C0E90E3303E0034A91
:1016500082630722C2630364012070471C220020BA
:1016600037B5D0F894341A681178042904461AD191
:10167000017C022917D11979128901238B40134269
:1016800011D100F14C05284601F0D0FE58B101A956
:10169000284601F017FED4F89444019B21790246B4
:1016A000206800F0B5F803B030BD0000F0B500EBE5
:1016B000810385B09E6904460D46FEB1302383F355
:1016C000118804EB8507301D0821FFF7ABFEFB688E
:1016D0005B691B6806F14C001BB1019001F000FE34
:1016E000019803A901F0EEFD024648B1039B29468B
:1016F000204600F08DF8002383F3118805B0F0BD7B
:10170000FB685A691268002AF5D01B8A013B134016
:10171000F1D104F14402EAE7093138B550F821402B
:10172000DCB1302383F31188D4F894241368527900
:1017300003EB8203DB689B695D6845B10421601897
:10174000FFF770FE294604F1140001F0F1FC204679
:10175000FFF7BAFE002383F3118838BD70470000FD
:1017600001F050B8012303700023C0E90133C361C5
:1017700083620362C36243620363704738B5044601
:10178000302383F311880025C0E90355C0E90555CE
:10179000416001F047F80223237085F31188284641
:1017A00038BD000070B500EB810305465069DA6072
:1017B0000E46144618B110220021FFF795FAA069D1
:1017C00018B110220021FFF78FFA31462846BDE8F4
:1017D000704001F0F1B80000826802F001128260EE
:1017E0000022C0E90422826101F072B9F0B400EB7A
:1017F00081044789E4680125A4698D403D43458102
:1018000023600023A2606360F0BC01F08DB900008A
:10181000F0B400EB81040789E468012564698D4018
:101820003D43058123600023A2606360F0BC01F0AA
:1018300007BA000070B50223002504460370C0E912
:101840000255C0E90455C564856180F8345001F043
:101850004FF863681B6823B129462046BDE87040F5
:10186000184770BD0378052B10B504460AD080F8E0
:1018700050300523037043681B680BB1042198475F
:101880000023A36010BD00000178052906D190F85F
:101890005020436802701B6803B11847704700006E
:1018A00070B590F83430044613B1002380F834301A
:1018B00004F14402204601F02DF963689B68B3B936
:1018C00094F8443013F0600535D00021204601F033
:1018D000CDFB0021204601F0BFFB63681B6813B1FC
:1018E000062120469847062384F8343070BD2046F0
:1018F00098470028E4D0B4F84A30E26B9A4288BF97
:10190000E36394F94430E56B002B4FF0300380F231
:101910000381002D00F0F280092284F8342083F343
:1019200011880021D4E90E232046FFF771FF002320
:1019300083F31188DAE794F8452003F07F0343EA44
:10194000022340F20232934200F0C58021D8B3F561
:10195000807F48D00DD8012B3FD0022B00F0938020
:10196000002BB2D104F14C02A2630222E263236491
:10197000C1E7B3F5817F00F09B80B3F5407FA4D130
:1019800094F84630012BA0D1B4F84C3043F0020358
:1019900032E0B3F5006F4DD017D8B3F5A06F31D05A
:1019A000A3F5C063012B90D8636894F846205E6865
:1019B00094F84710B4F848302046B047002884D047
:1019C0004368A3630368E3631AE0B3F5106F36D08E
:1019D00040F6024293427FF478AF5C4BA36302234C
:1019E000E3630023C3E794F84630012B7FF46DAF27
:1019F000B4F84C3023F00203C4E90E55A4F84C307F
:101A0000256478E7B4F84430B3F5A06F0ED194F8AC
:101A1000463084F84E30204600F0C2FF63681B68F1
:101A200013B1012120469847032323700023C4E902
:101A30000E339CE704F14F03A3630123C3E723782C
:101A4000042B10D1302383F311882046FFF7C4FE06
:101A500085F311880321636884F84F5021701B6857
:101A60000BB12046984794F84630002BDED084F81E
:101A70004F300423237063681B68002BD6D00221EB
:101A800020469847D2E794F848301D0603F00F012E
:101A900020460AD501F030F8012804D002287FF44E
:101AA00014AF2B4B9AE72B4B98E701F017F8F3E7AD
:101AB00094F84630002B7FF408AF94F8483013F0C8
:101AC0000F01B3D01A06204602D501F0E3FAADE7C4
:101AD00001F0D6FAAAE794F84630002B7FF4F5AE71
:101AE00094F8483013F00F01A0D01B06204602D511
:101AF00001F0BCFA9AE701F0AFFA97E7142284F8F4
:101B0000342083F311882B462A4629462046FFF7C6
:101B10006DFE85F31188E9E65DB1152284F8342065
:101B200083F311880021D4E90E232046FFF75EFEDF
:101B3000FDE60B2284F8342083F311882B462A46D5
:101B400029462046FFF764FEE3E700BFF43B0008A8
:101B5000EC3B0008F03B000838B590F83430044600
:101B6000002B3ED0063BDAB20F2A34D80F2B32D8E6
:101B7000DFE803F037313108223231313131313190
:101B800031313737C56BB0F84A309D4214D2C36843
:101B90001B8AB5FBF3F203FB12556DB9302383F3B7
:101BA00011882B462A462946FFF732FE85F3118815
:101BB0000A2384F834300EE0142384F834303023C0
:101BC00083F3118800231A4619462046FFF70EFEBC
:101BD000002383F3118838BD036C03B198470023B9
:101BE000E7E70021204601F041FA0021204601F0FC
:101BF00033FA63681B6813B1062120469847062311
:101C0000D7E7000010B590F83430142B044629D0E3
:101C100017D8062B05D001D81BB110BD093B022BEC
:101C2000FBD80021204601F021FA0021204601F0D6
:101C300013FA63681B6813B10621204698470623F0
:101C400019E0152BE9D10B2380F83430302383F3CE
:101C5000118800231A461946FFF7DAFD002383F3A3
:101C60001188DAE7C3689B695B68002BD5D1036CE8
:101C700003B19847002384F83430CEE7002303757E
:101C8000826803691B6899689142FBD25A680360B5
:101C900042601060586070470023037582680369D2
:101CA0001B6899689142FBD85A68036042601060D3
:101CB0005860704708B50846302383F311880B7DC0
:101CC000032B05D0042B0DD02BB983F3118808BD4D
:101CD0008B6900221A604FF0FF338361FFF7CEFF5C
:101CE0000023F2E7D1E9003213605A60F3E7000005
:101CF000FFF7C4BF054BD9680875186802681A60F9
:101D0000536001220275D860FEF7FCBA2826002035
:101D100030B50C4BDD684B1C87B004460FD02B460A
:101D2000094A684600F074F92046FFF7E3FF009B7C
:101D300013B1684600F076F9A86907B030BDFFF727
:101D4000D9FFF9E728260020B51C0008044B1A68C3
:101D5000DB6890689B68984294BF00200120704720
:101D600028260020084B10B51C68D86822681A6025
:101D7000536001222275DC60FFF78EFF014620468A
:101D8000BDE81040FEF7BEBA28260020044B1A68B2
:101D9000DB6892689B689A4201D9FFF7E3BF7047FE
:101DA0002826002038B5074C07490848012300259C
:101DB0002370656001F078FB0223237085F311889E
:101DC00038BD00BF90280020FC3B000828260020DA
:101DD00000F05EB9EFF3118020B9EFF305833022F4
:101DE00082F311887047000010B530B9EFF3058415
:101DF000C4F3080414B180F3118810BDFFF7C6FFC7
:101E000084F31188F9E70000034A516853685B1AAC
:101E10009842FBD8704700BF001000E08B6002239F
:101E200008618B82084670478368A3F1840243F8F7
:101E3000142C026943F8442C426943F8402C094AA7
:101E400043F8242CC26843F8182C022203F80C2C07
:101E5000002203F80B2C044A43F8102CA3F12000B5
:101E6000704700BF1D0300082826002008B5FFF7B3
:101E7000DBFFBDE80840FFF73BBF0000024BDB681B
:101E800098610F20FFF736BF28260020302383F308
:101E90001188FFF7F3BF000008B50146302383F334
:101EA00011880820FFF734FF002383F3118808BD51
:101EB000064BDB6839B1426818605A6013604360B2
:101EC0000420FFF725BF4FF0FF3070472826002081
:101ED0000368984206D01A680260506099611846FB
:101EE000FFF706BF7047000038B504460D4620686E
:101EF000844200D138BD036823605C608561FFF7D0
:101F0000F7FEF4E710B503689C68A2420CD85C6841
:101F10008A600B604C602160596099688A1A9A60E7
:101F20004FF0FF33836010BD1B68121BECE700000D
:101F30000A2938BF0A2170B504460D460A266019E1
:101F400001F0AAFA01F092FA041BA54203D8751C0D
:101F50002E460446F3E70A2E04D9BDE8704001205E
:101F600001F0E2BA70BD0000F8B5144B0D46D9611E
:101F700003F1100141600A2A1969826038BF0A2200
:101F8000016048601861A818144601F075FA0A2724
:101F900001F06CFA431BA342064606D37C1C2819A9
:101FA00001F07AFA27463546F2E70A2F04D9BDE850
:101FB000F840012001F0B8BAF8BD00BF2826002083
:101FC000F8B506460D4601F051FA0F4A134653F88C
:101FD000107F9F4206D12A4601463046BDE8F840B0
:101FE000FFF7C2BFD169BB68441A2C1928BF2C4621
:101FF000A34202D92946FFF79BFF224631460348F8
:10200000BDE8F840FFF77EBF2826002038260020D4
:1020100010B4C0E9032300235DF8044B4361FFF7CC
:10202000CFBF000010B5194C236998420DD0D0E9FC
:102030000032816813605A609A680A449A600023EB
:1020400003604FF0FF33A36110BD2346026843F8DD
:10205000102F53600022026022699A4203D1BDE82A
:10206000104001F013BA936881680B44936001F04B
:10207000FDF92269E1699268441AA242E4D9114447
:10208000BDE81040091AFFF753BF00BF2826002003
:102090002DE9F047DFF8BC8008F110072C4ED8F886
:1020A000105001F0E3F9D8F81C40AA68031B9A42CB
:1020B0003ED81444D5E900324FF00009C8F81C405E
:1020C00013605A60C5F80090D8F81030B34201D1BF
:1020D00001F0DCF989F31188D5E9033128469847E6
:1020E000302383F311886B69002BD8D001F0BEF93F
:1020F0006A69A0EB04094A4582460DD2022001F02C
:1021000013FA0022D8F81030B34208D151462846BD
:10211000BDE8F047FFF728BF121A2244F2E712EB9E
:10212000090938BF4A4629463846FFF7EBFEB5E7AE
:10213000D8F81030B34208D01444211AC8F81C0053
:10214000A960BDE8F047FFF7F3BEBDE8F08700BF28
:10215000382600202826002000207047FEE70000D7
:10216000704700004FF0FF307047000002290CD08C
:10217000032904D00129074818BF00207047032A0B
:1021800005D8054800EBC20070470448704700209E
:10219000704700BFD43C00082C220020883C000877
:1021A00070B59AB00546084601A9144600F0C2F879
:1021B00001A8FEF791FD431C5B00C5E90034002235
:1021C000237003236370C6B201AB02341046D1B250
:1021D0008E4204F1020401D81AB070BD13F8011B3D
:1021E00004F8021C04F8010C0132F0E708B53023B2
:1021F00083F311880348FFF733FA002383F3118830
:1022000008BD00BF9828002090F8443003F01F025A
:10221000012A07D190F845200B2A03D10023C0E9F9
:102220000E3315E003F06003202B08D1B0F84830DE
:102230002BB990F84520212A03D81F2A04D8FFF78C
:10224000F1B9222AEBD0FAE7034A82630722C2637C
:1022500003640120704700BF2322002007B5052931
:1022600017D8DFE801F0191603191920302383F37A
:102270001188104A01900121FFF794FA01980E4A43
:102280000221FFF78FFA0D48FFF7B6F9002383F319
:10229000118803B05DF804FB302383F311880748ED
:1022A000FFF780F9F2E7302383F311880348FFF743
:1022B00097F9EBE7283C00084C3C000898280020E0
:1022C00038B50C4D0C4C0D492A4604F10800FFF7B7
:1022D00067FF05F1CA0204F110000949FFF760FF2A
:1022E00005F5CA7204F118000649BDE83840FFF749
:1022F00057BF00BF602D00202C220020083C0008A2
:10230000123C00081D3C000870B5044608460D4606
:10231000FEF7E2FCC6B22046013403780BB918463A
:1023200070BD32462946FEF7C3FC0028F3D10120D8
:10233000F6E700002DE9F04705460C46FEF7CCFC19
:102340002B49C6B22846FFF7DFFF08B10736F6B2C1
:1023500028492846FFF7D8FF08B11036F6B2632E99
:102360000BD8DFF88C80DFF88C90234FDFF894A037
:102370002E7846B92670BDE8F08729462046BDE88C
:10238000F04701F0C9BB252E2ED107224146284631
:10239000FEF78EFC70B9194B224603F10C0153F87D
:1023A000040B42F8040B8B42F9D11B8813800735CC
:1023B0000E34DDE7082249462846FEF779FC98B935
:1023C0000F4BA21C197809090232C95D02F8041CDE
:1023D00013F8011B01F00F015345C95D02F8031CFE
:1023E000F0D118340835C3E704F8016B0135BFE7B5
:1023F000F43C00081D3C00080B3D0008FC3C0008B4
:10240000107AFF1F1C7AFF1FBFF34F8F024AD36859
:10241000DB03FCD4704700BF003C024008B5094B09
:102420001B7873B9FFF7F0FF074B1A69002ABFBF8B
:10243000064A5A6002F188325A601A6822F48062B1
:102440001A6008BDBE2F0020003C024023016745F2
:1024500008B50B4B1B7893B9FFF7D6FF094B1A69E8
:1024600042F000421A611A6842F480521A601A68F7
:1024700022F480521A601A6842F480621A6008BD21
:10248000BE2F0020003C02400B28F0B516D80C4CA3
:102490000C4923787BB90C4D0E460C234FF000629B
:1024A00055F8047B46F8042B013B13F0FF033A4434
:1024B000F6D10123237051F82000F0BD0020FCE785
:1024C000F02F0020C02F00201C3D0008014B53F8C6
:1024D000200070471C3D00080C2070470B2810B5E9
:1024E000044601D9002010BDFFF7CEFF064B53F87C
:1024F00024301844C21A0BB90120F4E712680132E3
:10250000F0D1043BF6E700BF1C3D00080B2838B5AE
:10251000044628D8FFF75EFCFFF776FFFFF77EFF43
:10252000124AF323D360E300DBB243F4007343F0B9
:1025300002031361136943F4803313610546204697
:10254000FFF762FFFFF7A0FF094B53F8241000F0DC
:10255000E9F82846FFF77CFFFFF746FC2046BDE878
:102560003840FFF7BBBF002038BD00BF003C024031
:102570001C3D000812F001032DE9F04105460E460E
:1025800014464BD18218B2F1016F61D8314B1B68F0
:1025900013F001035CD0304FFFF71CFCFFF73EFF48
:1025A000F323FB60FFF730FF314640F20128032C94
:1025B00018D824F00104284E0C446D1A40F201187A
:1025C000A142336905EB01072AD123F001033361EE
:1025D000FFF73EFFFFF708FC0120BDE8F081043C57
:1025E0000435E4E7AB07E4D13B6923F440733B6176
:1025F0003B6943EA08033B6151F8046B2E60BFF36B
:102600004F8FFFF701FF2B689E42E8D03B6923F014
:1026100001033B61FFF71CFFFFF7E6FB0020DCE74F
:1026200023F440733361336943EA080333610B8851
:102630003B80BFF34F8FFFF7E7FE3F8831F8023B47
:10264000BFB2BB42BCD0336923F001033361E1E781
:102650001846C2E700380240003C0240084908B56D
:102660000B7828B11BB9FFF7D9FE01230B7008BD09
:10267000002BFCD0BDE808400870FFF7E9BE00BFA2
:10268000BE2F002010B50244064BD2B2904200D1BA
:1026900010BD441C00B253F8200041F8040BE0B216
:1026A000F4E700BF502800400F4B30B51C6F2404E6
:1026B00007D41C6F44F400741C671C6F44F400447E
:1026C0001C670A4C236843F4807323600244084B60
:1026D000D2B2904200D130BD441C00B251F8045B2C
:1026E00043F82050E0B2F4E70038024000700040A8
:1026F0005028004007B5012201A90020FFF7C2FFC2
:10270000019803B05DF804FB13B50446FFF7F2FF30
:10271000A04205D0012201A900200194FFF7C4FFC7
:1027200002B010BD70470000034B1A681AB9034A83
:10273000D2F874281A607047F42F0020003002404D
:1027400008B5FFF7F1FF024B1868C0F3407008BDF1
:10275000F42F002070470000FEE700000A4B0B48F2
:102760000B4A90420BD30B4BDA1C121AC11E22F0FB
:1027700003028B4238BF00220021FEF7B5BA53F89E
:10278000041B40F8041BECE7D43E0008F0300020A6
:10279000F0300020F030002070B5D0E915439E687D
:1027A00000224FF0FF3504EB42135101D3F800092A
:1027B0000028BEBFD3F8000940F08040C3F80009EC
:1027C000D3F8000B0028BEBFD3F8000B40F08040C8
:1027D000C3F8000B013263189642C3F80859C3F8D6
:1027E000085BE0D24FF00113C4F81C3870BD000044
:1027F000890141F02001016103699B06FCD412208C
:10280000FFF702BB10B5054C2046FEF7ABFF4FF0BB
:10281000A0436365024BA36510BD00BFF82F0020E5
:10282000703D000870B50378012B054650D12A4B46
:10283000446D98421BD1294B5A6B42F080025A6377
:102840005A6D42F080025A655A6D5A6942F0800210
:102850005A615A6922F080025A610E2143205B6955
:1028600000F022FC1E4BE3601E4BC4F8003800232E
:10287000C4F8003EC02323606E6D4FF40413A363BD
:102880003369002BFCDA012333610C20FFF7BCFA1B
:102890003369DB07FCD41220FFF7B6FA3369002B4B
:1028A000FCDA0026A6602846FFF776FF6B68C4F8BE
:1028B0001068DB68C4F81468C4F81C684BB90A4B8C
:1028C000A3614FF0FF336361A36843F00103A3608A
:1028D00070BD064BF4E700BFF82F0020003802401F
:1028E0004014004003002002003C30C0083C30C0CF
:1028F000F8B5446D054600212046FFF779FFA96D24
:1029000000234FF001128F68C4F834384FF000668E
:10291000C4F81C284FF0FF3004EB431201339F42F0
:10292000C2F80069C2F8006BC2F80809C2F8080BC7
:10293000F2D20B686A6DEB6563621023136116694E
:1029400016F01006FBD11220FFF75EFAD4F800381B
:1029500023F4FE63C4F80038A36943F4402343F032
:102960001003A3610923C4F81038C4F814380A4BC3
:10297000EB604FF0C043C4F8103B084BC4F8003B79
:10298000C4F81069C4F80039EB6D03F1100243F488
:102990008013EA65A362F8BD4C3D0008408000103A
:1029A000426D90F84E10D2F8003823F4FE6343EAEB
:1029B0000113C2F8003870472DE9F84300EB81039A
:1029C000456DDA68166806F00306731E022B05EBE8
:1029D00041130C4680460FFA81F94FEA41104FF03F
:1029E0000001C3F8101B4FF0010104F1100398BF60
:1029F000B60401FA03F391698EBF334E06F1805697
:102A000006F5004600293AD0578A04F158014901D9
:102A100037436F50D5F81C180B43C5F81C382B18DA
:102A20000021C3F8101953690127611EA7409BB309
:102A3000138A928B9B08012A88BF5343D8F85C20E5
:102A4000981842EA034301F1400205EB8202C8F8FC
:102A50005C00214653602846FFF7CAFE08EB890058
:102A6000C3681B8A43EA8453483464011E432E51D1
:102A7000D5F81C381F43C5F81C78BDE8F88305EB72
:102A80004917D7F8001B21F40041C7F8001BD5F8FF
:102A90001C1821EA0303C0E704F13F0305EB83039D
:102AA0000A4A5A6028462146FFF7A2FE05EB491064
:102AB000D0F8003923F40043C0F80039D5F81C38A9
:102AC00023EA0707D7E700BF0080001000040002D8
:102AD000826D1268C265FFF75FBE00005831436D1A
:102AE00049015B5813F4004004D013F4001F0CBFDD
:102AF00002200120704700004831436D49015B58B6
:102B000013F4004004D013F4001F0CBF0220012076
:102B10007047000000EB8101CB68196A0B681360F5
:102B20004B6853607047000000EB810330B5DD68EF
:102B3000AA691368D36019B9402B84BF402313607E
:102B40006B8A1468426D1C44013CB4FBF3F463438C
:102B5000033323F0030302EB411043EAC44343F081
:102B6000C043C0F8103B2B6803F00303012B09B2EC
:102B70000ED1D2F8083802EB411013F4807FD0F860
:102B8000003B14BF43F0805343F00053C0F8003BB8
:102B900002EB4112D2F8003B43F00443C2F8003B81
:102BA00030BD00002DE9F041244D6E6D06EB401361
:102BB0000446D3F8087BC3F8087B38070AD5D6F853
:102BC0001438190706D505EB84032146DB6828462F
:102BD0005B689847FA071FD5D6F81438DB071BD572
:102BE00005EB8403D968CCB98B69488A5A68B2FB73
:102BF000F0F600FB16228AB91868DA6890420DD206
:102C0000121AC3E90024302383F311880B482146AC
:102C1000FFF78AFF84F31188BDE8F081012303FAEE
:102C200004F26B8923EA02036B81CB68002BF3D09B
:102C300021460248BDE8F041184700BFF82F0020A8
:102C400000EB810370B5DD68436D6C692668E66052
:102C50004A0156BB1A444FF40020C2F810092A68F2
:102C600002F00302012A0AB20ED1D3F8080803EBDE
:102C7000421410F4807FD4F8000914BF40F0805053
:102C800040F00050C4F8000903EB4212D2F80009EA
:102C900040F00440C2F80009D3F83408012202FAD7
:102CA00001F10143C3F8341870BD19B9402E84BF37
:102CB0004020206020682E8A8419013CB4FBF6F481
:102CC00040EAC44040F000501A44C6E72DE9F843FA
:102CD0003B4D6E6D06EB40130446D3F80889C3F8EC
:102CE000088918F0010F4FEA40171AD0D6F81038AB
:102CF000DB0716D505EB8003D9684B691868DA68DD
:102D0000904230D2121A4FF000091A60C3F80490B2
:102D1000302383F3118821462846FFF791FF89F37A
:102D2000118818F0800F1CD0D6F834380126A64040
:102D3000334216D005EB84036D6DD3F80CC0DCF87C
:102D400014200134E4B2D2F800E005EB04342F443F
:102D50005168714515D3D5F8343823EA0606C5F80D
:102D60003468BDE8F883012303FA04F22B8923EACF
:102D700002032B818B68002BD3D02146284698472D
:102D8000CFE7BCF81000AEEB0103834228BF034637
:102D9000D7F8180980B2B3EB800FE2D89068A0F1A1
:102DA000040959F8048FC4F80080A0EB090898447E
:102DB000B8F1040FF5D818440B4490605360C7E78E
:102DC000F82F00202DE9F74FA24C656D6E69AB69B5
:102DD0001E4016F480586E6107D02046FEF72AFD8B
:102DE00003B0BDE8F04F00F04DBC002E12DAD5F86C
:102DF000003E98489B071EBFD5F8003E23F0030312
:102E0000C5F8003ED5F8043823F00103C5F80438AE
:102E1000FEF73AFD370505D58E48FFF7BDFC8D4816
:102E2000FEF720FDB0040CD5D5F8083813F0060FD6
:102E3000EB6823F470530CBF43F4105343F4A053D6
:102E4000EB6031071BD56368DB681BB9AB6923F006
:102E50000803AB612378052B0CD1D5F8003E7D48E3
:102E60009A071EBFD5F8003E23F00303C5F8003EC5
:102E7000FEF70AFD6368DB680BB176489847F302FA
:102E800074D4B70227D5D4F85490DFF8C8B100271E
:102E90004FF0010A09EB4712D2F8003B03F440233C
:102EA000B3F5802F11D1D2F8003B002B0DDA6289E7
:102EB0000AFA07F322EA0303638104EB8703DB6862
:102EC000DB6813B1394658469847A36D01379B68B4
:102ED000FFB29F42DED9F00617D5676D3A6AC2F39A
:102EE0000A1002F00F0302F4F012B2F5802F00F086
:102EF0008580B2F5402F08D104EB83030022DB6804
:102F00001B6A07F5805790426AD13003D5F81848FC
:102F100013D5E10302D50020FFF744FEA20302D53A
:102F20000120FFF73FFE630302D50220FFF73AFEC0
:102F3000270302D50320FFF735FE75037FF550AF59
:102F4000E00702D50020FFF7C1FEA10702D501204E
:102F5000FFF7BCFE620702D50220FFF7B7FE23078A
:102F60007FF53EAF0320FFF7B1FE39E7636DDFF871
:102F7000E4A0019300274FF00109A36D9B685FFA5D
:102F800087FB9B453FF67DAF019B03EB4B13D3F8CB
:102F9000001901F44021B1F5802F1FD1D3F8001999
:102FA00000291BDAD3F8001941F09041C3F8001949
:102FB000D3F800190029FBDB5946606DFFF718FCB8
:102FC000218909FA0BF321EA0303238104EB8B0324
:102FD000DB689B6813B15946504698470137CCE7E8
:102FE000910708BFD7F80080072A98BF03F8018B24
:102FF00002F1010298BF4FEA182884E7023304EB7C
:10300000830207F580575268D2F818C0DCF8082010
:10301000DCE9001CA1EB0C0C002188420AD104EB76
:10302000830463689B699A6802449A605A68024400
:103030005A606AE711F0030F08BFD7F800808C458B
:1030400088BF02F8018B01F1010188BF4FEA1828FF
:10305000E3E700BFF82F0020436D03EB4111D1F8E7
:10306000003B43F40013C1F8003B7047436D03EB92
:103070004111D1F8003943F40013C1F80039704709
:10308000436D03EB4111D1F8003B23F40013C1F869
:10309000003B7047436D03EB4111D1F8003923F435
:1030A0000013C1F80039704700F1604303F5614334
:1030B0000901C9B283F80013012200F01F039A40EE
:1030C00043099B0003F1604303F56143C3F880218A
:1030D0001A60704730B5039C0172043304FB03256A
:1030E000C0E90653049B03630021059BC160C0E94E
:1030F0000000C0E90422C0E90842C0E90A114363A4
:1031000030BD0000416A0022C0E90411C0E90A2272
:10311000C2606FF00101FEF7E7BE0000D0E90432A3
:10312000934201D1C2680AB9181D70470020704748
:1031300003691960C2680132C260C26913448269BE
:103140000361934224BF436A03610021FEF7C0BEBE
:1031500038B504460D46E3683BB16269131D126839
:10316000A3621344E362002007E0237A33B92946BF
:103170002046FEF79DFE0028EDDA38BD6FF0010015
:10318000FBE70000C368C269013BC36043691344A5
:1031900082694361934224BF436A4361002383628F
:1031A000036B03B11847704770B53023044683F3AF
:1031B0001188866A3EB9FFF7CBFF054618B186F342
:1031C0001188284670BDA36AE26A13F8015BA36206
:1031D000934202D32046FFF7D5FF002383F31188E3
:1031E000EFE700002DE9F84F04460E4617469846D3
:1031F0004FF0300989F311880025AA46D4F828B089
:10320000BBF1000F09D141462046FFF7A1FF20B1D5
:103210008BF311882846BDE8F88FD4E90A12A7EB92
:10322000050B521A934528BF9346BBF1400F1BD99B
:10323000334601F1400251F8040B43F8040B91426C
:10324000F9D1A36A40334036A3624035D4E90A235A
:103250009A4202D32046FFF795FF8AF31188BD42B8
:10326000D8D289F31188C9E730465A46FDF716FDD2
:10327000A36A5B445E44A3625D44E7E710B5029C29
:103280000172043303FB0421C0E906130023C0E9E3
:103290000A33039B0363049BC460C0E90000C0E9D8
:1032A0000422C0E90842436310BD0000026AC26004
:1032B000426AC0E904220022C0E90A226FF001013B
:1032C000FEF712BED0E904239A4201D1C26822B9A6
:1032D000184650F8043B0B60704700231846FAE785
:1032E000C368C2690133C36043691344826943619F
:1032F000934224BF436A43610021FEF7E9BD000009
:1033000038B504460D46E3683BB123691A1DA26235
:10331000E2691344E362002007E0237A33B92946C7
:103320002046FEF7C5FD0028EDDA38BD6FF001003C
:10333000FBE7000003691960C268013AC260C26914
:10334000134482690361934224BF436A03610023EB
:103350008362036B03B118477047000070B53023D8
:103360000D460446114683F31188866A2EB9FFF78D
:10337000C7FF10B186F3118870BDA36A1D70A36AE0
:10338000E26A01339342A36204D3E169204604391F
:10339000FFF7D0FF002080F31188EDE72DE9F84F0B
:1033A00004460D46904699464FF0300A8AF311883C
:1033B0000026B346A76A4FB949462046FFF7A0FF4B
:1033C00020B187F311883046BDE8F88FD4E90A07A9
:1033D0003A1AA8EB0607974228BF1746402F1BD979
:1033E00005F1400355F8042B40F8042B9D42F9D118
:1033F000A36A4033A3624036D4E90A239A4204D335
:10340000E16920460439FFF795FF8BF311884645A3
:10341000D9D28AF31188CDE729463A46FDF73EFC1A
:10342000A36A3B443D44A3623E44E5E7D0E904235C
:103430009A4217D1C3689BB1836A8BB1043B9B1A34
:103440000ED01360C368013BC360C3691A4483692B
:1034500002619A4224BF436A03610023836201230D
:10346000184670470023FBE700F036B9014B586A55
:10347000704700BF000C0040034B002258631A61E4
:103480000222DA60704700BF000C0040014B0022AE
:10349000DA607047000C0040014B5863704700BF72
:1034A000000C0040FEE7000070B51B4B01630025D7
:1034B000044686B0586085620E4600F0BFF804F1FD
:1034C0001003C4E904334FF0FF33C4E90635C4E9FF
:1034D0000044A560E562FFF7C9FF2B460246C4E938
:1034E000082304F134010D4A256580232046FEF7A8
:1034F00095FC0123E0600A4A03750092726801920C
:10350000B268CDE90223074B6846CDE90435FEF7E2
:10351000ADFC06B070BD00BF902800207C3D0008C7
:10352000813D0008A5340008024AD36A1843D062DE
:10353000704700BF282600204B6843608B6883607B
:10354000CB68C3600B6943614B6903628B6943625B
:103550000B6803607047000008B5264B26481A69BF
:1035600040F2FF110A431A611A6922F4FF7222F035
:1035700001021A611A691A6B0A431A631A6D0A4327
:103580001A651E4A1B6D1146FFF7D6FF02F11C019A
:1035900000F58060FFF7D0FF02F1380100F5806090
:1035A000FFF7CAFF02F1540100F58060FFF7C4FF86
:1035B00002F1700100F58060FFF7BEFF02F18C019F
:1035C00000F58060FFF7B8FF02F1A80100F5806008
:1035D000FFF7B2FF02F1C40100F58060FFF7ACFF16
:1035E00002F1E00100F58060FFF7A6FFBDE80840AA
:1035F00000F0F0B80038024000000240883D0008AA
:1036000008B500F069FAFEF7CDFBFFF78DF8BDE8CD
:103610000840FEF755BE000070470000EFF3098335
:1036200005494A6B22F001024A63683383F3098833
:10363000002383F31188704700EF00E0302080F30F
:10364000118862B60C4B0D4AD96821F4E061090477
:10365000090C0A43DA60D3F8FC20094942F0807271
:10366000C3F8FC200A6842F001020A602022DA77DF
:1036700083F82200704700BF00ED00E00003FA0568
:10368000001000E010B5302383F311880E4B5B6807
:1036900013F4006314D0F1EE103AEFF30984683CA0
:1036A0004FF08073E361094BDB6B236684F3098879
:1036B000FEF74CFB10B1064BA36110BD054BFBE7B9
:1036C00083F31188F9E700BF00ED00E000EF00E0B0
:1036D0002F030008320300080E4B1A6C42F0080258
:1036E0001A641A6E42F008021A660B4A1B6E93683F
:1036F00043F008039360094B53229A624FF0FF3264
:10370000DA6200229A615A63DA605A6001225A61D1
:103710001A60704700380240002004E0000C0040AE
:10372000094A08B51169D3680B40D9B2C9439B0750
:10373000116107D5302383F31188FEF749FB00237D
:1037400083F3118808BD00BF000C00401F4B1A69AD
:103750006FEAC2526FEAD2521A611A69C2F30802C2
:103760001A614FF0FF301A695A69586100215A698D
:1037700059615A691A6A62F080521A621A6A02F032
:1037800080521A621A6A5A6A58625A6A59625A6AA6
:103790001A6C42F080521A641A6E42F080521A6615
:1037A0001A6E0B4A106840F480701060186F00F4B5
:1037B0004070B0F5007F1EBF4FF480301867196766
:1037C000536823F40073536000F05EB90038024080
:1037D00000700040334B4FF080521A64324A4FF46D
:1037E000404111601A6842F001021A601A6891079C
:1037F000FCD59A6822F003029A602A4B9A6812F06C
:103800000C02FBD1196801F0F90119609A601A687D
:1038100042F480321A601A689203FCD55A6F42F063
:1038200001025A671F4B5A6F9007FCD51F4A5A6016
:103830001A6842F080721A601B4A53685904FCD51A
:10384000184B1A689201FCD5194A9A60194B1A68EC
:10385000194B9A42194B21D1194A1168194A9142C0
:103860001CD140F205121A60144A136803F00F03CA
:10387000052BFAD10B4B9A6842F002029A609A68C3
:1038800002F00C02082AFAD15A6C42F480425A64BF
:103890005A6E42F480425A665B6E704740F205727F
:1038A000E1E700BF003802400070004008544007C4
:1038B00000948838002004E011640020003C02409D
:1038C00000ED00E041C20F41074A08B5536903F01B
:1038D0000103536123B1054A13680BB1506898473F
:1038E000BDE80840FFF7CEBE003C0140703000202C
:1038F000074A08B5536903F00203536123B1054A2F
:1039000093680BB1D0689847BDE80840FFF7BABE8E
:10391000003C014070300020074A08B5536903F0AD
:103920000403536123B1054A13690BB150699847E9
:10393000BDE80840FFF7A6BE003C01407030002003
:10394000074A08B5536903F00803536123B1054AD8
:1039500093690BB1D0699847BDE80840FFF792BE64
:10396000003C014070300020074A08B5536903F05D
:103970001003536123B1054A136A0BB1506A98478B
:10398000BDE80840FFF77EBE003C014070300020DB
:10399000164B10B55C6904F478725A61A30604D51D
:1039A000134A936A0BB1D06A9847600604D5104A4F
:1039B000136B0BB1506B9847210604D50C4A936BDF
:1039C0000BB1D06B9847E20504D5094A136C0BB1D3
:1039D000506C9847A30504D5054A936C0BB1D06C85
:1039E0009847BDE81040FFF74DBE00BF003C0140C6
:1039F00070300020194B10B55C6904F47C425A61A8
:103A0000620504D5164A136D0BB1506D9847230516
:103A100004D5134A936D0BB1D06D9847E00404D5DB
:103A20000F4A136E0BB1506E9847A10404D50C4A8F
:103A3000936E0BB1D06E9847620404D5084A136F99
:103A40000BB1506F9847230404D5054A936F0BB10F
:103A5000D06F9847BDE81040FFF714BE003C01400E
:103A60007030002008B50348FDF77EFABDE8084035
:103A7000FFF708BEBC23002008B5FFF751FEBDE8E4
:103A80000840FFF7FFBD0000062108B50846FFF714
:103A90000BFB06210720FFF707FB06210820FFF795
:103AA00003FB06210920FFF7FFFA06210A20FFF792
:103AB000FBFA06211720FFF7F7FA06212820FFF767
:103AC000F3FA07213220FFF7EFFABDE808400C2196
:103AD0003520FFF7E9BA000008B5FFF737FE00F020
:103AE0000DF8FDF755FCFDF73BFEFDF713FDFFF765
:103AF00093FDBDE80840FFF7B7BC00000023054A6E
:103B000019460133102BC2E9001102F10802F8D165
:103B1000704700BF70300020034611F8012B03F8F6
:103B2000012B002AF9D1704753544D3332463F3FA1
:103B30003F0053544D3332463430780053544D33A4
:103B400032463432780053544D333246343436588A
:103B500058000000012033000010410001105A00FD
:103B6000031059000710310000000000283B000836
:103B700013040000323B0008190400003C3B00081D
:103B800021040000463B00080096000000000000F1
:103B90000000000000000000000000000000000025
:103BA000511300083D13000879130008651300083D
:103BB000711300085D13000849130008351300084D
:103BC0008513000800000000911400087D1400080F
:103BD000B9140008A5140008B11400089D140008C9
:103BE0008914000875140008C514000800000000BE
:103BF000010000000000000063300000F83B0008F6
:103C000080260020902800204172647550696C6FF6
:103C1000740025424F415244252D424C0025534506
:103C20005249414C25000000020000000000000045
:103C3000AD1600081917000840004000302D002084
:103C4000402D0020020000000000000003000000E2
:103C5000000000005D1700080000000010000000D8
:103C6000502D0020000000000100000000000000B6
:103C7000F82F0020010102005D2200086D210008DC
:103C800009220008ED21000843000000903C0008D4
:103C900009024300020100C03209040000010202CF
:103CA0000100052400100105240100010424020282
:103CB0000524060001070582030800FF090401002E
:103CC000020A00000007050102400000070581020A
:103CD0004000000012000000DC3C0008120110014E
:103CE00002000040091241570002010203010000D6
:103CF0000403090425424F4152442500466C79696A
:103D00006E674D6F6F6E463430370030313233346A
:103D100035363738394142434445460000400000BB
:103D200000400000004000000040000000000100D2
:103D3000000002000000020000000200000002007B
:103D4000000002000000020000000200000000006D
:103D5000A1180008591B0008051C0008400040007D
:103D6000583000205830002001000000683000204A
:103D70008000000040010000030000006D61696EDA
:103D80000069646C650000000001802A00000000EA
:103D9000AAAAAAAA00010024FFFF00000000000058
:103DA00000A00A000000000100000000AAAAAAA8C2
:103DB00000000001FFFF0000000000000000000004
:103DC0000000000200000000AAAAAAAA0000000148
:103DD000FFFF0000000000000000080020000000BD
:103DE00000000000AAAAAAAA10000000FFFF00001D
:103DF000000800000000000050000040000000002B
:103E0000AAAAAAAA00000040FFFF000000000000CC
:103E1000000000000000000000000000AAAAAAAAFA
:103E200000000000FFFF0000000000000000000094
:103E30000000000000000000AAAAAAAA00000000DA
:103E4000FFFF000000000000000000000000000074
:103E5000000000000A000000000000000300000055
:103E60000000000000000000000000000000000052
:103E70000000000000000000000000000000000042
:103E800000000000000000002B0400000000000003
:103E900000C00F0000000000FF0000009828002074
:103EA000BC230020009600000000080096000000DF
:103EB0000008000004000000F03C000800000000C2
:103EC00000000000000000000000000000000000F2
:043ED00000000000EE
:00000001FF
