:020000040800F2
:1000000000070020150500088D2F0008452F000867
:100010006D2F0008452F0008652F00081705000800
:10002000170500081705000817050008813F00089C
:100030001705000817050008170500081705000830
:100040001705000817050008170500081705000820
:10005000170500081705000895660008BD6600082A
:10006000E56600080D6700083567000817050008F9
:1000700017050008170500081705000817050008F0
:10008000170500081705000817050008F92E0008D5
:10009000252F0008352F0008170500085D670008A8
:1000A00017050008170500081705000817050008C0
:1000B0003168000817050008170500081705000833
:1000C00017050008170500081705000817050008A0
:1000D0001705000817050008170500081705000890
:1000E000C167000817050008170500081705000874
:1000F0001705000817050008170500081705000870
:10010000170500081705000817050008170500085F
:10011000170500081705000817050008170500084F
:10012000170500081705000817050008170500083F
:10013000170500081705000817050008170500082F
:10014000170500081705000817050008715C00086E
:10015000170500081705000817050008170500080F
:1001600017050008170500081705000817050008FF
:1001700017050008170500081705000817050008EF
:1001800017050008170500081705000817050008DF
:1001900017050008170500081705000817050008CF
:1001A00017050008170500081705000817050008BF
:1001B00017050008170500081705000817050008AF
:1001C000170500081705000817050008170500089F
:1001D000170500081705000817050008170500088F
:1001E000170500081705000817050008170500087F
:1001F000170500081705000817050008170500086F
:10020000311900080000000000000000000000009C
:1002100053B94AB9002908BF00281CBF4FF0FF316D
:100220004FF0FF3000F074B9ADF1080C6DE904CE69
:1002300000F006F8DDF804E0DDE9022304B07047C1
:100240002DE9F047089D04468E46002B4DD18A4289
:10025000944669D9B2FA82F252B101FA02F3C2F1BC
:10026000200120FA01F10CFA02FC41EA030E94404D
:100270004FEA1C48210CBEFBF8F61FFA8CF708FB6E
:1002800016E341EA034306FB07F199420AD91CEB46
:10029000030306F1FF3080F01F81994240F21C8178
:1002A000023E63445B1AA4B2B3FBF8F008FB1033C0
:1002B00044EA034400FB07F7A7420AD91CEB0404F5
:1002C00000F1FF3380F00A81A74240F207816444C5
:1002D000023840EA0640E41B00261DB1D44000234A
:1002E000C5E900433146BDE8F0878B4209D9002DAE
:1002F00000F0EF800026C5E9000130463146BDE838
:10030000F087B3FA83F6002E4AD18B4202D38242A1
:1003100000F2F980841A61EB030301209E46002D50
:10032000E0D0C5E9004EDDE702B9FFDEB2FA82F2A5
:10033000002A40F09280A1EB0C014FEA1C471FFA03
:100340008CFE0126200CB1FBF7F307FB131140EAEA
:1003500001410EFB03F0884208D91CEB010103F1B7
:10036000FF3802D2884200F2CB804346091AA4B279
:10037000B1FBF7F007FB101144EA01440EFB00FE4D
:10038000A64508D91CEB040400F1FF3102D2A645B2
:1003900000F2BB800846A4EB0E0440EA03409CE751
:1003A000C6F12007B34022FA07FC4CEA030C20FAFE
:1003B00007F401FA06F31C43F9404FEA1C4900FA1E
:1003C00006F3B1FBF9F8200C1FFA8CFE09FB18119B
:1003D00040EA014108FB0EF0884202FA06F20BD90E
:1003E0001CEB010108F1FF3A80F08880884240F25E
:1003F0008580A8F102086144091AA4B2B1FBF9F0A2
:1004000009FB101144EA014100FB0EFE8E4508D99C
:100410001CEB010100F1FF346CD28E456AD9023821
:10042000614440EA0840A0FB0294A1EB0E01A14206
:10043000C846A64656D353D05DB1B3EB080261EB74
:100440000E0101FA07F722FA06F3F1401F43C5E94E
:10045000007100263146BDE8F087C2F12003D84084
:100460000CFA02FC21FA03F3914001434FEA1C47C6
:100470001FFA8CFEB3FBF7F007FB10360B0C43EAB8
:10048000064300FB0EF69E4204FA02F408D91CEB68
:10049000030300F1FF382FD29E422DD90238634466
:1004A0009B1B89B2B3FBF7F607FB163341EA034106
:1004B00006FB0EF38B4208D91CEB010106F1FF3855
:1004C00016D28B4214D9023E6144C91A46EA00464C
:1004D00038E72E46284605E70646E3E61846F8E6DE
:1004E0004B45A9D2B9EB020864EB0C0E0138A3E727
:1004F0004646EAE7204694E74046D1E7D0467BE708
:10050000023B614432E7304609E76444023842E77F
:10051000704700BF02E000F000F8FEE772B637480F
:1005200080F30888364880F30988364836490860E1
:1005300040F20000CCF200004EF63471CEF2000121
:100540000860BFF34F8FBFF36F8F40F20000C0F21F
:10055000F0004EF68851CEF200010860BFF34F8FD5
:10056000BFF36F8F4FF00000E1EE100A4EF63C71C2
:10057000CEF200010860062080F31488BFF36F8F6D
:1005800004F0D4FF05F036FF4FF055301F491B4AE9
:1005900091423CBF41F8040BFAE71D49184A9142C9
:1005A0003CBF41F8040BFAE71A491B4A1B4B9A421D
:1005B0003EBF51F8040B42F8040BF8E7002018493D
:1005C000184A91423CBF41F8040BFAE704F0ECFFF3
:1005D00005F064FF144C154DAC4203DA54F8041BCB
:1005E0008847F9E700F042F8114C124DAC4203DAAB
:1005F00054F8041B8847F9E704F0D4BF0007002033
:10060000002300200000000808ED00E000010020A9
:1006100000070020D06D000800230020CC2300201C
:10062000D0230020705600200002000804020008B9
:1006300004020008040200082DE9F04F2DED108A95
:10064000C1F80CD0D0F80CD0BDEC108ABDE8F08F0A
:10065000002383F311882846A047002004F054FAB1
:10066000FEE704F0ADF900DFFEE70000F8B501F0A9
:1006700071F904F0D5FE074604F044FF0546002852
:100680003BD1244B9F4238D001339F4238D0224B7C
:1006900027F0FF029A4236D1F8B200F067FF2E46EB
:1006A00042F2107400F068FF08B10024264601F001
:1006B00059FD20B1032000F085F80024264635B10D
:1006C000164B9F4203D004F015FF0024264600205D
:1006D00004F0B0FE124B1B695B0418D40EB100F09D
:1006E00087F801F0EFFA00F0B3FF01F099F9204626
:1006F00000F014F900F07CF8F9E72E460024D1E769
:1007000004460126CEE706464FF47A74CAE7002471
:10071000E7E700BF010007B0000008B0263A09B0C3
:100720000008024008B501F04DF9A0F1200358423D
:10073000584108BD07B541F21203022101A8ADF8E6
:10074000043001F05DF903B05DF804FB38B53023E7
:1007500083F31188174803680BB104F0A1FA164A15
:10076000144800234FF47A7104F090FA002383F3C5
:100770001188124C236813B12368013B236063681E
:1007800013B16368013B63600D4D2B7833B9636827
:100790007BB9022001F010FA322363602B78032B1F
:1007A00007D163682BB9022001F006FA4FF47A737F
:1007B000636038BDD02300204D070008F0240020DE
:1007C000E8230020084B187003280CD8DFE800F05D
:1007D00008050208022001F0E7B9022001F0DAB9A9
:1007E000024B00225A607047E8230020F0240020CA
:1007F000F8B501F0B7FC30B1404B03221A70404B02
:1008000000225A60F8BD3F4B3F4A1C46196801312F
:10081000F8D004339342F9D162683C4B9A42F1D943
:100820003B4B9B6803F1006303F580339A42E9D2A6
:1008300004F034FE04F046FE002001F00BF9022023
:10084000FFF7C0FF334B00211A6C19641A6E19664A
:100850001A6E5A6C59645A6E59665A6E1A6942F089
:1008600000521A611A6922F000521A611B6972B6AD
:100870004FF0E023C3F8084DD4E90004BFF34F8FD5
:10088000BFF36F8F244AC2F88410BFF34F8F5369B0
:1008900023F480335361BFF34F8FD2F88030C3F31A
:1008A000C905C3F34E335B0143F6E07603EA060C59
:1008B00029464CEA81770139C2F87472F9D2203B9B
:1008C00013F1200FF2D1BFF34F8FBFF36F8FBFF340
:1008D0004F8FBFF36F8F536923F4003353610023AD
:1008E000C2F85032BFF34F8FBFF36F8F302383F3C3
:1008F0001188854680F30888204783E7E823002095
:10090000F02400200000010820000108FFFF00087B
:10091000002300200038024000ED00E02DE9F04FF8
:1009200093B0B74B00902022FF210AA89D6801F0E8
:1009300073F9B44A1378A3B9B34801210360117065
:10094000302383F3118803680BB104F0A9F9AF4A8F
:10095000AD4800234FF47A7104F098F9002383F333
:100960001188009B13B1AA4B009A1A60A94A009CF7
:100970001378032B1EBF00231370A54A4FF0000A03
:1009800018BF5360D3465646D146012001F00CF9FA
:1009900024B19F4B1B68002B00F02B82002001F03C
:1009A00011F80390039B002B01DA00F099FE039BE2
:1009B000002BEDDB012001F0EDF8039B213B1F2B09
:1009C000E3D801A252F823F0490A0008710A00088E
:1009D000050B00088B0900088B0900088B0900082B
:1009E000970B0008670D0008810C0008E30C000855
:1009F0000B0D0008310D00088B090008430D00089D
:100A00008B090008B50D0008E90A00088B090008E9
:100A1000F90D0008550A0008E90A00088B090008CA
:100A2000E30C00088B0900088B0900088B090008FB
:100A30008B0900088B0900088B0900088B09000846
:100A40008B090008050B00080220FFF76BFE002849
:100A500040F0F981009B0221BAF1000F08BF1C464B
:100A600005A841F21233ADF8143000F0C9FF8CE74D
:100A70004FF47A7000F0A6FF071EEBDB0220FFF7B1
:100A800051FE0028E6D0013F052F00F2DE81DFE8AD
:100A900007F0030A0D10133605230593042105A85A
:100AA00000F0AEFF17E056480421F9E75A48042148
:100AB000F6E75A480421F3E74FF01C08404600F0DF
:100AC000CBFF08F104080590042105A800F098FF69
:100AD000B8F12C0FF2D1012000FA07F747EA0B0B0F
:100AE0005FFA8BFB4FF0000901F0E2F826B10BF042
:100AF0000B030B2B08BF0024FFF71CFE45E74848FB
:100B00000421CDE7002EA5D00BF00B030B2BA1D1B8
:100B10000220FFF707FE074600289BD0012000F0C7
:100B200099FF0220FFF74EFE00261FFA86F8404686
:100B300000F0A0FF0446B0B10399A1F14002514278
:100B40005141404600F0AEFF01360028EDD1BA46D3
:100B5000044641F21213022105A8ADF814303E46B6
:100B600000F04EFF11E70120FFF72CFE2546244B35
:100B70009B68AB4207D9284600F06EFF013040F079
:100B800067810435F3E7234B00251D70204BBA46DF
:100B90005D603E46A8E7002E3FF45CAF0BF00B0310
:100BA0000B2B7FF457AF0220FFF70CFE322000F032
:100BB00009FFB0F10008FFF64DAF18F003077FF40E
:100BC00049AF0F4A926808EB050393423FF642AFE4
:100BD000B8F5807F3FF73EAF124B0193B84523DD58
:100BE0004FF47A7000F0EEFE0390039A002AFFF6AD
:100BF00031AF019B039A03F8012B0137EDE700BFEA
:100C000000230020EC240020D02300204D07000802
:100C1000F0240020E82300200423002008230020E3
:100C20000C230020EC230020C820FFF77BFD0746A3
:100C300000283FF40FAF1F2D11D8C5F12002424507
:100C40000AAB25F0030028BF4246834901921844AD
:100C500000F0BCFF019A8048FF2100F0DDFF4FEA61
:100C6000A8037D490193C8F38702284600F0DCFF02
:100C7000064600283FF46DAF019B05EB830533E783
:100C80000220FFF74FFD00283FF4E4AE00F02AFFFA
:100C900000283FF4DFAE0027B846704B9B68BB428C
:100CA00018D91F2F11D80A9B01330ED027F0030348
:100CB00012AA134453F8203C05934046042205A988
:100CC00001F008FA04378046E7E7384600F0C4FE32
:100CD0000590F2E7CDF81480042105A800F090FEFD
:100CE00002E70023642104A8049300F07FFE00289B
:100CF0007FF4B0AE0220FFF715FD00283FF4AAAE46
:100D0000049800F0D7FE0590E6E70023642104A8CC
:100D1000049300F06BFE00287FF49CAE0220FFF7E6
:100D200001FD00283FF496AE049800F0D3FEEAE7F8
:100D30000220FFF7F7FC00283FF48CAE00F0E2FE43
:100D4000E1E70220FFF7EEFC00283FF483AE05A99F
:100D5000142000F0DDFE04210746049004A800F0F2
:100D60004FFE3946B9E7322000F02CFE071EFFF691
:100D700071AEBB077FF46EAE384A926807EB090389
:100D800093423FF667AE0220FFF7CCFC00283FF409
:100D900061AE27F003074F44B9453FF4A5AE48467E
:100DA00000F05AFE0421059005A800F029FE09F183
:100DB0000409F1E74FF47A70FFF7B4FC00283FF420
:100DC00049AE00F08FFE002844D00A9B01330BD0BF
:100DD00008220AA9002000F027FF00283AD020228C
:100DE000FF210AA800F018FFFFF7A4FC1C4803F03D
:100DF00091FE13B0BDE8F08F002E3FF42BAE0BF048
:100E00000B030B2B7FF426AE0023642105A805936A
:100E100000F0ECFD074600287FF41CAE0220FFF72F
:100E200081FC804600283FF415AEFFF783FC41F2B9
:100E3000883003F06FFE059800F06CFF464600F026
:100E400037FF3C46A1E506464EE64FF0000901E6B5
:100E5000BA467EE637467CE6EC23002000230020DD
:100E6000A0860100094A136849F2690099B21B0C77
:100E700000FB01331360064B186844F2506182B2E4
:100E8000000C01FB0200186080B27047182300209C
:100E90001423002010B500211022044600F0BCFEEF
:100EA000034B03CB206061601868A06010BD00BFD9
:100EB000107AF01F2DE9F041ADF54E7D0DF13408AB
:100EC0006CAC40F2751207460D460EA80021C8F81A
:100ED000001000F0A1FE4FF4C4720021204600F083
:100EE0009BFE02F05BF8254B4FF47A72B0FBF2F0F8
:100EF000186093E80700022384E807000DF5E97005
:100F00002382FFF7C7FF40F204431D49238406A84C
:100F100005F09EFD182384F832310DF2E3266B4470
:100F20000DF1300C1A4603CA6245306071601346F9
:100F300006F10806F6D141460122204600F0ECFEFB
:100F400000230393AB7E029305F11903019380B252
:100F50000123CDE904800093E97E06A3D3E90023B1
:100F6000384602F0E3FB0DF54E7DBDE8F08100BF91
:100F7000AFF300809E6AC421818A46EEF8240020E7
:100F8000606A00082DE9F0412C4C237ADAB08046E3
:100F90000D465BBB27A9284600F0CEFF0746002878
:100FA00042D19DF89D60C82E3ED801464FF4A662FE
:100FB000204600F031FE4FF48073C4F8F8314FF44E
:100FC0000073C4F80C334FF44073C4F82034324635
:100FD0000DF19E0104F1090000F0F8FD26449DF892
:100FE0009C30777223720BB9EB7E23728122002131
:100FF00006AC27A800F010FE0122214627A800F029
:10100000D7FF00230393AB7E029305F1190380B24F
:1010100001932823CDE904400093E97E05A3D3E999
:101020000023404602F082FB5AB0BDE8F08100BFC9
:10103000AFF3008026417272DF25D7B7104600203B
:10104000F0B5254E4FF48A7505FB0065F1B096F8B2
:10105000D83085F8DC300024D822214685F8E840D5
:101060003AA800F0D9FD06F1090000F0CDFDD5F851
:10107000E4308DF8F000C2B206AF06F109010DF1BF
:10108000F100CDE93A3400F0A1FD394601223AA839
:1010900000F0BAFF80B2CDE9047008230127CDE942
:1010A000023706F1D803019330230093317A0B48BD
:1010B00007A3D3E9002302F039FBA04206DD01F0CB
:1010C0006DFFC5F8E000384671B0F0BD2046FBE783
:1010D00078F6339F93CACD8D10460020103500203E
:1010E0002DE9F0411D4D1E4E1E4F86B0284602F0E0
:1010F00049FB034658B30024CDE90344ADF814403E
:10110000027B8DF8142099684068029403AA03C2F8
:101110001B68DFF8548043F00043029301F040FF66
:10112000821941F10003009402A9384601F004FA43
:10113000A04205DD284602F029FB88F80040D5E7EB
:1011400098F80030072B05D8013388F8003006B036
:10115000BDE8F081014802F019FBF8E710350020E6
:1011600040420F0040350020454B002070B50D4631
:1011700014461E4602F036FA50B9022E10D1012C48
:101180000ED112A3D3E90023C5E90023012007E013
:10119000282C10D005D8012C09D0052C0FD0002008
:1011A00070BD302CFBD10BA3D3E90023ECE70BA3DC
:1011B000D3E90023E8E70BA3D3E90023E4E70BA37B
:1011C000D3E90023E0E700BFAFF30080401DA1207A
:1011D00026812A0B78F6339F93CACD8D9E6AC4214F
:1011E000818A46EE26417272DF25D7B7F017304A62
:1011F00039059E5638B505460E4C0021013500F0E4
:1012000051FCA4F82C55B4F82C0500F033FC78B14F
:10121000B4F82C0500F03EFC014648B9B4F82C05A2
:1012200000F040FCB4F82C350133A4F82C35EAE783
:1012300038BD00BF1046002010B50A4B0A4A1A609C
:1012400003F5805393F860203AB9DC6D2CB1204649
:1012500001F00AF8204605F03BFBBDE810400348CA
:1012600001F002B840350020E46A000888450020FB
:101270002DE9F04F8FB000AF05460C4602F0B2F9F1
:10128000002849D1237E022B1BD1E38A012B18D1E0
:1012900001F084FE0646FFF7E5FD03464FF4C870F3
:1012A000DFF8C482B3FBF0F206F5167602FB1033CA
:1012B00016FA83F3C8F80030E37E33B9A34B00225B
:1012C0001A703C37BD46BDE8F08F07F12401204677
:1012D00000F0F0FD0028F4D107F11400FFF7DAFD6B
:1012E00097F8264007F11401224607F1270005F080
:1012F00039FB0028E2D10F2C08D8944B1C70D8F889
:101300000030A3F51673C8F80030DAE797F8241018
:10131000284602F05FF9D4E7E38A282B2BD010D8B7
:10132000012B23D0052BCCD1BFF34F8F8849894B9C
:10133000CA6802F4E0621343CB60BFF34F8F00BF73
:10134000FDE7302BBDD1844EE17E327A9142B8D197
:10135000607E3146002291F8DC50854200F0A58085
:101360000132042A01F58A71F5D1AAE721462846FF
:10137000FFF7A0FDA5E721462846FFF703FEA0E7FB
:10138000B2F8EC507B6005F103094FEA99094FEA86
:101390008902D11DC908A8EBC1039D46EB46002177
:1013A000584600F039FC04F1EE012A463144584613
:1013B00000F00CFC7B6813B9012000F04BFB96F8A1
:1013C000D20000F057FB044630B9307200F08AFBBF
:1013D000204600F03FFBB1E0D6F8D4203AB996F8A9
:1013E000D200B6F82C25824201D8FFF703FFD6F8C9
:1013F000D4202A44944208D296F8D200B6F82C257C
:101400000130824201D8FFF7F5FE70685FFA89F279
:10141000594600F009FC08B9C54679E0726896F8AB
:10142000D2002A447260D6F8D42005EB0209C6F82F
:10143000D49000F01FFB814509D396F8D220D6F84E
:10144000D4000132001B86F8D220C6F8D400FF2D4C
:101450000FD80024347200F045FB204600F0FAFA61
:1014600000F080FE3D4B188108B9FFF7C1F9C54671
:1014700027E7BB6896F8D9000AFB0362FB68D2F83D
:10148000E41082F8E83001F58061C2F8E030C2F87B
:10149000E410FFF7D5FDFFF723FE96F8D9200132BF
:1014A00002F0030286F8D920B6E74FF48A7A0AFBE5
:1014B00002F505F1EA013144204600F0D1FDF86063
:1014C00000287FF4FEAE3544012285F8E82001F0C3
:1014D00065FDD5F8E020D6ED007ADFED216A801AAF
:1014E000192838BF192040F6B832904228BF10465C
:1014F000B8EE677A07EE900AF8EEE77A67EEA67A1A
:10150000DFED186AE7EE267AFCEEE77AC6ED007AA0
:1015100096F8D930BB60BA6873680AFB02F43219D6
:1015200092F8E81059B1D2F8E4108B42E8463FF443
:1015300027AF002182F8E810C2F8E010C5467368B2
:10154000064A9B0A01331381BBE600BF0935002020
:1015500000ED00E00400FA0510460020F824002009
:10156000CDCCCC3D6666663F0C350020014B187033
:10157000704700BF0425002030B54FF000542B4BBE
:1015800022689A4285B007D003F0C6FF044620BB0C
:101590000024204605B030BD254B627D25481A70D9
:1015A000237D03724FF48073C0F8F8314FF4007359
:1015B000C0F80C3300254FF44073C0F820341E49A6
:1015C000C0F8E450C922093000F000FB2046E022B8
:1015D000294600F021FB0124DBE7184A184D136C63
:1015E00043F000731364AA6D164B9A42D0D12B6E50
:1015F000013B7E2BCCD8144A07CA01AB83E8070015
:101600001846032100F07CFD6B6D83424FF0000310
:10161000BED12A6D8A4201BFAB65054B2A6E1A7096
:1016200003BF0A4BEA6D1A601C46B2E79AAD44C587
:10163000042500201046002016000020003802403B
:10164000006600405041A0B05866004010230020C2
:1016500037B51A4D00F086FD02236B71184B2881B7
:1016600019681848012201F037FB00230193164B3B
:10167000164900931648174B4FF4805201F082FF31
:10168000154B197811B1124801F0A4FF01F086FC46
:101690000446FFF7E7FB4FF4C873B0FBF3F202FB1D
:1016A000130304F5167010FA83F00C4B186003F066
:1016B00029FF08B10F232B8103B030BDF82400208F
:1016C00010230020403500206D110008082500205F
:1016D0001035002071120008042500200C35002070
:1016E0002DE9F04F2DED028B0FF23829D9E9008951
:1016F000834C93B00BAE9FED7E8BFFF7F1FC814FD7
:10170000DFF828A200230A93ADF834300B937360FE
:101710004FF0000B5B468DED008B01250DF11D0296
:1017200007A938468DF81C508DF81DB001F084FAD9
:101730009DF81C30002B40F0A580204601F052FFA0
:101740000646002845D1704F01F028FC3B689842BE
:101750003FD301F023FC8246FFF784FB4FF4C873AC
:10176000B0FBF3F202FB13030AF5167010FA83F0D4
:101770003860664F97F800B0CBF1100ABBF1000F4C
:1017800014BF33462B465FFA8AFA0EA88DF828302C
:10179000FFF780FBBAF1060F28BF4FF0060A0EAB29
:1017A00003EB0B0152460DF1290000F00FFA0AABD2
:1017B0000393182302930AF10102554BD2B2CDE9EB
:1017C0000053049220464CA3D3E9002301F050FFBC
:1017D0003E7001F0E3FB4F4A4F4D1368C31AB3F557
:1017E0007A7F2ED3106001F0DBFB02460B462046C9
:1017F00001F0D6FF204601F0F5FE10B32B7A474EDC
:10180000002B14BF03230223737101F0C7FB0EAF3B
:101810004FF47A730122B0FBF3F039463060304662
:1018200000F020FB182302933D4B019380B240F25D
:101830005513CDE90370009342464B46204601F014
:1018400017FF2B7A93B101F0A9FB002607464FF44E
:101850008A7A95F8D900304400F003000AFB00535F
:1018600093F8E82092B30136042EF2D1C82003F099
:1018700051F92B7A002B7FF43DAF13B0BDEC028BF6
:10188000BDE8F08FDAF8143083F04003CAF8143062
:10189000594610220EA800F0BFF90DF11E0308AA48
:1018A0000AA9384600F046FF96E803000FAB83E82C
:1018B00003009DF834308DF844300A9B0E930EA936
:1018C000DDE90823204602F03FF921E7D3F8E020C4
:1018D00042B12B68FA2B38BFFA23BA1A0533B2EBA0
:1018E000430FC0D3FFF7ACFB0028BCD1BEE700BF5D
:1018F0000000000000000000401DA12026812A0BEE
:1019000010350020403500200C350020093500201E
:1019100008350020404B002010460020F82400200D
:10192000444B0020F1C6A7C1D068080F0000024058
:1019300008B5054800F098FFBDE80840034A04498F
:10194000002004F0BFBF00BF40350020804B0020C6
:10195000391200087047000070B50F4B1B78013337
:10196000DBB2012B0C4611D80C4D29684FF47A7369
:101970000E6AA2FB0332014622462846B047844243
:1019800004D1074B00221A70012070BD4FF4FA7089
:1019900003F0C0F80020F8E71C230020F84D0020D9
:1019A000744B002070B504464FF47A76412C2546DE
:1019B00028BF412506FB05F003F0ACF8641BF5D108
:1019C00070BD000007B50023024601210DF107009C
:1019D0008DF80730FFF7C0FF20B19DF8070003B076
:1019E0005DF804FB4FF0FF30F9E700000A4608B548
:1019F0000421FFF7B1FF80F00100C0B2404208BDF2
:101A000030B4054C2368DD69044B0A46AC460146F8
:101A1000204630BC604700BFF84D0020A086010082
:101A200070B503F087FB094E094D3080002428680B
:101A30003388834208D903F077FB2B6804440133D1
:101A4000B4F5803F2B60F2D370BD00BF764B002011
:101A5000484B002003F01EBC00F1006000F5803010
:101A60000068704700F10060920000F5803003F0DC
:101A7000A7BB0000054B1A68054B1B889B1A8342C5
:101A800002D9104403F050BB00207047484B00209F
:101A9000764B0020024B1B68184403F04DBB00BF7F
:101AA000484B0020024B1B68184403F05DBB00BF8D
:101AB000484B002010F003030AD1B0F5047F05D293
:101AC00000F10050A0F57920D0F800381846704792
:101AD0000023FBE700F10050A0F57920D0F8100AB0
:101AE00070470000064991F8243033B10023086A9A
:101AF00081F824300822FFF7B5BF0120704700BFEE
:101B00004C4B0020014B1868704700BF002004E0D8
:101B1000F0B51E4B1D6801382E0C0A181C48C5F381
:101B20000B04032335460788A7420BD144680B46B4
:101B3000013C934218461BD214F9010F48B103F837
:101B4000010BF6E7013B00F10800ECD191420ED207
:101B50000B4618462C24B6F5805F00F8014B0AD1DD
:101B6000824202D94122981C5A70401AF0BD0846A0
:101B7000B6F5805FF9D041F201039D42F5D1824272
:101B8000F3D95A2300F8013BEFE700BF002004E03F
:101B900020230020022802BF024B4FF480029A61EA
:101BA000704700BF00000240022802BF014B4022E4
:101BB0009A61704700000240022801BF024A53693F
:101BC00083F04003536170470000024010B50023CA
:101BD000934203D0CC5CC4540133F9E710BD00003C
:101BE00010B5013810F9013F3BB191F900409C421A
:101BF00003D11AB10131013AF4E71AB191F9002089
:101C0000981A10BD1046FCE703460246D01A12F996
:101C1000011B0029FAD1704702440346934202D0C7
:101C200003F8011BFAE770472DE9F8431F4D1446EE
:101C300095F824200746884652BBDFF870909CB385
:101C400095F824302BB92022FF2148462F62FFF758
:101C5000E3FF95F82400C0F10802A24228BF224603
:101C6000D6B24146920005EB8000FFF7AFFF95F832
:101C70002430A41B1E44F6B2082E17449044E4B24C
:101C800085F82460DBD1FFF72DFF0028D7D108E0CD
:101C90002B6A03EB82038342CFD0FFF723FF002898
:101CA000CBD10020BDE8F8830120FBE74C4B00209E
:101CB000024B1A78024B1A70704700BF744B002019
:101CC0001C23002010B5104C104802F04BFA21469E
:101CD0000E4802F073FA2468E26ED2F8043843F03A
:101CE0000203C2F804384FF47A70FFF75BFE08492C
:101CF000204602F06BFBE26ED2F8043823F00203B8
:101D0000C2F8043810BD00BFD06B0008F84D0020A9
:101D1000D86B0008704700002DE9F0470D460446D7
:101D200000219046284640F27912FFF775FF2346BE
:101D300020220021284601F0A9FE231D0222202195
:101D4000284601F0A3FE631D03222221284601F04C
:101D50009DFEA31D03222521284601F097FE04F1D4
:101D6000080310222821284601F090FE04F11003F8
:101D700008223821284601F089FE04F111030822C7
:101D80004021284601F082FE04F112030822482176
:101D9000284601F07BFE04F114032022502128463E
:101DA00001F074FE04F1180340227021284601F06E
:101DB0006DFE04F120030822B021284601F066FEE2
:101DC00004F121030822B821284601F05FFE04F146
:101DD0002207C0263B46314608222846083601F035
:101DE00055FEB6F5A07F07F10107F3D104F13203E8
:101DF00008223146284601F049FE002704F1330A43
:101E000094F832304FEAC7099F4209F5A47615D3FA
:101E1000B8F1000F08D1314604F59973072228461E
:101E200001F034FE09F24F16274694F832213B1B8D
:101E300093420CD3F01DC008BDE8F0870AEB0703FE
:101E400008223146284601F021FE0137D8E707F283
:101E5000331331460822284601F018FE08360137B0
:101E6000E3E7000013B5044608460021016023465D
:101E7000C0F803102022019001F008FE0198231DF4
:101E80000222202101F002FE0198631D032222217B
:101E900001F0FCFD0198A31D0322252101F0F6FDB0
:101EA000019804F108031022282101F0EFFD07201A
:101EB00002B010BDF7B50023047F00910E46072243
:101EC0001946054601F0A6FC731C0093012200236D
:101ED0000721284601F09EFCC4B9B31C00930522DB
:101EE00023460821284601F095FC0D243746B27898
:101EF000BB1B934211D32B7FA88A0734E408BBB9DC
:101F0000844294BF0020012003B0F0BDAB8ADB0007
:101F1000083BDB08B3700824E8E7FB1C009321466C
:101F200000230822284601F075FC08340137DEE75B
:101F3000201A18BF0120E7E7F7B50023047F0091BE
:101F40000E4608221946054601F064FC731CC4B90C
:101F50000822009311462346284601F05BFC10241A
:101F6000012372785F1C013B934211D32B7FA88A17
:101F70000734E408BBB9844294BF0020012003B0B9
:101F8000F0BDAB8ADB00083BDB0873700824E7E791
:101F9000F3190093214600230822284601F03AFC59
:101FA00008343B46DDE7201A18BF0120E7E70000B0
:101FB000F8B50E4605461446002181223046FFF74B
:101FC0002BFE2B4608220021304601F05FFD7CB934
:101FD0006B1C07220821304601F058FD0F24012315
:101FE0006A785F1C013B934204D3E01DC008F8BD32
:101FF0000824F4E7EB1921460822304601F046FD9B
:1020000008343B46ECE70000F8B50E46054614469A
:102010000021CE223046FFF7FFFD2B46282200216B
:10202000304601F033FD7CB905F108030822282170
:10203000304601F02BFD30242F462A7A7B1B934239
:1020400004D3E01DC008F8BD2824F5E707F1090313
:1020500021460822304601F019FD08340137ECE72B
:10206000F7B5047F00910E4601231022002105469A
:1020700001F0D0FBC4B9B31C009309222346102100
:10208000284601F0C7FB192437467288BB1B9A42C9
:1020900011D82B7FA88A0734E408BBB9844294BFC7
:1020A0000020012003B0F0BDAB8ADB00103BDB0851
:1020B00073801024E8E73B1D00932146002308228B
:1020C000284601F0A7FB08340137DEE7201A18BFC5
:1020D0000120E7E730B5094D0A4491420DD011F8CF
:1020E000013B5840082340F30004013B2C4013F00F
:1020F000FF0384EA5000F6D1EFE730BD2083B8ED4E
:10210000F7B54FF0FF33DFF854C0DFF854E000EBD1
:1021100081011A4688421CD050F8044B019401AF4B
:10212000042417F8015B82EA05620825DB181646CD
:1021300005F1FF355241002EBCBF83EA0C0382EA51
:102140000E0215F0FF05F1D1013C14F0FF04E8D1B7
:10215000E0E7D843D14303B0F0BD00BF9336EAA90E
:10216000EBE1F042F7B53A4A106851686B4603C399
:102170006A4638493848082304F004FC044600281D
:1021800035D10A25354A106851686B4603C36A4643
:1021900033493148082304F0F5FB044600284DD0AC
:1021A0000369B3F5E02F49D8B0F8662040F2044146
:1021B0008A4201D0552A41D12A4A224402F15C01C7
:1021C0008B423BD35C3B244900209E1AFFF782FFE1
:1021D0003246074604F164010020FFF77BFFA36845
:1021E0009F422BD1E368984208BF002526E003698F
:1021F000B3F5E02F29D8428B40F204418A4201D046
:10220000552A20D1174A224402F110018B4218D3DB
:10221000103B114900209D1AFFF75CFF2A46064635
:1022200004F118010020FFF755FFA3689E4202D178
:10223000E368984201D00D25A4E70025284603B0A5
:10224000F0BD10259EE70C259CE70B259AE700BF03
:10225000A86A0008DCFF060000000108B16A000857
:1022600090FF06000800FFF710B5037C044613B981
:10227000006804F06FFB204610BD00000023BFF390
:102280005B8FC360BFF35B8FBFF35B8F8360BFF374
:102290005B8F7047BFF35B8F0068BFF35B8F704746
:1022A00070B505460C30FFF7F5FF05F1080604464A
:1022B0003046FFF7EFFFA04206D930466D68FFF7C2
:1022C000E9FF2544281A70BD3046FFF7E3FF201AC6
:1022D000F9E7000070B50546406898B105F10800BF
:1022E000FFF7D8FF05F10C0604463046FFF7D2FF92
:1022F0008442304694BF6D680025FFF7CBFF013C58
:102300002C44201A70BD000038B50C460546FFF776
:10231000C7FFA04210D305F10800FFF7BBFF04443C
:102320006868B4FBF0F100FB1144BFF35B8F012040
:10233000AC60BFF35B8F38BD0020FCE72DE9F041B6
:10234000144607460D46FFF7C5FF844228BF0446E2
:10235000D4B1B84658F80C6B4046FFF79BFF3044A9
:10236000286040467E68FFF795FF331A9C4203D8E9
:102370006C600120BDE8F0816B60A41B3B68AB6022
:102380002044E8600220F5E72046F3E738B50C4624
:102390000546FFF79FFFA04210D305F10C00FFF7A1
:1023A00079FF04446868B4FBF0F100FB1144BFF30B
:1023B0005B8F0120EC60BFF35B8F38BD0020FCE732
:1023C0002DE9FF41884669460746FFF7B7FF6C468F
:1023D00006B204EBC6060025B44209D06268206844
:1023E00008EB0501FFF7F2FB636808341D44F3E7CF
:1023F00029463846FFF7CAFF284604B0BDE8F081F9
:10240000F8B505460C300F46FFF744FF05F1080606
:1024100004463046FFF73EFFA042304688BF6C6856
:10242000FFF738FF201A386020B130462C68FFF7DC
:1024300031FF2044F8BD000073B5144606460D4632
:10244000FFF72EFF844228BF04460190DCB101A9AA
:102450003046FFF7D5FF019B33B93268C5E9023337
:10246000C5E9002401200CE09C4238BF019428609B
:10247000019868608442F5D93368AB60241AEC6037
:10248000022002B070BD2046FBE700002DE9FF41AD
:102490000F466946FFF7D0FF6C4600B204EBC0055B
:1024A0000026AC4209D0D4F8048054F8081BB819AF
:1024B0004246FFF78BFB4644F3E7304604B0BDE8E5
:1024C000F081000038B50546FFF7E0FF04460146FD
:1024D0002846FFF719FF204638BD0000302383F35C
:1024E000118862B670470000002383F3118862B63A
:1024F0007047000010B4026854681A4623465DF81D
:10250000044B184701207047002070470020704797
:1025100070470000002070470E20704700F5805083
:1025200090F8C800C0F340007047000000F58050EC
:1025300090F9C90070470000F7B50C68BDF820702D
:1025400014F000541E466FD10B7B082B6CD8FFF79C
:10255000C5FF4569AB685B010CD4AB681B0108D4AF
:10256000AC6814F080545DD1FFF7BEFF204603B085
:10257000F0BD01240B6804F1180C002BB8BFDB0080
:102580004FEA0C1CB4BF43F004035B0545F80C3064
:102590000B680FFA84FC13F0804F18BF05EB0C1E7C
:1025A00005EB0C1C1EBFDEF8803143F00203CEF8B1
:1025B00080310B7BCCF8843105EB04158B68C5F8B2
:1025C0008C314B68C5F88831DCF8803143F0010369
:1025D000CCF8803100EB441541F268031D4403EB55
:1025E00044130344C5E9002608330D4601F10C0CE1
:1025F00055F804EB43F804EB6545F9D184342D8894
:102600001D8000EB441407F00303257925F00B052A
:102610002B432371FFF768FF0097334600F0E0FC7F
:102620000120A4E70224A5E74FF0FF309FE7000058
:1026300013B500F580540191E06DFFF74BFE1F28A4
:102640000AD90199E06D2022FFF7BAFEA0F120031C
:102650005842584102B010BD0020FBE708B500F514
:102660008050FFF73BFFC06DFFF708FEBDE8084054
:10267000FFF73ABF002202608281426082607047A9
:1026800010B500220023C0E9002300230446038183
:102690000C30FFF7EFFF204610BD0000F0B50546F7
:1026A00000F580500C4690F8C83013F0040FC3F3C7
:1026B000800108BF114661F3820304F1840680F8AB
:1026C000C83005EB461389B01B79D8072ED57AB3ED
:1026D00019072DD46846FFF7D3FF05EB441303F524
:1026E000835303F1180703AA103318685968144676
:1026F00003C40833BB422246F7D1186820609B8888
:10270000A380DDE90E23CDE900230123ADF80830D5
:102710002B686946DB6B2846984705EB46152B79F5
:102720001A075CBF43F008032B7101E0002AF4D1C3
:1027300009B0F0BD2DE9F047074688B007F5805491
:1027400068469A468846FFF7C9FE9146FFF798FF0C
:10275000E06DFFF7A5FD1F2829D9E06D202269460D
:10276000FFF7B0FE202822D103AD444605AB2E462C
:1027700003CE9E4220606160354604F10804F6D124
:1027800030682060B388A380DDE90023C9E9002315
:10279000BDF80830AAF80030FFF7A6FE4A465346B7
:1027A0004146384608B0BDE8F04700F007BCFFF7E7
:1027B0009BFE002008B0BDE8F08700002DE9F84F2F
:1027C0000023C0E90133254B044640F8183B0F466F
:1027D000FFF750FF04F12800FFF752FF04F148080B
:1027E00004F582554646083530462036FFF748FF47
:1027F000AE42F9D104F580554FF480534FF00009F3
:10280000C5E91339C5F848800123EE6504F58758FA
:1028100004F58456C5F8549085F8583085F8603032
:10282000083608F108084FF0000A4FF0000B46E99F
:1028300008ABA6F11800FFF71DFF203646F8289CCC
:102840004645F4D185F8C97017B1054800F0A0FBE2
:10285000044B63612046BDE8F88F00BFE46A0008BE
:10286000BC6A00080064004010B5044B19780446A7
:102870004A1C1A70FFF7A2FF204610BD7C4B0020B7
:102880002DE9F04300294FD0284B2948B0FBF1F047
:1028900099428CBF0A2311235D1EB0FBF3F703FBA3
:1028A0001703ECB22BB1022D2B46F5D80020BDE862
:1028B000F0837E1EB6F5806FF8D2C4EBC40C0CF129
:1028C00003034FEAE308C3F3C703A4EB030E08F1C5
:1028D00001094FF47A755FFA8EF008FB055559FA35
:1028E0008EFEB5FBFEF5B5F5617FC1BF0CF1FF3380
:1028F000C3F3C703E01AC0B25C1C50FA84F40C4D59
:102900007C43B5FBF4F4A142D0D1013BDBB20F2BE9
:10291000CCD80138C0B20728C8D800211071168061
:102920009170D3700120C2E70846C0E73F420F0014
:1029300080F9370370B505460E464FF47A746B691B
:102940005B6803F00103B34207D04FF47A7002F0E2
:10295000E1F8013CF3D1204670BD0120FCE7000006
:1029600030B54269936913F0700F16D000230B4CF9
:10297000936103F1840200EB421211794D0709D5EE
:10298000890707D5416954F823508D60117941F0CA
:10299000040111710133032BEBD130BDD06A000863
:1029A00073B51D46436916469A68D207044609D591
:1029B0009A6801219960C2F34002CDE900650021C7
:1029C000FFF76CFE63699A68D1050BD59A684FF4DE
:1029D00080719960C2F34022CDE900650121204653
:1029E000FFF75CFE63699A68D2030BD59A684FF4CF
:1029F00080319960C2F34042CDE900650221204652
:102A0000FFF74CFE204602B0BDE87040FFF7A8BFBC
:102A1000F8B50446466900296CD106F10C07386800
:102A200080076AD006EB01153868D5F8B00110F0C0
:102A3000040FD5F8B0011ABFC00840F00040400DA7
:102A4000A061D5F8B0C11CF0020F1CBF40F080405F
:102A5000A061D5F8B40106EB011100F00F0084F875
:102A60002400D1F8B8012077D1F8B801000A6077C6
:102A7000D1F8B801000CA077D1F8B801000EE077CA
:102A8000D1F8BC0184F82000D1F8BC01000A84F818
:102A90002100D1F8BC01000C84F82200D1F8BC114F
:102AA000090E84F823103821396004F1340004F150
:102AB000180104F1240551F8046B40F8046BA94295
:102AC000F9D109880180C4E90A232146002323861D
:102AD00051F8283B2046DB6B984704F5805220468E
:102AE00092F8C83043F0040382F8C830BDE8F840DB
:102AF000FFF736BF06F1100791E7F8BD10B50446A1
:102B000000F04EFA02460B4652EA030102D0013AA7
:102B100063F100030449086820B12146BDE8104074
:102B2000FFF776BF10BD00BF784B0020F8B500F569
:102B300083511E46FFF7D2FCDFF844C00831002461
:102B400004F1840500EB45152B795F070ED4DB06F5
:102B50000CD5D1E900739742B34107D243695CF8C1
:102B600024709F602B7943F004032B710134032CF4
:102B700001F12001E4D1BDE8F840FFF7B5BC00BF8A
:102B8000D06A000808B5FFF7A9FCFFF7E9FEBDE829
:102B90000840FFF7A9BC0000F8B5436905469868EE
:102BA00000F0E050B0F1E05F0F461FD0E8B1FFF752
:102BB00095FC05F583541034002606F1840305EBDB
:102BC00043131B791A0706D50136032E04F120049E
:102BD000F3D1012007E05B07F6D42146384600F028
:102BE00039FA0028F0D1FFF77FFCF8BD0120FCE79F
:102BF00000F5805008B5FFF771FCC06DFFF750FB82
:102C0000FFF772FC43090CBF0120002008BD000043
:102C1000F8B51D46002313700F4606461446FFF70D
:102C2000E7FF80F00100387025B129463046FFF7F4
:102C3000B3FF2070F8BD00002DE9B8410C461546E1
:102C40001F46804600F0ACF90B462178024609B9D0
:102C5000287850B14046FFF769FFFFF793FF3B46E6
:102C60002A462146FFF7D4FF0120BDE8B8810000C5
:102C700010B5FFF733FC174B1A6C42F000721A6460
:102C80001A6A42F000721A621A6A00F5805422F041
:102C900000721A62FFF728FC94F8C830DB0718D4DA
:102CA000B9B103211320FFF719FC01F0CBF903217F
:102CB000142001F0C7F90321152001F0C3F994F89D
:102CC000C83043F0010384F8C830BDE81040FFF776
:102CD0000BBC10BD003802402DE9F04700F58055CF
:102CE00088B095F8C930012B0446884616467FD82F
:102CF000804F57F823200AB947F82300D7F800A0DF
:102D0000C4F80C802674BAF1000F63D095F8C9306E
:102D1000012B6FD001212046FFF7AAFFFFF7DEFB52
:102D20006269136823F0020313606269136843F059
:102D300001031360636900275F6101212046FFF7EB
:102D4000D3FBFFF7F7FD002800F09580E86DFFF753
:102D500095FA04F58359BA4609F1080920220021A1
:102D60006846FEF759FF02A8FFF784FCCDF818A0CB
:102D70006A4609EB07030DF1180E9446BCE8030000
:102D8000F44518605960624603F10803F5D1DCF898
:102D90000000186020379CF804201A71602FDDD1E4
:102DA00095F8C8306FF38203002785F8C8306A466B
:102DB00041462046ADF80070ADF802708DF8047001
:102DC000FFF75EFD636948BB4FF400421A6008B02C
:102DD000BDE8F08741F2D00003F07CFD814610B1E0
:102DE0005146FFF7EBFCC7F80090B9F1000F8DD109
:102DF0000020ECE7386803681B6B98470146002801
:102E000088D13868FFF734FF3868036832465B685A
:102E10004146984700287FF47DAFE9E761221A60B8
:102E20009DF802309DF803201B06120402F4702264
:102E300003F040731343BDF80020C2F309021343AB
:102E40009DF804201205022E02F4E0020CBF4FF0A0
:102E500000410021134362690B43D361636913226C
:102E60005A616269136823F00103136039462046F2
:102E7000FFF760FD08B96369A6E795F8C93093BB11
:102E80006169D1F8002242F00102C1F800226169B3
:102E9000D1F8002222F47C5222F00E02C1F8002266
:102EA0006169D1F8002242F46062C1F800226269CF
:102EB000C2F814326269C2F80432626941F6FF71E5
:102EC000C2F80C126269C2F840326269C2F8443238
:102ED00063690122C3F81C226269D2F8003223F030
:102EE0000103C2F8003295F8C83043F0020385F8B8
:102EF000C8306CE7784B002008B500F051F850EA74
:102F00000103024602D0421E61F10001044B186821
:102F100010B10B46FFF744FDBDE8084001F068B86A
:102F2000784B002008B50020FFF7E8FDBDE8084019
:102F300001F05EB808B50120FFF7E0FDBDE80840EC
:102F400001F056B800B59BB0EFF3098168226846DE
:102F5000FEF73CFEEFF30583014B9B6BFEE700BFE2
:102F600000ED00E008B5FFF7EDFF000000B59BB0F5
:102F7000EFF3098168226846FEF728FEEFF3058328
:102F8000014B5B6BFEE700BF00ED00E0FEE70000D9
:102F90000FB408B5029801F049FDFEE702F0DEB972
:102FA00002F0B6B913B56C4684E80600031D94E838
:102FB000030083E80500012002B010BD73B58568E9
:102FC000019155B11B885B0707D4D0E900369B6B94
:102FD0009847019AC1B23046A847012002B070BD9F
:102FE000F0B5866889B005460C465EB1BDF838304C
:102FF0005B070AD4D0E900379B6B98472246C1B2E1
:103000003846B047012009B0F0BD00220023CDE9C9
:1030100000230023ADF808300A4603AB01F108068F
:10302000106851681C4603C40832B2422346F7D1E7
:10303000106820609288A280FFF7B2FF0423ADF8E9
:1030400008302B68CDE90001DB6B694628469847BC
:10305000D8E7000030B503680968DD0FB5EBD17F14
:1030600023F0604421F060424FEAD1700BD0002B76
:10307000B8BFA40C0029B8BF920C944202D034BF50
:103080000120002030BD944205D1C1F38070C3F30C
:1030900080738342F6D194422CBF00200120F1E7D7
:1030A0002DE9F041456A15B94162BDE8F0814B68F0
:1030B00023F06047C3F38A464FEAD37EC3F3807898
:1030C00016EA230638BF3E46AC462B465A68BEEB8E
:1030D000D27F22F060440AD0002A18DAA40CB4424D
:1030E00017D19D420FD10D60DEE71346EEE7A742F0
:1030F00007D102F08044C2F3807242450BD054B134
:10310000EFE708D2EDE7CCF800100B60CDE7B44252
:1031100001D0B442E5D81A689C46002AE5D119606E
:10312000C3E700002DE9F047089D01F007044FEACE
:10313000D508224405F0070500EBD1004FF47F4984
:10314000944201D1BDE8F08704F0070705F0070AB3
:1031500057453E4638BF5646C6F10806111B8E42FB
:1031600028BF0E46E10808EBD50E415C13F80EC0EF
:10317000B94029FA06F721FA0AF1FFB28CEA0101F7
:1031800047FA0AF739408CEA010C03F80EC03444C0
:103190003544D5E780EA0120082341F2210201B23B
:1031A0004000002980B203F1FF33B8BF504013F054
:1031B000FF03F4D17047000038B50C468D18A542C6
:1031C00000D138BD14F8011BFFF7E4FFF7E700005A
:1031D00042684AB1136843604389818901339BB2D5
:1031E0009942438138BF83811046704770B588B0DB
:1031F000202204460D4668460021FEF70DFD2046BC
:103200000495FFF7E5FF024658B16B46054608AE48
:103210001C4603CCB44228606960234605F10805CA
:10322000F6D1104608B070BD082817D909280CD06F
:103230000A280CD00B280CD00C280CD00D280CD050
:103240000E2814BF4020302070470C2070471020FB
:1032500070471420704718207047202070470000E6
:10326000082817D90C280CD910280CD914280CD9E7
:1032700018280CD920280CD930288CBF0F200E20FC
:103280007047092070470A2070470B2070470C20B8
:1032900070470D20704700002DE9F843078C072F79
:1032A00004461ED9D0E9029800254FF6FF73C5F1F8
:1032B0002006A5F1200029FA05F108FA06F628FAF9
:1032C00000F031430143C9B21846FFF763FF0835E8
:1032D000402D0346EBD1E1693A46BDE8F843FFF7DC
:1032E0006BBF4FF6FF70BDE8F883000010B54B6868
:1032F00023B9CA8A63F30902CA8210BD04691A6835
:103300001C600361C38A013BC3824A60EFE700008F
:103310002DE9F84F1D46CB8A0F46C3F30901052955
:10332000814692460B4630D00020AAB207F11A041B
:103330009EB2042E1FFA80F80FD8904503F10103C6
:1033400006D3FB8A0A4462F30903FB8201201AE0D8
:103350001AF80060E6540130EAE79045F1D2A1F195
:10336000050B1C237C68BBFBF3F203FB12BB1FFAAB
:103370008BF6002C45D14846FFF72AFF044638B9A2
:1033800078606FF00200BDE8F88F4FF00008E6E7C4
:10339000002606607860ADB24FF0000B454510D9AD
:1033A0000AEB0803221D13F8011B9155B1B208F175
:1033B00001081B291FFA88F82BD0454506F10106A4
:1033C000F1D8FB8AC3F30902154465F30903BCE78E
:1033D000013292B21C462368002BF9D16B1F0B44BB
:1033E0001C21B3FBF1F301339BB29A42D3D2BBF160
:1033F000000FD0D14846FFF7EBFE20B9C4F800B06B
:10340000BFE70122E7E7C0F800B05E46206004464F
:10341000C1E74545D5D94846FFF7DAFE08B920602F
:10342000AFE7C0F800B0002620600446B6E7000011
:103430002DE9F04F2DED028B1C4683B05B690192A4
:1034400007468846002B00F09A80238C2BB1E26956
:10345000002A00F09480072B35D807F10C00FFF705
:10346000B7FE054638B96FF00205284603B0BDEC3B
:10347000028BBDE8F08F14220021FEF7CDFB228CD9
:10348000E16905F10800FEF7A1FB208C013080B254
:10349000FFF7E6FEFFF7C8FE013880B22084013056
:1034A00028746369228C1B782A4403F01F0363F09D
:1034B0003F0348F000411372384669602946FFF720
:1034C000EFFD0125D1E700F10C034FF0000908EEF4
:1034D000103A4FF0800A4E464D4618EE100AFFF79C
:1034E00077FE83460028BED014220021FEF794FB0D
:1034F000002E3AD1019BABF8083002220BF1080EE6
:103500001FFA82FC0CF10100BCF1060F218C80B285
:1035100001D88E422BD3FFF7A3FEFFF785FE626929
:103520001278013802F01F028E4208BF4FF0400AA5
:1035300042EA49121BFA80F14AEA020A013048F0D5
:10354000004281F808A08BF81000CBF804205946FF
:103550003846FFF7A5FD238C0135B3422DB289F023
:1035600001094FF0000AB8D17FE70022C6E7E16900
:10357000895D0EF802100136B6B20132C0E76FF075
:10358000010572E7F8B515460E46302200210446C3
:103590001F46FEF741FB069B6360B5F5001F079BC6
:1035A000A76034BF6A094FF6FF72A36297B2E66163
:1035B00004F1100000239A4206D800230360A7827A
:1035C000E3822383E360F8BD066001333046203692
:1035D000F1E7000003781BB94BB2002BC8BF0170A4
:1035E0007047000000787047F8B50C46C969074677
:1035F00011B9238C002B37D1257E1F2D34D8387874
:1036000028BB228C072A2CD8268A36F003032BD11C
:103610004FF6FF70FFF7D0FD20F0010031024004AB
:1036200041EA0561400C41EA40254FF6FF7223460E
:1036300029463846FFF7FCFE002807DD626913784B
:103640000133DBB21F2B88BF00231370F8BD218A22
:103650002D0645EA012505432046FFF71DFE0246DB
:10366000E5E76FF00300F1E76FF00100EEE700001F
:1036700070B58AB0044616460021282268461D46C9
:10368000FEF7CAFABDF83830ADF810300F9B05933D
:103690009DF840308DF81830119B07936946BDF8AE
:1036A0004830ADF820302046CDE90265FFF79CFF99
:1036B0000AB070BD2DE9F041D36905460C461646A7
:1036C0000BB9138C5BBB377E1F2F28D895F8008071
:1036D000B8F1000F26D03046FFF7DEFD3378210227
:1036E00041EAC33141EA0801338A41EA076141EA0C
:1036F00003410246334641F080012846FFF798FE19
:1037000000280ADD3378012B07D172691378013361
:10371000DBB21F2B88BF00231370BDE8F0816FF070
:103720000100FAE76FF00300F7E70000F0B58BB097
:1037300004460D4617460021282268461E46FEF71D
:103740006BFA9DF84C305A1E534253418DF80030AD
:103750009DF84030ADF81030119B05939DF848302E
:103760008DF81830149B07936A46BDF85430ADF8B5
:10377000203029462046CDE90276FFF79BFF0BB0AB
:10378000F0BD0000406A00B104307047436A1A6817
:10379000426202691A600361C38A013BC3827047B7
:1037A0002DE9F041D0F82080194E14461D464146BF
:1037B000002709B9BDE8F081D1E90223A21A65EB1F
:1037C0000303964277EB03031ED2036A8B420DD1AB
:1037D000FFF78CFD036A1B68036203690B60C38AF1
:1037E0000161016A013BC3828846E2E7FFF77EFD83
:1037F0000B68C8F8003003690B60C38A0161013BA4
:10380000C382D8F80010D4E788460968D1E700BF22
:1038100080841E002DE9F04F8BB00D46DDF85090EE
:1038200014469B468046002800F01981B9F1000F2C
:1038300000F01581531E3F2B00F21181012A03D1A4
:10384000BBF1000F40F00B810023CDE90833B8F83D
:103850001430B5EBC30F4FEAC30703D300200BB0FE
:10386000BDE8F08F2B199F42D8F80C303ABF7F1B70
:10387000FFB227461BB9D8F81030002B7AD0272D7D
:103880004ED8C5F12806B7424FF000032CBFF6B260
:103890003E4600932946D8F8080008AB3246FFF7A9
:1038A00041FCA7EB060A35445FFA8AFAB8F81430EF
:1038B00003F10053053BDB000493D8F80C3003936D
:1038C0002821039B13B1BAF1000F2CD1D8F81000B6
:1038D00040B1BAF1000F05D0009608AB5246691A04
:1038E000FFF720FC38B2002FB8D066070AD00AAB29
:1038F00003EBD401624211F8083C02F007021341C5
:1039000001F8083C082C3CD9102C40F2B580202C42
:1039100040F2B780BBF1000F00F09C80082334E038
:10392000BA460026C2E7049BE02B28BFE02306939B
:103930000B44AB42059314D95A1B03980096924549
:1039400034BF5246D2B2691A08AB04300792FFF76F
:10395000E9FB079A1644AAEB020A1544F6B25FFA8D
:103960008AFA049B069A05999B1A0493039B1B6889
:103970000393A6E70093D8F8080008AB3A46294617
:10398000AEE7BBF1000F13D00123B4EBC30F6CD033
:10399000082C12D89DF82030621E23FA02F2D507B7
:1039A00006D54FF0FF3202FA04F423438DF820309D
:1039B0009DF8203089F8003051E7102C12D8BDF85E
:1039C0002030621E23FA02F2D10706D54FF0FF32F3
:1039D00002FA04F42343ADF82030BDF82030A9F8F2
:1039E00000303CE7202C0FD80899631E21FA03F31E
:1039F000DA0705D54FF0FF3202FA04F40C430894BD
:103A0000089BC9F800302AE7402C2BD0DDE9086577
:103A1000611EC4F12102A4F1210326FA01F105FA85
:103A200002F225FA03F311431943CB0712D5012201
:103A3000A4F12003C4F1200102FA03F322FA01F1F8
:103A4000A240524243EA010363EB430332432B4358
:103A5000CDE90823DDE90823C9E90023FFE66FF07B
:103A60000100FCE66FF00800F9E6082CA0D9102C44
:103A7000B3D9202CEED8C3E7BBF1000FADD00223A1
:103A800083E7BBF1000FBBD004237EE730B5012AEA
:103A9000144638BF0124402C85B028BF402400259F
:103AA000012ACDE9025518D81B788DF80830630734
:103AB0000AD004AB03EBD405624215F8083C02F0CF
:103AC0000702934005F8083C009103462246002176
:103AD00002A8FFF727FB05B030BD082AE4D9102A59
:103AE00003D81B88ADF80830E1E7202A8DBFD3E961
:103AF00000231B680293CDE90223D8E710B5CB68F9
:103B00001BB98B600B618B8210BD04691A681C6045
:103B10000361C38A013BC382CA60F0E703064CBF5E
:103B2000C0F3C0300220704708B50246FFF7F6FF29
:103B3000022806D15306C2F30F2001D100F0030082
:103B400008BDC2F30740FBE72DE9F04F93B0CDE984
:103B500003230A6804461046FFF7E0FF022814BF5B
:103B6000C2F306260026002A0D46824680F2F28124
:103B700012F0C04940F0EE81097B002900F0EA8193
:103B8000022803D02378B34240F0E781C2F30463F4
:103B90000693104602F07F030593FFF7C5FF059BD0
:103BA00029444FEA834848EA0A4848EA4668CE78FA
:103BB00000230022CDE90823F309834648EA0008E0
:103BC000029367D0059B009302466768534608A995
:103BD0002046B847002800F0C381276A4FB9414604
:103BE00004F10C00FFF702FB074690B96FF00200EA
:103BF00054E03B6998450DD03F68002FF9D141460C
:103C000004F10C00FFF7F2FA07460028EED0236A11
:103C10003B60276297F817C006F01F08CCF3840CAE
:103C2000ACEB08001FFA80FE0028B8BF0EF12000A0
:103C3000A8EB0C031FFA83FED7E90221B8BF00B23C
:103C4000002B0793BEBF0EF120031BB2079352EA6D
:103C5000010338D0039BDFF824E39A1A049B4FF04A
:103C6000000C63EB010196457CEB01032BD36B7BCE
:103C700097F81AE0734519D1029B002B78D00128E0
:103C800021DC7868F8B9DFF8F0C2944570EB0103E5
:103C900016D337E0276A27B96FF00C0013B0BDE8E0
:103CA000F08F3B699845B5D03F68F4E7B248904241
:103CB0007CEB010301D30020F0E7029B002BFAD03C
:103CC000079B0F2B17DCFA7DB30002F0030203F011
:103CD0007C031343FB7539462046FFF707FB6B7BDC
:103CE000BB76029B3BB9FB7DC3F38402013262F3D6
:103CF0008603FB75D0E76A7BBB7E9A42DBD1029BD1
:103D0000002B35D0B309022B32D0039BBB60049B40
:103D1000FB60142200210DA8FDF77EFF039B0A9390
:103D2000049B0B932B1D0C932B7BADF83EB0013BFA
:103D3000DBB2ADF83C30069B8DF84230059B8DF828
:103D4000433094F82C308DF840A083F001038DF8B7
:103D500044308DF84180A3680AA920469847FB7D2E
:103D6000C3F38403013303F01F039B02FB82A2E72A
:103D7000FB7DC6F34012B2EBD31F40F0F480C3F3D7
:103D80008403434540F0F280029A2B7BB609002A57
:103D90004DD0F2075DD4032B40F2EB80039BBB6058
:103DA000049BFB602B7BAE1D033BDBB232463946E6
:103DB00004F10C00FFF7ACFA00280CDA3946204673
:103DC000FFF794FAFB7DC3F38403013303F01F0371
:103DD0009B02FB820AE7DDE90884AB883B834FF650
:103DE000FF73C9F12000A9F1200228FA09F104FAB1
:103DF00000F0014324FA02F211431846C9B2FFF75A
:103E0000C9F909F10809B9F1400F0346E9D1B882AF
:103E10002A7B033AD2B23146FFF7CEF9FB7DB88256
:103E2000DA43C2F3C01262F3C713FB7543E786B9E6
:103E30002E1D013BDBB23246394604F10C00FFF780
:103E400067FA0028BADB2A7BB88A013AD2B2314637
:103E5000E2E7F98AC1F30901013B0429DAB25BD830
:103E6000281D002307F11B069A4208D910F801CB40
:103E700006F801C0013101330529DBB2F4D1039901
:103E80000A9104990B91934207F11B010C9138BFE1
:103E9000043379680D9134BF55FA83F300230E93F0
:103EA000FB8AADF83EB0C3F309031A44069B8DF8B4
:103EB0004230059B8DF8433094F82C30ADF83C200F
:103EC00083F001038DF8443000238DF840A08DF875
:103ED00041807B602A7BB88A013A291DFFF76CF983
:103EE0003B8BB882834203D1A3680AA92046984736
:103EF00020460AA9FFF702FEFB7DBA8AC3F38403BA
:103F0000013303F01F039B02FB823B8B9A420CBFE1
:103F100000206FF01000C1E67B68002BAFD00520B9
:103F200001E01C3033461E68002EFAD1091A081D24
:103F30002E1D184401EB090CBCF11B0F5FFA89F32D
:103F40009DD89A429BD916F8013B00F8013B09F134
:103F50000109EFE76FF00900A0E66FF00A009DE6A7
:103F60006FF00B009AE66FF00D0097E66FF00E0011
:103F700094E66FF00F0091E640420F0080841E002F
:103F8000EFF3098305494A6B22F001024A63683363
:103F900083F30988002383F31188704700EF00E062
:103FA000302080F3118862B60D4B0E4AD96821F497
:103FB000E0610904090C0A43DA60D3F8FC200A49DD
:103FC00042F08072C3F8FC20084AC2F8B01F1168A2
:103FD00041F0010111602022DA7783F82200704756
:103FE00000ED00E00003FA0555CEACC5001000E07E
:103FF00010B5302383F311880E4B5B6813F4006314
:1040000014D0F1EE103AEFF30984683C4FF080735E
:10401000E361094BDB6B236684F3098800F0C4FC81
:1040200010B1064BA36110BD054BFBE783F311886C
:10403000F9E700BF00ED00E000EF00E063060008D4
:104040006606000800F1604303F561430901C9B247
:1040500083F80013012200F01F039A4043099B00DC
:1040600003F1604303F56143C3F880211A60704790
:10407000026843681143016003B1184770470000AC
:1040800013B5446BD4F894341A681178042915D107
:10409000217C022912D11979128901238B40134204
:1040A0000CD101A904F14C0002F060F8D4F894445A
:1040B000019B21790246206800F0D6F902B010BDBC
:1040C000143001F0E3BF00004FF0FF33143001F073
:1040D000DDBF00004C3002F0B5B800004FF0FF33F8
:1040E0004C3002F0AFB80000143001F0B1BF000056
:1040F0004FF0FF31143001F0ABBF00004C3002F044
:1041000081B800004FF0FF324C3002F07BB8000065
:104110000020704710B5D0F894341A68117804293B
:10412000044617D1017C022914D1597952890123FF
:104130008B4013420ED1143001F044FF024648B1C7
:10414000D4F894444FF4807361792068BDE810403E
:1041500000F078B910BD0000406BFFF7DBBF000036
:10416000704700007FB5124B036000234360C0E935
:104170000233012502260F4B057404460290019379
:1041800000F18402294600964FF48073143001F048
:10419000F5FE094B0294CDE9006304F523724FF458
:1041A0008073294604F14C0001F0BCFF04B070BDDF
:1041B000246B000859410008814000080B68302238
:1041C00082F311880A7903EB820210624A790D3278
:1041D00043F822008A7912B103EB820318620223AA
:1041E000C0F894140374002080F311887047000015
:1041F00038B5037F044613B190F85430ABB9201D95
:1042000001250221FFF734FF04F1140025776FF038
:10421000010100F0A7FC84F8545004F14C006FF049
:104220000101BDE8384000F09DBC38BD10B501214A
:1042300004460430FFF71CFF0023237784F8543032
:1042400010BD000038B504460025143001F0AEFE64
:1042500004F14C00257701F07DFF201D84F85450B7
:104260000121FFF705FF2046BDE83840FFF752BFA8
:1042700090F85C3003F06003202B07D190F85D20AC
:10428000212A4FF0000303D81F2A06D800207047C8
:10429000222AFBD1C0E9143303E0034A0265072256
:1042A00042658365012070473823002037B5D0F878
:1042B00094341A681178042904461AD1017C022921
:1042C00017D11979128901238B40134211D100F1C2
:1042D0004C05284601F0FEFF58B101A9284601F01F
:1042E00045FFD4F89444019B21790246206800F0F0
:1042F000BBF803B030BD0000F0B500EB810385B022
:104300001E6A04460D46FEB1302383F3118804EB88
:104310008507301D0821FFF7ABFEFB685B691B6852
:1043200006F14C001BB1019001F02EFF019803A98A
:1043300001F01CFF024648B1039B2946204600F0CD
:1043400093F8002383F3118805B0F0BDFB685A6928
:104350001268002AF5D01B8A013B1340F1D104F109
:104360005C02EAE70D3138B550F82140DCB130236A
:1043700083F31188D4F894241368527903EB8203F1
:10438000DB689B695D6845B104216018FFF770FE2A
:10439000294604F1140001F01FFE2046FFF7BAFE83
:1043A000002383F3118838BD7047000001F080B905
:1043B00010B501230446282200F8243B0021FDF714
:1043C0002BFC0023C4E9013310BD000038B50446BE
:1043D000302383F311880025C0E90355C0E9055552
:1043E000C0E90755416001F073F90223237085F39A
:1043F0001188284638BD000070B500EB81030546E2
:104400005069DA600E46144618B110220021FDF7FB
:1044100003FCA06918B110220021FDF7FDFB314615
:104420002846BDE8704001F01DBA0000826802F025
:10443000011282600022C0E90422C0E90622026261
:1044400001F09CBAF0B400EB81044789E4680125CF
:10445000A4698D403D43458123600023A2606360D1
:10446000F0BC01F0B7BA0000F0B400EB810407899A
:10447000E468012564698D403D4305812360002384
:10448000A2606360F0BC01F031BB000070B5022394
:10449000002504460370C0E90255C0E90455C0E98F
:1044A00006554566056280F84C5001F077F963685F
:1044B0001B6823B129462046BDE87040184770BDEF
:1044C0000378052B10B504460AD080F86830052320
:1044D000037043681B680BB1042198470023A36055
:1044E00010BD00000178052906D190F868204368C6
:1044F00002701B6803B118477047000070B590F850
:104500004C30044613B1002380F84C3004F15C02B7
:10451000204601F055FA63689B68B3B994F85C30A3
:1045200013F0600535D00021204601F009FD00217F
:10453000204601F0FBFC63681B6813B1062120468E
:104540009847062384F84C3070BD204698470028D1
:10455000E4D0B4F86230626D9A4288BF636594F922
:104560005C30656D002B4FF0300380F20381002D2D
:1045700000F0F280092284F84C2083F31188002196
:10458000D4E914232046FFF76FFF002383F311883B
:10459000DAE794F85D2003F07F0343EA022340F258
:1045A0000232934200F0C58021D8B3F5807F48D015
:1045B0000DD8012B3FD0022B00F09380002BB2D1FD
:1045C00004F16402226502226265A365C1E7B3F5C6
:1045D000817F00F09B80B3F5407FA4D194F85E30DA
:1045E000012BA0D1B4F8643043F0020332E0B3F5FC
:1045F000006F4DD017D8B3F5A06F31D0A3F5C063CD
:10460000012B90D8636894F85E205E6894F85F1080
:10461000B4F860302046B047002884D04368236552
:10462000036863651AE0B3F5106F36D040F60242B6
:1046300093427FF478AF5C4B2365022363650023CC
:10464000C3E794F85E30012B7FF46DAFB4F86430AB
:1046500023F00203C4E91455A4F86430A56578E793
:10466000B4F85C30B3F5A06F0ED194F85E3084F8E6
:104670006630204601F0EAF863681B6813B1012137
:1046800020469847032323700023C4E914339CE792
:1046900004F1670323650123C3E72378042B10D1BA
:1046A000302383F311882046FFF7C0FE85F311887D
:1046B0000321636884F8675021701B680BB12046A2
:1046C000984794F85E30002BDED084F867300423DE
:1046D000237063681B68002BD6D0022120469847C0
:1046E000D2E794F860301D0603F00F0120460AD58A
:1046F00001F058F9012804D002287FF414AF2B4BA5
:104700009AE72B4B98E701F03FF9F3E794F85E3016
:10471000002B7FF408AF94F8603013F00F01B3D092
:104720001A06204602D501F01FFCADE701F012FC8D
:10473000AAE794F85E30002B7FF4F5AE94F8603071
:1047400013F00F01A0D01B06204602D501F0F8FBA4
:104750009AE701F0EBFB97E7142284F84C2083F3EF
:1047600011882B462A4629462046FFF76BFE85F323
:104770001188E9E65DB1152284F84C2083F3118895
:104780000021D4E914232046FFF75CFEFDE60B224E
:1047900084F84C2083F311882B462A46294620466C
:1047A000FFF762FEE3E700BF546B00084C6B0008A4
:1047B000506B000838B590F84C300446002B3ED0C2
:1047C000063BDAB20F2A34D80F2B32D8DFE803F0D9
:1047D00037313108223231313131313131313737EE
:1047E000456DB0F862309D4214D2C3681B8AB5FB98
:1047F000F3F203FB12556DB9302383F311882B4676
:104800002A462946FFF730FE85F311880A2384F8EB
:104810004C300EE0142384F84C30302383F311889D
:1048200000231A4619462046FFF70CFE002383F3A7
:10483000118838BD836D03B198470023E7E7002155
:10484000204601F07DFB0021204601F06FFB6368EC
:104850001B6813B10621204698470623D7E70000BE
:1048600010B590F84C30142B044629D017D8062BDD
:1048700005D001D81BB110BD093B022BFBD800218C
:10488000204601F05DFB0021204601F04FFB6368EC
:104890001B6813B1062120469847062319E0152B03
:1048A000E9D10B2380F84C30302383F311880023A7
:1048B0001A461946FFF7D8FD002383F31188DAE77B
:1048C000C3689B695B68002BD5D1836D03B19847A2
:1048D000002384F84C30CEE7002303758268036917
:1048E0001B6899689142FBD25A680360426010606D
:1048F0005860704700230375826803691B689968D4
:104900009142FBD85A68036042601060586070475B
:1049100008B50846302383F311880B7D032B05D09F
:10492000042B0DD02BB983F3118808BD8B690022AD
:104930001A604FF0FF338361FFF7CEFF0023F2E7E9
:10494000D1E9003213605A60F3E70000FFF7C4BFFB
:10495000054BD9680875186802681A60536001220F
:104960000275D860FBF768BE884B002030B50C4B51
:10497000DD684B1C87B004460FD02B46094A6846B9
:1049800000F084F92046FFF7E3FF009B13B168466F
:1049900000F086F9A86907B030BDFFF7D9FFF9E745
:1049A000884B002011490008044B1A68DB689068A6
:1049B0009B68984294BF002001207047884B0020DC
:1049C000084B10B51C68D86822681A605360012231
:1049D0002275DC60FFF78EFF01462046BDE81040DF
:1049E000FBF72ABE884B0020044B1A68DB689268EC
:1049F0009B689A4201D9FFF7E3BF7047884B0020BC
:104A000038B5074C07490848012300252370656025
:104A100001F098FC0223237085F3118838BD00BF94
:104A2000F04D00205C6B0008884B002008B572B682
:104A3000044B186500F042FC00F02EFD024B0322EF
:104A40001A70FEE7884B0020F04D002000F05EB9A0
:104A5000EFF3118020B9EFF30583302282F3118840
:104A60007047000010B530B9EFF30584C4F30804B3
:104A700014B180F3118810BDFFF7B6FF84F31188DD
:104A8000F9E70000034A516853685B1A9842FBD863
:104A9000704700BF001000E08B60022308618B822A
:104AA000084670478368A3F1840243F8142C026916
:104AB00043F8442C426943F8402C094A43F8242C1B
:104AC000C26843F8182C022203F80C2C002203F8C9
:104AD0000B2C044A43F8102CA3F12000704700BFB0
:104AE00051060008884B002008B5FFF7DBFFBDE842
:104AF0000840FFF72BBF0000024BDB6898610F20D6
:104B0000FFF726BF884B0020302383F31188FFF77F
:104B1000F3BF000008B50146302383F31188082055
:104B2000FFF724FF002383F3118808BD064BDB68E1
:104B300039B1426818605A60136043600420FFF77F
:104B400015BF4FF0FF307047884B00200368984234
:104B500006D01A680260506099611846FFF7F6BEE9
:104B60007047000038B504460D462068844200D1E5
:104B700038BD036823605C608561FFF7E7FEF4E7FA
:104B800010B503689C68A2420CD85C688A600B6010
:104B90004C602160596099688A1A9A604FF0FF331F
:104BA000836010BD1B68121BECE700000A2938BFA8
:104BB0000A2170B504460D460A26601901F0BCFBB7
:104BC00001F0A8FB041BA54203D8751C2E46044621
:104BD000F3E70A2E04D9BDE87040012001F0F2BBD2
:104BE00070BD0000F8B5144B0D46D96103F11001FA
:104BF00041600A2A1969826038BF0A220160486050
:104C00001861A818144601F089FB0A2701F082FBFD
:104C1000431BA342064606D37C1C281901F08CFBDB
:104C200027463546F2E70A2F04D9BDE8F8400120AF
:104C300001F0C8BBF8BD00BF884B0020F8B50646A0
:104C40000D4601F067FB0F4A134653F8107F9F4251
:104C500006D12A4601463046BDE8F840FFF7C2BFFC
:104C6000D169BB68441A2C1928BF2C46A34202D92B
:104C70002946FFF79BFF224631460348BDE8F8402E
:104C8000FFF77EBF884B0020984B002010B4C0E98E
:104C9000032300235DF8044B4361FFF7CFBF0000FF
:104CA00010B5194C236998420DD0D0E900328168C3
:104CB00013605A609A680A449A60002303604FF0B8
:104CC000FF33A36110BD2346026843F8102F5360E1
:104CD0000022026022699A4203D1BDE8104001F02F
:104CE00025BB936881680B44936001F013FB226934
:104CF000E1699268441AA242E4D91144BDE8104027
:104D0000091AFFF753BF00BF884B00202DE9F04779
:104D1000DFF8BC8008F110072C4ED8F8105001F0D5
:104D2000F9FAD8F81C40AA68031B9A423ED81444EA
:104D3000D5E900324FF00009C8F81C4013605A60F2
:104D4000C5F80090D8F81030B34201D101F0EEFA66
:104D500089F31188D5E9033128469847302383F336
:104D600011886B69002BD8D001F0D4FA6A69A0EBE6
:104D700004094A4582460DD2022001F023FB00229D
:104D8000D8F81030B34208D151462846BDE8F04764
:104D9000FFF728BF121A2244F2E712EB090938BFC5
:104DA0004A4629463846FFF7EBFEB5E7D8F81030FB
:104DB000B34208D01444211AC8F81C00A960BDE809
:104DC000F047FFF7F3BEBDE8F08700BF984B002027
:104DD000884B002000207047FEE70000704700006D
:104DE0004FF0FF307047000002290CD0032904D097
:104DF0000129074818BF00207047032A05D8054835
:104E000000EBC2007047044870470020704700BFA5
:104E1000346C000848230020E86B000870B59AB095
:104E20000546084601A9144600F0C2F801A8FCF79F
:104E3000EBFE431C5B00C5E9003400222370032312
:104E40006370C6B201AB02341046D1B28E4204F197
:104E5000020401D81AB070BD13F8011B04F8021C3B
:104E600004F8010C0132F0E708B5302383F3118810
:104E70000348FFF71BFA002383F3118808BD00BF26
:104E8000F84D002090F85C3003F01F02012A07D192
:104E900090F85D200B2A03D10023C0E9143315E0FC
:104EA00003F06003202B08D1B0F860302BB990F8E4
:104EB0005D20212A03D81F2A04D8FFF7D9B9222A56
:104EC000EBD0FAE7034A02650722426583650120B9
:104ED000704700BF3F23002007B5052917D8DFE83A
:104EE00001F0191603191920302383F31188104A91
:104EF00001900121FFF780FA01980E4A0221FFF785
:104F00007BFA0D48FFF79EF9002383F3118803B065
:104F10005DF804FB302383F311880748FFF768F935
:104F2000F2E7302383F311880348FFF77FF9EBE7BB
:104F3000886B0008AC6B0008F84D002038B50C4DAC
:104F40000C4C0D492A4604F10800FFF767FF05F1F4
:104F5000CA0204F110000949FFF760FF05F5CA72A3
:104F600004F118000649BDE83840FFF757BF00BFFD
:104F7000C052002048230020686B0008726B0008B4
:104F80007D6B000870B5044608460D46FCF73CFEF4
:104F9000C6B22046013403780BB9184670BD3246BC
:104FA0002946FCF71DFE0028F3D10120F6E700009A
:104FB0002DE9F84F05460C46FCF726FE2B49C6B2F4
:104FC0002846FFF7DFFF08B10336F6B22849284626
:104FD000FFF7D8FF08B11036F6B2632E0DD8DFF810
:104FE0008C80DFF88C90234FDFF890A0DFF890B032
:104FF0002E7846B92670BDE8F88F29462046BDE8D0
:10500000F84F01F025BD252E2BD107224146284619
:10501000FCF7E6FD58B9DBF800302360DBF804301C
:105020006360BBF80830238107350A34E0E70822C3
:1050300049462846FCF7D4FD98B90F4BA21C1978B5
:1050400009090232C95D02F8041C13F8011B01F0C2
:105050000F015345C95D02F8031CF0D1183408351F
:10506000C6E704F8016B0135C2E700BF546C0008C5
:105070007D6B00085C6C0008107AF01F1C7AF01F32
:105080006E6A0008BFF34F8F024AD368DB03FCD47B
:10509000704700BF003C024008B5074B1B7853B96E
:1050A000FFF7F0FF054B1A69002ABFBF044A5A6098
:1050B00002F188325A6008BD1E550020003C0240B3
:1050C0002301674508B5054B1B7833B9FFF7DAFFB5
:1050D000034A136943F00043136108BD1E550020C5
:1050E000003C02400728F0B516D80C4C0C49237838
:1050F0007BB90C4D0E4608234FF0006255F8047B37
:1051000046F8042B013B13F0FF033A44F6D1012388
:10511000237051F82000F0BD0020FCE7405500202E
:1051200020550020706C0008014B53F82000704798
:10513000706C000808207047072810B5044601D994
:10514000002010BDFFF7CEFF064B53F82430184463
:10515000C21A0BB90120F4E712680132F0D1043B06
:10516000F6E700BF706C0008072810B5044621D888
:10517000FFF788FFFFF790FF0F4AF323D360C300C8
:10518000DBB243F4007343F002031361136943F489
:1051900080331361FFF776FFFFF7A4FF074B53F847
:1051A000241000F055F9FFF78DFF2046BDE81040B0
:1051B000FFF7C2BF002010BD003C0240706C000829
:1051C000F8B512F00103144642D185182E4A9542D3
:1051D00057D82E4B1B6813F0010352D02C4DFFF70C
:1051E0005BFFF323EB60FFF74DFF40F20127032C39
:1051F00015D824F001046618254C401A40F2011716
:10520000B142236900EB010524D123F0010323619E
:10521000FFF758FF0120F8BD043C0430E7E783079F
:10522000E7D12B6923F440732B612B693B432B613E
:1052300051F8046B0660BFF34F8FFFF723FF03683D
:105240009E42E9D02B6923F001032B61FFF73AFF5F
:105250000020E0E723F44073236123693B4323618B
:105260000B882B80BFF34F8FFFF70CFF2D8831F891
:10527000023BADB2AB42C3D0236923F001032361EB
:10528000E4E71846C7E700BF0000080800380240FE
:10529000003C0240084908B50B7828B11BB9FFF75C
:1052A000FBFE01230B7008BD002BFCD0BDE80840BD
:1052B0000870FFF707BF00BF1E55002008B54FF468
:1052C00080314FF0005000F0D5F809484FF43031EC
:1052D00000F0D0F807484FF4804100F0CBF8BDE86B
:1052E00008404FF470514FF4805000F0C3B800BF35
:1052F0000000012000C003200846114601F00CBB4D
:10530000012001F009BB0000084601F023BB0000AA
:1053100070B582B0FFF79CFB0E4E054600F0FAFF19
:105320003268904237BF0C4A0B49516814682EBF4F
:10533000D1E90041013151600419034641F10001F6
:10534000284601913360FFF78DFB0199204602B09A
:1053500070BD00BF445500204855002070B582B094
:10536000FFF776FB104E054600F0D4FF32689042FE
:1053700037BF0E4A0D49516814682EBFD1E900416C
:1053800001315160041941F10001034628460191A1
:105390003360FFF767FB01994FF47A7200232046D0
:1053A000FAF736FF02B070BD445500204855002082
:1053B00010B50244064BD2B2904200D110BD441C3D
:1053C00000B253F8200041F8040BE0B2F4E700BF4C
:1053D000502800400F4B30B51C6F240407D41C6FBD
:1053E00044F400741C671C6F44F400441C670A4CAE
:1053F000236843F4807323600244084BD2B2904286
:1054000000D130BD441C00B251F8045B43F8205079
:10541000E0B2F4E70038024000700040502800403D
:1054200007B5012201A90020FFF7C2FF019803B0D0
:105430005DF804FB13B50446FFF7F2FFA04205D068
:10544000012201A900200194FFF7C4FF02B010BDA2
:105450000144BFF34F8F064B884204D3BFF34F8FF5
:10546000BFF36F8F7047C3F85C022030F4E700BFD2
:1054700000ED00E00144BFF34F8F064B884204D398
:10548000BFF34F8FBFF36F8F7047C3F870022030A8
:10549000F4E700BF00ED00E070470000074B45F265
:1054A00055521A6002225A6040F6FF729A604CF61A
:1054B000CC421A60024B01221A7070470030004043
:1054C00054550020034B1B781BB1034B4AF6AA220C
:1054D0001A6070475455002000300040034B1A6892
:1054E0001AB9034AD2F874281A6070475055002040
:1054F00000300240024B4FF08072C3F874287047AE
:105500000030024008B5FFF7E9FF024B1868C0F30E
:10551000407008BD5055002008B5FFF7DFFF024B73
:105520001868C0F3007008BD5055002070B5BFF377
:105530004F8FBFF36F8F1A4A0021C2F85012BFF38A
:105540004F8FBFF36F8F536943F400335361BFF341
:105550004F8FBFF36F8FC2F88410BFF34F8FD2F815
:105560008030C3F3C900C3F34E335B0143F6E074EC
:1055700003EA0406014646EA81750139C2F8605221
:10558000F9D2203B13F1200FF2D1BFF34F8F5369B3
:1055900043F480335361BFF34F8FBFF36F8F70BD00
:1055A00000ED00E0FEE7000070B5214B2148224AE3
:1055B000904237D3214BDA1C121AC11E22F003028B
:1055C0008B4238BF00220021FCF726FB1C4A002337
:1055D000C2F88430BFF34F8FD2F88030C3F3C900D4
:1055E000C3F34E335B0143F6E07403EA040601465D
:1055F00046EA81750139C2F86C52F9D2203B13F1A9
:10560000200FF2D1BFF34F8FBFF36F8FBFF34F8FD8
:10561000BFF36F8F0023C2F85032BFF34F8FBFF339
:105620006F8F70BD53F8041B40F8041BC0E700BF28
:105630009C6E0008705600207056002070560020A6
:1056400000ED00E070B5D0E91B439E6800224FF0EA
:10565000FF3504EB42135101D3F800090028BEBF07
:10566000D3F8000940F08040C3F80009D3F8000BDC
:105670000028BEBFD3F8000B40F08040C3F8000BF9
:10568000013263189642C3F80859C3F8085BE0D2A8
:105690004FF00113C4F81C3870BD0000890141F0BF
:1056A0002001016103699B06FCD41220FFF7EAB9CF
:1056B00010B5054C2046FEF77BFE4FF0A043E36695
:1056C000024B236710BD00BF58550020B46C000882
:1056D00070B50378012B054650D12A4BC46E984211
:1056E0001BD1294B5A6B42F080025A635A6D42F02B
:1056F00080025A655A6D5A6942F080025A615A69AD
:1057000022F080025A610E2143205B69FEF79AFC69
:105710001E4BE3601E4BC4F800380023C4F8003E63
:10572000C0232360EE6E4FF40413A3633369002B90
:10573000FCDA012333610C20FFF7A4F93369DB079E
:10574000FCD41220FFF79EF93369002BFCDA002607
:10575000A6602846FFF776FF6B68C4F81068DB6820
:10576000C4F81468C4F81C684BB90A4BA3614FF025
:10577000FF336361A36843F00103A36070BD064B70
:10578000F4E700BF585500200038024040140040A4
:1057900003002002003C30C0083C30C0F8B5C46EA5
:1057A000054600212046FFF779FF296F00234FF0BF
:1057B00001128F68C4F834384FF00066C4F81C2812
:1057C0004FF0FF3004EB431201339F42C2F80069EF
:1057D000C2F8006BC2F80809C2F8080BF2D20B68D5
:1057E000EA6E6B67636210231361166916F0100688
:1057F000FBD11220FFF746F9D4F8003823F4FE63FA
:10580000C4F80038A36943F4402343F01003A361B4
:105810000923C4F81038C4F814380A4BEB604FF071
:10582000C043C4F8103B084BC4F8003BC4F81069EF
:10583000C4F800396B6F03F1100243F480136A67F8
:10584000A362F8BD906C000840800010C26E90F812
:105850006610D2F8003823F4FE6343EA0113C2F85D
:10586000003870472DE9F84300EB8103C56EDA6814
:10587000166806F00306731E022B05EB41130C4657
:1058800080460FFA81F94FEA41104FF00001C3F84A
:10589000101B4FF0010104F1100398BFB60401FA88
:1058A00003F391698EBF334E06F1805606F500462C
:1058B00000293AD0578A04F15801490137436F5003
:1058C000D5F81C180B43C5F81C382B180021C3F859
:1058D000101953690127611EA7409BB3138A928B4D
:1058E0009B08012A88BF5343D8F87420981842EACD
:1058F000034301F1400205EB8202C8F8740021461F
:1059000053602846FFF7CAFE08EB8900C3681B8A6C
:1059100043EA8453483464011E432E51D5F81C38A1
:105920001F43C5F81C78BDE8F88305EB4917D7F885
:10593000001B21F40041C7F8001BD5F81C1821EA10
:105940000303C0E704F13F0305EB83030A4A5A60EF
:1059500028462146FFF7A2FE05EB4910D0F8003992
:1059600023F40043C0F80039D5F81C3823EA0707B0
:10597000D7E700BF0080001000040002026F126829
:105980004267FFF75FBE00005831C36E49015B58A4
:1059900013F4004004D013F4001F0CBF02200120B8
:1059A000704700004831C36E49015B5813F4004052
:1059B00004D013F4001F0CBF022001207047000028
:1059C00000EB8101CB68196A0B6813604B68536068
:1059D0007047000000EB810330B5DD68AA691368E9
:1059E000D36019B9402B84BF402313606B8A1468BD
:1059F000C26E1C44013CB4FBF3F46343033323F055
:105A0000030302EB411043EAC44343F0C043C0F830
:105A1000103B2B6803F00303012B09B20ED1D2F81F
:105A2000083802EB411013F4807FD0F8003B14BF1C
:105A300043F0805343F00053C0F8003B02EB4112A7
:105A4000D2F8003B43F00443C2F8003B30BD0000F5
:105A50002DE9F041244DEE6E06EB40130446D3F8D9
:105A6000087BC3F8087B38070AD5D6F8143819071D
:105A700006D505EB84032146DB6828465B6898471A
:105A8000FA071FD5D6F81438DB071BD505EB8403BE
:105A9000D968CCB98B69488A5A68B2FBF0F600FB2A
:105AA00016228AB91868DA6890420DD2121AC3E930
:105AB0000024302383F311880B482146FFF78AFF27
:105AC00084F31188BDE8F081012303FA04F26B89A5
:105AD00023EA02036B81CB68002BF3D021460248F6
:105AE000BDE8F041184700BF5855002000EB810386
:105AF00070B5DD68C36E6C692668E6604A0156BB06
:105B00001A444FF40020C2F810092A6802F0030278
:105B1000012A0AB20ED1D3F8080803EB421410F49C
:105B2000807FD4F8000914BF40F0805040F000504E
:105B3000C4F8000903EB4212D2F8000940F0044017
:105B4000C2F80009D3F83408012202FA01F1014336
:105B5000C3F8341870BD19B9402E84BF40202060AE
:105B600020682E8A8419013CB4FBF6F440EAC44054
:105B700040F000501A44C6E72DE9F8433B4DEE6E65
:105B800006EB40130446D3F80889C3F8088918F0D7
:105B9000010F4FEA40171AD0D6F81038DB0716D598
:105BA00005EB8003D9684B691868DA68904230D2F7
:105BB000121A4FF000091A60C3F80490302383F3DF
:105BC000118821462846FFF791FF89F3118818F0C4
:105BD000800F1CD0D6F834380126A640334216D0A8
:105BE00005EB8403ED6ED3F80CC0DCF8142001340F
:105BF000E4B2D2F800E005EB04342F44516871455B
:105C000015D3D5F8343823EA0606C5F83468BDE85C
:105C1000F883012303FA04F22B8923EA02032B8180
:105C20008B68002BD3D0214628469847CFE7BCF895
:105C30001000AEEB0103834228BF0346D7F81809D2
:105C400080B2B3EB800FE2D89068A0F1040959F854
:105C5000048FC4F80080A0EB09089844B8F1040F41
:105C6000F5D818440B4490605360C7E7585500209E
:105C70002DE9F74FAC4CE56E6E69AB691E4016F42A
:105C800080586E6107D02046FEF700FC03B0BDE8E7
:105C9000F04FFEF7ADB9002E12DAD5F8003EA2485B
:105CA0009B071EBFD5F8003E23F00303C5F8003E56
:105CB000D5F8043823F00103C5F80438FEF712FCC8
:105CC000370505D59848FFF7BDFC9748FEF7F8FB68
:105CD000B0040CD5D5F8083813F0060FEB6823F4A0
:105CE00070530CBF43F4105343F4A053EB603107DF
:105CF0001BD56368DB681BB9AB6923F00803AB6194
:105D00002378052B0CD1D5F8003E87489A071EBF93
:105D1000D5F8003E23F00303C5F8003EFEF7E2FB92
:105D20006368DB680BB180489847F30200F1898013
:105D3000B70227D5D4F86C90DFF8ECB100274FF00C
:105D4000010A09EB4712D2F8003B03F44023B3F5F4
:105D5000802F11D1D2F8003B002B0DDA62890AFAAC
:105D600007F322EA0303638104EB8703DB68DB6844
:105D700013B1394658469847236F01379B68FFB2E5
:105D80009F42DED9F00617D5E76E3A6AC2F30A10D1
:105D900002F00F0302F4F012B2F5802F00F09980A8
:105DA000B2F5402F08D104EB83030022DB681B6AA5
:105DB00007F5805790427ED13303D5F818481DD59A
:105DC000E70302D50020FFF743FEA50302D501201B
:105DD000FFF73EFE600302D50220FFF739FE2103E4
:105DE00002D50320FFF734FEE20202D50420FFF7BC
:105DF0002FFEA30202D50520FFF72AFE77037FF5C9
:105E000045AFE60702D50020FFF7B6FEA50702D58D
:105E10000120FFF7B1FE600702D50220FFF7ACFEBC
:105E2000210702D50320FFF7A7FEE20602D50420D2
:105E3000FFF7A2FEA3067FF529AF0520FFF79CFE22
:105E400024E7E36EDFF8E0A0019300274FF001099B
:105E5000236F9B685FFA87FB9B453FF669AF019B09
:105E600003EB4B13D3F8001901F44021B1F5802F57
:105E70001FD1D3F8001900291BDAD3F8001941F01B
:105E80009041C3F80019D3F800190029FBDB5946EB
:105E9000E06EFFF703FC218909FA0BF321EA030303
:105EA000238104EB8B03DB689B6813B15946504692
:105EB00098470137CCE7910708BFD7F80080072A39
:105EC00098BF03F8018B02F1010298BF4FEA18282E
:105ED00070E7023304EB830207F580575268D2F86B
:105EE00018C0DCF80820DCE9001CA1EB0C0C002138
:105EF00088420AD104EB830463689B699A68024470
:105F00009A605A6802445A6056E711F0030F08BFBE
:105F1000D7F800808C4588BF02F8018B01F10101A0
:105F200088BF4FEA1828E3E758550020C36E03EBFB
:105F30004111D1F8003B43F40013C1F8003B704716
:105F4000C36E03EB4111D1F8003943F40013C1F8DB
:105F500000397047C36E03EB4111D1F8003B23F4C5
:105F60000013C1F8003B7047C36E03EB4111D1F839
:105F7000003923F40013C1F80039704730B5039C91
:105F80000172043304FB0325C0E90653049B036339
:105F90000021059BC160C0E90000C0E90422C0E9FE
:105FA0000842C0E90A11436330BD0000416A002283
:105FB000C0E90411C0E90A22C2606FF00101FEF7D6
:105FC000D1BD0000D0E90432934201D1C2680AB9C0
:105FD000181D70470020704703691960C2680132BC
:105FE000C260C269134482690361934224BF436A59
:105FF00003610021FEF7AABD38B504460D46E368EB
:106000003BB16269131D1268A3621344E36200206E
:1060100007E0237A33B929462046FEF787FD00289A
:10602000EDDA38BD6FF00100FBE70000C368C2691C
:10603000013BC3604369134482694361934224BFB7
:10604000436A436100238362036B03B118477047BF
:1060500070B53023044683F31188866A3EB9FFF792
:10606000CBFF054618B186F31188284670BDA36A98
:10607000E26A13F8015BA362934202D32046FFF762
:10608000D5FF002383F31188EFE700002DE9F84FD7
:1060900004460E46174698464FF0300989F311889A
:1060A0000025AA46D4F828B0BBF1000F09D141461B
:1060B0002046FFF7A1FF20B18BF311882846BDE8E9
:1060C000F88FD4E90A12A7EB050B521A934528BFA3
:1060D0009346BBF1400F1BD9334601F1400251F802
:1060E000040B43F8040B9142F9D1A36A40334036C4
:1060F000A3624035D4E90A239A4202D32046FFF72F
:1061000095FF8AF31188BD42D8D289F31188C9E777
:1061100030465A46FBF75AFDA36A5B445E44A362CD
:106120005D44E7E710B5029C0172043303FB0421D0
:10613000C0E906130023C0E90A33039B0363049BF1
:10614000C460C0E90000C0E90422C0E9084243631A
:1061500010BD0000026AC260426AC0E90422002247
:10616000C0E90A226FF00101FEF7FCBCD0E904236C
:106170009A4201D1C26822B9184650F8043B0B601C
:10618000704700231846FAE7C368C2690133C36049
:106190004369134482694361934224BF436A436164
:1061A0000021FEF7D3BC000038B504460D46E36875
:1061B0003BB123691A1DA262E2691344E362002025
:1061C00007E0237A33B929462046FEF7AFFC0028C2
:1061D000EDDA38BD6FF00100FBE7000003691960DC
:1061E000C268013AC260C269134482690361934282
:1061F00024BF436A036100238362036B03B1184722
:106200007047000070B530230D460446114683F3F5
:106210001188866A2EB9FFF7C7FF10B186F311887F
:1062200070BDA36A1D70A36AE26A01339342A36240
:1062300004D3E16920460439FFF7D0FF002080F342
:106240001188EDE72DE9F84F04460D469046994632
:106250004FF0300A8AF311880026B346A76A4FB977
:1062600049462046FFF7A0FF20B187F3118830464A
:10627000BDE8F88FD4E90A073A1AA8EB0607974257
:1062800028BF1746402F1BD905F1400355F8042BB2
:1062900040F8042B9D42F9D1A36A4033A3624036F3
:1062A000D4E90A239A4204D3E16920460439FFF76E
:1062B00095FF8BF311884645D9D28AF31188CDE733
:1062C00029463A46FBF782FCA36A3B443D44A3625D
:1062D0003E44E5E7D0E904239A4217D1C3689BB155
:1062E000836A8BB1043B9B1A0ED01360C368013BD9
:1062F000C360C3691A44836902619A4224BF436A36
:106300000361002383620123184670470023FBE7E3
:1063100000F0D2B84FF08043586A70474FF0804386
:10632000002258631A610222DA6070474FF08043FE
:106330000022DA60704700004FF0804358637047D6
:10634000FEE7000070B51B4B01630025044686B0D4
:10635000586085620E46FDF723FE04F11003C4E980
:1063600004334FF0FF33C4E90635C4E90044A560A7
:10637000E562FFF7CFFF2B460246C4E9082304F18C
:1063800034010D4A256580232046FEF785FB012355
:10639000E0600A4A0375009272680192B268CDE922
:1063A0000223074B6846CDE90435FEF79DFB06B096
:1063B00070BD00BFF04D0020C06C0008C56C000827
:1063C00041630008024AD36A1843D062704700BF95
:1063D000884B00204B6843608B688360CB68C36048
:1063E0000B6943614B6903628B6943620B6803600D
:1063F0007047000008B5264B26481A6940F2FF1185
:106400000A431A611A6922F4FF7222F001021A612A
:106410001A691A6B0A431A631A6D0A431A651E4AEF
:106420001B6D1146FFF7D6FF02F11C0100F58060DD
:10643000FFF7D0FF02F1380100F58060FFF7CAFFD7
:1064400002F1540100F58060FFF7C4FF02F1700112
:1064500000F58060FFF7BEFF02F18C0100F580605F
:10646000FFF7B8FF02F1A80100F58060FFF7B2FF67
:1064700002F1C40100F58060FFF7ACFF02F1E0011A
:1064800000F58060FFF7A6FFBDE8084000F088B87F
:106490000038024000000240CC6C000808B500F053
:1064A000F3F9FEF7ADFAFFF719F8BDE80840FEF77B
:1064B00045BD0000704700000F4B1A6C42F001020E
:1064C0001A641A6E42F001021A660C4A1B6E936837
:1064D00043F0010393604FF080436B229A624FF0C8
:1064E000FF32DA6200229A615A63DA605A6001224E
:1064F0005A611A60704700BF00380240002004E073
:106500004FF0804208B51169D3680B40D9B2C94336
:106510009B07116107D5302383F31188FEF796FAA4
:10652000002383F3118808BD1B4B1A696FEAC2521E
:106530006FEAD2521A611A69C2F308021A614FF067
:10654000FF301A695A69586100215A6959615A69BC
:106550001A6A62F080521A621A6A02F080521A6253
:106560001A6A5A6A58625A6A59625A6A0B4A106819
:1065700040F480701060186F00F44070B0F5007F38
:106580001EBF4FF4803018671967536823F40073F7
:10659000536000F055B900BF003802400070004061
:1065A000364B374A1A64374A4FF4404111601A6833
:1065B00042F001021A601A689207FCD59A6822F02C
:1065C00003029A602D4B9A6812F00C02FBD11968F5
:1065D00001F0F90119609A601A6842F480321A6079
:1065E0001A689003FCD55A6F42F001025A67234B98
:1065F0005A6F9107FCD5244A5A601A6842F080729B
:106600001A60204B5A685204FCD51A6842F4803252
:106610001A605A68D003FCD51A6842F400321A6036
:10662000184A53689903FCD5144B1A689201FCD59B
:10663000164A9A6040F20112C3F88C200022C3F877
:106640009020134A40F207331360136803F00F03DE
:10665000072BFAD1094B9A6842F002029A609A68B5
:1066600002F00C02082AFAD15A6C42F480425A64B1
:106670005A6E42F480425A665B6E704700380240A0
:106680000004001000700040106C4009009488382D
:10669000003C0240074A08B5536903F00103536107
:1066A00023B1054A13680BB150689847BDE808400C
:1066B000FDF79EBC003C0140E8550020074A08B5A4
:1066C000536903F00203536123B1054A93680BB188
:1066D000D0689847BDE80840FDF78ABC003C0140FF
:1066E000E8550020074A08B5536903F004035361D5
:1066F00023B1054A13690BB150699847BDE80840BA
:10670000FDF776BC003C0140E8550020074A08B57B
:10671000536903F00803536123B1054A93690BB130
:10672000D0699847BDE80840FDF762BC003C0140D5
:10673000E8550020074A08B5536903F01003536178
:1067400023B1054A136A0BB1506A9847BDE8084067
:10675000FDF74EBC003C0140E8550020164B10B53B
:106760005C6904F478725A61A30604D5134A936AEB
:106770000BB1D06A9847600604D5104A136B0BB171
:10678000506B9847210604D50C4A936B0BB1D06B24
:106790009847E20504D5094A136C0BB1506C984731
:1067A000A30504D5054A936C0BB1D06C9847BDE89E
:1067B0001040FDF71DBC00BF003C0140E855002023
:1067C000194B10B55C6904F47C425A61620504D52A
:1067D000164A136D0BB1506D9847230504D5134A23
:1067E000936D0BB1D06D9847E00404D50F4A136E3A
:1067F0000BB1506E9847A10404D50C4A936E0BB1AF
:10680000D06E9847620404D5084A136F0BB1506FDD
:106810009847230404D5054A936F0BB1D06F98476E
:10682000BDE81040FDF7E4BB003C0140E855002006
:1068300008B5FFF765FEBDE80840FDF7D9BB0000CD
:10684000062108B50846FDF7FDFB06210720FDF7E8
:10685000F9FB06210820FDF7F5FB06210920FDF7CD
:10686000F1FB06210A20FDF7EDFB06211720FDF7BD
:10687000E9FB06212820FDF7E5FBBDE808400721DC
:106880001C20FDF7DFBB000008B5FFF74DFE00F050
:106890000BF8FDF78BFDFDF763FCFFF70BFEBDE882
:1068A0000840FFF735BD00000023054A19460133B3
:1068B000102BC2E9001102F10802F8D1704700BFA5
:1068C000E85500200B460146184600F02DB80000A0
:1068D00000F040B8012838BF012010B5044620461A
:1068E00000F030F830B900F007F808B900F00CF803
:1068F0008047F4E710BD0000024B1868BFF35B8FC0
:10690000704700BF6856002008B5062000F084F8E4
:106910000120FEF761FA0000024B0A4601461868A2
:10692000FEF7EABC6823002010B5054C13462CB1D5
:106930000A4601460220AFF3008010BD2046FCE766
:1069400000000000024B01461868FEF7D9BC00BFEA
:1069500068230020024B01461868FEF7D5BC00BF33
:106960006823002010B501390244904201D1002073
:1069700005E0037811F8014FA34201D0181B10BDA8
:106980000130F2E72DE9F041A3B1C91A17780144AB
:10699000044603F1FF3C8C42204601D9002009E067
:1069A0000578BD4204F10104F5D10CEB0405D618BD
:1069B000A54201D1BDE8F08115F8018D16F801ED71
:1069C000F045F5D0E7E700001F2938B504460D462D
:1069D00004D9162303604FF0FF3038BD426C12B16A
:1069E00052F821304BB9204600F030F82A460146D3
:1069F0002046BDE8384000F017B8012B0AD0591CDA
:106A000003D1162303600120E7E7002442F8254064
:106A1000284698470020E0E7024B01461868FFF738
:106A2000D3BF00BF6823002038B5074D00230446BC
:106A3000084611462B60FEF7D3F9431C02D12B68A0
:106A400003B1236038BD00BF6C560020FEF7C2B909
:106A5000034611F8012B03F8012B002AF9D17047E6
:106A60006F72672E6172647570696C6F742E4672F6
:106A70006565666C7952544B0000000053544D33E9
:106A800032463F3F3F3F3F3F0053544D333246373E
:106A90005B347C355D780053544D333246375B367A
:106AA0007C375D780000000040A2E4F16468910644
:106AB0000041A3E5F265699207000000426164208D
:106AC00043414E496661636520696E6465782E00B6
:106AD0008000000000800000000080000000000036
:106AE00000000000F5240008D92C0008392C00080B
:106AF0000525000839250008352700080925000864
:106B0000192500080D250008152500081125000885
:106B10005D2600081D250008A52F00082D2500086A
:106B20003126000800000000DD400008C9400008D0
:106B300005410008F1400008FD400008E940000858
:106B4000D5400008C14000081141000800000000C5
:106B5000010000000000000063300000586B0008D6
:106B6000E04B0020F04D00204172647550696C6F5D
:106B7000740025424F415244252D424C0025534577
:106B80005249414C250000000200000000000000B6
:106B9000F942000865430008400040009052002080
:106BA000A0520020020000000000000003000000CE
:106BB00000000000A94300080000000010000000D1
:106BC000B0520020000000000100000000000000A2
:106BD0005855002001010200D94E0008E94D000877
:106BE000854E0008694E000843000000F06B000865
:106BF00009024300020100C0320904000001020240
:106C000001000524001001052401000104240202F2
:106C10000524060001070582030800FF090401009E
:106C2000020A00000007050102400000070581027A
:106C300040000000120000003C6C0008120110012E
:106C40000200004009124157000201020301000046
:106C50000403090425424F415244250030313233A8
:106C60003435363738394142434445460000000048
:106C70000040000000400000004000000040000014
:106C800000000100000002000000020000000200FD
:106C900000000000FD440008B547000861480008F6
:106CA00040004000D0550020D055002001000000D9
:106CB000E0550020800000004001000005000000B9
:106CC0006D61696E0069646C650000000010806A87
:106CD00000000000AAAAAAAA00000064FFFF0000AA
:106CE0000000000000A00A0000000A0000000000F0
:106CF000AAAAAAAA00000000FFFF000000000000EE
:106D0000990000000040000000000000AAAAAAAA02
:106D100000000020FFFF0000000000000000000055
:106D20000000000000000000AAAAAAAA00000000BB
:106D3000FFFF000000000000000000000000000055
:106D400000000000AAAAAAAA00000000FFFF00009D
:106D50000000000000000000000000000000000033
:106D6000AAAAAAAA00000000FFFF0000000000007D
:106D7000000000000000000000000000AAAAAAAA6B
:106D800000000000FFFF0000000000000000000005
:106D900000000000000000000A00000000000000E9
:106DA00003000000000000000000000000000000E0
:106DB00000000000000000000000000000000000D3
:106DC00000000000000000007894FF7F0100000038
:106DD00004040000000000000000070000000000A4
:106DE00040420F00FE2A0100D2040000FF00000014
:106DF000000000007C6A000849040000896A00085D
:106E000051040000976A0008009600000000080086
:106E1000960000000008000004000000506C00080C
:106E20000000000000000000000000000000000062
:106E300000000000000000006C23002000000000A3
:106E40000000000000000000000000000000000042
:106E50000000000000000000000000000000000032
:106E60000000000000000000000000000000000022
:106E70000000000000000000000000000000000012
:106E80000000000000000000000000000000000002
:0C6E9000000000000000000000000000F6
:00000001FF
