:020000040800F2
:1000000000060020E1010008190E00081D0E00087E
:10001000750E00081D0E0008490E0008E3010008D7
:10002000E3010008E3010008E3010008452100089E
:10003000E3010008E3010008E3010008E301000810
:10004000E3010008E3010008E3010008E301000800
:10005000E3010008E30100082532000851320008DE
:100060007D320008A9320008D5320008E3010008FB
:10007000E3010008E3010008E3010008E3010008D0
:10008000E3010008E3010008E3010008E3010008C0
:10009000E3010008E3010008E30100080133000860
:1000A000E3010008E3010008E3010008E3010008A0
:1000B00099300008E3010008E3010008E3010008AB
:1000C000E3010008E3010008E3010008E301000880
:1000D000E3010008E3010008E3010008E301000870
:1000E00069330008E3010008E3010008E3010008A8
:1000F000E3010008E3010008E3010008E301000850
:10010000E3010008E3010008E3010008E30100083F
:10011000E3010008E3010008E3010008E30100082F
:10012000E3010008E3010008E3010008E30100081F
:10013000E3010008E3010008E3010008E30100080F
:10014000E3010008E3010008E30100088928000832
:10015000E3010008E3010008E3010008E3010008EF
:10016000E3010008E3010008E3010008E3010008DF
:10017000E3010008E3010008E3010008E3010008CF
:10018000E3010008E3010008E3010008E3010008BF
:10019000E3010008E3010008E3010008E3010008AF
:1001A000E3010008E3010008E3010008E30100089F
:1001B000E3010008E3010008E3010008E30100088F
:1001C000E3010008E3010008E3010008E30100087F
:1001D000E3010008E3010008E3010008E30100086F
:1001E00002E000F000F8FEE772B6394880F30888B4
:1001F000384880F3098838484EF60851CEF200019D
:10020000086040F20000CCF200004EF63471CEF2ED
:1002100000010860BFF34F8FBFF36F8F40F2000003
:10022000C0F2F0004EF68851CEF200010860BFF334
:100230004F8FBFF36F8F4FF00000E1EE100A4EF6C4
:100240003C71CEF200010860062080F31488BFF3F1
:100250006F8F01F0D5FF02F07BFE4FF055301F4944
:100260001B4A91423CBF41F8040BFAE71C49194A6A
:1002700091423CBF41F8040BFAE71A491A4A1B4B5A
:100280009A423EBF51F8040B42F8040BF8E70020F5
:100290001749184A91423CBF41F8040BFAE701F0B4
:1002A000B3FF02F0B1FE144C144DAC4203DA54F823
:1002B000041B8847F9E700F041F8114C114DAC429E
:1002C00003DA54F8041B8847F9E701F09BBF0000EC
:1002D000000600200022002000000008000000208E
:1002E0000006002078370008002200202822002085
:1002F00028220020942D0020E0010008E0010008E1
:10030000E0010008E00100082DE9F04F2DED108A12
:10031000C1F80CD0C3689D46BDEC108ABDE8F08FD3
:10032000002383F311882846A047002001F036FB04
:10033000FEE701F0B7FA00DFFEE700001A4B7A2271
:1003400070B500241A700F225C709C70DC701C71F8
:100350005C719C71DC711C725C729A72DC7201F0CF
:10036000C3FE064601F0E8FE054650B90F4B9E421B
:1003700017D001339E4241F2883412BF0546002453
:100380000125002001F0BAFE0DB100F059F800F08F
:1003900017FD00F09FFB204600F0B0F800F050F889
:1003A000F9E70446EDE700BF28220020010007B06E
:1003B00008B500F061FBA0F120035842584108BD88
:1003C00007B5054B02211B88ADF8043001A800F0E9
:1003D00071FB03B05DF804FB4C34000810B520231A
:1003E00083F311881248C3680BB101F073FB00233B
:1003F000104A0F484FF47A7101F01AFB002383F37F
:1004000011880D4C236813B12368013B2360636896
:1004100013B16368013B6360084B1B7833B96368B1
:1004200023B9022000F03AFC3223636010BD00BF04
:1004300034220020DD030008502300204822002041
:1004400010B5254B254953F8042F013200D110BDBA
:100450008B42F8D1224C234B22689A423AD9224B44
:100460009B6803F1006303F580339A4232D2002087
:1004700000F04AFB1D4B0220187000F007FC1C4BDB
:100480001A6C00221A64196E1A66196E596C5A6435
:10049000596E5A665A6E5A6942F080025A615A6918
:1004A00022F080025A615A691A6942F000521A61B8
:1004B0001A6922F000521A611B6972B60D4A0E4B7E
:1004C00013601B682268202181F311889D4683F305
:1004D0000888104710BD00BFFCFF00081C00010881
:1004E00004000108FFFF0008282200204822002005
:1004F0000038024008ED00E0000001082DE9F04F4F
:1005000099B0B94D00902022FF2110A8AC6800F0EE
:10051000F9FBB64A01951378A3B9B5480121C36028
:100520001170202383F31188C3680BB101F0D2FA54
:100530000023B04AAE484FF47A7101F079FA0023F3
:1005400083F31188009BAC4A03B11360AB4B009D51
:10055000029300261E705660B2463746B14601200F
:1005600000F094FB002D00F02582A34B1B68002BAC
:1005700040F0208219B0BDE8F08F0220FFF718FF8D
:10058000002840F01082009B002E08BF1D469C4BA7
:1005900002211B88ADF82C300BA800F08BFADEE7A7
:1005A0004FF47A7000F068FAB0F10008EBDB02203B
:1005B000FFF7FEFE0028E6D008F1FF38B8F1040F7F
:1005C00000F2F381DFE808F0031E2124270018A8B9
:1005D000052340F8343D042100F06CFA012303FAAE
:1005E00008F848EA0A0A5FFA8AFA4FF0000900F0B0
:1005F000DDFB27B10AF00B030B2B08BF0025FFF72B
:10060000DFFEACE704217848E6E704217D48E3E714
:1006100004217D48E0E74FF01C09484600F076FAD7
:1006200009F104090B9004210BA800F043FAB9F179
:100630002C0FF2D1D2E7002FA5D00AF00B030B2B21
:10064000A1D10220FFF7B4FE804600289BD00120F4
:100650006A4E00F059FA0220307000F017FB0027B4
:100660005FFA87FB584600F05FFA054688B15846A6
:1006700000F06AFA01370028F2D146460025634BA4
:1006800002211B88ADF82C300BA800F013FA474666
:1006900065E701230220337000F0EEFA2C46019B3F
:1006A0009B689C4206D2204600F030FA0130E4D12B
:1006B0000434F4E7029B00241C704F4B46465C60F8
:1006C0004746254693E7002F3FF45DAF0AF00B0342
:1006D0000B2B7FF458AF029B0220187000F0D6FA63
:1006E000322000F0C9F9B0F1000BFFF64CAF1BF05F
:1006F00003087FF448AF019B996804EB0B028A4220
:100700003FF641AFBBF5807F3FF63DAF404A0392D5
:10071000D8450FDA4FF47A7000F0AEF904900499DE
:100720000029FFF630AF039A049908F8021008F187
:100730000108ECE7C820FFF73BFE804600283FF4A5
:1007400022AF1F2C11D8C4F120075F4528BF5F4698
:1007500010AB24F003003A462D49184400F0A8FAE3
:100760003A46FF212A4800F0CDFA4FEAAB03DAB24D
:1007700027490393204600F0CDFA074600283FF4AE
:100780007EAF039B04EB830431E70220FFF710FEEA
:1007900000283FF4F8AE00F0FDF900283FF4F3AE76
:1007A0004FF000084346019A9268904532D2B8F162
:1007B0001F0F12D8109A01320FD028F0030218A987
:1007C0000A4452F8202C0B92184604220BA900F080
:1007D00065FB08F104080346E5E74046039300F093
:1007E00095F9039B0B90EFE7282200204C23002073
:1007F00034220020DD03000850230020482200207E
:100800004E3400082C2200203022002050340008F2
:100810004C22002018A8042140F84C3D00F04AF971
:10082000E5E618A8002340F8343D642100F038F9CB
:1008300000287FF4A8AE0220FFF7BAFD00283FF49D
:10084000A2AE0B9800F092F918AB43F8480D0421C2
:100850001846E3E718A8002340F8343D642100F06F
:100860001FF900287FF48FAE0220FFF7A1FD0028BA
:100870003FF489AE0B9800F087F918AB43F8440DAC
:10088000E5E70220FFF794FD00283FF47CAE00F07E
:1008900091F918AB43F8400DD9E70220FFF788FD26
:1008A00000283FF470AE0BA9142000F089F98046AF
:1008B00018A8042140F83C8D00F0FCF841460BA834
:1008C000ACE7322000F0D8F8B0F10008FFF65BAEDC
:1008D00018F0030F7FF457AE019A926808EB0903F2
:1008E00093423FF650AE0220FFF762FD00283FF42E
:1008F0004AAE28F00308C844C1453FF478AE4846E4
:1009000000F004F904210A900AA800F0D3F809F1D4
:100910000409F1E74FF47A70FFF74AFD00283FF42D
:1009200032AE00F037F9002842D0109B01330BD0D3
:10093000082210A9002000F0EDF9002838D020226C
:10094000FF2110A800F0DEF9FFF73AFD364801F06C
:100950002BF80FE6002F3FF416AE0AF00B030B2B1B
:100960007FF411AE18A8002340F8343D642100F054
:1009700097F8804600287FF406AE0220FFF718FDA6
:1009800000283FF400AE0390FFF71AFD41F28830D3
:1009900001F00AF80B9800F03DFA00F007FA039B0B
:1009A00045461F46DBE5074621E64FF00009EAE52C
:1009B000B84664E6002000F05FF80490049B002B2A
:1009C000FFF6D0AD012000F057F9049B213B122B1C
:1009D0003FF6C5AD01A252F823F000BF7B05000829
:1009E000A1050008370600085F0500085F0500083C
:1009F0005F050008C7060008C30800088B07000849
:100A00002308000855080008830800085F0500084F
:100A10009B0800085F05000815090008EF0500089D
:100A20005F05000855090008A086010070B50F4B4E
:100A30000C4619780131C9B2012906460FD80C4875
:100A400003681D6A4FF47A73534331462246A84720
:100A5000844204D1074B00221A70012070BD4FF46C
:100A6000FA7000F0A1FF002070BD00BF002200203E
:100A7000C02500208423002007B502AB002203F824
:100A8000012D012102461846FFF7D0FF20B19DF845
:100A9000070003B05DF804FB4FF0FF30F9E70000FA
:100AA0000A4608B50421FFF7C1FF80F00100C0B27B
:100AB000404208BD30B4054C2368DD69044B0A464A
:100AC000AC460146204630BC604700BFC025002030
:100AD000A086010070B501F00BFA094C094E208088
:100AE000002530682388834208D901F0FBF9336878
:100AF00005440133B5F5803F3360F2D370BD00BFCC
:100B0000862300205823002001F0A0BA00F10060E5
:100B100000F580300068704700F10060920000F539
:100B2000803001F02BBA0000054B1A68054B1B887A
:100B30009B1A834202D9104401F0D4B900207047B7
:100B4000582300208623002038B5074D0446286826
:100B5000204401F0CFF928B928682044BDE8384086
:100B600001F0E0B938BD00BF5823002010F00303A6
:100B700008D1B0F5047F05D200F10050A0F508407F
:100B80000068704700207047014BC058704700BF95
:100B9000107AFF1F064991F8243033B10023082250
:100BA000086A81F82430FFF7B7BF0120704700BF03
:100BB0005C230020014B1868704700BF002004E050
:100BC00070B52A4B1C68C4F30B03240C63B140F2CC
:100BD0001342934231D040F2194293422FD040F257
:100BE000214293422DD10323214A0C2505FB0323E7
:100BF0005D6893F9082042F201039C4224D0B4F5C9
:100C0000805F23D041F201039C4221D041F20303D3
:100C10009C421FD041F207039C4208BF3122441E70
:100C20000C44013D0B46A3421ED215F9016F581C1E
:100C300096B1034600F8016CF5E70123D4E70223DF
:100C4000D2E73F220B4DD6E73322E3E74122E1E72B
:100C50005A22E4E75922E2E72C2584421D7001D98B
:100C6000981C5A70401A70BD1846FBE7002004E03B
:100C70006034000854340008022802BF024B4FF4CD
:100C800000129A61704700BF00040240022802BFB0
:100C9000014B20229A61704700040240022801BFE4
:100CA000024A536983F020035361704700040240F5
:100CB00010B50023934203D0CC5CC4540133F9E750
:100CC00010BD000030B5441E14F9010F0B4660B191
:100CD00093F90050854201F1010106D11AB993F947
:100CE0000020801A30BD013AEEE7002AF7D1104605
:100CF00030BD000002460346981A13F9011B002973
:100D0000FAD1704702440346934202D003F8011B14
:100D1000FAE770472DE9F047234C94F82430054654
:100D20008846174683BB2E46DFF87C90C7B394F8FD
:100D300024302BB92022FF2148462662FFF7E2FF2C
:100D400094F82400C0F10805BD4228BF3D465FFA73
:100D500085FAAD0041462A4604EB8000FFF7A8FF64
:100D600094F82430A7EB0A079A445FFA8AFABAF19A
:100D7000080F2E44A844FFB284F824A0D6D1FFF770
:100D800009FF0028D2D108E0266A06EB8306B042AC
:100D9000CAD0FFF7FFFE0028C5D10020BDE8F087CC
:100DA0000120BDE8F08700BF5C230020024B1A78C9
:100DB000024B1A70704700BF8423002000220020DD
:100DC00038B5104D104C284600F004F9214628464D
:100DD00000F02CF924680D48626DD2F8043843F015
:100DE0000203C2F8043800F0DFFD0949204600F094
:100DF00029FA626DD2F8043823F00203C2F80438ED
:100E000038BD00BFC02500205435000840420F0007
:100E10007C35000870470000FEE7000000B59BB07D
:100E2000EFF3098168226846FFF742FFEFF305837D
:100E3000044B9A6BDA6A9A6A9A6A9A6A9A6A9A6A06
:100E40009B6AFEE700ED00E000B59BB0EFF309817F
:100E500068226846FFF72CFFEFF30583044B9A6B7B
:100E60009A6A9A6A9A6A9A6A9A6A9B6AFEE700BFC5
:100E700000ED00E000B59BB0EFF309816822684601
:100E8000FFF716FFEFF30583034B5A6B9A6A9A6AD2
:100E90009A6A9A6A9B6AFEE700ED00E030B5084D59
:100EA0000A4491420BD011F8013B09245840013CFF
:100EB000F7D040F300032B4083EA5000F7E730BD42
:100EC0002083B8ED002304491A465A50C818083345
:100ED000802B4260F9D17047882300200268436864
:100EE0001143016003B118477047000013B5446B0C
:100EF000D4F894341A681178042915D1217C022978
:100F000012D11979128901238B4013420CD101A906
:100F100004F14C0001F020FFD4F89444019B2179A6
:100F20000246206800F0DAF902B010BD143001F07A
:100F3000A3BE00004FF0FF33143001F09DBE00004F
:100F40004C3001F075BF00004FF0FF334C3001F022
:100F50006FBF0000143001F071BE00004FF0FF3190
:100F6000143001F06BBE00004C3001F041BF0000B6
:100F70004FF0FF324C3001F03BBF0000D0F894241A
:100F800038B5136819780429054601D0012038BD09
:100F9000017C0229FAD112795C8901209040044039
:100FA000F4D105F1140001F003FE02460028EDD053
:100FB000D5F894544FF480732868697900F07CF96F
:100FC000204638BD406BFFF7D9BF000000207047B6
:100FD000704700007FB5124B0360002343608360BD
:100FE000C360012502260F4B05740446029001934D
:100FF00000F18402294600964FF48073143001F00A
:10100000B3FD094B0193029400964FF4807304F5ED
:101010002372294604F14C0001F07AFE04B070BD41
:10102000B0340008C50F0008ED0E00080B68202240
:1010300082F311880A7903EB820290614A790932BE
:1010400043F822008A7912B103EB820398610223EC
:101050000374C0F89414002383F3118870470000D0
:1010600038B5037F044613B190F85430ABB9201D56
:1010700001250221FFF732FF04F1140025776FF0FC
:10108000010100F0B9FC84F8545004F14C006FF0F9
:101090000101BDE8384000F0AFBC38BD10B50121FA
:1010A00004460430FFF71AFF0023237784F85430F6
:1010B00010BD000038B504460025143001F06CFD69
:1010C00004F14C00257701F03BFE201D84F85450BC
:1010D0000121FFF703FF2046BDE83840FFF74EBF70
:1010E00090F8443003F06003202B19D190F845208C
:1010F000212A0AD0222A4FF000030ED0202A0FD135
:10110000084A82630722C26304E0064B8363072315
:10111000C36300230364012070478363C363F9E75B
:101120000020704701220020D0F8943437B51A68A7
:101130001178042904461AD1017C022917D11979A2
:10114000128901238B40134211D100F14C0528462E
:1011500001F0B6FE58B101A9284601F0FDFDD4F812
:101160009444019B21790246206800F0B7F803B04F
:1011700030BD000000EB8103F7B59C6905460E46C3
:10118000F4B1202383F3118805EB8607201D082185
:10119000FFF7A4FEFB685B691B684C3413B1204663
:1011A00001F0E8FD01A9204601F0D6FD024648B154
:1011B000019B3146284600F091F8002383F3118803
:1011C00003B0F0BDFB685A691268002AF5D01B8A8B
:1011D000013B1340F1D105F14402EAE7093138B58A
:1011E00050F82140DCB1202383F31188D4F89424F3
:1011F0001368527903EB8203DB689B695D6845B134
:1012000004216018FFF76AFE294604F1140001F07A
:10121000D9FC2046FFF7B2FE002383F3118838BDC6
:101220007047000001F082B801230370002343607F
:10123000C36183620362C3624362036303814381C8
:101240007047000038B50446202383F31188002539
:101250004160C56005614561856101F077F8022351
:10126000237085F3118838BD70B500EB8103054606
:101270005069DA600E46144618B110220021FFF7BB
:1012800041FDA06918B110220021FFF73BFD314656
:101290002846BDE8704001F023B90000028902F041
:1012A00001020281428902F00102428100220261B0
:1012B0004261826101F0A8B9F0B400EB8104478972
:1012C000E4680125A4698D403D43458123600023E6
:1012D000A2606360F0BC01F0C3B90000F0B400EBA1
:1012E00081040789E468012564698D403D430581D7
:1012F00023600023A2606360F0BC01F03DBA0000EF
:1013000070B50223002504460370A0F84C5080F805
:101310004E5080F84F5005814581C560056145619B
:10132000856180F8345001F077F863681B6823B159
:1013300029462046BDE87040184770BD037880F804
:1013400050300523037043681B6810B504460BB189
:101350000421984700232381638110BD436890F8DE
:1013600050201B6802700BB1052118477047000020
:1013700090F8343070B5044613B1002380F834304F
:1013800004F14402204601F061F963689B6863BB85
:1013900094F8445015F0600615D194F8453005F0E6
:1013A0007F0545EA032540F202339D4200F00E819D
:1013B0005BD8022D00F0DC803FD8002D00F0878044
:1013C000012D00F0CF800021204601F099FB002183
:1013D000204601F08BFB63681B6813B10621204691
:1013E0009847062384F8343070BD2046984700287B
:1013F000CED094F84B2094F84A3043EA0223E26BB3
:10140000934238BFE36394F94430E56B002B4FF00F
:10141000200380F2FD80002D00F0EC80092284F88A
:10142000342083F311880021E36BA26B2046FFF781
:1014300055FF002383F3118870BDB5F5817F00F05F
:10144000B180B5F5407F49D0B5F5807FBBD194F828
:101450004630012BB7D1B4F84C3023F00203A4F886
:101460004C30A663E6632664C3E740F201639D4205
:101470001ED8B5F5C06F3BD2B5F5A06FA3D1B4F8B7
:101480004430B3F5A06F0ED194F8463084F84E3056
:10149000204601F019F863681B6813B1012120464A
:1014A0009847032323700023A363E3632364A0E727
:1014B000B5F5106F32D040F602439D4252D0B5F5DB
:1014C000006F80D104F14F03A363012324E004F1F2
:1014D0004C03A3630223E36325648AE794F8463050
:1014E000012B7FF470AFB4F84C3043F00203B6E741
:1014F00094F84920616894F848304D6894F8471092
:1015000043EA0223204694F84620A84700283FF4E7
:101510005AAF4368A3630368E363A4E72378042B0B
:1015200010D1202383F311882046FFF7B7FE86F3FE
:101530001188636884F84F601B68032121700BB128
:101540002046984794F84630002BACD084F84F30B2
:101550000423237063681B68002BA4D0022120465B
:101560009847A0E7374BA3630223E36300239DE77B
:1015700094F8481011F0800F204601F00F010ED0B2
:1015800001F056F8012806D002287FF41CAF2E4B3C
:10159000A363E06367E72D4BA363E56363E701F0B3
:1015A00039F8EFE794F84630002B7FF40CAF94F84D
:1015B000483013F00F013FF476AF1A06204602D5EB
:1015C00001F0B2FA6FE701F0A5FA6CE794F8463043
:1015D000002B7FF4F8AE94F8483013F00F013FF47D
:1015E00062AF1B06204602D501F08AFA5BE701F0E4
:1015F0007DFA58E7142284F8342083F311882B46AF
:101600002A4629462046FFF757FE85F3118870BD0C
:101610005DB1152284F8342083F311880021E36B37
:10162000A26B2046FFF748FE03E70B2284F8342024
:1016300083F311882B462A4629462046FFF74EFEA3
:10164000E3E700BFE0340008D8340008DC340008C9
:1016500038B590F834300446152B29D8DFE803F06C
:101660003E28282828283E28280B293928282828D9
:10167000282828283E3E90F84B1090F84A20C36B4B
:1016800042EA01229A4214D9C268128AB3FBF2F5E7
:1016900002FB15356DB9202383F311882B462A46AA
:1016A0002946FFF71BFE85F311880A2384F834309E
:1016B00038BD142384F83430202383F311880023A9
:1016C0001A4619462046FFF7F7FD002383F31188D9
:1016D00038BD036C03B198470023E7E7002101F010
:1016E0000FFA0021204601F001FA63681B6813B16C
:1016F0000621204698470623D8E7000090F83420BA
:10170000152A38B5044622D80123934040F6416299
:1017100013421DD113F480150FD19B0217D50B2353
:1017200080F83430202383F311882B462A4629463B
:10173000FFF7D4FD85F3118838BDC3689B695B68EA
:101740002BB9036C03B19847002384F8343038BDBB
:10175000002101F0D5F90021204601F0C7F96368A6
:101760001B6813B10621204698470623EDE70000C9
:10177000024B00221B605B609A60704708240020C7
:10178000002303748268054B1B6899689142FBD261
:101790005A68036042601060586070470824002057
:1017A00008B5202383F31188037C032B05D0042B79
:1017B0000DD02BB983F3118808BD436900221A604C
:1017C0004FF0FF334361FFF7DBFF0023F2E790E8C0
:1017D0000C001A6002685360F2E7000000230374F3
:1017E0008268054B1B6899689142FBD85A68036070
:1017F000426010605860704708240020054B19694A
:101800000874186802681A60536018610123037431
:10181000FEF77ABD0824002030B54B1C87B0054682
:101820000A4C10D023690A4A01A800F001F92846A1
:10183000FFF7E4FF049B13B101A800F04BF9236903
:10184000586907B030BDFFF7D9FFF8E7082400203A
:10185000A117000838B50C4D41612B6981689A6861
:101860009142044603D8BDE83840FFF789BF1846C7
:10187000FFF7B4FF01232C61014623742046BDE825
:101880003840FEF741BD00BF08240020044B1A6811
:101890001B6990689B68984294BF002001207047A4
:1018A0000824002010B5084C236820691A682260BB
:1018B0005460012223611A74FFF790FF01462069EA
:1018C000BDE81040FEF720BD08240020FEE7000020
:1018D00010B50C4CFFF74CFF00F09CF880220A4931
:1018E000204600F021F8012344F8180C037400F09E
:1018F00039FC002383F3118862B60448BDE8104028
:1019000000F034B830240020E4340008EC3400083F
:1019100000F01AB9034B59685A68521A9042FBD822
:10192000704700BF001000E08260022202740022B3
:10193000427470478368A3F17C0243F80C2C02695F
:1019400043F83C2C426943F8382C074A43F81C2CD6
:10195000C26843F8102C022203F8082C002203F876
:10196000072CA3F1180070472103000810B52023AD
:1019700083F31188FFF7DEFF00210446FFF76AFFBB
:10198000002383F31188204610BD0000024B1B6921
:1019900058610F20FFF732BF08240020202383F373
:1019A0001188FFF7F3BF000008B50146202383F339
:1019B00011880820FFF730FF002383F3118808BD4A
:1019C00049B1064B42681B6918605A601360436056
:1019D0000420FFF721BF4FF0FF307047082400209C
:1019E0000368984206D01A68026050605961184630
:1019F000FFF7C6BE7047000038B504460D462068A4
:101A0000844200D138BD036823605C604561FFF704
:101A1000B7FEF4E7054B03F114025A619A614FF0E7
:101A2000FF32DA6100221A62704700BF08240020EA
:101A3000F8B5274F0361C2600D46044601F074FA01
:101A40003B46022D53F8142F294638BF02219A42F3
:101A50003E461D460AD138627C61BC610844226062
:101A60006260A160BDE8F84001F04CBAD7F820E010
:101A7000A0EB0E035F181FD300279068834217D88E
:101A8000376AAA421F44376201D0C01A9060736956
:101A90009A68914219D85A682360626014605C6049
:101AA000A1609868411A99604FF0FF33F361F8BD67
:101AB00097601B1A1268E0E793689F4203D20EEB0F
:101AC000070001F02DFA3946E1E7891A1B68DFE7C4
:101AD0000824002038B51B4B01685A6990421D4606
:101AE00003F114020CD04468216003680021934282
:101AF0005C60C16025D09A6881680A449A6038BDEC
:101B000059614A605B6900219342C16003D1BDE81D
:101B1000384001F0FFB99A6881680A449A602C6ADB
:101B200001F002FA6A699268001B824209D9111A0F
:101B3000012998BF821C286ABDE83840104401F092
:101B4000EFB938BD082400202DE9F84F204C0027BC
:101B5000656904F11406B84601F0E6F9236AA0EBC2
:101B6000030AAB6853451DD84FF02009236AAA68C1
:101B7000D5F80CB013442362AB68AAEB030A2B68B8
:101B8000B3425E606361EF6001D101F0C3F988F395
:101B900011882869D84789F311886569AB689A4527
:101BA000E4D2D9E76369B34210D020629A68A2EB0D
:101BB0000A029A60226AAB68821A9B1A022B2CBF17
:101BC000C0180230BDE8F84F01F0AAB9BDE8F88F9F
:101BD0000824002000207047FEE700007047000046
:101BE0004FF0FF3070470000022906D0032906D0CD
:101BF0000129064818BF0020704705487047032A8E
:101C00009ABF044800EBC20000207047D835000896
:101C10008C3500080822002070B59AB001AD064648
:101C200008462946144600F095F82846FFF762F862
:101C3000C0B2431C5B0086E8180023700323637066
:101C4000002302341946DAB2904204F1020401D8AA
:101C50001AB070BDEA5C04F8022C04F8011C0133D0
:101C6000F1E7000008B5202383F311880348FFF74C
:101C70005BFA002383F3118808BD00BFC025002054
:101C800010B50446052916D8DFE801F0161503162D
:101C9000161D202383F311880E4A0121FFF7E4FA71
:101CA00020460D4A0221FFF7DFFA0C48FFF702FA3F
:101CB000002383F3118810BD202383F31188074884
:101CC000FFF7CEF9F4E7202383F311880348FFF7E9
:101CD000E5F9EDE70C35000830350008C025002097
:101CE00038B50C4D0C4C0D492A4604F10800FFF79D
:101CF00093FF05F1CA0204F110000949FFF78CFFB8
:101D000005F5CA7204F118000649BDE83840FFF72E
:101D100083BF00BF882A0020082200205C3500080D
:101D2000663500087135000870B5044608460D4652
:101D3000FEF7E0FFC6B22046013403780BB918461F
:101D400070BD32462946FEF7BDFF0028F3D10120C1
:101D500070BD00002DE9F84F05460C46FEF7CAFF9E
:101D60002A49C6B22846FFF7DFFF08B10136F6B2AE
:101D700027492846FFF7D8FF08B11036F6B2632E80
:101D80000DD8DFF88890DFF888A0224FDFF88CB0FC
:101D9000DFF88C802E7846B92670BDE8F88F29468A
:101DA0002046BDE8F84F01F049BB252E29D1072276
:101DB00049462846FEF786FF40B9D8F80030236030
:101DC000D8F80430636007350834E3E70822514649
:101DD0002846FEF777FFA0B90F4BA21C13F8011F8E
:101DE00009095B45C95D02F8021C197801F00F0171
:101DF00002F10202C95D02F8031CEFD11834083564
:101E0000C8E7267001350134C4E700BFF835000883
:101E100071350008093600080F7AFF1F1B7AFF1F73
:101E200000360008BFF34F8F024AD368DB03FCD4AF
:101E3000704700BF003C024008B5094B1B7873B9DE
:101E4000FFF7F0FF074B1A69002ABFBF064A5A6026
:101E500002F188325A601A6822F480621A6008BD62
:101E6000E62C0020003C02402301674508B50B4BDF
:101E70001B7893B9FFF7D6FF094B1A6942F000426D
:101E80001A611A6842F480521A601A6822F4805269
:101E90001A601A6842F480621A6008BDE62C0020BD
:101EA000003C02400B2870B513D80B4A0B4C13783A
:101EB00063B90B4E4FF0006144F8231056F82350DD
:101EC00001330C2B2944F7D10123137054F820005F
:101ED00070BD002070BD00BF182D0020E82C002030
:101EE0001C360008014B53F8200070471C360008D0
:101EF0000C2070470B2810B5044601D9002010BDF6
:101F0000FFF7D0FF064B53F824301844C21A0BB920
:101F1000012010BD12680132F0D1043BF6E700BF8A
:101F20001C3600080B2810B5044621D8FFF77AFFAD
:101F3000FFF782FF0F4AF323D360C300DBB243F401
:101F4000007343F002031361136943F48033136198
:101F5000FFF768FFFFF7A6FF074B53F8241000F0C8
:101F6000DDF8FFF783FF2046BDE81040FFF7C2BF52
:101F7000002010BD003C02401C3600082DE9F8434B
:101F800012F00103154640D18218B2F1016F3CD224
:101F90002C4B1B6813F0010337D02B4CFFF74CFF81
:101FA000F323E360FFF73EFF40F20127032D01D941
:101FB000830713D0244C0F46401A40F20118EB1B44
:101FC0000B44012B00EB0706236924D823F00103FF
:101FD0002361FFF74BFF0120BDE8F883236923F459
:101FE0004073236123693B43236151F8046B06600E
:101FF000BFF34F8FFFF716FF03689E4208D0236997
:1020000023F001032361FFF731FF0020BDE8F883CF
:10201000043D0430CAE723F440732361236943EA93
:1020200008032361B94637F8023B3380BFF34F8F73
:10203000FFF7F8FE3688B9F80030B6B2B342BED02A
:10204000DDE700BF00380240003C0240084908B507
:102050000B7828B153B9FFF7EFFE01230B7008BDD1
:1020600023B1BDE808400870FFF700BF08BD00BFFE
:10207000E62C002010B50244064B0439D2B290423F
:1020800000D110BD441C00B253F8200041F8040FE9
:10209000E0B2F4E750280040104B30B51C6F240428
:1020A00007D41C6F44F400741C671C6F44F4004494
:1020B0001C670B4C236843F4807323600244094B74
:1020C0000439D2B2904200D130BD441C00B251F864
:1020D000045F43F82050E0B2F4E700BF003802404C
:1020E000007000405028004007B5012201A90020DF
:1020F000FFF7C0FF019803B05DF804FB13B5044679
:10210000FFF7F2FFA04206D002A9012241F8044DD8
:102110000020FFF7C1FF02B010BD000070470000B3
:10212000034B1B689B0042BF024B01221A70704791
:1021300074380240192D0020014B1878704700BFF9
:10214000192D0020EFF3098305494A6822F00102A6
:102150004A60683383F30988002383F3118870474A
:1021600030EF00E0202080F3118862B60B4B0C4A60
:10217000D96821F4E0610904090C0A430949DA60CD
:10218000CA6842F08072CA6007490A6842F00102D8
:102190000A601022DA7783F82200704700ED00E031
:1021A0000003FA05F0ED00E0001000E010B5202378
:1021B00083F311880E4B5B6813F4006314D0F1EEC7
:1021C000103AEFF30984683C4FF08073E361094BE8
:1021D000DB68236684F30988FFF758FB10B1064BD0
:1021E000A36110BD054BFBE783F3118810BD00BF51
:1021F00000ED00E030EF00E0330300083603000894
:1022000070470000FEE70000084A094B09498B426D
:1022100004D3094A0021934205D3704752F8040FB2
:1022200043F8040BF3E743F8041BF4E79C3700087A
:10223000942D0020942D0020942D0020836D70B5E6
:10224000446D9E6800214FF0FF354A01A31801310B
:10225000D3F800090028BEBFD3F8000940F0804041
:10226000C3F80009D3F8000B0028BEBFD3F8000B59
:1022700040F08040C3F8000BA3188E42C3F8085901
:10228000C3F8085BE1D24FF00113C4F81C3870BDED
:10229000890141F02001016103699B06FCD41220F1
:1022A000FFF738BB204B03EB80022DE9F047D2F853
:1022B0000CE05D6DDEF81420461CD2F800C005EB82
:1022C000063605EB4018516861450BD3D5F8342824
:1022D000012303FA00F022EA0000C5F8340818468A
:1022E000BDE8F087BEF81040ACEB0103A34228BF65
:1022F0002346D8F81849A4B2B3EB840F10D89468D9
:102300001F46A4F1040959F804AFC6F800A0042F31
:1023100001D9043FF7E71C440B4494605360D2E7B3
:102320000020BDE8F08700BF1C2D002010B5054C33
:102330002046FEF779FF4FF0A0436365024BA3658B
:1023400010BD00BF1C2D0020703600080378012B43
:1023500070B5054650D12A4B446D98421BD1294B8C
:102360005A6B42F080025A635A6D42F080025A65FD
:102370005A6D5A6942F080025A615A6922F080020D
:102380005A610E2143205B6900F0D8FB1E4BE360CD
:102390001E4BC4F800380023C4F8003EC02323605D
:1023A0006E6D4FF40413A3633369002BFCDA012331
:1023B00033610C20FFF7AEFA3369DB07FCD412203F
:1023C000FFF7A8FA3369002BFCDA0026A66028463E
:1023D000FFF734FF6B68C4F81068DB68C4F8146852
:1023E000C4F81C684BB90A4BA3614FF0FF3363611B
:1023F000A36843F00103A36070BD064BF4E700BF80
:102400001C2D002000380240401400400300200230
:10241000003C30C0083C30C0F8B5446D0546002192
:102420002046FFF735FFA96D00234FF001128F689A
:10243000C4F834384FF00066C4F81C284FF0FF3061
:1024400004EB431201339F42C2F80069C2F8006BEB
:10245000C2F80809C2F8080BF2D20B686A6DEB6586
:10246000636210231361166916F01006FBD1122067
:10247000FFF750FAD4F8003823F4FE63C4F80038AC
:10248000A36943F4402343F01003A3610923C4F874
:102490001038C4F814380A4BEB604FF0C043C4F84E
:1024A000103B084BC4F8003BC4F81069C4F800396D
:1024B000EB6D03F1100243F48013EA65A362F8BDEB
:1024C0004C36000840800010426D90F84E10D2F853
:1024D000003823F4FE6343EA0113C2F80038704762
:1024E0002DE9F0410EB200EB86080D46D8F80C102D
:1024F0000F6807F00303022B50D0032B50D03D4A46
:102500003D4F012B18BF1746446D4FEA451E04EBA3
:102510000E030022C3F8102B8A6905F1100C002A63
:1025200040D04A8A05F158035B013A43E250012347
:10253000D4F81C2803FA0CF31343A6444A69C4F8E0
:102540001C380023CEF8103905F13F03002A39D09A
:102550000A8A898B9208012988BF4A43C16D04EB1E
:102560008303561841EA0242C66529465A6020464E
:10257000FFF78EFED8F80C301B8A43EA85531F43C1
:1025800005F148035B01E7500123D4F81C2803FA46
:1025900005F51543C4F81C58BDE8F081174FB3E7A3
:1025A000174FB1E704EB4613D3F8002B22F4004297
:1025B000C3F8002BD4F81C28012303FA0CF322EAF9
:1025C0000303BAE704EB83030E4A5A6004EB461692
:1025D00029462046FFF75CFED6F8003923F4004375
:1025E000C6F80039D4F81C38012202FA05F523EAAE
:1025F0000505CFE70080001000800410008008105F
:1026000000800C1000040002826D1268C265FFF7A2
:1026100015BE00005831436D49015B5813F400406A
:1026200004D013F4001F14BF0120022070470000E3
:102630004831436D49015B5813F4004004D013F452
:10264000001F14BF012002207047000000EB810131
:10265000CB68196A0B6813604B68536070470000C1
:1026600000EB810330B5DD68AA691368D36019B93E
:10267000402B84BF402313606B8A1468426D1C4456
:10268000013CB4FBF3F46343033323F0030302EB95
:10269000411043EAC44343F0C043C0F8103B2B68E9
:1026A00003F00303012B09B20ED1D2F8083802EB74
:1026B000411013F4807FD0F8003B14BF43F08053E7
:1026C00043F00053C0F8003B02EB4112D2F8003B4C
:1026D00043F00443C2F8003B30BD00002DE9F04157
:1026E000244D6E6D06EB40130446D3F8087BC3F807
:1026F000087B38070AD5D6F81438190706D505EB34
:1027000084032146DB6828465B689847FA072FD583
:10271000D6F81438DB072BD505EB8403D968CCB980
:102720008B69488A5E68B6FBF0F200FB12628AB9D8
:102730001868DA6890420DD2121A83E81400202338
:1027400083F311880B482146FFF78AFF84F3118831
:10275000BDE8F081012303FA04F26B8923EA020346
:102760006B81CB6823B121460248BDE8F041184790
:10277000BDE8F0811C2D002000EB810370B5DD6801
:10278000436D6C692668E6604A0156BB1A444FF4F3
:102790000020C2F810092A6802F00302012A0AB2D6
:1027A0000ED1D3F8080803EB421410F4807FD4F85C
:1027B000000914BF40F0805040F00050C4F80009F8
:1027C00003EB4212D2F8000940F00440C2F80009BD
:1027D000D3F83408012202FA01F10143C3F8341896
:1027E00070BD19B9402E84BF4020206020682E8A19
:1027F000841940F00050013C1A44B4FBF6F440EA5E
:10280000C440C6E7F8B504461E48456D05EB4413C1
:10281000D3F80869C3F80869F10717D5D5F8103857
:10282000DA0713D500EB8403D9684B691F68DA68AF
:10283000974218D2D21B00271A605F60202383F3CF
:1028400011882146FFF798FF87F31188330617D5C3
:10285000D5F834280123A340134211D02046BDE807
:10286000F840FFF71FBD012303FA04F2038923EAAE
:10287000020303818B68002BE8D021469847E5E7E7
:10288000F8BD00BF1C2D002097482DE9F84F456D7D
:102890006E69AB691E4016F4805F6E61044605D018
:1028A000FEF72EFDBDE8F84FFFF780BC002E12DAD0
:1028B000D5F8003E8C489B071EBFD5F8003E23F09C
:1028C0000303C5F8003ED5F8043823F00103C5F82A
:1028D0000438FEF743FD370505D58348FFF7AEFC06
:1028E0008148FEF72BFDB0040CD5D5F8083813F05D
:1028F000060FEB6823F470530CBF43F4105343F4FA
:10290000A053EB60310704D56368DB680BB17648F0
:102910009847F2025AD4B3020CD5D4F85480DFF8A9
:10292000C8A100274FF00109A36D9B68F9B28B4243
:1029300080F08780F70619D5616D0A6AC2F30A171D
:1029400002F00F0302F4F012B2F5802F00F0A18024
:10295000B2F5402F0AD104EB830301F58051DB6807
:10296000186A00231A469F4240F087803003D5F84A
:10297000184813D5E10302D50020FFF7AFFEA203EC
:1029800002D50120FFF7AAFE630302D50220FFF75C
:10299000A5FE270302D50320FFF7A0FE750381D50E
:1029A000E00702D50020FFF72DFFA10702D5012087
:1029B000FFF728FF620702D50220FFF723FF230756
:1029C0007FF570AF0320FFF71DFF6BE7D4F854804D
:1029D000DFF814A100274FF00109A36D9B685FFA8F
:1029E00087FB5B4597D308EB4B13D3F8002902F420
:1029F0004022B2F5802F22D1D3F80029002A1EDA16
:102A0000D3F8002942F09042C3F80029D3F80029F6
:102A1000002AFBDB5946606DFFF73AFC228909FA70
:102A20000BF322EA0303238104EB8B03DB689B682F
:102A300013B15946504698475846FFF733FC0137C3
:102A4000CBE708EB4112D2F8003B03F44023B3F587
:102A5000802F10D1D2F8003B002B0CDA628909FAE2
:102A600001F322EA0303638104EB8103DB68DB6883
:102A70000BB150469847013756E79C0708BF0A68D4
:102A8000072B98BF027003F101039CBF120A0130AB
:102A900069E7023304EB830201F5805152689069C3
:102AA0000268D0F808C04068A2EB000E0022104671
:102AB00097420AD104EB830463689B699A683A449D
:102AC0009A605A6817445F6050E712F0030F08BF1E
:102AD0000868964588BF8CF8000002F1010284BFA7
:102AE000000A0CF1010CE3E71C2D0020436D03EB01
:102AF0004111D1F8003B43F40013C1F8003B70478B
:102B0000436D03EB4111D1F8003943F40013C1F8D0
:102B100000397047436D03EB4111D1F8003B23F4BA
:102B20000013C1F8003B7047436D03EB4111D1F82E
:102B3000003923F40013C1F80039704700F16043F5
:102B400000F01F02400903F5614309018000C9B28A
:102B500000F1604083F8001300F5614001239340C9
:102B6000C0F880310360704730B5039C01720433B4
:102B700004FB0325C361049B03630021059B0060E4
:102B80004060C160426102618561046242628162AB
:102B9000C162436330BD00000022416A41610161AE
:102BA000C2608262C2626FF00101FEF725BF0000C1
:102BB00003694269934203D1C2680AB10020704799
:102BC000181D704703691960C2680132C260C2698A
:102BD000134482690361934224BF436A0361002165
:102BE000FEF7FEBE38B504460D46E3683BB16269A8
:102BF000131D1268A3621344E362002038BD237AD8
:102C000033B929462046FEF7DBFE0028EDDA38BD51
:102C10006FF00100FBE70000C368C269013BC360BD
:102C20004369134482694361934224BF436A436109
:102C300000238362036B03B11847704770B52023EC
:102C4000044683F31188866A3EB9FFF7CBFF054639
:102C500018B186F31188284670BDA36AE26A13F89A
:102C6000015BA362934202D32046FFF7D5FF002306
:102C700083F31188EFE700002DE9F84F04460E4674
:102C800090469946202787F311880025AA46D4F854
:102C900028B0BBF1000F09D149462046FFF7A2FF3B
:102CA00020B18BF311882846BDE8F88FA16AE36A4A
:102CB000A8EB050B5B1A9B4528BF9B46BBF1400F59
:102CC0001BD9334601F1400251F8040B43F8040BC1
:102CD0009142F9D1A36A40334036A3624035A26ADB
:102CE000E36A9A4202D32046FFF796FF8AF31188DF
:102CF0004545D8D287F31188C9E730465A46FDF7D3
:102D0000D7FFA36A5B445E44A3625D44E7E700002B
:102D100010B5029C0172043303FB0421C36100233C
:102D20008362C362039B0363049B00604060C460D2
:102D300042610261816104624262436310BD00002E
:102D4000026AC260426A4261026100228262C26219
:102D50006FF00101FEF750BE436902699A4203D148
:102D6000C2680AB100207047184650F8043B0B6057
:102D700070470000C368C2690133C36043691344EC
:102D800082694361934224BF436A43610021FEF795
:102D900027BE000038B504460D46E3683BB1236901
:102DA0001A1DA262E2691344E362002038BD237A4F
:102DB00033B929462046FEF703FE0028EDDA38BD78
:102DC0006FF00100FBE7000003691960C268013A77
:102DD000C260C269134482690361934224BF436A9B
:102DE000036100238362036B03B11847704700003F
:102DF00070B5202304460E4683F31188856A35B9E1
:102E00001146FFF7C7FF10B185F3118870BDA36AA3
:102E10001E70A36AE26A01339342A36204D3E1699C
:102E200020460439FFF7D0FF002080F3118870BDE1
:102E30002DE9F84F04460D4691469A464FF020087A
:102E400088F311880026B346A76A4FB95146204639
:102E5000FFF7A0FF20B187F311883046BDE8F88F57
:102E6000A06AE76AA9EB06033F1A9F4228BF1F46E4
:102E7000402F1BD905F1400355F8042B40F8042BD3
:102E80009D42F9D1A36A4033A3624036A26AE36A45
:102E90009A4204D3E16920460439FFF795FF8BF38A
:102EA00011884E45D9D288F31188CDE729463A4694
:102EB000FDF7FEFEA36A3B443D44A3623E44E5E7C2
:102EC000026943699A4203D1C3681BB91846704727
:102ED0000023FBE7836A002BF8D0043B9B1AF5D054
:102EE0001360C368013BC360C3691A44836902610C
:102EF0009A4224BF436A0361002383620123E5E70A
:102F000000F090B84FF08043002258631A6102220B
:102F1000DA6070474FF080430022DA6070470000AB
:102F20004FF08043586370474FF08043586A7047B2
:102F30004B6843608B688360CB68C3600B694361F7
:102F40004B6903628B6943620B6803607047000042
:102F500008B5224B22481A6940F2FF110A431A6150
:102F60001A6922F4FF7222F001021A611A691A6BBF
:102F70000A431A631A6D0A431A651A4A1B6D1146F1
:102F8000FFF7D6FF184802F11C01FFF7D1FF1748E1
:102F900002F13801FFF7CCFF154802F15401FFF7A9
:102FA000C7FF144802F17001FFF7C2FF124802F197
:102FB0008C01FFF7BDFF114802F1A801FFF7B8FF30
:102FC0000F4802F1C401FFF7B3FF0E4802F1E00120
:102FD000FFF7AEFFBDE8084000F0AAB80038024095
:102FE000000002407C360008000402400008024055
:102FF000000C024000100240001402400018024081
:10300000001C02400020024008B500F007FAFEF75D
:103010005FFCFFF785F8BDE80840FEF761BE0000E1
:1030200070470000104B1A6C42F001021A641A6ECD
:1030300042F001021A660D4A1B6E936843F00103C9
:1030400093604FF0804353229A624FF0FF32DA626E
:1030500000229A615A63DA605A6001225A6108219B
:103060001A601C20FFF76ABD00380240002004E00F
:103070004FF0804208B51369D1680B40D9B2C943FB
:103080009B07116107D5202383F31188FEF740FCCD
:10309000002383F3118808BD08B5FFF7E9FFBDE8F9
:1030A0000840FFF783B800001F4B1A696FEAC2524D
:1030B0006FEAD2521A611A69C2F308021A614FF01C
:1030C000FF301A695A69586100215A6959615A6971
:1030D0001A6A62F080521A621A6A02F080521A6208
:1030E0001A6A5A6A58625A6A59625A6A1A6C42F0E3
:1030F00080521A641A6E42F080521A661A6E0B4A97
:10310000106840F480701060186F00F44070B0F5E3
:10311000007F1EBF4FF4803018671967536823F48F
:103120000073536000F05AB900380240007000404C
:10313000334B4FF080521A64324A4FF440411160D1
:103140001A6842F001021A601A689207FCD59A6860
:1031500022F003029A602A4B19469A6812F00C0278
:10316000FBD1186800F0F90018609A601A6842F400
:1031700080321A600B689B03FCD54B6F43F0010350
:103180004B671F4B5A6F9007FCD51F4A5A601A684D
:1031900042F080721A601B4A53685904FCD5184BE0
:1031A0001A689201FCD5194A9A60194B1A68194B92
:1031B0009A42194B21D1194A1168194A91421CD1DE
:1031C00040F205121A60144A136803F00F03052B2E
:1031D000FAD10B4B9A6842F002029A609A6802F0A8
:1031E0000C02082AFAD15A6C42F480425A645A6E90
:1031F00042F480425A665B6E704740F20572E1E726
:10320000003802400070004008544007009488389D
:10321000002004E011640020003C024000ED00E0CA
:1032200041C20F41084A08B5536911680B4003F0C9
:103230000103536123B1054A13680BB150689847E5
:10324000BDE80840FEF7B2BF003C014088230020E3
:10325000084A08B5536911680B4003F00203536133
:1032600023B1054A93680BB1D0689847BDE8084080
:10327000FEF79CBF003C014088230020084A08B5A7
:10328000536911680B4003F00403536123B1054AED
:1032900013690BB150699847BDE80840FEF786BF37
:1032A000003C014088230020084A08B55369116892
:1032B0000B4003F00803536123B1054A93690BB136
:1032C000D0699847BDE80840FEF770BF003C014058
:1032D00088230020084A08B5536911680B4003F0A1
:1032E0001003536123B1054A136A0BB1506A984722
:1032F000BDE80840FEF75ABF003C0140882300208B
:10330000174B10B55C691A68144004F478725A615E
:10331000A30604D5134A936A0BB1D06A9847600696
:1033200004D5104A136B0BB1506B9847210604D596
:103330000C4A936B0BB1D06B9847E20504D5094A50
:10334000136C0BB1506C9847A30504D5054A936CD8
:103350000BB1D06C9847BDE81040FEF727BF00BF07
:10336000003C0140882300201A4B10B55C691A68A4
:10337000144004F47C425A61620504D5164A136D68
:103380000BB1506D9847230504D5134A936D0BB1CB
:10339000D06D9847E00404D50F4A136E0BB1506E00
:1033A0009847A10404D50C4A936E0BB1D06E984790
:1033B000620404D5084A136F0BB1506F9847230479
:1033C00004D5054A936F0BB1D06F9847BDE8104004
:1033D000FEF7ECBE003C014088230020062108B522
:1033E0000846FFF7ABFB06210720FFF7A7FB0621E6
:1033F0000820FFF7A3FB06210920FFF79FFB06210A
:103400000A20FFF79BFB06211720FFF797FB0621F9
:103410002820BDE80840FFF791BB000008B5FFF782
:1034200043FEFDF74FFDFDF7FDFEFDF7D1FDFFF774
:10343000F7FDBDE80840FFF763BD0000034611F843
:10344000012B03F8012B002AF9D170471210121337
:103450001211000053544D3332463F3F3F000000ED
:1034600000000000543400083F0000001304000076
:10347000903400083F000000190400009A3400084E
:103480003F00000021040000A43400083F000000B9
:1034900053544D3332463430780053544D33324612
:1034A0003432780053544D33324634343658580051
:1034B00000000000490F0008350F0008710F0008D8
:1034C0005D0F0008690F0008550F0008410F000844
:1034D0002D0F0008CD0F00080000000001000000C3
:1034E000000000006D61696E0000000004350008F6
:1034F00048240020C025002001000000CD1800084D
:103500000000000069646C6500000000020000001B
:103510000000000075110008DD11000840004000A7
:10352000582A0020682A0020020000000000000045
:10353000030000000000000021120008000000004D
:1035400010000000782A00200000000001000000A8
:10355000000000001C2D0020010102004172647572
:1035600050696C6F740025424F415244252D424CE6
:10357000002553455249414C25000000811C00089C
:10358000E91B0008E1100008651C0008430000006A
:103590009435000809024300020100C0320904000A
:1035A00000010202010005240010010524010001B0
:1035B000042402020524060001070582030800FF17
:1035C00009040100020A0000000705010240000092
:1035D000070581024000000012000000E0350008ED
:1035E00012011001020000400912415700020102BD
:1035F000030100000403090425424F415244250001
:103600004B616B7574654634003031323334353676
:10361000373839414243444546000000004000002D
:1036200000400000004000000040000000000100D9
:103630000000020000000200000002000000020082
:103640000000020000000200000002000000000074
:103650007113000851160008FD16000840004000D4
:103660007C2D00207C2D0020010000008C2D0020EE
:103670008000000040010000030000000000800204
:1036800000000000AAAAAAAA00000000FFFF000094
:103690000000000000A00A0040040010000000002C
:1036A000AAAAAAAA40000010DFFF00000000000044
:1036B000000000000001040000000000AAAAAAAA5D
:1036C00000010800FFFD00000000000000000000F5
:1036D0000000000000000000AAAAAAAA0000000042
:1036E000FFFF0000000000000000000000000000DC
:1036F00000000000AAAAAAAA00000000FFFF000024
:1037000000000000000000000000000000000000B9
:10371000AAAAAAAA00000000FFFF00000000000003
:10372000000000000000000000000000AAAAAAAAF1
:1037300000000000FFFF000000000000000000008B
:1037400000000000000000000A000000000000006F
:103750000300000000000000000000000000000066
:103760000000000000000000000000000000000059
:103770000000000000000000FF00960000000008AC
:1037800004000000F4350008000000000000000004
:103790000000000000000000000000000000000029
:00000001FF
