:020000040800F2
:1000000000060020E1010008B10E0008310E0008D2
:10001000890E0008310E00085D0E0008E30100089B
:10002000E3010008E3010008E3010008852100085E
:10003000E3010008E3010008E3010008E301000810
:10004000E3010008E3010008E3010008E301000800
:10005000E3010008E30100084D320008793200088E
:10006000A5320008D1320008FD320008E301000883
:10007000E3010008E3010008E3010008E3010008D0
:10008000E3010008E3010008E3010008E3010008C0
:10009000E3010008E3010008E30100082933000838
:1000A000E3010008E3010008E3010008E3010008A0
:1000B000C1300008E3010008E3010008E301000883
:1000C000E3010008E3010008E3010008E301000880
:1000D000E3010008E3010008E3010008E301000870
:1000E00091330008E3010008E3010008E301000880
:1000F000E3010008E3010008E3010008E301000850
:10010000E3010008E3010008E3010008E30100083F
:10011000E3010008E3010008E3010008E30100082F
:10012000E3010008E3010008E3010008E30100081F
:10013000E3010008E3010008E3010008E30100080F
:10014000E3010008E3010008E3010008BD280008FE
:10015000E3010008E3010008E3010008E3010008EF
:10016000E3010008E3010008E3010008E3010008DF
:10017000E3010008E3010008E3010008E3010008CF
:10018000E3010008E3010008E3010008E3010008BF
:10019000E3010008E3010008E3010008E3010008AF
:1001A000E3010008E3010008E3010008E30100089F
:1001B000E3010008E3010008E3010008E30100088F
:1001C000E3010008E3010008E3010008E30100087F
:1001D000E3010008E3010008E3010008E30100086F
:1001E00002E000F000F8FEE772B63A4880F30888B3
:1001F000394880F3098839484EF60851CEF200019B
:10020000086040F20000CCF200004EF63471CEF2ED
:1002100000010860BFF34F8FBFF36F8F40F2000003
:10022000C0F2F0004EF68851CEF200010860BFF334
:100230004F8FBFF36F8F4FF00000E1EE100A4EF6C4
:100240003C71CEF200010860062080F31488BFF3F1
:100250006F8F02F017F801F0F3FF02F095FE4FF0F8
:1002600055301F491B4A91423CBF41F8040BFAE745
:100270001C49194A91423CBF41F8040BFAE71A495C
:100280001A4A1B4B9A423EBF51F8040B42F8040B2A
:10029000F8E700201749184A91423CBF41F8040B87
:1002A000FAE701F0D1FF02F0C3FE144C144DAC424A
:1002B00003DA54F8041B8847F9E700F041F8114CC1
:1002C000114DAC4203DA54F8041B8847F9E701F0FA
:1002D000B9BF000000060020002200200000000836
:1002E0000000002000060020B8370008002200208F
:1002F0004022002040220020A82D0020E00100081C
:10030000E0010008E0010008E00100082DE9F04FDD
:100310002DED108AC1F80CD0C3689D46BDEC108A43
:10032000BDE8F08F002383F311882846A047002002
:1003300001F034FBFEE701F0AFFA00DFFEE700005A
:1003400038B501F0EFFE054601F012FF0446D8B9BA
:100350000F4B9D421AD001339D4218BF044641F213
:10036000883504BF01240025002001F0E5FE0CB112
:1003700000F076F800F032FD00F0A4FB284600F013
:10038000C3F800F06DF8F9E70025EDE70546EBE767
:10039000010007B008B500F067FBA0F12003584248
:1003A000584108BD07B541F21203022101A8ADF87A
:1003B000043000F077FB03B05DF804FB38B5202370
:1003C00083F311881748C3680BB101F06DFB164A1F
:1003D000144800234FF47A7101F02AFB002383F3C1
:1003E0001188124C236813B12368013B23606368B2
:1003F00013B16368013B63600D4D2B7833B96368BB
:100400007BB9022000F05AFC322363602B78032B67
:1004100007D163682BB9022000F050FC4FF47A73C7
:10042000636038BD40220020BD0300085C2300202B
:1004300054220020084B187003280CD8DFE800F085
:1004400008050208022000F027BC022000F012BCC0
:10045000024B00225A607047542200205C23002087
:10046000244B254A10B51C461968013140D004338D
:100470009342F9D16268214B9A4239D9204B9B684B
:1004800003F1006303F580339A4231D2002000F07B
:1004900033FB0220FFF7CEFF1A4B1A6C00221A64BE
:1004A000196E1A66196E596C5A64596E5A665A6EEC
:1004B0005A6942F080025A615A6922F080025A61F8
:1004C0005A691A6942F000521A611A6922F0005200
:1004D0001A611B6972B64FF0E0232021C3F8084D62
:1004E000D4E9003281F311889D4683F308881047D0
:1004F00010BD00BF0000010820000108FFFF000838
:1005000000220020003802402DE9F04F93B0AA4BA2
:1005100000902022FF210AA89D6800F009FCA74A4C
:100520001378A3B9A6480121C3601170202383F377
:100530001188C3680BB101F0B7FAA24AA0480023A2
:100540004FF47A7101F074FA002383F31188009B51
:1005500013B19D4B009A1A609C4A009C1378032BA0
:100560001EBF00231370984A4FF0000A18BF536053
:10057000D3465646D146012000F08EFB24B1924B63
:100580001B68002B00F01182002000F06DFA039030
:10059000039B002BF2DB012000F06CFB039B213B53
:1005A000162BE8D801A252F823F000BF0906000874
:1005B00031060008C5060008770500087705000821
:1005C000770500084F0700081F09000839080008D0
:1005D0009B080008C3080008E90800087705000820
:1005E000FB080008770500086D090008A906000847
:1005F00077050008B109000815060008A9060008DB
:10060000770500089B0800080220FFF7C3FE0028BA
:1006100040F0F581009B0221BAF1000F08BF1C4693
:1006200005A841F21233ADF8143000F03BFAA2E70E
:100630004FF47A7000F018FA071EEBDB0220FFF788
:10064000A9FE0028E6D0013F052F00F2DA81DFE89D
:1006500007F0030A0D10133605230593042105A89E
:1006600000F020FA17E054480421F9E75848042123
:10067000F6E758480421F3E74FF01C08404600F025
:100680003DFA08F104080590042105A800F00AFAD3
:10069000B8F12C0FF2D1012000FA07F747EA0B0B53
:1006A0005FFA8BFB4FF0000900F08EFB26B10BF0D8
:1006B0000B030B2B08BF0024FFF774FE5BE74648D3
:1006C0000421CDE7002EA5D00BF00B030B2BA1D1FD
:1006D0000220FFF75FFE074600289BD0012000F0B4
:1006E0000BFA0220FFF7A6FE00265FFA86F84046C6
:1006F00000F012FA044690B10021404600F01CFAC6
:1007000001360028F1D1BA46044641F21213022103
:1007100005A8ADF814303E4600F0C4F92BE70120DF
:10072000FFF788FE2546244B9B68AB4207D9284635
:1007300000F0E4F9013040F067810435F3E7234B22
:1007400000251D70204BBA465D603E46ACE7002E8A
:100750003FF460AF0BF00B030B2B7FF45BAF022079
:10076000FFF768FE322000F07FF9B0F10008FFF6D5
:1007700051AF18F003077FF44DAF0F4A926808EBB2
:10078000050393423FF646AFB8F5807F3FF742AF8F
:10079000124B0193B84523DD4FF47A7000F064F9F1
:1007A0000390039A002AFFF635AF019B039A03F8E2
:1007B000012B0137EDE700BF002200205823002065
:1007C00040220020BD0300085C23002054220020AA
:1007D00004220020082200200C22002058220020A1
:1007E000C820FFF7D7FD074600283FF413AF1F2DA1
:1007F00011D8C5F1200242450AAB25F0030028BFFD
:10080000424683490192184400F06CFA019A8048EC
:10081000FF2100F08DFA4FEAA8037D490193C8F348
:100820008702284600F08CFA064600283FF46DAF98
:10083000019B05EB830537E70220FFF7ABFD00289E
:100840003FF4E8AE00F0A4F900283FF4E3AE00273F
:10085000B846704B9B68BB4218D91F2F11D80A9B12
:1008600001330ED027F0030312AA134453F8203C9F
:1008700005934046042205A900F01CFB043780467E
:10088000E7E7384600F03AF90590F2E7CDF8148032
:10089000042105A800F006F906E70023642104A856
:1008A000049300F0F5F800287FF4B4AE0220FFF7BF
:1008B00071FD00283FF4AEAE049800F051F90590A8
:1008C000E6E70023642104A8049300F0E1F800287F
:1008D0007FF4A0AE0220FFF75DFD00283FF49AAE42
:1008E000049800F04DF9EAE70220FFF753FD0028D5
:1008F0003FF490AE00F05CF9E1E70220FFF74AFD1B
:1009000000283FF487AE05A9142000F057F9042110
:100910000746049004A800F0C5F83946B9E732202C
:1009200000F0A2F8071EFFF675AEBB077FF472AEAB
:10093000384A926807EB090393423FF66BAE0220F8
:10094000FFF728FD00283FF465AE27F003074F446A
:10095000B9453FF4A9AE484600F0D0F8042105900F
:1009600005A800F09FF809F10409F1E74FF47A7047
:10097000FFF710FD00283FF44DAE00F009F9002804
:1009800044D00A9B01330BD008220AA9002000F0B2
:10099000D7F900283AD02022FF210AA800F0C8F990
:1009A000FFF700FD1C4800F0FFFF13B0BDE8F08F1B
:1009B000002E3FF42FAE0BF00B030B2B7FF42AAE6F
:1009C0000023642105A8059300F062F8074600287B
:1009D0007FF420AE0220FFF7DDFC804600283FF4C4
:1009E00019AEFFF7DFFC41F2883000F0DDFF05981B
:1009F00000F01CFA464600F0E7F93C46BBE5064627
:100A000052E64FF0000905E6BA467EE637467CE638
:100A10005822002000220020A086010070B50F4B54
:100A20001B780133DBB2012B0C4611D80C4D296821
:100A30004FF47A730E6AA2FB03320146224628461F
:100A4000B047844204D1074B00221A70012070BDC8
:100A50004FF4FA7000F0A8FF0020F8E71022002001
:100A6000502500209023002007B5002302460121D5
:100A70000DF107008DF80730FFF7D0FF20B19DF88A
:100A8000070003B05DF804FB4FF0FF30F9E700000A
:100A90000A4608B50421FFF7C1FF80F00100C0B28B
:100AA000404208BD30B4054C2368DD69044B0A465A
:100AB000AC460146204630BC604700BF50250020B0
:100AC000A086010070B501F01FFA094E094D308073
:100AD000002428683388834208D901F00FFA2B6874
:100AE00004440133B4F5803F2B60F2D370BD00BFE6
:100AF000922300206423002001F0C8BA00F10060B6
:100B000000F580300068704700F10060920000F549
:100B1000803001F047BA0000054B1A68054B1B886E
:100B20009B1A834202D9104401F0E8B900207047B3
:100B3000642300209223002038B5084D044629B1D3
:100B400028682044BDE8384001F0F8B928682044FE
:100B500001F0DCF90028F3D038BD00BF6423002089
:100B600010F003030AD1B0F5047F05D200F1005064
:100B7000A0F51040D0F80038184670470023FBE776
:100B800000F10050A0F51040D0F8100A70470000A6
:100B9000064991F8243033B10023086A81F82430E3
:100BA0000822FFF7B1BF0120704700BF6823002073
:100BB000014B1868704700BF002004E070B52A4B55
:100BC0001B68C3F30B0204461B0C62B140F21340D6
:100BD000824230D040F2194082422ED040F2214071
:100BE00082422CD10322214D0C2000FB0252556879
:100BF00042F20102934224D0B3F5805F23D041F248
:100C00000102934221D041F2030293421FD041F2EC
:100C10000702934214BF3F233123013C0C44013DA2
:100C20000A46A24215D215F9016F501C9EB100F878
:100C3000016C0246F5E70122D5E70222D3E70C4D0D
:100C4000D6E73323E9E74123E7E75A23E5E75923CA
:100C5000E3E7104605E02C258442157001D9901C6D
:100C60005370401A70BD00BF002004E0BC3400087F
:100C700090340008022804D1054B4FF000729A61AD
:100C800070470128FCD1034B4FF08042F7E700BFCB
:100C90000004024000000240022804D1054B4FF43A
:100CA00000729A6170470128FCD1034B4FF48042D7
:100CB000F7E700BF0004024000000240022805D10F
:100CC000064A536983F40073536170470128FCD1CD
:100CD000034A536983F48043F6E700BF00040240EF
:100CE0000000024010B50023934203D0CC5CC454F2
:100CF0000133F9E710BD000010B5013810F9013FCC
:100D00003BB191F900409C4203D11AB10131013A43
:100D1000F4E71AB191F90020981A10BD1046FCE7CB
:100D200003460246D01A12F9011B0029FAD1704776
:100D300002440346934202D003F8011BFAE77047CE
:100D40002DE9F8431F4D144695F8242007468846A0
:100D500052BBDFF870909CB395F824302BB9202259
:100D6000FF2148462F62FFF7E3FF95F82400C0F10A
:100D70000802A24228BF2246D6B24146920005EBA5
:100D80008000FFF7AFFF95F82430A41B1E44F6B295
:100D9000082E17449044E4B285F82460DBD1FFF7B5
:100DA000F7FE0028D7D108E02B6A03EB82038342C9
:100DB000CFD0FFF7EDFE0028CBD10020BDE8F883AF
:100DC0000120FBE768230020024B1A78024B1A70BF
:100DD000704700BF902300201022002010B50F4C58
:100DE0000F4800F0F7F821460D4800F01FF924687D
:100DF0000C48626DD2F8043843F00203C2F804389C
:100E000000F0D2FD0849204600F016FA626DD2F8D3
:100E1000043823F00203C2F8043810BDB0350008CE
:100E20005025002040420F00B835000870470000F0
:100E300000B59BB0EFF3098168226846FFF752FFC7
:100E4000EFF30583044B9A6BDA6A9A6A9A6A9A6A94
:100E50009A6A9A6A9B6AFEE700ED00E000B59BB0D3
:100E6000EFF3098168226846FFF73CFFEFF3058343
:100E7000044B9A6B9A6A9A6A9A6A9A6A9A6A9B6A05
:100E8000FEE700BF00ED00E000B59BB0EFF3098185
:100E900068226846FFF726FFEFF30583034B5A6B82
:100EA0009A6A9A6A9A6A9A6A9B6AFEE700ED00E07B
:100EB000FEE7000030B5094D0A4491420DD011F80B
:100EC000013B5840082340F30004013B2C4013F041
:100ED000FF0384EA5000F6D1EFE730BD2083B8ED80
:100EE000026843681143016003B11847704700006E
:100EF00013B5446BD4F894341A681178042915D1C9
:100F0000217C022912D11979128901238B401342C5
:100F10000CD101A904F14C0001F03CFFD4F8944439
:100F2000019B21790246206800F0CEF902B010BD85
:100F3000143001F0BFBE00004FF0FF33143001F059
:100F4000B9BE00004C3001F091BF00004FF0FF33FC
:100F50004C3001F08BBF0000143001F08DBE00005A
:100F60004FF0FF31143001F087BE00004C3001F02B
:100F70005DBF00004FF0FF324C3001F057BF000062
:100F80000020704710B5D0F894341A6811780429FD
:100F9000044617D1017C022914D1597952890123C1
:100FA0008B4013420ED1143001F020FE024648B1AE
:100FB000D4F894444FF4807361792068BDE8104000
:100FC00000F070B910BD0000406BFFF7DBBF000000
:100FD000704700007FB5124B036000234360C0E9F7
:100FE0000233012502260F4B05740446029001933B
:100FF00000F18402294600964FF48073143001F00A
:10100000D1FD094B0294CDE9006304F523724FF43E
:101010008073294604F14C0001F098FE04B070BDC5
:10102000EC340008C90F0008F10E00080B682022FC
:1010300082F311880A7903EB820290614A790932BE
:1010400043F822008A7912B103EB820398610223EC
:101050000374C0F89414002383F3118870470000D0
:1010600038B5037F044613B190F85430ABB9201D56
:1010700001250221FFF734FF04F1140025776FF0FA
:10108000010100F0B9FC84F8545004F14C006FF0F9
:101090000101BDE8384000F0AFBC38BD10B50121FA
:1010A00004460430FFF71CFF0023237784F85430F4
:1010B00010BD000038B504460025143001F08AFD4B
:1010C00004F14C00257701F059FE201D84F854509E
:1010D0000121FFF705FF2046BDE83840FFF752BF6A
:1010E00090F8443003F06003202B07D190F845209E
:1010F000212A4FF0000303D81F2A06D8002070478A
:10110000222AFBD1C0E90E3303E0034A826307229F
:10111000C2630364012070471122002037B5D0F864
:1011200094341A681178042904461AD1017C0229E2
:1011300017D11979128901238B40134211D100F183
:101140004C05284601F0DAFE58B101A9284601F005
:1011500021FED4F89444019B21790246206800F0D6
:10116000B3F803B030BD0000F0B500EB810385B0EB
:101170009E6904460D46FEB1202383F3118804EBDB
:101180008507301D0821FFF7ABFEFB685B691B6814
:1011900006F14C001BB1019001F00AFE019803A971
:1011A00001F0F8FD024648B1039B2946204600F0B5
:1011B0008BF8002383F3118805B0F0BDFB685A69F2
:1011C0001268002AF5D01B8A013B1340F1D104F1CB
:1011D0004402EAE7093138B550F82140DCB1202358
:1011E00083F31188D4F894241368527903EB8203B3
:1011F000DB689B695D6845B104216018FFF770FEEC
:10120000294604F1140001F0FBFC2046FFF7BAFE6A
:10121000002383F3118838BD7047000001F0A8B89F
:10122000012303700023C0E90133C36183620362B9
:10123000C36243620363704738B50446202383F3D7
:1012400011880025C0E90355C0E90555416001F04A
:101250009FF80223237085F3118838BD70B500EB29
:10126000810305465069DA600E46144618B1102213
:101270000021FFF75DFDA06918B110220021FFF7E2
:1012800057FD31462846BDE8704001F04BB90000DB
:10129000826802F0011282600022C0E904228261A9
:1012A00001F0CCB9F0B400EB81044789E468012572
:1012B000A4698D403D43458123600023A2606360A3
:1012C000F0BC01F0E7B90000F0B400EB810407893D
:1012D000E468012564698D403D4305812360002356
:1012E000A2606360F0BC01F061BA000070B5022337
:1012F000002504460370C0E90255C0E90455C564E1
:10130000856180F8345001F0A9F863681B6823B147
:1013100029462046BDE87040184770BD037880F824
:1013200050300523037043681B6810B504460BB1A9
:10133000042198470023A36010BD000090F85020BE
:10134000436802701B680BB1052118477047000005
:1013500070B590F83430044613B1002380F834306F
:1013600004F14402204601F08BF963689B68B3B92D
:1013700094F8443013F0600535D00021204601F088
:10138000DDFB0021204601F0CFFB63681B6813B131
:10139000062120469847062384F8343070BD204645
:1013A00098470028E4D0B4F84A30E26B9A4288BFEC
:1013B000E36394F94430E56B002B4FF0200380F297
:1013C0000381002D00F0F280092284F8342083F399
:1013D00011880021D4E90E232046FFF775FF002372
:1013E00083F31188DAE794F8452003F07F0343EA9A
:1013F000022340F20232934200F0C58021D8B3F5B7
:10140000807F48D00DD8012B3FD0022B00F0938075
:10141000002BB2D104F14C02A2630222E2632364E6
:10142000C1E7B3F5817F00F09B80B3F5407FA4D185
:1014300094F84630012BA0D1B4F84C3043F00203AD
:1014400032E0B3F5006F4DD017D8B3F5A06F31D0AF
:10145000A3F5C063012B90D8636894F846205E68BA
:1014600094F84710B4F848302046B047002884D09C
:101470004368A3630368E3631AE0B3F5106F36D0E3
:1014800040F6024293427FF478AF5C4BA3630223A1
:10149000E3630023C3E794F84630012B7FF46DAF7C
:1014A000B4F84C3023F00203C4E90E55A4F84C30D4
:1014B000256478E7B4F84430B3F5A06F0ED194F802
:1014C000463084F84E30204601F020F863681B68EF
:1014D00013B1012120469847032323700023C4E958
:1014E0000E339CE704F14F03A3630123C3E7237882
:1014F000042B10D1202383F311882046FFF7C8FE68
:1015000085F311880321636884F84F5021701B68AC
:101510000BB12046984794F84630002BDED084F873
:101520004F300423237063681B68002BD6D0022140
:1015300020469847D2E794F848301D0603F00F0183
:1015400020460AD501F08EF8012804D002287FF445
:1015500014AF2B4B9AE72B4B98E701F075F8F3E7A4
:1015600094F84630002B7FF408AF94F8483013F01D
:101570000F01B3D01A06204602D501F0F3FAADE709
:1015800001F0E6FAAAE794F84630002B7FF4F5AEB6
:1015900094F8483013F00F01A0D01B06204602D566
:1015A00001F0CCFA9AE701F0BFFA97E7142284F829
:1015B000342083F311882B462A4629462046FFF71C
:1015C00071FE85F31188E9E65DB1152284F83420B7
:1015D00083F311880021D4E90E232046FFF762FE31
:1015E000FDE60B2284F8342083F311882B462A462B
:1015F00029462046FFF768FEE3E700BF1C350008D8
:10160000143500081835000838B590F83430044611
:10161000002B3ED0063BDAB20F2A34D80F2B32D83B
:10162000DFE803F0373131082232313131313131E5
:1016300031313737C56BB0F84A309D4214D2C36898
:101640001B8AB5FBF3F203FB12556DB9202383F31C
:1016500011882B462A462946FFF736FE85F3118866
:101660000A2384F834300EE0142384F83430202325
:1016700083F3118800231A4619462046FFF712FE0D
:10168000002383F3118838BD036C03B1984700230E
:10169000E7E70021204601F051FA0021204601F041
:1016A00043FA63681B6813B1062120469847062356
:1016B000D7E7000010B590F83430142B044629D039
:1016C00017D8062B05D001D81BB110BD093B022B42
:1016D000FBD80021204601F031FA0021204601F01C
:1016E00023FA63681B6813B1062120469847062336
:1016F00019E0152BE9D10B2380F83430202383F334
:10170000118800231A461946FFF7DEFD002383F3F4
:101710001188DAE7C3689B695B68002BD5D1036C3D
:1017200003B19847002384F83430CEE7024B0022FF
:10173000C3E900339A6070479423002000230374A8
:101740008268054B1B6899689142FBD25A68036016
:1017500042601060586070479423002008B5202331
:1017600083F31188037C032B05D0042B0DD02BB9F8
:1017700083F3118808BD436900221A604FF0FF33DC
:101780004361FFF7DBFF0023F2E7D0E9003213608B
:101790005A60F3E7002303748268054B1B6899685D
:1017A0009142FBD85A6803604260106058607047ED
:1017B00094230020054B19690874186802681A60A0
:1017C0005360186101230374FEF7A0BD9423002029
:1017D00030B54B1C0B4D87B0044610D02B690A4A1C
:1017E00001A800F025F92046FFF7E4FF049B13B1A0
:1017F00001A800F059F92B69586907B030BDFFF70F
:10180000D9FFF8E7942300205D17000838B50C4D88
:1018100041612B6981689A689142044603D8BDE80A
:101820003840FFF78BBF1846FFF7B4FF01232C6148
:10183000014623742046BDE83840FEF767BD00BF6F
:1018400094230020044B1A681B6990689B68984297
:1018500094BF0020012070479423002010B5084C4D
:10186000236820691A6822605460012223611A7477
:10187000FFF790FF01462069BDE81040FEF746BD26
:101880009423002008B5FFF7DDFF18B1BDE808403C
:10189000FFF7E4BF08BD0000FFF7E0BFFEE7000070
:1018A00010B50C4CFFF742FF00F0B4F80A49802253
:1018B000204600F03BF8012344F8180C037400F0B4
:1018C00071FC002383F3118862B60448BDE8104020
:1018D00000F04CB8BC23002020350008303500084B
:1018E00000F01CB9EFF3118020B9EFF3058320223B
:1018F00082F311887047000010B530B9EFF305840A
:10190000C4F3080414B180F3118810BDFFF7BAFFC7
:1019100084F31188F9E70000034A516853685B1AA1
:101920009842FBD8704700BF001000E0826002229E
:10193000028270478368A3F17C0243F80C2C026991
:1019400043F83C2C426943F8382C074A43F81C2CD6
:10195000C26843F8102C022203F8082C002203F876
:10196000072CA3F1180070472503000810B52023A9
:1019700083F31188FFF7DEFF00210446FFF746FFDF
:10198000002383F31188204610BD0000024B1B6921
:1019900058610F20FFF70EBF94230020202383F30C
:1019A0001188FFF7F3BF000008B50146202383F339
:1019B00011880820FFF70CFF002383F3118808BD6E
:1019C00049B1064B42681B6918605A601360436056
:1019D0000420FFF7FDBE4FF0FF3070479423002036
:1019E0000368984206D01A68026050605961184630
:1019F000FFF7A4BE7047000038B504460D462068C6
:101A0000844200D138BD036823605C604561FFF704
:101A100095FEF4E7054B03F11402C3E905224FF0EC
:101A2000FF310022C3E90712704700BF9423002052
:101A300070B51C4EC0E9032305460C4601F090FA30
:101A4000334653F8142F9A420DD13062C5E9012470
:101A50002A600A2C2CBF00190A30C6E90555BDE8DA
:101A6000704001F06BBA316A431AE31838BF1C4664
:101A70009368A34202D9081901F06EFA73699A6853
:101A800094420CD85A68AC602B606A6015609A6802
:101A90005D60121B9A604FF0FF33F36170BD1B68ED
:101AA000A41AECE79423002038B51B4C63699842D4
:101AB0000DD0D0E9003213605A6000228168C26004
:101AC0009A680A449A604FF0FF33E36138BD2246BA
:101AD000036842F8143F002193425A60C16003D169
:101AE000BDE8384001F032BA9A688168256A0A4434
:101AF0009A6001F035FA63699A68411B8A42E5D918
:101B0000AB181D1A092D206A98BF01F10A02BDE821
:101B10003840104401F020BA942300202DE9F04110
:101B2000184C002704F11406656901F019FA236ABC
:101B3000AA68C11A8A4215D813442362D5E9003233
:101B400013605A606369D5F80C80EF60B34201D12D
:101B500001F0FCF987F311882869C047202383F33B
:101B60001188E1E76169B14209D013441B1ABDE84D
:101B7000F0410A2B2CBFC0180A3001F0EDB9BDE8C6
:101B8000F08100BF9423002000207047FEE7000092
:101B9000704700004FF0FF307047000002290CD062
:101BA000032904D00129074818BF00207047032AE1
:101BB00005D8054800EBC200704704487047002074
:101BC000704700BF1436000820220020C8350008E6
:101BD00070B59AB00546084601A9144600F0C2F84F
:101BE00001A8FFF79DF8431C5B00C5E90034002203
:101BF000237003236370C6B201AB02341046D1B226
:101C00008E4204F1020401D81AB070BD13F8011B12
:101C100004F8021C04F8010C0132F0E708B5202397
:101C200083F311880348FFF779FA002383F31188BF
:101C300008BD00BF5025002090F8443003F01F027B
:101C4000012A07D190F845200B2A03D10023C0E9CF
:101C50000E3315E003F06003202B08D1B0F84830B4
:101C60002BB990F84520212A03D81F2A04D8FFF762
:101C700037BA222AEBD0FAE7034A82630722C2630B
:101C800003640120704700BF1822002007B5052912
:101C900017D8DFE801F0191603191920202383F360
:101CA0001188104A01900121FFF7D8FA01980E4AD5
:101CB0000221FFF7D3FA0D48FFF7FCF9002383F365
:101CC000118803B05DF804FB202383F311880748D3
:101CD000FFF7C6F9F2E7202383F311880348FFF7E3
:101CE000DDF9EBE7683500088C3500085025002049
:101CF00038B50C4D0C4C0D492A4604F10800FFF78D
:101D000067FF05F1CA0204F110000949FFF760FFFF
:101D100005F5CA7204F118000649BDE83840FFF71E
:101D200057BF00BF182A0020202200204835000895
:101D3000523500085D35000870B5044608460D466A
:101D4000FEF7EEFFC6B22046013403780BB9184601
:101D500070BD32462946FEF7CFFF0028F3D101209F
:101D6000F6E700002DE9F04705460C46FEF7D8FFE0
:101D70002B49C6B22846FFF7DFFF08B10636F6B298
:101D800028492846FFF7D8FF08B11036F6B2632E6F
:101D90000BD8DFF88C80DFF88C90234FDFF894A00D
:101DA0002E7846B92670BDE8F08729462046BDE862
:101DB000F04701F065BB252E2ED10722414628466B
:101DC000FEF79AFF70B9194B224603F10C0153F844
:101DD000040B42F8040B8B42F9D11B7813700735C2
:101DE0000D34DDE7082249462846FEF785FF98B9FD
:101DF0000F4BA21C197809090232C95D02F8041CB4
:101E000013F8011B01F00F015345C95D02F8031CD3
:101E1000F0D118340835C3E704F8016B0135BFE78A
:101E2000343600085D3500084A3600083C360008A4
:101E3000107AFF1F1C7AFF1FBFF34F8F024AD3682F
:101E4000DB03FCD4704700BF003C024008B5094BDF
:101E50001B7873B9FFF7F0FF074B1A69002ABFBF61
:101E6000064A5A6002F188325A601A6822F4806287
:101E70001A6008BD762C0020003C02402301674513
:101E800008B50B4B1B7893B9FFF7D6FF094B1A69BE
:101E900042F000421A611A6842F480521A601A68CD
:101EA00022F480521A601A6842F480621A6008BDF7
:101EB000762C0020003C02400B28F0B516D80C4CC4
:101EC0000C4923787BB90C4D0E460C234FF0006271
:101ED00055F8047B46F8042B013B13F0FF033A440A
:101EE000F6D10123237051F82000F0BD0020FCE75B
:101EF000A82C0020782C00205C360008014B53F8F9
:101F0000200070475C3600080C2070470B2810B585
:101F1000044601D9002010BDFFF7CEFF064B53F851
:101F200024301844C21A0BB90120F4E712680132B8
:101F3000F0D1043BF6E700BF5C3600080B2838B54B
:101F4000044628D8FFF7CEFCFFF776FFFFF77EFFA9
:101F5000124AF323D360E300DBB243F4007343F08F
:101F600002031361136943F480331361054620466D
:101F7000FFF762FFFFF7A0FF094B53F8241000F0B2
:101F8000E9F82846FFF77CFFFFF7B6FC2046BDE8DE
:101F90003840FFF7BBBF002038BD00BF003C024007
:101FA0005C36000812F001032DE9F04105460E46AB
:101FB00014464BD18218B2F1016F61D8314B1B68C6
:101FC00013F001035CD0304FFFF78CFCFFF73EFFAE
:101FD000F323FB60FFF730FF314640F20128032C6A
:101FE00018D824F00104284E0C446D1A40F2011850
:101FF000A142336905EB01072AD123F001033361C4
:10200000FFF73EFFFFF778FC0120BDE8F081043CBC
:102010000435E4E7AB07E4D13B6923F440733B614B
:102020003B6943EA08033B6151F8046B2E60BFF340
:102030004F8FFFF701FF2B689E42E8D03B6923F0EA
:1020400001033B61FFF71CFFFFF756FC0020DCE7B4
:1020500023F440733361336943EA080333610B8827
:102060003B80BFF34F8FFFF7E7FE3F8831F8023B1D
:10207000BFB2BB42BCD0336923F001033361E1E757
:102080001846C2E700380240003C0240084908B543
:102090000B7828B11BB9FFF7D9FE01230B7008BDDF
:1020A000002BFCD0BDE808400870FFF7E9BE00BF78
:1020B000762C002010B50244064BD2B2904200D1DB
:1020C00010BD441C00B253F8200041F8040BE0B2EC
:1020D000F4E700BF502800400F4B30B51C6F2404BC
:1020E00007D41C6F44F400741C671C6F44F4004454
:1020F0001C670A4C236843F4807323600244084B36
:10210000D2B2904200D130BD441C00B251F8045B01
:1021100043F82050E0B2F4E700380240007000407D
:102120005028004007B5012201A90020FFF7C2FF97
:10213000019803B05DF804FB13B50446FFF7F2FF06
:10214000A04205D0012201A900200194FFF7C4FF9D
:1021500002B010BD70470000034B1A681AB9034A59
:10216000D2F874281A607047AC2C0020003002406E
:1021700008B5FFF7F1FF024B1868C0F3407008BDC7
:10218000AC2C0020EFF3098305494A6B22F00102D1
:102190004A63683383F30988002383F31188704707
:1021A00000EF00E0202080F3118862B60C4B0D4A4E
:1021B000D96821F4E0610904090C0A43DA60D3F814
:1021C000FC20094942F08072C3F8FC200A6842F002
:1021D00001020A601022DA7783F82200704700BFFC
:1021E00000ED00E00003FA05001000E010B5202328
:1021F00083F311880E4B5B6813F4006314D0F1EE87
:10220000103AEFF30984683C4FF08073E361094BA7
:10221000DB6B236684F30988FFF714FB10B1064BD0
:10222000A36110BD054BFBE783F31188F9E700BFFD
:1022300000ED00E000EF00E0370300083A0300087B
:1022400070470000FEE700000A4B0B480B4A904223
:102250000BD30B4BDA1C121AC11E22F003028B4265
:1022600038BF00220021FEF763BD53F8041B40F87D
:10227000041BECE7F8370008A82D0020A82D00204B
:10228000A82D00207047000070B5D0E915439E6866
:1022900000224FF0FF3504EB42135101D3F800093F
:1022A0000028BEBFD3F8000940F08040C3F8000901
:1022B000D3F8000B0028BEBFD3F8000B40F08040DD
:1022C000C3F8000B013263189642C3F80859C3F8EB
:1022D000085BE0D24FF00113C4F81C3870BD000059
:1022E0001D4B03EB80022DE9F043D2F80CC05D6D6D
:1022F000DCF81420461CD2F800E005EB063605EBAE
:102300004018516871450AD3D5F83438012202FAD1
:1023100000F023EA0000C5F83408BDE8F083BCF8FB
:102320001040AEEB0103A34228BF2346D8F818495A
:10233000A4B2B3EB840FF0D89468A4F1040959F85F
:10234000047F3760A4EB09071F44042FF7D81C440F
:102350000B4494605360D4E7B02C0020890141F015
:102360002001016103699B06FCD41220FFF7D4BA57
:1023700010B5054C2046FEF753FF4FF0A0436365B0
:10238000024BA36510BD00BFB02C0020B036000882
:1023900070B50378012B054650D12A4B446D984205
:1023A0001BD1294B5A6B42F080025A635A6D42F09E
:1023B00080025A655A6D5A6942F080025A615A6920
:1023C00022F080025A610E2143205B6900F0D4FBA9
:1023D0001E4BE3601E4BC4F800380023C4F8003ED7
:1023E000C02323606E6D4FF40413A3633369002B85
:1023F000FCDA012333610C20FFF78EFA3369DB0727
:10240000FCD41220FFF788FA3369002BFCDA00268F
:10241000A6602846FFF738FF6B68C4F81068DB68D1
:10242000C4F81468C4F81C684BB90A4BA3614FF098
:10243000FF336361A36843F00103A36070BD064BE3
:10244000F4E700BFB02C00200038024040140040E8
:1024500003002002003C30C0083C30C0F8B5446D99
:10246000054600212046FFF779FFA96D00234FF0B4
:1024700001128F68C4F834384FF00066C4F81C2885
:102480004FF0FF3004EB431201339F42C2F8006962
:10249000C2F8006BC2F80809C2F8080BF2D20B6848
:1024A0006A6DEB65636210231361166916F01006FE
:1024B000FBD11220FFF730FAD4F8003823F4FE6382
:1024C000C4F80038A36943F4402343F01003A36128
:1024D0000923C4F81038C4F814380A4BEB604FF0E5
:1024E000C043C4F8103B084BC4F8003BC4F8106963
:1024F000C4F80039EB6D03F1100243F48013EA6570
:10250000A362F8BD8C36000840800010426D90F840
:102510004E10D2F8003823F4FE6343EA0113C2F8E8
:10252000003870472DE9F84300EB8103456DDA6808
:10253000166806F00306731E022B05EB41130C46CA
:1025400080460FFA81F94FEA41104FF00001C3F8BD
:10255000101B4FF0010104F1100398BFB60401FAFB
:1025600003F391698EBF334E06F1805606F500469F
:1025700000293AD0578A04F15801490137436F5076
:10258000D5F81C180B43C5F81C382B180021C3F8CC
:10259000101953690127611EA7409BB3138A928BC0
:1025A0009B08012A88BF5343D8F85C20981842EA58
:1025B000034301F1400205EB8202C8F85C002146AA
:1025C00053602846FFF7CAFE08EB8900C3681B8AE0
:1025D00043EA8453483464011E432E51D5F81C3815
:1025E0001F43C5F81C78BDE8F88305EB4917D7F8F9
:1025F000001B21F40041C7F8001BD5F81C1821EA84
:102600000303C0E704F13F0305EB83030A4A5A6062
:1026100028462146FFF7A2FE05EB4910D0F8003905
:1026200023F40043C0F80039D5F81C3823EA070723
:10263000D7E700BF0080001000040002826D12681E
:10264000C265FFF721BE00005831436D49015B5858
:1026500013F4004004D013F4001F0CBF022001202B
:10266000704700004831436D49015B5813F4004046
:1026700004D013F4001F0CBF02200120704700009B
:1026800000EB8101CB68196A0B6813604B685360DB
:102690007047000000EB810330B5DD68AA6913685C
:1026A000D36019B9402B84BF402313606B8A146830
:1026B000426D1C44013CB4FBF3F46343033323F049
:1026C000030302EB411043EAC44343F0C043C0F8A4
:1026D000103B2B6803F00303012B09B20ED1D2F893
:1026E000083802EB411013F4807FD0F8003B14BF90
:1026F00043F0805343F00053C0F8003B02EB41121B
:10270000D2F8003B43F00443C2F8003B30BD000068
:102710002DE9F041244D6E6D06EB40130446D3F8CD
:10272000087BC3F8087B38070AD5D6F81438190790
:1027300006D505EB84032146DB6828465B6898478D
:10274000FA071FD5D6F81438DB071BD505EB840331
:10275000D968CCB98B69488A5A68B2FBF0F600FB9D
:1027600016228AB91868DA6890420DD2121AC3E9A3
:102770000024202383F311880B482146FFF78AFFAA
:1027800084F31188BDE8F081012303FA04F26B8918
:1027900023EA02036B81CB68002BF3D02146024869
:1027A000BDE8F041184700BFB02C002000EB8103CA
:1027B00070B5DD68436D6C692668E6604A0156BBFA
:1027C0001A444FF40020C2F810092A6802F00302EC
:1027D000012A0AB20ED1D3F8080803EB421410F410
:1027E000807FD4F8000914BF40F0805040F00050C2
:1027F000C4F8000903EB4212D2F8000940F004408B
:10280000C2F80009D3F83408012202FA01F10143A9
:10281000C3F8341870BD19B9402E84BF4020206021
:1028200020682E8A8419013CB4FBF6F440EAC440C7
:1028300040F000501A44C6E7F8B504461E48456DFE
:1028400005EB4413D3F80869C3F80869F10717D5F5
:10285000D5F81038DA0713D500EB8403D9684B6933
:102860001F68DA68974218D2D21B00271A605F608F
:10287000202383F311882146FFF798FF87F31188FF
:10288000330617D5D5F834280123A340134211D0BD
:102890002046BDE8F840FFF723BD012303FA04F208
:1028A000038923EA020303818B68002BE8D02146C9
:1028B0009847E5E7F8BD00BFB02C00202DE9F74FA1
:1028C000984C666D7569B3691D4015F48058756143
:1028D00007D02046FEF70AFD03B0BDE8F04FFFF732
:1028E00085BC002D12DAD6F8003E8E489F071EBF29
:1028F000D6F8003E23F00303C6F8003ED6F80438AD
:1029000023F00103C6F80438FEF718FD280505D5A5
:102910008448FFF7B9FC8348FEF700FDA9040CD5F5
:10292000D6F8083813F0060FF36823F470530CBF81
:1029300043F4105343F4A053F3602A0704D56368AB
:10294000DB680BB177489847EB0274D4AF0227D508
:10295000D4F85490DFF8CCB100274FF0010A09EB0E
:102960004712D2F8003B03F44023B3F5802F11D176
:10297000D2F8003B002B0DDA62890AFA07F322EA4B
:102980000303638104EB8703DB68DB6813B139461B
:1029900058469847A36D01379B68FFB29F42DED926
:1029A000E80617D5676D3A6AC2F30A1002F00F0302
:1029B00002F4F012B2F5802F00F08880B2F5402FBB
:1029C00008D104EB83030022DB681B6A07F58057FC
:1029D00090426DD12903D6F8184813D5E20302D5E9
:1029E0000020FFF795FEA30302D50120FFF790FE1C
:1029F000670302D50220FFF78BFE260302D50320D2
:102A0000FFF786FE6D037FF567AFE00702D5002074
:102A1000FFF712FFA10702D50120FFF70DFF6207A4
:102A200002D50220FFF708FF23077FF555AF0320EB
:102A3000FFF702FF50E7636DDFF8E8B0019300276E
:102A40004FF0010AA36D9B685FFA87F999453FF63D
:102A50007DAF019B03EB4913D3F8002902F4402218
:102A6000B2F5802F22D1D3F80029002A1EDAD3F83C
:102A7000002942F09042C3F80029D3F80029002A27
:102A8000FBDB606D4946FFF769FC22890AFA09F30E
:102A900022EA0303238104EB8903DB689B6813B1FB
:102AA0004946584698474846FFF71AFC0137C9E798
:102AB000910708BFD7F80080072A98BF03F8018B59
:102AC00002F1010298BF4FEA182881E7023304EBB4
:102AD000830207F580575268D2F818C0DCF8082046
:102AE000DCE9001CA1EB0C0C002188420AD104EBAC
:102AF000830463689B699A6802449A605A68024436
:102B00005A6067E711F0030F08BFD7F800808C45C3
:102B100088BF02F8018B01F1010188BF4FEA182834
:102B2000E3E700BFB02C0020436D03EB4111D1F867
:102B3000003B43F40013C1F8003B7047436D03EBC7
:102B40004111D1F8003943F40013C1F8003970473E
:102B5000436D03EB4111D1F8003B23F40013C1F89E
:102B6000003B7047436D03EB4111D1F8003923F46A
:102B70000013C1F80039704700F1604303F5614369
:102B80000901C9B283F80013012200F01F039A4023
:102B900043099B0003F1604303F56143C3F88021BF
:102BA0001A60704730B5039C0172043304FB03259F
:102BB000C0E90653049B03630021059BC160C0E983
:102BC0000000C0E90422C0E90842C0E90A114363D9
:102BD00030BD0000416A0022C0E90411C0E90A22A8
:102BE000C2606FF00101FEF707BF0000D0E90432B8
:102BF000934201D1C2680AB9181D7047002070477E
:102C000003691960C2680132C260C26913448269F3
:102C10000361934224BF436A03610021FEF7E0BED3
:102C200038B504460D46E3683BB16269131D12686E
:102C3000A3621344E362002007E0237A33B92946F4
:102C40002046FEF7BDFE0028EDDA38BD6FF001002A
:102C5000FBE70000C368C269013BC36043691344DA
:102C600082694361934224BF436A436100238362C4
:102C7000036B03B11847704770B52023044683F3F4
:102C80001188866A3EB9FFF7CBFF054618B186F377
:102C90001188284670BDA36AE26A13F8015BA3623B
:102CA000934202D32046FFF7D5FF002383F3118818
:102CB000EFE700002DE9F84F04460E461746984608
:102CC0004FF0200989F311880025AA46D4F828B0CE
:102CD000BBF1000F09D141462046FFF7A1FF20B10B
:102CE0008BF311882846BDE8F88FD4E90A12A7EBC8
:102CF000050B521A934528BF9346BBF1400F1BD9D1
:102D0000334601F1400251F8040B43F8040B9142A1
:102D1000F9D1A36A40334036A3624035D4E90A238F
:102D20009A4202D32046FFF795FF8AF31188BD42ED
:102D3000D8D289F31188C9E730465A46FDF7D2FF49
:102D4000A36A5B445E44A3625D44E7E710B5029C5E
:102D50000172043304FB0321C0E906130023C0E918
:102D60000A33039B0363049BC460C0E90000C0E90D
:102D70000422C0E90842436310BD0000026AC26039
:102D8000426AC0E904220022C0E90A226FF0010170
:102D9000FEF732BED0E904239A4201D1C26822B9BB
:102DA000184650F8043B0B60704700207047000045
:102DB000C368C2690133C3604369134482694361D4
:102DC000934224BF436A43610021FEF709BE00001D
:102DD00038B504460D46E3683BB123691A1DA2626B
:102DE000E2691344E362002007E0237A33B92946FD
:102DF0002046FEF7E5FD0028EDDA38BD6FF0010052
:102E0000FBE7000003691960C268013AC260C26949
:102E1000134482690361934224BF436A0361002320
:102E20008362036B03B118477047000070B520231D
:102E30000D460446114683F31188866A2EB9FFF7C2
:102E4000C7FF10B186F3118870BDA36A1D70A36A15
:102E5000E26A01339342A36204D3E1692046043954
:102E6000FFF7D0FF002080F31188EDE72DE9F84F40
:102E700004460D46904699464FF0200A8AF3118881
:102E80000026B346A76A4FB949462046FFF7A0FF80
:102E900020B187F311883046BDE8F88FD4E90A07DE
:102EA0003A1AA8EB0607974228BF1746402F1BD9AE
:102EB00005F1400355F8042B40F8042B9D42F9D14D
:102EC000A36A4033A3624036D4E90A239A4204D36A
:102ED000E16920460439FFF795FF8BF311884645D9
:102EE000D9D28AF31188CDE729463A46FDF7FAFE92
:102EF000A36A3B443D44A3623E44E5E7D0E9042392
:102F00009A4217D1C3689BB1836A8BB1043B9B1A69
:102F10000ED01360C368013BC360C3691A44836960
:102F200002619A4224BF436A036100238362012342
:102F3000184670470023FBE700F088B84FF0804345
:102F4000002258631A610222DA6070474FF0804312
:102F50000022DA60704700004FF0804358637047EA
:102F60004FF08043586A70474B6843608B688360BA
:102F7000CB68C3600B6943614B6903628B69436231
:102F80000B6803607047000008B5264B26481A6995
:102F900040F2FF110A431A611A6922F4FF7222F00B
:102FA00001021A611A691A6B0A431A631A6D0A43FD
:102FB0001A651E4A1B6D1146FFF7D6FF02F11C0170
:102FC00000F58060FFF7D0FF02F1380100F5806066
:102FD000FFF7CAFF02F1540100F58060FFF7C4FF5C
:102FE00002F1700100F58060FFF7BEFF02F18C0175
:102FF00000F58060FFF7B8FF02F1A80100F58060DE
:10300000FFF7B2FF02F1C40100F58060FFF7ACFFEB
:1030100002F1E00100F58060FFF7A6FFBDE808407F
:1030200000F09AB80038024000000240BC360008A8
:1030300008B500F007FAFEF733FCFFF78DF8BDE89E
:103040000840FEF755BE000070470000104B1A6C98
:1030500042F001021A641A6E42F001021A660D4A29
:103060001B6E936843F0010393604FF0804353223B
:103070009A624FF0FF32DA6200229A615A63DA6094
:103080005A6001225A6108211A601C20FFF774BDA2
:1030900000380240002004E04FF0804208B511697A
:1030A000D3680B40D9B2C9439B07116107D52023D0
:1030B00083F31188FEF714FC002383F3118808BD05
:1030C00008B5FFF7E9FFBDE80840FFF78FB800003B
:1030D0001F4B1A696FEAC2526FEAD2521A611A691B
:1030E000C2F308021A614FF0FF301A695A69586139
:1030F00000215A6959615A691A6A62F080521A624B
:103100001A6A02F080521A621A6A5A6A58625A6A35
:1031100059625A6A1A6C42F080521A641A6E42F06E
:1031200080521A661A6E0B4A106840F48070106064
:10313000186F00F44070B0F5007F1EBF4FF4803070
:1031400018671967536823F40073536000F05AB985
:103150000038024000700040334B4FF080521A6438
:10316000324A4FF4404111601A6842F001021A607D
:103170001A689107FCD59A6822F003029A602A4BDC
:103180009A6812F00C02FBD1196801F0F90119607C
:103190009A601A6842F480321A601A689203FCD569
:1031A0005A6F42F001025A671F4B5A6F9007FCD5C5
:1031B0001F4A5A601A6842F080721A601B4A5368AC
:1031C0005904FCD5184B1A689201FCD5194A9A602B
:1031D000194B1A68194B9A42194B21D1194A116897
:1031E000194A91421CD140F205121A60144A136820
:1031F00003F00F03052BFAD10B4B9A6842F0020241
:103200009A609A6802F00C02082AFAD15A6C42F4C9
:1032100080425A645A6E42F480425A665B6E70472E
:1032200040F20572E1E700BF003802400070004044
:103230000854400700948838002004E011640020FE
:10324000003C024000ED00E041C20F41084A08B5D1
:10325000516913680B4003F00103536123B1054A20
:1032600013680BB150689847BDE80840FEF7BEBF31
:10327000003C0140282D0020084A08B55169136818
:103280000B4003F00203536123B1054A93680BB16D
:10329000D0689847BDE80840FEF7A8BF003C014051
:1032A000282D0020084A08B5516913680B4003F027
:1032B0000403536123B1054A13690BB15069984760
:1032C000BDE80840FEF792BF003C0140282D0020D9
:1032D000084A08B5516913680B4003F008035361AD
:1032E00023B1054A93690BB1D0699847BDE80840FE
:1032F000FEF77CBF003C0140282D0020084A08B59D
:10330000516913680B4003F01003536123B1054A60
:10331000136A0BB1506A9847BDE80840FEF766BFD4
:10332000003C0140282D0020174B10B55A691C683D
:10333000144004F478725A61A30604D5134A936AC0
:103340000BB1D06A9847600604D5104A136B0BB1D5
:10335000506B9847210604D50C4A936B0BB1D06B88
:103360009847E20504D5094A136C0BB1506C984795
:10337000A30504D5054A936C0BB1D06C9847BDE802
:103380001040FEF733BF00BF003C0140282D002055
:103390001A4B10B55A691C68144004F47C425A61F7
:1033A000620504D5164A136D0BB1506D984723057D
:1033B00004D5134A936D0BB1D06D9847E00404D542
:1033C0000F4A136E0BB1506E9847A10404D50C4AF6
:1033D000936E0BB1D06E9847620404D5084A136F00
:1033E0000BB1506F9847230404D5054A936F0BB176
:1033F000D06F9847BDE81040FEF7F8BE003C014092
:10340000282D0020062108B50846FFF7B5FB062148
:103410000720FFF7B1FB06210820FFF7ADFB0621CF
:103420000920FFF7A9FB06210A20FFF7A5FB0621CB
:103430001720FFF7A1FBBDE8084006212820FFF771
:103440009BBB000008B5FFF743FE00F00BF8FDF74B
:10345000E5FEFDF7BDFDFFF7F7FDBDE80840FFF70E
:103460006BBD00000023054A19460133102BC2E949
:10347000001102F10802F8D1704700BF282D00208A
:10348000034611F8012B03F8012B002AF9D17047EC
:1034900053544D3332463F3F3F00000053544D33A9
:1034A00032463430780053544D333246343278004B
:1034B00053544D333246343436585800000000001F
:1034C000903400083F000000130400009C34000802
:1034D0003F00000019040000A63400083F0000006F
:1034E00021040000B03400083F000000000000008C
:1034F0004D0F0008390F0008750F0008610F000814
:103500006D0F0008590F0008450F0008310F000823
:10351000810F000800000000010000000000000012
:103520006D61696E0000000069646C650000000058
:1035300028350008D8230020502500200100000075
:103540009D180008000000004172647550696C6F9E
:10355000740025424F415244252D424C00255345CD
:103560005249414C2500000002000000000000000C
:1035700069110008D511000840004000E82900202A
:10358000F8290020020000000000000003000000F5
:1035900000000000191200080000000010000000E8
:1035A000082A0020000000000100000000000000C8
:1035B000B02C0020010102008D1C00089D1B00089A
:1035C000391C00081D1C000843000000D03500080D
:1035D00009024300020100C0320904000001020296
:1035E0000100052400100105240100010424020249
:1035F0000524060001070582030800FF09040100F5
:10360000020A0000000705010240000007058102D0
:1036100040000000120000001C36000812011001DA
:10362000020000400912415700020102030100009C
:103630000403090425424F41524425004D6174653D
:103640006B463430352D53544400303132333435E9
:1036500036373839414243444546000000400000B7
:103660000040000000400000004000000000010099
:103670000000020000000200000002000000020042
:103680000000020000000200000002000000000034
:103690005113000809160008B51600084000400044
:1036A000102D0020102D002001000000202D0020F2
:1036B00080000000400100000300000000008012B4
:1036C00000000000AAAAAAAA00000000FFBF000094
:1036D0000000000000A00A0000001400000000002C
:1036E000AAAAAAAA00001000FFFD00000000000026
:1036F000000000001500000000000000AAAAAAAA0D
:1037000015000000FFFF00000000000000000000A6
:103710000000000000000000AAAAAAAA0000000001
:10372000FFFF00000000000000000000000000009B
:1037300000000000AAAAAAAA00000000FFFF0000E3
:103740000000000000000000000000000000000079
:10375000AAAAAAAA00000000FFFF000000000000C3
:10376000000000000000000000000000AAAAAAAAB1
:1037700000000000FFFF000000000000000000004B
:1037800000000000000000000A000000000000002F
:103790000300000000000000000000000000000026
:1037A0000000000000000000000000000000000019
:1037B00000000000000000007D000000000000008C
:1037C00000000F0000000000FF009600000000084D
:1037D00000960000000008000400000030360008D9
:1037E00000000000000000000000000000000000D9
:0837F0000000000000000000D1
:00000001FF
