:020000040800F2
:1000000000090020B5040008CD250008852500085A
:10001000AD25000885250008A5250008B7040008BF
:10002000B7040008B7040008B7040008C135000889
:10003000B7040008B7040008B7040008B7040008B4
:10004000B7040008B7040008B7040008B7040008A4
:10005000B7040008B70400085D43000885430008A2
:10006000AD430008D5430008FD430008B70400086D
:10007000B7040008B7040008B7040008B704000874
:10008000B7040008B7040008B704000839250008C1
:100090006525000875250008B704000825440008F8
:1000A000B7040008B7040008B7040008B704000844
:1000B000F9440008B7040008B7040008B7040008B2
:1000C000B7040008B7040008B7040008B704000824
:1000D000B7040008B7040008B7040008B704000814
:1000E00089440008B7040008B7040008B7040008F2
:1000F000B7040008B7040008B7040008B7040008F4
:10010000B7040008B7040008B7040008B7040008E3
:10011000B7040008B7040008B7040008B7040008D3
:10012000B7040008B7040008B7040008B7040008C3
:10013000B7040008B7040008B7040008B7040008B3
:10014000B7040008B7040008B7040008B7040008A3
:10015000B7040008B7040008B7040008B704000893
:10016000B7040008B7040008B7040008B704000883
:10017000B7040008B7040008B7040008B704000873
:10018000B7040008B7040008B7040008B704000863
:10019000B7040008B7040008B7040008B704000853
:1001A0001112000800000000000000000000000024
:1001B00053B94AB9002908BF00281CBF4FF0FF31CE
:1001C0004FF0FF3000F074B9ADF1080C6DE904CECA
:1001D00000F006F8DDF804E0DDE9022304B0704722
:1001E0002DE9F047089D04468E46002B4DD18A42EA
:1001F000944669D9B2FA82F252B101FA02F3C2F11D
:10020000200120FA01F10CFA02FC41EA030E9440AD
:100210004FEA1C48210CBEFBF8F61FFA8CF708FBCE
:1002200016E341EA034306FB07F199420AD91CEBA6
:10023000030306F1FF3080F01F81994240F21C81D8
:10024000023E63445B1AA4B2B3FBF8F008FB103320
:1002500044EA034400FB07F7A7420AD91CEB040455
:1002600000F1FF3380F00A81A74240F20781644425
:10027000023840EA0640E41B00261DB1D4400023AA
:10028000C5E900433146BDE8F0878B4209D9002D0E
:1002900000F0EF800026C5E9000130463146BDE898
:1002A000F087B3FA83F6002E4AD18B4202D3824202
:1002B00000F2F980841A61EB030301209E46002DB1
:1002C000E0D0C5E9004EDDE702B9FFDEB2FA82F206
:1002D000002A40F09280A1EB0C014FEA1C471FFA64
:1002E0008CFE0126200CB1FBF7F307FB131140EA4B
:1002F00001410EFB03F0884208D91CEB010103F118
:10030000FF3802D2884200F2CB804346091AA4B2D9
:10031000B1FBF7F007FB101144EA01440EFB00FEAD
:10032000A64508D91CEB040400F1FF3102D2A64512
:1003300000F2BB800846A4EB0E0440EA03409CE7B1
:10034000C6F12007B34022FA07FC4CEA030C20FA5E
:1003500007F401FA06F31C43F9404FEA1C4900FA7E
:1003600006F3B1FBF9F8200C1FFA8CFE09FB1811FB
:1003700040EA014108FB0EF0884202FA06F20BD96E
:100380001CEB010108F1FF3A80F08880884240F2BE
:100390008580A8F102086144091AA4B2B1FBF9F002
:1003A00009FB101144EA014100FB0EFE8E4508D9FD
:1003B0001CEB010100F1FF346CD28E456AD9023882
:1003C000614440EA0840A0FB0294A1EB0E01A14267
:1003D000C846A64656D353D05DB1B3EB080261EBD5
:1003E0000E0101FA07F722FA06F3F1401F43C5E9AF
:1003F000007100263146BDE8F087C2F12003D840E5
:100400000CFA02FC21FA03F3914001434FEA1C4726
:100410001FFA8CFEB3FBF7F007FB10360B0C43EA18
:10042000064300FB0EF69E4204FA02F408D91CEBC8
:10043000030300F1FF382FD29E422DD902386344C6
:100440009B1B89B2B3FBF7F607FB163341EA034166
:1004500006FB0EF38B4208D91CEB010106F1FF38B5
:1004600016D28B4214D9023E6144C91A46EA0046AC
:1004700038E72E46284605E70646E3E61846F8E63E
:100480004B45A9D2B9EB020864EB0C0E0138A3E787
:100490004646EAE7204694E74046D1E7D0467BE768
:1004A000023B614432E7304609E76444023842E7E0
:1004B000704700BF02E000F000F8FEE772B6374870
:1004C00080F30888364880F3098836483649086042
:1004D00040F20000CCF200004EF63471CEF2000182
:1004E0000860BFF34F8FBFF36F8F40F20000C0F280
:1004F000F0004EF68851CEF200010860BFF34F8F36
:10050000BFF36F8F4FF00000E1EE100A4EF63C7122
:10051000CEF200010860062080F31488BFF36F8FCD
:1005200003F038FD03F0BAFD4FF055301F491B4A68
:1005300091423CBF41F8040BFAE71D49184A914229
:100540003CBF41F8040BFAE71A491B4A1B4B9A427D
:100550003EBF51F8040B42F8040BF8E7002018499D
:10056000184A91423CBF41F8040BFAE703F016FD2C
:1005700003F0E6FD144C154DAC4203DA54F8041BAD
:100580008847F9E700F042F8114C124DAC4203DA0B
:1005900054F8041B8847F9E703F0FEBC000900206B
:1005A000001100200000000808ED00E0000100201C
:1005B00000090020E0470008001100207C11002005
:1005C00080110020003B0020A0010008A4010008C9
:1005D000A4010008A40100082DE9F04F2DED108AB8
:1005E000C1F80CD0C3689D46BDEC108ABDE8F08F01
:1005F000002383F311882846A047002003F076F9F2
:10060000FEE703F0D9F800DFFEE70000F8B500F0E0
:1006100011FE03F061FC074603F0B2FC0546D0BBB7
:10062000294B9F4237D001339F4237D0274B27F0C9
:10063000FF029A4235D1F8B200F042FC2E4642F257
:10064000107400F043FC08B10024264601F0ACF819
:1006500058B3032000F03EF80024264635B11C4B69
:100660009F4203D003F084FC00242646002003F0C0
:100670003DFC0EB100F044F800F05AFC00F0DCFD47
:1006800001F0ACFF0546B4B900F09AFC4FF47A7063
:1006900003F032F9F7E72E460024D2E7044601269C
:1006A000CFE706464FF47A74CBE7002CD6D04FF450
:1006B0007A740126D2E701F091FF431BA342E3D9EC
:1006C00000F01EF8DCE700BF010007B0000008B032
:1006D000263A09B0084B187003280CD8DFE800F060
:1006E00008050208022000F005BE022000F0F8BD57
:1006F000024B00225A6070478011002084110020B4
:1007000010B501F051F830B1234B03221A70234B7E
:1007100000225A6010BD224B224A1C461968013142
:10072000F8D004339342F9D16268A242F2D31E4B4F
:100730009B6803F1006303F520439A42EAD203F079
:10074000E9FB03F0FBFB002000F090FD0220FFF727
:10075000C1FF164B9A6D00229A65996F9A67996F3F
:10076000D96DDA65D96FDA67D96F196E1A66D3F861
:100770008010C3F88020D3F8803072B64FF0E023A9
:100780003021C3F8084DD4E9003281F311889D4629
:1007900083F308881047BDE78011002084110020F2
:1007A00000A0000820A00008001100200010024056
:1007B000094A136849F2690099B21B0C00FB013326
:1007C0001360064B186844F2506182B2000C01FBC2
:1007D0000200186080B27047141100201011002030
:1007E00010B500211022044600F09EFD034B03CB00
:1007F000206061601868A06010BD00BF9075FF1F89
:100800002DE9F041ADF5507D0DF13C086EAC40F2A4
:10081000751207460D4610A80021C8F8001000F018
:1008200083FD4FF4C4720021204600F07DFD01F0ED
:10083000D5FE274B4FF47A72B0FBF2F0186093E8C4
:100840000700022384E807000DF5ED702382FFF70F
:10085000C7FF42F204631F49238407A803F058FF2F
:100860001E2384F832310DF2EB2207AB0DF1340C6C
:100870001E4603CE664510605160334602F1080201
:10088000F6D130681060B38893804146012220463B
:1008900000F096FD00230393AB7E029305F119034C
:1008A000019380B20123CDE904800093E97E06A381
:1008B000D3E90023384602F059FA0DF5507DBDE822
:1008C000F08100BFAFF300809E6AC421818A46EEAA
:1008D0008C110020204700082DE9F0412C4C237A90
:1008E000DAB080460D465BBB27A9284600F078FEAB
:1008F0000746002842D19DF89D60C82E3ED801468B
:100900004FF4A662204600F00FFD4FF48073C4F848
:10091000F8314FF40073C4F80C334FF44073C4F84B
:10092000203432460DF19E0104F1090000F0EAFC8A
:1009300026449DF89C30777223720BB9EB7E2372AC
:100940008122002106AC27A800F0EEFC01222146FE
:1009500027A800F081FE00230393AB7E029305F1EC
:10096000190380B201932823CDE904400093E97E66
:1009700005A3D3E90023404602F0F8F95AB0BDE8D8
:10098000F08100BFAFF3008026417272DF25D7B738
:10099000A8320020F0B5254E4FF48A7505FB00659E
:1009A000F1B096F8D83085F8DC300024D822214602
:1009B00085F8E8403AA800F0B7FC06F1090000F01D
:1009C000ABFCD5F8E4308DF8F000C2B206AF06F10A
:1009D00009010DF1F100CDE93A3400F093FC3946FC
:1009E00001223AA800F064FE80B2CDE90470082329
:1009F0000127CDE9023706F1D80301933023009394
:100A0000317A0B4807A3D3E9002302F0AFF9A042E3
:100A100006DD01F0E3FDC5F8E000384671B0F0BD39
:100A20002046FBE778F6339F93CACD8DA83200208D
:100A3000A42100202DE9F0411D4D1E4E1E4F86B011
:100A4000284602F0BFF9034658B30024CDE9034419
:100A5000ADF81440027B8DF8142099684068029428
:100A600003AA03C21B68DFF8548043F000430293DB
:100A700001F0B6FD821941F10003009402A9384645
:100A800001F078F8A04205DD284602F09FF988F8C9
:100A90000040D5E798F80030072B05D8013388F8D7
:100AA000003006B0BDE8F081014802F08FF9F8E7A8
:100AB000A421002040420F00D8210020DD37002073
:100AC00070B50D4614461E4602F0ACF850B9022E21
:100AD00010D1012C0ED112A3D3E90023C5E90023C4
:100AE000012007E0282C10D005D8012C09D0052CB6
:100AF0000FD0002070BD302CFBD10BA3D3E9002315
:100B0000ECE70BA3D3E90023E8E70BA3D3E9002329
:100B1000E4E70BA3D3E90023E0E700BFAFF30080D5
:100B2000401DA12026812A0B78F6339F93CACD8DD4
:100B30009E6AC421818A46EE26417272DF25D7B7AC
:100B4000F017304A39059E5638B505460E4C00213F
:100B5000013500F0ADFBA4F82C55B4F82C0500F0DD
:100B60008FFB78B1B4F82C0500F09AFB014648B928
:100B7000B4F82C0500F09CFBB4F82C350133A4F834
:100B80002C35EAE738BD00BFA832002010B50A4B6B
:100B90000A4A1A6003F5805393F860203AB9DC6D75
:100BA0002CB1204600F07EFE204603F0F1FCBDE8AB
:100BB0001040034800F076BED82100207C47000892
:100BC000203200202DE9F04F8FB000AF05460C46D3
:100BD00002F028F8002849D1237E022B1BD1E38A9A
:100BE000012B18D101F0FAFC0646FFF7E1FD0346A0
:100BF0004FF4C870DFF8C482B3FBF0F206F5167646
:100C000002FB103316FA83F3C8F80030E37E33B9E1
:100C1000A34B00221A703C37BD46BDE8F08F07F1A8
:100C20002401204600F09AFC0028F4D107F11400BA
:100C3000FFF7D6FD97F8264007F11401224607F189
:100C4000270003F0EFFC0028E2D10F2C08D8944BCA
:100C50001C70D8F80030A3F51673C8F80030DAE736
:100C600097F82410284601F0D5FFD4E7E38A282B13
:100C70002BD010D8012B23D0052BCCD1BFF34F8F15
:100C80008849894BCA6802F4E0621343CB60BFF322
:100C90004F8F00BFFDE7302BBDD1844EE17E327A0D
:100CA0009142B8D1607E3146002291F8DC508542F5
:100CB00000F0A5800132042A01F58A71F5D1AAE776
:100CC00021462846FFF79CFDA5E721462846FFF769
:100CD00003FEA0E7B2F8EC507B6005F103094FEA90
:100CE00099094FEA8902D11DC908A8EBC1039D46A5
:100CF000EB460021584600F017FB04F1EE012A46AE
:100D00003144584600F0FEFA7B6813B9012000F028
:100D1000ADFA96F8D20000F0B3FA044630B930725A
:100D200000F0CEFA204600F0A1FAB1E0D6F8D420C7
:100D30003AB996F8D200B6F82C25824201D8FFF7CE
:100D400003FFD6F8D4202A44944208D296F8D20061
:100D5000B6F82C250130824201D8FFF7F5FE706805
:100D60005FFA89F2594600F0E7FA08B9C54679E01A
:100D7000726896F8D2002A447260D6F8D42005EB47
:100D80000209C6F8D49000F07BFA814509D396F8A1
:100D9000D220D6F8D4000132001B86F8D220C6F843
:100DA000D400FF2D0FD80024347200F089FA2046B9
:100DB00000F05CFA00F0F8FC3D4B188108B9FFF731
:100DC0009FFCC54627E7BB6896F8D9000AFB03627B
:100DD000FB68D2F8E41082F8E83001F58061C2F8CF
:100DE000E030C2F8E410FFF7D5FDFFF723FE96F8D8
:100DF000D920013202F0030286F8D920B6E74FF479
:100E00008A7A0AFB02F505F1EA013144204600F036
:100E10007BFCF86000287FF4FEAE3544012285F8A3
:100E2000E82001F0DBFBD5F8E020D6ED007ADFED1D
:100E3000216A801A192838BF192040F6B83290422A
:100E400028BF1046B8EE677A07EE900AF8EEE77A08
:100E500067EEA67ADFED186AE7EE267AFCEEE77A0F
:100E6000C6ED007A96F8D930BB60BA6873680AFBA1
:100E700002F4321992F8E81059B1D2F8E4108B421A
:100E8000E8463FF427AF002182F8E810C2F8E010EE
:100E9000C5467368064A9B0A01331381BBE600BF4F
:100EA0009D21002000ED00E00400FA05A83200209A
:100EB0008C110020CDCCCC3D6666663FA021002081
:100EC000014B1870704700BF9811002038B54FF0E3
:100ED0000054134B22689A4220D1124B627D124873
:100EE0001A70237D03724FF48073C0F8F8314FF409
:100EF0000073C0F80C3300254FF44073C0F8203461
:100F00000A49C0F8E450C922093000F0FBF9E02298
:100F10002946204600F008FA012038BD0020FCE7F1
:100F20009AAD44C598110020A83200201600002078
:100F300037B500F039FC194D1949288102230122E7
:100F400018486B7101F0E8F900230193164B17491B
:100F500000931748174B4FF4805201F033FE164BA5
:100F6000197811B1124801F055FE01F037FB044623
:100F7000FFF71EFC4FF4C873B0FBF3F202FB130340
:100F800004F5167010FA83F00C4B186002F0F8FFAD
:100F900008B10F232B8103B030BD00BF8C1100209E
:100FA00040420F00D8210020C10A00089C110020F7
:100FB000A4210020C50B000898110020A0210020CA
:100FC0002DE9F04F2DED028B0FF23829D9E9008978
:100FD000834C93B00BAE9FED7E8BFFF72BFD814FC3
:100FE000DFF828A200230A93ADF834300B93736026
:100FF0004FF0000B5B468DED008B01250DF11D02BE
:1010000007A938468DF81C508DF81DB001F034F951
:101010009DF81C30002B40F0A580204601F002FE18
:101020000646002845D1704F01F0D8FA3B68984237
:101030003FD301F0D3FA8246FFF7BAFB4FF4C873EF
:10104000B0FBF3F202FB13030AF5167010FA83F0FB
:101050003860664F97F800B0CBF1100ABBF1000F73
:1010600014BF33462B465FFA8AFA0EA88DF8283053
:10107000FFF7B6FBBAF1060F28BF4FF0060A0EAB1A
:1010800003EB0B0152460DF1290000F03BF90AABCE
:101090000393182302930AF10102554BD2B2CDE912
:1010A0000053049220464CA3D3E9002301F000FE34
:1010B0003E7001F093FA4F4A4F4D1368C31AB3F5CF
:1010C0007A7F2ED3106001F08BFA02460B46204641
:1010D00001F086FE204601F0A5FD10B32B7A474EA5
:1010E000002B14BF03230223737101F077FA0EAFB4
:1010F0004FF47A730122B0FBF3F03946306030468A
:1011000000F004FA182302933D4B019380B240F2A1
:101110005513CDE90370009342464B46204601F03B
:10112000C7FD2B7A93B101F059FA002607464FF418
:101130008A7A95F8D900304400F003000AFB005386
:1011400093F8E82092B30136042EF2D1C82002F0C1
:10115000D3FB2B7A002B7FF43DAF13B0BDEC028B99
:10116000BDE8F08FDAF8143083F00803CAF81430C1
:10117000594610220EA800F0D7F80DF11E0308AA58
:101180000AA9384600F0F4FD96E803000FAB83E8A7
:1011900003009DF834308DF844300A9B0E930EA95D
:1011A000DDE90823204601F0EFFF21E7D3F8E02036
:1011B00042B12B68FA2B38BFFA23BA1A0533B2EBC7
:1011C000430FC0D3FFF7E6FB0028BCD1BEE700BF4A
:1011D0000000000000000000401DA12026812A0B15
:1011E000A4210020D8210020A02100209D21002042
:1011F0009C210020D8370020A83200208C1100202C
:10120000DC370020F1C6A7C1D068080F00040048F1
:1012100008B5054800F046FEBDE80840034A044909
:10122000002003F0AFB900BFD821002018380020FB
:101230008D0B00087047000070B502F0E9FC094E04
:10124000094D3080002428683388834208D902F091
:10125000DBFC2B6804440133B4F5204F2B60F2D340
:1012600070BD00BF0C380020E037002002F082BDC6
:1012700000F10060920000F5204002F005BD000082
:10128000054B1A68054B1B889B1A834202D91044F0
:1012900002F0BABC00207047E03700200C38002074
:1012A000024B1B68184402F0B5BC00BFE0370020B9
:1012B000024B1B68184402F0BFBC00BFE03700209F
:1012C000064991F8243033B10023086A81F82430AC
:1012D0000822FFF7CDBF0120704700BFE437002090
:1012E000022802BF024B4FF400229A61704700BFF0
:1012F00000040048022802BF014B08229A6170478F
:101300000004004810B50023934203D0CC5CC454C1
:101310000133F9E710BD000003460246D01A12F966
:10132000011B0029FAD1704702440346934202D0C0
:1013300003F8011BFAE770472DE9F8431F4D1446E7
:1013400095F824200746884652BBDFF870909CB37E
:1013500095F824302BB92022FF2148462F62FFF751
:10136000E3FF95F82400C0F10802A24228BF2246FC
:10137000D6B24146920005EB8000FFF7C3FF95F817
:101380002430A41B1E44F6B2082E17449044E4B245
:1013900085F82460DBD1FFF793FF0028D7D108E060
:1013A0002B6A03EB82038342CFD0FFF789FF00282B
:1013B000CBD10020BDE8F8830120FBE7E437002013
:1013C0002DE9F0470D46044600219046284640F29C
:1013D0007912FFF7A9FF234620220021284601F0B9
:1013E00075FE231D02222021284601F06FFE631D99
:1013F00003222221284601F069FEA31D0322252194
:10140000284601F063FE04F1080310222821284633
:1014100001F05CFE04F1100308223821284601F097
:1014200055FE04F1110308224021284601F04EFE2A
:1014300004F1120308224821284601F047FE04F176
:10144000140320225021284601F040FE04F1180325
:1014500040227021284601F039FE04F120030822C1
:10146000B021284601F032FE04F121030822B82100
:10147000284601F02BFE04F12207C0263B463146E8
:1014800008222846083601F021FEB6F5A07F07F1B4
:101490000107F3D104F1320308223146284601F056
:1014A00015FE002704F1330A94F832304FEAC709D9
:1014B0009F4209F5A47615D3B8F1000F08D1314643
:1014C00004F599730722284601F000FE09F24F1631
:1014D000274694F832213B1B93420CD3F01DC008E1
:1014E000BDE8F0870AEB070308223146284601F0E1
:1014F000EDFD0137D8E707F23313314608222846BD
:1015000001F0E4FD08360137E3E7000013B50446B7
:101510000846002101602346C0F8031020220190F4
:1015200001F0D4FD0198231D0222202101F0CEFDFF
:101530000198631D0322222101F0C8FD0198A31D1B
:101540000322252101F0C2FD019804F108031022B5
:10155000282101F0BBFD072002B010BDF7B5002324
:10156000047F00910E4607221946054601F072FCE1
:10157000731C0093012200230721284601F06AFC16
:10158000C4B9B31C0093052223460821284601F064
:1015900061FC0D243746B278BB1B934211D32B7FDD
:1015A000A88A0734E408BBB9844294BF0020012014
:1015B00003B0F0BDAB8ADB00083BDB08B370082446
:1015C000E8E7FB1C0093214600230822284601F08F
:1015D00041FC08340137DEE7201A18BF0120E7E795
:1015E000F7B50023047F00910E46082219460546F0
:1015F00001F030FC731CC4B9082200931146234645
:10160000284601F027FC1024012372785F1C013B5F
:10161000934211D32B7FA88A0734E408BBB98442D4
:1016200094BF0020012003B0F0BDAB8ADB00083B73
:10163000DB0873700824E7E7F319009321460023C1
:101640000822284601F006FC08343B46DDE7201A54
:1016500018BF0120E7E70000F8B50E46054614461E
:10166000002181223046FFF75FFE2B460822002131
:10167000304601F02BFD7CB96B1C07220821304657
:1016800001F024FD0F2401236A785F1C013B934283
:1016900004D3E01DC008F8BD0824F4E7EB19214687
:1016A0000822304601F012FD08343B46ECE700000A
:1016B000F8B50E46054614460021CE223046FFF707
:1016C00033FE2B4628220021304601F0FFFC7CB976
:1016D00005F1080308222821304601F0F7FC3024E8
:1016E0002F462A7A7B1B934204D3E01DC008F8BD25
:1016F0002824F5E707F1090321460822304601F0C6
:10170000E5FC08340137ECE7F7B5047F00910E469D
:10171000012310220021054601F09CFBC4B9B31C33
:101720000093092223461021284601F093FB192437
:1017300037467288BB1B9A4211D82B7FA88A073480
:10174000E408BBB9844294BF0020012003B0F0BD7F
:10175000AB8ADB00103BDB0873801024E8E73B1DFD
:101760000093214600230822284601F073FB083429
:101770000137DEE7201A18BF0120E7E730B5094D31
:101780000A4491420DD011F8013B5840082340F320
:101790000004013B2C4013F0FF0384EA5000F6D113
:1017A000EFE730BD2083B8EDF7B5384A10685168CF
:1017B0006B4603C36A4636493648082302F042FFA7
:1017C0000446002833D10A25334A106851686B4615
:1017D00003C36A4631492F48082302F033FF044609
:1017E000002849D00369B3F5583F45D8B0F86610D2
:1017F00040F2264291423FD1294A024402F15C0163
:101800008B4239D35C3B234900209E1AFFF7B6FF79
:101810003246074604F164010020FFF7AFFFA368DA
:101820009F4229D1E368984208BF002524E003695C
:10183000B3F5583F27D8418B40F22642914220D140
:10184000174A024402F110018B4218D3103B114990
:1018500000209D1AFFF792FF2A46064604F1180160
:101860000020FFF78BFFA3689E4202D1E3689842F5
:1018700001D00D25A8E70025284603B0F0BD1025AE
:10188000A2E70C25A0E70B259EE700BF4047000814
:10189000DC5F030000A0000849470008905F0300D8
:1018A0000860FFF710B5037C044613B9006802F026
:1018B000B1FE204610BD00000023BFF35B8FC36064
:1018C000BFF35B8FBFF35B8F8360BFF35B8F7047AA
:1018D000BFF35B8F0068BFF35B8F704770B5054641
:1018E0000C30FFF7F5FF05F1080604463046FFF718
:1018F000EFFFA04206D930466D68FFF7E9FF2544A7
:10190000281A70BD3046FFF7E3FF201AF9E7000000
:1019100070B50546406898B105F10800FFF7D8FF9B
:1019200005F10C0604463046FFF7D2FF84423046EC
:1019300094BF6D680025FFF7CBFF013C2C44201AB3
:1019400070BD000038B50C460546FFF7C7FFA04242
:1019500010D305F10800FFF7BBFF04446868B4FB2F
:10196000F0F100FB1144BFF35B8F0120AC60BFF3CB
:101970005B8F38BD0020FCE72DE9F0411446074697
:101980000D46FFF7C5FF844228BF0446D4B1B846D0
:1019900058F80C6B4046FFF79BFF304428604046E8
:1019A0007E68FFF795FF331A9C4203D86C600120D4
:1019B000BDE8F0816B60A41B3B68AB602044E8602D
:1019C0000220F5E72046F3E738B50C460546FFF759
:1019D0009FFFA04210D305F10C00FFF779FF0444EC
:1019E0006868B4FBF0F100FB1144BFF35B8F01208A
:1019F000EC60BFF35B8F38BD0020FCE72DE9FF41B1
:101A0000884669460746FFF7B7FF6C4606B204EB07
:101A1000C6060025B44209D06268206808EB0501BB
:101A2000FFF770FC636808341D44F3E72946384625
:101A3000FFF7CAFF284604B0BDE8F081F8B50546B7
:101A40000C300F46FFF744FF05F108060446304608
:101A5000FFF73EFFA042304688BF6C68FFF738FFB3
:101A6000201A386020B130462C68FFF731FF20443F
:101A7000F8BD000073B5144606460D46FFF72EFF6D
:101A8000844228BF04460190DCB101A93046FFF72B
:101A9000D5FF019B33B93268C5E90233C5E900249B
:101AA00001200CE09C4238BF0194286001986860D6
:101AB0008442F5D93368AB60241AEC60022002B08E
:101AC00070BD2046FBE700002DE9FF410F46694647
:101AD000FFF7D0FF6C4600B204EBC0050026AC4215
:101AE00009D0D4F8048054F8081BB8194246FFF70F
:101AF00009FC4644F3E7304604B0BDE8F08100003D
:101B000038B50546FFF7E0FF044601462846FFF7D3
:101B100019FF204638BD0000302383F3118862B6D8
:101B200070470000002383F3118862B670470000FD
:101B300010B4026854681A4623465DF8044B1847EF
:101B40000120704700207047002070477047000058
:101B5000002070470E20704700F5805090F8C800B4
:101B6000C0F340007047000000F5805090F9C900B4
:101B700070470000F7B50C68BDF8207014F00054F1
:101B80001E466FD10B7B082B6CD8FFF7C5FF45694C
:101B9000AB685B010CD4AB681B0108D4AC6814F0D3
:101BA00080545DD1FFF7BEFF204603B0F0BD012495
:101BB0000B6804F1180C002BB8BFDB004FEA0C1CBB
:101BC000B4BF43F004035B0545F80C300B680FFA13
:101BD00084FC13F0804F18BF05EB0C1E05EB0C1CAA
:101BE0001EBFDEF8803143F00203CEF880310B7B5C
:101BF000CCF8843105EB04158B68C5F88C314B6843
:101C0000C5F88831DCF8803143F00103CCF880312D
:101C100000EB441541F268031D4403EB44130344F5
:101C2000C5E9002608330D4601F10C0C55F804EB0C
:101C300043F804EB6545F9D184342D881D8000EB11
:101C4000441407F00303257925F00B052B4323717A
:101C5000FFF768FF0097334600F0E2FC0120A4E79D
:101C60000224A5E74FF0FF309FE7000013B500F511
:101C700080540191E06DFFF74BFE1F280AD90199AE
:101C8000E06D2022FFF7BAFEA0F120035842584130
:101C900002B010BD0020FBE708B500F58050FFF74B
:101CA0003BFFC06DFFF708FEBDE80840FFF73ABFF5
:101CB00000220260828142608260704710B500227B
:101CC0000023C0E900230023044603810C30FFF702
:101CD000EFFF204610BD0000F0B5054600F580502E
:101CE0000C4690F8C83013F0040FC3F3800108BF0E
:101CF000114661F3820304F1840680F8C83005EBD5
:101D0000461389B01B79D8072ED57AB319072DD47D
:101D10006846FFF7D3FF05EB441303F5835303F144
:101D2000180703AA103318685968144603C4083307
:101D3000BB422246F7D1186820609B88A380DDE96A
:101D40000E23CDE900230123ADF808302B68694646
:101D5000DB6B2846984705EB46152B791A075CBFC5
:101D600043F008032B7101E0002AF4D109B0F0BD63
:101D70002DE9F047074688B007F5805468469A4633
:101D80008846FFF7C9FE9146FFF798FFE06DFFF721
:101D9000A5FD1F2829D9E06D20226946FFF7B0FE76
:101DA000202822D103AD444605AB2E4603CE9E42E9
:101DB00020606160354604F10804F6D13068206087
:101DC000B388A380DDE90023C9E90023BDF808300A
:101DD000AAF80030FFF7A6FE4A4653464146384669
:101DE00008B0BDE8F04700F009BCFFF79BFE0020FB
:101DF00008B0BDE8F08700002DE9F84F0023C0E9E6
:101E00000133254B044640F8183B0F46FFF750FFBF
:101E100004F12800FFF752FF04F1480804F5825549
:101E20004646083530462036FFF748FFAE42F9D126
:101E300004F580554FF480534FF00009C5E913397C
:101E4000C5F848800123EE6504F5875804F58456EB
:101E5000C5F8549085F8583085F86030083608F198
:101E600008084FF0000A4FF0000B46E908ABA6F156
:101E70001800FFF71DFF203646F8289C4645F4D190
:101E800085F8C97017B1054800F0A2FB044B6361E7
:101E90002046BDE8F88F00BF7C4700085447000883
:101EA0000064004010B5044B197804464A1C1A70AF
:101EB000FFF7A2FF204610BD143800202DE9F0479F
:101EC000002950D0294B2A4FB7FBF1F599428CBF1E
:101ED0000A231123581EB5FBF3FC03FB1C53C4B2A9
:101EE0002BB102280346F5D80020BDE8F0870CF19D
:101EF000FF36B6F5806FF7D2C4EBC40E0EF10303C4
:101F00004FEAE309C3F3C703A4EB030809F1010A8D
:101F10004FF47A755FFA88F009FB05555AFA88F88C
:101F2000B5FBF8F5B5F5617FC1BF0EF1FF33C3F323
:101F3000C703E01AC0B25C1C50FA84F40CFB04F432
:101F4000B7FBF4F4A142CFD1013BDBB20F2BCBD8CE
:101F50000138C0B20728C7D80021107116809170CF
:101F6000D3700120C1E70846BFE700BF3F420F0022
:101F700000B4C40470B505460E464FF47A746B691C
:101F80005B6803F00103B34207D04FF47A7001F0AD
:101F9000B3FC013CF3D1204670BD0120FCE70000FA
:101FA00030B54269936913F0700F16D000230B4CC3
:101FB000936103F1840200EB421211794D0709D5B8
:101FC000890707D5416954F823508D60117941F094
:101FD000040111710133032BEBD130BD68470008B8
:101FE00073B51D46436916469A68D207044609D55B
:101FF0009A6801219960C2F34002CDE90065002191
:10200000FFF76AFE63699A68D1050BD59A684FF4A9
:1020100080719960C2F34022CDE90065012120461C
:10202000FFF75AFE63699A68D2030BD59A684FF49A
:1020300080319960C2F34042CDE90065022120461B
:10204000FFF74AFE204602B0BDE87040FFF7A8BF88
:10205000F8B50446466900296CD106F10C073868CA
:1020600080076AD006EB01153868D5F8B00110F08A
:10207000040FD5F8B0011ABFC00840F00040400D71
:10208000A061D5F8B0C11CF0020F1CBF40F0804029
:10209000A061D5F8B40106EB011100F00F0084F83F
:1020A0002400D1F8B8012077D1F8B801000A607790
:1020B000D1F8B801000CA077D1F8B801000EE07794
:1020C000D1F8BC0184F82000D1F8BC01000A84F8E2
:1020D0002100D1F8BC01000C84F82200D1F8BC1119
:1020E000090E84F823103821396004F1340004F11A
:1020F000180104F1240551F8046B40F8046BA9425F
:10210000F9D109880180C4E90A23214600232386E6
:1021100051F8283B2046DB6B984704F58052204657
:1021200092F8C83043F0040382F8C830BDE8F840A4
:10213000FFF736BF06F1100791E7F8BD10B504466A
:1021400000F04EFA02460B4652EA030102D0013A71
:1021500063F100030449086820B12146BDE810403E
:10216000FFF776BF10BD00BF10380020F8B500F5AE
:1021700083511E46FFF7D0FCDFF844C0083100242D
:1021800004F1840500EB45152B795F070ED4DB06BF
:102190000CD5D1E900739742B34107D243695CF88B
:1021A00024709F602B7943F004032B710134032CBE
:1021B00001F12001E4D1BDE8F840FFF7B3BC00BF56
:1021C0006847000808B5FFF7A7FCFFF7E9FEBDE880
:1021D0000840FFF7A7BC0000F8B5436905469868BA
:1021E00000F0E050B0F1E05F0F461FD0E8B1FFF71C
:1021F00093FC05F583541034002606F1840305EBA7
:1022000043131B791A0706D50136032E04F1200467
:10221000F3D1012007E05B07F6D42146384600F0F1
:1022200039FA0028F0D1FFF77DFCF8BD0120FCE76A
:1022300000F5805008B5FFF76FFCC06DFFF74EFB4F
:10224000FFF770FC43090CBF0120002008BD00000F
:10225000F8B51D46002313700F4606461446FFF7D7
:10226000E7FF80F00100387025B129463046FFF7BE
:10227000B3FF2070F8BD00002DE9B8410C461546AB
:102280001F46804600F0ACF90B462178024609B99A
:10229000287850B14046FFF769FFFFF793FF3B46B0
:1022A0002A462146FFF7D4FF0120BDE8B88100008F
:1022B00010B5FFF731FC174B9A6D42F000729A652A
:1022C0009A6B42F000729A639A6B00F5805422F088
:1022D00000729A63FFF726FC94F8C830DB0718D425
:1022E000B9B103211320FFF717FC01F0DBF903213B
:1022F000142001F0D7F90321152001F0D3F994F847
:10230000C83043F0010384F8C830BDE81040FFF73F
:1023100009BC10BD001002402DE9F04700F58055C2
:1023200088B095F8C930012B0446884616467FD8F8
:10233000804F57F823200AB947F82300D7F800A0A8
:10234000C4F80C802674BAF1000F63D095F8C93038
:10235000012B6FD001212046FFF7AAFFFFF7DCFB1E
:102360006269136823F0020313606269136843F023
:1023700001031360636900275F6101212046FFF7B5
:10238000D1FBFFF7F7FD002800F09580E86DFFF71F
:1023900093FA04F58359BA4609F10809202200216D
:1023A0006846FEF7C1FF02A8FFF782FCCDF818A02F
:1023B0006A4609EB07030DF1180E9446BCE80300CA
:1023C000F44518605960624603F10803F5D1DCF862
:1023D0000000186020379CF804201A71602FDDD1AE
:1023E00095F8C8306FF38203002785F8C8306A4635
:1023F00041462046ADF80070ADF802708DF80470CB
:10240000FFF75CFD636948BB4FF400421A6008B0F7
:10241000BDE8F08741F2D00002F0BCF8814610B16F
:102420005146FFF7E9FCC7F80090B9F1000F8DD1D4
:102430000020ECE7386803681B6B984701460028CA
:1024400088D13868FFF734FF3868036832465B6824
:102450004146984700287FF47DAFE9E761221A6082
:102460009DF802309DF803201B06120402F470222E
:1024700003F040731343BDF80020C2F30902134375
:102480009DF804201205022E02F4E0020CBF4FF06A
:1024900000410021134362690B43D3616369132236
:1024A0005A616269136823F00103136039462046BC
:1024B000FFF760FD08B96369A6E795F8C93093BBDB
:1024C0006169D1F8002242F00102C1F8002261697D
:1024D000D1F8002222F47C5222F00E02C1F8002230
:1024E0006169D1F8002242F46062C1F80022626999
:1024F000C2F814326269C2F80432626941F6FF71AF
:10250000C2F80C126269C2F840326269C2F8443201
:1025100063690122C3F81C226269D2F8003223F0F9
:102520000103C2F8003295F8C83043F0020385F881
:10253000C8306CE71038002008B500F051F850EAB8
:102540000103024602D0421E61F10001044B1868EB
:1025500010B10B46FFF744FDBDE8084001F064B838
:102560001038002008B50020FFF7E8FDBDE808405E
:1025700001F05AB808B50120FFF7E0FDBDE80840BA
:1025800001F052B800B59BB0EFF3098168226846AC
:10259000FEF7B8FEEFF30583014B9B6BFEE700BF30
:1025A00000ED00E008B5FFF7EDFF000000B59BB0BF
:1025B000EFF3098168226846FEF7A4FEEFF3058376
:1025C000014B5B6BFEE700BF00ED00E0FEE70000A3
:1025D0000FB408B5029801F025F9FEE701F016BC2A
:1025E00001F0EEBB13B56C4684E80600031D94E8C9
:1025F000030083E80500012002B010BD73B58568B3
:10260000019155B11B885B0707D4D0E900369B6B5D
:102610009847019AC1B23046A847012002B070BD68
:10262000F0B5866889B005460C465EB1BDF8383015
:102630005B070AD4D0E900379B6B98472246C1B2AA
:102640003846B047012009B0F0BD00220023CDE993
:1026500000230023ADF808300A4603AB01F1080659
:10266000106851681C4603C40832B2422346F7D1B1
:10267000106820609288A280FFF7B2FF0423ADF8B3
:1026800008302B68CDE90001DB6B69462846984786
:10269000D8E7000030B503680968DD0FB5EBD17FDE
:1026A00023F0604421F060424FEAD1700BD0002B40
:1026B000B8BFA40C0029B8BF920C944202D034BF1A
:1026C0000120002030BD944205D1C1F38070C3F3D6
:1026D00080738342F6D194422CBF00200120F1E7A1
:1026E0002DE9F041456A15B94162BDE8F0814B68BA
:1026F00023F06047C3F38A464FEAD37EC3F3807862
:1027000016EA230638BF3E46AC462B465A68BEEB57
:10271000D27F22F060440AD0002A18DAA40CB44216
:1027200017D19D420FD10D60DEE71346EEE7A742B9
:1027300007D102F08044C2F3807242450BD054B1FD
:10274000EFE708D2EDE7CCF800100B60CDE7B4421C
:1027500001D0B442E5D81A689C46002AE5D1196038
:10276000C3E700002DE9F047089D01F007044FEA98
:10277000D508224405F0070500EBD1004FF47F494E
:10278000944201D1BDE8F08704F0070705F0070A7D
:1027900057453E4638BF5646C6F10806111B8E42C5
:1027A00028BF0E46E10808EBD50E415C13F80EC0B9
:1027B000B94029FA06F721FA0AF1FFB28CEA0101C1
:1027C00047FA0AF739408CEA010C03F80EC034448A
:1027D0003544D5E780EA0120082341F2210201B205
:1027E0004000002980B203F1FF33B8BF504013F01E
:1027F000FF03F4D17047000038B50C468D18A54290
:1028000000D138BD14F8011BFFF7E4FFF7E7000023
:1028100042684AB1136843604389818901339BB29E
:102820009942438138BF83811046704770B588B0A4
:10283000202204460D4668460021FEF775FD20461D
:102840000495FFF7E5FF024658B16B46054608AE12
:102850001C4603CCB44228606960234605F1080594
:10286000F6D1104608B070BD082817D909280CD039
:102870000A280CD00B280CD00C280CD00D280CD01A
:102880000E2814BF4020302070470C2070471020C5
:1028900070471420704718207047202070470000B0
:1028A000082817D90C280CD910280CD914280CD9B1
:1028B00018280CD920280CD930288CBF0F200E20C6
:1028C0007047092070470A2070470B2070470C2082
:1028D00070470D20704700002DE9F843078C072F43
:1028E00004461ED9D0E9029800254FF6FF73C5F1C2
:1028F0002006A5F1200029FA05F108FA06F628FAC3
:1029000000F031430143C9B21846FFF763FF0835B1
:10291000402D0346EBD1E1693A46BDE8F843FFF7A5
:102920006BBF4FF6FF70BDE8F883000010B54B6831
:1029300023B9CA8A63F30902CA8210BD04691A68FE
:102940001C600361C38A013BC3824A60EFE7000059
:102950002DE9F84F1D46CB8A0F46C3F3090105291F
:10296000814692460B4630D00020AAB207F11A04E5
:102970009EB2042E1FFA80F80FD8904503F1010390
:1029800006D3FB8A0A4462F30903FB8201201AE0A2
:102990001AF80060E6540130EAE79045F1D2A1F15F
:1029A000050B1C237C68BBFBF3F203FB12BB1FFA75
:1029B0008BF6002C45D14846FFF72AFF044638B96C
:1029C00078606FF00200BDE8F88F4FF00008E6E78E
:1029D000002606607860ADB24FF0000B454510D977
:1029E0000AEB0803221D13F8011B9155B1B208F13F
:1029F00001081B291FFA88F82BD0454506F101066E
:102A0000F1D8FB8AC3F30902154465F30903BCE757
:102A1000013292B21C462368002BF9D16B1F0B4484
:102A20001C21B3FBF1F301339BB29A42D3D2BBF129
:102A3000000FD0D14846FFF7EBFE20B9C4F800B034
:102A4000BFE70122E7E7C0F800B05E462060044619
:102A5000C1E74545D5D94846FFF7DAFE08B92060F9
:102A6000AFE7C0F800B0002620600446B6E70000DB
:102A70002DE9F04F2DED028B1C4683B05B6901926E
:102A800007468846002B00F09A80238C2BB1E26920
:102A9000002A00F09480072B35D807F10C00FFF7CF
:102AA000B7FE054638B96FF00205284603B0BDEC05
:102AB000028BBDE8F08F14220021FEF735FC228C3A
:102AC000E16905F10800FEF71DFC208C013080B2A1
:102AD000FFF7E6FEFFF7C8FE013880B22084013020
:102AE00028746369228C1B782A4403F01F0363F067
:102AF0003F0348F000411372384669602946FFF7EA
:102B0000EFFD0125D1E700F10C034FF0000908EEBD
:102B1000103A4FF0800A4E464D4618EE100AFFF765
:102B200077FE83460028BED014220021FEF7FCFB6E
:102B3000002E3AD1019BABF8083002220BF1080EAF
:102B40001FFA82FC0CF10100BCF1060F218C80B24F
:102B500001D88E422BD3FFF7A3FEFFF785FE6269F3
:102B60001278013802F01F028E4208BF4FF0400A6F
:102B700042EA49121BFA80F14AEA020A013048F09F
:102B8000004281F808A08BF81000CBF804205946C9
:102B90003846FFF7A5FD238C0135B3422DB289F0ED
:102BA00001094FF0000AB8D17FE70022C6E7E169CA
:102BB000895D0EF802100136B6B20132C0E76FF03F
:102BC000010572E7F8B515460E463022002104468D
:102BD0001F46FEF7A9FB069B6360B5F5001F079B28
:102BE000A76034BF6A094FF6FF72A36297B2E6612D
:102BF00004F1100000239A4206D800230360A78244
:102C0000E3822383E360F8BD06600133304620365B
:102C1000F1E7000003781BB94BB2002BC8BF01706D
:102C20007047000000787047F8B50C46C969074640
:102C300011B9238C002B37D1257E1F2D34D838783D
:102C400028BB228C072A2CD8268A36F003032BD1E6
:102C50004FF6FF70FFF7D0FD20F001003102400475
:102C600041EA0561400C41EA40254FF6FF722346D8
:102C700029463846FFF7FCFE002807DD6269137815
:102C80000133DBB21F2B88BF00231370F8BD218AEC
:102C90002D0645EA012505432046FFF71DFE0246A5
:102CA000E5E76FF00300F1E76FF00100EEE70000E9
:102CB00070B58AB0044616460021282268461D4693
:102CC000FEF732FBBDF83830ADF810300F9B05939E
:102CD0009DF840308DF81830119B07936946BDF878
:102CE0004830ADF820302046CDE90265FFF79CFF63
:102CF0000AB070BD2DE9F041D36905460C46164671
:102D00000BB9138C5BBB377E1F2F28D895F800803A
:102D1000B8F1000F26D03046FFF7DEFD33782102F0
:102D200041EAC33141EA0801338A41EA076141EAD5
:102D300003410246334641F080012846FFF798FEE2
:102D400000280ADD3378012B07D17269137801332B
:102D5000DBB21F2B88BF00231370BDE8F0816FF03A
:102D60000100FAE76FF00300F7E70000F0B58BB061
:102D700004460D4617460021282268461E46FEF7E7
:102D8000D3FA9DF84C305A1E534253418DF800300F
:102D90009DF84030ADF81030119B05939DF84830F8
:102DA0008DF81830149B07936A46BDF85430ADF87F
:102DB000203029462046CDE90276FFF79BFF0BB075
:102DC000F0BD0000406A00B104307047436A1A68E1
:102DD000426202691A600361C38A013BC382704781
:102DE0002DE9F041D0F82080194E14461D46414689
:102DF000002709B9BDE8F081D1E90223A21A65EBE9
:102E00000303964277EB03031ED2036A8B420DD174
:102E1000FFF78CFD036A1B68036203690B60C38ABA
:102E20000161016A013BC3828846E2E7FFF77EFD4C
:102E30000B68C8F8003003690B60C38A0161013B6D
:102E4000C382D8F80010D4E788460968D1E700BFEC
:102E500080841E002DE9F04F8BB00D46DDF85090B8
:102E600014469B468046002800F01981B9F1000FF6
:102E700000F01581531E3F2B00F21181012A03D16E
:102E8000BBF1000F40F00B810023CDE90833B8F807
:102E90001430B5EBC30F4FEAC30703D300200BB0C8
:102EA000BDE8F08F2B199F42D8F80C303ABF7F1B3A
:102EB000FFB227461BB9D8F81030002B7AD0272D47
:102EC0004ED8C5F12806B7424FF000032CBFF6B22A
:102ED0003E4600932946D8F8080008AB3246FFF773
:102EE00041FCA7EB060A35445FFA8AFAB8F81430B9
:102EF00003F10053053BDB000493D8F80C30039337
:102F00002821039B13B1BAF1000F2CD1D8F810007F
:102F100040B1BAF1000F05D0009608AB5246691ACD
:102F2000FFF720FC38B2002FB8D066070AD00AABF2
:102F300003EBD401624211F8083C02F0070213418E
:102F400001F8083C082C3CD9102C40F2B580202C0C
:102F500040F2B780BBF1000F00F09C80082334E002
:102F6000BA460026C2E7049BE02B28BFE023069365
:102F70000B44AB42059314D95A1B03980096924513
:102F800034BF5246D2B2691A08AB04300792FFF739
:102F9000E9FB079A1644AAEB020A1544F6B25FFA57
:102FA0008AFA049B069A05999B1A0493039B1B6853
:102FB0000393A6E70093D8F8080008AB3A462946E1
:102FC000AEE7BBF1000F13D00123B4EBC30F6CD0FD
:102FD000082C12D89DF82030621E23FA02F2D50781
:102FE00006D54FF0FF3202FA04F423438DF8203067
:102FF0009DF8203089F8003051E7102C12D8BDF828
:103000002030621E23FA02F2D10706D54FF0FF32BC
:1030100002FA04F42343ADF82030BDF82030A9F8BB
:1030200000303CE7202C0FD80899631E21FA03F3E7
:10303000DA0705D54FF0FF3202FA04F40C43089486
:10304000089BC9F800302AE7402C2BD0DDE9086541
:10305000611EC4F12102A4F1210326FA01F105FA4F
:1030600002F225FA03F311431943CB0712D50122CB
:10307000A4F12003C4F1200102FA03F322FA01F1C2
:10308000A240524243EA010363EB430332432B4322
:10309000CDE90823DDE90823C9E90023FFE66FF045
:1030A0000100FCE66FF00800F9E6082CA0D9102C0E
:1030B000B3D9202CEED8C3E7BBF1000FADD002236B
:1030C00083E7BBF1000FBBD004237EE730B5012AB4
:1030D000144638BF0124402C85B028BF4024002569
:1030E000012ACDE9025518D81B788DF808306307FE
:1030F0000AD004AB03EBD405624215F8083C02F099
:103100000702934005F8083C00910346224600213F
:1031100002A8FFF727FB05B030BD082AE4D9102A22
:1031200003D81B88ADF80830E1E7202A8DBFD3E92A
:1031300000231B680293CDE90223D8E710B5CB68C2
:103140001BB98B600B618B8210BD04691A681C600F
:103150000361C38A013BC382CA60F0E703064CBF28
:10316000C0F3C0300220704708B50246FFF7F6FFF3
:10317000022806D15306C2F30F2001D100F003004C
:1031800008BDC2F30740FBE72DE9F04F93B0CDE94E
:1031900003230A6804461046FFF7E0FF022814BF25
:1031A000C2F306260026002A0D46824680F2F281EE
:1031B00012F0C04940F0EE81097B002900F0EA815D
:1031C000022803D02378B34240F0E781C2F30463BE
:1031D0000693104602F07F030593FFF7C5FF059B9A
:1031E00029444FEA834848EA0A4848EA4668CE78C4
:1031F00000230022CDE90823F309834648EA0008AA
:10320000029367D0059B009302466768534608A95E
:103210002046B847002800F0C381276A4FB94146CD
:1032200004F10C00FFF702FB074690B96FF00200B3
:1032300054E03B6998450DD03F68002FF9D14146D5
:1032400004F10C00FFF7F2FA07460028EED0236ADB
:103250003B60276297F817C006F01F08CCF3840C78
:10326000ACEB08001FFA80FE0028B8BF0EF120006A
:10327000A8EB0C031FFA83FED7E90221B8BF00B206
:10328000002B0793BEBF0EF120031BB2079352EA37
:10329000010338D0039BDFF824E39A1A049B4FF014
:1032A000000C63EB010196457CEB01032BD36B7B98
:1032B00097F81AE0734519D1029B002B78D00128AA
:1032C00021DC7868F8B9DFF8F0C2944570EB0103AF
:1032D00016D337E0276A27B96FF00C0013B0BDE8AA
:1032E000F08F3B699845B5D03F68F4E7B24890420B
:1032F0007CEB010301D30020F0E7029B002BFAD006
:10330000079B0F2B17DCFA7DB30002F0030203F0DA
:103310007C031343FB7539462046FFF707FB6B7BA5
:10332000BB76029B3BB9FB7DC3F38402013262F39F
:103330008603FB75D0E76A7BBB7E9A42DBD1029B9A
:10334000002B35D0B309022B32D0039BBB60049B0A
:10335000FB60142200210DA8FDF7E6FF039B0A93F2
:10336000049B0B932B1D0C932B7BADF83EB0013BC4
:10337000DBB2ADF83C30069B8DF84230059B8DF8F2
:10338000433094F82C308DF840A083F001038DF881
:1033900044308DF84180A3680AA920469847FB7DF8
:1033A000C3F38403013303F01F039B02FB82A2E7F4
:1033B000FB7DC6F34012B2EBD31F40F0F480C3F3A1
:1033C0008403434540F0F280029A2B7BB609002A21
:1033D0004DD0F2075DD4032B40F2EB80039BBB6022
:1033E000049BFB602B7BAE1D033BDBB232463946B0
:1033F00004F10C00FFF7ACFA00280CDA394620463D
:10340000FFF794FAFB7DC3F38403013303F01F033A
:103410009B02FB820AE7DDE90884AB883B834FF619
:10342000FF73C9F12000A9F1200228FA09F104FA7A
:1034300000F0014324FA02F211431846C9B2FFF723
:10344000C9F909F10809B9F1400F0346E9D1B88279
:103450002A7B033AD2B23146FFF7CEF9FB7DB88220
:10346000DA43C2F3C01262F3C713FB7543E786B9B0
:103470002E1D013BDBB23246394604F10C00FFF74A
:1034800067FA0028BADB2A7BB88A013AD2B2314601
:10349000E2E7F98AC1F30901013B0429DAB25BD8FA
:1034A000281D002307F11B069A4208D910F801CB0A
:1034B00006F801C0013101330529DBB2F4D10399CB
:1034C0000A9104990B91934207F11B010C9138BFAB
:1034D000043379680D9134BF55FA83F300230E93BA
:1034E000FB8AADF83EB0C3F309031A44069B8DF87E
:1034F0004230059B8DF8433094F82C30ADF83C20D9
:1035000083F001038DF8443000238DF840A08DF83E
:1035100041807B602A7BB88A013A291DFFF76CF94C
:103520003B8BB882834203D1A3680AA920469847FF
:1035300020460AA9FFF702FEFB7DBA8AC3F3840383
:10354000013303F01F039B02FB823B8B9A420CBFAB
:1035500000206FF01000C1E67B68002BAFD0052083
:1035600001E01C3033461E68002EFAD1091A081DEE
:103570002E1D184401EB090CBCF11B0F5FFA89F3F7
:103580009DD89A429BD916F8013B00F8013B09F1FE
:103590000109EFE76FF00900A0E66FF00A009DE671
:1035A0006FF00B009AE66FF00D0097E66FF00E00DB
:1035B00094E66FF00F0091E640420F0080841E00F9
:1035C000EFF3098305494A6B22F001024A6368332D
:1035D00083F30988002383F31188704700EF00E02C
:1035E000302080F3118862B60C4B0D4AD96821F463
:1035F000E0610904090C0A43DA60D3F8FC200949A8
:1036000042F08072C3F8FC200A6842F001020A60AE
:103610002022DA7783F82200704700BF00ED00E037
:103620000003FA05001000E010B5302383F3118881
:103630000E4B5B6813F4006314D0F1EE103AEFF315
:103640000984683C4FF08073E361094BDB6B2366B0
:1036500084F3098800F0A4F810B1064BA36110BDF3
:10366000054BFBE783F31188F9E700BF00ED00E0AD
:1036700000EF00E003060008060600084FF0E02314
:10368000002258684FF0FF31930003F1604303F5C7
:10369000614301329042C3F88010C3F88011F3D225
:1036A0007047000000F1604303F561430901C9B2AE
:1036B00083F80013012200F01F039A4043099B0086
:1036C00003F1604303F56143C3F880211A6070473A
:1036D00000230375826803691B6899689142FBD2D5
:1036E0005A68036042601060586070470023037599
:1036F000826803691B6899689142FBD85A68036025
:10370000426010605860704708B50846302383F364
:1037100011880B7D032B05D0042B0DD02BB983F31F
:10372000118808BD8B6900221A604FF0FF33836156
:10373000FFF7CEFF0023F2E7D1E9003213605A60B1
:10374000F3E70000FFF7C4BF054BD9680875186898
:1037500002681A60536001220275D860FCF73CBF12
:103760002038002030B50C4BDD684B1C87B0044678
:103770000FD02B46094A684600F050F92046FFF763
:10378000E3FF009B13B1684600F052F9A86907B047
:1037900030BDFFF7D9FFF9E72038002009370008CE
:1037A000044B1A68DB6890689B68984294BF0020BD
:1037B0000120704720380020084B10B51C68D868DD
:1037C00022681A60536001222275DC60FFF78EFFC9
:1037D00001462046BDE81040FCF7FEBE2038002020
:1037E000044B1A68DB6892689B689A4201D9FFF71C
:1037F000E3BF70472038002038B5074C0749084818
:10380000012300252370656000F000FC0223237073
:1038100085F3118838BD00BF483A0020C047000832
:103820002038002008B572B6044B186500F0B6FACF
:1038300000F06EFB024B03221A70FEE720380020D6
:10384000483A002000F02AB9EFF3118020B9EFF3D5
:103850000583302282F311887047000010B530B91B
:10386000EFF30584C4F3080414B180F3118810BD8C
:10387000FFF7B6FF84F31188F9E700008B6002239D
:1038800008618B82084670478368A3F1840243F87D
:10389000142C026943F8442C426943F8402C094A2D
:1038A00043F8242CC26843F8182C022203F80C2C8D
:1038B000002203F80B2C044A43F8102CA3F120003B
:1038C000704700BFF10500082038002008B5FFF759
:1038D000DBFFBDE80840FFF735BF0000024BDB68A7
:1038E00098610F20FFF730BF20380020302383F38A
:1038F0001188FFF7F3BF000008B50146302383F3BA
:1039000011880820FFF72EFF002383F3118808BDDC
:1039100010B503689C68A2420CD85C688A600B6092
:103920004C602160596099688A1A9A604FF0FF33A1
:10393000836010BD1B68121BECE700000A2938BF2A
:103940000A2170B504460D460A26601900F058FB9E
:1039500000F044FB041BA54203D8751C2E46044608
:10396000F3E70A2E04D9BDE87040012000F08EBBB9
:1039700070BD0000F8B5144B0D46D96103F110017C
:1039800041600A2A1969826038BF0A2201604860D2
:103990001861A818144600F025FB0A2700F01EFB4A
:1039A000431BA342064606D37C1C281900F028FBC3
:1039B00027463546F2E70A2F04D9BDE8F840012032
:1039C00000F064BBF8BD00BF20380020F8B5064603
:1039D0000D4600F003FB0F4A134653F8107F9F4239
:1039E00006D12A4601463046BDE8F840FFF7C2BF7F
:1039F000D169BB68441A2C1928BF2C46A34202D9AE
:103A00002946FFF79BFF224631460348BDE8F840B0
:103A1000FFF77EBF203800203038002010B4C0E906
:103A2000032300235DF8044B4361FFF7CFBF000081
:103A300010B5194C236998420DD0D0E90032816845
:103A400013605A609A680A449A60002303604FF03A
:103A5000FF33A36110BD2346026843F8102F536063
:103A60000022026022699A4203D1BDE8104000F0B2
:103A7000C1BA936881680B44936000F0AFFA226981
:103A8000E1699268441AA242E4D91144BDE81040A9
:103A9000091AFFF753BF00BF203800202DE9F04777
:103AA000DFF8BC8008F110072C4ED8F8105000F059
:103AB00095FAD8F81C40AA68031B9A423ED81444D1
:103AC000D5E900324FF00009C8F81C4013605A6075
:103AD000C5F80090D8F81030B34201D100F08AFA4E
:103AE00089F31188D5E9033128469847302383F3B9
:103AF00011886B69002BD8D000F070FA6A69A0EBCE
:103B000004094A4582460DD2022000F0BFFA002285
:103B1000D8F81030B34208D151462846BDE8F047E6
:103B2000FFF728BF121A2244F2E712EB090938BF47
:103B30004A4629463846FFF7EBFEB5E7D8F810307D
:103B4000B34208D01444211AC8F81C00A960BDE88B
:103B5000F047FFF7F3BEBDE8F08700BF3038002024
:103B60002038002000207047FEE70000704700006A
:103B70004FF0FF3070470000BFF34F8F024A1369C8
:103B8000DB03FCD4704700BF0020024008B5094B9E
:103B90001B7873B9FFF7F0FF074B5A69002ABFBFC4
:103BA000064A9A6002F188329A601A6822F48062AA
:103BB0001A6008BD603A00200020024023016745DA
:103BC00008B50B4B1B7893B9FFF7D6FF094B5A6921
:103BD00042F000425A611A6842F480521A601A6830
:103BE00022F480521A601A6842F480621A6008BD9A
:103BF000603A0020002002407F289ABF00F5803004
:103C0000C0020020704700004FF4006070470000C1
:103C1000802070477F2808B50BD8FFF7EDFF00F52F
:103C200000630268013204D104308342F9D10120DB
:103C300008BD0020FCE700007F2810B504461FD80F
:103C4000FFF79AFFFFF7A2FF0E4BF3221A61022241
:103C50005A615A6942EAC0025A615A6942F4803292
:103C60005A61FFF789FF4FF40061FFF7C5FF00F0CD
:103C70004BF9FFF7A5FF2046BDE81040FFF7CABF8C
:103C8000002010BD002002402DE9F84340EA020365
:103C900013F00703144606D0304B40F231321A605D
:103CA0000020BDE8F88385182D4A95420CD92B4A8F
:103CB00040F236311160F3E7031D1B684A689342F6
:103CC00008D1083C08300831072C14D902680B6869
:103CD0009A42F1D0FFF75AFFFFF74EFF214E08310D
:103CE0004FF001084FF00009012CA1F1080706D898
:103CF000FFF766FF01E0002CECD10120D1E7C6F808
:103D00001480054651F8083C45F8043B51F8043C42
:103D10004360FFF731FF336943F001033361C6F8B5
:103D20001490026851F8083C9A420CD00B4B40F2B8
:103D30005E321A600C4B18600C4B1C600C4B1F6001
:103D4000FFF73EFFACE72D6851F8043C9D4201F1BE
:103D50000801EBD1083C0830C6E700BF5C3A002000
:103D60000000040800200240503A0020583A002089
:103D7000543A0020084908B50B7828B11BB9FFF761
:103D800005FF01230B7008BD002BFCD0BDE80840E7
:103D90000870FFF715BF00BF603A00204FF4803174
:103DA0004FF0005000F0B2B80846114600F014BCC5
:103DB000012000F011BC0000084600F02BBC000000
:103DC00070B582B0FFF740FD0E4E054600F006F9D3
:103DD0003268904237BF0C4A0B49516814682EBFB5
:103DE000D1E90041013151600419034641F100015C
:103DF000284601913360FFF731FD0199204602B05A
:103E000070BD00BF643A0020683A002070B582B0EF
:103E1000FFF71AFD104E054600F0E0F832689042B8
:103E200037BF0E4A0D49516814682EBFD1E90041D1
:103E300001315160041941F1000103462846019106
:103E40003360FFF70BFD01994FF47A72002320468F
:103E5000FCF7AEF902B070BD643A0020683A002069
:103E600010B50244064BD2B2904200D110BD441CA2
:103E700000B253F8200041F8040BE0B2F4E700BFB1
:103E800050280040114B30B5D3F89040240409D499
:103E9000D3F89040C3F89040D3F8904044F40044E5
:103EA000C3F890400A4C236843F4807323600244B3
:103EB000084BD2B2904200D130BD441C00B251F840
:103EC000045B43F82050E0B2F4E700BF001002406A
:103ED000007000405028004007B5012201A90020D1
:103EE000FFF7BEFF019803B05DF804FB13B504466D
:103EF000FFF7F2FFA04205D0012201A900200194A2
:103F0000FFF7C0FF02B010BD70470000704700000F
:103F100070470000074B45F255521A6002225A6062
:103F200040F6FF729A604CF6CC421A60024B0122B6
:103F30001A70704700300040743A0020034B1B7821
:103F40001BB1034B4AF6AA221A607047743A00204C
:103F500000300040054B1A6832B902F1804202F588
:103F60000432D2F894201A60704700BF703A0020E3
:103F7000024B4FF40002C3F8942070470010024037
:103F800008B5FFF7E7FF024B1868C0F3407008BDA3
:103F9000703A002070470000FEE700000A4B0B4813
:103FA0000B4A90420BD30B4BDA1C121AC11E22F0A3
:103FB00003028B4238BF00220021FDF7B5B953F848
:103FC000041B40F8041BECE75C480008003B0020A1
:103FD000003B0020003B002000F0BEB84FF08043C3
:103FE000586A70474FF08043002258631A610222DA
:103FF000DA6070474FF080430022DA6070470000BB
:104000004FF0804358637047FEE7000070B51B4BCC
:1040100001630025044686B0586085620E46FFF7AE
:10402000DFFA04F11003C4E904334FF0FF33C4E9AD
:104030000635C4E90044A560E562FFF7CFFF2B46D3
:104040000246C4E9082304F134010D4A25658023A2
:104050002046FFF713FC0123E0600A4A0375009233
:1040600072680192B268CDE90223074B6846CDE938
:104070000435FFF72BFC06B070BD00BF483A0020A6
:10408000CC470008D147000809400008024AD36A1B
:104090001843D062704700BF20380020244B2548C9
:1040A000DA6A42F0070210B4DA62DA6A224C22F0CD
:1040B0000702DA62DA6ADA6C42F00702DA64DA6E70
:1040C00042F00702DA664FF09042DB6E4FF0AA3101
:1040D000002353609160D0604FF6FF70506113620F
:1040E000536214601024C2F80434C2F80814C2F8F1
:1040F0000C444FF6F774C2F814449924C2F82034E3
:10410000C2F824440D4CC2F80044C2F80438C2F886
:104110000818C2F80C38C2F81408C2F82038C2F8DF
:104120002438C2F800385DF8044B00F055B800BFE1
:1041300000100240000100240001002850000A0085
:1041400008B500F005FAFFF757FBBDE80840FFF798
:1041500001BF0000704700000F4B9A6D42F0010252
:104160009A659A6F42F001029A670C4A9B6F9368B6
:1041700043F0010393604FF080434F229A624FF067
:10418000FF32DA6200229A615A63DA605A600122D1
:104190005A611A60704700BF00100240002004E01E
:1041A0004FF0804208B51169D3680B40D9B2C943BA
:1041B0009B07116107D5302383F31188FFF742FB7A
:1041C000002383F3118808BD08B5FFF757FABDE84F
:1041D000084000F099B900005A4B4FF0FF319A6A3D
:1041E00099629A6A00229A62986AD86A60F0070017
:1041F000D862D86A00F00700D862D86A186B1963D1
:10420000186B1A63186B986B9963986B9A63986B29
:10421000D86BD963D86BDA63D86B186C1964196CD6
:104220001A641A6C484A4FF4E06111601A6E4749EB
:1042300042F001021A66D3F8802022F00102C3F88E
:104240008020D3F880209A6D42F080529A659A6F50
:1042500022F080529A679A6F4FF440720A604A695E
:1042600012F48062FBD14A601A6822F0F00242F038
:1042700060021A601A6842F001021A601A68910717
:10428000FCD500229A609A6812F00C02FBD1D3F898
:10429000901011F4407F1EBF4FF48031C3F890108E
:1042A000C3F8902061221A601A689207FCD5002298
:1042B0009A609A6812F00C0FFBD169221A60D3F849
:1042C000942022F4706242F4C062C3F894201A6809
:1042D00042F480321A601A689003FCD5D3F890201B
:1042E00022F00322C3F89020194ADA601A6842F0DB
:1042F00080721A601A689101FCD5164A1A611A6810
:1043000042F080621A601A681201FCD500229A609D
:104310000D49114AC3F888200A6822F0070242F0CA
:1043200004020A600A6802F00702042AFAD19A68B5
:1043300042F003029A609A6802F00C020C2AFAD149
:10434000704700BF00100240002002400070004093
:1043500003140001000C100055550134074A08B53C
:10436000536903F00103536123B1054A13680BB18C
:1043700050689847BDE80840FFF756B9000401406F
:10438000783A0020074A08B5536903F002035361E5
:1043900023B1054A93680BB1D0689847BDE808403F
:1043A000FFF742B900040140783A0020074A08B5F7
:1043B000536903F00403536123B1054A13690BB138
:1043C00050699847BDE80840FFF72EB90004014046
:1043D000783A0020074A08B5536903F0080353618F
:1043E00023B1054A93690BB1D0699847BDE80840ED
:1043F000FFF71AB900040140783A0020074A08B5CF
:10440000536903F01003536123B1054A136A0BB1DA
:10441000506A9847BDE80840FFF706B9000401401C
:10442000783A0020164B10B55C6904F478725A6132
:10443000A30604D5134A936A0BB1D06A9847600665
:1044400004D5104A136B0BB1506B9847210604D565
:104450000C4A936B0BB1D06B9847E20504D5094A1F
:10446000136C0BB1506C9847A30504D5054A936CA7
:104470000BB1D06C9847BDE81040FFF7D5B800BF2E
:1044800000040140783A0020194B10B55C6904F42F
:104490007C425A61620504D5164A136D0BB1506D0A
:1044A0009847230504D5134A936D0BB1D06D9847F7
:1044B000E00404D50F4A136E0BB1506E9847A10467
:1044C00004D50C4A936E0BB1D06E9847620404D5A4
:1044D000084A136F0BB1506F9847230404D5054A5F
:1044E000936F0BB1D06F9847BDE81040FFF79CB8B1
:1044F00000040140783A002008B5FFF751FEBDE8FE
:104500000840FFF791B80000062108B50846FFF7FC
:10451000C9F806210720FFF7C5F806210820FFF794
:10452000C1F806210920FFF7BDF806210A20FFF790
:10453000B9F806211720FFF7B5F806212820FFF764
:10454000B1F8BDE8084007211C20FFF7ABB8000018
:1045500008B5FFF739FE00F007F8FFF7FBFDBDE8EF
:104560000840FFF739BD00000023054A1946013312
:10457000102BC2E9001102F10802F8D1704700BF08
:10458000783A00200B460146184600F02DB800008E
:1045900000F040B8012838BF012010B5044620467D
:1045A00000F030F830B900F007F808B900F00CF866
:1045B0008047F4E710BD0000024B1868BFF35B8F23
:1045C000704700BFF83A002008B5062000F084F8D4
:1045D0000120FFF7C9FA0000024B0A46014618689D
:1045E000FFF7E2BB1811002010B5054C13462CB1A3
:1045F0000A4601460220AFF3008010BD2046FCE7CA
:1046000000000000024B01461868FFF7D1BB00BF55
:1046100018110020024B01461868FFF7CDBB00BF00
:104620001811002010B501390244904201D1002038
:1046300005E0037811F8014FA34201D0181B10BD0B
:104640000130F2E72DE9F041A3B1C91A177801440E
:10465000044603F1FF3C8C42204601D9002009E0CA
:104660000578BD4204F10104F5D10CEB0405D61820
:10467000A54201D1BDE8F08115F8018D16F801EDD4
:10468000F045F5D0E7E700001F2938B504460D4690
:1046900004D9162303604FF0FF3038BD426C12B1CD
:1046A00052F821304BB9204600F030F82A46014636
:1046B0002046BDE8384000F017B8012B0AD0591C3D
:1046C00003D1162303600120E7E7002442F82540C8
:1046D000284698470020E0E7024B01461868FFF79C
:1046E000D3BF00BF1811002038B5074D0023044682
:1046F000084611462B60FFF73BFA431C02D12B689A
:1047000003B1236038BD00BFFC3A0020FFF72ABA8E
:10471000034611F8012B03F8012B002AF9D1704749
:104720006F72672E6172647570696C6F742E4D6163
:1047300074656B4C3433312D5065726970680000BC
:1047400040A2E4F1646891060041A3E5F265699234
:10475000070000004261642043414E496661636581
:1047600020696E6465782E008000000000800000E3
:10477000000080000000000000000000311B000865
:104780001923000879220008411B0008751B000846
:10479000711D0008451B0008551B0008491B000837
:1047A000511B00084D1B0008991C0008591B0008EC
:1047B000E5250008691B00086D1C00086330000037
:1047C000BC47000878380020483A00206D61696EC7
:1047D0000069646C6500000008BAFF7F01000000FA
:1047E000260400000000000000600300000000003C
:1047F000FE2A0100D20400001C110020000000006D
:1048000000000000000000000000000000000000A8
:104810000000000000000000000000000000000098
:104820000000000000000000000000000000000088
:104830000000000000000000000000000000000078
:104840000000000000000000000000000000000068
:0C4850000000000000000000000000005C
:00000001FF
