:020000040800F2
:1000000000070020F5040008A52F00085D2F000858
:10001000852F00085D2F00087D2F0008F7040008D9
:10002000F7040008F7040008F7040008853F0008FB
:10003000F7040008F7040008F7040008F7040008B4
:10004000F7040008F7040008F7040008F7040008A4
:10005000F7040008F7040008D9520008015300080B
:10006000295300085153000879530008F704000889
:10007000F7040008F7040008F7040008F704000874
:10008000F7040008F7040008F7040008F704000864
:10009000F70400083D2F00084D2F0008A153000869
:1000A000F7040008F7040008F7040008F704000844
:1000B00089540008F7040008F7040008F704000852
:1000C000F7040008F7040008F7040008F704000824
:1000D000F704000875540008F7040008F704000846
:1000E00005540008F7040008F7040008F7040008A6
:1000F000F7040008F7040008F7040008F7040008F4
:10010000F7040008F7040008F7040008F7040008E3
:10011000F7040008F7040008F7040008F7040008D3
:10012000F7040008F7040008F7040008F7040008C3
:10013000F7040008F7040008F7040008F7040008B3
:10014000F7040008F7040008F7040008F7040008A3
:10015000F7040008F7040008F7040008F704000893
:10016000F7040008F7040008F7040008F704000883
:10017000F7040008F7040008F7040008F704000873
:10018000F7040008F7040008F7040008F704000863
:10019000F7040008F7040008F7040008F704000853
:1001A000F7040008F7040008F7040008F704000843
:1001B000F7040008F7040008F7040008F704000833
:1001C000F7040008F7040008F7040008F704000823
:1001D000F7040008F7040008F7040008F704000813
:1001E00009180008000000000000000000000000E6
:1001F00053B94AB9002908BF00281CBF4FF0FF318E
:100200004FF0FF3000F074B9ADF1080C6DE904CE89
:1002100000F006F8DDF804E0DDE9022304B07047E1
:100220002DE9F047089D04468E46002B4DD18A42A9
:10023000944669D9B2FA82F252B101FA02F3C2F1DC
:10024000200120FA01F10CFA02FC41EA030E94406D
:100250004FEA1C48210CBEFBF8F61FFA8CF708FB8E
:1002600016E341EA034306FB07F199420AD91CEB66
:10027000030306F1FF3080F01F81994240F21C8198
:10028000023E63445B1AA4B2B3FBF8F008FB1033E0
:1002900044EA034400FB07F7A7420AD91CEB040415
:1002A00000F1FF3380F00A81A74240F207816444E5
:1002B000023840EA0640E41B00261DB1D44000236A
:1002C000C5E900433146BDE8F0878B4209D9002DCE
:1002D00000F0EF800026C5E9000130463146BDE858
:1002E000F087B3FA83F6002E4AD18B4202D38242C2
:1002F00000F2F980841A61EB030301209E46002D71
:10030000E0D0C5E9004EDDE702B9FFDEB2FA82F2C5
:10031000002A40F09280A1EB0C014FEA1C471FFA23
:100320008CFE0126200CB1FBF7F307FB131140EA0A
:1003300001410EFB03F0884208D91CEB010103F1D7
:10034000FF3802D2884200F2CB804346091AA4B299
:10035000B1FBF7F007FB101144EA01440EFB00FE6D
:10036000A64508D91CEB040400F1FF3102D2A645D2
:1003700000F2BB800846A4EB0E0440EA03409CE771
:10038000C6F12007B34022FA07FC4CEA030C20FA1E
:1003900007F401FA06F31C43F9404FEA1C4900FA3E
:1003A00006F3B1FBF9F8200C1FFA8CFE09FB1811BB
:1003B00040EA014108FB0EF0884202FA06F20BD92E
:1003C0001CEB010108F1FF3A80F08880884240F27E
:1003D0008580A8F102086144091AA4B2B1FBF9F0C2
:1003E00009FB101144EA014100FB0EFE8E4508D9BD
:1003F0001CEB010100F1FF346CD28E456AD9023842
:10040000614440EA0840A0FB0294A1EB0E01A14226
:10041000C846A64656D353D05DB1B3EB080261EB94
:100420000E0101FA07F722FA06F3F1401F43C5E96E
:10043000007100263146BDE8F087C2F12003D840A4
:100440000CFA02FC21FA03F3914001434FEA1C47E6
:100450001FFA8CFEB3FBF7F007FB10360B0C43EAD8
:10046000064300FB0EF69E4204FA02F408D91CEB88
:10047000030300F1FF382FD29E422DD90238634486
:100480009B1B89B2B3FBF7F607FB163341EA034126
:1004900006FB0EF38B4208D91CEB010106F1FF3875
:1004A00016D28B4214D9023E6144C91A46EA00466C
:1004B00038E72E46284605E70646E3E61846F8E6FE
:1004C0004B45A9D2B9EB020864EB0C0E0138A3E747
:1004D0004646EAE7204694E74046D1E7D0467BE728
:1004E000023B614432E7304609E76444023842E7A0
:1004F000704700BF02E000F000F8FEE772B6374830
:1005000080F30888364880F3098836483649086001
:1005100040F20000CCF200004EF63471CEF2000141
:100520000860BFF34F8FBFF36F8F40F20000C0F23F
:10053000F0004EF68851CEF200010860BFF34F8FF5
:10054000BFF36F8F4FF00000E1EE100A4EF63C71E2
:10055000CEF200010860062080F31488BFF36F8F8D
:1005600004F0EAFC04F07CFD4FF055301F491B4AB3
:1005700091423CBF41F8040BFAE71D49184A9142E9
:100580003CBF41F8040BFAE71A491B4A1B4B9A423D
:100590003EBF51F8040B42F8040BF8E7002018495D
:1005A000184A91423CBF41F8040BFAE704F0C8FC3A
:1005B00004F09CFD144C154DAC4203DA54F8041BB6
:1005C0008847F9E700F042F8114C124DAC4203DACB
:1005D00054F8041B8847F9E704F0B0BC000700207A
:1005E000002300200000000808ED00E000010020CA
:1005F0000007002090570008002300208C230020D3
:1006000090230020C0540020E0010008E40100080D
:10061000E4010008E40100082DE9F04F2DED108AF7
:10062000C1F80CD0C3689D46BDEC108ABDE8F08FC0
:10063000002383F311882846A047002004F00CF91A
:10064000FEE704F06FF800DFFEE70000F8B501F008
:10065000EDF804F013FC074604F064FC0546B8BB53
:10066000204B9F4234D001339F4234D01E4B27F0A1
:10067000FF029A4232D1F8B200F010FF2E4642F249
:10068000107400F011FF08B10024264601F058FC58
:1006900020B1032000F07CF80024264635B1134B2E
:1006A0009F4203D004F036FC00242646002004F0CC
:1006B000EFFB0EB100F082F801F028FA00F026FFFF
:1006C00001F012F9204600F0D7F800F077F8F9E7CA
:1006D0002E460024D5E704460126D2E706464FF40D
:1006E0007A74CEE7010007B0000008B0263A09B0DE
:1006F00008B501F0C5F8A0F120035842584108BDE3
:1007000007B541F21203022101A8ADF8043001F04F
:10071000D5F803B05DF804FB38B5302383F31188B6
:10072000174803680BB104F055F9164A1448002322
:100730004FF47A7104F044F9002383F31188124CCA
:10074000236813B12368013B2360636813B16368B6
:10075000013B63600D4D2B7833B963687BB9022090
:1007600001F062F9322363602B78032B07D16368B1
:100770002BB9022001F058F94FF47A73636038BD49
:100780009023002019070008B0240020A82300208F
:10079000084B187003280CD8DFE800F008050208A1
:1007A000022001F039B9022001F02EB9024B0022DB
:1007B0005A607047A8230020B024002038B501F00B
:1007C000BFFB30B1254B03221A70254B00225A6023
:1007D00038BD244B244A19680131F9D004339342BF
:1007E000F9D1224C1F4DD4F80428AA42F0D3204B53
:1007F0009B6803F1006303F5F0439A42E8D204F0EA
:100800005BFB04F06DFB002001F088F80220FFF78D
:10081000BFFF184B9A6D00229A65996F9A67996F7E
:10082000D96DDA65D96FDA67D96F196E1A66D3F8A0
:100830008010C3F88020D3F8803072B64FF0E023E8
:100840003021C3F8085DD4F80038D4F8042881F3C7
:1008500011889D4683F308881047B9E7A823002034
:10086000B0240020007800082078000800700008FC
:1008700000230020001002402DE9F04F93B0AC4B54
:1008800000902022FF210AA89D6801F0E9F8A94AFA
:100890001378A3B9A848012103601170302383F3B2
:1008A000118803680BB104F095F8A44AA24800230C
:1008B0004FF47A7104F084F8002383F31188009BCD
:1008C00013B19F4B009A1A609E4A009C1378032B29
:1008D0001EBF002313709A4A4FF0000A18BF5360DE
:1008E000D3465646D146012001F096F824B1944BE8
:1008F0001B68002B00F01582002000F0C1FF039060
:10090000039B002B01DA00F049FE039B002BEDDB7B
:10091000012001F079F8039B213B162BE3D801A2BB
:1009200052F823F081090008A90900083D0A0008CF
:10093000E7080008E7080008E7080008C70A0008F9
:10094000970C0008B10B0008130C00083B0C0008C2
:10095000610C0008E7080008730C0008E7080008AD
:10096000E50C0008210A0008E7080008290D000826
:100970008D090008210A0008E7080008130C000888
:100980000220FFF7B5FE002840F0F581009B022110
:10099000BAF1000F08BF1C4605A841F21233ADF8AA
:1009A000143000F08BFF9EE74FF47A7000F068FF80
:1009B000071EEBDB0220FFF79BFE0028E6D0013F7D
:1009C000052F00F2DA81DFE807F0030A0D10133675
:1009D00005230593042105A800F070FF17E0544893
:1009E0000421F9E758480421F6E758480421F3E7C1
:1009F0004FF01C08404600F093FF08F104080590F2
:100A0000042105A800F05AFFB8F12C0FF2D1012003
:100A100000FA07F747EA0B0B5FFA8BFB4FF0000970
:100A200001F06AF826B10BF00B030B2B08BF002472
:100A3000FFF766FE57E746480421CDE7002EA5D014
:100A40000BF00B030B2BA1D10220FFF751FE074641
:100A500000289BD0012000F061FF0220FFF798FEE4
:100A600000261FFA86F8404600F06AFF044690B15F
:100A70000021404600F07CFF01360028F1D1BA4643
:100A8000044641F21213022105A8ADF814303E4687
:100A900000F014FF27E70120FFF77AFE2546244BDC
:100AA0009B68AB4207D9284600F03AFF013040F07E
:100AB00067810435F3E7234B00251D70204BBA46B0
:100AC0005D603E46ACE7002E3FF460AF0BF00B03D9
:100AD0000B2B7FF45BAF0220FFF75AFE322000F0B1
:100AE000CFFEB0F10008FFF651AF18F003077FF416
:100AF0004DAF0F4A926808EB050393423FF646AFAD
:100B0000B8F5807F3FF742AF124B0193B84523DD24
:100B10004FF47A7000F0B4FE0390039A002AFFF6B7
:100B200035AF019B039A03F8012B0137EDE700BFB6
:100B300000230020AC240020902300201907000887
:100B4000B0240020A8230020042300200823002034
:100B50000C230020AC230020C820FFF7C9FD074666
:100B600000283FF413AF1F2D11D8C5F120024245D4
:100B70000AAB25F0030028BF42468349019218447E
:100B800000F05CFF019A8048FF2100F069FF4FEA06
:100B9000A8037D490193C8F38702284600F068FF47
:100BA000064600283FF46DAF019B05EB830537E750
:100BB0000220FFF79DFD00283FF4E8AE00F0EAFEBA
:100BC00000283FF4E3AE0027B846704B9B68BB4259
:100BD00018D91F2F11D80A9B01330ED027F0030319
:100BE00012AA134453F8203C05934046042205A959
:100BF00001F090F904378046E7E7384600F090FEB0
:100C00000590F2E7CDF81480042105A800F056FE07
:100C100006E70023642104A8049300F045FE0028A1
:100C20007FF4B4AE0220FFF763FD00283FF4AEAEC0
:100C3000049800F0A5FE0590E6E70023642104A8CF
:100C4000049300F031FE00287FF4A0AE0220FFF7ED
:100C50004FFD00283FF49AAE049800F093FEEAE7B7
:100C60000220FFF745FD00283FF490AE00F0A2FE01
:100C7000E1E70220FFF73CFD00283FF487AE05A91D
:100C8000142000F09DFE04210746049004A800F003
:100C900015FE3946B9E7322000F0F2FD071EFFF6D7
:100CA00075AEBB077FF472AE384A926807EB090352
:100CB00093423FF66BAE0220FFF71AFD00283FF487
:100CC00065AE27F003074F44B9453FF4A9AE484647
:100CD00000F026FE0421059005A800F0EFFD09F1C3
:100CE0000409F1E74FF47A70FFF702FD00283FF4A2
:100CF0004DAE00F04FFE002844D00A9B01330BD0CC
:100D000008220AA9002000F0B3FE00283AD02022D1
:100D1000FF210AA800F0A4FEFFF7F2FC1C4803F034
:100D2000A1FD13B0BDE8F08F002E3FF42FAE0BF005
:100D30000B030B2B7FF42AAE0023642105A8059337
:100D400000F0B2FD074600287FF420AE0220FFF736
:100D5000CFFC804600283FF419AEFFF7D1FC41F2EA
:100D6000883003F07FFD059800F0DCFE464600F079
:100D7000C3FE3C46B7E5064652E64FF0000905E6DD
:100D8000BA467EE637467CE6AC23002000230020EE
:100D9000A0860100094A136849F2690099B21B0C48
:100DA00000FB01331360064B186844F2506182B2B5
:100DB000000C01FB0200186080B270471423002071
:100DC0001023002010B500211022044600F048FE38
:100DD000034B03CB206061601868A06010BD00BFAA
:100DE0009075FF1F2DE9F041ADF54E7D0DF13408F2
:100DF0006CAC40F2751207460D460EA80021C8F8EB
:100E0000001000F02DFE4FF4C4720021204600F0C7
:100E100027FE02F0CFF8254B4FF47A72B0FBF2F0C8
:100E2000186093E80700022384E807000DF5E970D5
:100E30002382FFF7C7FF41F204131D49238406A84C
:100E400004F0BEFB182384F832310DF2E3266B4424
:100E50000DF1300C1A4603CA6245306071601346CA
:100E600006F10806F6D141460122204600F074FE44
:100E700000230393AB7E029305F11903019380B223
:100E80000123CDE904800093E97E06A3D3E9002382
:100E9000384602F04DFC0DF54E7DBDE8F08100BFF7
:100EA000AFF300809E6AC421818A46EEB8240020F8
:100EB000D05500082DE9F0412C4C237ADAB0804659
:100EC0000D465BBB27A9284600F056FF07460028C1
:100ED00042D19DF89D60C82E3ED801464FF4A662CF
:100EE000204600F0BDFD4FF48073C4F8F8314FF494
:100EF0000073C4F80C334FF44073C4F82034324606
:100F00000DF19E0104F1090000F098FD26449DF8C2
:100F10009C30777223720BB9EB7E23728122002101
:100F200006AC27A800F09CFD0122214627A800F06E
:100F30005FFF00230393AB7E029305F1190380B298
:100F400001932823CDE904400093E97E05A3D3E96A
:100F50000023404602F0ECFB5AB0BDE8F08100BF30
:100F6000AFF3008026417272DF25D7B7B049002069
:100F7000F0B5254E4FF48A7505FB0065F1B096F883
:100F8000D83085F8DC300024D822214685F8E840A6
:100F90003AA800F065FD06F1090000F059FDD5F80A
:100FA000E4308DF8F000C2B206AF06F109010DF190
:100FB000F100CDE93A3400F041FD394601223AA86A
:100FC00000F042FF80B2CDE9047008230127CDE98B
:100FD000023706F1D803019330230093317A0B488E
:100FE00007A3D3E9002302F0A3FBA04206DD01F032
:100FF000E1FFC5F8E000384671B0F0BD2046FBE7E0
:1010000078F6339F93CACD8DB0490020D0340020AC
:101010002DE9F0411D4D1E4E1E4F86B0284602F0B0
:10102000B3FB034658B30024CDE90344ADF81440A4
:10103000027B8DF8142099684068029403AA03C2C9
:101040001B68DFF8548043F00043029301F0B4FFC3
:10105000821941F10003009402A9384601F08CF98D
:10106000A04205DD284602F093FB88F80040D5E752
:1010700098F80030072B05D8013388F8003006B007
:10108000BDE8F081014802F083FBF8E7D03400208E
:1010900040420F0000350020E54E002070B50D469F
:1010A00014461E4602F0A0FA50B9022E10D1012CAF
:1010B0000ED112A3D3E90023C5E90023012007E0E4
:1010C000282C10D005D8012C09D0052C0FD00020D9
:1010D00070BD302CFBD10BA3D3E90023ECE70BA3AD
:1010E000D3E90023E8E70BA3D3E90023E4E70BA34C
:1010F000D3E90023E0E700BFAFF30080401DA1204B
:1011000026812A0B78F6339F93CACD8D9E6AC4211F
:10111000818A46EE26417272DF25D7B7F017304A32
:1011200039059E5638B505460E4C0021013500F0B4
:101130001FFCA4F82C55B4F82C0500F001FC78B184
:10114000B4F82C0500F00CFC014648B9B4F82C05A5
:1011500000F00EFCB4F82C350133A4F82C35EAE786
:1011600038BD00BFB049002010B50A4B0A4A1A60CA
:1011700003F5805393F848203AB95C6C2CB12046B3
:1011800000F05CFF204604F0D1F9BDE810400348B0
:1011900000F054BF003500202856000830450020DC
:1011A0002DE9F04F8FB000AF05460C4602F01CFA57
:1011B000002849D1237E022B1BD1E38A012B18D1B1
:1011C00001F0F8FE0646FFF7E5FD03464FF4C87050
:1011D000DFF8C482B3FBF0F206F5167602FB10339B
:1011E00016FA83F3C8F80030E37E33B9A34B00222C
:1011F0001A703C37BD46BDE8F08F07F12401204648
:1012000000F078FD0028F4D107F11400FFF7DAFDB3
:1012100097F8264007F11401224607F1270004F051
:101220009DF90028E2D10F2C08D8944B1C70D8F8F7
:101230000030A3F51673C8F80030DAE797F82410E9
:10124000284602F0C9F9D4E7E38A282B2BD010D81E
:10125000012B23D0052BCCD1BFF34F8F8849894B6D
:10126000CA6802F4E0621343CB60BFF34F8F00BF44
:10127000FDE7302BBDD1844EE17E327A9142B8D168
:10128000607E3146002291F8DC50854200F0A58056
:101290000132042A01F58A71F5D1AAE721462846D0
:1012A000FFF7A0FDA5E721462846FFF703FEA0E7CC
:1012B000B2F8EC507B6005F103094FEA99094FEA57
:1012C0008902D11DC908A8EBC1039D46EB46002148
:1012D000584600F0C5FB04F1EE012A463144584659
:1012E00000F0ACFB7B6813B9012000F017FB96F807
:1012F000D20000F025FB044630B9307200F04AFB02
:10130000204600F00BFBB1E0D6F8D4203AB996F8AD
:10131000D200B6F82C25824201D8FFF703FFD6F899
:10132000D4202A44944208D296F8D200B6F82C254C
:101330000130824201D8FFF7F5FE70685FFA89F24A
:10134000594600F095FB08B9C54679E0726896F8F1
:10135000D2002A447260D6F8D42005EB0209C6F800
:10136000D49000F0EDFA814509D396F8D220D6F852
:10137000D4000132001B86F8D220C6F8D400FF2D1D
:101380000FD80024347200F005FB204600F0C6FAA6
:1013900000F0D6FD3D4B188108B9FFF70FFAC5469E
:1013A00027E7BB6896F8D9000AFB0362FB68D2F80E
:1013B000E41082F8E83001F58061C2F8E030C2F84C
:1013C000E410FFF7D5FDFFF723FE96F8D920013290
:1013D00002F0030286F8D920B6E74FF48A7A0AFBB6
:1013E00002F505F1EA013144204600F059FDF860AC
:1013F00000287FF4FEAE3544012285F8E82001F094
:10140000D9FDD5F8E020D6ED007ADFED216A801A0B
:10141000192838BF192040F6B832904228BF10462C
:10142000B8EE677A07EE900AF8EEE77A67EEA67AEA
:10143000DFED186AE7EE267AFCEEE77AC6ED007A71
:1014400096F8D930BB60BA6873680AFB02F43219A7
:1014500092F8E81059B1D2F8E4108B42E8463FF414
:1014600027AF002182F8E810C2F8E010C546736883
:10147000064A9B0A01331381BBE600BFC934002032
:1014800000ED00E00400FA05B0490020B824002077
:10149000CDCCCC3D6666663FCC340020014B187045
:1014A000704700BFC424002038B54FF00054134BE0
:1014B00022689A4220D1124B627D12481A70237D15
:1014C00003724FF48073C0F8F8314FF40073C0F822
:1014D0000C3300254FF44073C0F820340A49C0F89B
:1014E000E450C922093000F0A9FAE022294620463A
:1014F00000F0B6FA012038BD0020FCE79AAD44C5E3
:10150000C4240020B04900201600002037B500F0A8
:1015100017FD194D1949288102236B7100220123FF
:10152000174801F051F900230193164B1649009317
:101530001648174B4FF4805202F026F8154B1978D5
:1015400011B1124802F048F801F034FD0446FFF7EB
:1015500021FC4FF4C873B0FBF3F202FB130304F554
:10156000167010FA83F00C4B186003F0DBFC08B126
:101570000F232B8103B030BDB824002040420F0060
:10158000003500209D100008C8240020D034002021
:10159000A1110008C4240020CC3400202DE9F04F14
:1015A0002DED028B90A7D7E900670FF24429D9E906
:1015B0000089884C95B00DAD9FED848BFFF728FD19
:1015C000DFF834B200230C93ADF83C300D936B6020
:1015D00000230DF125028DED008B4FF0010A09A9C2
:1015E00058468DF825308DF824A001F04BFC9DF86D
:1015F00024200023002A40F0AF80204601F0F4FFB1
:101600000546002847D1DFF8F4B101F0D3FCDBF840
:10161000003098423FD301F0CDFC0790FFF7BAFBB2
:10162000079A4FF4C873B0FBF3F101FB130302F503
:10163000167010FA83F0CBF80000DFF8C4B19BF805
:1016400000100791002914BF2B46534610A88DF8AF
:101650003030FFF7B7FB0799C1F11002D2B2062A6A
:1016600010AB28BF062219440DF13100079200F09B
:10167000E5F9079A0CAB0393182302930132564BFA
:10168000D2B2CDE900A304923B463246204601F097
:10169000F1FF8BF8005001F08DFC504A504D13685B
:1016A000C31AB3F57A7F32D3106001F085FC02468D
:1016B0000B46204602F076F8204601F095FF30B345
:1016C0002B7ADFF840A1002B14BF032302238AF8F2
:1016D000053001F06FFC0DF1400B4FF47A730122DD
:1016E000B0FBF3F05946CAF80000504600F0DAFAB1
:1016F000182302933B4B019380B240F25513CDE97E
:1017000003B0009342464B46204601F0B3FF2B7ACC
:10171000B3B101F04FFC4FF0000A83464FF48A72D8
:1017200095F8D900504400F0030002FB005393F8F1
:10173000E810002934D00AF1010ABAF1040FEFD100
:10174000C82003F08FF82B7A002B7FF434AF15B04C
:10175000BDEC028BBDE8F08F4FF0904110A84A69B4
:1017600082F010024A611946102200F079F90DF159
:1017700026030AAA0CA9584600F0F0FE95E80300DB
:1017800011AB83E803009DF83C308DF84C300C9B86
:10179000109310A9DDE90A23204602F0D7F917E7D4
:1017A000D3F8E01049B12B68FA2B38BFFA23ABEB22
:1017B00001010533B1EB430FBDD3FFF7D9FB4FF464
:1017C0008A720028B7D1BBE7AFF3008000000000A9
:1017D00000000000D0340020C8340020E04E00207B
:1017E000B0490020E44E0020401DA12026812A0B94
:1017F000F1C6A7C1D068080F00350020CC34002006
:10180000C9340020B824002008B5054800F04AFF7C
:10181000BDE80840034A0449002003F081BE00BF30
:1018200000350020384F0020691100087047000083
:1018300070B5104B1B780133DBB2012B0C4612D86C
:101840000D4B1D6829684FF47A730E6AA2FB0332B0
:10185000014622462846B047844204D1074B002265
:101860001A70012070BD4FF4FA7002F0FBFF0020E7
:10187000F8E700BF182300201C2300202C4F002075
:1018800007B50023024601210DF107008DF807304E
:10189000FFF7CEFF20B19DF8070003B05DF804FB11
:1018A0004FF0FF30F9E700000A4608B50421FFF7C2
:1018B000BFFF80F00100C0B2404208BD30B4074B0A
:1018C0000A461978064B53F821402368DD69054B19
:1018D0000146AC46204630BC604700BF2C4F00207C
:1018E0001C230020A086010070B503F063F9094EA7
:1018F000094D3080002428683388834208D903F0DA
:1019000055F92B6804440133B4F5F04F2B60F2D342
:1019100070BD00BF2E4F0020E84E002003F0FCB940
:1019200000F1006000F5E040D0F8000870470000CA
:1019300000F10060920000F5F04003F077B900007C
:10194000054B1A68054B1B889B1A834202D9104429
:1019500003F02CB900207047E84E00202E4F0020E5
:10196000024B1B68184403F027B900BFE84E002063
:10197000024B1B68184403F031B900BFE84E002049
:101980000020704700F10050A0F51040D0F89005FD
:1019900070470000064991F8243033B10023086AEB
:1019A00081F824300822FFF7C3BF0120704700BF31
:1019B000EC4E0020014B1868704700BF002004E087
:1019C00030B50F4B0F4C1B682288C3F30B03013853
:1019D000934208440BD164680A46013C8242134694
:1019E0000BD214F9015F2DB102F8015BF6E78142D9
:1019F0000B4602D22C2203F8012B581A30BD00BF2F
:101A0000002004E020230020022802BF4FF0904372
:101A100010229A6170470000022802BF4FF09043E5
:101A20004FF480129A617047022801BF4FF0904234
:101A3000536983F0100353617047000010B5002311
:101A4000934203D0CC5CC4540133F9E710BD0000CD
:101A500003460246D01A12F9011B0029FAD1704739
:101A600002440346934202D003F8011BFAE7704791
:101A70002DE9F8431F4D144695F824200746884663
:101A800052BBDFF870909CB395F824302BB920221C
:101A9000FF2148462F62FFF7E3FF95F82400C0F1CD
:101AA0000802A24228BF2246D6B24146920005EB68
:101AB0008000FFF7C3FF95F82430A41B1E44F6B244
:101AC000082E17449044E4B285F82460DBD1FFF778
:101AD00061FF0028D7D108E02B6A03EB8203834221
:101AE000CFD0FFF757FF0028CBD10020BDE8F88307
:101AF0000120FBE7EC4E0020024B1A78024B1A70D3
:101B0000704700BF2C4F00201823002003494FF4DA
:101B1000E1330B60024B186802F06ABD144F0020DD
:101B20001C230020094B10B518220446002118463A
:101B3000FFF796FF064A074B127804600146BDE89E
:101B4000104053F8220002F053BD00BF144F002094
:101B50002C4F00201C2300202DE9F0470D460446A1
:101B600000219046284640F27912FFF779FF23467C
:101B700020220021284601F08BFF231D0222202174
:101B8000284601F085FF631D03222221284601F02B
:101B90007FFFA31D03222521284601F079FF04F1D0
:101BA000080310222821284601F072FF04F11003D7
:101BB00008223821284601F06BFF04F111030822A6
:101BC0004021284601F064FF04F112030822482155
:101BD000284601F05DFF04F114032022502128461D
:101BE00001F056FF04F1180340227021284601F04D
:101BF0004FFF04F120030822B021284601F048FFDE
:101C000004F121030822B821284601F041FF04F124
:101C10002207C0263B46314608222846083601F0F6
:101C200037FFB6F5A07F07F10107F3D104F13203C6
:101C300008223146284601F02BFF002704F1330A21
:101C400094F832304FEAC7099F4209F5A47615D3BC
:101C5000B8F1000F08D1314604F5997307222846E0
:101C600001F016FF09F24F16274694F832213B1B6C
:101C700093420CD3F01DC008BDE8F0870AEB0703C0
:101C800008223146284601F003FF0137D8E707F262
:101C9000331331460822284601F0FAFE0836013790
:101CA000E3E7000013B5044608460021016023461F
:101CB000C0F803102022019001F0EAFE0198231DD4
:101CC0000222202101F0E4FE0198631D032222215B
:101CD00001F0DEFE0198A31D0322252101F0D8FEAC
:101CE000019804F108031022282101F0D1FE0720F9
:101CF00002B010BDF7B50023047F00910E46072205
:101D00001946054601F088FD731C0093012200234B
:101D10000721284601F080FDC4B9B31C00930522B9
:101D200023460821284601F077FD0D243746B27876
:101D3000BB1B934211D32B7FA88A0734E408BBB99D
:101D4000844294BF0020012003B0F0BDAB8ADB00C9
:101D5000083BDB08B3700824E8E7FB1C009321462E
:101D600000230822284601F057FD08340137DEE73A
:101D7000201A18BF0120E7E7F7B50023047F009180
:101D80000E4608221946054601F046FD731CC4B9EB
:101D90000822009311462346284601F03DFD1024F9
:101DA000012372785F1C013B934211D32B7FA88AD9
:101DB0000734E408BBB9844294BF0020012003B07B
:101DC000F0BDAB8ADB00083BDB0873700824E7E753
:101DD000F3190093214600230822284601F01CFD38
:101DE00008343B46DDE7201A18BF0120E7E7000072
:101DF000F8B50E4605461446002181223046FFF70D
:101E00002FFE2B4608220021304601F041FE7CB90E
:101E10006B1C07220821304601F03AFE0F240123F3
:101E20006A785F1C013B934204D3E01DC008F8BDF3
:101E30000824F4E7EB1921460822304601F028FE79
:101E400008343B46ECE70000F8B50E46054614465C
:101E50000021CE223046FFF703FE2B462822002128
:101E6000304601F015FE7CB905F10803082228214F
:101E7000304601F00DFE30242F462A7A7B1B934218
:101E800004D3E01DC008F8BD2824F5E707F10903D5
:101E900021460822304601F0FBFD08340137ECE70B
:101EA000F7B5047F00910E4601231022002105465C
:101EB00001F0B2FCC4B9B31C0093092223461021DF
:101EC000284601F0A9FC192437467288BB1B9A42A8
:101ED00011D82B7FA88A0734E408BBB9844294BF89
:101EE0000020012003B0F0BDAB8ADB00103BDB0813
:101EF00073801024E8E73B1D00932146002308224D
:101F0000284601F089FC08340137DEE7201A18BFA3
:101F10000120E7E730B5094D0A4491420DD011F890
:101F2000013B5840082340F30004013B2C4013F0D0
:101F3000FF0384EA5000F6D1EFE730BD2083B8ED0F
:101F4000F7B5384A106851686B4603C36A4636498C
:101F50003648082303F012FB0446002833D10A2533
:101F6000334A106851686B4603C36A4631492F48AB
:101F7000082303F003FB0446002849D00369B3F5A6
:101F8000623F45D8B0F8661040F2114291423FD10D
:101F9000294A024402F15C018B4239D35C3B23495C
:101FA00000209E1AFFF7B6FF3246074604F164018F
:101FB0000020FFF7AFFFA3689F4229D1E368984252
:101FC00008BF002524E00369B3F5623F27D8418BA1
:101FD00040F21142914220D1174A024402F110010D
:101FE0008B4218D3103B114900209D1AFFF792FF36
:101FF0002A46064604F118010020FFF78BFFA3686C
:102000009E4202D1E368984201D00D25A8E7002541
:10201000284603B0F0BD1025A2E70C25A0E70B254C
:102020009EE700BFF8550008DC8703000078000831
:1020300001560008908703000888FFF710B5037C5D
:10204000044613B9006803F081FA204610BD000071
:102050000023BFF35B8FC360BFF35B8FBFF35B8F66
:102060008360BFF35B8F7047BFF35B8F0068BFF384
:102070005B8F704770B505460C30FFF7F5FF05F133
:10208000080604463046FFF7EFFFA04206D9304667
:102090006D68FFF7E9FF2544281A70BD3046FFF749
:1020A000E3FF201AF9E7000070B50546406898B1D3
:1020B00005F10800FFF7D8FF05F10C06044630468D
:1020C000FFF7D2FF8442304694BF6D680025FFF7CA
:1020D000CBFF013C2C44201A70BD000038B50C46E3
:1020E0000546FFF7C7FFA04210D305F10800FFF730
:1020F000BBFF04446868B4FBF0F100FB1144BFF37C
:102100005B8F0120AC60BFF35B8F38BD0020FCE724
:102110002DE9F041144607460D46FFF7C5FF8442FE
:1021200028BF0446D4B1B84658F80C6B4046FFF7B8
:102130009BFF3044286040467E68FFF795FF331AC6
:102140009C4203D86C600120BDE8F0816B60A41B49
:102150003B68AB602044E8600220F5E72046F3E7E7
:1021600038B50C460546FFF79FFFA04210D305F196
:102170000C00FFF779FF04446868B4FBF0F100FB42
:102180001144BFF35B8F0120EC60BFF35B8F38BD60
:102190000020FCE72DE9FF41884669460746FFF726
:1021A000B7FF6C4606B204EBC6060025B44209D060
:1021B0006268206808EB0501FFF740FC636808349B
:1021C0001D44F3E729463846FFF7CAFF284604B006
:1021D000BDE8F081F8B505460C300F46FFF744FF27
:1021E00005F1080604463046FFF73EFFA0423046A0
:1021F00088BF6C68FFF738FF201A386020B130467E
:102200002C68FFF731FF2044F8BD000073B5144679
:1022100006460D46FFF72EFF844228BF0446019074
:10222000DCB101A93046FFF7D5FF019B33B9326815
:10223000C5E90233C5E9002401200CE09C4238BF07
:1022400001942860019868608442F5D93368AB60D6
:10225000241AEC60022002B070BD2046FBE70000AB
:102260002DE9FF410F466946FFF7D0FF6C4600B2EB
:1022700004EBC0050026AC4209D0D4F8048054F821
:10228000081BB8194246FFF7D9FB4644F3E730462E
:1022900004B0BDE8F081000038B50546FFF7E0FF67
:1022A000044601462846FFF719FF204638BD0000C6
:1022B000302383F3118862B670470000002383F354
:1022C000118862B670470000012070477047000017
:1022D00010B41346026814680022A4465DF8044B4B
:1022E0006047000000F5805090F8590470470000E6
:1022F00000F5805090F852047047000000F58050BF
:1023000090F95804704700005020704700F5805243
:1023100008B5FFF7CDFFD2F89834D2F894041844EA
:10232000D2F890341844D2F878341844D2F888346B
:102330001844D2F884341844FFF7C0FF08BD0000E9
:1023400038B5C26A936923F001039361044600F033
:1023500031FE0546E36A9B69DB0706D500F02AFEDD
:10236000431BFA2BF6D9002004E004F58054012029
:1023700084F8520438BD00002DE9F04F0C4600F5FA
:10238000805185B01F4691F85234BDF8389005460B
:1023900090469BB1D1F874340133C1F8743423688A
:1023A0009A0006D4237B082B0BD9627B0AB10F2B32
:1023B00007D9D1F878340133C1F878344FF0FF30C1
:1023C0000FE0FFF775FFEB6AD3F8C42012F4001A90
:1023D0000AD0D1F87C340133C1F87C34FFF76EFFAA
:1023E000002005B0BDE8F08FD3F8C46022686B6AA6
:1023F000C6F301464FF0480B002A1BFB063BB4BF57
:1024000042F080429204CBF8002023685B0044BF76
:1024100042F00052CBF80020227B330643EA02430D
:10242000CBF80430607B720118B343F44013CBF84F
:102430000430D1F8A4340133C1F8A434AB1803F547
:102440008353197B41F020011973207B039200F024
:102450000DFE039A033080105FFA8AF383420AF17B
:10246000010A0DDA04EB83010BEB830349689960E1
:10247000F2E7AB1803F58353197B60F34511E3E7EB
:10248000EB6A0121B140C3F8CC10AB1803F58253BD
:10249000C3E9048705EB461303F58253214618333D
:1024A00004F10C0051F804CB43F804CB8142F9D17C
:1024B000098819802A4441F268032846D65002F55B
:1024C000805209F0030392F86C1043F0100321F0DE
:1024D0001F010B4382F86C30FFF7F0FE4246CDF847
:1024E00000903B46214600F087FD012079E700007F
:1024F00013B500F580540191606CFFF7D5FD1F28DE
:102500000AD90199606C2022FFF744FEA0F1200354
:102510005842584102B010BD0020FBE708B500F555
:102520008050FFF7C5FE406CFFF792FDBDE8084004
:10253000FFF7C4BE00220260828142608260704761
:1025400010B500220023C0E90023002304460381C4
:102550000C30FFF7EFFF204610BD00002DE9F047DB
:10256000074688B007F5805468469A468846FFF7C4
:102570009FFE9146FFF7E4FF606CFFF77BFD1F288D
:102580002CD9606C20226946FFF786FE202825D1D1
:1025900094F8523413B303AD444605AB2E4603CE34
:1025A0009E4220606160354604F10804F6D130682F
:1025B0002060B388A380DDE90023C9E90023BDF8CA
:1025C0000830AAF80030FFF779FE4A4653464146E4
:1025D000384608B0BDE8F04700F0FCBCFFF76EFEDF
:1025E000002008B0BDE8F0872DE9F84F002306462B
:1025F000C0E90133284B46F8303B00F581540546CD
:1026000088463746103438462037FFF799FFA742EF
:10261000F9D105F580544FF4805326630026C4E9B0
:102620000D366764012305F5835705F5A359E66365
:1026300084F8403084F84830103709F110094FF021
:10264000000A4FF0000B47E908ABA7F11800FFF7AD
:1026500071FF203747F8286C4F45F4D184F858842F
:10266000A4F85A64A4F85C64A4F85E6484F8606416
:10267000A4F86264A4F86464A4F8666484F86864E6
:10268000B8F1000F02D0054800F08EFC044BEB625D
:102690002846BDE8F88F00BF285600080C560008F1
:1026A0000064004010B5044B197804464A1C1A70A7
:1026B000FFF79AFF204610BD354F00202DE9F0436B
:1026C00000295FD03048314BB3FBF1F381428CBF1E
:1026D0000A201120451EB3FBF0F700FB1730ECB2C7
:1026E00020B1022D2846F5D8002037E07D1EB5F533
:1026F000806F33D2C4EBC40808F103034FEAE30E42
:10270000C3F3C703A4EB030C0EF101094FF47A7075
:102710005FFA8CF60EFB000E59FA8CFCBEFBFCFC3B
:10272000BCF5617F1CDC1FFA8CF4581C56FA80F053
:1027300047431648B0FBF7F7B942D5D1013BDBB2AE
:102740000F2BD1D8711EC9B207294FF0000005D850
:10275000107114805580537191710120BDE8F08390
:1027600008F1FF334FEAE30CC3F3C703E41A0CF19B
:10277000010EE6B20CFB00005EFA84F4B0FBF4F448
:10278000A4B2D2E70846E9E73F420F0000127A0000
:102790000B4B10B54FF45472044600211846FFF756
:1027A0005FF9084BA3614033E361D8332362F03310
:1027B0006362E36A60610022C3F8C02010BD00BFFD
:1027C00000A4004070A400402DE9F04F00F58055B2
:1027D000994695F85834012B89B004468A469046AC
:1027E00004D90027384609B0BDE8F08F8D4A52F869
:1027F000231009B942F823008B49C4F80CA00B78C8
:1028000084F8109093B9FFF753FD884B9A6D42F00E
:1028100000729A659A6B42F000729A639A6B22F08A
:1028200000729A6301230B70FFF748FD95F851344D
:1028300073B903211520FFF73BFD01F023FD0321B0
:10284000162001F01FFD012385F85134FFF736FDF6
:10285000FFF72EFDE26A936923F01003936100F005
:10286000A9FB0746E36A9E6916F0080607D000F048
:10287000A1FBC31BFA2BF5D9FFF720FDB1E79A693D
:1028800042F001029A6100F095FB0746E36A9A69FB
:10289000D00705D400F08EFBC31BFA2BF6D9EBE76B
:1028A0009A6942F002029A61E36A00275F65FFF7C6
:1028B00005FD686CFFF7CCFB04F5825B0BF1100B98
:1028C000202200216846FFF7CBF802A8FFF732FE6E
:1028D00006976A460BEB06030DF1180E9446BCE80A
:1028E0000300F44518605960624603F10803F5D10E
:1028F000DCF80000186020369CF804201A71B6F548
:10290000806FDDD1002304F5A25285F8503485F89C
:1029100053341A3251462046FFF7D0FE074690B98D
:10292000E26A936923F00103936100F043FB0546DB
:10293000E36A9B69D9077FF554AF00F03BFB431B6B
:10294000FA2BF5D94DE795F85F6495F85E24C5F844
:102950006CA4360246EA426695F86024E36A1643A0
:10296000B5F85C2446EA0246DE61B8F1000F29D0D2
:1029700004F5A352023241462046FFF79FFE90B96C
:10298000E26A936923F00103936100F013FB0546AB
:10299000E36A9B69DA077FF524AF00F00BFB431B6A
:1029A000FA2BF5D91DE795F8683495F86714C5F842
:1029B00070841B0143EA0123B5F86414E26A43EA18
:1029C0000143D3602046FFF7E3FE002385F8593426
:1029D000E36A6FF040421A65E36A154A5A65E36A92
:1029E00044229A65E36A0722C3F8DC20E36A0322E3
:1029F0009145DA653FF4F6AEE26A936923F001038C
:102A0000936100F0D7FA0646E36A9B69DB0705D5B8
:102A100000F0D0FA831BFA2BF6D9E2E6012385F801
:102A20005234DFE6304F0020344F002000100240C7
:102A30009B0008002DE9F04F054689B09046994665
:102A4000002741F2680A00F58056EB6AD3F8D430CB
:102A5000FB40D8074AD505EB471252444FEA471BC3
:102A60001379190742D4D6F880340133C6F880347C
:102A700013799A0648BFD6F8A83405EB0B0248BF75
:102A80000133524448BFC6F8A834137943F0080311
:102A90001371DB0722D596F85334FBB105F5825448
:102AA000183468465C44FFF74BFD03AB04F1080C97
:102AB000206861681A4603C2083464451346F7D19A
:102AC00020681060A2889A800123ADF808302B6836
:102AD000CDE90089DB6B694628469847D6F854341F
:102AE00023B1D6F89C340133C6F89C340137202F2B
:102AF000ABD109B0BDE8F08F2DE9F04F8DB00446A1
:102B00000F4600F059FA82468946002F56D1E36AF3
:102B1000D3F89020920141BF04F58051D1F894245C
:102B20000132C1F89424D3F89020160703D1002075
:102B30000DB0BDE8F08FD3F89050E669C5F30125DC
:102B4000482303FB0566E8464046FFF7F3FC32687E
:102B500051004ABF22F06043C2F38A4343F000436E
:102B6000920048BF43F080430093736813F400134E
:102B70001FBF04F5805201238DF80D30D2F8AC341C
:102B80000EBF8DF80D300133C2F8AC34F38803F07A
:102B90000F038DF80C304FF0000B9DF80C0000F087
:102BA00065FA5FFA8BF3984220D9F2180CA90B440E
:102BB000127A03F82C2C0BF1010BEEE7012FB6D1A2
:102BC000E36AD3F89820950141BF04F58051D1F80C
:102BD00094240132C1F89424D3F898201007A6D089
:102BE000D3F89850266AC5F30125A9E7EFB9E36A3F
:102BF000C3F8945004A8FFF7A3FC98E80F0007ADB2
:102C000007C52B800023ADF8183023682046CDE996
:102C100004A9DB6B04A9984704F5805458B1D4F893
:102C20008C340133C4F88C3482E7012F04BFE36A8B
:102C3000C3F89C50DEE7D4F890340133C4F89034E4
:102C4000012075E7F8B505460F4600F580540126CA
:102C500039462846FFF750FF10B184F85364F7E770
:102C6000D4F8543423B1D4F89C340133C4F89C34E0
:102C7000F8BD0000F0B5C36A1A6C12F47F0F2BD0B8
:102C800000F580541B6CC4F8A03441F268050023A1
:102C900047194FF0010C00EB43122A445E011179F1
:102CA00011F0020F15D0490713D4B959C66AD6F8E6
:102CB000C8E00CFA01F111EA0E0F0AD0C6F8D010E4
:102CC000117941F004011171D4F888240132C4F85B
:102CD00088240133202BDED1F0BD000010B5254C37
:102CE000254B226802B338B31A6D12060ED5802226
:102CF0001A6500F061F950EA01020B4602D0013872
:102D000061F1000302462068FFF794FE1A4A136D32
:102D10001B032AD523684FF4002103F58053116566
:102D2000012283F8592420E001221A6508221A653D
:102D30004FF480621A6510BD196DC80702D4196D71
:102D4000890705D50321196510460021FFF77AFF91
:102D5000094B1A6D100702D41A6DD10605D5182239
:102D60001A6520680121FFF76DFF2068BDE810405B
:102D7000FFF780BF304F00200064004008B5FFF728
:102D800097FAFFF777FFBDE80840FFF797BA000012
:102D9000C36AD3F8C40080F40010C0F340507047F9
:102DA00000F5805008B5FFF783FA406CFFF762F931
:102DB000FFF784FA43090CBF0120002008BD000082
:102DC00000F5805393F8592462B1C16A8A6922F0F0
:102DD00001028A61D3F898240132C3F898240022B2
:102DE00083F85924704700002DE9F74300F582511C
:102DF00098461031FFF75CFA002541F2680E4FF05B
:102E0000010900F5805C00EB4514744423795E07EA
:102E10001CD4DB061AD5C36A8E69D3F8C87009FAC8
:102E200006F63E4212D04F6801970F689742019F05
:102E300077EB08070AD2C3F8D060237943F0040384
:102E40002371DCF884340133CCF884340135202D2F
:102E500001F12001D7D103B0BDE8F043FFF72EBA4E
:102E6000F8B51E46002313700F4605461446FFF7BB
:102E700097FF80F0010038701EB12846FFF788FFE9
:102E80002070F8BD2DE9F04F85B09946DDE90EA31D
:102E90000D4602931378019391F800B080461646D0
:102EA00000F08AF82B7804460F4613B93378002BCC
:102EB00042D022463B464046FFF796FFFFF75EFFB3
:102EC000FFF77EFF4B4632462946FFF7C9FF2B78B6
:102ED00033B1BBF1000F03D0012005B0BDE8F08F86
:102EE000337813B1019B002BF6D108F5805303937F
:102EF000029B544577EB03031ED2039BD3F8540483
:102F0000D0B10368AAEB0401DB6889B298474B464D
:102F1000324629464046FFF7A3FF2B7813B1BBF199
:102F2000000FD9D1337813B1019B002BD4D100F01D
:102F300043F804460F46DBE70020CEE708B5002043
:102F4000FFF7CCFEBDE8084001F050B808B50120FD
:102F5000FFF7C4FEBDE8084001F048B800B59BB0DB
:102F6000EFF3098168226846FEF768FDEFF30583F9
:102F7000014B9B6BFEE700BF00ED00E008B5FFF7DB
:102F8000EDFF000000B59BB0EFF3098168226846B1
:102F9000FEF754FDEFF30583014B5B6BFEE700BFCB
:102FA00000ED00E0FEE700000FB408B5029801F064
:102FB000EFFBFEE701F0FEBE01F0D6BE13B56C4696
:102FC00084E80600031D94E8030083E8050001205F
:102FD00002B010BD73B58568019155B11B885B07C0
:102FE00007D4D0E900369B6B9847019AC1B23046AE
:102FF000A847012002B070BDF0B5866889B00546CB
:103000000C465EB1BDF838305B070AD4D0E9003712
:103010009B6B98472246C1B23846B047012009B0A1
:10302000F0BD00220023CDE900230023ADF80830D5
:103030000A4603AB01F10806106851681C4603C438
:103040000832B2422346F7D1106820609288A280ED
:10305000FFF7B2FF0423ADF808302B68CDE900017B
:10306000DB6B694628469847D8E70000082817D93F
:1030700009280CD00A280CD00B280CD00C280CD016
:103080000D280CD00E2814BF4020302070470C2093
:103090007047102070471420704718207047202078
:1030A000704700002DE9F041456A15B94162BDE85D
:1030B000F0814B6823F06047C3F38A464FEAD37E22
:1030C000C3F3807816EA230638BF3E46AC462B464B
:1030D0005A68BEEBD27F22F060440AD0002A18DA88
:1030E000A40CB44217D19D420FD10D60DEE7134608
:1030F000EEE7A74207D102F08044C2F38072424556
:103100000BD054B1EFE708D2EDE7CCF800100B601C
:10311000CDE7B44201D0B442E5D81A689C46002AF3
:10312000E5D11960C3E700002DE9F047089D01F0E3
:1031300007044FEAD508224405F0070500EBD1004B
:103140004FF47F49944201D1BDE8F08704F00707AE
:1031500005F0070A57453E4638BF5646C6F10806F1
:10316000111B8E4228BF0E46E10808EBD50E415CCC
:1031700013F80EC0B94029FA06F721FA0AF1FFB296
:103180008CEA010147FA0AF739408CEA010C03F88E
:103190000EC034443544D5E780EA0120082341F2CB
:1031A000210201B24000002980B203F1FF33B8BF11
:1031B000504013F0FF03F4D17047000038B50C46BF
:1031C0008D18A54200D138BD14F8011BFFF7E4FFAC
:1031D000F7E7000042684AB1136843604389818978
:1031E00001339BB29942438138BF838110467047B7
:1031F00070B588B0202204460D4668460021FEF7CF
:103200002FFC20460495FFF7E5FF024658B16B46B8
:10321000054608AE1C4603CCB442286069602346CC
:1032200005F10805F6D1104608B070BD082817D979
:1032300009280CD00A280CD00B280CD00C280CD054
:103240000D280CD00E2814BF4020302070470C20D1
:1032500070471020704714207047182070472020B6
:1032600070470000082817D90C280CD910280CD951
:1032700014280CD918280CD920280CD930288CBF38
:103280000F200E207047092070470A2070470B203E
:1032900070470C2070470D20704700002DE9F8435F
:1032A000078C072F04461ED9D0E9029800254FF657
:1032B000FF73C5F12006A5F1200029FA05F108FAEF
:1032C00006F628FA00F031430143C9B21846FFF769
:1032D00063FF0835402D0346EBD1E1693A46BDE86E
:1032E000F843FFF76BBF4FF6FF70BDE8F8830000AF
:1032F00010B54B6823B9CA8A63F30902CA8210BDAC
:1033000004691A681C600361C38A013BC3824A6076
:10331000EFE700002DE9F84F1D46CB8A0F46C3F3B7
:1033200009010529814692460B4630D00020AAB2F9
:1033300007F11A049EB2042E1FFA80F80FD89045A8
:1033400003F1010306D3FB8A0A4462F30903FB82FB
:1033500001201AE01AF80060E6540130EAE79045CF
:10336000F1D2A1F1050B1C237C68BBFBF3F203FB3C
:1033700012BB1FFA8BF6002C45D14846FFF72AFFF7
:10338000044638B978606FF00200BDE8F88F4FF05E
:103390000008E6E7002606607860ADB24FF0000B4B
:1033A000454510D90AEB0803221D13F8011B91555E
:1033B000B1B208F101081B291FFA88F82BD0454546
:1033C00006F10106F1D8FB8AC3F30902154465F33F
:1033D0000903BCE7013292B21C462368002BF9D1E5
:1033E0006B1F0B441C21B3FBF1F301339BB29A42D8
:1033F000D3D2BBF1000FD0D14846FFF7EBFE20B986
:10340000C4F800B0BFE70122E7E7C0F800B05E46AD
:1034100020600446C1E74545D5D94846FFF7DAFEA6
:1034200008B92060AFE7C0F800B00026206004466D
:10343000B6E700002DE9F04F2DED028B1C4683B05E
:103440005B69019207468846002B00F09A80238C26
:103450002BB1E269002A00F09480072B35D807F1E0
:103460000C00FFF7B7FE054638B96FF00205284695
:1034700003B0BDEC028BBDE8F08F14220021FEF7F3
:10348000EFFA228CE16905F10800FEF7D7FA208CEB
:10349000013080B2FFF7E6FEFFF7C8FE013880B2C8
:1034A0002084013028746369228C1B782A4403F03D
:1034B0001F0363F03F0348F0004113723846696010
:1034C0002946FFF7EFFD0125D1E700F10C034FF08E
:1034D000000908EE103A4FF0800A4E464D4618EEAD
:1034E000100AFFF777FE83460028BED01422002181
:1034F000FEF7B6FA002E3AD1019BABF80830022253
:103500000BF1080E1FFA82FC0CF10100BCF1060F52
:10351000218C80B201D88E422BD3FFF7A3FEFFF798
:1035200085FE62691278013802F01F028E4208BFE0
:103530004FF0400A42EA49121BFA80F14AEA020AB5
:10354000013048F0004281F808A08BF81000CBF859
:10355000042059463846FFF7A5FD238C0135B342B8
:103560002DB289F001094FF0000AB8D17FE700229F
:10357000C6E7E169895D0EF802100136B6B2013284
:10358000C0E76FF0010572E7F8B515460E46302228
:10359000002104461F46FEF763FA069B6360B5F5FB
:1035A000001F079BA76034BF6A094FF6FF72A36232
:1035B00097B2E66104F1100000239A4206D8002376
:1035C0000360A782E3822383E360F8BD06600133D2
:1035D00030462036F1E7000003781BB94BB2002BD0
:1035E000C8BF01707047000000787047F8B50C46FE
:1035F000C969074611B9238C002B37D1257E1F2DB1
:1036000034D8387828BB228C072A2CD8268A36F062
:1036100003032BD14FF6FF70FFF7D0FD20F0010020
:103620003102400441EA0561400C41EA40254FF671
:10363000FF72234629463846FFF7FCFE002807DDC7
:10364000626913780133DBB21F2B88BF002313702C
:10365000F8BD218A2D0645EA012505432046FFF7DE
:103660001DFE0246E5E76FF00300F1E76FF0010091
:10367000EEE7000070B58AB0044616460021282205
:1036800068461D46FEF7ECF9BDF83830ADF810304D
:103690000F9B05939DF840308DF81830119B0793D0
:1036A0006946BDF84830ADF820302046CDE90265C6
:1036B000FFF79CFF0AB070BD2DE9F041D3690546C4
:1036C0000C4616460BB9138C5BBB377E1F2F28D8D0
:1036D00095F80080B8F1000F26D03046FFF7DEFDE8
:1036E0003378210241EAC33141EA0801338A41EAD1
:1036F000076141EA03410246334641F08001284612
:10370000FFF798FE00280ADD3378012B07D1726994
:1037100013780133DBB21F2B88BF00231370BDE881
:10372000F0816FF00100FAE76FF00300F7E70000A7
:10373000F0B58BB004460D46174600212822684696
:103740001E46FEF78DF99DF84C305A1E53425341E8
:103750008DF800309DF84030ADF81030119B059386
:103760009DF848308DF81830149B07936A46BDF8D1
:103770005430ADF8203029462046CDE90276FFF7D7
:103780009BFF0BB0F0BD0000406A00B104307047F1
:10379000436A1A68426202691A600361C38A013B84
:1037A000C38270472DE9F041D0F82080194E1446AD
:1037B0001D464146002709B9BDE8F081D1E9022341
:1037C000A21A65EB0303964277EB03031ED2036A4A
:1037D0008B420DD1FFF78CFD036A1B6803620369FE
:1037E0000B60C38A0161016A013BC3828846E2E73C
:1037F000FFF77EFD0B68C8F8003003690B60C38AD1
:103800000161013BC382D8F80010D4E788460968FB
:10381000D1E700BF80841E002DE9F04F8BB00D462C
:10382000DDF8509014469B468046002800F0198130
:10383000B9F1000F00F01581531E3F2B00F21181EA
:10384000012A03D1BBF1000F40F00B810023CDE929
:103850000833B8F81430B5EBC30F4FEAC30703D3EE
:1038600000200BB0BDE8F08F2B199F42D8F80C3028
:103870003ABF7F1BFFB227461BB9D8F81030002B88
:103880007AD0272D4ED8C5F12806B7424FF0000355
:103890002CBFF6B23E4600932946D8F8080008AB84
:1038A0003246FFF741FCA7EB060A35445FFA8AFA75
:1038B000B8F8143003F10053053BDB000493D8F84B
:1038C0000C3003932821039B13B1BAF1000F2CD1C4
:1038D000D8F8100040B1BAF1000F05D0009608AB3F
:1038E0005246691AFFF720FC38B2002FB8D066079D
:1038F0000AD00AAB03EBD401624211F8083C02F093
:103900000702134101F8083C082C3CD9102C40F266
:10391000B580202C40F2B780BBF1000F00F09C80F6
:10392000082334E0BA460026C2E7049BE02B28BFF8
:10393000E02306930B44AB42059314D95A1B03981A
:103940000096924534BF5246D2B2691A08AB043091
:103950000792FFF7E9FB079A1644AAEB020A1544FF
:10396000F6B25FFA8AFA049B069A05999B1A0493A9
:10397000039B1B680393A6E70093D8F8080008ABE5
:103980003A462946AEE7BBF1000F13D00123B4EB52
:10399000C30F6CD0082C12D89DF82030621E23FA79
:1039A00002F2D50706D54FF0FF3202FA04F42343A2
:1039B0008DF820309DF8203089F8003051E7102C28
:1039C00012D8BDF82030621E23FA02F2D10706D5C4
:1039D0004FF0FF3202FA04F42343ADF82030BDF873
:1039E0002030A9F800303CE7202C0FD80899631E3E
:1039F00021FA03F3DA0705D54FF0FF3202FA04F497
:103A00000C430894089BC9F800302AE7402C2BD0BF
:103A1000DDE90865611EC4F12102A4F1210326FA43
:103A200001F105FA02F225FA03F311431943CB071A
:103A300012D50122A4F12003C4F1200102FA03F3FC
:103A400022FA01F1A240524243EA010363EB43032D
:103A500032432B43CDE90823DDE90823C9E90023DC
:103A6000FFE66FF00100FCE66FF00800F9E6082CB5
:103A7000A0D9102CB3D9202CEED8C3E7BBF1000F8E
:103A8000ADD0022383E7BBF1000FBBD004237EE758
:103A900030B5012A144638BF0124402C85B028BF18
:103AA00040240025012ACDE9025518D81B788DF84D
:103AB000083063070AD004AB03EBD405624215F863
:103AC000083C02F00702934005F8083C00910346C9
:103AD0002246002102A8FFF727FB05B030BD082AC7
:103AE000E4D9102A03D81B88ADF80830E1E7202A72
:103AF0008DBFD3E900231B680293CDE90223D8E7E9
:103B000010B5CB681BB98B600B618B8210BD04694B
:103B10001A681C600361C38A013BC382CA60F0E774
:103B200003064CBFC0F3C0300220704708B5024600
:103B3000FFF7F6FF022806D15306C2F30F2001D18A
:103B400000F0030008BDC2F30740FBE72DE9F04F8A
:103B500093B0CDE903230A6804461046FFF7E0FF5F
:103B6000022814BFC2F306260026002A0D4682460C
:103B700080F2F28112F0C04940F0EE81097B002909
:103B800000F0EA81022803D02378B34240F0E781B5
:103B9000C2F304630693104602F07F030593FFF718
:103BA000C5FF059B29444FEA834848EA0A4848EA8A
:103BB0004668CE7800230022CDE90823F309834626
:103BC00048EA0008029367D0059B009302466768A5
:103BD000534608A92046B847002800F0C381276A49
:103BE0004FB9414604F10C00FFF702FB074690B9BC
:103BF0006FF0020054E03B6998450DD03F68002FFC
:103C0000F9D1414604F10C00FFF7F2FA074600280B
:103C1000EED0236A3B60276297F817C006F01F08B2
:103C2000CCF3840CACEB08001FFA80FE0028B8BF70
:103C30000EF12000A8EB0C031FFA83FED7E9022146
:103C4000B8BF00B2002B0793BEBF0EF120031BB21A
:103C5000079352EA010338D0039BDFF824E39A1A52
:103C6000049B4FF0000C63EB010196457CEB0103D4
:103C70002BD36B7B97F81AE0734519D1029B002B6D
:103C800078D0012821DC7868F8B9DFF8F0C29445D3
:103C900070EB010316D337E0276A27B96FF00C00E9
:103CA00013B0BDE8F08F3B699845B5D03F68F4E7A5
:103CB000B24890427CEB010301D30020F0E7029B65
:103CC000002BFAD0079B0F2B17DCFA7DB30002F014
:103CD000030203F07C031343FB7539462046FFF7CC
:103CE00007FB6B7BBB76029B3BB9FB7DC3F3840276
:103CF000013262F38603FB75D0E76A7BBB7E9A4292
:103D0000DBD1029B002B35D0B309022B32D0039BB1
:103D1000BB60049BFB60142200210DA8FDF7A0FEF0
:103D2000039B0A93049B0B932B1D0C932B7BADF8E9
:103D30003EB0013BDBB2ADF83C30069B8DF8423023
:103D4000059B8DF8433094F82C308DF840A083F01B
:103D500001038DF844308DF84180A3680AA92046FC
:103D60009847FB7DC3F38403013303F01F039B02D9
:103D7000FB82A2E7FB7DC6F34012B2EBD31F40F0FB
:103D8000F480C3F38403434540F0F280029A2B7B16
:103D9000B609002A4DD0F2075DD4032B40F2EB8028
:103DA000039BBB60049BFB602B7BAE1D033BDBB224
:103DB0003246394604F10C00FFF7ACFA00280CDA61
:103DC00039462046FFF794FAFB7DC3F384030133A1
:103DD00003F01F039B02FB820AE7DDE90884AB883E
:103DE0003B834FF6FF73C9F12000A9F1200228FAA6
:103DF00009F104FA00F0014324FA02F211431846D3
:103E0000C9B2FFF7C9F909F10809B9F1400F034632
:103E1000E9D1B8822A7B033AD2B23146FFF7CEF914
:103E2000FB7DB882DA43C2F3C01262F3C713FB759D
:103E300043E786B92E1D013BDBB23246394604F119
:103E40000C00FFF767FA0028BADB2A7BB88A013A30
:103E5000D2B23146E2E7F98AC1F30901013B0429F4
:103E6000DAB25BD8281D002307F11B069A4208D955
:103E700010F801CB06F801C0013101330529DBB28E
:103E8000F4D103990A9104990B91934207F11B0114
:103E90000C9138BF043379680D9134BF55FA83F320
:103EA00000230E93FB8AADF83EB0C3F309031A4416
:103EB000069B8DF84230059B8DF8433094F82C30EA
:103EC000ADF83C2083F001038DF8443000238DF8D9
:103ED00040A08DF841807B602A7BB88A013A291D79
:103EE000FFF76CF93B8BB882834203D1A3680AA920
:103EF0002046984720460AA9FFF702FEFB7DBA8AB2
:103F0000C3F38403013303F01F039B02FB823B8B4B
:103F10009A420CBF00206FF01000C1E67B68002BB6
:103F2000AFD0052001E01C3033461E68002EFAD1C8
:103F3000091A081D2E1D184401EB090CBCF11B0FBA
:103F40005FFA89F39DD89A429BD916F8013B00F895
:103F5000013B09F10109EFE76FF00900A0E66FF0FE
:103F60000A009DE66FF00B009AE66FF00D0097E6F1
:103F70006FF00E0094E66FF00F0091E640420F00E4
:103F800080841E00EFF3098305494A6B22F0010289
:103F90004A63683383F30988002383F311887047E9
:103FA00000EF00E0302080F3118862B60C4B0D4A20
:103FB000D96821F4E0610904090C0A43DA60D3F8F6
:103FC000FC20094942F08072C3F8FC200A6842F0E4
:103FD00001020A602022DA7783F82200704700BFCE
:103FE00000ED00E00003FA05001000E010B53023FA
:103FF00083F311880E4B5B6813F4006314D0F1EE69
:10400000103AEFF30984683C4FF08073E361094B89
:10401000DB6B236684F3098800F078FB10B1064B54
:10402000A36110BD054BFBE783F31188F9E700BFDF
:1040300000ED00E000EF00E043060008460600083F
:10404000026843681143016003B1184770470000DC
:10405000024A136843F0C003136070470038014000
:1040600013B50E4C204600F0B7FA04F114000C49C9
:10407000009400234FF4807200F074F9094B0A4950
:1040800000944FF4807204F1380000F0EDF9074A13
:10409000074BC4E9172302B010BD00BF3C4F0020FE
:1040A000A84F002051400008A850002000380140CF
:1040B000007A030A30B5037C234C002918BF0C4654
:1040C000012B0FD1214B98420CD1214B1A6E42F497
:1040D00080421A66D3F8802042F48042C3F88020E0
:1040E000D3F880302268036EC16D846603EB5203FF
:1040F000B3FBF2F36268150442BF23F0070503F037
:10410000070343EA4503CB60A36843F040034B60D9
:10411000E36843F001038B6042F4967343F00103BC
:104120000B604FF0FF330B62510505D512F01022E2
:1041300005D0B2F1805F04D080F8643030BD7F23B9
:10414000FAE73F23F8E700BF685600083C4F00201D
:10415000001002402DE9F047C66D3768F4693462FB
:104160002107054619D014F0080118BF4FF48071DB
:10417000E20748BF41F02001A30748BF41F04001DA
:10418000600748BF41F08001302383F31188281D68
:10419000FFF756FF002383F31188E2050AD5302389
:1041A00083F311884FF48061281DFFF749FF002336
:1041B00083F311884FF030094FF0000A14F0200803
:1041C00038D13B0616D54FF0300905F1380A2006E4
:1041D00010D589F31188504600F07AF9002836DAB4
:1041E0000821281DFFF72CFF27F0800333600023F0
:1041F00083F31188790614D5620612D5302383F330
:104200001188D5E913239A4208D12B6C33B11021C0
:10421000281D27F04007FFF713FF3760002383F3C3
:104220001188E30618D5AA6E1369ABB1BDE8F04753
:104230005069184789F31188736A95F86410284605
:10424000194000F0E3F98AF31188F469B6E7B06227
:1042500088F31188F469BAE7BDE8F0874FF0E023EE
:10426000002258684FF0FF31930003F1604303F5DB
:10427000614301329042C3F88010C3F88011F3D239
:104280007047000000F1604303F561430901C9B2C2
:1042900083F80013012200F01F039A4043099B009A
:1042A00003F1604303F56143C3F880211A6070474E
:1042B000F8B5154682680669AA420B46816938BF7F
:1042C0008568761AB54204460BD218462A46FDF791
:1042D000B5FBA3692B44A361A3685B1BA3602846BD
:1042E000F8BD0CD918463246FDF7A8FBAF1BE168B4
:1042F0003A463044FDF7A2FBE3683B44EBE718463F
:104300002A46FDF79BFBE368E5E7000083689342DC
:10431000F7B51546044638BF8568D0E90460361AFB
:10432000B5420BD22A46FDF789FB63692B446361D2
:10433000A36828465B1BA36003B0F0BD0DD93246CD
:104340000191FDF77BFB0199E068AF1B3A463144D0
:10435000FDF774FBE3683B44E9E72A46FDF76EFB93
:10436000E368E4E710B50A440024C361029B84605B
:10437000C0E90000C0E90511C1600261036210BD1F
:1043800008B5D0E90532934201D1826882B98268CA
:10439000013282605A1C42611970D0E904329A429B
:1043A00024BFC3684361002100F078FA002008BDF3
:1043B0004FF0FF30FBE7000070B5302304460E4697
:1043C00083F31188A568A5B1A368A269013BA36026
:1043D000531CA36115782269934224BFE368A3614B
:1043E000E3690BB120469847002383F311882846E0
:1043F00007E03146204600F041FA0028E2DA85F372
:10440000118870BD2DE9F74F04460E4617469846B1
:10441000D0F81C904FF0300A8AF311884FF0000B4F
:10442000154665B12A4631462046FFF741FF03464F
:1044300060B94146204600F021FA0028F1D000235F
:1044400083F31188781B03B0BDE8F08FB9F1000F3A
:1044500003D001902046C847019B8BF31188ED1AC9
:104460001E448AF31188DCE7C0E90511C160C3610D
:104470001144009B8260C0E9000001610362704743
:10448000F8B504460D461646302383F31188A76815
:10449000A7B1A368013BA36063695A1C62611D70E8
:1044A000D4E904329A4224BFE3686361E3690BB143
:1044B00020469847002080F3118807E031462046C7
:1044C00000F0DCF90028E2DA87F31188F8BD00007B
:1044D000D0E905239A4210B501D182687AB9826881
:1044E000013282605A1C82611C7803699A4224BF9F
:1044F000C3688361002100F0D1F9204610BD4FF060
:10450000FF30FBE72DE9F74F04460E461746984665
:10451000D0F81C904FF0300A8AF311884FF0000B4E
:10452000154665B12A4631462046FFF7EFFE0346A1
:1045300060B94146204600F0A1F90028F1D00023DF
:1045400083F31188781B03B0BDE8F08FB9F1000F39
:1045500003D001902046C847019B8BF31188ED1AC8
:104560001E448AF31188DCE7026843681143016046
:1045700003B11847704700001430FFF743BF000035
:104580004FF0FF331430FFF73DBF00003830FFF726
:10459000B9BF00004FF0FF333830FFF7B3BF000062
:1045A0001430FFF709BF00004FF0FF311430FFF760
:1045B00003BF00003830FFF763BF00004FF0FF3249
:1045C0003830FFF75DBF0000012914BF6FF0130002
:1045D00000207047FFF744BD044B03600023C0E98F
:1045E0000233436001230374704700BF8056000804
:1045F00010B53023044683F31188FFF75BFD0223D7
:104600002374002080F3118810BD000038B5C36901
:1046100004460D461BB904210844FFF7A5FF2946AF
:1046200004F11400FFF7ACFE002806DA201D4FF459
:104630000061BDE83840FFF797BF38BD0023037520
:10464000826803691B6899689142FBD25A680360CB
:1046500042601060586070470023037582680369E8
:104660001B6899689142FBD85A68036042601060E9
:104670005860704708B50846302383F311880B7DD6
:10468000032B05D0042B0DD02BB983F3118808BD63
:104690008B6900221A604FF0FF338361FFF7CEFF72
:1046A0000023F2E7D1E9003213605A60F3E700001B
:1046B000FFF7C4BF054BD9680875186802681A600F
:1046C000536001220275D860FBF7A6BFA8510020F5
:1046D00030B50C4BDD684B1C87B004460FD02B4621
:1046E000094A684600F06CF92046FFF7E3FF009B9B
:1046F00013B1684600F06EF9A86907B030BDFFF746
:10470000D9FFF9E7A851002075460008044B1A6844
:10471000DB6890689B68984294BF00200120704736
:10472000A8510020084B10B51C68D86822681A6090
:10473000536001222275DC60FFF78EFF01462046A0
:10474000BDE81040FBF768BFA8510020044B1A6871
:10475000DB6892689B689A4201D9FFF7E3BF704714
:10476000A851002038B5074C074908480123002507
:104770002370656000F01CFC0223237085F3118810
:1047800038BD00BF10540020AC560008A8510020CE
:1047900008B572B6044B186500F0D2FA00F08AFB37
:1047A000024B03221A70FEE7A8510020105400208B
:1047B00000F046B9EFF3118020B9EFF30583302202
:1047C00082F311887047000010B530B9EFF305840B
:1047D000C4F3080414B180F3118810BDFFF7B6FFCD
:1047E00084F31188F9E700008B60022308618B8253
:1047F000084670478368A3F1840243F8142C0269C9
:1048000043F8442C426943F8402C094A43F8242CCD
:10481000C26843F8182C022203F80C2C002203F87B
:104820000B2C044A43F8102CA3F12000704700BF62
:1048300031060008A851002008B5FFF7DBFFBDE8EE
:104840000840FFF735BF0000024BDB6898610F207E
:10485000FFF730BFA8510020302383F31188FFF702
:10486000F3BF000008B50146302383F31188082008
:10487000FFF72EFF002383F3118808BD064BDB688A
:1048800039B1426818605A60136043600420FFF732
:104890001FBF4FF0FF307047A851002003689842B7
:1048A00006D01A680260506099611846FFF700BF91
:1048B0007047000010B503689C68A2420CD85C6881
:1048C0008A600B604C602160596099688A1A9A600E
:1048D0004FF0FF33836010BD1B68121BECE7000034
:1048E0000A2938BF0A2170B504460D460A26601908
:1048F00000F058FB00F044FB041BA54203D8751CD4
:104900002E460446F3E70A2E04D9BDE87040012084
:1049100000F08EBB70BD0000F8B5144B0D46D96198
:1049200003F1100141600A2A1969826038BF0A2226
:10493000016048601861A818144600F025FB0A279A
:1049400000F01EFB431BA342064606D37C1C28191D
:1049500000F028FB27463546F2E70A2F04D9BDE8C8
:10496000F840012000F064BBF8BD00BFA851002052
:10497000F8B506460D4600F003FB0F4A134653F800
:10498000107F9F4206D12A4601463046BDE8F840D6
:10499000FFF7C2BFD169BB68441A2C1928BF2C4647
:1049A000A34202D92946FFF79BFF2246314603481E
:1049B000BDE8F840FFF77EBFA8510020B8510020A5
:1049C00010B4C0E9032300235DF8044B4361FFF7F3
:1049D000CFBF000010B5194C236998420DD0D0E923
:1049E0000032816813605A609A680A449A60002312
:1049F00003604FF0FF33A36110BD2346026843F804
:104A0000102F53600022026022699A4203D1BDE850
:104A1000104000F0C1BA936881680B44936000F0C5
:104A2000AFFA2269E1699268441AA242E4D91144BA
:104A3000BDE81040091AFFF753BF00BFA85100207E
:104A40002DE9F047DFF8BC8008F110072C4ED8F8AC
:104A5000105000F095FAD8F81C40AA68031B9A423F
:104A60003ED81444D5E900324FF00009C8F81C4084
:104A700013605A60C5F80090D8F81030B34201D1E5
:104A800000F08AFA89F31188D5E90331284698475E
:104A9000302383F311886B69002BD8D000F070FAB3
:104AA0006A69A0EB04094A4582460DD2022000F053
:104AB000BFFA0022D8F81030B34208D15146284638
:104AC000BDE8F047FFF728BF121A2244F2E712EBC5
:104AD000090938BF4A4629463846FFF7EBFEB5E7D5
:104AE000D8F81030B34208D01444211AC8F81C007A
:104AF000A960BDE8F047FFF7F3BEBDE8F08700BF4F
:104B0000B8510020A851002000207047FEE70000A7
:104B1000704700004FF0FF3070470000BFF34F8F29
:104B2000024A1369DB03FCD4704700BF0020024037
:104B300008B5094B1B7873B9FFF7F0FF074B5A69AB
:104B4000002ABFBF064A9A6002F188329A601A684A
:104B500022F480621A6008BD285400200020024020
:104B60002301674508B50B4B1B7893B9FFF7D6FFB8
:104B7000094B5A6942F000425A611A6842F4805265
:104B80001A601A6822F480521A601A6842F480622D
:104B90001A6008BD28540020002002407F289ABFD8
:104BA00000F58030C0020020704700004FF4006024
:104BB00070470000802070477F2808B50BD8FFF7AA
:104BC000EDFF00F500630268013204D10430834236
:104BD000F9D1012008BD0020FCE700007F2810B5B6
:104BE00004461FD8FFF79AFFFFF7A2FF0E4BF322F0
:104BF0001A6102225A615A6942EAC0025A615A692C
:104C000042F480325A61FFF789FF4FF40061FFF7E9
:104C1000C5FF00F04BF9FFF7A5FF2046BDE81040A7
:104C2000FFF7CABF002010BD002002402DE9F84365
:104C300040EA020313F00703144606D0304B40F25B
:104C400031321A600020BDE8F88385182D4A95425C
:104C50000CD92B4A40F236311160F3E7031D1B6873
:104C60004A68934208D1083C08300831072C14D90F
:104C700002680B689A42F1D0FFF75AFFFFF74EFF28
:104C8000214E08314FF001084FF00009012CA1F12D
:104C9000080706D8FFF766FF01E0002CECD10120E1
:104CA000D1E7C6F81480054651F8083C45F8043BA6
:104CB00051F8043C4360FFF731FF336943F00103CF
:104CC0003361C6F81490026851F8083C9A420CD03F
:104CD0000B4B40F25E321A600C4B18600C4B1C60A0
:104CE0000C4B1F60FFF73EFFACE72D6851F8043C0A
:104CF0009D4201F10801EBD1083C0830C6E700BF36
:104D00002454002000000408002002401854002011
:104D1000205400201C540020084908B50B7828B105
:104D20001BB9FFF705FF01230B7008BD002BFCD05A
:104D3000BDE808400870FFF715BF00BF28540020E9
:104D400008B54FF4C0314FF0005000F0B1F8BDE8A5
:104D500008404FF480414FF0805000F0A9B80000A7
:104D6000084600F0F3BB000070B582B0FFF722FDEB
:104D70000E4E054600F004F93268904237BF0C4AE7
:104D80000B49516814682EBFD1E9004101315160CF
:104D90000419034641F10001284601913360FFF7F1
:104DA00013FD0199204602B070BD00BF2C540020B5
:104DB0003054002070B582B0FFF7FCFC104E054661
:104DC00000F0DEF83268904237BF0E4A0D49516854
:104DD00014682EBFD1E9004101315160041941F13D
:104DE00000010346284601913360FFF7EDFC01996D
:104DF0004FF47A7200232046FBF7FAF902B070BD37
:104E00002C540020305400200244D2B2904200D1F1
:104E10007047431C800000F1804000F5145000688A
:104E200041F8040BD8B2F1E7124B10B5D3F890401B
:104E3000240409D4D3F89040C3F89040D3F89040AC
:104E400044F40044C3F890400B4C2368024443F4FC
:104E500080732360D2B2904200D110BD431C800009
:104E600000F1804000F5145051F8044B0460D8B2B2
:104E7000F1E700BF001002400070004007B50122BA
:104E800001A90020FFF7C0FF019803B05DF804FB03
:104E900013B50446FFF7F2FFA04205D0012201A995
:104EA00000200194FFF7C0FF02B010BD7047000062
:104EB0007047000070470000074B45F255521A60DA
:104EC00002225A6040F6FF729A604CF6CC421A6099
:104ED000024B01221A707047003000403C54002001
:104EE000034B1B781BB1034B4AF6AA221A6070478A
:104EF0003C54002000300040054B1A6832B902F1E2
:104F0000804202F50432D2F894201A60704700BF44
:104F100038540020024B4FF40002C3F8942070472D
:104F20000010024008B5FFF7E7FF024B1868C0F316
:104F3000407008BD3854002070470000FEE70000B4
:104F40000A4B0B480B4A90420BD30B4BDA1C121A3C
:104F5000C11E22F003028B4238BF00220021FCF761
:104F60007FBD53F8041B40F8041BECE71C580008F5
:104F7000C0540020C0540020C054002000F0C2B82B
:104F80004FF08043586A70474FF0804300225863C7
:104F90001A610222DA6070474FF080430022DA6023
:104FA000704700004FF0804358637047FEE70000F1
:104FB00070B51B4B01630025044686B058608562BE
:104FC0000E46FEF7EFFF04F11003C4E904334FF07F
:104FD000FF33C4E90635C4E90044A560E562FFF784
:104FE000CFFF2B460246C4E9082304F134010D4AE1
:104FF000256580232046FFF7F7FB0123E0600A4A7E
:105000000375009272680192B268CDE90223074BE2
:105010006846CDE90435FFF70FFC06B070BD00BF50
:1050200010540020B8560008BD560008AD4F0008C7
:10503000024AD36A1843D062704700BFA8510020CB
:105040004B6843608B688360CB68C3600B694361C6
:105050004B6903628B6943620B6803607047000011
:1050600008B5204BDA6A42F07F02DA62DA6A22F08F
:105070007F02DA62DA6ADA6C42F07F02DA64DA6EB0
:1050800042F07F02DA66184ADB6E11464FF090401C
:10509000FFF7D6FF02F11C0100F58060FFF7D0FF9B
:1050A00002F1380100F58060FFF7CAFF02F15401F8
:1050B00000F58060FFF7C4FF02F1700100F5806029
:1050C000FFF7BEFF02F18C0100F58060FFF7B8FF2B
:1050D00002F1A80100F58060FFF7B2FFBDE80840CB
:1050E00000F050B800100240C456000808B500F0A7
:1050F000FBF9FFF737FBBDE80840FFF7FDBE0000F6
:10510000704700000F4B9A6D42F001029A659A6F4A
:1051100042F001029A670C4A9B6F936843F00103C7
:1051200093604FF08043A7229A624FF0FF32DA6219
:1051300000229A615A63DA605A6001225A611A6049
:10514000704700BF00100240002004E04FF0804292
:1051500008B51169D3680B40D9B2C9439B071161E7
:1051600007D5302383F31188FFF722FB002383F355
:10517000118808BD08B5FFF771F8BDE8084000F0D8
:105180008BB900004E4B4FF0FF319A6A99629A6AD0
:1051900000229A62986AD86A60F07F00D862D86A62
:1051A00000F07F00D862D86A186B1963186B1A6315
:1051B000186B986B9963986B9A63986BD86BD963EB
:1051C000D86BDA63D86B186C1964196C1A64196C93
:1051D000196E41F001011966D3F8801021F0010128
:1051E000C3F88010D3F88010996D41F08051996513
:1051F000996F21F080519967996F32494FF40040BF
:105200008860CA600A624A628A62CA620A634A6342
:105210008A63CA630A644A648A64CA640A654A651E
:105220004A604FF48072C1F880204FF440720A60E7
:105230004A6912F48062FBD1D3F8901011F4407FD8
:105240001EBF4FF48031C3F89010C3F89020D3F8FC
:10525000982042F00102C3F89820D3F898209207D2
:10526000FBD51A6842F480321A601A689003FCD5A4
:10527000D3F8902022F00322C3F89020124ADA607B
:105280001A6842F080721A601A689101FCD50F49C1
:105290000F4800229A60C3F888100E49C3F89C207A
:1052A000016002684A401207FBD19A6842F003028B
:1052B0009A609A6802F00C020C2AFAD1704700BF7B
:1052C0000010024000700040032A610155010050A7
:1052D0000020024004070400074A08B5536903F0A0
:1052E0000103536123B1054A13680BB15068984715
:1052F000BDE80840FEF77ABE00040140405400209B
:10530000074A08B5536903F00203536123B1054A04
:1053100093680BB1D0689847BDE80840FEF766BEB9
:105320000004014040540020074A08B5536903F0C7
:105330000403536123B1054A13690BB150699847BF
:10534000BDE80840FEF752BE000401404054002072
:10535000074A08B5536903F00803536123B1054AAE
:1053600093690BB1D0699847BDE80840FEF73EBE8F
:105370000004014040540020074A08B5536903F077
:105380001003536123B1054A136A0BB1506A984761
:10539000BDE80840FEF72ABE00040140405400204A
:1053A000164B10B55C6904F478725A61A30604D5F3
:1053B000134A936A0BB1D06A9847600604D5104A25
:1053C000136B0BB1506B9847210604D50C4A936BB5
:1053D0000BB1D06B9847E20504D5094A136C0BB1A9
:1053E000506C9847A30504D5054A936C0BB1D06C5B
:1053F0009847BDE81040FEF7F9BD00BF000401402A
:1054000040540020194B10B55C6904F47C425A6189
:10541000620504D5164A136D0BB1506D98472305EC
:1054200004D5134A936D0BB1D06D9847E00404D5B1
:105430000F4A136E0BB1506E9847A10404D50C4A65
:10544000936E0BB1D06E9847620404D5084A136F6F
:105450000BB1506F9847230404D5054A936F0BB1E5
:10546000D06F9847BDE81040FEF7C0BD0004014072
:105470004054002008B50348FEF76CFEBDE8084024
:10548000FEF7B4BD3C4F002008B5FFF75FFEBDE856
:105490000840FEF7ABBD0000062108B50846FEF740
:1054A000F1FE06210720FEF7EDFE06210820FEF79B
:1054B000E9FE06210920FEF7E5FE06210A20FEF797
:1054C000E1FE06211720FEF7DDFE06212820FEF76B
:1054D000D9FE07211C20FEF7D5FEBDE808400C21AF
:1054E0002520FEF7CFBE000008B5FFF743FE00F011
:1054F00009F8FFF76FF8FFF703FEBDE80840FFF774
:105500003DBD00000023054A19460133102BC2E9B6
:10551000001102F10802F8D1704700BF405400208A
:105520000B460146184600F003B8000000F00EB824
:1055300010B5054C13462CB10A4601460220AFF3C4
:10554000008010BD2046FCE700000000024B014631
:105550001868FFF705BC00BF2823002010B50139EB
:105560000244904201D1002005E0037811F8014F78
:10557000A34201D0181B10BD0130F2E72DE9F04124
:10558000A3B1C91A17780144044603F1FF3C8C42C9
:10559000204601D9002009E00578BD4204F101044C
:1055A000F5D10CEB0405D618A54201D1BDE8F08178
:1055B00015F8018D16F801EDF045F5D0E7E700008C
:1055C000034611F8012B03F8012B002AF9D170478B
:1055D0006F72672E6172647570696C6F742E6D5294
:1055E0006F2D4D31303039350000000053544D33AC
:1055F0003247343F3F00000040A2E4F16468910666
:105600000041A3E5F2656992070000004261642051
:1056100043414E496661636520696E6465782E007A
:105620000000000000000000C9270008D122000887
:10563000852E0008C9220008792300085D2500088E
:1056400041230008092300080D230008E522000873
:10565000CD2200081D250008F1220008BD2F0008FA
:10566000FD220008F1240008009600000000000060
:10567000000000000000000000000000000000002A
:10568000000000009545000881450008BD45000860
:10569000A9450008B5450008A14500088D4500084A
:1056A00079450008C945000863300000A856000885
:1056B00000520020105400206D61696E0069646C16
:1056C000650000000001A82A00000000AAAABEAAE6
:1056D00000001424EFFF0000000000007097090094
:1056E0000000000000000000AAAAAAAA0000000012
:1056F000FFFF0000000000000000000000000000AC
:1057000000000000AAAAAAAA00000000FFFF0000F3
:105710000000000000000000000000000000000089
:10572000AAAAAAAA00000000FFFF000000000000D3
:10573000000000000000000000000000AAAAAAAAC1
:1057400000000000FFFF000000000000000000005B
:105750000000000000000000AAAAAAAA00000000A1
:10576000FFFF00000000000000000000000000003B
:1057700000000000AAAAAAAA00000000FFFF000083
:10578000000000000000000098AAFF7F0100000058
:105790001104000000000000008803000000000069
:1057A000FE2A0100D2040000FF0000003C4F002050
:1057B00000000000EC5500082C2300200000000031
:1057C00000000000000000000000000000000000D9
:1057D00000000000000000000000000000000000C9
:1057E00000000000000000000000000000000000B9
:1057F00000000000000000000000000000000000A9
:105800000000000000000000000000000000000098
:0C5810000000000000000000000000008C
:00000001FF
