:020000040800F2
:1000000000060020E1020008E3020008E302000805
:10001000E3020008E3020008E3020008E30200082C
:10002000E3020008E3020008E3020008F9340008D4
:10003000E3020008E3020008E3020008E30200080C
:10004000E3020008E3020008E3020008E3020008FC
:10005000E3020008E3020008E13800080D39000857
:10006000393900086539000891390008E3020008B1
:10007000E3020008E3020008E3020008E3020008CC
:10008000E3020008E3020008E3020008E3020008BC
:10009000E3020008E3020008E3020008BD3900089B
:1000A000E3020008E3020008E3020008E30200089C
:1000B000E3020008E3020008E3020008E30200088C
:1000C000E3020008E3020008E3020008E30200087C
:1000D000E3020008E3020008E3020008E30200086C
:1000E000213A0008E3020008E3020008E3020008E6
:1000F000E3020008E3020008E3020008E30200084C
:10010000E3020008E3020008953A0008E302000851
:10011000E3020008E3020008E3020008E30200082B
:10012000E3020008E3020008E3020008E30200081B
:10013000E3020008E3020008E3020008E30200080B
:10014000E3020008E3020008E3020008E3020008FB
:10015000E3020008E3020008E3020008E3020008EB
:10016000E3020008E3020008E3020008E3020008DB
:10017000E3020008792E0008E3020008E302000809
:10018000E3020008E3020008E3020008E3020008BB
:10019000E3020008E3020008E3020008E3020008AB
:1001A000E3020008E3020008E3020008E30200089B
:1001B000E3020008E3020008E3020008E30200088B
:1001C000E3020008E3020008E3020008E30200087B
:1001D000E3020008652E0008E3020008E3020008BD
:1001E000E3020008E3020008E3020008E30200085B
:1001F000E3020008E3020008E3020008E30200084B
:10020000E3020008E3020008E3020008E30200083A
:10021000E3020008E3020008E3020008E30200082A
:10022000E3020008E3020008E3020008E30200081A
:10023000E3020008E3020008E3020008E30200080A
:10024000E3020008E3020008E3020008E3020008FA
:10025000E3020008E3020008E3020008E3020008EA
:10026000E3020008E3020008E3020008E3020008DA
:10027000E3020008E3020008E3020008E3020008CA
:10028000E3020008E3020008E3020008E3020008BA
:10029000E3020008E3020008E3020008E3020008AA
:1002A000E3020008E3020008E3020008E30200089A
:1002B000E3020008E3020008E3020008E30200088A
:1002C000E3020008E3020008E3020008E30200087A
:1002D000E3020008E3020008E3020008E30200086A
:1002E00002E000F000F8FEE772B6374880F30888B5
:1002F000364880F3098836483649086040F20000E5
:10030000CCF200004EF63471CEF200010860BFF36B
:100310004F8FBFF36F8F40F20000C0F2F0004EF637
:100320008851CEF200010860BFF34F8FBFF36F8F8B
:100330004FF00000E1EE100A4EF63C71CEF20001E3
:100340000860062080F31488BFF36F8F02F000F876
:1003500003F024F84FF055301F491B4A91423CBF2F
:1003600041F8040BFAE71D49184A91423CBF41F895
:10037000040BFAE71A491B4A1B4B9A423EBF51F83D
:10038000040B42F8040BF8E700201849184A914280
:100390003CBF41F8040BFAE702F018F803F082F8CA
:1003A000144C154DAC4203DA54F8041B8847F9E7A6
:1003B00000F042F8114C124DAC4203DA54F8041B21
:1003C0008847F9E702F000B800060020002200206C
:1003D0000000000808ED00E00000002000060020FA
:1003E000703E0008002200205C22002060220020D5
:1003F00034430020E0020008E0020008E0020008A8
:10040000E00200082DE9F04F2DED108AC1F80CD064
:10041000D0F80CD0BDEC108ABDE8F08F002383F338
:1004200011882846A047002001F00AFBFEE701F0F2
:1004300073FA00DFFEE7000038B500F0CDFB01F0F5
:1004400047FF054601F07AFF0446D0B90F4B9D42A5
:1004500019D001339D4241F2883512BF0446002570
:100460000124002001F03EFF0CB100F077F800F00D
:100470005DFD00F007FC284600F010F900F06EF872
:10048000F9E70025EDE70546EBE700BF010007B0FF
:1004900008B500F0C9FBA0F120035842584108BD3F
:1004A00007B541F21203022101A8ADF8043000F0B3
:1004B000D9FB03B05DF804FB38B5302383F3118812
:1004C000174803680BB101F087FB0023154A4FF46E
:1004D0007A71134801F076FB002383F31188124CE4
:1004E000236813B12368013B2360636813B1636819
:1004F000013B63600D4D2B7833B963687BB90220F3
:1005000000F086FC322363602B78032B07D16368ED
:100510002BB9022000F07CFC4FF47A73636038BD85
:1005200060220020B90400088023002078220020E7
:10053000084B187003280CD8DFE800F00805020803
:10054000022000F057BC022000F044BC024B002205
:100550005A6070477822002080230020F8B5494B6C
:10056000494A1C461968013100F08A8004339342DD
:10057000F8D16268454B9A4240F28280444B9B68B6
:1005800003F1006303F500339A4279D2002000F0B2
:1005900093FB0220FFF7CCFF3E4B0021D3F8E8206D
:1005A000C3F8E810D3F81021C3F81011D3F81021C4
:1005B000D3F8EC20C3F8EC10D3F81421C3F81411CD
:1005C000D3F81421D3F8F020C3F8F010D3F8182191
:1005D000C3F81811D3F81821D3F8802042F0007224
:1005E000C3F88020D3F8802022F00072C3F8802066
:1005F000D3F8803072B64FF0E023C3F8084DD4E949
:100600000004BFF34F8FBFF36F8F234AC2F88410EB
:10061000BFF34F8F536923F480335361BFF34F8F80
:10062000D2F8803043F6E076C3F3C905C3F34E3306
:100630005B0103EA060C29464CEA81770139C2F8CE
:100640007472F9D2203B13F1200FF2D1BFF34F8F18
:10065000BFF36F8FBFF34F8FBFF36F8F536923F4D7
:10066000003353610023C2F85032BFF34F8FBFF302
:100670006F8F302383F31188854680F308882047E5
:10068000F8BD00BF0000020820000208FFFF0108BB
:10069000002200200044025800ED00E02DE9F04F58
:1006A00093B0B44B2022FF2100900AA89D6800F06F
:1006B000E7FBB14A1378A3B90121B0481170036078
:1006C000302383F3118803680BB101F085FA00230E
:1006D000AB4A4FF47A71A94801F074FA002383F30E
:1006E0001188009B13B1A74B009A1A60A64A137891
:1006F000032B03D000231370A24A53604FF0000A6B
:10070000009CD3465646D146012000F073FB24B12D
:100710009C4B1B68002B00F02682002000F084FA1E
:100720000390039B002BF2DB012000F053FB039BA3
:10073000213B1F2BE8D801A252F823F0BD07000887
:10074000E5070008790800080907000809070008FC
:10075000090700080B090008DB0A0008F509000872
:10076000570A00087F0A0008A50A000809070008C0
:10077000B70A000809070008290B00085D080008EF
:10078000090700086D0B0008C90700085D0800088C
:1007900009070008570A00080907000809070008A8
:1007A00009070008090700080907000809070008E9
:1007B0000907000809070008790800080220FFF768
:1007C00067FE002840F0F981009B022105A8BAF1DC
:1007D000000F08BF1C4641F21233ADF8143000F090
:1007E00041FA91E74FF47A7000F01EFA071EEBDB36
:1007F0000220FFF74DFE0028E6D0013F052F00F252
:10080000DE81DFE807F0030A0D101336052304210B
:1008100005A8059300F026FA17E004215548F9E7EA
:1008200004215A48F6E704215948F3E74FF01C0821
:10083000404608F1040800F041FA0421059005A89B
:1008400000F010FAB8F12C0FF2D101204FF000099E
:1008500000FA07F747EA0B0B5FFA8BFB00F05CFB33
:1008600026B10BF00B030B2B08BF0024FFF718FE7B
:100870004AE704214748CDE7002EA5D00BF00B0333
:100880000B2BA1D10220FFF703FE074600289BD0C7
:100890000120002600F010FA0220FFF749FE1FFA9F
:1008A00086F8404600F018FA0446B0B10399404675
:1008B0000136A1F140025142514100F01DFA0028D9
:1008C000EDD1BA46044641F21213022105A83E4674
:1008D000ADF8143000F0C6F916E725460120FFF701
:1008E00027FE244B9B68AB4207D9284600F0E6F967
:1008F000013040F067810435F3E70025224BBA460A
:100900003E461D701F4B5D60A8E7002E3FF45CAFB4
:100910000BF00B030B2B7FF457AF0220FFF708FE01
:10092000322000F081F9B0F10008FFF64DAF18F069
:1009300003077FF449AF0F4A08EB0503926893421F
:100940003FF642AFB8F5807F3FF73EAF124BB84558
:10095000019323DD4FF47A7000F066F90390039A57
:10096000002AFFF631AF039A0137019B03F8012BF0
:10097000EDE700BF002200207C2300206022002041
:10098000B9040008802300207822002004220020DF
:10099000082200200C2200207C220020C820FFF723
:1009A00077FD074600283FF40FAF1F2D11D8C5F182
:1009B00020020AAB25F0030084494245184428BFB1
:1009C0004246019200F036FA019AFF217F4800F07A
:1009D00057FA4FEAA803C8F387027C4928460193D7
:1009E00000F056FA064600283FF46DAF019B05EB78
:1009F000830533E70220FFF74BFD00283FF4E4AE08
:100A000000F098F900283FF4DFAE0027B846704B9D
:100A10009B68BB4218D91F2F11D80A9B01330ED0F7
:100A200027F0030312AA134453F8203C05934046D1
:100A3000042205A9043700F0A5FA8046E7E7384606
:100A400000F03CF90590F2E7CDF81480042105A8E8
:100A500000F008F902E70023642104A8049300F0E1
:100A6000F7F800287FF4B0AE0220FFF711FD002850
:100A70003FF4AAAE049800F053F90590E6E700238E
:100A8000642104A8049300F0E3F800287FF49CAEEE
:100A90000220FFF7FDFC00283FF496AE049800F01A
:100AA00041F9EAE70220FFF7F3FC00283FF48CAE9F
:100AB00000F050F9E1E70220FFF7EAFC00283FF4DC
:100AC00083AE05A9142000F04BF9074604210490D9
:100AD00004A800F0C7F83946B9E7322000F0A4F8BE
:100AE000071EFFF671AEBB077FF46EAE384A07EB08
:100AF0000903926893423FF667AE0220FFF7C8FCF5
:100B000000283FF461AE27F003074F44B9453FF496
:100B1000A5AE484609F1040900F0D0F8042105907B
:100B200005A800F09FF8F1E74FF47A70FFF7B0FCEA
:100B300000283FF449AE00F0FDF8002844D00A9B9D
:100B400001330BD008220AA9002000F0A1F90028E7
:100B50003AD02022FF210AA800F092F9FFF7A0FC6A
:100B60001C4800F073FF13B0BDE8F08F002E3FF477
:100B70002BAE0BF00B030B2B7FF426AE002364216E
:100B800005A8059300F064F8074600287FF41CAE22
:100B90000220FFF77DFC804600283FF415AEFFF7EA
:100BA0007FFC41F2883000F051FF059800F0E8F931
:100BB00046463C4600F0B0F9A6E506464EE64FF044
:100BC000000901E6BA467EE637467CE67C22002034
:100BD00000220020A0860100704700000F4B70B576
:100BE0001B780C460133DBB2012B11D80C4D4FF4AE
:100BF0007A732968A2FB033222460E6A0146284610
:100C0000B047844204D1074B002201201A7070BD06
:100C10004FF4FA7000F01AFF0020F8E710220020CD
:100C200028260020B4230020002307B50246012116
:100C30000DF107008DF80730FFF7D0FF20B19DF8C8
:100C4000070003B05DF804FB4FF0FF30F9E7000048
:100C50000A46042108B5FFF7C1FF80F00100C0B2C9
:100C6000404208BD30B4054C0A4601462368204680
:100C7000DD69034BAC4630BC604700BF282600202E
:100C8000A086010070B50A4E00240A4D01F0F8F963
:100C9000308028683388834208D901F0EDF92B6849
:100CA00004440133B4F5003F2B60F2D370BD00BFA4
:100CB000B62300208823002001F0C0BA00F10060B4
:100CC00000F500300068704700F10060920000F508
:100CD000003001F037BA0000054B1A68054B1B883D
:100CE0009B1A834202D9104401F0C6B90020704714
:100CF00088230020B623002038B50446074D29B1CB
:100D000028682044BDE8384001F0CEB92868204466
:100D100001F0B8F90028F3D038BD00BF88230020C7
:100D20000020704700F1FF5000F58F10D0F8000848
:100D300070470000064991F8243033B1002308229F
:100D4000086A81F82430FFF7BFBF0120704700BF59
:100D50008C230020014B1868704700BF0010005C16
:100D6000194B01380322084470B51D68174BC5F3B1
:100D70000B042D0C1E88A6420BD15C680A46013C70
:100D8000824213460FD214F9016F4EB102F8016B83
:100D9000F6E7013A03F10803ECD181420B4602D297
:100DA0002C2203F8012B0424094A1688AE4204D1F0
:100DB000984284BF967803F8016B013C02F104026B
:100DC000F3D1581A70BD00BF0010005C142200203F
:100DD0008C3B0008022804D1054B4FF000629A6159
:100DE00070470128FCD1024B4FF40032F7E700BFF7
:100DF00000040258022804D1044B4FF400629A61A7
:100E000070470128FCD1014B0222F8E70004025888
:100E1000022805D1064A536983F400635361704781
:100E20000128FCD1024A536983F00203F6E700BFB0
:100E300000040258002310B5934203D0CC5CC45484
:100E40000133F9E710BD0000013810B510F9013F7A
:100E50003BB191F900409C4203D11AB10131013AF2
:100E6000F4E71AB191F90020981A10BD1046FCE77A
:100E700003460246D01A12F9011B0029FAD1704725
:100E800002440346934202D003F8011BFAE770477D
:100E90002DE9F8431F4D14460746884695F824204F
:100EA00052BBDFF870909CB395F824302BB9202208
:100EB000FF2148462F62FFF7E3FF95F824004146E3
:100EC000C0F1080205EB8000A24228BF2246D6B23C
:100ED0009200FFF7AFFF95F82430A41B17441E447F
:100EE0009044E4B2F6B2082E85F82460DBD1FFF717
:100EF00021FF0028D7D108E02B6A03EB820383424D
:100F0000CFD0FFF717FF0028CBD10020BDE8F88332
:100F10000120FBE78C230020024B1A78024B1A7049
:100F2000704700BFB42300201022002010B5104CE1
:100F3000104800F0B9F821460E4800F0E1F82468A6
:100F40000D48D4F89020D2F8043843F00203C2F8D8
:100F5000043800F07BFD0949204600F0DFF9D4F8A1
:100F60009020D2F8043823F00203C2F8043810BDF0
:100F7000403C00082826002040420F00483C000862
:100F80007047000030B50A44084D91420DD011F869
:100F9000013B5840082340F30004013B2C4013F070
:100FA000FF0384EA5000F6D1EFE730BD2083B8EDAF
:100FB000026843681143016003B11847704700009D
:100FC00013B5406B00F58054D4F8A4381A68117832
:100FD000042914D1017C022911D119790123128924
:100FE0008B4013420BD101A94C3002F08DF8D4F89C
:100FF000A4480246019B2179206800F0DFF902B085
:1010000010BD0000143002F00FB800004FF0FF33A5
:10101000143002F009B800004C3002F0E1B80000D2
:101020004FF0FF334C3002F0DBB80000143001F019
:10103000DDBF00004FF0FF31143001F0D7BF0000DA
:101040004C3002F0ADB800004FF0FF324C3002F0EF
:10105000A7B800000020704710B500F58054D4F800
:10106000A4381A681178042917D1017C022914D1F7
:101070005979012352898B4013420ED1143001F06B
:101080006FFF024648B1D4F8A4484FF44073617929
:101090002068BDE8104000F07FB910BD406BFFF73D
:1010A000DBBF0000704700007FB5124B012504260E
:1010B000044603600023057400F18402436029465E
:1010C000C0E902330C4B0290143001934FF440738B
:1010D000009601F021FF094B04F69442294604F1E1
:1010E0004C000294CDE900634FF4407301F0E8FF37
:1010F00004B070BD9C3B00089D100008C10F0008A3
:101100000A68302383F311880B790B3342F82300EC
:101110004B79133342F823008B7913B10B3342F828
:10112000230000F58053C3F8A418022303740020A1
:1011300080F311887047000038B5037F044613B16F
:1011400090F85430ABB90125201D0221FFF730FF84
:1011500004F114006FF00101257700F09FFC04F109
:101160004C0084F854506FF00101BDE8384000F0A5
:1011700095BC38BD10B5012104460430FFF718FFB7
:101180000023237784F8543010BD000038B504469E
:101190000025143001F0D8FE04F14C00257701F051
:1011A000A7FF201D84F854500121FFF701FF2046BE
:1011B000BDE83840FFF750BF90F8803003F060037F
:1011C000202B06D190F881200023212A03D81F2A42
:1011D00006D800207047222AFBD1C0E91D3303E066
:1011E000034A426707228267C3670120704700BF36
:1011F0002C22002037B500F58055D5F8A4381A68A0
:10120000117804291AD1017C022917D119790123F7
:1012100012898B40134211D100F14C04204602F098
:1012200027F858B101A9204601F06EFFD5F8A4486F
:101230000246019B2179206800F0C0F803B030BD60
:1012400001F10B03F0B550F8236085B004460D465C
:10125000FEB1302383F3118804EB8507301D08218C
:10126000FFF7A6FEFB6806F14C005B691B681BB12B
:10127000019001F057FF019803A901F045FF0246D4
:1012800048B1039B2946204600F098F8002383F3D9
:10129000118805B0F0BDFB685A691268002AF5D0C4
:1012A0001B8A013B1340F1D104F18002EAE7000000
:1012B000133138B550F82140ECB1302383F3118855
:1012C00004F58053D3F8A4281368527903EB820302
:1012D000DB689B695D6845B104216018FFF768FE13
:1012E000294604F1140001F045FE2046FFF7B4FE44
:1012F000002383F3118838BD7047000001F0FCB86B
:1013000001234022002110B5044600F8303BFFF7CE
:10131000B7FD0023C4E9013310BD000010B5302330
:10132000044683F311882422416000210C30FFF72A
:10133000A7FD204601F002F902230020237080F36C
:10134000118810BD70B500EB8103054650690E464B
:101350001446DA6018B110220021FFF791FDA06950
:1013600018B110220021FFF78BFD31462846BDE859
:10137000704001F0E9B9000083682022002103F0E9
:10138000011310B5044683601030FFF779FD204645
:10139000BDE8104001F064BAF0B4012500EB81040F
:1013A00047898D40E4683D43A4694581236000235B
:1013B000A2606360F0BC01F081BA0000F0B40125C6
:1013C00000EB810407898D40E4683D436469058131
:1013D00023600023A2606360F0BC01F0F7BA000054
:1013E00070B5022300250446242203702946C0F864
:1013F00088500C3040F8045CFFF742FD204684F82A
:10140000705001F035F963681B6823B12946204606
:10141000BDE87040184770BD0378052B10B5044631
:101420000AD080F88C300523037043681B680BB129
:10143000042198470023A36010BD0000017805290E
:1014400006D190F88C20436802701B6803B11847DE
:101450007047000070B590F87030044613B1002357
:1014600080F8703004F18002204601F01DFA6368B4
:101470009B68B3B994F8803013F0600535D0002133
:10148000204601F00FFD0021204601F0FFFC6368BB
:101490001B6813B1062120469847062384F8703054
:1014A00070BD204698470028E4D0B4F88630A26F7B
:1014B0009A4288BFA36794F98030A56F002B4FF044
:1014C000300380F20381002D00F0F280092284F8BD
:1014D000702083F3118800212046D4E91D23FFF7F3
:1014E0006DFF002383F31188DAE794F8812003F07D
:1014F0007F0343EA022340F20232934200F0C580A8
:1015000021D8B3F5807F48D00DD8012B3FD0022BD6
:1015100000F09380002BB2D104F1880262670222AE
:10152000A267E367C1E7B3F5817F00F09B80B3F565
:10153000407FA4D194F88230012BA0D1B4F8883038
:1015400043F0020332E0B3F5006F4DD017D8B3F586
:10155000A06F31D0A3F5C063012B90D863682046FB
:1015600094F882205E6894F88310B4F88430B04711
:10157000002884D0436863670368A3671AE0B3F563
:10158000106F36D040F6024293427FF478AF5C4B46
:1015900063670223A3670023C3E794F88230012B1B
:1015A0007FF46DAFB4F8883023F00203A4F88830DC
:1015B000C4E91D55E56778E7B4F88030B3F5A06F4E
:1015C0000ED194F88230204684F88A3001F0AEF8CB
:1015D00063681B6813B101212046984703232370D9
:1015E0000023C4E91D339CE704F18B0363670123E7
:1015F000C3E72378042B10D1302383F311882046CE
:10160000FFF7BAFE85F311880321636884F88B50D5
:1016100021701B680BB12046984794F88230002B4C
:10162000DED084F88B300423237063681B68002BA2
:10163000D6D0022120469847D2E794F8843020463D
:101640001D0603F00F010AD501F020F9012804D08E
:1016500002287FF414AF2B4B9AE72B4B98E701F04D
:1016600007F9F3E794F88230002B7FF408AF94F881
:10167000843013F00F01B3D01A06204602D501F0D2
:1016800029FCADE701F01AFCAAE794F88230002BA0
:101690007FF4F5AE94F8843013F00F01A0D01B0650
:1016A000204602D501F0FEFB9AE701F0EFFB97E739
:1016B000142284F8702083F311882B462A46294689
:1016C0002046FFF769FE85F31188E9E65DB1152232
:1016D00084F8702083F3118800212046D4E91D236B
:1016E000FFF75AFEFDE60B2284F8702083F3118881
:1016F0002B462A4629462046FFF760FEE3E700BF57
:10170000CC3B0008C43B0008C83B000838B590F843
:1017100070300446002B3ED0063BDAB20F2A34D894
:101720000F2B32D8DFE803F0373131082232313164
:101730003131313131313737856FB0F886309D42E4
:1017400014D2C3681B8AB5FBF3F203FB12556DB9C3
:10175000302383F311882B462A462946FFF72EFEB5
:1017600085F311880A2384F870300EE0142384F87E
:101770007030302383F31188002320461A4619461F
:10178000FFF70AFE002383F3118838BDC36F03B14E
:1017900098470023E7E70021204601F083FB002162
:1017A000204601F073FB63681B6813B106212046D5
:1017B00098470623D7E7000010B590F8703004462C
:1017C000142B29D017D8062B05D001D81BB110BD7A
:1017D000093B022BFBD80021204601F063FB0021CE
:1017E000204601F053FB63681B6813B106212046B5
:1017F0009847062319E0152BE9D10B2380F87030A8
:10180000302383F3118800231A461946FFF7D6FDCB
:10181000002383F31188DAE7C3689B695B68002BB8
:10182000D5D1C36F03B19847002384F87030CEE759
:1018300000238268037503691B6899689142FBD293
:101840005A680360426010605860704700238268E5
:10185000037503691B6899689142FBD85A68036055
:10186000426010605860704708B50846302383F323
:1018700011880B7D032B05D0042B0DD02BB983F3DE
:10188000118808BD8B6900221A604FF0FF33836115
:10189000FFF7CEFF0023F2E7D1E9003213605A6070
:1018A000F3E70000FFF7C4BF054BD9680875186857
:1018B000026853601A600122D8600275FEF7A2BD6B
:1018C000B82300200C4B30B5DD684B1C87B00446B4
:1018D0000FD02B46094A684600F074F92046FFF7FE
:1018E000E3FF009B13B1684600F076F9A86907B0E2
:1018F00030BDFFF7D9FFF9E7B823002069180008C9
:10190000044B1A68DB6890689B68984294BF00207B
:1019100001207047B8230020084B10B51C68D86818
:10192000226853601A600122DC602275FFF78EFF87
:1019300001462046BDE81040FEF764BDB8230020F4
:10194000044B1A68DB6892689B689A4201D9FFF7DA
:10195000E3BF7047B823002038B5074C01230025AA
:10196000064907482370656001F0C0FC022323701C
:1019700085F3118838BD00BF20260020D43B000825
:10198000B823002000F05EB9EFF3118020B9EFF327
:101990000583302282F311887047000010B530B9FA
:1019A000EFF30584C4F3080414B180F3118810BD6B
:1019B000FFF7C6FF84F31188F9E70000034A516876
:1019C00053685B1A9842FBD8704700BF001000E0D4
:1019D0008B600223086108468B8270478368A3F1FD
:1019E000840243F8142C026943F8442C426943F8FA
:1019F000402C094A43F8242CC268A3F1200043F884
:101A0000182C022203F80C2C002203F80B2C034A9A
:101A100043F8102C704700BF1D040008B8230020B5
:101A200008B5FFF7DBFFBDE80840FFF73BBF00004C
:101A3000024BDB6898610F20FFF736BFB823002008
:101A4000302383F31188FFF7F3BF000008B5014688
:101A5000302383F311880820FFF734FF002383F33A
:101A6000118808BD064BDB6839B1426818605A60BE
:101A7000136043600420FFF725BF4FF0FF3070472D
:101A8000B82300200368984206D01A6802605060AC
:101A900018469961FFF706BF7047000038B5044645
:101AA0000D462068844200D138BD036823605C6025
:101AB0008561FFF7F7FEF4E7036810B59C68A24262
:101AC0000CD85C688A600B604C6021605960996832
:101AD0008A1A9A604FF0FF33836010BD121B1B6897
:101AE000ECE700000A2938BF0A2170B504460D460C
:101AF0000A26601901F0F2FB01F0DAFB041BA54293
:101B000003D8751C04462E46F3E70A2E04D901209B
:101B1000BDE8704001F02ABC70BD0000F8B5144B60
:101B20000D460A2A4FF00A07D96103F110018260BD
:101B300038BF0A2241601969144601604860186183
:101B4000A81801F0BBFB01F0B3FB431B0646A34200
:101B500006D37C1C28192746354601F0BFFBF2E767
:101B60000A2F04D90120BDE8F84001F0FFBBF8BD01
:101B7000B8230020F8B506460D4601F099FB0F4A40
:101B8000134653F8107F9F4206D12A46014630463D
:101B9000BDE8F840FFF7C2BFD169BB68441A2C19F1
:101BA00028BF2C46A34202D92946FFF79BFF2246B5
:101BB00031460348BDE8F840FFF77EBFB823002058
:101BC000C8230020C0E90323002310B45DF8044BB0
:101BD0004361FFF7CFBF000010B5194C236998424D
:101BE0000DD08168D0E9003213605A609A680A44C7
:101BF0009A60002303604FF0FF33A36110BD0268B9
:101C0000234643F8102F53600022026022699A4253
:101C100003D1BDE8104001F05BBB936881680B44C1
:101C2000936001F045FB2269E1699268441AA2427F
:101C3000E4D91144BDE81040091AFFF753BF00BFB3
:101C4000B82300202DE9F047DFF8BC8008F1100729
:101C50002C4ED8F8105001F02BFBD8F81C40AA6885
:101C6000031B9A423ED814444FF00009D5E90032D4
:101C7000C8F81C4013605A60C5F80090D8F81030BE
:101C8000B34201D101F024FB89F31188D5E9033176
:101C900028469847302383F311886B69002BD8D0EE
:101CA00001F006FB6A69A0EB040982464A450DD2A1
:101CB000022001F05BFB0022D8F81030B34208D1BB
:101CC00051462846BDE8F047FFF728BF121A2244C4
:101CD000F2E712EB09092946384638BF4A46FFF7B2
:101CE000EBFEB5E7D8F81030B34208D01444C8F87A
:101CF0001C00211AA960BDE8F047FFF7F3BEBDE85C
:101D0000F08700BFC8230020B823002000207047C0
:101D1000FEE70000704700004FF0FF307047000002
:101D200002290CD0032904D00129074818BF00203C
:101D30007047032A05D8054800EBC20070470448E5
:101D400070470020704700BFA43C00083C220020E0
:101D5000583C000870B59AB005460846144601A9DB
:101D600000F0C2F801A8FFF783F8431C0022C6B2B6
:101D70005B001046C5E9003423700323023404F8E5
:101D8000013C01ABD1B202348E4201D81AB070BD11
:101D900013F8011B013204F8010C04F8021CF1E7EE
:101DA00008B5302383F311880348FFF723FA002393
:101DB00083F3118808BD00BF2826002090F88030EA
:101DC00003F01F02012A07D190F881200B2A03D1CA
:101DD0000023C0E91D3315E003F06003202B08D178
:101DE000B0F884302BB990F88120212A03D81F2A1B
:101DF00004D8FFF7E1B9222AEBD0FAE7034A426799
:101E000007228267C3670120704700BF332200208A
:101E100007B5052917D8DFE801F0191603191920AD
:101E2000302383F31188104A01210190FFF78AFAC9
:101E3000019802210D4AFFF785FA0D48FFF7A6F930
:101E4000002383F3118803B05DF804FB302383F390
:101E500011880748FFF770F9F2E7302383F3118800
:101E60000348FFF787F9EBE7F83B00081C3C000844
:101E70002826002038B50C4D0C4C2A460C4904F19C
:101E80000800FFF767FF05F1CA0204F110000949D5
:101E9000FFF760FF05F5CA7204F118000649BDE8B6
:101EA0003840FFF757BF00BF003F00203C22002012
:101EB000E03B0008E43B0008EF3B000870B5044637
:101EC00008460D46FEF7D4FFC6B22046013403781B
:101ED0000BB9184670BD32462946FEF7B5FF0028FB
:101EE000F3D10120F6E700002DE9F04705460C4646
:101EF000FEF7BEFF2A49C6B22846FFF7DFFF08B14A
:101F00000D36F6B227492846FFF7D8FF08B110363C
:101F1000F6B2632E0BD8DFF88880DFF88890224F66
:101F2000DFF890A02E7846B92670BDE8F0872946E4
:101F30002046BDE8F04701F00BBE252E2CD107222C
:101F400041462846FEF780FF60B9184B224603F150
:101F5000140153F8040B8B4242F8040BF9D10735F6
:101F60001434DFE7082249462846FEF76DFF98B98A
:101F7000A21C0F4B197802320909C95D02F8041C32
:101F800013F8011B01F00F015345C95D02F8031C52
:101F9000F0D118340835C5E7013504F8016BC1E705
:101FA000C43C0008EF3B0008E13C0008CC3C0008C2
:101FB00000E8F11F0CE8F11FBFF34F8F044B1A69C3
:101FC0005107FCD1D3F810215207F8D1704700BF58
:101FD0000020005208B50D4B1B78ABB9FFF7ECFFA2
:101FE0000B4BDA68D10704D50A4A5A6002F18832ED
:101FF0005A60D3F80C21D20706D5064AC3F804214B
:1020000002F18832C3F8042108BD00BF5E41002000
:10201000002000522301674508B5114B1B78F3B926
:10202000104B1A69510703D5DA6842F04002DA60B2
:10203000D3F81021520705D5D3F80C2142F0400205
:10204000C3F80C21FFF7B8FF064BDA6842F0010233
:10205000DA60D3F80C2142F00102C3F80C2108BD6C
:102060005E410020002000520F289ABF00F58060DA
:1020700040040020704700004FF40030704700001B
:10208000102070470F2808B50BD8FFF7EDFF00F5BB
:1020900000330268013204D104308342F9D10120B7
:1020A00008BD0020FCE700000F2870B5054645D8A4
:1020B000FFF76AFC224CFFF77FFF0646FFF78AFF17
:1020C0004FF0FF33072D6361C4F8143120D823612A
:1020D000FFF772FF2B0243F02403E360E36843F051
:1020E0008003E36023695A07FCD42846FFF764FFA6
:1020F0004FF40031FFF7B8FF00F002F93046FFF768
:102100008BFFFFF74BFC2846BDE87040FFF7BABFD6
:10211000C4F81031FFF750FFA5F108031B0243F08C
:102120002403C4F80C31D4F80C3143F08003C4F814
:102130000C31D4F810315B07FBD4D6E7002070BD1A
:10214000002000522DE9F84F40EA020305460C46F4
:102150001746D80602D00020BDE8F88F27F01F07E9
:10216000DFF8D4B0FFF736FF2744BC4203D101208B
:10217000FFF752FFF0E720222946204601F0D8FC65
:1021800010B920352034F0E72B4605F120021E68F7
:10219000711CE0D104339A42F9D1FFF7F5FB05F148
:1021A0007843234AB3F5801F224B28BF9A4603F198
:1021B000040338BF9046A2F1080228BF9846A3F155
:1021C00008033ABF9146DA469946FFF7F5FEC8F88C
:1021D0000060A5EB040CD9F8002004F11C0142F0CA
:1021E0000202C9F80020221FDAF8006016F0050686
:1021F000FAD152F8043F8A424CF80230F4D1BFF3CE
:102200004F8FFFF7D9FE4FF0FF32C8F80020D9F802
:10221000002022F00202C9F80020FFF7BFFB2022B5
:102220002146284601F084FC0028AAD030469FE7CA
:1022300014200052102100521020005210B5084CFA
:10224000237828B11BB9FFF7C5FE0123237010BD09
:10225000002BFCD02070BDE81040FFF7DDBE00BFB2
:102260005E4100200244074BD2B210B5904200D12B
:1022700010BD441C00B253F8200041F8040BE0B23A
:10228000F4E700BF504000580E4B30B51C6F2404DB
:1022900005D41C6F1C671C6F44F400441C670A4C77
:1022A00002442368D2B243F480732360074B904208
:1022B00000D130BD441C51F8045B00B243F82050FB
:1022C000E0B2F4E700440258004802585040005879
:1022D00007B5012201A90020FFF7C4FF019803B050
:1022E0005DF804FB13B50446FFF7F2FFA04205D0EA
:1022F000012201A900200194FFF7C6FF02B010BD22
:102300000144BFF34F8F064B884204D3BFF34F8F76
:10231000BFF36F8F7047C3F85C022030F4E700BF53
:1023200000ED00E0034B1A681AB9034AD2F8D02432
:102330001A607047604100200040025808B5FFF75E
:10234000F1FF024B1868C0F3806008BD60410020B7
:1023500070B5BFF34F8FBFF36F8F1A4A0021C2F8D9
:102360005012BFF34F8FBFF36F8F536943F40033A5
:102370005361BFF34F8FBFF36F8FC2F88410BFF369
:102380004F8FD2F8803043F6E074C3F3C900C3F333
:102390004E335B0103EA0406014646EA81750139C2
:1023A000C2F86052F9D2203B13F1200FF2D1BFF3F3
:1023B0004F8F536943F480335361BFF34F8FBFF3A3
:1023C0006F8F70BD00ED00E0FEE70000214B22485A
:1023D000224A70B5904237D3214BC11EDA1C121A23
:1023E00022F003028B4238BF00220021FEF748FD95
:1023F0001C4A0023C2F88430BFF34F8FD2F88030DC
:1024000043F6E074C3F3C900C3F34E335B0103EA40
:102410000406014646EA81750139C2F86C52F9D2C8
:10242000203B13F1200FF2D1BFF34F8FBFF36F8F1B
:10243000BFF34F8FBFF36F8F0023C2F85032BFF34B
:102440004F8FBFF36F8F70BD53F8041B40F8041B10
:10245000C0E700BFCC3E00083443002034430020D6
:102460003443002000ED00E0074BD3F8D81021EAF8
:102470000001C3F8D810D3F8002122EA0002C3F803
:102480000021D3F8003170470044025870B5D0E9FC
:10249000244300224FF0FF359E6804EB42135101A4
:1024A000D3F80009002805DAD3F8000940F080408D
:1024B000C3F80009D3F8000B002805DAD3F8000BA5
:1024C00040F08040C3F8000B013263189642C3F815
:1024D0000859C3F8085BE0D24FF00113C4F81C3868
:1024E00070BD0000890141F02001016103699B0674
:1024F000FCD41220FFF762BA10B50A4C2046FEF752
:10250000FFFE094BC4F89030084BC4F89430084CD7
:102510002046FEF7F5FE074BC4F89030064BC4F892
:10252000943010BD6441002000000840183D0008B0
:102530000042002000000440243D000870B50378EC
:102540000546012B5CD1434BD0F89040984258D1BE
:10255000414B0E216520D3F8D82042F00062C3F829
:10256000D820D3F8002142F00062C3F80021D3F84C
:102570000021D3F8802042F00062C3F88020D3F815
:10258000802022F00062C3F88020D3F8803000F071
:10259000ADFC324BE360324BC4F800380023D5F871
:1025A0009060C4F8003EC02323604FF40413A3637B
:1025B0003369002BFCDA01230C203361FFF7FEF9AD
:1025C0003369DB07FCD41220FFF7F8F93369002BDD
:1025D000FCDA00262846A660FFF758FF6B68C4F8AF
:1025E0001068DB68C4F81468C4F81C6883BB1D4B12
:1025F000A3614FF0FF336361A36843F00103A3605D
:1026000070BD194B9842C9D1134B4FF08060D3F87D
:10261000D82042F00072C3F8D820D3F8002142F04D
:102620000072C3F80021D3F80021D3F8802042F0D3
:102630000072C3F88020D3F8802022F00072C3F823
:102640008020D3F88030FFF70FFF0E214D209EE74A
:10265000064BCDE76441002000440258401400407E
:1026600003002002003C30C000420020083C30C083
:10267000F8B5D0F89040054600214FF0006620469E
:10268000FFF730FFD5F8941000234FF001128F6848
:102690004FF0FF30C4F83438C4F81C2804EB431260
:1026A00001339F42C2F80069C2F8006BC2F8080902
:1026B000C2F8080BF2D20B68D5F89020C5F8983014
:1026C000636210231361166916F01006FBD1122005
:1026D000FFF774F9D4F8003823F4FE63C4F8003827
:1026E000A36943F4402343F01003A3610923C4F812
:1026F0001038C4F814380B4BEB604FF0C043C4F8EB
:10270000103B094BC4F8003BC4F81069C4F8003909
:10271000D5F8983003F1100243F48013C5F89820DF
:10272000A362F8BDF43C000840800010D0F890206F
:1027300090F88A10D2F8003823F4FE6343EA0113BC
:10274000C2F80038704700002DE9F84300EB810320
:10275000D0F890500C468046DA680FFA81F94801AB
:10276000166806F00306731E022B05EB41134FF0AB
:10277000000194BFB604384EC3F8101B4FF001019E
:1027800004F1100398BF06F1805601FA03F3916932
:1027900098BF06F5004600293AD0578A04F158013F
:1027A000374349016F50D5F81C180B430021C5F879
:1027B0001C382B180127C3F81019A7405369611E54
:1027C0009BB3138A928B9B08012A88BF5343D8F886
:1027D0009820981842EA034301F140022146C8F8C4
:1027E0009800284605EB82025360FFF77BFE08EB5A
:1027F0008900C3681B8A43EA845348341E4364013A
:102800002E51D5F81C381F43C5F81C78BDE8F88355
:1028100005EB4917D7F8001B21F40041C7F8001B4E
:10282000D5F81C1821EA0303C0E704F13F030B4A63
:102830002846214605EB83035A60FFF753FE05EB5C
:102840004910D0F8003923F40043C0F80039D5F816
:102850001C3823EA0707D7E70080001000040002B5
:10286000D0F894201268C0F89820FFF70FBE00003F
:102870005831D0F8903049015B5813F4004004D02F
:1028800013F4001F0CBF0220012070474831D0F81C
:10289000903049015B5813F4004004D013F4001F3A
:1028A0000CBF02200120704700EB8101CB68196A40
:1028B0000B6813604B6853607047000000EB8103A6
:1028C00030B5DD68AA691368D36019B9402B84BF9D
:1028D000402313606B8A1468D0F890201C4402EBEC
:1028E0004110013C09B2B4FBF3F46343033323F01A
:1028F000030343EAC44343F0C043C0F8103B2B68D2
:1029000003F00303012B0ED1D2F8083802EB41107B
:1029100013F4807FD0F8003B14BF43F0805343F0A2
:102920000053C0F8003B02EB4112D2F8003B43F0E9
:102930000443C2F8003B30BD2DE9F041D0F890606F
:1029400005460C4606EB4113D3F8087B3A07C3F85B
:10295000087B08D5D6F814381B0704D500EB810393
:10296000DB685B689847FA071FD5D6F81438DB0791
:102970001BD505EB8403D968CCB98B69488A5A68A2
:10298000B2FBF0F600FB16228AB91868DA689042AA
:102990000DD2121AC3E90024302383F31188214693
:1029A0002846FFF78BFF84F31188BDE8F0810123EF
:1029B00003FA04F26B8923EA02036B81CB68002BD4
:1029C000F3D021462846BDE8F041184700EB8103CB
:1029D0004A0170B5DD68D0F890306C692668E66011
:1029E00056BB1A444FF40020C2F810092A6802F0BE
:1029F0000302012A0AB20ED1D3F8080803EB4214ED
:102A000010F4807FD4F8000914BF40F0805040F0EB
:102A10000050C4F8000903EB4212D2F8000940F05C
:102A20000440C2F800090122D3F8340802FA01F187
:102A30000143C3F8341870BD19B9402E84BF40203B
:102A4000206020681A442E8A8419013CB4FBF6F4F5
:102A500040EAC44040F00050C6E700002DE9F843CA
:102A6000D0F8906005460C464F0106EB4113D3F8B1
:102A7000088918F0010FC3F808891CD0D6F810385F
:102A8000DB0718D500EB8103D3F80CC0DCF8143059
:102A9000D3F800E0DA68964530D2A2EB0E024FF090
:102AA00000091A60C3F80490302383F31188FFF7FC
:102AB0008DFF89F3118818F0800F1DD0D6F83438B7
:102AC0000126A640334217D005EB84030134D5F824
:102AD0009050D3F80CC0E4B22F44DCF8142005EB7E
:102AE0000434D2F800E05168714514D3D5F8343875
:102AF00023EA0606C5F83468BDE8F883012303FA23
:102B000001F2038923EA02030381DCF80830002B79
:102B1000D1D09847CFE7AEEB0103BCF81000834259
:102B200028BF0346D7F8180980B2B3EB800FE3D86B
:102B30009068A0F1040959F8048FC4F80080A0EB54
:102B400009089844B8F1040FF5D818440B44906074
:102B50005360C8E72DE9F84FD0F8905004466E69ED
:102B6000AB691E4016F480586E6103D0BDE8F84F83
:102B7000FEF736BC002E12DAD5F8003E9B0705D0D2
:102B8000D5F8003E23F00303C5F8003ED5F804381D
:102B9000204623F00103C5F80438FEF74FFC370543
:102BA00005D52046FFF772FC2046FEF735FCB00441
:102BB0000CD5D5F8083813F0060FEB6823F47053E2
:102BC0000CBF43F4105343F4A053EB6031071BD503
:102BD0006368DB681BB9AB6923F00803AB6123783A
:102BE000052B0CD1D5F8003E9A0705D0D5F8003E4C
:102BF00023F00303C5F8003E2046FEF71FFC636880
:102C0000DB680BB120469847F30200F1BA80B702A7
:102C100026D5D4F8909000274FF0010A09EB47120F
:102C2000D2F8003B03F44023B3F5802F11D1D2F842
:102C3000003B002B0DDA62890AFA07F322EA03034C
:102C4000638104EB8703DB68DB6813B139462046F8
:102C500098470137D4F89430FFB29B689F42DDD982
:102C6000F00619D5D4F89000026AC2F30A1702F0F0
:102C70000F0302F4F012B2F5802F00F0CA80B2F513
:102C8000402F09D104EB8303002200F58050DB685C
:102C90001B6A974240F0B0803003D5F8185835D5FC
:102CA000E90303D500212046FFF746FEAA0303D51A
:102CB00001212046FFF740FE6B0303D50221204689
:102CC000FFF73AFE2F0303D503212046FFF734FE1A
:102CD000E80203D504212046FFF72EFEA90203D502
:102CE00005212046FFF728FE6A0203D5062120466B
:102CF000FFF722FE2B0203D507212046FFF71CFE1B
:102D0000EF0103D508212046FFF716FE700340F1BE
:102D1000A780E90703D500212046FFF79FFEAA07F9
:102D200003D501212046FFF799FE6B0703D5022149
:102D30002046FFF793FE2F0703D503212046FFF718
:102D40008DFEEE0603D504212046FFF787FEA80678
:102D500003D505212046FFF781FE690603D506212C
:102D60002046FFF77BFE2A0603D507212046FFF702
:102D700075FEEB0574D520460821BDE8F84FFFF736
:102D80006DBED4F890904FF0000B4FF0010AD4F8CC
:102D900094305FFA8BF79B689F423FF638AF09EBA0
:102DA0004713D3F8002902F44022B2F5802F20D136
:102DB000D3F80029002A1CDAD3F8002942F0904207
:102DC000C3F80029D3F80029002AFBDB3946D4F8E0
:102DD0009000FFF787FB22890AFA07F322EA030330
:102DE000238104EB8703DB689B6813B139462046D7
:102DF00098470BF1010BCAE7910701D1D0F8008089
:102E0000072A02F101029CBF03F8018B4FEA182840
:102E10003FE704EB830300F58050DA68D2F818C06E
:102E2000DCF80820DCE9001CA1EB0C0C00218F422F
:102E300008D1DB689B699A683A449A605A683A44B8
:102E40005A6029E711F0030F01D1D0F800808C45BA
:102E500001F1010184BF02F8018B4FEA1828E6E76F
:102E6000BDE8F88F08B50348FFF774FEBDE80840D9
:102E700000F07ABB6441002008B50348FFF76AFE02
:102E8000BDE8084000F070BB00420020D0F8903050
:102E900003EB4111D1F8003B43F40013C1F8003BB0
:102EA00070470000D0F8903003EB4111D1F80039A1
:102EB00043F40013C1F8003970470000D0F8903097
:102EC00003EB4111D1F8003B23F40013C1F8003BA0
:102ED00070470000D0F8903003EB4111D1F8003971
:102EE00023F40013C1F8003970470000090100F114
:102EF0006043012203F56143C9B283F8001300F077
:102F00001F039A4043099B0003F1604303F56143AB
:102F1000C3F880211A60704730B50433039C0172F6
:102F2000002104FB0325C160C0E90653049B036331
:102F3000059BC0E90000C0E90422C0E90842C0E9DD
:102F40000A11436330BD00000022416AC260C0E93B
:102F50000411C0E90A226FF00101FEF79FBD0000D5
:102F6000D0E90432934201D1C2680AB9181D7047F2
:102F700000207047036919600021C2680132C260F5
:102F8000C269134482699342036124BF436A0361A7
:102F9000FEF778BD38B504460D46E3683BB162697B
:102FA0000020131D1268A3621344E36207E0237A32
:102FB00033B929462046FEF755FD0028EDDA38BD25
:102FC0006FF00100FBE70000C368C269013BC3600A
:102FD0004369134482699342436124BF436A436156
:102FE00000238362036B03B11847704770B5302329
:102FF000044683F31188866A3EB9FFF7CBFF054686
:1030000018B186F31188284670BDA36AE26A13F8E6
:10301000015B9342A36202D32046FFF7D5FF002352
:1030200083F31188EFE700002DE9F84F04460E46C0
:10303000174698464FF0300989F311880025AA46B3
:10304000D4F828B0BBF1000F09D141462046FFF764
:10305000A1FF20B18BF311882846BDE8F88FD4E991
:103060000A12A7EB050B521A934528BF9346BBF1F2
:10307000400F1BD9334601F1400251F8040B914235
:1030800043F8040BF9D1A36A403640354033A362BC
:10309000D4E90A239A4202D32046FFF795FF8AF328
:1030A0001188BD42D8D289F31188C9E730465A4603
:1030B000FDF7C0FEA36A5E445D445B44A362E7E79C
:1030C00010B5029C0433017203FB0421C460C0E903
:1030D00006130023C0E90A33039B0363049BC0E982
:1030E0000000C0E90422C0E90842436310BD0000AB
:1030F000026A6FF00101C260426AC0E90422002244
:10310000C0E90A22FEF7CABCD0E904239A4201D1E1
:10311000C26822B9184650F8043B0B607047002380
:103120001846FAE7C3680021C2690133C3604369E6
:10313000134482699342436124BF436A4361FEF7AB
:10314000A1BC000038B504460D46E3683BB12369D5
:1031500000201A1DA262E2691344E36207E0237AA9
:1031600033B929462046FEF77DFC0028EDDA38BD4C
:103170006FF00100FBE7000003691960C268013AC3
:10318000C260C269134482699342036124BF436AE7
:10319000036100238362036B03B11847704700008B
:1031A00070B530230D460446114683F31188866AB4
:1031B0002EB9FFF7C7FF10B186F3118870BDA36A5F
:1031C0001D70A36AE26A01339342A36204D3E169EA
:1031D00020460439FFF7D0FF002080F31188EDE787
:1031E0002DE9F84F04460D46904699464FF0300AB7
:1031F0008AF311880026B346A76A4FB9494620468C
:10320000FFF7A0FF20B187F311883046BDE8F88FA3
:10321000D4E90A073A1AA8EB0607974228BF1746CF
:10322000402F1BD905F1400355F8042B9D4240F86F
:10323000042BF9D1A36A40364033A362D4E90A23B0
:103240009A4204D3E16920460439FFF795FF8BF3D6
:1032500011884645D9D28AF31188CDE729463A46E6
:10326000FDF7E8FDA36A3D443E443B44A362E5E725
:10327000D0E904239A4217D1C3689BB1836A8BB10A
:10328000043B9B1A0ED01360C368013BC360C36943
:103290001A4483699A42026124BF436A036100238E
:1032A00083620123184670470023FBE700F086B9CC
:1032B000014B586A704700BF000C0040034B0022CE
:1032C00058631A610222DA60704700BF000C0040A8
:1032D000014B0022DA607047000C0040014B58633C
:1032E000704700BF000C0040FEE7000070B51B4BAC
:1032F0000025044686B058600E468562016300F0E2
:103300000BF904F11003A560E562C4E904334FF042
:10331000FF33C4E90044C4E90635FFF7C9FF2B4673
:10332000024604F134012046C4E9082380230C4AF4
:103330002565FEF74DFB01230A4AE0600092037504
:10334000684672680192B268CDE90223064BCDE966
:103350000435FEF765FB06B070BD00BF20260020D7
:10336000303D0008353D0008E9320008024AD36AC2
:103370001843D062704700BFB82300204B684360F9
:103380008B688360CB68C3600B6943614B690362E0
:103390008B6943620B6803607047000008B53C4BC3
:1033A00040F2FF713B48D3F888200A43C3F88820D5
:1033B000D3F8882022F4FF6222F00702C3F88820A5
:1033C000D3F88820D3F8E0200A43C3F8E020D3F8EC
:1033D00008210A43C3F808212F4AD3F808311146BF
:1033E000FFF7CCFF00F5806002F11C01FFF7C6FF7C
:1033F00000F5806002F13801FFF7C0FF00F5806042
:1034000002F15401FFF7BAFF00F5806002F170018C
:10341000FFF7B4FF00F5806002F18C01FFF7AEFF0B
:1034200000F5806002F1A801FFF7A8FF00F58060B9
:1034300002F1C401FFF7A2FF00F5806002F1E00194
:10344000FFF79CFF00F5806002F1FC01FFF796FF9B
:1034500002F58C7100F58060FFF790FF00F076F9BF
:103460000E4BD3F8902242F00102C3F89022D3F819
:10347000942242F00102C3F894220522C3F8982056
:103480004FF06052C3F89C20054AC3F8A02008BD45
:1034900000440258000002583C3D000800ED00E0E6
:1034A0001F00080308B500F025FBFEF755FA0F4B87
:1034B000D3F8DC2042F04002C3F8DC20D3F804212A
:1034C00022F04002C3F80421D3F80431084B1A68F3
:1034D00042F008021A601A6842F004021A60FEF70D
:1034E00021FFBDE80840FEF7C5BC00BF00440258FC
:1034F0000018024870470000EFF30983054968335C
:103500004A6B22F001024A6383F30988002383F3A4
:103510001188704700EF00E0302080F3118862B618
:103520000D4B0E4AD96821F4E0610904090C0A43E5
:103530000B49DA60D3F8FC2042F08072C3F8FC201B
:10354000084AC2F8B01F116841F001011160202241
:10355000DA7783F82200704700ED00E00003FA05F7
:1035600055CEACC5001000E0302310B583F31188B0
:103570000E4B5B6813F4006314D0F1EE103AEFF3D6
:1035800009844FF08073683CE361094BDB6B236671
:1035900084F30988FEF7B4F910B1064BA36110BD9E
:1035A000054BFBE783F31188F9E700BF00ED00E06E
:1035B00000EF00E02F04000832040008114BD3F89C
:1035C000E82042F00802C3F8E820D3F8102142F0C6
:1035D0000802C3F810210C4AD3F81031D36B43F022
:1035E0000803D363C722094B9A624FF0FF32DA62B5
:1035F00000229A615A63DA605A6001225A611A60A5
:10360000704700BF004402580010005C000C0040EE
:10361000094A08B51169D3680B40D9B29B076FEA14
:103620000101116107D5302383F31188FEF7AAF950
:10363000002383F3118808BD000C0040064BD3F82B
:10364000DC200243C3F8DC20D3F804211043C3F884
:103650000401D3F804317047004402583A4B4FF04C
:10366000FF31D3F8802062F00042C3F88020D3F805
:10367000802002F00042C3F88020D3F88020D3F8E5
:103680008420C3F88410D3F884200022C3F8842057
:10369000D3F88400D86F40F0FF4040F4FF0040F4BE
:1036A000DF4040F07F00D867D86F20F0FF4020F463
:1036B000FF0020F4DF4020F07F00D867D86FD3F8F8
:1036C00088006FEA40506FEA5050C3F88800D3F882
:1036D0008800C0F30A00C3F88800D3F88800D3F844
:1036E0009000C3F89010D3F89000C3F89020D3F85E
:1036F0009000D3F89400C3F89410D3F89400C3F862
:103700009420D3F89400D3F89800C3F89810D3F815
:103710009800C3F89820D3F89800D3F88C00C3F829
:103720008C10D3F88C00C3F88C20D3F88C00D3F81D
:103730009C00C3F89C10D3F89C10C3F89C20D3F8CD
:103740009C3000F0AFB900BF0044025808B5012218
:10375000534BC3F80821534BD3F8F42042F0020234
:10376000C3F8F420D3F81C2142F00202C3F81C2154
:103770000222D3F81C314C4BDA605A689104FCD514
:103780004A4A1A6001229A60494ADA6000221A61A4
:103790004FF440429A61444B9A699204FCD51A68EE
:1037A00042F480721A603F4B1A6F12F4407F04D0CB
:1037B0004FF480321A6700221A671A6842F0010239
:1037C0001A60384B1A685007FCD500221A611A6932
:1037D00012F03802FBD1012119604FF0804159608D
:1037E0005A67344ADA62344A1A611A6842F48032FB
:1037F0001A602C4B1A689103FCD51A6842F4805267
:103800001A601A689204FCD52C4A2D499A6200224B
:103810005A63196301F57C01DA6301F5E771996375
:103820005A64284A1A64284ADA621A6842F0A8528E
:103830001A601C4B1A6802F02852B2F1285FF9D1C5
:1038400048229A614FF48862DA6140221A621F4A64
:10385000DA641F4A1A651F4A5A651F4A9A6532235D
:103860001E4A1360136803F00F03022BFAD10D4AAE
:10387000136943F003031361136903F03803182B32
:10388000FAD14FF00050FFF7D9FE4FF08040FFF71C
:10389000D5FE4FF00040BDE80840FFF7CFBE00BFA7
:1038A00000800051004402580048025800C000F057
:1038B000020000010000FF01008890083220600033
:1038C00063020901470E0508DD0BBF01200000203F
:1038D000000001100910E00000010110002000525A
:1038E0004FF0B04208B5D2F8883003F00103C2F8B7
:1038F000883023B1044A13680BB150689847BDE87B
:103900000840FFF731BE00BFB44200204FF0B04284
:1039100008B5D2F8883003F00203C2F8883023B12A
:10392000044A93680BB1D0689847BDE80840FFF798
:103930001BBE00BFB44200204FF0B04208B5D2F821
:10394000883003F00403C2F8883023B1044A1369B5
:103950000BB150699847BDE80840FFF705BE00BFAE
:10396000B44200204FF0B04208B5D2F8883003F0DE
:103970000803C2F8883023B1044A93690BB1D069B7
:103980009847BDE80840FFF7EFBD00BFB4420020F4
:103990004FF0B04208B5D2F8883003F01003C2F8F7
:1039A000883023B1044A136A0BB1506A9847BDE8C6
:1039B0000840FFF7D9BD00BFB44200204FF0B0432C
:1039C00010B5D3F8884004F47872C3F88820A306B1
:1039D00004D5124A936A0BB1D06A9847600604D5A1
:1039E0000E4A136B0BB1506B9847210604D50B4A56
:1039F000936B0BB1D06B9847E20504D5074A136C63
:103A00000BB1506C9847A30504D5044A936C0BB1D5
:103A1000D06C9847BDE81040FFF7A6BDB442002027
:103A20004FF0B04310B5D3F8884004F47C42C3F89B
:103A30008820620504D5164A136D0BB1506D984766
:103A4000230504D5124A936D0BB1D06D9847E0045D
:103A500004D50F4A136E0BB1506E9847A10404D5DC
:103A60000B4A936E0BB1D06E9847620404D5084A96
:103A7000136F0BB1506F9847230404D5044A936F1A
:103A80000BB1D06F9847BDE81040FFF76DBD00BF88
:103A9000B442002008B5FFF7BBFDBDE80840FFF7C2
:103AA00063BD0000062108B50846FFF71FFA06218E
:103AB0000720FFF71BFA06210820FFF717FA062157
:103AC0000920FFF713FA06210A20FFF70FFA062153
:103AD0001720FFF70BFA06212820FFF707FA092124
:103AE0007A20FFF703FA07213220BDE80840FFF7EC
:103AF000FDB9000008B5FFF7B1FD00F00BF8FDF7C8
:103B0000FDFBFDF7CFFAFFF7F5FCBDE80840FFF736
:103B1000CDBB00000023054A19460133102BC2E932
:103B2000001102F10802F8D1704700BFB442002032
:103B300010B501390244904201D1002005E003781C
:103B400011F8014FA34201D0181B10BD0130F2E75C
:103B5000034611F8012B03F8012B002AF9D1704715
:103B600053544D333248373F3F3F0053544D333267
:103B7000483733782F3732780053544D3332483733
:103B800034332F3735332F373530000001105A00CA
:103B900003105900012058000320560000000000C7
:103BA000211000080D100008491000083510000809
:103BB000411000082D100008191000080510000819
:103BC0005510000800000000010000000000000087
:103BD00063300000D03B0008102400202026002085
:103BE0006D526F0025424F415244252D424C002515
:103BF00053455249414C25000200000000000000DE
:103C000041120008B112000840004000D03E0020E0
:103C1000E03E002002000000000000000300000061
:103C200000000000F9120008000000001000000071
:103C3000F03E002000000000010000000000000035
:103C40006441002001010200111E0008211D00082E
:103C5000BD1D0008A11D000843000000603C0008D5
:103C600009024300020100C03209040000010202FF
:103C700001000524001001052401000104240202B2
:103C80000524060001070582030800FF090401005E
:103C9000020A00000007050102400000070581023A
:103CA0004000000012000000AC3C000812011001AE
:103CB0000200004009124157000201020301000006
:103CC0000403090425424F41524425006D526F43BD
:103CD0005A65726F4F454D48372D626473686F7433
:103CE0000030313233343536373839414243444578
:103CF0004600000000000000551400080D170008E1
:103D0000B9170008400040009C4200209C4200205F
:103D100001000000AC4200208000000040010000D3
:103D20000800000000010000001000000800000072
:103D30006D61696E0069646C650000000000802A96
:103D400000000000AAAAAAAA00000024FFFF0000A9
:103D50000000000000A00A00440040000000000035
:103D6000AAAAAAAA00000000FFFF000000000000AD
:103D7000000000001000000000000000AAAAAAAA8B
:103D800010000000FFFF0000000000000000000025
:103D90000040100000000000AAAA8AAA00401000FB
:103DA000FFFF0000000000000000000000000040D5
:103DB00000000000AAAAAAAA00000040FFFF00001D
:103DC00000000000000000000010100000000000D3
:103DD000AAAAAAAA00101000FFFF0000000000001D
:103DE000000000000000040000000000AAAAAAAA27
:103DF00000000400FFFF00000000000000000000C1
:103E00000000000000000000AAAAAAAA000000000A
:103E1000FFFF0000000000000000000000000000A4
:103E200000000000AAAAAAAA00000000FFFF0000EC
:103E30000000000000000000000000000000000082
:103E4000AAAAAAAA00000000FFFF000000000000CC
:103E5000000000000000000000000000AAAAAAAABA
:103E600000000000FFFF0000000000000000000054
:103E7000000400000000000000001E000000000020
:103E8000FF00000000000000603B00088304000009
:103E90006B3B000850040000793B000800960000CE
:103EA0000000080096000000000800000400000068
:103EB000C03C0008000000000000000000000000FE
:0C3EC000000000000000000000000000F6
:00000001FF
