:020000040800F2
:1000000000040020A1020008A10F0008A50F0008AD
:10001000F90F0008A50F0008CD0F0008A302000883
:10002000A3020008A3020008A3020008413300084D
:10003000A3020008A3020008A3020008A30200080C
:10004000A3020008A3020008A3020008A3020008FC
:10005000A3020008A302000829370008553700084A
:1000600081370008AD370008D9370008A30200081F
:10007000A3020008A3020008A3020008A3020008CC
:10008000A3020008A3020008A3020008A3020008BC
:10009000A3020008A3020008A30200080538000814
:1000A000A3020008A3020008A3020008A30200089C
:1000B000A3020008A3020008A3020008A30200088C
:1000C000A3020008A3020008A3020008A30200087C
:1000D000A3020008A3020008A3020008A30200086C
:1000E0006D380008A3020008A3020008A30200085C
:1000F000A3020008A3020008A3020008A30200084C
:10010000A3020008A3020008BD330008A3020008F0
:10011000A3020008A3020008A3020008A30200082B
:10012000A3020008A3020008A3020008A30200081B
:10013000A3020008A3020008A3020008A30200080B
:10014000A3020008A3020008A3020008A3020008FB
:10015000A3020008A3020008A3020008A3020008EB
:10016000A3020008A3020008A3020008A3020008DB
:10017000A3020008B92D0008A3020008A30200088A
:10018000A3020008A3020008A3020008A3020008BB
:10019000A3020008A3020008A3020008A3020008AB
:1001A000A3020008A3020008A3020008A30200089B
:1001B000A3020008A3020008A3020008A30200088B
:1001C000A3020008A3020008A3020008A30200087B
:1001D000A3020008A52D0008A3020008A30200083E
:1001E000A3020008A3020008A3020008A30200085B
:1001F000A3020008A3020008A3020008A30200084B
:10020000A3020008A3020008A3020008A30200083A
:10021000A3020008A3020008A3020008A30200082A
:10022000A3020008A3020008A3020008A30200081A
:10023000A3020008A3020008A3020008A30200080A
:10024000A3020008A3020008A3020008A3020008FA
:10025000A3020008A3020008A3020008A3020008EA
:10026000A3020008A3020008A3020008A3020008DA
:10027000A3020008A3020008A3020008A3020008CA
:10028000A3020008A3020008A3020008A3020008BA
:10029000A3020008A3020008A3020008A3020008AA
:1002A00002E000F000F8FEE772B6394880F30888F3
:1002B000384880F3098838484EF60851CEF20001DC
:1002C000086040F20000CCF200004EF63471CEF22D
:1002D00000010860BFF34F8FBFF36F8F40F2000043
:1002E000C0F2F0004EF68851CEF200010860BFF374
:1002F0004F8FBFF36F8F4FF00000E1EE100A4EF604
:100300003C71CEF200010860062080F31488BFF330
:100310006F8F02F00FF802F091FF4FF055301F4938
:100320001B4A91423CBF41F8040BFAE71C49194AA9
:1003300091423CBF41F8040BFAE71A491A4A1B4B99
:100340009A423EBF51F8040B42F8040BF8E7002034
:100350001749184A91423CBF41F8040BFAE702F0F2
:1003600027F802F0DFFF144C144DAC4203DA54F8C6
:10037000041B8847F9E700F03FF8114C114DAC42DF
:1003800003DA54F8041B8847F9E702F00FB80000BD
:1003900000040020002400200000000800000020CD
:1003A00000040020783C00080024002044240020A1
:1003B00048240020D8300020A0020008A002000835
:1003C000A0020008A00200082DE9F04F2DED108AD0
:1003D000C1F80CD0D0F80CD0BDEC108ABDE8F08F7D
:1003E000002383F311882846A047002001F000FC79
:1003F00001F030FB00DFFEE738B51F4C0423002579
:1004000063701E232570A570E57025716571A57157
:10041000E57125726572A372E57200F0BBFC20B134
:100420000E2325726572A372E57201F047FF05463F
:1004300001F07AFF0446D0B9104B9D4219D0013328
:100440009D4241F2883512BF044600250124002058
:1004500001F03EFF0CB100F059F800F075FD00F01E
:10046000E1FB284600F008F900F050F8F9E7002514
:10047000EDE70546EBE700BF48240020010007B088
:1004800008B500F071FBA0F120035842584108BDA7
:1004900007B541F21203022101A8ADF8043000F0C3
:1004A000B1FB03B05DF804FB202310B583F3118882
:1004B0001248C3680BB101F021FC0023104A4FF42D
:1004C0007A710E4801F0DEFB002383F311880D4C96
:1004D000236813B12368013B2360636813B1636829
:1004E000013B6360084B1B7833B9636823B9022072
:1004F00000F094FC3223636010BD00BF5424002040
:10050000A90400087025002068240020F8B5514A8D
:10051000514B1968013100F09B8004339342F8D1AC
:100520004E4C4F4B22689A4240F292804D4B9B6852
:1005300003F1006303F500339A4280F089800020C4
:1005400000F08AFB0220484B187000F059FC474B22
:10055000D3F8E8200022C3F8E820D3F81011C3F83C
:100560001021D3F81011D3F8EC10C3F8EC20D3F815
:100570001411C3F81421D3F81411D3F8F010C3F8F0
:10058000F020D3F81811C3F81821D3F81811D3F8B4
:10059000801041F00061C3F88010D3F8801021F082
:1005A0000061C3F88010D3F88010D3F8801041F0B8
:1005B0000071C3F88010D3F8801021F00071C3F8E7
:1005C0008010D3F8803072B6234B29490B6018682D
:1005D0002468BFF34F8FBFF36F8F264BC3F884207F
:1005E000BFF34F8F5A6922F480325A61BFF34F8FA5
:1005F000D3F8802043F6E076C2F3C905C2F34E3249
:10060000520102EA060C29464CEA81770139C3F807
:100610007472F9D2203A12F1200FF2D1BFF34F8F4A
:10062000BFF36F8FBFF34F8FBFF36F8F5A6922F401
:1006300000325A610022C3F85022BFF34F8FBFF33C
:100640006F8F202383F31188854680F30888204725
:10065000F8BD00BF200002080000020804000208E4
:10066000FFFF0108482400206824002000440258AD
:1006700008ED00E000ED00E02DE9F04F95B0B44C3E
:100680002022FF2101900CA8A76800F003FCB14ACA
:1006900002941378A3B90121AF481170C3602023DD
:1006A00083F31188C3680BB101F028FB0023AB4A28
:1006B0004FF47A71A84801F0E5FA002383F311881A
:1006C000019B13B1A64B019A1A600023A54A019E13
:1006D00013709946A24A1D461C469846DFF890B210
:1006E0005360012000F08CFB26B19D4B1B68002B52
:1006F00000F00182002000F037FA0590059B002BE6
:10070000F2DB012000F06CFB059B213B122BE8D8AB
:1007100001A252F823F000BF650700088D0700080A
:10072000FB070008E3060008E3060008E3060008EC
:100730008F080008630A000875090008DF0900082F
:10074000070A00082D0A0008E30600083F0A00080F
:10075000E3060008B50A00087D080008E306000863
:10076000FD0A00080220FFF78BFE002840F0ED8113
:10077000019BB9F1000F08BF1E4641F2123302215E
:1007800007A8ADF81C3000F03DFAAAE74FF47A70E4
:1007900000F0EAF9031E0393EADB0220FFF770FE84
:1007A00082460028E4D0039B581E042800F2CF8123
:1007B000DFE800F0030D101316000523042107A83D
:1007C000079300F01FFA55464FF0000856E0042149
:1007D0005F48F6E704216448F3E704216348F0E743
:1007E0001C252846043500F039FA0421079007A893
:1007F00000F008FA2C2DF4D1E5E7002CB8D0002D3C
:10080000B6D00220FFF73CFE0446002800F0A2818B
:100810000120002500F020FA0220524B187000F051
:10082000EFFA5FFA85F9484600F026FA064658B115
:100830004846013500F030FA0028F2D12546A1469D
:10084000064641F212139AE70123464A3746022030
:10085000137000F0C5FA029B9B68BB4207D938466B
:1008600000F0FCF9013040F077810437F3E700270E
:100870003C4BA14625461F70394B5F6000F05AFB88
:1008800014B1002D18BF0026FFF702FE29E7002C47
:100890003FF46EAF002D3FF46BAF0220314B187068
:1008A00000F0AEFA322000F05FF9B0F1000AC0F2B9
:1008B00051811AF0030440F04D81029A0AEB0703BC
:1008C0009268934200F24681BAF5807F00F342813C
:1008D000274BA24503930EDD4FF47A7000F044F9E4
:1008E0000590059A002AC0F23581059A0134039BD0
:1008F00003F8012BEDE7C820FFF7C2FD04460028EE
:1009000000F028811F2F11D8C7F120020CAB27F06F
:10091000030059465245184428BF5246039200F03E
:100920008FFA039AFF21584600F0B4FA4FEAAA035F
:10093000CAF3870259463846039300F0B3FA0546D6
:10094000002800F00C81039B044607EB830795E722
:10095000482400206C25002054240020A90400080D
:1009600070250020682400204C2400205024002002
:100970006C2400200220FFF783FD00283FF4F8AE2E
:1009800000F0A4F900283FF4F3AE4FF0000A5346FC
:10099000029A926852451CD9BAF11F0F12D80C9ACC
:1009A00001320FD02AF0030214A90A4452F8202C75
:1009B00007921846042207A90AF1040A00F030FB46
:1009C0000346E5E75046039300F048F9039B079080
:1009D000EFE70793042107A800F014F94EE700237E
:1009E000642106A8069300F0E9F800287FF4C0AE61
:1009F0000220FFF745FD00283FF4BAAE069800F04C
:100A00005DF90790E6E70023642106A8069300F04D
:100A1000D5F800287FF4ACAE0220FFF731FD0028A6
:100A20003FF4A6AE069800F04BF9EAE70220FFF784
:100A300027FD00283FF49CAE00F058F9E1E70220C2
:100A4000FFF71EFD00283FF493AE07A9142000F025
:100A500053F982460421069006A800F0D3F85146C7
:100A6000B9E7322000F080F8B0F1000AFFF680AE5E
:100A70001AF0030F7FF47CAE029A0AEB0803926827
:100A800093423FF675AE0220FFF7FAFC00283FF4D0
:100A90006FAE2AF0030AC244D0453FF4EFAE4046A1
:100AA00008F1040800F0DAF80421079007A800F024
:100AB000A9F8F1E74FF47A70FFF7E2FC00283FF461
:100AC00057AE00F003F900283FF4BBAE0C9B013396
:100AD0000CD008220CA9002000F0E4F900283FF413
:100AE000B0AE2022FF210CA800F0D4F9FFF7D0FC13
:100AF0001C4801F083F815B0BDE8F08F002C3FF4DE
:100B000037AE002D3FF434AE0023642107A80793CD
:100B100000F054F8824600287FF42AAE0220FFF746
:100B2000AFFC039000283FF423AEFFF7B1FC41F285
:100B3000883001F063F8079800F030FA564600F06C
:100B4000F9F9039B1D461C46CBE5044696E64FF09B
:100B500000080DE62C460BE62546A14671E6254623
:100B60006FE600BFA0860100114B73B51A78002410
:100B700001328DF80740D2B2012A12D80D4D012260
:100B80000DF107012B681E6A4FF47A734343284620
:100B9000B047012805D1084B9DF807001C7002B032
:100BA00070BD4FF4FA7001F029F84FF0FF30F6E70E
:100BB0000024002060280020A425002038B50E4B1A
:100BC0001A780132D2B2012A0FD80C4C04222368C1
:100BD0001D6A4FF47A734B4301462046A847042808
:100BE00003D10020064B187038BD4FF4FA7001F0A5
:100BF00005F84FF0FF30F7E70024002060280020C0
:100C0000A425002030B4054C0A460146236820463E
:100C1000DD69034BAC4630BC604700BF6028002054
:100C2000A086010070B50A4C00250A4E01F034FA86
:100C3000207030682378834208D901F029FA33689C
:100C400005440133B5F5003F3360F2D370BD00BFFA
:100C5000A52500207825002001F0E6BA00F100600B
:100C600000F500300068704700F10060920000F568
:100C7000003001F06DBA0000054B1A68054B1B7877
:100C80009B1A834202D9104401F002BA0020704737
:100C900078250020A525002038B5074D0446286892
:100CA000204401F0FBF928B928682044BDE8384009
:100CB00001F006BA38BD00BF78250020002070473B
:100CC000014BC058704700BF00E8F11F064991F87A
:100CD000243033B100230822086A81F82430FFF75A
:100CE000C3BF0120704700BF7C250020014B18685E
:100CF000704700BF0010005C244B254AF0B51B680C
:100D000004461788C3F30B0056681B0C92F9085071
:100D1000B84228D09789B84206D101200C2505FB9E
:100D20000022566892F9085041F2010293421CD009
:100D300041F2030293421AD042F20102934218D0C8
:100D400042F20302934208BF5625621E0B46741EF0
:100D50000A4493420FD214F9016F581C6EB1034636
:100D600000F8016CF5E70020D8E75A25EDE7592592
:100D7000EBE75825E9E7184605E02C2490421C7063
:100D800001D2981C5D70401AF0BD00BF0010005CDD
:100D900004240020104B41F201015A888A42134674
:100DA00011D041F203018A420FD042F20102934274
:100DB0000DD042F2030293420BD10323074A02EB08
:100DC0008303D87870470023F8E70123F6E702236E
:100DD000F4E70020704700BF0010005C883900086D
:100DE000022804D1054B4FF000629A617047012838
:100DF000FCD1024B4FF40032F7E700BF0004025869
:100E0000022804D1044B4FF400629A617047012814
:100E1000FCD1014B0222F8E700040258022805D158
:100E2000064A536983F40063536170470128FCD17B
:100E3000024A536983F00203F6E700BF0004025838
:100E4000002310B5934203D0CC5CC4540133F9E7BE
:100E500010BD0000013830B510F9013F0C4663B1F8
:100E600094F9005001319D4207D1551E1AB994F9E9
:100E70000020981A30BD2A46EEE7002AF7D1104626
:100E8000F8E7000003460246D01A12F9011B0029B8
:100E9000FAD1704702440346934202D003F8011B83
:100EA000FAE770472DE9F843214C154606460F46F0
:100EB00094F8242072BBDFF87880BDB394F8243016
:100EC0002BB92022FF2140462662FFF7E3FF94F86A
:100ED00024003946C0F1080204EB8000AA4228BF72
:100EE0002A465FFA82F99200FFF7AAFF94F82430AD
:100EF000A5EB0905164499441744EDB25FFA89F948
:100F0000B9F1080F84F82490D7D1FFF7DFFE00284D
:100F1000D3D108E0236A03EB82038342CBD0FFF7EF
:100F2000D5FE0028C7D10020BDE8F8830120FBE7EB
:100F30007C250020024B1A78024B1A70704700BFC4
:100F4000A42500200024002010B5104C104800F00B
:100F500009F921460E4800F031F924680D48D4F80B
:100F60009020D2F8043843F00203C2F8043800F0AD
:100F700045FE0949204600F02DFAD4F89020D2F819
:100F8000043823F00203C2F8043810BD543A0008B4
:100F90006028002040420F005C3A000870470000C3
:100FA000FEE7000000B59BB0EFF3098168226846B8
:100FB000FFF746FFEFF30583034B9A6B9A6A9A6A31
:100FC0009A6A9A6A9B6AFEE700ED00E000B59BB062
:100FD000EFF3098168226846FFF732FFEFF30583DC
:100FE000044B9A6B9A6A9A6A9A6A9A6A9A6A9B6A94
:100FF000FEE700BF00ED00E000B59BB0EFF3098114
:1010000068226846FFF71CFFEFF30583034B5A6B1A
:101010009A6A9A6A9A6A9A6A9B6AFEE700ED00E009
:1010200030B50A44084D91420DD011F8013B5840AB
:10103000082340F30004013B2C4013F0FF0384EA33
:101040005000F6D1EFE730BD2083B8ED0023054A0C
:1010500019460133102BC2E9001102F10802F8D140
:10106000704700BFA8250020026843681143016053
:1010700003B118477047000013B5446BD4F894349B
:101080001A681178042915D1217C022912D1197905
:10109000012312898B4013420CD101A904F14C00A9
:1010A00001F0D2FFD4F894440246019B21792068D4
:1010B00000F0E4F902B010BD143001F055BF00009B
:1010C0004FF0FF33143001F04FBF00004C3002F0FE
:1010D00027B800004FF0FF334C3002F021B8000079
:1010E000143001F023BF00004FF0FF31143001F045
:1010F0001DBF00004C3001F0F3BF00004FF0FF3285
:101100004C3001F0EDBF000038B5D0F894340546FE
:101110001A681178042901D0012038BD017C022908
:10112000FAD1187901238340508913EA0004F3D1DE
:1011300005F1140001F0B4FE02460028ECD0D5F809
:1011400094544FF480732868697900F085F920463B
:10115000E3E70000406BFFF7D7BF000000207047B7
:10116000704700007FB5124B01250226044603603C
:101170000023057400F1840243602946C0E902336C
:101180000C4B0290143001934FF48073009601F0E1
:1011900063FE094B04F52372294604F14C000294C6
:1011A000CDE900634FF4807301F02AFF04B070BDF5
:1011B0009839000855110008791000080A682023A2
:1011C00083F311880B790B3342F823004B791333E7
:1011D00042F823008B7913B10B3342F8230002232A
:1011E000C0F894140374002383F31188704700003F
:1011F00038B5037F044613B190F85430ABB90125DC
:10120000201D0221FFF730FF04F114006FF00101EF
:10121000257700F01BFD04F14C0084F854506FF06A
:101220000101BDE8384000F011BD38BD10B5012105
:1012300004460430FFF718FF0023237784F8543066
:1012400010BD000038B504460025143001F01CFE26
:1012500004F14C00257701F0EBFE201D84F854507A
:101260000121FFF701FF2046BDE83840FFF74CBFE2
:1012700090F8803003F06003202B06D190F8812095
:101280000023212A03D81F2A06D800207047222ACB
:10129000FBD1C0E91D3303E0034A4267072282679E
:1012A000C3670120704700BF1C240020D0F894348D
:1012B00037B51A680446117804291AD1017C02292D
:1012C00017D11979012312898B40134211D100F1F2
:1012D0004C05284601F06CFF58B101A9284601F0E1
:1012E000B3FED4F894440246019B2179206800F0B3
:1012F000C5F803B030BD000001F10B03F0B550F8A4
:10130000236085B004460D46FEB1202383F3118887
:1013100004EB8507301D0821FFF7A6FEFB6806F1E8
:101320004C005B691B681BB1019001F09BFE0198AA
:1013300003A901F089FE024648B1039B29462046D5
:1013400000F09CF8002383F3118805B0F0BDFB6822
:101350005A691268002AF5D01B8A013B1340F1D16B
:1013600004F18002EAE70000133138B550F821405B
:10137000DCB1202383F31188D4F8942413685279C4
:1013800003EB8203DB689B695D6845B1042160184B
:10139000FFF76AFE294604F1140001F08BFD204698
:1013A000FFF7B2FE002383F3118838BD70470000B9
:1013B00001F07EB8012300F1300200F1500103700A
:1013C0000023436042F8043B8A42D361FAD1836030
:1013D0007047000038B50446202383F311880025A8
:1013E00000F10C0300F13002416043F8045B9342CA
:1013F000FBD1204601F07EF80223237085F311888B
:1014000038BD000070B500EB8103054650690E46FB
:101410001446DA6018B110220021FFF73BFDA069E5
:1014200018B110220021FFF735FD31462846BDE8EE
:10143000704001F071B90000826802F00112826010
:101440000022C0E90422C0E90622C0E90822C0E95E
:101450000A2201F0F1B90000F0B4012500EB81048B
:1014600047898D40E4683D43A4694581236000239A
:10147000A2606360F0BC01F00DBA0000F0B4012579
:1014800000EB810407898D40E4683D436469058170
:1014900023600023A2606360F0BC01F083BA000007
:1014A000022300F10C0200F1300110B50370044674
:1014B0000023C0F88830836042F8043B8A42FBD1A5
:1014C00084F87030204601F0BBF863681B6823B1D4
:1014D00020460021BDE81040184710BD027843683F
:1014E00080F88C20052202701B680BB1042118477C
:1014F0007047000090F88C20436802701B680BB1A5
:10150000052118477047000070B590F87030044608
:1015100013B1002380F8703004F18002204601F0FE
:10152000AFF963689B68B3B994F8803013F0600535
:1015300039D00021204601F055FC0021204601F061
:1015400045FC63681B6813B10621204698470623B3
:1015500084F8703070BD204698470028E4D094F895
:10156000872094F8863043EA0223A26F9A4288BF0C
:10157000A36794F98030A56F002B4FF0200380F211
:101580000881002D00F0F780092284F8702083F391
:10159000118800212046D4E91D23FFF76FFF0023A7
:1015A00083F31188D6E794F8812003F07F0343EAA0
:1015B000022340F20232934200F0CA8021D8B3F5F0
:1015C000807F4DD00DD8012B44D0022B00F09880A5
:1015D000002BAED104F1880262670222A267E367A2
:1015E000BDE7B3F5817F00F0A080B3F5407FA0D1C7
:1015F00094F88230012B9CD1B4F8883043F0020378
:1016000037E0B3F5006F52D01CD8B3F5A06F36D0D9
:10161000A3F5C063012B8CD894F88520204661681F
:1016200094F884304E6843EA022394F8831094F8C7
:101630008220B04700283FF47CAF436863670368AB
:10164000A3671AE0B3F5106F36D040F6024293421A
:101650007FF46FAF5B4B63670223A3670023BEE792
:1016600094F88230012B7FF464AFB4F8883023F013
:101670000203A4F88830C4E91D55E5676FE7B4F8A4
:101680008030B3F5A06F0ED194F88230204684F8F4
:101690008A3001F033F863681B6813B101212046DA
:1016A0009847032323700023C4E91D3397E704F10F
:1016B0008B0363670123C3E72378042B10D1202316
:1016C00083F311882046FFF7B7FE85F311880321C5
:1016D000636884F88B5021701B680BB120469847D3
:1016E00094F88230002BDED084F88B3004232370F2
:1016F00063681B68002BD6D0022120469847D2E7AA
:1017000094F8843020461D0603F00F010AD501F03D
:10171000A9F8012804D002287FF40BAF2A4B9AE7DE
:101720002A4B98E701F090F8F3E794F88230002B09
:101730007FF4FFAE94F8843013F00F01B3D01A0693
:10174000204602D501F066FBADE701F057FBAAE7A2
:1017500094F88230002B7FF4ECAE94F8843013F0D0
:101760000F01A0D01B06204602D501F03BFB9AE7F3
:1017700001F02CFB97E7142284F8702083F3118882
:101780002B462A4629462046FFF766FE85F3118838
:10179000E0E65DB1152284F8702083F31188002102
:1017A0002046D4E91D23FFF757FEF8E60B2284F804
:1017B000702083F311882B462A4629462046FFF7DE
:1017C0005DFEE3E7C8390008C0390008C4390008E5
:1017D00038B590F870300446002B42D0063BDAB2A0
:1017E0000F2A38D80F2B36D8DFE803F03B35350801
:1017F000263635353535353535353B3B90F8871050
:1018000090F88620836F42EA0122934214D2C26884
:10181000128AB3FBF2F502FB15356DB9202383F371
:1018200011882B462A462946FFF728FE85F31188A2
:101830000A2384F870300EE0142384F870302023DB
:1018400083F31188002320461A461946FFF704FE49
:10185000002383F3118838BDC36F03B19847002379
:10186000E7E70021204601F0BDFA0021204601F003
:10187000ADFA63681B6813B106212046984706231A
:10188000D7E7000010B590F870300446142B29D02B
:1018900017D8062B05D001D81BB110BD093B022B70
:1018A000FBD80021204601F09DFA0021204601F0DE
:1018B0008DFA63681B6813B10621204698470623FA
:1018C00019E0152BE9D10B2380F87030202383F326
:1018D000118800231A461946FFF7D0FD002383F331
:1018E0001188DAE7C3689B695B68002BD5D1C36FA9
:1018F00003B19847002384F87030CEE7024B0022F2
:10190000C3E900339A6070472826002000238268CC
:101910000374054B1B6899689142FBD25A680360B7
:1019200042601060586070472826002008B52023C8
:1019300083F31188037C032B05D0042B0DD02BB926
:1019400083F3118808BD436900221A604FF0FF330A
:101950004361FFF7DBFF0023F2E7D0E900321360B9
:101960005A60F3E7002382680374054B1B6899688B
:101970009142FBD85A68036042601060586070471B
:1019800028260020054B19690874186802685360FE
:101990001A60186101230374FEF716BD2826002083
:1019A0004B1C30B5044687B00A4D10D02B6901A8F6
:1019B000094A00F067F92046FFF7E4FF049B13B1E2
:1019C00001A800F09BF92B69586907B030BDFFF7FB
:1019D000D9FFF8E7282600202D19000838B50C4D4E
:1019E000044641612B6981689A68914203D8BDE839
:1019F0003840FFF78BBF1846FFF788FF01232C61A3
:101A0000014623742046BDE83840FEF7DDBC00BF28
:101A100028260020044B1A681B6990689B6898422E
:101A200094BF0020012070472826002010B5084CE4
:101A3000236820691A6854602260012223611A74A5
:101A4000FFF790FF01462069BDE81040FEF7BCBCDF
:101A500028260020FFF7EABFFEE7000010B5194C6A
:101A6000FFF74CFF00F000F980221749204600F0F4
:101A700087F8012344F8180C0374144B144AD968EE
:101A800021F4E0610904090C0A431249DA60CA68CA
:101A900042F08072CA60104A1049C2F8B01F116843
:101AA00041F0010111601022DA77202283F8222010
:101AB000002383F3118862B60948BDE8104000F0A6
:101AC0007FB800BF50260020CC39000800ED00E0B0
:101AD0000003FA05F0ED00E0001000E055CEACC5C3
:101AE000DC3900082DE9F84F1E4C0027DFF878801C
:101AF000656904F11409D8F82420236AA968D61A64
:101B00008E421CD34FF0200AAA68236AD5F80CB085
:101B1000B61A134423622B684B45C3F804906361E3
:101B2000EF6001D101F06EFB87F311882869D84777
:101B30008AF311886569AB689E42E5D2DBE761698B
:101B400049450DD08868226203449B1A8B60A868BF
:101B5000BDE8F84F02282CBF1018901C01F058BBAC
:101B6000BDE8F88F28260020000C0040034B596880
:101B70005A68521A9042FBD8704700BF001000E02C
:101B800082600222028270478368A3F17C0243F8DC
:101B90000C2C026943F83C2C426943F8382C074A64
:101BA00043F81C2CC268A3F1180043F8102C022241
:101BB00003F8082C002203F8072C7047E103000803
:101BC00010B5202383F31188FFF7DEFF00210446C0
:101BD000FFF704FF002383F31188204610BD0000A7
:101BE000024B1B6958610F20FFF7CCBE282600204E
:101BF000202383F31188FFF7F3BF000008B50146E7
:101C0000202383F311880820FFF7CAFE002383F303
:101C1000118808BD49B1064B42681B6918605A60BB
:101C2000136043600420FFF7BBBE4FF0FF307047E6
:101C3000282600200368984206D01A680260506087
:101C400018465961FFF762BE7047000038B5044678
:101C50000D462068844200D138BD036823605C6073
:101C60004561FFF753FEF4E7054B4FF0FF3103F1F9
:101C70001402C3E905220022C3E90712704700BF1E
:101C800028260020F8B5C0E903231A4B022906468E
:101C90005C6A38BF0221184B1A461F4652F8145F7F
:101CA00095420AD1C3E905001C628160C0E9005574
:101CB0000819BDE8F84001F09BBA186AAB68241A0D
:101CC0000C1902D3E41A2D6804E0A34202D920447F
:101CD00001F09EFAAB68A342F4D36B683560736081
:101CE0001E606E60B460AB681C1B4FF0FF33AC60CD
:101CF000FB61F8BD000C0040282600201A4902684C
:101D00000B4610B453F8144F84420FD041680A6058
:101D1000026851609A424FF00001C16003D093689D
:101D200081680B4493605DF8044B704700209A4231
:101D30004A615360E06003D15DF8044B01F062BA80
:101D40009368A0680344086A9360084A526A111AAB
:101D50008B42E8D9821A5DF8044B1A44012A98BFD5
:101D60008B1C184401F054BA28260020000C0040B7
:101D700000207047FEE70000704700004FF0FF3082
:101D80007047000002290CD0032904D0012907481C
:101D900018BF00207047032A05D8054800EBC20091
:101DA0007047044870470020704700BFB83A0008E9
:101DB000242400206C3A000870B59AB00546084605
:101DC000144601AE314600F097F83046FFF75AF856
:101DD000431CC1B25B00C5E9003423700323023405
:101DE00004F8013C00231846DAB20234914201D8CB
:101DF0001AB070BDF25C013304F8010C04F8022C37
:101E0000F2E7000008B5202383F311880348FFF7A9
:101E10004DFA002383F3118808BD00BF602800201D
:101E200007B5052917D8DFE801F01916031919209D
:101E3000202383F31188104A01210190FFF7E2FA71
:101E4000019802210D4AFFF7DDFA0D48FFF7FAF974
:101E5000002383F3118803B05DF804FB202383F390
:101E600011880748FFF7C4F9F2E7202383F31188AC
:101E70000348FFF7DBF9EBE70C3A0008303A0008BB
:101E80006028002038B50C4D0C4C2A460C4904F152
:101E90000800FFF791FF05F1CA0204F1100009499B
:101EA000FFF78AFF05F5CA7204F118000649BDE87C
:101EB0003840FFF781BF00BF282D002024240020D8
:101EC000F4390008F8390008033A000870B50446F0
:101ED00008460D46FEF7D6FFC6B220460134037809
:101EE0000BB9184670BD32462946FEF7B3FF0028ED
:101EF000F3D10120F6E700002DE9F04705460C4636
:101F0000FEF7C0FF2C49C6B22846FFF7DFFF08B135
:101F10000C36F6B229492846FFF7D8FF08B110362B
:101F2000F6B2632E0BD8DFF89080DFF89090244F44
:101F3000DFF898A02E7846B92670BDE8F0872946CC
:101F40002046BDE8F04701F009BD252E30D107221B
:101F500041462846FEF77EFF80B91A4B224603F120
:101F6000100153F8040B8B4242F8040BF9D1198885
:101F700007359B78133411809370DBE708224946BC
:101F80002846FEF767FF98B9A21C0F4B197802325A
:101F90000909C95D02F8041C13F8011B01F00F01C7
:101FA0005345C95D02F8031CF0D118340835C1E768
:101FB000013504F8016BBDE7D83A0008033A000880
:101FC000F43A0008E03A000800E8F11F0CE8F11FBD
:101FD000BFF34F8F044B1A695107FCD1D3F810217E
:101FE0005207F8D1704700BF0020005208B50D4BD2
:101FF0001B78ABB9FFF7ECFF0B4BDA68D10704D5C0
:102000000A4A5A6002F188325A60D3F80C21D2078A
:1020100006D5064AC3F8042102F18832C3F8042128
:1020200008BD00BF862F0020002000522301674515
:1020300008B5114B1B78F3B9104B1A69510703D53A
:10204000DA6842F04002DA60D3F81021520705D571
:10205000D3F80C2142F04002C3F80C21FFF7B8FF7F
:10206000064BDA6842F00102DA60D3F80C2142F044
:102070000102C3F80C2108BD862F00200020005269
:102080000F289ABF00F580604004002070470000D0
:102090004FF4003070470000102070470F2808B53B
:1020A0000BD8FFF7EDFF00F500330268013204D1D1
:1020B00004308342F9D1012008BD0020FCE7000074
:1020C0000F2838B505463FD8FFF782FF1F4CFFF7B2
:1020D0008DFF4FF0FF3307286361C4F814311DD81A
:1020E0002361FFF775FF030243F02403E360E36815
:1020F00043F08003E36023695A07FCD4FFF768FFCD
:102100002846FFF7BDFF4FF4003100F0EFF8FFF76E
:102110008FFF2846BDE83840FFF7C0BFC4F8103134
:10212000FFF756FFA0F108031B0243F02403C4F895
:102130000C31D4F80C3143F08003C4F80C31D4F8DE
:1021400010315B07FBD4D9E7002038BD00200052D6
:102150002DE9F84F05460C46104645EA0203DB061A
:1021600052D1FFF743FF20F01F00DFF8B4A004EBCB
:102170000008DFF8B0B0444504D1FFF759FF012053
:10218000BDE8F88F20222146284601F0D9FB00281F
:102190003CD005F178431F481F4EB3F5801F1F4BFD
:1021A00038BF994603F1FC0332BF5846D1461E465C
:1021B000FFF70EFF4FF0FF33A5EB040C04F11C01F9
:1021C0000360336843F002033360231FD9F80070C3
:1021D00017F00507FAD153F8042F99424CF8032061
:1021E000F4D1BFF34F8FFFF7F3FE4FF0FF33202200
:1021F000214603602846336823F00203336001F070
:102200009FFB18B1FFF714FF0020B9E720352034F9
:10221000B1E700BF142100520C20005210200052E0
:10222000102100521420005210B5084C237828B118
:102230001BB9FFF7DBFE0123237010BD002BFCD080
:102240002070BDE81040FFF7F3BE00BF862F0020CE
:102250000244074BD2B210B5904200D110BD441CCD
:1022600000B253F8200041F8040BE0B2F4E700BFDD
:10227000504000580E4B30B51C6F240405D41C6F21
:102280001C671C6F44F400441C670A4C024423681A
:10229000D2B243F480732360074B904200D130BD2B
:1022A000441C51F8045B00B243F82050E0B2F4E75C
:1022B00000440258004802585040005807B5012217
:1022C00001A90020FFF7C4FF019803B05DF804FBEB
:1022D00013B50446FFF7F2FFA04205D0012201A981
:1022E00000200194FFF7C6FF02B010BD0144BFF308
:1022F0004F8F064B884204D3BFF34F8FBFF36F8FCE
:102300007047C3F85C022030F4E700BF00ED00E046
:10231000034B1B685B0142BF024B01221A707047DE
:10232000D0440258872F0020014B1878704700BF17
:10233000872F002070B5BFF34F8FBFF36F8F1A4BFD
:102340000021C3F85012BFF34F8FBFF36F8F5A694C
:1023500042F400325A61BFF34F8FBFF36F8FC3F85F
:102360008410BFF34F8FD3F8802043F6E074C2F39C
:10237000C900C2F34E32520102EA0406014646EA9F
:1023800081750139C3F86052F9D2203A12F1200F59
:10239000F2D1BFF34F8F5A6942F480325A61BFF3D2
:1023A0004F8FBFF36F8F70BD00ED00E0FEE70000C0
:1023B000084A094B09498B4204D3094A0021934238
:1023C00005D3704752F8040B43F8040BF3E743F8C6
:1023D000041BF4E7BC3C0008D8300020D8300020B3
:1023E000D830002030B50022D0E9244311464FF008
:1023F000FF309D6804EB421301329542C3F8001987
:10240000C3F81019C3F80809C3F8001BC3F8101B60
:10241000C3F8080BEED24FF00113C4F81C3830BDDE
:1024200000EB8103D3F80CC02DE9F043DCF8142055
:102430004E1CD0F89050D2F800E005EB063605EBC4
:102440004118506870450AD30120D5F8343800FA95
:1024500001F123EA0101C5F83418BDE8F083AEEBC1
:102460000003BCF81040A34228BF2346D8F81849FF
:10247000A4B2B3EB840F0FD89468A4F1040959F8FF
:10248000047F3760A4EB09071F44042FF7D81C44CE
:10249000034494605360D4E70020DEE7890141F0F3
:1024A0002001016103699B06FCD41220FFF75EBB8B
:1024B00010B50A4C2046FEF77DFF094BC4F890305A
:1024C000084BC4F89430084C2046FEF773FF074BC6
:1024D000C4F89030064BC4F8943010BD882F00200B
:1024E000000008402C3B000824300020000004407D
:1024F000383B000870B503780546012B5DD1494B88
:10250000D0F89040984259D1474B0E216520D3F81E
:10251000D82042F00062C3F8D820D3F8002142F05E
:102520000062C3F80021D3F80021D3F8802042F0E4
:102530000062C3F88020D3F8802022F00062C3F844
:102540008020D3F8803000F071FC384BE360384BCA
:10255000C4F800380023D5F89060C4F8003EC023CA
:1025600023604FF40413A3633369002BFCDA0123C7
:102570000C203361FFF7FAFA3369DB07FCD4122031
:10258000FFF7F4FA3369002BFCDA00262846A66030
:10259000FFF728FF6B68C4F81068DB68C4F814689C
:1025A000C4F81C68002B3AD1224BA3614FF0FF33D3
:1025B0006361A36843F00103A36070BD1E4B9842A2
:1025C000C8D1194B0E214D20D3F8D82042F000720B
:1025D000C3F8D820D3F8002142F00072C3F80021DC
:1025E000D3F80021D3F8802042F00072C3F8802095
:1025F000D3F8802022F00072C3F88020D3F8802026
:10260000D3F8D82022F08062C3F8D820D3F8002174
:1026100022F08062C3F80021D3F8003193E7074B22
:10262000C3E700BF882F0020004402584014004038
:1026300003002002003C30C024300020083C30C0A1
:10264000F8B5D0F89040054600214FF000662046CE
:10265000FFF724FFD5F8941000234FF001128F6884
:102660004FF0FF30C4F83438C4F81C2804EB431290
:1026700001339F42C2F80069C2F8006BC2F8080932
:10268000C2F8080BF2D20B68D5F89020C5F8983044
:10269000636210231361166916F01006FBD1122035
:1026A000FFF764FAD4F8003823F4FE63C4F8003866
:1026B000A36943F4402343F01003A3610923C4F842
:1026C0001038C4F814380B4BEB604FF0C043C4F81B
:1026D000103B094BC4F8003BC4F81069C4F800393A
:1026E000D5F8983003F1100243F48013C5F8982010
:1026F000A362F8BD083B000840800010D0F890208D
:1027000090F88A10D2F8003823F4FE6343EA0113EC
:10271000C2F80038704700002DE9F84300EB81084B
:10272000D0F890500C460FFA81F9D8F80C204F01E0
:10273000166806F00306731E022B05EB41134FF0DB
:10274000000194BFB6043A4EC3F8101B04F1100305
:102750004FF0010198BF06F1805601FA03F1936929
:1027600098BF06F50046002B3DD0B2F812C004F128
:1027700058034CEA060C5B0145F803C0D5F81C3839
:102780001943EB19C5F81C1800210127C3F81019CB
:10279000A7405369611E9BB3138A928B9B08012A41
:1027A00088BF5343D0F8982003EB020C42EA03435E
:1027B00001F140022146C0F898C0284605EB82028C
:1027C0005360FFF76BFED8F80C301B8A43EA845342
:1027D00048341E4364012E51D5F81C381F43C5F8F8
:1027E0001C78BDE8F88305EB491CDCF8003B23F4BA
:1027F0000043CCF8003BD5F81C3823EA0101C0E7C0
:1028000004F13F030B4A05EB4919214605EB83030D
:1028100028465A60FFF742FED9F8003923F40043F6
:10282000C9F80039D5F81C3823EA0707D7E700BFF5
:102830000080001000040002D0F894201268C0F854
:102840009820FFF7CFBD00005831D0F890304901F3
:102850005B5813F4004004D013F4001F0CBF022097
:10286000012070474831D0F8903049015B5813F48B
:10287000004004D013F4001F0CBF02200120704759
:1028800000EB8101CB68196A0B6813604B685360D9
:102890007047000000EB810330B5DD68AA6913685A
:1028A000D36019B9402B84BF402313606B8A14682E
:1028B000D0F890201C4402EB4110013C09B2B4FB5B
:1028C000F3F46343033323F0030343EAC44343F0C5
:1028D000C043C0F8103B2B6803F00303012B0ED15B
:1028E000D2F8083802EB411013F4807FD0F8003B97
:1028F00014BF43F0805343F00053C0F8003B02EB99
:102900004112D2F8003B43F00443C2F8003B30BD13
:102910002DE9F041D0F8906005460C4606EB4113D6
:10292000D3F8087B3A07C3F8087B08D5D6F81438E3
:102930001B0704D500EB8103DB685B689847FA0747
:102940001FD5D6F81438DB071BD505EB8403D968EF
:10295000CCB98B69488A5E68B6FBF0F200FB126264
:102960008AB91868DA6890420DD2121AC3E90024B5
:10297000202383F3118821462846FFF78BFF84F339
:102980001188BDE8F081012303FA04F26B8923EA80
:1029900002036B81CB68002BF3D021462846BDE8AB
:1029A000F041184700EB81034A0170B5DD68D0F8AB
:1029B00090306C692668E66056BB1A444FF40020DC
:1029C000C2F810092A6802F00302012A0AB20ED1E5
:1029D000D3F8080803EB421410F4807FD4F8000900
:1029E00014BF40F0805040F00050C4F8000903EBE1
:1029F0004212D2F8000940F00440C2F80009012256
:102A0000D3F8340802FA01F10143C3F8341870BD59
:102A100019B9402E84BF4020206020681A442E8AB5
:102A20008419013CB4FBF6F440EAC44040F0005085
:102A3000C6E700002DE9F041D0F8906004460D464D
:102A400006EB4113D3F80879C3F80879FB071CD5C6
:102A5000D6F81038DA0718D500EB8103D3F80CC08C
:102A6000DCF81430D3F800E0DA6896451BD2A2EB0C
:102A70000E024FF000081A60C3F80480202383F38D
:102A80001188FFF78FFF88F311883B0618D50123C3
:102A9000D6F83428AB40134212D029462046BDE870
:102AA000F041FFF7BDBC012303FA01F2038923EAD9
:102AB00002030381DCF80830002BE6D09847E4E7F6
:102AC000BDE8F0812DE9F84FD0F8905004466E69CA
:102AD000AB691E4016F480586E6103D0BDE8F84F14
:102AE000FEF7DEBC002E12DAD5F8003E9F0705D0B7
:102AF000D5F8003E23F00303C5F8003ED5F80438AE
:102B0000204623F00103C5F80438FEF7F3FC300536
:102B100002D52046FEF7E2FCB1040CD5D5F8083802
:102B200013F0060FEB6823F470530CBF43F41053FB
:102B300043F4A053EB60320704D56368DB680BB144
:102B400020469847F30200F1BA80B70226D5D4F8A0
:102B5000909000274FF0010A09EB4712D2F8003B92
:102B600003F44023B3F5802F11D1D2F8003B002BA2
:102B70000DDA62890AFA07F322EA0303638104EBA0
:102B80008703DB68DB6813B1394620469847013775
:102B9000D4F89430FFB29B689F42DDD9F00619D576
:102BA000D4F89000026AC2F30A1702F00F0302F48D
:102BB000F012B2F5802F00F0CC80B2F5402F09D191
:102BC00004EB8303002200F58050DB681B6A974208
:102BD00040F0B2803003D5F8185835D5E90303D555
:102BE00000212046FFF794FEAA0303D501212046C9
:102BF000FFF78EFE6B0303D502212046FFF788FE08
:102C00002F0303D503212046FFF782FEE80203D5F8
:102C100004212046FFF77CFEA90203D505212046AA
:102C2000FFF776FE6A0203D506212046FFF770FE05
:102C30002B0203D507212046FFF76AFEEF0103D5DB
:102C400008212046FFF764FE700340F1A980E907E0
:102C500003D500212046FFF7EDFEAA0703D5012189
:102C60002046FFF7E7FE6B0703D502212046FFF75A
:102C7000E1FE2F0703D503212046FFF7DBFEEE061A
:102C800003D504212046FFF7D5FEA80603D505216C
:102C90002046FFF7CFFE690603D506212046FFF741
:102CA000C9FE2A0603D507212046FFF7C3FEEB0520
:102CB00076D520460821BDE8F84FFFF7BBBED4F813
:102CC000909000274FF0010AD4F894305FFA87FB08
:102CD0009B685B45FFF439AF09EB4B13D3F8002930
:102CE00002F44022B2F5802F24D1D3F80029002A23
:102CF00020DAD3F8002942F09042C3F80029D3F833
:102D00000029002AFBDB5946D4F89000FFF7C6FBE8
:102D100022890AFA0BF322EA0303238104EB8B03D3
:102D2000DB689B6813B159462046984759462046B0
:102D3000FFF776FB0137C7E7910701D1D0F8008094
:102D4000072A02F101029CBF03F8018B4FEA182801
:102D50003DE704EB830300F58050DA68D2F818C031
:102D6000DCF80820DCE9001CA1EB0C0C00218F42F0
:102D700008D1DB689B699A683A449A605A6817449C
:102D80005F6027E711F0030F01D1D0F800808C4578
:102D900001F1010184BF02F8018B4FEA1828E6E730
:102DA000BDE8F88F08B50348FFF78CFEBDE8084082
:102DB00000F0D6BA882F002008B50348FFF782FE3E
:102DC000BDE8084000F0CCBA24300020D0F89030A4
:102DD00003EB4111D1F8003B43F40013C1F8003B71
:102DE00070470000D0F8903003EB4111D1F8003962
:102DF00043F40013C1F8003970470000D0F8903058
:102E000003EB4111D1F8003B23F40013C1F8003B60
:102E100070470000D0F8903003EB4111D1F8003931
:102E200023F40013C1F8003970470000090100F1D4
:102E30006043012203F56143C9B283F8001300F037
:102E40001F039A4043099B0003F1604303F561436C
:102E5000C3F880211A60704730B50433039C0172B7
:102E6000002104FB0325C160C0E90653049B0363F2
:102E7000059BC0E90000C0E90422C0E90842C0E99E
:102E80000A11436330BD00000022416AC260C0E9FC
:102E90000411C0E90A226FF00101FEF7D7BE00005D
:102EA000D0E90432934201D1C2680AB9181D7047B3
:102EB00000207047036919600021C2680132C260B6
:102EC000C269134482699342036124BF436A036168
:102ED000FEF7B0BE38B504460D46E3683BB1626903
:102EE0000020131D1268A3621344E36207E0237AF3
:102EF00033B929462046FEF78DFE0028EDDA38BDAD
:102F00006FF00100FBE70000C368C269013BC360CA
:102F10004369134482699342436124BF436A436116
:102F200000238362036B03B11847704770B52023F9
:102F3000044683F31188866A3EB9FFF7CBFF054646
:102F400018B186F31188284670BDA36AE26A13F8A7
:102F5000015B9342A36202D32046FFF7D5FF002313
:102F600083F31188EFE700002DE9F84F04460E4681
:102F700090469946202787F311880025AA46D4F861
:102F800028B0BBF1000F09D149462046FFF7A2FF48
:102F900020B18BF311882846BDE8F88FD4E90A12D6
:102FA000A8EB050B521A934528BF9346BBF1400F7F
:102FB0001BD9334601F1400251F8040B914243F80A
:102FC000040BF9D1A36A403640354033A362D4E9FB
:102FD0000A239A4202D32046FFF796FF8AF311880C
:102FE0004545D8D287F31188C9E730465A46FDF7E0
:102FF00027FFA36A5E445D445B44A362E7E70000E9
:1030000010B5029C0433017204FB0321C460C0E9C3
:1030100006130023C0E90A33039B0363049BC0E942
:103020000000C0E90422C0E90842436310BD00006B
:10303000026A6FF00101C260426AC0E90422002204
:10304000C0E90A22FEF702BED0E904239A4201D168
:10305000C26822B9184650F8043B0B607047002044
:1030600070470000C3680021C2690133C36043692F
:10307000134482699342436124BF436A4361FEF76C
:10308000D9BD000038B504460D46E3683BB123695D
:1030900000201A1DA262E2691344E36207E0237A6A
:1030A00033B929462046FEF7B5FD0028EDDA38BDD4
:1030B0006FF00100FBE7000003691960C268013A84
:1030C000C260C269134482699342036124BF436AA8
:1030D000036100238362036B03B11847704700004C
:1030E00070B520230D460446114683F31188866A85
:1030F0002EB9FFF7C7FF10B186F3118870BDA36A20
:103100001D70A36AE26A01339342A36204D3E169AA
:1031100020460439FFF7D0FF002080F31188EDE747
:103120002DE9F84F04460D4691469A464FF0200887
:1031300088F311880026B346A76A4FB95146204646
:10314000FFF7A0FF20B187F311883046BDE8F88F64
:10315000D4E90A073A1AA9EB0607974228BF17468F
:10316000402F1BD905F1400355F8042B9D4240F830
:10317000042BF9D1A36A40364033A362D4E90A2371
:103180009A4204D3E16920460439FFF795FF8BF397
:1031900011884E45D9D288F31188CDE729463A46A1
:1031A000FDF74EFEA36A3D443E443B44A362E5E77F
:1031B000D0E904239A4217D1C3689BB1836A8BB1CB
:1031C000043B9B1A0ED01360C368013BC360C36904
:1031D0001A4483699A42026124BF436A036100234F
:1031E00083620123184670470023FBE700F0FAB81A
:1031F000034B002258631A610222DA60704700BF55
:10320000000C0040014B0022DA607047000C0040C7
:10321000014B5863704700BF000C00404B6843608F
:103220008B688360CB68C3600B6943614B69036241
:103230008B6943620B6803607047000008B52C4B34
:1032400040F2FF712B48D3F888200A43C3F8882046
:10325000D3F8882022F4FF6222F00702C3F8882006
:10326000D3F88820D3F8E0200A43C3F8E020D3F84D
:1032700008210A43C3F808211F4AD3F80831114630
:10328000FFF7CCFF1D4802F11C01FFF7C7FF1C48E8
:1032900002F13801FFF7C2FF1A4802F15401FFF7AB
:1032A000BDFF194802F17001FFF7B8FF174802F19E
:1032B0008C01FFF7B3FF164802F1A801FFF7AEFF3C
:1032C000144802F1C401FFF7A9FF134802F1E0011D
:1032D000FFF7A4FF114802F1FC01FFF79FFF104820
:1032E00002F58C71FFF79AFFBDE8084000F050B975
:1032F0000044025800000258443B000800040258F1
:1033000000080258000C025800100258001402581D
:1033100000180258001C02580020025800240258CD
:103320000028025808B500F0FBFAFEF797FBFEF7FD
:10333000EFFFBDE80840FEF7A5BD000070470000A4
:10334000064A536823F001035360EFF3098368339F
:1033500083F30988002383F31188704730EF00E07E
:10336000202310B583F31188104B5B6813F40063BE
:1033700018D0F1EE103AEFF309844FF0807344F85F
:103380004C3C0B4BDB6844F8083CA4F1680383F326
:103390000988FEF73FFB18B1064B44F8503C10BDBE
:1033A000054BFAE783F31188F9E700BF00ED00E071
:1033B00030EF00E0F1030008F4030008084B1A693D
:1033C000920710B508D500241C61202383F31188CF
:1033D000FEF788FB84F31188BDE81040FFF7C0BFFB
:1033E000000C0040124B08213220D3F8E82042F0B4
:1033F0000802C3F8E820D3F8102142F00802C3F80D
:1034000010210C4AD3F81031D36B43F00803D36377
:10341000C722094B9A624FF0FF32DA6200229A61AA
:103420005A63DA605A6001225A611A60FFF7FEBCE3
:10343000004402580010005C000C00404F4B70B577
:10344000D3F8802000244FF0FF32C3F88020D3F857
:103450008010C3F88040D3F88010D3F88410C3F8EC
:103460008420D3F88410C3F88440D3F88410D96F33
:1034700041F0FF4141F4FF0141F4DF4141F07F01A0
:10348000D967D96F21F0FF4121F4FF0121F4DF4119
:1034900021F07F01D967D96FD3F888106FEA4151C5
:1034A0006FEA5151C3F88810D3F88810C1F30A01AC
:1034B000C3F88810D3F88810D3F89010C3F8902080
:1034C000D3F89010C3F89040D3F89010D3F894102C
:1034D000C3F89420D3F89410C3F89440D3F8941010
:1034E000D3F89810C3F89820D3F89810C3F89840F0
:1034F000D3F89810D3F88C10C3F88C20D3F88C1024
:10350000C3F88C40D3F88C10D3F89C10C3F89C20DF
:10351000D3F89C20C3F89C40D3F89C3000F0E0F92D
:10352000174B07229A60174ADA60174A1A61052278
:103530005A60164A536A43F480335362C2F8844097
:10354000BFF34F8FD2F8803043F6E074C3F3C90065
:10355000C3F34E335B0103EA0406014646EA817574
:103560000139C2F87452F9D2203B13F1200FF2D185
:10357000BFF34F8FBFF36F8F70BD00BF0044025881
:1035800090ED00E0000004301B00080300ED00E0B7
:103590000122574B57491A60574B19609A60574A96
:1035A000DA6000221A614FF440429A619A699004ED
:1035B000FCD51A6842F480721A60514B1A6F12F4EB
:1035C000407F04D04FF480321A6700221A671A68CD
:1035D00042F001021A604A4A134611684907FCD5B5
:1035E000002111611A6912F03802FBD10121196022
:1035F0004FF0804159605A67424ADA62424A1A6182
:103600001A6842F480321A603D4B1A689203FCD566
:103610003E4A3F499A6200225A631963A1F580210C
:10362000DA634B3999635A643A4A1A643A4ADA625D
:103630001A6842F0A8521A60314B1A6802F02852F8
:10364000B2F1285FF9D1482222219A614FF48862B1
:10365000DA6140221A624FF00052DA641A652F4A8A
:103660005A652F4A9A652F4A11601A6942F003027F
:103670001A61234B1A6902F03802182AFAD1D3F8DA
:10368000DC2042F00052C3F8DC20D3F8042142F0E1
:103690000052C3F80421D3F80421D3F8DC2042F00F
:1036A0008042C3F8DC20D3F8042142F08042C3F802
:1036B0000421D3F80421D3F8DC2042F00042C3F8FF
:1036C000DC20D3F8042142F00042C3F80421D3F8EF
:1036D0000421D3F8F42042F00202C3F8F420D3F816
:1036E0001C2142F00202C3F81C21D3F81C317047A0
:1036F0000881005100C000F000480258020000019B
:10370000004402580000FF01008890083230600039
:103710006302070147040508FD0BFF010010E000EC
:103720000001010000200052084A08B591681368A2
:103730000B4003F00103936023B1054A13680BB1FA
:1037400050689847BDE80840FFF70ABE800000585F
:10375000A8250020084A08B5916813680B4003F0BB
:103760000203936023B1054A93680BB1D068984770
:10377000BDE80840FFF7F4BD80000058A8250020F0
:10378000084A08B5916813680B4003F0040393607E
:1037900023B1054A13690BB150699847BDE8084049
:1037A000FFF7DEBD80000058A8250020084A08B5B4
:1037B000916813680B4003F00803936023B1054A36
:1037C00093690BB1D0699847BDE80840FFF7C8BDC1
:1037D00080000058A8250020084A08B591681368A1
:1037E0000B4003F01003936023B1054A136A0BB139
:1037F000506A9847BDE80840FFF7B2BD8000005806
:10380000A8250020174B10B59A681C68144004F4D2
:1038100078729A60A30604D5134A936A0BB1D06AF2
:103820009847600604D5104A136B0BB1506B98474C
:10383000210604D50C4A936B0BB1D06B9847E20577
:1038400004D5094A136C0BB1506C9847A30504D5F5
:10385000054A936C0BB1D06C9847BDE81040FFF758
:103860007FBD00BF80000058A82500201A4B10B56E
:103870009A681C68144004F47C429A60620504D57E
:10388000164A136D0BB1506D9847230504D5134AA2
:10389000936D0BB1D06D9847E00404D50F4A136EB9
:1038A0000BB1506E9847A10404D50C4A936E0BB12E
:1038B000D06E9847620404D5084A136F0BB1506F5D
:1038C0009847230404D5054A936F0BB1D06F9847EE
:1038D000BDE81040FFF744BD80000058A825002037
:1038E000062108B50846FFF7A1FA06210720FFF7D1
:1038F0009DFA06210820FFF799FA06210920FFF713
:1039000095FA06210A20FFF791FA06211720FFF702
:103910008DFA06212820BDE80840FFF787BA00008D
:1039200008B5FFF78BFDFDF791FBFDF741FDFDF7B6
:1039300017FCFFF703FDBDE80840FFF757BC000088
:1039400030B501390024A24201D1002005E0035D19
:1039500001340D5DAB42F6D0581B30BD034611F863
:10396000012B03F8012B002AF9D1704753544D3332
:103970003248373F3F3F0053544D3332483734339A
:103980002F3735330000000001105A000310590092
:10399000012058000320560000000000D510000848
:1039A000C1100008FD100008E9100008F51000081B
:1039B000E1100008CD100008B91000085D110008E2
:1039C0000000000001000000000000006D61696E51
:1039D0000000000069646C6500000000D439000834
:1039E000682600206028002001000000591A000805
:1039F000000000006D526F0025424F415244252DBA
:103A0000424C002553455249414C2500020000001C
:103A100000000000F912000869130008400040008F
:103A2000F82C0020082D00200200000000000000FB
:103A30000300000000000000AD13000800000000BB
:103A400010000000182D0020000000000100000000
:103A500000000000882F002001010200211E000844
:103A6000851D000871120008051E000843000000B3
:103A7000743A000809024300020100C03209040040
:103A800000010202010005240010010524010001CB
:103A9000042402020524060001070582030800FF32
:103AA00009040100020A00000007050102400000AD
:103AB000070581024000000012000000C03A000823
:103AC00012011001020000400912415700020102D8
:103AD000030100000403090425424F41524425001C
:103AE0006D526F436F6E74726F6C5A65726F4F4593
:103AF0004D4837003031323334353637383941426A
:103B0000434445460000000000000000091500087D
:103B1000D11700088518000840004000C030002080
:103B2000C030002001000000D030002080000000E4
:103B30004001000008000000000100000004000037
:103B4000080000000000802A00000000AAAAAAAA1B
:103B500000000000FFFF00000000000000A00A00BD
:103B60004400400000000000AAAAAAAA0000000029
:103B7000FFFF000000000000000000001000000037
:103B800000000000AAAAAAAA10000000FFFF00007F
:103B900000000000000000000040100000000000D5
:103BA000AAAA8AAA00401000FFFF0000000000003F
:103BB000000000000000004000000000AAAAAAAA1D
:103BC00000000040FFFF00000000000000000000B7
:103BD0000010100000000000AAAAAAAA00101000FD
:103BE000FFFF0000000000000000000000000400D3
:103BF00000000000AAAAAAAA00000400FFFF00001B
:103C000000000000000000000000000000000000B4
:103C1000AAAAAAAA00000000FFFF000000000000FE
:103C2000000000000000000000000000AAAAAAAAEC
:103C300000000000FFFF0000000000000000000086
:103C40000000000000000000AAAAAAAA00000000CC
:103C5000FFFF000000000000000000000000000066
:103C600000000000AAAAAAAA00000000FFFF0000AE
:103C70000000000000000000FF0000000000000045
:103C80006C3900083F00000050040000773900083C
:103C90003F00000000960000000008000400000043
:103CA000D43A0008000000000000000000000000FE
:0C3CB00000000000000000000000000008
:00000001FF
