:020000040800F2
:1000000000040020A102000871100008751000080B
:10001000C9100008751000089D100008A302000810
:10002000A3020008A3020008A3020008E9290008AF
:10003000A3020008A3020008A3020008A30200080C
:10004000A3020008A3020008A3020008A3020008FC
:10005000A3020008A3020008B13D0008DD3D00082E
:10006000093E0008353E0008613E0008A302000872
:10007000A3020008A3020008A3020008A3020008CC
:10008000A3020008A3020008A3020008A3020008BC
:10009000A3020008A3020008A30200088D3E000886
:1000A000A3020008A3020008A3020008A30200089C
:1000B000A3020008A3020008A3020008A30200088C
:1000C000A3020008A3020008A3020008A30200087C
:1000D000A3020008A3020008A3020008A30200086C
:1000E000F53E0008A3020008A3020008A3020008CE
:1000F000A3020008A3020008A3020008A30200084C
:10010000A3020008A3020008453A0008A302000861
:10011000A3020008A3020008A3020008A30200082B
:10012000A3020008A3020008A3020008A30200081B
:10013000A3020008A3020008A3020008A30200080B
:10014000A3020008A3020008A3020008A3020008FB
:10015000A3020008A3020008A3020008A3020008EB
:10016000A3020008A3020008A3020008A3020008DB
:10017000A3020008E9340008A3020008A302000853
:10018000A3020008A302000861110008A3020008EE
:10019000A3020008A3020008A3020008A3020008AB
:1001A000A3020008A3020008A3020008A30200089B
:1001B000A3020008A3020008A3020008A30200088B
:1001C000A3020008A3020008A3020008A30200087B
:1001D000A3020008D5340008A3020008A302000807
:1001E000A3020008A3020008A3020008A30200085B
:1001F000A3020008A3020008A3020008A30200084B
:10020000A3020008A3020008A3020008A30200083A
:10021000A3020008A3020008A3020008A30200082A
:10022000A3020008A3020008A3020008A30200081A
:10023000A3020008A3020008A3020008A30200080A
:10024000A3020008A3020008A3020008A3020008FA
:10025000A3020008A3020008A3020008A3020008EA
:10026000A3020008A3020008A3020008A3020008DA
:10027000A3020008A3020008A3020008A3020008CA
:10028000A3020008A3020008A3020008A3020008BA
:10029000A3020008A3020008A3020008A3020008AA
:1002A00002E000F000F8FEE772B6394880F30888F3
:1002B000384880F3098838484EF60851CEF20001DC
:1002C000086040F20000CCF200004EF63471CEF22D
:1002D00000010860BFF34F8FBFF36F8F40F2000043
:1002E000C0F2F0004EF68851CEF200010860BFF374
:1002F0004F8FBFF36F8F4FF00000E1EE100A4EF604
:100300003C71CEF200010860062080F31488BFF330
:100310006F8F02F0A7FB03F013FB4FF055301F491E
:100320001B4A91423CBF41F8040BFAE71C49194AA9
:1003300091423CBF41F8040BFAE71A491A4A1B4B99
:100340009A423EBF51F8040B42F8040BF8E7002034
:100350001749184A91423CBF41F8040BFAE702F0F2
:10036000BFFB03F061FB144C144DAC4203DA54F8AC
:10037000041B8847F9E700F03FF8114C114DAC42DF
:1003800003DA54F8041B8847F9E702F0A7BB000022
:1003900000040020002400200000000800000020CD
:1003A00000040020484300080024002044240020CA
:1003B0004824002060350020A0020008A0020008A8
:1003C000A0020008A00200082DE9F04F2DED108AD0
:1003D000C1F80CD0D0F80CD0BDEC108ABDE8F08F7D
:1003E000002383F311882846A047002001F05CFF1A
:1003F00001F08CFE00DFFEE738B5204C6FF00603FD
:10040000002523700323A57063701E23E5702571FA
:100410006571A571E57125726572A372E57200F0D0
:10042000F3FC20B10E2325726572A372E57202F00F
:100430009FFA054602F0D2FA0446D0B9104B9D420D
:1004400019D001339D4241F2883512BF0446002580
:100450000124002002F096FA0CB100F059F800F0E7
:10046000ADFD00F019FC284600F008F900F050F846
:10047000F9E70025EDE70546EBE700BF482400203B
:10048000010007B008B500F071FBA0F1200358424D
:10049000584108BD07B541F21203022101A8ADF889
:1004A000043000F0E3FB03B05DF804FB202310B53B
:1004B00083F311881248C3680BB101F07BFF00235E
:1004C000104A4FF47A710E4801F038FF002383F38D
:1004D00011880D4C236813B12368013B23606368C6
:1004E00013B16368013B6360084B1B7833B96368E1
:1004F00023B9022000F0CCFC3223636010BD00BFA2
:1005000054240020AD040008702500206824002039
:10051000F8B5514A514B1968013100F09B80043302
:100520009342F8D14E4C4F4B22689A4240F292804F
:100530004D4B9B6803F1006303F500339A4280F052
:100540008980002000F0C2FB0220484B187000F0A8
:1005500091FC474BD3F8E8200022C3F8E820D3F8F9
:100560001011C3F81021D3F81011D3F8EC10C3F810
:10057000EC20D3F81411C3F81421D3F81411D3F8D4
:10058000F010C3F8F020D3F81811C3F81821D3F8ED
:100590001811D3F8801041F00061C3F88010D3F82F
:1005A000801021F00061C3F88010D3F88010D3F8D8
:1005B000801041F00071C3F88010D3F8801021F052
:1005C0000071C3F88010D3F8803072B6234B2949EC
:1005D0000B6018682468BFF34F8FBFF36F8F264BF3
:1005E000C3F88420BFF34F8F5A6922F480325A61D6
:1005F000BFF34F8FD3F8802043F6E076C2F3C905EE
:10060000C2F34E32520102EA060C29464CEA8177C7
:100610000139C3F87472F9D2203A12F1200FF2D1E5
:10062000BFF34F8FBFF36F8FBFF34F8FBFF36F8F4A
:100630005A6922F400325A610022C3F85022BFF3F3
:100640004F8FBFF36F8F202383F31188854680F38C
:1006500008882047F8BD00BF2000020800000208FB
:1006600004000208FFFF010848240020682400203D
:100670000044025808ED00E000ED00E02DE9F04FE5
:1006800095B0B44C2022FF2101900CA8A76800F07F
:100690003BFCB14A02941378A3B90121AF48117011
:1006A000C360202383F31188C3680BB101F082FE7D
:1006B0000023AB4A4FF47A71A84801F03FFE0023B3
:1006C00083F31188019B13B1A64B019A1A60002392
:1006D000A54A019E13709946A24A1D461C4698469B
:1006E000DFF890B25360012000F0C4FB26B19D4BAF
:1006F0001B68002B00F00182002000F037FA059003
:10070000059B002BF2DB012000F0A4FB059B213BA5
:10071000122BE8D801A252F823F000BF69070008A5
:1007200091070008FF070008E7060008E706000831
:10073000E706000893080008670A0008790900081E
:10074000E30900080B0A0008310A0008E706000860
:10075000430A0008E7060008B90A000881080008F3
:10076000E7060008010B00080220FFF78BFE0028B7
:1007700040F0ED81019BB9F1000F08BF1E4641F228
:100780001233022107A8ADF81C3000F06FFAAAE777
:100790004FF47A7000F0EAF9031E0393EADB0220BB
:1007A000FFF770FE82460028E4D0039B581E042801
:1007B00000F2CF81DFE800F0030D101316000523CF
:1007C000042107A8079300F051FA55464FF000089E
:1007D00056E004215F48F6E704216448F3E704216A
:1007E0006348F0E71C252846043500F071FA04211F
:1007F000079007A800F03AFA2C2DF4D1E5E7002C79
:10080000B8D0002DB6D00220FFF73CFE04460028E9
:1008100000F0A2810120002500F058FA0220524B7E
:10082000187000F027FB5FFA85F9484600F05EFA81
:10083000064658B14846013500F068FA0028F2D162
:100840002546A146064641F212139AE70123464A7D
:1008500037460220137000F0FDFA029B9B68BB42F2
:1008600007D9384600F034FA013040F07781043778
:10087000F3E700273C4BA14625461F70394B5F60CC
:1008800000F092FB14B1002D18BF0026FFF702FE06
:1008900029E7002C3FF46EAF002D3FF46BAF022030
:1008A000314B187000F0E6FA322000F05FF9B0F139
:1008B000000AC0F251811AF0030440F04D81029AFF
:1008C0000AEB07039268934200F24681BAF5807FF3
:1008D00000F34281274BA24503930EDD4FF47A705B
:1008E00000F044F90590059A002AC0F23581059A76
:1008F0000134039B03F8012BEDE7C820FFF7C2FD8D
:100900000446002800F028811F2F11D8C7F12002CB
:100910000CAB27F0030059465245184428BF5246F5
:10092000039200F0C7FA039AFF21584600F0ECFA50
:100930004FEAAA03CAF3870259463846039300F0E8
:10094000EBFA0546002800F00C81039B044607EBF8
:10095000830795E7482400206C25002054240020BC
:10096000AD04000870250020682400204C240020DD
:10097000502400206C2400200220FFF783FD002873
:100980003FF4F8AE00F0DCF900283FF4F3AE4FF08E
:10099000000A5346029A926852451CD9BAF11F0FB9
:1009A00012D80C9A01320FD02AF0030214A90A447B
:1009B00052F8202C07921846042207A90AF1040ACB
:1009C00000F096FB0346E5E75046039300F080F9FC
:1009D000039B0790EFE70793042107A800F046F96F
:1009E0004EE70023642106A8069300F001F90028D1
:1009F0007FF4C0AE0220FFF745FD00283FF4BAAEF9
:100A0000069800F095F90790E6E70023642106A810
:100A1000069300F0EDF800287FF4ACAE0220FFF75B
:100A200031FD00283FF4A6AE069800F083F9EAE70E
:100A30000220FFF727FD00283FF49CAE00F090F95C
:100A4000E1E70220FFF71EFD00283FF493AE07A95F
:100A5000142000F08BF982460421069006A800F0CD
:100A600005F95146B9E7322000F080F8B0F1000AEC
:100A7000FFF680AE1AF0030F7FF47CAE029A0AEB09
:100A80000803926893423FF675AE0220FFF7FAFC26
:100A900000283FF46FAE2AF0030AC244D0453FF469
:100AA000EFAE404608F1040800F012F90421079067
:100AB00007A800F0DBF8F1E74FF47A70FFF7E2FCEB
:100AC00000283FF457AE00F03BF900283FF4BBAEDE
:100AD0000C9B01330CD008220CA9002000F01CFA5A
:100AE00000283FF4B0AE2022FF210CA800F00CFA41
:100AF000FFF7D0FC1C4801F0DDFB15B0BDE8F08F1E
:100B0000002C3FF437AE002D3FF434AE00236421B7
:100B100007A8079300F06CF8824600287FF42AAEFD
:100B20000220FFF7AFFC039000283FF423AEFFF74D
:100B3000B1FC41F2883001F0BDFB079800F078FA73
:100B4000564600F031FA039B1D461C46CBE5044691
:100B500096E64FF000080DE62C460BE62546A1462A
:100B600071E625466FE600BFA08601002DE9F74338
:100B70001B4E002396F900208DF807304FF47A734E
:100B8000511CA0FB03890BD1164801220DF107016E
:100B900003681F6A4346B847012803D1002011E0CB
:100BA000002AF1D096F900305A1C01D0012B10D147
:100BB0000D4801220DF1070103681D6A4346A8474D
:100BC000012806D1094B18709DF8070003B0BDE855
:100BD000F0834FF4FA7001F06DFB4FF0FF30F5E752
:100BE00000240020E82C002040260020BC25002006
:100BF0002DE9F0414FF47A73184D0446A1FB0367C9
:100C000095F90030591C0BD1154804222146036880
:100C1000D3F820803346C047042803D1002311E0D5
:100C2000002BF1D095F900305A1C01D0012B0ED1C8
:100C30000C480422214603681D6A3346A84704284D
:100C400005D10123084A00201370BDE8F0814FF45C
:100C5000FA7001F02FFB4FF0FF30F6E70024002080
:100C6000E82C002040260020BC250020074B0A4627
:100C700030B41978064B53F82140014623682046CA
:100C8000DD69044BAC4630BC604700BFBC2500208A
:100C900024400008A086010070B50A4C00250A4EC9
:100CA00001F054FD207030682378834208D901F0A8
:100CB00049FD336805440133B5F5003F3360F2D395
:100CC00070BD00BFBD2500207825002001F006BEC4
:100CD00000F1006000F500300068704700F100602E
:100CE000920000F5003001F08DBD0000054B1A6840
:100CF000054B1B789B1A834202D9104401F022BD98
:100D00000020704778250020BD25002038B5074D0C
:100D100004462868204401F01BFD28B928682044B7
:100D2000BDE8384001F026BD38BD00BF7825002061
:100D300000207047014BC058704700BF00E8F11F0A
:100D4000064991F8243033B100230822086A81F85B
:100D50002430FFF7C3BF0120704700BF7C2500206F
:100D6000014B1868704700BF0010005C244B254AF7
:100D7000F0B51B6804461788C3F30B0056681B0CBC
:100D800092F90850B84228D09789B84206D101207C
:100D90000C2505FB0022566892F9085041F2010229
:100DA00093421CD041F2030293421AD042F2010254
:100DB000934218D042F20302934208BF5625621EA6
:100DC0000B46741E0A4493420FD214F9016F581C4B
:100DD0006EB1034600F8016CF5E70020D8E75A250C
:100DE000EDE75925EBE75825E9E7184605E02C24FF
:100DF00090421C7001D2981C5D70401AF0BD00BF7B
:100E00000010005C04240020104B41F201015A88BC
:100E10008A42134611D041F203018A420FD042F2B6
:100E2000010293420DD042F2030293420BD10323FD
:100E3000074A02EB8303D87870470023F8E70123C1
:100E4000F6E70223F4E70020704700BF0010005CC3
:100E500014400008022804D1054B4FF000629A614B
:100E600070470128FCD1024B4FF40032F7E700BF76
:100E700000040258022804D1044B4FF400629A6126
:100E800070470128FCD1014B0222F8E70004025808
:100E9000022805D1064A536983F400635361704701
:100EA0000128FCD1024A536983F00203F6E700BF30
:100EB00000040258002310B5934203D0CC5CC45404
:100EC0000133F9E710BD0000013830B510F9013FDA
:100ED0000C4663B194F9005001319D4207D1551E73
:100EE0001AB994F90020981A30BD2A46EEE7002A74
:100EF000F7D11046F8E7000003460246D01A12F96F
:100F0000011B0029FAD1704702440346934202D0E4
:100F100003F8011BFAE770472DE9F843214C154609
:100F200006460F4694F8242072BBDFF87880BDB3E4
:100F300094F824302BB92022FF2140462662FFF787
:100F4000E3FF94F824003946C0F1080204EB800066
:100F5000AA4228BF2A465FFA82F99200FFF7AAFF49
:100F600094F82430A5EB0905164499441744EDB2D2
:100F70005FFA89F9B9F1080F84F82490D7D1FFF707
:100F8000DFFE0028D3D108E0236A03EB820383420B
:100F9000CBD0FFF7D5FE0028C7D10020BDE8F883ED
:100FA0000120FBE77C250020024B1A78024B1A70C7
:100FB000704700BFBC2500200024002038B5164C27
:100FC000164D204600F02AFC2946204600F052FC2F
:100FD0002D681348D5F89020D2F8043843F0020366
:100FE000C2F8043801F066F90E49284600F04EFDBB
:100FF000D5F890200C48D2F804380C49A04223F0D0
:101000000203C2F804384FF4E1330B6003D0BDE8AB
:10101000384000F05FBB38BDE82C002028410008B4
:1010200040420F003041000840260020A425002047
:1010300038B50B4B04461A780A4B53F822500A4B2A
:101040009D420CD0094B002118221846FFF75CFF87
:10105000046001462846BDE8384000F03BBB38BD7F
:10106000BC25002024400008E82C0020A4250020F6
:10107000FEE7000000B59BB0EFF3098168226846E7
:10108000FFF718FFEFF30583034B9A6B9A6A9A6A8E
:101090009A6A9A6A9B6AFEE700ED00E000B59BB091
:1010A000EFF3098168226846FFF704FFEFF3058339
:1010B000044B9A6B9A6A9A6A9A6A9A6A9A6A9B6AC3
:1010C000FEE700BF00ED00E000B59BB0EFF3098143
:1010D00068226846FFF7EEFEEFF30583034B5A6B79
:1010E0009A6A9A6A9A6A9A6A9B6AFEE700ED00E039
:1010F00030B50A44084D91420DD011F8013B5840DB
:10110000082340F30004013B2C4013F0FF0384EA62
:101110005000F6D1EFE730BD2083B8ED0023054A3B
:1011200019460133102BC2E9001102F10802F8D16F
:10113000704700BFC0250020024A136843F0C00377
:101140001360704700780040044B5A6810439A6857
:1011500058600AB1181D1047704700BF4026002094
:101160002DE9F84F404EF56D2F68EC6921072C6290
:1011700018D014F0080018BF8020E20748BF40F0E4
:101180002000A3074FF0200348BF40F04000610754
:1011900048BF40F4807083F31188FFF7D5FF002328
:1011A00083F31188E20509D5202383F311884FF4D6
:1011B0000070FFF7C9FF002383F311884FF0200967
:1011C000DFF8A4A04FF0000B14F0200838D13B0644
:1011D00015D54FF02009DFF894A020060FD589F32C
:1011E0001188504600F0EAF9002836DA0820FFF7A7
:1011F000ABFF27F080032B60002383F3118879066F
:1012000013D5620611D5202383F31188D6E9132361
:101210009A4207D1336C2BB127F040071020FFF71B
:1012200093FF2F60002383F31188E30604D5B26E89
:1012300013690BB150699847BDE8F84F01F0E4BB62
:1012400089F31188AB8C504696F86410194000F071
:101250004FFA8BF31188EC69B6E780B2288588F3E2
:101260001188EC69B9E700BF4026002078260020ED
:1012700013B5104C204600F021FA04F114000023AD
:101280004FF400720C49009400F0E2F804F13800C9
:101290000A4B4FF400720A49009400F05BF9094AC6
:1012A000094B0C215220C4E9172302B0BDE81040BD
:1012B00000F05EB840260020AC260020391100085E
:1012C000AC2800200078004000E1F505254B0029FE
:1012D00008BF1946037C012B816630B511D1224B22
:1012E00098420ED1214BD3F8E82042F08042C3F857
:1012F000E820D3F8102142F08042C3F81021D3F83F
:1013000010310A68036EC46D03EB5203B3FBF2F3B2
:101310004A68150442BF23F0070503F0070343EAB8
:101320004503E3608B6843F040036360CB6851057D
:1013300043F00103A36042F4967343F0010323607A
:101340004FF0FF33236205D512F0102205D0B2F121
:10135000805F04D080F8643030BD7F23FAE73F23FC
:10136000F8E700BF2C400008402600200044025847
:10137000090100F16043012203F56143C9B283F81A
:10138000001300F01F039A4043099B0003F16043E0
:1013900003F56143C3F880211A607047F8B515461C
:1013A000826804460B46AA4200D28568A169266974
:1013B000761AB5420BD218462A46FFF77BFDA36981
:1013C0002B44A3612846A3685B1BA360F8BD0CD91E
:1013D000AF1B18463246FFF76DFD3A46E1683044D0
:1013E000FFF768FDE3683B44EBE718462A46FFF742
:1013F00061FDE368E5E7000083689342F7B50446C2
:10140000154600D28568D4E90460361AB5420BD27D
:101410002A46FFF74FFD63692B4463612846A368A2
:101420005B1BA36003B0F0BD0DD93246AF1B019129
:10143000FFF740FD01993A46E0683144FFF73AFD75
:10144000E3683B44E9E72A46FFF734FDE368E4E755
:1014500010B50A440024C361029B8460C16002612C
:101460000362C0E90000C0E9051110BD08B5D0E96C
:101470000532934201D1826882B98268013282606A
:101480005A1C426119700021D0E904329A4224BFEB
:10149000C368436100F02AFF002008BD4FF0FF3011
:1014A000FBE7000070B5202304460E4683F3118845
:1014B000A568A5B1A368A269013BA360531CA36101
:1014C00015782269934224BFE368A361E3690BB1F5
:1014D00020469847002383F31188284607E03146C9
:1014E000204600F0F3FE0028E2DA85F3118870BD93
:1014F0002DE9F74F04460E4617469946D0F81CA032
:101500004FF0200888F311884FF0000B154665B1A5
:101510002A4631462046FFF741FF034660B9494657
:10152000204600F0D3FE0028F1D0002383F3118879
:10153000781B03B0BDE8F08FBAF1000F03D0019023
:101540002046D047019B8BF31188ED1A1E4488F387
:101550001188DCE782600A44C361009BC1600261BC
:101560000362C0E90000C0E905117047F8B5044600
:101570000D461646202383F31188A768A7B1A368F8
:10158000013BA36063695A1C62611D70D4E9043297
:101590009A4224BFE3686361E3690BB12046984730
:1015A000002080F3118807E03146204600F08EFECF
:1015B0000028E2DA87F31188F8BD0000D0E905239E
:1015C00010B59A4201D182687AB98268002101324D
:1015D00082605A1C82611C7803699A4224BFC368E6
:1015E000836100F083FE204610BD4FF0FF30FBE723
:1015F0002DE9F74F04460E4617469946D0F81CA031
:101600004FF0200888F311884FF0000B154665B1A4
:101610002A4631462046FFF7EFFE034660B94946A9
:10162000204600F053FE0028F1D0002383F31188F8
:10163000781B03B0BDE8F08FBAF1000F03D0019022
:101640002046D047019B8BF31188ED1A1E4488F386
:101650001188DCE7026843681143016003B1184751
:10166000704700001430FFF743BF00004FF0FF3316
:101670001430FFF73DBF00003830FFF7B9BF00005E
:101680004FF0FF333830FFF7B3BF00001430FFF7DF
:1016900009BF00004FF0FF311430FFF703BF000017
:1016A0003830FFF763BF00004FF0FF323830FFF7EC
:1016B0005DBF000000207047FFF7DABD044B0360F8
:1016C00000234360C0E9023301230374704700BF65
:1016D0004440000810B52023044683F31188FFF727
:1016E000F5FD02232374002383F3118810BD00004D
:1016F00038B5C36904460D461BB904210844FFF7F9
:10170000A9FF294604F11400FFF7B0FE002806DA0D
:10171000201D4FF48061BDE83840FFF79BBF38BD06
:10172000026843681143016003B118477047000025
:1017300013B5446BD4F894341A681178042915D180
:10174000217C022912D11979012312898B4013427D
:101750000CD101A904F14C0001F0F8FFD4F8944435
:101760000246019B2179206800F0E4F902B010BD27
:10177000143001F07BBF00004FF0FF33143001F054
:1017800075BF00004C3002F04DB800004FF0FF3341
:101790004C3002F047B80000143001F049BF00009F
:1017A0004FF0FF31143001F043BF00004C3002F025
:1017B00019B800004FF0FF324C3002F013B80000AF
:1017C00038B5D0F8943405461A681178042901D048
:1017D000012038BD017C0229FAD118790123834008
:1017E000508913EA0004F3D105F1140001F0DAFE88
:1017F00002460028ECD0D5F894544FF48073286842
:10180000697900F085F92046E3E70000406BFFF7B7
:10181000D7BF000000207047704700007FB5124B13
:1018200001250226044603600023057400F18402AA
:1018300043602946C0E902330C4B029014300193F7
:101840004FF48073009601F089FE094B04F5237272
:10185000294604F14C000294CDE900634FF48073F3
:1018600001F050FF04B070BD6C4000080D18000876
:10187000311700080A68202383F311880B790B3392
:1018800042F823004B79133342F823008B7913B1CC
:101890000B3342F823000223C0F89414037400238E
:1018A00083F311887047000038B5037F044613B1F5
:1018B00090F85430ABB90125201D0221FFF730FF0D
:1018C00004F114006FF00101257700F01BFD04F115
:1018D0004C0084F854506FF00101BDE8384000F02E
:1018E00011BD38BD10B5012104460430FFF718FFC3
:1018F0000023237784F8543010BD000038B5044627
:101900000025143001F042FE04F14C00257701F06F
:1019100011FF201D84F854500121FFF701FF2046DC
:10192000BDE83840FFF74CBF90F8803003F060030B
:10193000202B06D190F881200023212A03D81F2ACA
:1019400006D800207047222AFBD1C0E91D3303E0EE
:10195000034A426707228267C3670120704700BFBE
:101960001C240020D0F8943437B51A680446117846
:1019700004291AD1017C022917D11979012312896E
:101980008B40134211D100F14C05284601F092FF23
:1019900058B101A9284601F0D9FED4F89444024672
:1019A000019B2179206800F0C5F803B030BD00002C
:1019B00001F10B03F0B550F8236085B004460D46E5
:1019C000FEB1202383F3118804EB8507301D082125
:1019D000FFF7A6FEFB6806F14C005B691B681BB1B4
:1019E000019001F0C1FE019803A901F0AFFE02468B
:1019F00048B1039B2946204600F09CF8002383F35E
:101A0000118805B0F0BDFB685A691268002AF5D04C
:101A10001B8A013B1340F1D104F18002EAE7000088
:101A2000133138B550F82140DCB1202383F31188FD
:101A3000D4F894241368527903EB8203DB689B6922
:101A40005D6845B104216018FFF76AFE294604F17C
:101A5000140001F0B1FD2046FFF7B2FE002383F32E
:101A6000118838BD7047000001F0BAB8012300F1B9
:101A7000300200F1500103700023436042F8043B40
:101A80008A42D361FAD183607047000038B50446BA
:101A9000202383F31188002500F10C0300F13002AC
:101AA000416043F8045B9342FBD1204601F0BAF851
:101AB0000223237085F3118838BD000070B500EB58
:101AC0008103054650690E461446DA6018B11022AB
:101AD0000021FFF719FAA06918B110220021FFF7C1
:101AE00013FA31462846BDE8704001F0ADB9000058
:101AF000826802F0011282600022C0E90422C0E97B
:101B00000622C0E90822C0E90A2201F02DBA00002D
:101B1000F0B4012500EB810447898D40E4683D4322
:101B2000A469458123600023A2606360F0BC01F0DA
:101B300049BA0000F0B4012500EB810407898D400B
:101B4000E4683D436469058123600023A26063600B
:101B5000F0BC01F0BFBA0000022300F10C0200F15A
:101B6000300110B5037004460023C0F8883083604C
:101B700042F8043B8A42FBD184F87030204601F0E1
:101B8000F7F863681B6823B120460021BDE81040C8
:101B9000184710BD0278436880F88C200522027037
:101BA0001B680BB1042118477047000090F88C2087
:101BB000436802701B680BB105211847704700008D
:101BC00070B590F87030044613B1002380F870307F
:101BD00004F18002204601F0EBF963689B68B3B919
:101BE00094F8803013F0600539D00021204601F0D0
:101BF00091FC0021204601F081FC63681B6813B151
:101C0000062120469847062384F8703070BD204690
:101C100098470028E4D094F8872094F8863043EA67
:101C20000223A26F9A4288BFA36794F98030A56F00
:101C3000002B4FF0200380F20881002D00F0F78088
:101C4000092284F8702083F3118800212046D4E90A
:101C50001D23FFF76FFF002383F31188D6E794F865
:101C6000812003F07F0343EA022340F202329342D1
:101C700000F0CA8021D8B3F5807F4DD00DD8012B5C
:101C800044D0022B00F09880002BAED104F18802E2
:101C900062670222A267E367BDE7B3F5817F00F0C8
:101CA000A080B3F5407FA0D194F88230012B9CD165
:101CB000B4F8883043F0020337E0B3F5006F52D038
:101CC0001CD8B3F5A06F36D0A3F5C063012B8CD818
:101CD00094F885202046616894F884304E6843EA81
:101CE000022394F8831094F88220B04700283FF430
:101CF0007CAF436863670368A3671AE0B3F5106FAE
:101D000036D040F6024293427FF46FAF5B4B63677D
:101D10000223A3670023BEE794F88230012B7FF4EF
:101D200064AFB4F8883023F00203A4F88830C4E923
:101D30001D55E5676FE7B4F88030B3F5A06F0ED19D
:101D400094F88230204684F88A3001F06FF8636896
:101D50001B6813B1012120469847032323700023F9
:101D6000C4E91D3397E704F18B0363670123C3E7DD
:101D70002378042B10D1202383F311882046FFF70A
:101D8000B7FE85F311880321636884F88B502170B6
:101D90001B680BB12046984794F88230002BDED0A8
:101DA00084F88B300423237063681B68002BD6D023
:101DB000022120469847D2E794F8843020461D0639
:101DC00003F00F010AD501F0E5F8012804D002283C
:101DD0007FF40BAF2A4B9AE72A4B98E701F0CCF837
:101DE000F3E794F88230002B7FF4FFAE94F8843050
:101DF00013F00F01B3D01A06204602D501F0A2FB62
:101E0000ADE701F093FBAAE794F88230002B7FF452
:101E1000ECAE94F8843013F00F01A0D01B062046DE
:101E200002D501F077FB9AE701F068FB97E71422EF
:101E300084F8702083F311882B462A4629462046D1
:101E4000FFF766FE85F31188E0E65DB1152284F8A0
:101E5000702083F3118800212046D4E91D23FFF769
:101E600057FEF8E60B2284F8702083F311882B4686
:101E70002A4629462046FFF75DFEE3E79C4000081E
:101E8000944000089840000838B590F87030044637
:101E9000002B42D0063BDAB20F2A38D80F2B36D8A7
:101EA000DFE803F03B353508263635353535353531
:101EB00035353B3B90F8871090F88620836F42EAD7
:101EC0000122934214D2C268128AB3FBF2F502FBDC
:101ED00015356DB9202383F311882B462A462946F0
:101EE000FFF728FE85F311880A2384F870300EE08E
:101EF000142384F87030202383F3118800232046B4
:101F00001A461946FFF704FE002383F3118838BDF3
:101F1000C36F03B198470023E7E70021204601F093
:101F2000F9FA0021204601F0E9FA63681B6813B151
:101F30000621204698470623D7E7000010B590F801
:101F400070300446142B29D017D8062B05D001D8A1
:101F50001BB110BD093B022BFBD80021204601F02C
:101F6000D9FA0021204601F0C9FA63681B6813B151
:101F7000062120469847062319E0152BE9D10B23AB
:101F800080F87030202383F3118800231A46194605
:101F9000FFF7D0FD002383F31188DAE7C3689B695C
:101FA0005B68002BD5D1C36F03B19847002384F839
:101FB0007030CEE7024B0022C3E900339A607047CD
:101FC000AC2A0020002382680374054B1B689968C3
:101FD0009142FBD25A6803604260106058607047BB
:101FE000AC2A002008B5202383F31188037C032B3F
:101FF00005D0042B0DD02BB983F3118808BD43699C
:1020000000221A604FF0FF334361FFF7DBFF00232C
:10201000F2E7D0E9003213605A60F3E700238268E8
:102020000374054B1B6899689142FBD85A6803609A
:102030004260106058607047AC2A0020054B196957
:1020400008741868026853601A60186101230374E9
:10205000FEF7BAB9AC2A00204B1C30B5044687B055
:102060000A4D10D02B6901A8094A00F067F92046F3
:10207000FFF7E4FF049B13B101A800F09BF92B6963
:10208000586907B030BDFFF7D9FFF8E7AC2A002048
:10209000E51F000838B50C4D044641612B69816885
:1020A0009A68914203D8BDE83840FFF78BBF1846C5
:1020B000FFF788FF01232C61014623742046BDE809
:1020C0003840FEF781B900BFAC2A0020044B1A68E3
:1020D0001B6990689B68984294BF0020012070475C
:1020E000AC2A002010B5084C236820691A68546097
:1020F0002260012223611A74FFF790FF01462069D4
:10210000BDE81040FEF760B9AC2A0020FFF7EABF37
:10211000FEE7000010B5194CFFF74CFF00F000F986
:1021200080221749204600F087F8012344F8180C54
:102130000374144B144AD96821F4E0610904090CB2
:102140000A431249DA60CA6842F08072CA60104AD3
:102150001049C2F8B01F116841F00101116010224E
:10216000DA77202283F82220002383F3118862B6D5
:102170000948BDE8104000F07FB800BFD42A002015
:10218000A040000800ED00E00003FA05F0ED00E0DB
:10219000001000E055CEACC5B04000082DE9F84F66
:1021A0001E4C0027DFF87880656904F11409D8F81F
:1021B0002420236AA968D61A8E421CD34FF0200A25
:1021C000AA68236AD5F80CB0B61A134423622B68A8
:1021D0004B45C3F804906361EF6001D101F094FBBB
:1021E00087F311882869D8478AF311886569AB6835
:1021F0009E42E5D2DBE7616949450DD088682262DD
:1022000003449B1A8B60A868BDE8F84F02282CBFD6
:102210001018901C01F07EBBBDE8F88FAC2A00209E
:10222000000C0040034B59685A68521A9042FBD880
:10223000704700BF001000E08260022202827047F7
:102240008368A3F17C0243F80C2C026943F83C2C10
:10225000426943F8382C074A43F81C2CC268A3F1A2
:10226000180043F8102C022203F8082C002203F86F
:10227000072C7047E103000810B5202383F3118871
:10228000FFF7DEFF00210446FFF704FF002383F37E
:102290001188204610BD0000024B1B6958610F20B9
:1022A000FFF7CCBEAC2A0020202383F31188FFF770
:1022B000F3BF000008B50146202383F311880820EE
:1022C000FFF7CAFE002383F3118808BD49B1064B0E
:1022D00042681B6918605A60136043600420FFF76E
:1022E000BBBE4FF0FF307047AC2A00200368984215
:1022F00006D01A680260506018465961FFF762BE46
:102300007047000038B504460D462068844200D16D
:1023100038BD036823605C604561FFF753FEF4E756
:10232000054B4FF0FF3103F11402C3E905220022EF
:10233000C3E90712704700BFAC2A0020F8B5C0E916
:1023400003231A4B022906465C6A38BF0221184B48
:102350001A461F4652F8145F95420AD1C3E9050098
:102360001C628160C0E900550819BDE8F84001F021
:10237000C1BA186AAB68241A0C1902D3E41A2D6882
:1023800004E0A34202D9204401F0C4FAAB68A3429E
:10239000F4D36B68356073601E606E60B460AB68C8
:1023A0001C1B4FF0FF33AC60FB61F8BD000C00401C
:1023B000AC2A00201A4902680B4610B453F8144F97
:1023C00084420FD041680A60026851609A424FF01F
:1023D0000001C16003D0936881680B4493605DF88D
:1023E000044B704700209A424A615360E06003D179
:1023F0005DF8044B01F088BA9368A0680344086A4A
:102400009360084A526A111A8B42E8D9821A5DF821
:10241000044B1A44012A98BF8B1C184401F07ABA65
:10242000AC2A0020000C004000207047FEE70000AE
:10243000704700004FF0FF307047000002290CD0B9
:10244000032904D00129074818BF00207047032A38
:1024500005D8054800EBC2007047044870470020CB
:10246000704700BF8C410008242400204041000830
:1024700070B59AB005460846144601AE314600F0E4
:1024800097F83046FEF738FD431CC1B25B00C5E942
:10249000003423700323023404F8013C002318465F
:1024A000DAB20234914201D81AB070BDF25C013345
:1024B00004F8010C04F8022CF2E7000008B5202310
:1024C00083F311880348FFF74DFA002383F3118843
:1024D00008BD00BFE82C002007B5052917D8DFE8A4
:1024E00001F0191603191920202383F31188104ACB
:1024F00001210190FFF7E2FA019802210D4AFFF74E
:10250000DDFA0D48FFF7FAF9002383F3118803B0D1
:102510005DF804FB202383F311880748FFF7C4F913
:10252000F2E7202383F311880348FFF7DBF9EBE799
:10253000E040000804410008E82C002038B50C4DAC
:102540000C4C2A460C4904F10800FFF791FF05F1F5
:10255000CA0204F110000949FFF78AFF05F5CA72A3
:1025600004F118000649BDE83840FFF781BF00BFFD
:10257000B031002024240020C8400008CC400008CE
:10258000D740000870B5044608460D46FEF7B4FC77
:10259000C6B22046013403780BB9184670BD3246E6
:1025A0002946FEF791FC0028F3D10120F6E7000050
:1025B0002DE9F04705460C46FEF79EFC2B49C6B2B6
:1025C0002846FFF7DFFF08B10736F6B2284928464C
:1025D000FFF7D8FF08B11036F6B2632E0BD8DFF83C
:1025E0008C80DFF88C90234FDFF894A02E7846B9CA
:1025F0002670BDE8F08729462046BDE8F04701F087
:10260000F3BC252E2ED1072241462846FEF75CFC5E
:1026100070B9194B224603F10C0153F8040B8B429D
:1026200042F8040BF9D11B8807350E341380DDE71F
:10263000082249462846FEF747FC98B9A21C0F4BD2
:10264000197802320909C95D02F8041C13F8011B4C
:1026500001F00F015345C95D02F8031CF0D1183495
:102660000835C3E7013504F8016BBFE7AC4100084A
:10267000D7400008C3410008B441000800E8F11F3A
:102680000CE8F11FBFF34F8F044B1A695107FCD1BF
:10269000D3F810215207F8D1704700BF0020005234
:1026A00008B50D4B1B78ABB9FFF7ECFF0B4BDA68A5
:1026B000D10704D50A4A5A6002F188325A60D3F829
:1026C0000C21D20706D5064AC3F8042102F188324C
:1026D000C3F8042108BD00BF0E34002000200052C2
:1026E0002301674508B5114B1B78F3B9104B1A69E4
:1026F000510703D5DA6842F04002DA60D3F81021BE
:10270000520705D5D3F80C2142F04002C3F80C2142
:10271000FFF7B8FF064BDA6842F00102DA60D3F83F
:102720000C2142F00102C3F80C2108BD0E34002038
:10273000002000520F289ABF00F58060400400205E
:10274000704700004FF400307047000010207047C1
:102750000F2808B50BD8FFF7EDFF00F5003302682E
:10276000013204D104308342F9D1012008BD002098
:10277000FCE700000F2838B505463FD8FFF782FF79
:102780001F4CFFF78DFF4FF0FF3307286361C4F83C
:1027900014311DD82361FFF775FF030243F02403B2
:1027A000E360E36843F08003E36023695A07FCD4E5
:1027B000FFF768FF2846FFF7BDFF4FF4003100F038
:1027C000EFF8FFF78FFF2846BDE83840FFF7C0BF9E
:1027D000C4F81031FFF756FFA0F108031B0243F0C5
:1027E0002403C4F80C31D4F80C3143F08003C4F84E
:1027F0000C31D4F810315B07FBD4D9E7002038BD89
:10280000002000522DE9F84F05460C46104645EAD7
:102810000203DB0652D1FFF743FF20F01F00DFF871
:10282000B4A004EB0008DFF8B0B0444504D1FFF7D2
:1028300059FF0120BDE8F88F20222146284601F0EB
:10284000C5FB00283CD005F178431F481F4EB3F567
:10285000801F1F4B38BF994603F1FC0332BF584617
:10286000D1461E46FFF70EFF4FF0FF33A5EB040CD9
:1028700004F11C010360336843F002033360231F3B
:10288000D9F8007017F00507FAD153F8042F9942D0
:102890004CF80320F4D1BFF34F8FFFF7F3FE4FF056
:1028A000FF332022214603602846336823F00203C9
:1028B000336001F08BFB18B1FFF714FF0020B9E77C
:1028C00020352034B1E700BF142100520C20005203
:1028D00010200052102100521420005210B5084C54
:1028E000237828B11BB9FFF7DBFE0123237010BD4D
:1028F000002BFCD02070BDE81040FFF7F3BE00BFF6
:102900000E3400200244074BD2B210B5904200D1E1
:1029100010BD441C00B253F8200041F8040BE0B293
:10292000F4E700BF504000580E4B30B51C6F240434
:1029300005D41C6F1C671C6F44F400441C670A4CD0
:1029400002442368D2B243F480732360074B904261
:1029500000D130BD441C51F8045B00B243F8205054
:10296000E0B2F4E7004402580048025850400058D2
:1029700007B5012201A90020FFF7C4FF019803B0A9
:102980005DF804FB13B50446FFF7F2FFA04205D043
:10299000012201A900200194FFF7C6FF02B010BD7B
:1029A0000144BFF34F8F064B884204D3BFF34F8FD0
:1029B000BFF36F8F7047C3F85C022030F4E700BFAD
:1029C00000ED00E0034B1B685B0142BF024B01229C
:1029D0001A707047D04402580F340020014B187809
:1029E000704700BF0F340020064A536823F00103EC
:1029F0005360EFF30983683383F30988002383F37B
:102A00001188704730EF00E0202310B583F3118860
:102A1000104B5B6813F4006318D0F1EE103AEFF33B
:102A200009844FF0807344F84C3C0B4BDB6844F84E
:102A3000083CA4F1680383F30988FFF747FB18B14A
:102A4000064B44F8503C10BD054BFAE783F3118860
:102A5000F9E700BF00ED00E030EF00E0F10300080F
:102A6000F403000870B5BFF34F8FBFF36F8F1A4B9D
:102A70000021C3F85012BFF34F8FBFF36F8F5A6915
:102A800042F400325A61BFF34F8FBFF36F8FC3F828
:102A90008410BFF34F8FD3F8802043F6E074C2F365
:102AA000C900C2F34E32520102EA0406014646EA68
:102AB00081750139C3F86052F9D2203A12F1200F22
:102AC000F2D1BFF34F8F5A6942F480325A61BFF39B
:102AD0004F8FBFF36F8F70BD00ED00E0FEE7000089
:102AE000084A094B09498B4204D3094A0021934201
:102AF00005D3704752F8040B43F8040BF3E743F88F
:102B0000041BF4E78C43000860350020603500208A
:102B10006035002030B50022D0E9244311464FF043
:102B2000FF309D6804EB421301329542C3F800194F
:102B3000C3F81019C3F80809C3F8001BC3F8101B29
:102B4000C3F8080BEED24FF00113C4F81C3830BDA7
:102B500000EB8103D3F80CC02DE9F043DCF814201E
:102B60004E1CD0F89050D2F800E005EB063605EB8D
:102B70004118506870450AD30120D5F8343800FA5E
:102B800001F123EA0101C5F83418BDE8F083AEEB8A
:102B90000003BCF81040A34228BF2346D8F81849C8
:102BA000A4B2B3EB840F0FD89468A4F1040959F8C8
:102BB000047F3760A4EB09071F44042FF7D81C4497
:102BC000034494605360D4E70020DEE7890141F0BC
:102BD0002001016103699B06FCD41220FFF722BB90
:102BE00010B50A4C2046FEF741FF094BC4F890305F
:102BF000084BC4F89430084C2046FEF737FF074BCB
:102C0000C4F89030064BC4F8943010BD1034002046
:102C100000000840F8410008AC34002000000440E7
:102C20000442000870B503780546012B5DD1494B7D
:102C3000D0F89040984259D1474B0E216520D3F8E7
:102C4000D82042F00062C3F8D820D3F8002142F027
:102C50000062C3F80021D3F80021D3F8802042F0AD
:102C60000062C3F88020D3F8802022F00062C3F80D
:102C70008020D3F88030FEF77BFB384BE360384B85
:102C8000C4F800380023D5F89060C4F8003EC02393
:102C900023604FF40413A3633369002BFCDA012390
:102CA0000C203361FFF7BEFA3369DB07FCD4122036
:102CB000FFF7B8FA3369002BFCDA00262846A66035
:102CC000FFF728FF6B68C4F81068DB68C4F8146865
:102CD000C4F81C68002B3AD1224BA3614FF0FF339C
:102CE0006361A36843F00103A36070BD1E4B98426B
:102CF000C8D1194B0E214D20D3F8D82042F00072D4
:102D0000C3F8D820D3F8002142F00072C3F80021A4
:102D1000D3F80021D3F8802042F00072C3F880205D
:102D2000D3F8802022F00072C3F88020D3F88020EE
:102D3000D3F8D82022F08062C3F8D820D3F800213D
:102D400022F08062C3F80021D3F8003193E7074BEB
:102D5000C3E700BF10340020004402584014004074
:102D600003002002003C30C0AC340020083C30C0DE
:102D7000F8B5D0F89040054600214FF00066204697
:102D8000FFF724FFD5F8941000234FF001128F684D
:102D90004FF0FF30C4F83438C4F81C2804EB431259
:102DA00001339F42C2F80069C2F8006BC2F80809FB
:102DB000C2F8080BF2D20B68D5F89020C5F898300D
:102DC000636210231361166916F01006FBD11220FE
:102DD000FFF728FAD4F8003823F4FE63C4F800386B
:102DE000A36943F4402343F01003A3610923C4F80B
:102DF0001038C4F814380B4BEB604FF0C043C4F8E4
:102E0000103B094BC4F8003BC4F81069C4F8003902
:102E1000D5F8983003F1100243F48013C5F89820D8
:102E2000A362F8BDD441000840800010D0F8902083
:102E300090F88A10D2F8003823F4FE6343EA0113B5
:102E4000C2F80038704700002DE9F84300EB810814
:102E5000D0F890500C460FFA81F9D8F80C204F01A9
:102E6000166806F00306731E022B05EB41134FF0A4
:102E7000000194BFB6043A4EC3F8101B04F11003CE
:102E80004FF0010198BF06F1805601FA03F19369F2
:102E900098BF06F50046002B3DD0B2F812C004F1F1
:102EA00058034CEA060C5B0145F803C0D5F81C3802
:102EB0001943EB19C5F81C1800210127C3F8101994
:102EC000A7405369611E9BB3138A928B9B08012A0A
:102ED00088BF5343D0F8982003EB020C42EA034327
:102EE00001F140022146C0F898C0284605EB820255
:102EF0005360FFF76BFED8F80C301B8A43EA84530B
:102F000048341E4364012E51D5F81C381F43C5F8C0
:102F10001C78BDE8F88305EB491CDCF8003B23F482
:102F20000043CCF8003BD5F81C3823EA0101C0E788
:102F300004F13F030B4A05EB4919214605EB8303D6
:102F400028465A60FFF742FED9F8003923F40043BF
:102F5000C9F80039D5F81C3823EA0707D7E700BFBE
:102F60000080001000040002D0F894201268C0F81D
:102F70009820FFF7CFBD00005831D0F890304901BC
:102F80005B5813F4004004D013F4001F0CBF022060
:102F9000012070474831D0F8903049015B5813F454
:102FA000004004D013F4001F0CBF02200120704722
:102FB00000EB8101CB68196A0B6813604B685360A2
:102FC0007047000000EB810330B5DD68AA69136823
:102FD000D36019B9402B84BF402313606B8A1468F7
:102FE000D0F890201C4402EB4110013C09B2B4FB24
:102FF000F3F46343033323F0030343EAC44343F08E
:10300000C043C0F8103B2B6803F00303012B0ED123
:10301000D2F8083802EB411013F4807FD0F8003B5F
:1030200014BF43F0805343F00053C0F8003B02EB61
:103030004112D2F8003B43F00443C2F8003B30BDDC
:103040002DE9F041D0F8906005460C4606EB41139F
:10305000D3F8087B3A07C3F8087B08D5D6F81438AC
:103060001B0704D500EB8103DB685B689847FA0710
:103070001FD5D6F81438DB071BD505EB8403D968B8
:10308000CCB98B69488A5E68B6FBF0F200FB12622D
:103090008AB91868DA6890420DD2121AC3E900247E
:1030A000202383F3118821462846FFF78BFF84F302
:1030B0001188BDE8F081012303FA04F26B8923EA49
:1030C00002036B81CB68002BF3D021462846BDE874
:1030D000F041184700EB81034A0170B5DD68D0F874
:1030E00090306C692668E66056BB1A444FF40020A5
:1030F000C2F810092A6802F00302012A0AB20ED1AE
:10310000D3F8080803EB421410F4807FD4F80009C8
:1031100014BF40F0805040F00050C4F8000903EBA9
:103120004212D2F8000940F00440C2F8000901221E
:10313000D3F8340802FA01F10143C3F8341870BD22
:1031400019B9402E84BF4020206020681A442E8A7E
:103150008419013CB4FBF6F440EAC44040F000504E
:10316000C6E700002DE9F041D0F8906004460D4616
:1031700006EB4113D3F80879C3F80879FB071CD58F
:10318000D6F81038DA0718D500EB8103D3F80CC055
:10319000DCF81430D3F800E0DA6896451BD2A2EBD5
:1031A0000E024FF000081A60C3F80480202383F356
:1031B0001188FFF78FFF88F311883B0618D501238C
:1031C000D6F83428AB40134212D029462046BDE839
:1031D000F041FFF7BDBC012303FA01F2038923EAA2
:1031E00002030381DCF80830002BE6D09847E4E7BF
:1031F000BDE8F0812DE9F84FD0F8905004466E6993
:10320000AB691E4016F480586E6103D0BDE8F84FDC
:10321000FEF7A2BC002E12DAD5F8003E9F0705D0BB
:10322000D5F8003E23F00303C5F8003ED5F8043876
:10323000204623F00103C5F80438FEF7B7FC30053B
:1032400002D52046FEF7A6FCB1040CD5D5F8083807
:1032500013F0060FEB6823F470530CBF43F41053C4
:1032600043F4A053EB60320704D56368DB680BB10D
:1032700020469847F30200F1BA80B70226D5D4F869
:10328000909000274FF0010A09EB4712D2F8003B5B
:1032900003F44023B3F5802F11D1D2F8003B002B6B
:1032A0000DDA62890AFA07F322EA0303638104EB69
:1032B0008703DB68DB6813B139462046984701373E
:1032C000D4F89430FFB29B689F42DDD9F00619D53F
:1032D000D4F89000026AC2F30A1702F00F0302F456
:1032E000F012B2F5802F00F0CC80B2F5402F09D15A
:1032F00004EB8303002200F58050DB681B6A9742D1
:1033000040F0B2803003D5F8185835D5E90303D51D
:1033100000212046FFF794FEAA0303D50121204691
:10332000FFF78EFE6B0303D502212046FFF788FED0
:103330002F0303D503212046FFF782FEE80203D5C1
:1033400004212046FFF77CFEA90203D50521204673
:10335000FFF776FE6A0203D506212046FFF770FECE
:103360002B0203D507212046FFF76AFEEF0103D5A4
:1033700008212046FFF764FE700340F1A980E907A9
:1033800003D500212046FFF7EDFEAA0703D5012152
:103390002046FFF7E7FE6B0703D502212046FFF723
:1033A000E1FE2F0703D503212046FFF7DBFEEE06E3
:1033B00003D504212046FFF7D5FEA80603D5052135
:1033C0002046FFF7CFFE690603D506212046FFF70A
:1033D000C9FE2A0603D507212046FFF7C3FEEB05E9
:1033E00076D520460821BDE8F84FFFF7BBBED4F8DC
:1033F000909000274FF0010AD4F894305FFA87FBD1
:103400009B685B45FFF439AF09EB4B13D3F80029F8
:1034100002F44022B2F5802F24D1D3F80029002AEB
:1034200020DAD3F8002942F09042C3F80029D3F8FB
:103430000029002AFBDB5946D4F89000FFF7C6FBB1
:1034400022890AFA0BF322EA0303238104EB8B039C
:10345000DB689B6813B15946204698475946204679
:10346000FFF776FB0137C7E7910701D1D0F800805D
:10347000072A02F101029CBF03F8018B4FEA1828CA
:103480003DE704EB830300F58050DA68D2F818C0FA
:10349000DCF80820DCE9001CA1EB0C0C00218F42B9
:1034A00008D1DB689B699A683A449A605A68174465
:1034B0005F6027E711F0030F01D1D0F800808C4541
:1034C00001F1010184BF02F8018B4FEA1828E6E7F9
:1034D000BDE8F88F08B50348FFF78CFEBDE808404B
:1034E000FFF792BA1034002008B50348FFF782FEB8
:1034F000BDE80840FFF788BAAC340020D0F890301F
:1035000003EB4111D1F8003B43F40013C1F8003B39
:1035100070470000D0F8903003EB4111D1F800392A
:1035200043F40013C1F8003970470000D0F8903020
:1035300003EB4111D1F8003B23F40013C1F8003B29
:1035400070470000D0F8903003EB4111D1F80039FA
:1035500023F40013C1F800397047000030B504337C
:10356000039C0172002104FB0325C160C0E90653DE
:10357000049B0363059BC0E90000C0E90422C0E985
:103580000842C0E90A11436330BD00000022416ACD
:10359000C260C0E90411C0E90A226FF00101FEF720
:1035A000B1BE0000D0E90432934201D1C2680AB929
:1035B000181D704700207047036919600021C26818
:1035C0000132C260C269134482699342036124BF1D
:1035D000436A0361FEF78ABE38B504460D46E368C8
:1035E0003BB162690020131D1268A3621344E362B9
:1035F00007E0237A33B929462046FEF767FE002804
:10360000EDDA38BD6FF00100FBE70000C368C26966
:10361000013BC3604369134482699342436124BF01
:10362000436A436100238362036B03B11847704709
:1036300070B52023044683F31188866A3EB9FFF7EC
:10364000CBFF054618B186F31188284670BDA36AE2
:10365000E26A13F8015B9342A36202D32046FFF7AC
:10366000D5FF002383F31188EFE700002DE9F84F21
:1036700004460E4690469946202787F31188002578
:10368000AA46D4F828B0BBF1000F09D1494620461C
:10369000FFF7A2FF20B18BF311882846BDE8F88F11
:1036A000D4E90A12A8EB050B521A934528BF93469A
:1036B000BBF1400F1BD9334601F1400251F8040B16
:1036C000914243F8040BF9D1A36A403640354033A8
:1036D000A362D4E90A239A4202D32046FFF796FF59
:1036E0008AF311884545D8D287F31188C9E7304657
:1036F0005A46FDF7DFFBA36A5E445D445B44A36268
:10370000E7E7000010B5029C0433017204FB0321BB
:10371000C460C0E906130023C0E90A33039B0363B6
:10372000049BC0E90000C0E90422C0E908424363E9
:1037300010BD0000026A6FF00101C260426AC0E978
:1037400004220022C0E90A22FEF7DCBDD0E90423EE
:103750009A4201D1C26822B9184650F8043B0B6066
:103760007047002070470000C3680021C269013320
:10377000C3604369134482699342436124BF436A2F
:103780004361FEF7B3BD000038B504460D46E3685B
:103790003BB1236900201A1DA262E2691344E3626F
:1037A00007E0237A33B929462046FEF78FFD00282B
:1037B000EDDA38BD6FF00100FBE700000369196026
:1037C000C268013AC260C2691344826993420361CC
:1037D00024BF436A036100238362036B03B118476C
:1037E0007047000070B520230D460446114683F350
:1037F0001188866A2EB9FFF7C7FF10B186F31188CA
:1038000070BDA36A1D70A36AE26A01339342A3628A
:1038100004D3E16920460439FFF7D0FF002080F38C
:103820001188EDE72DE9F84F04460D4691469A467A
:103830004FF0200888F311880026B346A76A4FB9D5
:1038400051462046FFF7A0FF20B187F3118830468C
:10385000BDE8F88FD4E90A073A1AA9EB06079742A0
:1038600028BF1746402F1BD905F1400355F8042BFC
:103870009D4240F8042BF9D1A36A40364033A3623D
:10388000D4E90A239A4204D3E16920460439FFF7B8
:1038900095FF8BF311884E45D9D288F31188CDE777
:1038A00029463A46FDF706FBA36A3D443E443B44A5
:1038B000A362E5E7D0E904239A4217D1C3689BB11C
:1038C000836A8BB1043B9B1A0ED01360C368013B23
:1038D000C360C3691A4483699A42026124BF436A80
:1038E0000361002383620123184670470023FBE72E
:1038F00000F0BCB8034B002258631A610222DA6060
:10390000704700BF000C0040014B0022DA60704796
:10391000000C0040014B5863704700BF000C004092
:103920004B6843608B688360CB68C3600B694361FD
:103930004B6903628B6943620B6803607047000048
:1039400008B52C4B40F2FF712B48D3F888200A436E
:10395000C3F88820D3F8882022F4FF6222F00702FF
:10396000C3F88820D3F88820D3F8E0200A43C3F8AE
:10397000E020D3F808210A43C3F808211F4AD3F8EE
:1039800008311146FFF7CCFF1D4802F11C01FFF77B
:10399000C7FF1C4802F13801FFF7C2FF1A4802F1C5
:1039A0005401FFF7BDFF194802F17001FFF7B8FF9E
:1039B000174802F18C01FFF7B3FF164802F1A80186
:1039C000FFF7AEFF144802F1C401FFF7A9FF134847
:1039D00002F1E001FFF7A4FF114802F1FC01FFF73B
:1039E0009FFF104802F58C71FFF79AFFBDE8084071
:1039F00000F012B9004402580000025810420008BA
:103A00000004025800080258000C02580010025826
:103A10000014025800180258001C025800200258D6
:103A2000002402580028025808B500F0BDFAFEF73D
:103A300071FBFEF7C7FFBDE80840FEF77FBD000041
:103A400070470000084B1A69920710B508D500248A
:103A50001C61202383F31188FEF7A0FB84F31188F7
:103A6000BDE81040FEF7D0BF000C0040124B08210B
:103A70003220D3F8E82042F00802C3F8E820D3F857
:103A8000102142F00802C3F810210C4AD3F810317B
:103A9000D36B43F00803D363C722094B9A624FF0FC
:103AA000FF32DA6200229A615A63DA605A600122B8
:103AB0005A611A60FDF75CBC004402580010005CBB
:103AC000000C00404F4B70B5D3F8802000244FF01D
:103AD000FF32C3F88020D3F88010C3F88040D3F8B9
:103AE0008010D3F88410C3F88420D3F88410C3F86E
:103AF0008440D3F88410D96F41F0FF4141F4FF01B5
:103B000041F4DF4141F07F01D967D96F21F0FF41D6
:103B100021F4FF0121F4DF4121F07F01D967D96F42
:103B2000D3F888106FEA41516FEA5151C3F88810F9
:103B3000D3F88810C1F30A01C3F88810D3F88810AD
:103B4000D3F89010C3F89020D3F89010C3F89040A9
:103B5000D3F89010D3F89410C3F89420D3F89410AD
:103B6000C3F89440D3F89410D3F89810C3F8982071
:103B7000D3F89810C3F89840D3F89810D3F88C1065
:103B8000C3F88C20D3F88C10C3F88C40D3F88C1079
:103B9000D3F89C10C3F89C20D3F89C20C3F89C4019
:103BA000D3F89C3000F0E0F9174B07229A60174ACF
:103BB000DA60174A1A6105225A60164A536A43F4BA
:103BC00080335362C2F88440BFF34F8FD2F8803005
:103BD00043F6E074C3F3C900C3F34E335B0103EA59
:103BE0000406014646EA81750139C2F87452F9D2D9
:103BF000203B13F1200FF2D1BFF34F8FBFF36F8F34
:103C000070BD00BF0044025890ED00E00000043099
:103C10001B00080300ED00E00122574B57491A60D2
:103C2000574B19609A60574ADA6000221A614FF4C4
:103C300040429A619A699004FCD51A6842F48072F5
:103C40001A60514B1A6F12F4407F04D04FF4803247
:103C50001A6700221A671A6842F001021A604A4A7B
:103C6000134611684907FCD5002111611A6912F049
:103C70003802FBD1012119604FF0804159605A6729
:103C8000424ADA62424A1A611A6842F480321A6081
:103C90003D4B1A689203FCD53E4A3F499A62002286
:103CA0005A631963A1F58021DA634B3999635A6429
:103CB0003A4A1A643A4ADA621A6842F0A8521A601A
:103CC000314B1A6802F02852B2F1285FF9D148222C
:103CD00022219A614FF48862DA6140221A624FF021
:103CE0000052DA641A652F4A5A652F4A9A652F4A9C
:103CF00011601A6942F003021A61234B1A6902F03B
:103D00003802182AFAD1D3F8DC2042F00052C3F866
:103D1000DC20D3F8042142F00052C3F80421D3F888
:103D20000421D3F8DC2042F08042C3F8DC20D3F831
:103D3000042142F08042C3F80421D3F80421D3F8CF
:103D4000DC2042F00042C3F8DC20D3F8042142F02A
:103D50000042C3F80421D3F80421D3F8F42042F040
:103D60000202C3F8F420D3F81C2142F00202C3F887
:103D70001C21D3F81C3170470881005100C000F0AD
:103D80000048025802000001004402580000FF01F0
:103D9000008890083230600063020701470405087C
:103DA000FD0BFF010010E0000001010000200052A7
:103DB000084A08B5916813680B4003F0010393604B
:103DC00023B1054A13680BB150689847BDE8084015
:103DD000FEF71ABE80000058C0250020084A08B52A
:103DE000916813680B4003F00203936023B1054A06
:103DF00093680BB1D0689847BDE80840FEF704BE51
:103E000080000058C0250020084A08B59168136852
:103E10000B4003F00403936023B1054A13690BB10F
:103E200050699847BDE80840FEF7EEBD8000005895
:103E3000C0250020084A08B5916813680B4003F0BC
:103E40000803936023B1054A93690BB1D069984781
:103E5000BDE80840FEF7D8BD80000058C02500200E
:103E6000084A08B5916813680B4003F0100393608B
:103E700023B1054A136A0BB1506A9847BDE8084060
:103E8000FEF7C2BD80000058C0250020174B10B5BA
:103E90009A681C68144004F478729A60A30604D5EA
:103EA000134A936A0BB1D06A9847600604D5104A4A
:103EB000136B0BB1506B9847210604D50C4A936BDA
:103EC0000BB1D06B9847E20504D5094A136C0BB1CE
:103ED000506C9847A30504D5054A936C0BB1D06C80
:103EE0009847BDE81040FEF78FBD00BF8000005826
:103EF000C02500201A4B10B59A681C68144004F4C1
:103F00007C429A60620504D5164A136D0BB1506D60
:103F10009847230504D5134A936D0BB1D06D98478C
:103F2000E00404D50F4A136E0BB1506E9847A104FC
:103F300004D50C4A936E0BB1D06E9847620404D539
:103F4000084A136F0BB1506F9847230404D5054AF4
:103F5000936F0BB1D06F9847BDE81040FEF754BD8A
:103F600080000058C0250020062108B50846FDF74E
:103F7000FFF906210720FDF7FBF906210820FDF7D0
:103F8000F7F906210920FDF7F3F906210A20FDF7CC
:103F9000EFF906211720FDF7EBF906212820BDE8EF
:103FA0000840FDF7E5B9000008B5FFF78BFDFDF708
:103FB000B5F8FDF781FBFDF757FDFDF72DFCFFF789
:103FC0003FFDBDE80840FFF793BC000030B5013964
:103FD0000024A24201D1002005E0035D01340D5D03
:103FE000AB42F6D0581B30BD034611F8012B03F845
:103FF000012B002AF9D1704753544D333248373FD3
:104000003F3F0053544D3332483734332F37353325
:104010000000000001105A00031059000120580050
:1040200003205600E82C00204026002000960000C7
:104030000000000000000000000000000000000080
:104040000000000000000000811600086D16000846
:10405000A916000895160008A11600088D1600087C
:104060007916000865160008B51600080000000063
:104070008D17000879170008B5170008A117000868
:10408000AD17000899170008851700087117000878
:1040900015180008000000000100000000000000EA
:1040A0006D61696E0000000069646C6500000000CD
:1040B000A8400008F02A0020E82C002001000000A1
:1040C00011210008000000006D526F0025424F4191
:1040D0005244252D424C002553455249414C250060
:1040E0000200000000000000B1190008211A0008B9
:1040F000400040008031002090310020020000008C
:10410000000000000300000000000000651A000825
:104110000000000010000000A0310020000000009E
:104120000100000000000000103400200101020026
:10413000D92400083D24000829190008BD240008DE
:10414000430000004841000809024300020100C08A
:1041500032090400000102020100052400100105DB
:10416000240100010424020205240600010705823F
:10417000030800FF09040100020A0000000705010E
:10418000024000000705810240000000120000000C
:104190009441000812011001020000400912415729
:1041A00000020102030100000403090425424F41FB
:1041B000524425006D526F50697872616365725088
:1041C000726F00303132333435363738394142433B
:1041D0004445460000000000C11B0008891E00087D
:1041E0003D1F0008400040004835002048350020B1
:1041F0000100000058350020800000004001000050
:104200000800000000010000000400000800000099
:104210000000802A00000000AAAAAAAA000000004C
:10422000FFFF00000000000000A00A004400400062
:1042300000000000AAAAAAAA00000000FFFF0000D8
:10424000000000000000000010000000000000005E
:10425000AAAAAAAA10000000FFFF000000000000A8
:10426000000000000040100000000000AAAA8AAA76
:1042700000401000FFFF00000000000000000000F0
:104280000080024000000000AAAAAAAA0040014043
:10429000FFFF000000000070070000000010100089
:1042A00000000000AAAAAAAA00101000FFFF000048
:1042B00000000000000000000000040000000000FA
:1042C000AAAAAAAA00000400FFFF00000000000044
:1042D000000000000000000000000000AAAAAAAA36
:1042E00000000000FFFF00000000000000000000D0
:1042F0000000000000000000AAAAAAAA0000000016
:10430000FFFF0000000000000000000000000000AF
:1043100000000000AAAAAAAA00000000FFFF0000F7
:10432000000000000000000000000000000000008D
:10433000AAAAAAAA00000000FFFF000000000000D7
:104340000000000000000000FF000000000000006E
:10435000F83F00083F000000500400000340000840
:104360003F0000000096000000000800040000006C
:10437000A84100080000000000000000000000004C
:0C43800000000000000000000000000031
:00000001FF
