:020000040800F2
:1000000000070020F5040008552800080D28000806
:10001000352800080D2800082D280008F7040008DE
:10002000F7040008F7040008F70400083538000852
:10003000F7040008F7040008F7040008F7040008B4
:10004000F7040008F7040008F7040008F7040008A4
:10005000F7040008F7040008A9450008D145000886
:10006000F94500082146000849460008F704000841
:10007000F7040008F7040008F7040008F704000874
:10008000F7040008F7040008F7040008F704000864
:10009000F7040008ED270008FD2700087146000856
:1000A000F7040008F7040008F7040008F704000844
:1000B00045470008F7040008F7040008F7040008A3
:1000C000F7040008F7040008F7040008F704000824
:1000D000F7040008F7040008F7040008F704000814
:1000E000D5460008F7040008F7040008F7040008E4
:1000F000F7040008F7040008F7040008F7040008F4
:10010000F7040008F7040008F7040008F7040008E3
:10011000F7040008F7040008F7040008F7040008D3
:10012000F7040008F7040008F7040008F7040008C3
:10013000F7040008F7040008F7040008F7040008B3
:10014000F7040008F7040008F7040008F7040008A3
:10015000F7040008F7040008F7040008F704000893
:10016000F7040008F7040008F7040008F704000883
:10017000F7040008F7040008F7040008F704000873
:10018000F7040008F7040008F7040008F704000863
:10019000F7040008F7040008F7040008F704000853
:1001A000F7040008F7040008F7040008F704000843
:1001B000F7040008F7040008F7040008F704000833
:1001C000F7040008F7040008F7040008F704000823
:1001D000F7040008F7040008F7040008F704000813
:1001E0006512000800000000000000000000000090
:1001F00053B94AB9002908BF00281CBF4FF0FF318E
:100200004FF0FF3000F074B9ADF1080C6DE904CE89
:1002100000F006F8DDF804E0DDE9022304B07047E1
:100220002DE9F047089D04468E46002B4DD18A42A9
:10023000944669D9B2FA82F252B101FA02F3C2F1DC
:10024000200120FA01F10CFA02FC41EA030E94406D
:100250004FEA1C48210CBEFBF8F61FFA8CF708FB8E
:1002600016E341EA034306FB07F199420AD91CEB66
:10027000030306F1FF3080F01F81994240F21C8198
:10028000023E63445B1AA4B2B3FBF8F008FB1033E0
:1002900044EA034400FB07F7A7420AD91CEB040415
:1002A00000F1FF3380F00A81A74240F207816444E5
:1002B000023840EA0640E41B00261DB1D44000236A
:1002C000C5E900433146BDE8F0878B4209D9002DCE
:1002D00000F0EF800026C5E9000130463146BDE858
:1002E000F087B3FA83F6002E4AD18B4202D38242C2
:1002F00000F2F980841A61EB030301209E46002D71
:10030000E0D0C5E9004EDDE702B9FFDEB2FA82F2C5
:10031000002A40F09280A1EB0C014FEA1C471FFA23
:100320008CFE0126200CB1FBF7F307FB131140EA0A
:1003300001410EFB03F0884208D91CEB010103F1D7
:10034000FF3802D2884200F2CB804346091AA4B299
:10035000B1FBF7F007FB101144EA01440EFB00FE6D
:10036000A64508D91CEB040400F1FF3102D2A645D2
:1003700000F2BB800846A4EB0E0440EA03409CE771
:10038000C6F12007B34022FA07FC4CEA030C20FA1E
:1003900007F401FA06F31C43F9404FEA1C4900FA3E
:1003A00006F3B1FBF9F8200C1FFA8CFE09FB1811BB
:1003B00040EA014108FB0EF0884202FA06F20BD92E
:1003C0001CEB010108F1FF3A80F08880884240F27E
:1003D0008580A8F102086144091AA4B2B1FBF9F0C2
:1003E00009FB101144EA014100FB0EFE8E4508D9BD
:1003F0001CEB010100F1FF346CD28E456AD9023842
:10040000614440EA0840A0FB0294A1EB0E01A14226
:10041000C846A64656D353D05DB1B3EB080261EB94
:100420000E0101FA07F722FA06F3F1401F43C5E96E
:10043000007100263146BDE8F087C2F12003D840A4
:100440000CFA02FC21FA03F3914001434FEA1C47E6
:100450001FFA8CFEB3FBF7F007FB10360B0C43EAD8
:10046000064300FB0EF69E4204FA02F408D91CEB88
:10047000030300F1FF382FD29E422DD90238634486
:100480009B1B89B2B3FBF7F607FB163341EA034126
:1004900006FB0EF38B4208D91CEB010106F1FF3875
:1004A00016D28B4214D9023E6144C91A46EA00466C
:1004B00038E72E46284605E70646E3E61846F8E6FE
:1004C0004B45A9D2B9EB020864EB0C0E0138A3E747
:1004D0004646EAE7204694E74046D1E7D0467BE728
:1004E000023B614432E7304609E76444023842E7A0
:1004F000704700BF02E000F000F8FEE772B6374830
:1005000080F30888364880F3098836483649086001
:1005100040F20000CCF200004EF63471CEF2000141
:100520000860BFF34F8FBFF36F8F40F20000C0F23F
:10053000F0004EF68851CEF200010860BFF34F8FF5
:10054000BFF36F8F4FF00000E1EE100A4EF63C71E2
:10055000CEF200010860062080F31488BFF36F8F8D
:1005600003F052FE03F0E4FE4FF055301F491B4AE2
:1005700091423CBF41F8040BFAE71D49184A9142E9
:100580003CBF41F8040BFAE71A491B4A1B4B9A423D
:100590003EBF51F8040B42F8040BF8E7002018495D
:1005A000184A91423CBF41F8040BFAE703F030FED1
:1005B00003F004FF144C154DAC4203DA54F8041B4D
:1005C0008847F9E700F042F8114C124DAC4203DACB
:1005D00054F8041B8847F9E703F018BE0007002011
:1005E000002300200000000808ED00E000010020CA
:1005F00000070020F8490008002300207C23002089
:1006000080230020D8500020E0010008E401000809
:10061000E4010008E40100082DE9F04F2DED108AF7
:10062000C1F80CD0C3689D46BDEC108ABDE8F08FC0
:10063000002383F311882846A047002003F090FA96
:10064000FEE703F0F3F900DFFEE70000F8B500F085
:100650001BFE03F07BFD074603F0CCFD0546D0BB37
:10066000294B9F4237D001339F4237D0274B27F089
:10067000FF029A4235D1F8B200F03EFC2E4642F21B
:10068000107400F03FFC08B10024264601F0B4F8D5
:1006900058B3032000F03EF80024264635B11C4B29
:1006A0009F4203D003F09EFD00242646002003F065
:1006B00057FD0EB100F044F800F056FC00F0E6FDE6
:1006C00002F0D0F80546B4B900F096FC4FF47A7009
:1006D00003F04CFAF7E72E460024D2E70446012641
:1006E000CFE706464FF47A74CBE7002CD6D04FF410
:1006F0007A740126D2E702F0B5F8431BA342E3D98E
:1007000000F01EF8DCE700BF010007B0000008B0F1
:10071000263A09B0084B187003280CD8DFE800F01F
:1007200008050208022000F00DBE022000F002BE03
:10073000024B00225A60704780230020842300204F
:1007400010B501F059F830B1234B03221A70234B36
:1007500000225A6010BD224B224A1C461968013102
:10076000F8D004339342F9D16268A242F2D31E4B0F
:100770009B6803F1006303F520439A42EAD203F039
:1007800003FD03F015FD002000F09AFD0220FFF7A5
:10079000C1FF164B9A6D00229A65996F9A67996FFF
:1007A000D96DDA65D96FDA67D96F196E1A66D3F821
:1007B0008010C3F88020D3F8803072B64FF0E02369
:1007C0003021C3F8084DD4E9003281F311889D46E9
:1007D00083F308881047BDE780230020842300208E
:1007E00000A0000820A00008002300200010024004
:1007F000094A136849F2690099B21B0C00FB0133E6
:100800001360064B186844F2506182B2000C01FB81
:100810000200186080B270471423002010230020CB
:1008200010B500211022044600F0A6FD034B03CBB7
:10083000206061601868A06010BD00BF9075FF1F48
:100840002DE9F041ADF54E7D0DF134086CAC40F270
:10085000751207460D460EA80021C8F8001000F0DA
:100860008BFD4FF4C4720021204600F085FD01F09D
:10087000F9FF254B4FF47A72B0FBF2F0186093E861
:100880000700022384E807000DF5E9702382FFF7D3
:10089000C7FF41F204031D49238406A803F0E8FFC3
:1008A000192384F832310DF2E32206AB0DF1300C3E
:1008B0001E4603CE664510605160334602F10802C1
:1008C000F6D13378137041460122204600F0A0FD96
:1008D00000230393AB7E029305F11903019380B2C9
:1008E0000123CDE904800093E97E05A3D3E9002329
:1008F000384602F075FB0DF54E7DBDE8F08100BF76
:100900009E6AC421818A46EE8C230020804800081C
:100910002DE9F0412C4C237ADAB080460D465BBBC2
:1009200027A9284600F084FE0746002842D19DF8FA
:100930009D60C82E3ED801464FF4A662204600F0C6
:100940001BFD4FF48073C4F8F8314FF40073C4F802
:100950000C334FF44073C4F8203432460DF19E013D
:1009600004F1090000F0F6FC26449DF89C307772F3
:1009700023720BB9EB7E23728122002106AC27A8DB
:1009800000F0FAFC0122214627A800F08DFE00238A
:100990000393AB7E029305F1190380B201932823E0
:1009A000CDE904400093E97E05A3D3E90023404646
:1009B00002F016FB5AB0BDE8F08100BFAFF3008033
:1009C00026417272DF25D7B788480020F0B5254E42
:1009D0004FF48A7505FB0065F1B096F8D83085F8BC
:1009E000DC300024D822214685F8E8403AA800F0FF
:1009F000C3FC06F1090000F0B7FCD5F8E4308DF82F
:100A0000F000C2B206AF06F109010DF1F100CDE927
:100A10003A3400F09FFC394601223AA800F070FEFB
:100A200080B2CDE9047008230127CDE9023706F131
:100A3000D803019330230093317A0B4807A3D3E9FD
:100A4000002302F0CDFAA04206DD01F00BFFC5F84D
:100A5000E000384671B0F0BD2046FBE778F6339FE2
:100A600093CACD8D88480020A43300202DE9F041A1
:100A70001D4D1E4E1E4F86B0284602F0DDFA03467D
:100A800058B30024CDE90344ADF81440027B8DF83F
:100A9000142099684068029403AA03C21B68DFF817
:100AA000548043F00043029301F0DEFE821941F1CD
:100AB0000003009402A9384601F0B6F8A04205DD13
:100AC000284602F0BDFA88F80040D5E798F80030D3
:100AD000072B05D8013388F8003006B0BDE8F08157
:100AE000014802F0ADFAF8E7A433002040420F00BD
:100AF000D8330020BD4D002070B50D4614461E466B
:100B000002F0CAF950B9022E10D1012C0ED112A355
:100B1000D3E90023C5E90023012007E0282C10D0E9
:100B200005D8012C09D0052C0FD0002070BD302C29
:100B3000FBD10BA3D3E90023ECE70BA3D3E90023FC
:100B4000E8E70BA3D3E90023E4E70BA3D3E90023F1
:100B5000E0E700BFAFF30080401DA12026812A0BF3
:100B600078F6339F93CACD8D9E6AC421818A46EE62
:100B700026417272DF25D7B7F017304A39059E56E5
:100B800038B505460E4C0021013500F0BBFBA4F83A
:100B90002C55B4F82C0500F09DFB78B1B4F82C0569
:100BA00000F0A8FB014648B9B4F82C0500F0AAFBF8
:100BB000B4F82C350133A4F82C35EAE738BD00BF72
:100BC0008848002010B50A4B0A4A1A6003F5805382
:100BD00093F848203AB95C6C2CB1204600F086FEB0
:100BE000204603F0FBFDBDE81040034800F07EBE48
:100BF000D8330020CC480008084400202DE9F04FED
:100C00008FB000AF05460C4602F046F9002849D1E6
:100C1000237E022B1BD1E38A012B18D101F022FE87
:100C20000646FFF7E5FD03464FF4C870DFF8C482BF
:100C3000B3FBF0F206F5167602FB103316FA83F3D7
:100C4000C8F80030E37E33B9A34B00221A703C375A
:100C5000BD46BDE8F08F07F12401204600F0A6FC58
:100C60000028F4D107F11400FFF7DAFD97F82640C9
:100C700007F11401224607F1270003F0C7FD002801
:100C8000E2D10F2C08D8944B1C70D8F80030A3F593
:100C90001673C8F80030DAE797F82410284602F0F7
:100CA000F3F8D4E7E38A282B2BD010D8012B23D0DC
:100CB000052BCCD1BFF34F8F8849894BCA6802F40A
:100CC000E0621343CB60BFF34F8F00BFFDE7302BD3
:100CD000BDD1844EE17E327A9142B8D1607E3146F8
:100CE000002291F8DC50854200F0A5800132042AF0
:100CF00001F58A71F5D1AAE721462846FFF7A0FD44
:100D0000A5E721462846FFF703FEA0E7B2F8EC501E
:100D10007B6005F103094FEA99094FEA8902D11D69
:100D2000C908A8EBC1039D46EB460021584600F0D8
:100D300023FB04F1EE012A463144584600F00AFB39
:100D40007B6813B9012000F0BBFA96F8D20000F0DE
:100D5000C1FA044630B9307200F0DCFA204600F0E7
:100D6000AFFAB1E0D6F8D4203AB996F8D200B6F886
:100D70002C25824201D8FFF703FFD6F8D4202A445D
:100D8000944208D296F8D200B6F82C25013082425F
:100D900001D8FFF7F5FE70685FFA89F2594600F056
:100DA000F3FA08B9C54679E0726896F8D2002A4489
:100DB0007260D6F8D42005EB0209C6F8D49000F092
:100DC00089FA814509D396F8D220D6F8D4000132A9
:100DD000001B86F8D220C6F8D400FF2D0FD80024BF
:100DE000347200F097FA204600F06AFA00F004FD31
:100DF0003D4B188108B9FFF7A3FCC54627E7BB6840
:100E000096F8D9000AFB0362FB68D2F8E41082F876
:100E1000E83001F58061C2F8E030C2F8E410FFF775
:100E2000D5FDFFF723FE96F8D920013202F0030228
:100E300086F8D920B6E74FF48A7A0AFB02F505F165
:100E4000EA013144204600F087FCF86000287FF476
:100E5000FEAE3544012285F8E82001F003FDD5F807
:100E6000E020D6ED007ADFED216A801A192838BF1C
:100E7000192040F6B832904228BF1046B8EE677A83
:100E800007EE900AF8EEE77A67EEA67ADFED186AC9
:100E9000E7EE267AFCEEE77AC6ED007A96F8D930CE
:100EA000BB60BA6873680AFB02F4321992F8E81062
:100EB00059B1D2F8E4108B42E8463FF427AF002145
:100EC00082F8E810C2F8E010C5467368064A9B0A2B
:100ED00001331381BBE600BF9D33002000ED00E02D
:100EE0000400FA05884800208C230020CDCCCC3D9E
:100EF0006666663FA0330020014B1870704700BF44
:100F00009823002038B54FF00054134B22689A42C2
:100F100020D1124B627D12481A70237D03724FF468
:100F20008073C0F8F8314FF40073C0F80C3300251B
:100F30004FF44073C0F820340A49C0F8E450C92285
:100F4000093000F007FAE0222946204600F014FAA2
:100F5000012038BD0020FCE79AAD44C5982300204D
:100F6000884800201600002037B500F045FC194DD8
:100F70001949288102236B7100220123174801F0CF
:100F80007BF800230193164B164900931648174B24
:100F90004FF4805201F050FF154B197811B11248EF
:100FA00001F072FF01F05EFC0446FFF721FC4FF4F4
:100FB000C873B0FBF3F202FB130304F5167010FACA
:100FC00083F00C4B186003F015F908B10F232B8147
:100FD00003B030BD8C23002040420F00D8330020E6
:100FE000F90A00089C230020A4330020FD0B000810
:100FF00098230020A03300202DE9F04F2DED028B27
:1010000090A7D7E900670FF24429D9E90089884CF5
:1010100095B00DAD9FED848BFFF728FDDFF834B25E
:1010200000230C93ADF83C300D936B6000230DF161
:1010300025028DED008B4FF0010A09A958468DF865
:1010400025308DF824A001F075FB9DF824200023A5
:10105000002A40F0AF80204601F01EFF0546002820
:1010600047D1DFF8F4B101F0FDFBDBF80030984226
:101070003FD301F0F7FB0790FFF7BAFB079A4FF455
:10108000C873B0FBF3F101FB130302F5167010FAFD
:1010900083F0CBF80000DFF8C4B19BF80010079193
:1010A000002914BF2B46534610A88DF83030FFF7A7
:1010B000B7FB0799C1F11002D2B2062A10AB28BFC4
:1010C000062219440DF13100079200F043F9079A06
:1010D0000CAB0393182302930132564BD2B2CDE9E5
:1010E00000A304923B463246204601F01BFF8BF8DA
:1010F000005001F0B7FB504A504D1368C31AB3F5C6
:101100007A7F32D3106001F0AFFB02460B462046D7
:1011100001F0A0FF204601F0BFFE30B32B7ADFF8CC
:1011200040A1002B14BF032302238AF8053001F0ED
:1011300099FB0DF1400B4FF47A730122B0FBF3F0F1
:101140005946CAF80000504600F008FA18230293E6
:101150003B4B019380B240F25513CDE903B00093AD
:1011600042464B46204601F0DDFE2B7AB3B101F03A
:1011700079FB4FF0000A83464FF48A7295F8D90044
:10118000504400F0030002FB005393F8E8100029DC
:1011900034D00AF1010ABAF1040FEFD1C82002F0ED
:1011A000E5FC2B7A002B7FF434AF15B0BDEC028B3D
:1011B000BDE8F08F4FF0904110A84A6982F02002FC
:1011C0004A611946102200F0D7F80DF126030AAA49
:1011D0000CA9584600F01AFE95E8030011AB83E80D
:1011E00003009DF83C308DF84C300C9B109310A9F7
:1011F000DDE90A23204602F001F917E7D3F8E010F1
:1012000049B12B68FA2B38BFFA23ABEB0101053348
:10121000B1EB430FBDD3FFF7D9FB4FF48A7200281F
:10122000B7D1BBE7AFF30080000000000000000072
:10123000A43300209C330020B84D002088480020B3
:10124000BC4D0020401DA12026812A0BF1C6A7C15C
:10125000D068080FD8330020A03300209D33002031
:101260008C23002008B5054800F074FEBDE8084056
:10127000034A0449002003F0ABBA00BFD833002072
:10128000F84D0020C50B00087047000070B502F053
:10129000F9FD094E094D30800024286833888342C7
:1012A00008D902F0EBFD2B6804440133B4F5204F5C
:1012B0002B60F2D370BD00BFEC4D0020C04D00206C
:1012C00002F092BE00F10060920000F5204002F0B2
:1012D00015BE0000054B1A68054B1B889B1A8342FC
:1012E00002D9104402F0CABD00207047C04D002052
:1012F000EC4D0020024B1B68184402F0C5BD00BF36
:10130000C04D0020024B1B68184402F0CFBD00BF47
:10131000C04D0020064991F8243033B10023086AFB
:1013200081F824300822FFF7CDBF0120704700BFAD
:10133000C44D0020022802BF4FF0904320229A6142
:1013400070470000022802BF4FF090434FF4001294
:101350009A61704710B50023934203D0CC5CC4540B
:101360000133F9E710BD000003460246D01A12F916
:10137000011B0029FAD1704702440346934202D070
:1013800003F8011BFAE770472DE9F8431F4D144697
:1013900095F824200746884652BBDFF870909CB32E
:1013A00095F824302BB92022FF2148462F62FFF701
:1013B000E3FF95F82400C0F10802A24228BF2246AC
:1013C000D6B24146920005EB8000FFF7C3FF95F8C7
:1013D0002430A41B1E44F6B2082E17449044E4B2F5
:1013E00085F82460DBD1FFF795FF0028D7D108E00E
:1013F0002B6A03EB82038342CFD0FFF78BFF0028D9
:10140000CBD10020BDE8F8830120FBE7C44D0020CC
:101410002DE9F0470D46044600219046284640F24B
:101420007912FFF7A9FF234620220021284601F068
:1014300087FF231D02222021284601F081FF631D22
:1014400003222221284601F07BFFA31D0322252130
:10145000284601F075FF04F10803102228212846D0
:1014600001F06EFF04F1100308223821284601F034
:1014700067FF04F1110308224021284601F060FFB4
:1014800004F1120308224821284601F059FF04F113
:10149000140320225021284601F052FF04F11803C2
:1014A00040227021284601F04BFF04F1200308225E
:1014B000B021284601F044FF04F121030822B8219D
:1014C000284601F03DFF04F12207C0263B46314685
:1014D00008222846083601F033FFB6F5A07F07F151
:1014E0000107F3D104F1320308223146284601F006
:1014F00027FF002704F1330A94F832304FEAC70976
:101500009F4209F5A47615D3B8F1000F08D13146F2
:1015100004F599730722284601F012FF09F24F16CD
:10152000274694F832213B1B93420CD3F01DC00890
:10153000BDE8F0870AEB070308223146284601F090
:10154000FFFE0137D8E707F2331331460822284659
:1015500001F0F6FE08360137E3E7000013B5044654
:101560000846002101602346C0F8031020220190A4
:1015700001F0E6FE0198231D0222202101F0E0FE89
:101580000198631D0322222101F0DAFE0198A31DB8
:101590000322252101F0D4FE019804F10803102252
:1015A000282101F0CDFE072002B010BDF7B50023C1
:1015B000047F00910E4607221946054601F084FD7E
:1015C000731C0093012200230721284601F07CFDB3
:1015D000C4B9B31C0093052223460821284601F014
:1015E00073FD0D243746B278BB1B934211D32B7F7A
:1015F000A88A0734E408BBB9844294BF00200120C4
:1016000003B0F0BDAB8ADB00083BDB08B3700824F5
:10161000E8E7FB1C0093214600230822284601F03E
:1016200053FD08340137DEE7201A18BF0120E7E731
:10163000F7B50023047F00910E460822194605469F
:1016400001F042FD731CC4B90822009311462346E1
:10165000284601F039FD1024012372785F1C013BFC
:10166000934211D32B7FA88A0734E408BBB9844284
:1016700094BF0020012003B0F0BDAB8ADB00083B23
:10168000DB0873700824E7E7F31900932146002371
:101690000822284601F018FD08343B46DDE7201AF1
:1016A00018BF0120E7E70000F8B50E4605461446CE
:1016B000002181223046FFF75FFE2B4608220021E1
:1016C000304601F03DFE7CB96B1C072208213046F4
:1016D00001F036FE0F2401236A785F1C013B934220
:1016E00004D3E01DC008F8BD0824F4E7EB19214637
:1016F0000822304601F024FE08343B46ECE70000A7
:10170000F8B50E46054614460021CE223046FFF7B6
:1017100033FE2B4628220021304601F011FE7CB911
:1017200005F1080308222821304601F009FE302483
:101730002F462A7A7B1B934204D3E01DC008F8BDD4
:101740002824F5E707F1090321460822304601F075
:10175000F7FD08340137ECE7F7B5047F00910E463A
:10176000012310220021054601F0AEFCC4B9B31CD0
:101770000093092223461021284601F0A5FC1924D4
:1017800037467288BB1B9A4211D82B7FA88A073430
:10179000E408BBB9844294BF0020012003B0F0BD2F
:1017A000AB8ADB00103BDB0873801024E8E73B1DAD
:1017B0000093214600230822284601F085FC0834C6
:1017C0000137DEE7201A18BF0120E7E730B5094DE1
:1017D0000A4491420DD011F8013B5840082340F3D0
:1017E0000004013B2C4013F0FF0384EA5000F6D1C3
:1017F000EFE730BD2083B8EDF7B5364A1068516881
:101800006B4603C36A4634493448082303F00EF894
:10181000044690BB0A25324A106851686B4603C3E0
:101820006A4630492D48082303F000F80446002892
:1018300047D00369B3F5583F43D8B0F86620B2F5F6
:10184000826F3ED1284A024402F15C018B4238D3B8
:101850005C3B224900209E1AFFF7B8FF324607463C
:1018600004F164010020FFF7B1FFA3689F4228D173
:10187000E368984208BF002523E00369B3F5583FA9
:1018800026D8428BB2F5826F20D1174A024402F16A
:1018900010018B4218D3103B104900209D1AFFF70E
:1018A00095FF2A46064604F118010020FFF78EFF37
:1018B000A3689E4202D1E368984201D00D25AAE7B1
:1018C0000025284603B0F0BD1025A4E70C25A2E7AB
:1018D0000B25A0E79C480008DC5F030000A000087F
:1018E000A5480008905F03000860FFF710B5037C6F
:1018F000044613B9006802F081FF204610BD0000C5
:101900000023BFF35B8FC360BFF35B8FBFF35B8FBD
:101910008360BFF35B8F7047BFF35B8F0068BFF3DB
:101920005B8F704770B505460C30FFF7F5FF05F18A
:10193000080604463046FFF7EFFFA04206D93046BE
:101940006D68FFF7E9FF2544281A70BD3046FFF7A0
:10195000E3FF201AF9E7000070B50546406898B12A
:1019600005F10800FFF7D8FF05F10C0604463046E4
:10197000FFF7D2FF8442304694BF6D680025FFF721
:10198000CBFF013C2C44201A70BD000038B50C463A
:101990000546FFF7C7FFA04210D305F10800FFF787
:1019A000BBFF04446868B4FBF0F100FB1144BFF3D3
:1019B0005B8F0120AC60BFF35B8F38BD0020FCE77C
:1019C0002DE9F041144607460D46FFF7C5FF844256
:1019D00028BF0446D4B1B84658F80C6B4046FFF710
:1019E0009BFF3044286040467E68FFF795FF331A1E
:1019F0009C4203D86C600120BDE8F0816B60A41BA1
:101A00003B68AB602044E8600220F5E72046F3E73E
:101A100038B50C460546FFF79FFFA04210D305F1ED
:101A20000C00FFF779FF04446868B4FBF0F100FB99
:101A30001144BFF35B8F0120EC60BFF35B8F38BDB7
:101A40000020FCE72DE9FF41884669460746FFF77D
:101A5000B7FF6C4606B204EBC6060025B44209D0B7
:101A60006268206808EB0501FFF774FC63680834BE
:101A70001D44F3E729463846FFF7CAFF284604B05D
:101A8000BDE8F081F8B505460C300F46FFF744FF7E
:101A900005F1080604463046FFF73EFFA0423046F7
:101AA00088BF6C68FFF738FF201A386020B13046D5
:101AB0002C68FFF731FF2044F8BD000073B51446D1
:101AC00006460D46FFF72EFF844228BF04460190CC
:101AD000DCB101A93046FFF7D5FF019B33B932686D
:101AE000C5E90233C5E9002401200CE09C4238BF5F
:101AF00001942860019868608442F5D93368AB602E
:101B0000241AEC60022002B070BD2046FBE7000002
:101B10002DE9FF410F466946FFF7D0FF6C4600B242
:101B200004EBC0050026AC4209D0D4F8048054F878
:101B3000081BB8194246FFF70DFC4644F3E7304650
:101B400004B0BDE8F081000038B50546FFF7E0FFBE
:101B5000044601462846FFF719FF204638BD00001D
:101B6000302383F3118862B670470000002383F3AB
:101B7000118862B67047000001207047704700006E
:101B800010B41346026814680022A4465DF8044BA2
:101B90006047000000F5805090F85904704700003D
:101BA00000F5805090F852047047000000F5805016
:101BB00090F95804704700005020704700F580529B
:101BC00008B5FFF7CDFFD2F89834D2F89404184442
:101BD000D2F890341844D2F878341844D2F88834C3
:101BE0001844D2F884341844FFF7C0FF08BD000041
:101BF00038B5C26A936923F001039361044600F08B
:101C000031FE0546E36A9B69DB0706D500F02AFE34
:101C1000431BFA2BF6D9002004E004F58054012080
:101C200084F8520438BD00002DE9F04F0C4600F551
:101C3000805185B01F4691F85234BDF83890054662
:101C400090469BB1D1F874340133C1F874342368E1
:101C50009A0006D4237B082B0BD9627B0AB10F2B89
:101C600007D9D1F878340133C1F878344FF0FF3018
:101C70000FE0FFF775FFEB6AD3F8C42012F4001AE7
:101C80000AD0D1F87C340133C1F87C34FFF76EFF01
:101C9000002005B0BDE8F08FD3F8C46022686B6AFD
:101CA000C6F301464FF0480B002A1BFB063BB4BFAE
:101CB00042F080429204CBF8002023685B0044BFCE
:101CC00042F00052CBF80020227B330643EA024365
:101CD000CBF80430607B720118B343F44013CBF8A7
:101CE0000430D1F8A4340133C1F8A434AB1803F59F
:101CF0008353197B41F020011973207B039200F07C
:101D00000DFE039A033080105FFA8AF383420AF1D2
:101D1000010A0DDA04EB83010BEB83034968996038
:101D2000F2E7AB1803F58353197B60F34511E3E742
:101D3000EB6A0121B140C3F8CC10AB1803F5825314
:101D4000C3E9048705EB461303F582532146183394
:101D500004F10C0051F804CB43F804CB8142F9D1D3
:101D6000098819802A4441F268032846D65002F5B2
:101D7000805209F0030392F86C1043F0100321F035
:101D80001F010B4382F86C30FFF7F0FE4246CDF89E
:101D900000903B46214600F087FD012079E70000D6
:101DA00013B500F580540191606CFFF7D5FD1F2835
:101DB0000AD90199606C2022FFF744FEA0F12003AC
:101DC0005842584102B010BD0020FBE708B500F5AD
:101DD0008050FFF7C5FE406CFFF792FDBDE808405C
:101DE000FFF7C4BE002202608281426082607047B9
:101DF00010B500220023C0E900230023044603811C
:101E00000C30FFF7EFFF204610BD00002DE9F04732
:101E1000074688B007F5805468469A468846FFF71B
:101E20009FFE9146FFF7E4FF606CFFF77BFD1F28E4
:101E30002CD9606C20226946FFF786FE202825D128
:101E400094F8523413B303AD444605AB2E4603CE8B
:101E50009E4220606160354604F10804F6D1306886
:101E60002060B388A380DDE90023C9E90023BDF821
:101E70000830AAF80030FFF779FE4A46534641463B
:101E8000384608B0BDE8F04700F0FCBCFFF76EFE36
:101E9000002008B0BDE8F0872DE9F84F0023064682
:101EA000C0E90133284B46F8303B00F58154054624
:101EB00088463746103438462037FFF799FFA74247
:101EC000F9D105F580544FF4805326630026C4E908
:101ED0000D366764012305F5835705F5A359E663BD
:101EE00084F8403084F84830103709F110094FF079
:101EF000000A4FF0000B47E908ABA7F11800FFF705
:101F000071FF203747F8286C4F45F4D184F8588486
:101F1000A4F85A64A4F85C64A4F85E6484F860646D
:101F2000A4F86264A4F86464A4F8666484F868643D
:101F3000B8F1000F02D0054800F08EFC044BEB62B4
:101F40002846BDE8F88F00BFCC480008B04800081C
:101F50000064004010B5044B197804464A1C1A70FE
:101F6000FFF79AFF204610BDF54D00202DE9F04304
:101F700000295FD03048314BB3FBF1F381428CBF75
:101F80000A201120451EB3FBF0F700FB1730ECB21E
:101F900020B1022D2846F5D8002037E07D1EB5F58A
:101FA000806F33D2C4EBC40808F103034FEAE30E99
:101FB000C3F3C703A4EB030C0EF101094FF47A70CD
:101FC0005FFA8CF60EFB000E59FA8CFCBEFBFCFC93
:101FD000BCF5617F1CDC1FFA8CF4581C56FA80F0AB
:101FE00047431648B0FBF7F7B942D5D1013BDBB206
:101FF0000F2BD1D8711EC9B207294FF0000005D8A8
:10200000107114805580537191710120BDE8F083E7
:1020100008F1FF334FEAE30CC3F3C703E41A0CF1F2
:10202000010EE6B20CFB00005EFA84F4B0FBF4F49F
:10203000A4B2D2E70846E9E73F420F0000366E013E
:102040000B4B10B54FF45472044600211846FFF7AD
:1020500093F9084BA3614033E361D8332362F03333
:102060006362E36A60610022C3F8C02010BD00BF54
:1020700000A4004070A400402DE9F04F00F5805509
:10208000994695F85834012B89B004468A46904603
:1020900004D90027384609B0BDE8F08F8D4A52F8C0
:1020A000231009B942F823008B49C4F80CA00B781F
:1020B00084F8109093B9FFF753FD884B9A6D42F066
:1020C00000729A659A6B42F000729A639A6B22F0E2
:1020D00000729A6301230B70FFF748FD95F85134A5
:1020E00073B903211520FFF73BFD01F015FC032117
:1020F000162001F011FC012385F85134FFF736FD5D
:10210000FFF72EFDE26A936923F01003936100F05C
:10211000A9FB0746E36A9E6916F0080607D000F09F
:10212000A1FBC31BFA2BF5D9FFF720FDB1E79A6994
:1021300042F001029A6100F095FB0746E36A9A6952
:10214000D00705D400F08EFBC31BFA2BF6D9EBE7C2
:102150009A6942F002029A61E36A00275F65FFF71D
:1021600005FD686CFFF7CCFB04F5825B0BF1100BEF
:10217000202200216846FFF7FFF802A8FFF732FE91
:1021800006976A460BEB06030DF1180E9446BCE861
:102190000300F44518605960624603F10803F5D165
:1021A000DCF80000186020369CF804201A71B6F59F
:1021B000806FDDD1002304F5A25285F8503485F8F4
:1021C00053341A3251462046FFF7D0FE074690B9E5
:1021D000E26A936923F00103936100F043FB054633
:1021E000E36A9B69D9077FF554AF00F03BFB431BC3
:1021F000FA2BF5D94DE795F85F6495F85E24C5F89C
:102200006CA4360246EA426695F86024E36A1643F7
:10221000B5F85C2446EA0246DE61B8F1000F29D029
:1022200004F5A352023241462046FFF79FFE90B9C3
:10223000E26A936923F00103936100F013FB054602
:10224000E36A9B69DA077FF524AF00F00BFB431BC1
:10225000FA2BF5D91DE795F8683495F86714C5F899
:1022600070841B0143EA0123B5F86414E26A43EA6F
:102270000143D3602046FFF7E3FE002385F859347D
:10228000E36A6FF040421A65E36A154A5A65E36AE9
:1022900044229A65E36A0722C3F8DC20E36A03223A
:1022A0009145DA653FF4F6AEE26A936923F00103E3
:1022B000936100F0D7FA0646E36A9B69DB0705D510
:1022C00000F0D0FA831BFA2BF6D9E2E6012385F859
:1022D0005234DFE6F04D0020F44D002000100240A3
:1022E0009B0008002DE9F04F054689B090469946BD
:1022F000002741F2680A00F58056EB6AD3F8D43023
:10230000FB40D8074AD505EB471252444FEA471B1A
:102310001379190742D4D6F880340133C6F88034D3
:1023200013799A0648BFD6F8A83405EB0B0248BFCC
:102330000133524448BFC6F8A834137943F0080368
:102340001371DB0722D596F85334FBB105F582549F
:10235000183468465C44FFF74BFD03AB04F1080CEE
:10236000206861681A4603C2083464451346F7D1F1
:1023700020681060A2889A800123ADF808302B688D
:10238000CDE90089DB6B694628469847D6F8543476
:1023900023B1D6F89C340133C6F89C340137202F82
:1023A000ABD109B0BDE8F08F2DE9F04F8DB00446F8
:1023B0000F4600F059FA82468946002F56D1E36A4B
:1023C000D3F89020920141BF04F58051D1F89424B4
:1023D0000132C1F89424D3F89020160703D10020CD
:1023E0000DB0BDE8F08FD3F89050E669C5F3012534
:1023F000482303FB0566E8464046FFF7F3FC3268D6
:1024000051004ABF22F06043C2F38A4343F00043C5
:10241000920048BF43F080430093736813F40013A5
:102420001FBF04F5805201238DF80D30D2F8AC3473
:102430000EBF8DF80D300133C2F8AC34F38803F0D1
:102440000F038DF80C304FF0000B9DF80C0000F0DE
:1024500065FA5FFA8BF3984220D9F2180CA90B4465
:10246000127A03F82C2C0BF1010BEEE7012FB6D1F9
:10247000E36AD3F89820950141BF04F58051D1F863
:1024800094240132C1F89424D3F898201007A6D0E0
:10249000D3F89850266AC5F30125A9E7EFB9E36A96
:1024A000C3F8945004A8FFF7A3FC98E80F0007AD09
:1024B00007C52B800023ADF8183023682046CDE9EE
:1024C00004A9DB6B04A9984704F5805458B1D4F8EB
:1024D0008C340133C4F88C3482E7012F04BFE36AE3
:1024E000C3F89C50DEE7D4F890340133C4F890343C
:1024F000012075E7F8B505460F4600F58054012622
:1025000039462846FFF750FF10B184F85364F7E7C7
:10251000D4F8543423B1D4F89C340133C4F89C3437
:10252000F8BD0000F0B5C36A1A6C12F47F0F2BD00F
:1025300000F580541B6CC4F8A03441F268050023F8
:1025400047194FF0010C00EB43122A445E01117948
:1025500011F0020F15D0490713D4B959C66AD6F83D
:10256000C8E00CFA01F111EA0E0F0AD0C6F8D0103B
:10257000117941F004011171D4F888240132C4F8B2
:1025800088240133202BDED1F0BD000010B5254C8E
:10259000254B226802B338B31A6D12060ED580227D
:1025A0001A6500F061F950EA01020B4602D00138C9
:1025B00061F1000302462068FFF794FE1A4A136D8A
:1025C0001B032AD523684FF4002103F580531165BE
:1025D000012283F8592420E001221A6508221A6595
:1025E0004FF480621A6510BD196DC80702D4196DC9
:1025F000890705D50321196510460021FFF77AFFE9
:10260000094B1A6D100702D41A6DD10605D5182290
:102610001A6520680121FFF76DFF2068BDE81040B2
:10262000FFF780BFF04D00200064004008B5FFF7C1
:1026300097FAFFF777FFBDE80840FFF797BA000069
:10264000C36AD3F8C40080F40010C0F34050704750
:1026500000F5805008B5FFF783FA406CFFF762F988
:10266000FFF784FA43090CBF0120002008BD0000D9
:1026700000F5805393F8592462B1C16A8A6922F047
:1026800001028A61D3F898240132C3F89824002209
:1026900083F85924704700002DE9F74300F5825173
:1026A00098461031FFF75CFA002541F2680E4FF0B2
:1026B000010900F5805C00EB4514744423795E0742
:1026C0001CD4DB061AD5C36A8E69D3F8C87009FA20
:1026D00006F63E4212D04F6801970F689742019F5D
:1026E00077EB08070AD2C3F8D060237943F00403DC
:1026F0002371DCF884340133CCF884340135202D87
:1027000001F12001D7D103B0BDE8F043FFF72EBAA5
:10271000F8B51E46002313700F4605461446FFF712
:1027200097FF80F0010038701EB12846FFF788FF40
:102730002070F8BD2DE9F04F85B09946DDE90EA374
:102740000D4602931378019391F800B08046164627
:1027500000F08AF82B7804460F4613B93378002B23
:1027600042D022463B464046FFF796FFFFF75EFF0A
:10277000FFF77EFF4B4632462946FFF7C9FF2B780D
:1027800033B1BBF1000F03D0012005B0BDE8F08FDD
:10279000337813B1019B002BF6D108F580530393D6
:1027A000029B544577EB03031ED2039BD3F85404DA
:1027B000D0B10368AAEB0401DB6889B298474B46A5
:1027C000324629464046FFF7A3FF2B7813B1BBF1F1
:1027D000000FD9D1337813B1019B002BD4D100F075
:1027E00043F804460F46DBE70020CEE708B500209B
:1027F000FFF7CCFEBDE8084001F050B808B5012055
:10280000FFF7C4FEBDE8084001F048B800B59BB032
:10281000EFF3098168226846FEF79CFDEFF305831C
:10282000014B9B6BFEE700BF00ED00E008B5FFF732
:10283000EDFF000000B59BB0EFF309816822684608
:10284000FEF788FDEFF30583014B5B6BFEE700BFEE
:1028500000ED00E0FEE700000FB408B5029801F0BB
:102860001BF9FEE701F00EBC01F0E6BB13B56C46A8
:1028700084E80600031D94E8030083E805000120B6
:1028800002B010BD73B58568019155B11B885B0717
:1028900007D4D0E900369B6B9847019AC1B2304605
:1028A000A847012002B070BDF0B5866889B0054622
:1028B0000C465EB1BDF838305B070AD4D0E900376A
:1028C0009B6B98472246C1B23846B047012009B0F9
:1028D000F0BD00220023CDE900230023ADF808302D
:1028E0000A4603AB01F10806106851681C4603C490
:1028F0000832B2422346F7D1106820609288A28045
:10290000FFF7B2FF0423ADF808302B68CDE90001D2
:10291000DB6B694628469847D8E70000082817D996
:1029200009280CD00A280CD00B280CD00C280CD06D
:102930000D280CD00E2814BF4020302070470C20EA
:1029400070471020704714207047182070472020CF
:10295000704700002DE9F041456A15B94162BDE8B4
:10296000F0814B6823F06047C3F38A464FEAD37E79
:10297000C3F3807816EA230638BF3E46AC462B46A2
:102980005A68BEEBD27F22F060440AD0002A18DADF
:10299000A40CB44217D19D420FD10D60DEE713465F
:1029A000EEE7A74207D102F08044C2F380724245AD
:1029B0000BD054B1EFE708D2EDE7CCF800100B6074
:1029C000CDE7B44201D0B442E5D81A689C46002A4B
:1029D000E5D11960C3E700002DE9F047089D01F03B
:1029E00007044FEAD508224405F0070500EBD100A3
:1029F0004FF47F49944201D1BDE8F08704F0070706
:102A000005F0070A57453E4638BF5646C6F1080648
:102A1000111B8E4228BF0E46E10808EBD50E415C23
:102A200013F80EC0B94029FA06F721FA0AF1FFB2ED
:102A30008CEA010147FA0AF739408CEA010C03F8E5
:102A40000EC034443544D5E780EA0120082341F222
:102A5000210201B24000002980B203F1FF33B8BF68
:102A6000504013F0FF03F4D17047000038B50C4616
:102A70008D18A54200D138BD14F8011BFFF7E4FF03
:102A8000F7E7000042684AB11368436043898189CF
:102A900001339BB29942438138BF8381104670470E
:102AA00070B588B0202204460D4668460021FEF726
:102AB00063FC20460495FFF7E5FF024658B16B46DC
:102AC000054608AE1C4603CCB44228606960234624
:102AD00005F10805F6D1104608B070BD082817D9D1
:102AE00009280CD00A280CD00B280CD00C280CD0AC
:102AF0000D280CD00E2814BF4020302070470C2029
:102B0000704710207047142070471820704720200D
:102B100070470000082817D90C280CD910280CD9A8
:102B200014280CD918280CD920280CD930288CBF8F
:102B30000F200E207047092070470A2070470B2095
:102B400070470C2070470D20704700002DE9F843B6
:102B5000078C072F04461ED9D0E9029800254FF6AE
:102B6000FF73C5F12006A5F1200029FA05F108FA46
:102B700006F628FA00F031430143C9B21846FFF7C0
:102B800063FF0835402D0346EBD1E1693A46BDE8C5
:102B9000F843FFF76BBF4FF6FF70BDE8F883000006
:102BA00010B54B6823B9CA8A63F30902CA8210BD03
:102BB00004691A681C600361C38A013BC3824A60CE
:102BC000EFE700002DE9F84F1D46CB8A0F46C3F30F
:102BD00009010529814692460B4630D00020AAB251
:102BE00007F11A049EB2042E1FFA80F80FD8904500
:102BF00003F1010306D3FB8A0A4462F30903FB8253
:102C000001201AE01AF80060E6540130EAE7904526
:102C1000F1D2A1F1050B1C237C68BBFBF3F203FB93
:102C200012BB1FFA8BF6002C45D14846FFF72AFF4E
:102C3000044638B978606FF00200BDE8F88F4FF0B5
:102C40000008E6E7002606607860ADB24FF0000BA2
:102C5000454510D90AEB0803221D13F8011B9155B5
:102C6000B1B208F101081B291FFA88F82BD045459D
:102C700006F10106F1D8FB8AC3F30902154465F396
:102C80000903BCE7013292B21C462368002BF9D13C
:102C90006B1F0B441C21B3FBF1F301339BB29A422F
:102CA000D3D2BBF1000FD0D14846FFF7EBFE20B9DD
:102CB000C4F800B0BFE70122E7E7C0F800B05E4605
:102CC00020600446C1E74545D5D94846FFF7DAFEFE
:102CD00008B92060AFE7C0F800B0002620600446C5
:102CE000B6E700002DE9F04F2DED028B1C4683B0B6
:102CF0005B69019207468846002B00F09A80238C7E
:102D00002BB1E269002A00F09480072B35D807F137
:102D10000C00FFF7B7FE054638B96FF002052846EC
:102D200003B0BDEC028BBDE8F08F14220021FEF74A
:102D300023FB228CE16905F10800FEF70BFB208CD8
:102D4000013080B2FFF7E6FEFFF7C8FE013880B21F
:102D50002084013028746369228C1B782A4403F094
:102D60001F0363F03F0348F0004113723846696067
:102D70002946FFF7EFFD0125D1E700F10C034FF0E5
:102D8000000908EE103A4FF0800A4E464D4618EE04
:102D9000100AFFF777FE83460028BED014220021D8
:102DA000FEF7EAFA002E3AD1019BABF80830022276
:102DB0000BF1080E1FFA82FC0CF10100BCF1060FAA
:102DC000218C80B201D88E422BD3FFF7A3FEFFF7F0
:102DD00085FE62691278013802F01F028E4208BF38
:102DE0004FF0400A42EA49121BFA80F14AEA020A0D
:102DF000013048F0004281F808A08BF81000CBF8B1
:102E0000042059463846FFF7A5FD238C0135B3420F
:102E10002DB289F001094FF0000AB8D17FE70022F6
:102E2000C6E7E169895D0EF802100136B6B20132DB
:102E3000C0E76FF0010572E7F8B515460E4630227F
:102E4000002104461F46FEF797FA069B6360B5F51E
:102E5000001F079BA76034BF6A094FF6FF72A36289
:102E600097B2E66104F1100000239A4206D80023CD
:102E70000360A782E3822383E360F8BD0660013329
:102E800030462036F1E7000003781BB94BB2002B27
:102E9000C8BF01707047000000787047F8B50C4655
:102EA000C969074611B9238C002B37D1257E1F2D08
:102EB00034D8387828BB228C072A2CD8268A36F0BA
:102EC00003032BD14FF6FF70FFF7D0FD20F0010078
:102ED0003102400441EA0561400C41EA40254FF6C9
:102EE000FF72234629463846FFF7FCFE002807DD1F
:102EF000626913780133DBB21F2B88BF0023137084
:102F0000F8BD218A2D0645EA012505432046FFF735
:102F10001DFE0246E5E76FF00300F1E76FF00100E8
:102F2000EEE7000070B58AB004461646002128225C
:102F300068461D46FEF720FABDF83830ADF810306F
:102F40000F9B05939DF840308DF81830119B079327
:102F50006946BDF84830ADF820302046CDE902651D
:102F6000FFF79CFF0AB070BD2DE9F041D36905461B
:102F70000C4616460BB9138C5BBB377E1F2F28D827
:102F800095F80080B8F1000F26D03046FFF7DEFD3F
:102F90003378210241EAC33141EA0801338A41EA28
:102FA000076141EA03410246334641F08001284669
:102FB000FFF798FE00280ADD3378012B07D17269EC
:102FC00013780133DBB21F2B88BF00231370BDE8D9
:102FD000F0816FF00100FAE76FF00300F7E70000FF
:102FE000F0B58BB004460D461746002128226846EE
:102FF0001E46FEF7C1F99DF84C305A1E534253410C
:103000008DF800309DF84030ADF81030119B0593DD
:103010009DF848308DF81830149B07936A46BDF828
:103020005430ADF8203029462046CDE90276FFF72E
:103030009BFF0BB0F0BD0000406A00B10430704748
:10304000436A1A68426202691A600361C38A013BDB
:10305000C38270472DE9F041D0F82080194E144604
:103060001D464146002709B9BDE8F081D1E9022398
:10307000A21A65EB0303964277EB03031ED2036AA1
:103080008B420DD1FFF78CFD036A1B680362036955
:103090000B60C38A0161016A013BC3828846E2E793
:1030A000FFF77EFD0B68C8F8003003690B60C38A28
:1030B0000161013BC382D8F80010D4E78846096853
:1030C000D1E700BF80841E002DE9F04F8BB00D4684
:1030D000DDF8509014469B468046002800F0198188
:1030E000B9F1000F00F01581531E3F2B00F2118142
:1030F000012A03D1BBF1000F40F00B810023CDE981
:103100000833B8F81430B5EBC30F4FEAC30703D345
:1031100000200BB0BDE8F08F2B199F42D8F80C307F
:103120003ABF7F1BFFB227461BB9D8F81030002BDF
:103130007AD0272D4ED8C5F12806B7424FF00003AC
:103140002CBFF6B23E4600932946D8F8080008ABDB
:103150003246FFF741FCA7EB060A35445FFA8AFACC
:10316000B8F8143003F10053053BDB000493D8F8A2
:103170000C3003932821039B13B1BAF1000F2CD11B
:10318000D8F8100040B1BAF1000F05D0009608AB96
:103190005246691AFFF720FC38B2002FB8D06607F4
:1031A0000AD00AAB03EBD401624211F8083C02F0EA
:1031B0000702134101F8083C082C3CD9102C40F2BE
:1031C000B580202C40F2B780BBF1000F00F09C804E
:1031D000082334E0BA460026C2E7049BE02B28BF50
:1031E000E02306930B44AB42059314D95A1B039872
:1031F0000096924534BF5246D2B2691A08AB0430E9
:103200000792FFF7E9FB079A1644AAEB020A154456
:10321000F6B25FFA8AFA049B069A05999B1A049300
:10322000039B1B680393A6E70093D8F8080008AB3C
:103230003A462946AEE7BBF1000F13D00123B4EBA9
:10324000C30F6CD0082C12D89DF82030621E23FAD0
:1032500002F2D50706D54FF0FF3202FA04F42343F9
:103260008DF820309DF8203089F8003051E7102C7F
:1032700012D8BDF82030621E23FA02F2D10706D51B
:103280004FF0FF3202FA04F42343ADF82030BDF8CA
:103290002030A9F800303CE7202C0FD80899631E95
:1032A00021FA03F3DA0705D54FF0FF3202FA04F4EE
:1032B0000C430894089BC9F800302AE7402C2BD017
:1032C000DDE90865611EC4F12102A4F1210326FA9B
:1032D00001F105FA02F225FA03F311431943CB0772
:1032E00012D50122A4F12003C4F1200102FA03F354
:1032F00022FA01F1A240524243EA010363EB430385
:1033000032432B43CDE90823DDE90823C9E9002333
:10331000FFE66FF00100FCE66FF00800F9E6082C0C
:10332000A0D9102CB3D9202CEED8C3E7BBF1000FE5
:10333000ADD0022383E7BBF1000FBBD004237EE7AF
:1033400030B5012A144638BF0124402C85B028BF6F
:1033500040240025012ACDE9025518D81B788DF8A4
:10336000083063070AD004AB03EBD405624215F8BA
:10337000083C02F00702934005F8083C0091034620
:103380002246002102A8FFF727FB05B030BD082A1E
:10339000E4D9102A03D81B88ADF80830E1E7202AC9
:1033A0008DBFD3E900231B680293CDE90223D8E740
:1033B00010B5CB681BB98B600B618B8210BD0469A3
:1033C0001A681C600361C38A013BC382CA60F0E7CC
:1033D00003064CBFC0F3C0300220704708B5024658
:1033E000FFF7F6FF022806D15306C2F30F2001D1E2
:1033F00000F0030008BDC2F30740FBE72DE9F04FE2
:1034000093B0CDE903230A6804461046FFF7E0FFB6
:10341000022814BFC2F306260026002A0D46824663
:1034200080F2F28112F0C04940F0EE81097B002960
:1034300000F0EA81022803D02378B34240F0E7810C
:10344000C2F304630693104602F07F030593FFF76F
:10345000C5FF059B29444FEA834848EA0A4848EAE1
:103460004668CE7800230022CDE90823F30983467D
:1034700048EA0008029367D0059B009302466768FC
:10348000534608A92046B847002800F0C381276AA0
:103490004FB9414604F10C00FFF702FB074690B913
:1034A0006FF0020054E03B6998450DD03F68002F53
:1034B000F9D1414604F10C00FFF7F2FA0746002863
:1034C000EED0236A3B60276297F817C006F01F080A
:1034D000CCF3840CACEB08001FFA80FE0028B8BFC8
:1034E0000EF12000A8EB0C031FFA83FED7E902219E
:1034F000B8BF00B2002B0793BEBF0EF120031BB272
:10350000079352EA010338D0039BDFF824E39A1AA9
:10351000049B4FF0000C63EB010196457CEB01032B
:103520002BD36B7B97F81AE0734519D1029B002BC4
:1035300078D0012821DC7868F8B9DFF8F0C294452A
:1035400070EB010316D337E0276A27B96FF00C0040
:1035500013B0BDE8F08F3B699845B5D03F68F4E7FC
:10356000B24890427CEB010301D30020F0E7029BBC
:10357000002BFAD0079B0F2B17DCFA7DB30002F06B
:10358000030203F07C031343FB7539462046FFF723
:1035900007FB6B7BBB76029B3BB9FB7DC3F38402CD
:1035A000013262F38603FB75D0E76A7BBB7E9A42E9
:1035B000DBD1029B002B35D0B309022B32D0039B09
:1035C000BB60049BFB60142200210DA8FDF7D4FE14
:1035D000039B0A93049B0B932B1D0C932B7BADF841
:1035E0003EB0013BDBB2ADF83C30069B8DF842307B
:1035F000059B8DF8433094F82C308DF840A083F073
:1036000001038DF844308DF84180A3680AA9204653
:103610009847FB7DC3F38403013303F01F039B0230
:10362000FB82A2E7FB7DC6F34012B2EBD31F40F052
:10363000F480C3F38403434540F0F280029A2B7B6D
:10364000B609002A4DD0F2075DD4032B40F2EB807F
:10365000039BBB60049BFB602B7BAE1D033BDBB27B
:103660003246394604F10C00FFF7ACFA00280CDAB8
:1036700039462046FFF794FAFB7DC3F384030133F8
:1036800003F01F039B02FB820AE7DDE90884AB8895
:103690003B834FF6FF73C9F12000A9F1200228FAFD
:1036A00009F104FA00F0014324FA02F2114318462A
:1036B000C9B2FFF7C9F909F10809B9F1400F03468A
:1036C000E9D1B8822A7B033AD2B23146FFF7CEF96C
:1036D000FB7DB882DA43C2F3C01262F3C713FB75F5
:1036E00043E786B92E1D013BDBB23246394604F171
:1036F0000C00FFF767FA0028BADB2A7BB88A013A88
:10370000D2B23146E2E7F98AC1F30901013B04294B
:10371000DAB25BD8281D002307F11B069A4208D9AC
:1037200010F801CB06F801C0013101330529DBB2E5
:10373000F4D103990A9104990B91934207F11B016B
:103740000C9138BF043379680D9134BF55FA83F377
:1037500000230E93FB8AADF83EB0C3F309031A446D
:10376000069B8DF84230059B8DF8433094F82C3041
:10377000ADF83C2083F001038DF8443000238DF830
:1037800040A08DF841807B602A7BB88A013A291DD0
:10379000FFF76CF93B8BB882834203D1A3680AA977
:1037A0002046984720460AA9FFF702FEFB7DBA8A09
:1037B000C3F38403013303F01F039B02FB823B8BA3
:1037C0009A420CBF00206FF01000C1E67B68002B0E
:1037D000AFD0052001E01C3033461E68002EFAD120
:1037E000091A081D2E1D184401EB090CBCF11B0F12
:1037F0005FFA89F39DD89A429BD916F8013B00F8ED
:10380000013B09F10109EFE76FF00900A0E66FF055
:103810000A009DE66FF00B009AE66FF00D0097E648
:103820006FF00E0094E66FF00F0091E640420F003B
:1038300080841E00EFF3098305494A6B22F00102E0
:103840004A63683383F30988002383F31188704740
:1038500000EF00E0302080F3118862B60C4B0D4A77
:10386000D96821F4E0610904090C0A43DA60D3F84D
:10387000FC20094942F08072C3F8FC200A6842F03B
:1038800001020A602022DA7783F82200704700BF25
:1038900000ED00E00003FA05001000E010B5302351
:1038A00083F311880E4B5B6813F4006314D0F1EEC0
:1038B000103AEFF30984683C4FF08073E361094BE1
:1038C000DB6B236684F3098800F0A4F810B1064B83
:1038D000A36110BD054BFBE783F31188F9E700BF37
:1038E00000ED00E000EF00E0430600084606000897
:1038F0004FF0E023002258684FF0FF31930003F1AE
:10390000604303F5614301329042C3F88010C3F86D
:103910008011F3D27047000000F1604303F561436A
:103920000901C9B283F80013012200F01F039A4075
:1039300043099B0003F1604303F56143C3F8802111
:103940001A60704700230375826803691B689968D1
:103950009142FBD25A680360426010605860704721
:1039600000230375826803691B6899689142FBD83C
:103970005A680360426010605860704708B5084696
:10398000302383F311880B7D032B05D0042B0DD03E
:103990002BB983F3118808BD8B6900221A604FF0A0
:1039A000FF338361FFF7CEFF0023F2E7D1E9003256
:1039B00013605A60F3E70000FFF7C4BF054BD968F6
:1039C0000875186802681A60536001220275D86091
:1039D000FCF722BE004E002030B50C4BDD684B1CBE
:1039E00087B004460FD02B46094A684600F050F9CC
:1039F0002046FFF7E3FF009B13B1684600F052F941
:103A0000A86907B030BDFFF7D9FFF9E7004E0020E5
:103A10007D390008044B1A68DB6890689B689842FF
:103A200094BF002001207047004E0020084B10B5C5
:103A30001C68D86822681A60536001222275DC6015
:103A4000FFF78EFF01462046BDE81040FCF7E4BDBD
:103A5000004E0020044B1A68DB6892689B689A420B
:103A600001D9FFF7E3BF7047004E002038B5074C7F
:103A700007490848012300252370656000F000FC19
:103A80000223237085F3118838BD00BF2850002021
:103A900010490008004E002008B572B6044B1865A6
:103AA00000F0B6FA00F06EFB024B03221A70FEE73C
:103AB000004E00202850002000F02AB9EFF31180BA
:103AC00020B9EFF30583302282F31188704700009C
:103AD00010B530B9EFF30584C4F3080414B180F3D2
:103AE000118810BDFFF7B6FF84F31188F9E70000D5
:103AF0008B60022308618B82084670478368A3F1BC
:103B0000840243F8142C026943F8442C426943F8B8
:103B1000402C094A43F8242CC26843F8182C02228E
:103B200003F80C2C002203F80B2C044A43F8102C49
:103B3000A3F12000704700BF31060008004E0020AE
:103B400008B5FFF7DBFFBDE80840FFF735BF000011
:103B5000024BDB6898610F20FFF730BF004E00205A
:103B6000302383F31188FFF7F3BF000008B5014647
:103B7000302383F311880820FFF72EFF002383F3FF
:103B8000118808BD10B503689C68A2420CD85C6817
:103B90008A600B604C602160596099688A1A9A604B
:103BA0004FF0FF33836010BD1B68121BECE7000071
:103BB0000A2938BF0A2170B504460D460A26601945
:103BC00000F058FB00F044FB041BA54203D8751C11
:103BD0002E460446F3E70A2E04D9BDE870400120C2
:103BE00000F08EBB70BD0000F8B5144B0D46D961D6
:103BF00003F1100141600A2A1969826038BF0A2264
:103C0000016048601861A818144600F025FB0A27D7
:103C100000F01EFB431BA342064606D37C1C28195A
:103C200000F028FB27463546F2E70A2F04D9BDE805
:103C3000F840012000F064BBF8BD00BF004E00203A
:103C4000F8B506460D4600F003FB0F4A134653F83D
:103C5000107F9F4206D12A4601463046BDE8F84013
:103C6000FFF7C2BFD169BB68441A2C1928BF2C4684
:103C7000A34202D92946FFF79BFF2246314603485B
:103C8000BDE8F840FFF77EBF004E0020104E002038
:103C900010B4C0E9032300235DF8044B4361FFF730
:103CA000CFBF000010B5194C236998420DD0D0E960
:103CB0000032816813605A609A680A449A6000234F
:103CC00003604FF0FF33A36110BD2346026843F841
:103CD000102F53600022026022699A4203D1BDE88E
:103CE000104000F0C1BA936881680B44936000F003
:103CF000AFFA2269E1699268441AA242E4D91144F8
:103D0000BDE81040091AFFF753BF00BF004E002066
:103D10002DE9F047DFF8BC8008F110072C4ED8F8E9
:103D2000105000F095FAD8F81C40AA68031B9A427C
:103D30003ED81444D5E900324FF00009C8F81C40C1
:103D400013605A60C5F80090D8F81030B34201D122
:103D500000F08AFA89F31188D5E90331284698479B
:103D6000302383F311886B69002BD8D000F070FAF0
:103D70006A69A0EB04094A4582460DD2022000F090
:103D8000BFFA0022D8F81030B34208D15146284675
:103D9000BDE8F047FFF728BF121A2244F2E712EB02
:103DA000090938BF4A4629463846FFF7EBFEB5E712
:103DB000D8F81030B34208D01444211AC8F81C00B7
:103DC000A960BDE8F047FFF7F3BEBDE8F08700BF8C
:103DD000104E0020004E002000207047FEE700003B
:103DE000704700004FF0FF3070470000BFF34F8F67
:103DF000024A1369DB03FCD4704700BF0020024075
:103E000008B5094B1B7873B9FFF7F0FF074B5A69E8
:103E1000002ABFBF064A9A6002F188329A601A6887
:103E200022F480621A6008BD405000200020024049
:103E30002301674508B50B4B1B7893B9FFF7D6FFF5
:103E4000094B5A6942F000425A611A6842F48052A2
:103E50001A601A6822F480521A601A6842F480626A
:103E60001A6008BD40500020002002407F289ABF01
:103E700000F58030C0020020704700004FF4006061
:103E800070470000802070477F2808B50BD8FFF7E7
:103E9000EDFF00F500630268013204D10430834273
:103EA000F9D1012008BD0020FCE700007F2810B5F3
:103EB00004461FD8FFF79AFFFFF7A2FF0E4BF3222D
:103EC0001A6102225A615A6942EAC0025A615A6969
:103ED00042F480325A61FFF789FF4FF40061FFF727
:103EE000C5FF00F04BF9FFF7A5FF2046BDE81040E5
:103EF000FFF7CABF002010BD002002402DE9F843A3
:103F000040EA020313F00703144606D0304B40F298
:103F100031321A600020BDE8F88385182D4A954299
:103F20000CD92B4A40F236311160F3E7031D1B68B0
:103F30004A68934208D1083C08300831072C14D94C
:103F400002680B689A42F1D0FFF75AFFFFF74EFF65
:103F5000214E08314FF001084FF00009012CA1F16A
:103F6000080706D8FFF766FF01E0002CECD101201E
:103F7000D1E7C6F81480054651F8083C45F8043BE3
:103F800051F8043C4360FFF731FF336943F001030C
:103F90003361C6F81490026851F8083C9A420CD07C
:103FA0000B4B40F25E321A600C4B18600C4B1C60DD
:103FB0000C4B1F60FFF73EFFACE72D6851F8043C47
:103FC0009D4201F10801EBD1083C0830C6E700BF73
:103FD0003C50002000000408002002403050002027
:103FE0003850002034500020084908B50B7828B11B
:103FF0001BB9FFF705FF01230B7008BD002BFCD098
:10400000BDE808400870FFF715BF00BF4050002012
:1040100008B54FF4C0314FF0005000F0B1F8BDE8E2
:1040200008404FF480414FF0805000F0A9B80000E4
:10403000084600F0E3BB000070B582B0FFF73EFD1C
:104040000E4E054600F004F93268904237BF0C4A24
:104050000B49516814682EBFD1E90041013151600C
:104060000419034641F10001284601913360FFF72E
:104070002FFD0199204602B070BD00BF44500020C2
:104080004850002070B582B0FFF718FD104E05466D
:1040900000F0DEF83268904237BF0E4A0D49516891
:1040A00014682EBFD1E9004101315160041941F17A
:1040B00000010346284601913360FFF709FD01998D
:1040C0004FF47A7200232046FCF792F802B070BDDC
:1040D00044500020485000200244D2B2904200D107
:1040E0007047431C800000F1804000F514500068C8
:1040F00041F8040BD8B2F1E7124B10B5D3F8904059
:10410000240409D4D3F89040C3F89040D3F89040E9
:1041100044F40044C3F890400B4C2368024443F439
:1041200080732360D2B2904200D110BD431C800046
:1041300000F1804000F5145051F8044B0460D8B2EF
:10414000F1E700BF001002400070004007B50122F7
:1041500001A90020FFF7C0FF019803B05DF804FB40
:1041600013B50446FFF7F2FFA04205D0012201A9D2
:1041700000200194FFF7C0FF02B010BD704700009F
:104180007047000070470000074B45F255521A6017
:1041900002225A6040F6FF729A604CF6CC421A60D6
:1041A000024B01221A70704700300040545000202A
:1041B000034B1B781BB1034B4AF6AA221A607047C7
:1041C0005450002000300040054B1A6832B902F10B
:1041D000804202F50432D2F894201A60704700BF82
:1041E00050500020024B4FF40002C3F89420704757
:1041F0000010024008B5FFF7E7FF024B1868C0F354
:10420000407008BD5050002070470000FEE70000DD
:104210000A4B0B480B4A90420BD30B4BDA1C121A79
:10422000C11E22F003028B4238BF00220021FDF79D
:10423000A3B853F8041B40F8041BECE7744A0008C9
:10424000D8500020D8500020D850002000F0C2B82C
:104250004FF08043586A70474FF080430022586304
:104260001A610222DA6070474FF080430022DA6060
:10427000704700004FF0804358637047FEE700002E
:1042800070B51B4B01630025044686B058608562FB
:104290000E46FFF7DFFA04F11003C4E904334FF0D0
:1042A000FF33C4E90635C4E90044A560E562FFF7C1
:1042B000CFFF2B460246C4E9082304F134010D4A1E
:1042C000256580232046FFF713FC0123E0600A4A9E
:1042D0000375009272680192B268CDE90223074B20
:1042E0006846CDE90435FFF72BFC06B070BD00BF72
:1042F000285000201C490008214900087D42000880
:10430000024AD36A1843D062704700BF004E0020B3
:104310004B6843608B688360CB68C3600B69436103
:104320004B6903628B6943620B680360704700004E
:1043300008B5204BDA6A42F07F02DA62DA6A22F0CC
:104340007F02DA62DA6ADA6C42F07F02DA64DA6EED
:1043500042F07F02DA66184ADB6E11464FF0904059
:10436000FFF7D6FF02F11C0100F58060FFF7D0FFD8
:1043700002F1380100F58060FFF7CAFF02F1540135
:1043800000F58060FFF7C4FF02F1700100F5806066
:10439000FFF7BEFF02F18C0100F58060FFF7B8FF68
:1043A00002F1A80100F58060FFF7B2FFBDE8084008
:1043B00000F050B8001002402849000808B500F08D
:1043C000EDF9FFF753FBBDE80840FFF7FDBE000025
:1043D000704700000F4B9A6D42F001029A659A6F88
:1043E00042F001029A670C4A9B6F936843F0010305
:1043F00093604FF08043A7229A624FF0FF32DA6257
:1044000000229A615A63DA605A6001225A611A6086
:10441000704700BF00100240002004E04FF08042CF
:1044200008B51169D3680B40D9B2C9439B07116124
:1044300007D5302383F31188FFF73EFB002383F376
:10444000118808BD08B5FFF753FABDE8084000F031
:1044500081B900004E4B4FF0FF319A6A99629A6A17
:1044600000229A62986AD86A60F07F00D862D86A9F
:1044700000F07F00D862D86A186B1963186B1A6352
:10448000186B986B9963986B9A63986BD86BD96328
:10449000D86BDA63D86B186C1964196C1A64196CD0
:1044A000196E41F001011966D3F8801021F0010165
:1044B000C3F88010D3F88010996D41F08051996550
:1044C000996F21F080519967996F32494FF40040FC
:1044D0008860CA600A624A628A62CA620A634A6380
:1044E0008A63CA630A644A648A64CA640A654A655C
:1044F0004A604FF48072C1F880204FF440720A6025
:104500004A6912F48062FBD1D3F8901011F4407F15
:104510001EBF4FF48031C3F89010C3F89020D3F839
:10452000982042F00102C3F89820D3F8982092070F
:10453000FBD51A6842F480321A601A689003FCD5E1
:10454000D3F8902022F00322C3F89020124ADA60B8
:104550001A6842F080721A601A689101FCD50F49FE
:104560000F4800229A60C3F888100E49C3F89C20B7
:10457000016002684A401207FBD19A6842F00302C8
:104580009A609A6802F00C020C2AFAD1704700BFB8
:104590000010024000700040232A610155010050C4
:1045A0000020024004070400074A08B5536903F0DD
:1045B0000103536123B1054A13680BB15068984752
:1045C000BDE80840FFF76AB90004014058500020D8
:1045D000074A08B5536903F00203536123B1054A42
:1045E00093680BB1D0689847BDE80840FFF756B90B
:1045F0000004014058500020074A08B5536903F0F1
:104600000403536123B1054A13690BB150699847FC
:10461000BDE80840FFF742B90004014058500020AF
:10462000074A08B5536903F00803536123B1054AEB
:1046300093690BB1D0699847BDE80840FFF72EB9E0
:104640000004014058500020074A08B5536903F0A0
:104650001003536123B1054A136A0BB1506A98479E
:10466000BDE80840FFF71AB9000401405850002087
:10467000164B10B55C6904F478725A61A30604D530
:10468000134A936A0BB1D06A9847600604D5104A62
:10469000136B0BB1506B9847210604D50C4A936BF2
:1046A0000BB1D06B9847E20504D5094A136C0BB1E6
:1046B000506C9847A30504D5054A936C0BB1D06C98
:1046C0009847BDE81040FFF7E9B800BF000401407B
:1046D00058500020194B10B55C6904F47C425A61B3
:1046E000620504D5164A136D0BB1506D984723052A
:1046F00004D5134A936D0BB1D06D9847E00404D5EF
:104700000F4A136E0BB1506E9847A10404D50C4AA2
:10471000936E0BB1D06E9847620404D5084A136FAC
:104720000BB1506F9847230404D5054A936F0BB122
:10473000D06F9847BDE81040FFF7B0B800040140C3
:104740005850002008B5FFF769FEBDE80840FFF7A4
:10475000A5B80000062108B50846FFF7DDF80621D8
:104760000720FFF7D9F806210820FFF7D5F8062122
:104770000920FFF7D1F806210A20FFF7CDF806211E
:104780001720FFF7C9F806212820FFF7C5F8BDE874
:10479000084007211C20FFF7BFB8000008B5FFF74D
:1047A00051FE00F007F8FFF713FEBDE80840FFF7E1
:1047B0004DBD00000023054A19460133102BC2E904
:1047C000001102F10802F8D1704700BF58500020D4
:1047D0000B460146184600F003B8000000F00EB882
:1047E00010B5054C13462CB10A4601460220AFF322
:1047F000008010BD2046FCE700000000024B01468F
:104800001868FFF715BC00BF1823002010B5013948
:104810000244904201D1002005E0037811F8014FD5
:10482000A34201D0181B10BD0130F2E72DE9F04181
:10483000A3B1C91A17780144044603F1FF3C8C4226
:10484000204601D9002009E00578BD4204F10104A9
:10485000F5D10CEB0405D618A54201D1BDE8F081D5
:1048600015F8018D16F801EDF045F5D0E7E70000E9
:10487000034611F8012B03F8012B002AF9D17047E8
:104880006F72672E6172647570696C6F742E4E75ED
:10489000636C656F2D4734393100000040A2E4F1AC
:1048A000646891060041A3E5F26569920700000083
:1048B0004261642043414E496661636520696E64CC
:1048C00065782E000000000000000000792000083C
:1048D000811B000835270008791B0008291C0008E7
:1048E0000D1E0008F11B0008B91B0008BD1B0008C5
:1048F000951B00087D1B0008CD1D0008A11B0008AA
:104900006D280008AD1B0008A11D000863300000E1
:104910000C490008584E0020285000206D61696E37
:104920000069646C650000000004002800000000BD
:10493000AAAAAAAA00000024DFFF000000000000CD
:104940000000000000000A0000000000AAAAAAAAB5
:1049500000000000FFFF00000000000099000000C0
:104960000000000000000000AAAAAAAA000000009F
:10497000FFFF000000000000000000000000000039
:1049800000000000AAAAAAAA00000000FFFF000081
:104990000000000000000000000000000000000017
:1049A000AAAAAAAA00000000FFFF00000000000061
:1049B000000000000000000000000000AAAAAAAA4F
:1049C00000000000FFFF00000000000000000000E9
:1049D0000000000000000000AAAAAAAA000000002F
:1049E000FFFF0000000000000000000034B8FF7F5F
:1049F00001000000000000001004000000000000A2
:104A00000060030000000000FE2A0100D204000044
:104A10001C23002000000000000000000000000037
:104A20000000000000000000000000000000000086
:104A30000000000000000000000000000000000076
:104A40000000000000000000000000000000000066
:104A50000000000000000000000000000000000056
:104A60000000000000000000000000000000000046
:044A70000000000042
:00000001FF
