:020000040800F2
:1000000000060020A10200082D110008AD10000814
:1000100005110008AD100008D9100008A30200085F
:10002000A3020008A3020008A3020008D5270008C5
:10003000A3020008A3020008A3020008A30200080C
:10004000A3020008A3020008A3020008A3020008FC
:10005000A3020008A3020008213F00084D3F00084A
:10006000793F0008A53F0008D13F0008A30200081F
:10007000A3020008A3020008A3020008A3020008CC
:10008000A3020008A3020008A3020008A3020008BC
:10009000A3020008A3020008A3020008FD3F000815
:1000A000A3020008A3020008A3020008A30200089C
:1000B000A3020008A3020008A3020008A30200088C
:1000C000A3020008A3020008A3020008A30200087C
:1000D000A3020008A3020008A3020008A30200086C
:1000E00075400008A3020008A3020008A30200084C
:1000F000A3020008A3020008A3020008A30200084C
:10010000A3020008A3020008FD400008A3020008A3
:10011000A3020008A3020008A3020008A30200082B
:10012000A3020008A3020008A3020008A30200081B
:10013000A3020008A3020008A3020008A30200080B
:10014000A3020008A3020008A3020008A3020008FB
:10015000A3020008A3020008A3020008A3020008EB
:10016000A3020008A3020008A3020008A3020008DB
:10017000A302000831350008A3020008A30200080A
:10018000A3020008A3020008A3020008A3020008BB
:10019000A3020008A3020008A3020008A3020008AB
:1001A000A3020008A3020008A3020008A30200089B
:1001B000A3020008A3020008A3020008A30200088B
:1001C000A3020008A3020008A3020008A30200087B
:1001D000A30200081D350008A3020008A3020008BE
:1001E000A3020008A3020008A3020008A30200085B
:1001F000A3020008A3020008A3020008A30200084B
:10020000A3020008A3020008A3020008A30200083A
:10021000A3020008A3020008A3020008A30200082A
:10022000A3020008A3020008A3020008A30200081A
:10023000A3020008A3020008A3020008A30200080A
:10024000A3020008A3020008A3020008A3020008FA
:10025000A3020008A3020008A3020008A3020008EA
:10026000A3020008A3020008A3020008A3020008DA
:10027000A3020008A3020008A3020008A3020008CA
:10028000A3020008A3020008A3020008A3020008BA
:10029000A3020008A3020008A3020008A3020008AA
:1002A00002E000F000F8FEE772B63A4880F30888F2
:1002B000394880F3098839484EF60851CEF20001DA
:1002C000086040F20000CCF200004EF63471CEF22D
:1002D00000010860BFF34F8FBFF36F8F40F2000043
:1002E000C0F2F0004EF68851CEF200010860BFF374
:1002F0004F8FBFF36F8F4FF00000E1EE100A4EF604
:100300003C71CEF200010860062080F31488BFF330
:100310006F8F02F01FFB02F0C1FA03F007FC4FF0F1
:1003200055301F491B4A91423CBF41F8040BFAE784
:100330001C49194A91423CBF41F8040BFAE71A499B
:100340001A4A1B4B9A423EBF51F8040B42F8040B69
:10035000F8E700201749184A91423CBF41F8040BC6
:10036000FAE702F0DDFA03F003FC144C144DAC4242
:1003700003DA54F8041B8847F9E700F041F8114C00
:10038000114DAC4203DA54F8041B8847F9E702F038
:10039000C5BA00000006002000220020000000086E
:1003A0000000002000060020D844000800220020A1
:1003B0005C220020602200207C420020A002000875
:1003C000A0020008A0020008A00200082DE9F04FDA
:1003D0002DED108AC1F80CD0D0F80CD0BDEC108AED
:1003E000BDE8F08F002383F311882846A047002042
:1003F00001F062FDFEE701F0B3FC00DFFEE7000064
:1004000038B500F063FD18B1154B4FF460229A60C7
:1004100002F09AF9044602F0D3F9054640B9114BAF
:100420009C4214D001339C4213D041F2883400E046
:100430000024002002F094F975B900F009FE00F0E4
:1004400065FC204600F070F900F000F9F9E700249F
:10045000EFE700240125ECE700F0F8F8EDE700BF36
:1004600000220020010007B010B584468E46BFF37D
:100470004F8FBFF36F8F1F4B0022C3F88420BFF351
:100480004F8F5A6922F480325A61BFF34F8FD3F8ED
:100490008040C4F34E3000E01846C4F3C90243F66E
:1004A000E07303EA401343EA82731249C1F87432DD
:1004B0001346013A002BF2D1431E0028ECD1BFF3C2
:1004C0004F8FBFF36F8FBFF34F8FBFF36F8F4A69AB
:1004D00022F400324A610022C1F85022BFF34F8F4C
:1004E000BFF36F8F202383F31188E5468CF30888D0
:1004F000704710BD00ED00E000B583B0019004210D
:100500000DEB010000F0F4FB03B05DF804FB00BF4D
:1005100000B583B041F21203ADF80430022101A806
:1005200000F0E6FB03B05DF804FB00BF00B583B04C
:1005300041F21233ADF80430022101A800F0D8FBDB
:1005400003B05DF804FB00BF00B583B041F21213A5
:10055000ADF80430022101A800F0CAFB03B05DF839
:1005600004FB00BF08B5C0EB401300EB8300C000E4
:1005700001F0AAFC08BD00BF08B5202383F3118851
:100580001F4BDB6813B11E4801F02AFD00231D4AF2
:100590004FF47A711A4801F013FD002383F3118898
:1005A00001E00133DBB2012B0BD8174A52F82320AC
:1005B000002AF6D0144951F82320013A41F82320AB
:1005C000EFE7124B1B7813B90F4B5B6823B10F4B4E
:1005D0001B78032B07D008BD022000F09BFC0A4BC0
:1005E00032225A60F3E7084B5B68002BF3D10220FC
:1005F00000F090FC044B4FF47A725A60EBE700BFB6
:1006000060220020790500087C230020742200204D
:1006100008B50C4B1870032806D8DFE800F00A066E
:10062000020E022000F066FC08BD022000F050FC23
:10063000FAE7054B00225A60F6E7034B00225A60A6
:10064000F2E700BF742200207C23002008B50023BD
:10065000072B08D8304A52F82320B2F1FF3F0DD0C3
:100660000133DBB2F4E72C4B5B682C4A934205D98B
:100670002B4A9168284A0A44934200D308BD0020BF
:1006800000F070FB0220FFF7C3FF264BD3F8E820F1
:100690000022C3F8E820D3F81011C3F81021D3F8D2
:1006A0001011D3F8EC10C3F8EC20D3F81411C3F8F0
:1006B0001421D3F81411D3F8F010C3F8F020D3F8B4
:1006C0001811C3F81821D3F81821D3F8802042F06C
:1006D0000062C3F88020D3F8802022F00062C3F8C3
:1006E0008020D3F88020D3F8802042F00072C3F835
:1006F0008020D3F8802022F00072C3F88020D3F845
:10070000803072B6044B4FF0E022C2F8083D5968C1
:100710001868FFF7A9FEB1E700000208FFFF010813
:1007200000220020004402582DE9F04F91B0054608
:10073000A94BD3F808A02022FF210DEB020000F006
:1007400029FCA64B1B787BB10DB1A54B1D60A54BB9
:100750001B78032B21D12C460026B0463746B146E4
:10076000012000F0C7FB23E09C4B01221A709E4B36
:100770000022DA60202282F31188DB6813B19A48E4
:1007800001F02EFC0023994A4FF47A71964801F04B
:1007900017FC002383F31188D6E70020FFF738FF0A
:1007A000D9E7002000F084FA0290029B002B08DABF
:1007B000002CF6D08A4B1B68002BF2D111B0BDE89B
:1007C000F08F012000F084FB029B213B162BC7D841
:1007D00001A252F823F000BF3508000859080008AC
:1007E000F7080008610700086107000861070008B2
:1007F0006D090008570B00086B0A0008CF0A0008B3
:10080000F30A0008170B000861070008350B000801
:1008100061070008AB0B00084308000861070008E7
:10082000EB0B0008210B00084308000861070008D3
:10083000CF0A0008022000F03BFA202840F0708127
:10084000012700F0FBFB27B108F00B030B2B00F096
:10085000EB81FFF75DFE83E74FF47A7000F028FA32
:10086000B0F1000BC0F25C81022000F021FA2028D8
:1008700040F056810BF1FF33052B00F2D781DFE802
:1008800003F003151A1F243505230393042103A83D
:1008900000F02EFA0BF1FF30012303FA00F040EADA
:1008A00008085FFA88F84FF00009CAE704214A48AF
:1008B00000F01EFAEEE704214D4800F019FAE9E7CE
:1008C00004214C4800F014FAE4E74FF00709B9F1AD
:1008D0000A0FDFD84FEA890000F048FA039004219C
:1008E00003A800F005FA09F10109F0E704214248E4
:1008F00000F0FEF9CEE7002F00F0128108F00B03A4
:100900000B2B40F00D81022000F0D2F9202840F09E
:100910000781012000F026FA0220FFF779FE002669
:10092000304600F033FA044640B1304600F040FA59
:10093000002800F080810136F6B2F1E70120FFF7D0
:1009400067FEA246244B9B68534509D9504600F0E8
:100950000DFAB0F1FF3F40F073810AF1040AF1E7AC
:100960000020FFF755FE3E46A2466AE7002F00F042
:10097000D78008F00B030B2B40F0D2800220FFF74A
:1009800047FE322000F094F9B0F1000BC0F2C880AD
:10099000CDF800B01BF0030F40F0C2800BEB0A0350
:1009A0000D4A9268934200F2BB80BBF5807F00F253
:1009B000B780002301941C46A34521DD4FF47A70D3
:1009C00000F076F90290029B002BC0F23281029A6D
:1009D0000A4B1A550134EFE700220020782300204B
:1009E0007C2300207422002060220020790500086A
:1009F00004220020082200200C220020782200205F
:100A0000019CC82000F054F9202840F08980BAF1F8
:100A10001F0F15D8CAF120039B4500D900932AF077
:100A200003009DF8003000931A4686490DF1200C12
:100A3000604400F083FA009AFF21824800F0AAFA8D
:100A40005A46BBF1000F0DDB4FEAA20BC2F387023F
:100A50007C49504600F0A8FA002800F0EE800AEB2E
:100A60008B0AEEE60BF10302EEE7022000F020F91C
:100A7000202855D100F0B6F9002851D04FF0000BD6
:100A800000945C460BE0584600F070F90390042295
:100A900003A9204600F04CFB04460BF1040B6A4B03
:100AA0009B685B450ED9BBF11F0FECD8089BB3F1D7
:100AB000FF3FE8D02BF0030310AA134453F8203C67
:100AC0000393E4E72046009CFFF716FDB9E60023F8
:100AD0000393642103A800F0FFF808BB022000F094
:100AE000E7F820281CD1039800F074F9FFF704FD03
:100AF000A7E600230393642103A800F0EDF878B97A
:100B0000022000F0D5F820280AD1039800F064F9FB
:100B1000FFF7F2FC95E6022000F0CAF8202804D086
:100B200006B92C46FFF702FD1AE600F06DF9FFF753
:100B3000E3FC86E6022000F0BBF82028F0D103A9F0
:100B4000142000F067F98346FFF7D6FC594603A846
:100B500000F0CEF875E6322000F0AAF8B0F1000BF4
:100B6000DEDB1BF0030FDBD10BEB0903364A926887
:100B70009342D5D8022000F09BF82028D0D15B46C4
:100B8000BBF1000F0EDB9B1003F1FF3B002B7FF747
:100B900058AE484600F0EAF8FFF7AEFC09F1040948
:100BA0005B46F1E70BF10303EDE74FF47A7000F0D9
:100BB0007FF82028B4D100F015F900283DD0089B1B
:100BC000B3F1FF3F0BD0082208A9002000F0ECF998
:100BD00098B32022FF210DEB020000F0DBF9FFF7B4
:100BE00097FC6420FFF7BEFCE8E5002F98D008F0E2
:100BF0000B030B2B94D100230393642103A800F073
:100C00006BF800288CD1022000F052F8202887D100
:100C1000FFF77EFC0520FFF7A5FC039800F044FADF
:100C200000F00CFA00249BE5002412E64FF00009C6
:100C300076E7019C74E73E460024FFF785FC8FE5CC
:100C40003E46FAE778220020002200202DE9F041FC
:100C500007460E4615460024E4B9124B93F90030BE
:100C6000B3F1FF3F01D0A3420DD10F480368D3F881
:100C70002080C5EB451305EB8303DB003246394684
:100C8000C047864202D00134E4B2E5E7074B1C704E
:100C9000012004E04FF4FA7001F016F90020BDE8DD
:100CA000F08100BF1022002070250020B02300201A
:100CB00000B583B0024600238DF8073001210DF105
:100CC0000700FFF7C3FF20B19DF8070003B05DF8F0
:100CD00004FB4FF0FF30F9E708B50A460421FFF79F
:100CE000B5FF08B1002008BD4FF0FF30FBE700BFA3
:100CF00010B584460A4603480368DC69024B614626
:100D0000A04710BD70250020A086010038B501F075
:100D10004FFC124B1880002406E001F045FC04440F
:100D20000F4A136801331360B4F5003F07D20B4B31
:100D30001B880B4A10688342EFD8002500E000258D
:100D4000B5F5802F09D2054C2088013801F02CFC24
:100D500005442388013B2380F2E738BDB2230020FD
:100D60008423002008B501F099FC08BD014BC05850
:100D7000704700BF0000020808B503469200024811
:100D8000184401F087FC08BD0000020808B5064BB6
:100D90001B88064A12689B1A834201D8002008BDAE
:100DA000104401F001FCFAE7B22300208423002064
:100DB00010B50446064B1868204401F0FBFB00B157
:100DC00010BD034B1868204401F00CFCF8E700BF8D
:100DD0008423002000207047014BC058704700BF9B
:100DE00000E8F11F08B5074B93F824300BB9012038
:100DF00008BD0449002381F824300822086AFFF75F
:100E0000BBFFF5E788230020014B1868704700BF3F
:100E10000010005C30B585B084468E46284B1C68B7
:100E2000C4F30B05240C274B93E8070004AB03E93C
:100E300007000023012B11D803EB4302214931F8AD
:100E40002220AA4201D00133F4E703EB430301EB74
:100E5000830393E8070004AB03E90700002300E0E5
:100E60000133032B0CD8184A32F82320A242F7D1C1
:100E7000154A02EB830292F902208DF80C20EFE76D
:100E80000CF1FF3CF444704603E00133029300F898
:100E9000012B604504D2029B93F90020002AF4D173
:100EA000604502D22C2300F8013B604503D29DF837
:100EB0000C3000F8013BA0EB0E0005B030BD00BFC8
:100EC0000010005C14220020DC4100080020704764
:100ED000022802D0012805D07047054B4FF40022AC
:100EE0009A61F7E7024B4FF480129A61F4E700BF72
:100EF00000100258022802D0012804D07047044B89
:100F000008229A61F8E7024B10229A61F6E700BFC7
:100F100000100258022802D0012806D07047064A65
:100F2000536983F008035361F6E7034A536983F07A
:100F300010035361F2E700BF00100258002304E0E1
:100F400011F803C000F803C001339342F8D370478F
:100F500002E001300131624690F9003043B191F96D
:100F600000C0634504D102F1FF3C002AF1D1624682
:100F70001AB191F90000181A70470020704700BF9D
:100F80000346002000E0013013F9012B002AFAD1BA
:100F9000704700BF034602E003F8011B624602F1FE
:100FA000FF3C002AF8D170472DE9F8438146884676
:100FB0001546214B93F8243033B31F4A126A02EBD3
:100FC0008303834220D0FFF70DFF0346E0B930E0F2
:100FD000194E96F82400C0F10804AC4228BF2C46F4
:100FE000E4B2A7003A46414606EB8000FFF7A6FFB1
:100FF000B944B8442D1BEDB296F824301C44E4B239
:1010000086F82440082C0DD095B10B4B93F8243072
:10101000002BDDD10848C0F820902022FF21FFF7E7
:10102000B9FFD5E7FFF7DEFE03460028ECD100E06C
:1010300001231846BDE8F88388230020024B93F96A
:101040000020024B1A707047B023002010220020AD
:1010500038B5114D284600F019F9104C21462846A4
:1010600000F042F92468D4F89020D2F8043843F014
:101070000203C2F804380A4800F026FF0949204656
:1010800000F094FAD4F89020D2F8043823F0020348
:10109000C2F8043838BD00BF70250020B4420008F3
:1010A00040420F00BC420008704700BF00B59BB033
:1010B000EFF3098168226846FFF740FFEFF30583ED
:1010C000044B9A6BDA6A9A6A9A6A9A6A9A6A9A6A74
:1010D0009B6AFEE700ED00E000B59BB0EFF30981ED
:1010E00068226846FFF72AFFEFF30583044B9A6BEB
:1010F0009A6A9A6A9A6A9A6A9A6A9B6AFEE700BF33
:1011000000ED00E000B59BB0EFF30981682268466E
:10111000FFF714FFEFF30583034B5A6B9A6A9A6A41
:101120009A6A9A6A9B6AFEE700ED00E0FEE700BF5C
:1011300000B58E460AE040F3000C09490CEA0101B3
:1011400081EA50000133DBB2072BF4D91346013A90
:1011500023B11EF8013B58400023F5E75DF804FB7E
:101160002083B8ED0020704710B582B0446B04F5C1
:101170008053D3F8A4381A681178042908D1217C47
:10118000022905D11289197901238B40134201D01C
:1011900002B010BD01A904F14C0002F02BFB024685
:1011A00004F58054D4F8A448019B2179206800F00C
:1011B000A5FBEDE700F58053D3F8A4381A68117841
:1011C00004291DD110B50446017C02291AD1528987
:1011D000597901238B40134201D0012013E01430D0
:1011E00002F012FA024678B104F58054D4F8A4084B
:1011F0004FF440734179006800F066FB002002E084
:1012000001207047012010BD0120FCE708B5406BAC
:10121000FFF7D0FF08BD00BF08B5143002F066FA32
:1012200008BD00BF08B54FF0FF33143002F05EFA7E
:1012300008BD00BF08B54C3002F054FB08BD00BF2C
:1012400008B54FF0FF334C3002F04CFB08BD00BF37
:1012500008B5143002F02AFA08BD00BF08B54FF0F7
:10126000FF31143002F022FA08BD00BF08B54C303F
:1012700002F014FB08BD00BF08B54FF0FF324C3040
:1012800002F00CFB08BD00BF704700BF70B584B012
:101290000446124B0360002343608360C360012552
:1012A000057402900E4B0193042600964FF4407390
:1012B00000F184022946143002F080F90294094BAF
:1012C000019300964FF4407304F69442294604F1CA
:1012D0004C0002F067FA04B070BD00BFEC4100089A
:1012E0000D120008691100080A68202383F3118891
:1012F0000B790B3342F823004B79133342F8230068
:101300008B7913B10B3342F8230000F58053C3F8F7
:10131000A41802230374002383F31188704700BFCD
:1013200038B50446037F13B190F85430BBB9201D83
:10133000636843F002036360A36803B19847012523
:1013400025776FF0010104F1140000F0E7FD84F847
:1013500054506FF0010104F14C0000F0DFFD38BD86
:1013600010B50446436843F00103436083680BB142
:10137000043098470023237784F8543010BD00BF11
:1013800038B50446143002F031F90025257704F110
:101390004C0002F021FA84F85450636843F00103D2
:1013A0006360A3680BB1201D98472046FFF702FF3A
:1013B00038BD00BF90F8803003F06003202B01D0CF
:1013C0000020704790F88130212B05D0222B13D0BC
:1013D000202B09D0002070470A4B436707238367FF
:1013E0000023C36701207047064B436707238367C9
:1013F0000023C36701207047002343678367C367E7
:10140000012070472C22002000F58053D3F8A43827
:101410001A681178042923D130B583B00446017CC1
:10142000022905D11289197901238B40134201D079
:1014300003B030BD00F14C05284602F0AFFA002899
:10144000F6D001A9284602F0D5F9024604F58054E9
:10145000D4F8A448019B2179206800F04FFAE7E70F
:10146000704700BF70B582B001F10B0350F8234004
:1014700014B305460E46202383F31188201D6368AC
:1014800043F008036360A36803B19847B31C05EBFE
:1014900083035B685B691B6883B901A904F14C0095
:1014A00002F0A8F9024670B1019B3146284600F0CF
:1014B00025FA002383F3118802B070BD04F14C00BB
:1014C00002F0AAF9E9E7B31C05EB83035A685369F4
:1014D0001B68002BEDD0128A013A1342E9D1002398
:1014E00005F180023146284600F008FAE1E700BF26
:1014F00038B5133150F8214014B3202383F31188F9
:1015000004F58053D3F8A42813685279023203EB10
:1015100082035B689B695D6865B1201D636843F069
:1015200004036360A36803B19847294604F11400DB
:1015300002F07AF82046FFF73DFE002383F311887E
:1015400038BD00BF704700BF0378407843EA0020F1
:10155000704700BF10B5044690F8823080F88A309A
:1015600001F0A2FC63681B6813B101212046984773
:101570000323237010BD00BF08B501F079FB08BD3F
:10158000012303700023436009E003F10C010022F2
:1015900040F8212003F1140140F821200133072BEA
:1015A000F3D9002303814381704700BF10B504467F
:1015B000202383F311884160002305E09A1C04EB8B
:1015C0008202002151600133082BF7D9204601F037
:1015D00071FB02232370002383F3118810BD00BF29
:1015E00008B58B1C00EB83035A6053694BB14FF075
:1015F000000CC3F800C0C3F804C0C3F808C0C3F8A7
:101600000CC0936923B100221A605A609A60DA60B4
:1016100001F058FC08BD00BF08B5038903F00103C1
:101620000381438903F001034381012305E09A1CF0
:1016300000EB8202002151600133082BF7D901F041
:10164000E7FC08BD38B5044690F8803003F07F030E
:1016500090F8812043EA022340F20232934200F0E4
:101660000F8137D8B3F5807F00F081800DD9B3F5B5
:10167000817F00F0EF80B3F5407F29D190F8823070
:10168000012B00F08680002046E0012B65D0022B64
:1016900012D190F8841090F98430002BC0F2B08001
:1016A00001F00F0101F0BCFC012800F0C38002280A
:1016B00000F0C88000202FE043B900F188034367A1
:1016C000022383670023C367012025E0002023E075
:1016D000002021E0B3F5006F75D018D9B3F5106F75
:1016E00037D10378042B76D094F882304BB184F84C
:1016F0008B300423237063681B6813B102212046DA
:10170000984700236367A367E367012004E0B3F50C
:10171000A06F4AD001D2002038BDA3F5C063012BD1
:1017200000F2C48043685D688430FFF70DFF034614
:1017300094F8822094F883102046A847002800F0EF
:10174000B780426862670368A3670023E3670120EC
:10175000E2E740F60242934207D1584B6367022307
:10176000A3670023E3670120D6E70020D4E790F8C1
:101770008230012B01D00020CEE7B0F8883023F072
:101780000203A0F88830002343678367C367012002
:10179000C2E7B0F8883043F00203A0F88830002395
:1017A00043678367C3670120B6E7B0F88030B3F5BD
:1017B000A06F05D000236367A367E3670120ABE751
:1017C000FFF7C8FEF6E700F18B0343670120A0672F
:1017D0000023E367A0E7202383F31188FFF71CFFB2
:1017E000002383F3118884F88B300323237063680C
:1017F0001B68002B3FF478AF03212046984773E71E
:1018000001F00F0101F01EFC012803D0022809D0CD
:10181000002081E72A4B63670223A3670023E36765
:10182000012079E7274B63670223A3670023E3675F
:10183000012071E7224B63670223A3670023E3675C
:10184000012069E71F4B63670223A3670023E36757
:10185000012061E790F8823063BB90F8843013F088
:101860000F0104D013F0800F07D101F07FFE002399
:101870006367A367E36701204EE701F081FEF6E7A7
:1018800090F88230C3B990F8843013F00F0104D07F
:1018900013F0800F07D101F055FE00236367A367A3
:1018A000E367012038E701F057FEF6E7002033E751
:1018B000002031E700202FE700202DE71C42000820
:1018C000184200081442000838B50C464FF0010ECB
:1018D0000EFA01FE1FFA8EFE45894EEA050EA0F8AB
:1018E0000AE0023400EB84046468A469A260236007
:1018F0000023636001F0C2FB38BD00BF38B50C4661
:101900004FF0010E0EFA01FE1FFA8EFE05894EEA17
:10191000050EA0F808E0023400EB840464686469F2
:10192000A26023600023636001F048FC38BD00BF63
:1019300010B50446022303700023A0F8883080F815
:101940008A3080F88B300381438105E09A1C04EBD8
:101950008202002151600133082BF7D9002384F85B
:101960007030204601F044FA63681B6813B100210F
:101970002046984710BD00BF10B50446037880F894
:101980008C300523037043681B680BB10421984712
:1019900000232381638110BD08B590F88C3003705B
:1019A00043681B680BB10521984708BD10B5044674
:1019B00090F8703013B1002380F8703004F1800289
:1019C000204601F051FB63689B6813B1204698479D
:1019D00040B994F8803013F0600F22D12046FFF711
:1019E00031FEF0B104F18600FFF7AEFDA36F834234
:1019F00000D9A06794F98030002B24DBA36F002B63
:101A000043D0152384F87030202383F31188A36F0B
:101A1000626F00212046FFF757FF002383F31188F0
:101A200010E00021204601F097FD0021204601F042
:101A300089FD63681B6813B1062120469847062379
:101A400084F8703010BDA36F7BB1092384F8703027
:101A5000202383F31188A36F626F00212046FFF7D4
:101A60004DFF002383F31188ECE7142384F87030D2
:101A7000202383F3118800231A4619462046FFF7D6
:101A800023FF002383F31188DCE70B2384F87030F5
:101A9000202383F3118800231A4619462046FFF7B6
:101AA0002DFF002383F31188CCE700BF10B5044657
:101AB00090F87030152B28D8DFE803F03F27272750
:101AC00027273F27270B18382727272727272727A8
:101AD0003F3F8630FFF738FDA36F834206D2E268AE
:101AE000128AB3FBF2F102FB11337BB1142384F8A9
:101AF0007030202383F3118800231A4619462046AC
:101B0000FFF7E2FE002383F3118810BD202383F347
:101B1000118800231A4619462046FFF7EFFE0023DE
:101B200083F311880A2384F87030EEE7C36F03B1A2
:101B30009847002384F87030E7E7002101F00CFD9E
:101B40000021204601F0FEFC63681B6813B10621EA
:101B500020469847062384F87030D6E710B504462F
:101B600090F87030152B1AD8DFE803F026191919F0
:101B700019192619192626261919191919191919A1
:101B80001A0B0B2380F87030202383F31188002375
:101B90001A461946FFF7B2FE002383F3118810BDE1
:101BA000C3689B695B68002BF9D1C36F03B1984789
:101BB000002384F87030F2E7002101F0CDFC002111
:101BC000204601F0BFFC63681B6813B10621204664
:101BD0009847062384F87030E1E700BF024B1B6092
:101BE0005B6000229A607047B423002000230374D6
:101BF000054B1B68996882689142FAD203605A6863
:101C00004260106058607047B423002008B520235C
:101C100083F31188037C032B0ED0042B10D043B127
:101C20004FF0FF334361FFF7E1FF002383F3118897
:101C300008BD83F31188FBE7436900221A60EFE7D0
:101C400042680368136042685A60E9E7002303743E
:101C5000054B1B68996882689142FAD803605A68FC
:101C60004260106058607047B423002008B5074BED
:101C7000196908741A681068186043601A610120B5
:101C800010741869FEF7A2FB08BD00BFB423002042
:101C900010B586B00446B1F1FF3F12D00A4B1B6964
:101CA0000A4A01A800F08CF92046FFF7DFFF049BE9
:101CB00013B101A800F094F9034B1B69586906B0F1
:101CC00010BDFFF7D3FFF7E7B42300200D1C000879
:101CD00010B504460A4B18696161A26883689A428C
:101CE00003D82046FFF782FF10BDFFF7AFFF014684
:101CF000034B1C61012323742046FEF767FBF3E7C7
:101D0000B4230020044B1A6890681B699B689842B2
:101D100094BF002001207047B423002010B5084C68
:101D2000206923681A6822605460236101221A74B2
:101D3000FFF78CFF01462069FEF748FB10BD00BF8E
:101D4000B423002008B5054B1A6892681B699B688C
:101D50009A4200D808BDFFF7E1FFFBE7B42300205B
:101D600010B5084C206923681A682260546023610A
:101D700001221A74FFF76AFF01462069FEF726FB6D
:101D800010BD00BFB4230020FEE700BF10B5FFF771
:101D900025FF00F007F90A4C80220A49204600F08E
:101DA00053F844F8180C0123037400F023FD0023BA
:101DB00083F3118862B6044800F064F810BD00BFD8
:101DC000DC230020204200083042000808B500F063
:101DD00047F908BDEFF3118058B9EFF30583C3F35A
:101DE00008031BB1202383F311887047202383F35A
:101DF0001188704778B908B5EFF30583C3F308037A
:101E00001BB1002383F3118808BDFFF79BFF00235C
:101E100083F31188F8E77047401A511A88422CBFA3
:101E200000200120704700BF38B5064B5D6844199B
:101E3000044B586822462946FFF7EEFF0028F7D1E9
:101E400038BD00BF001000E0826002220274002250
:101E50004274704710B58468A4F17C0344F80C3CCC
:101E6000026944F83C2C426944F8382C044A44F88E
:101E70001C2CC2680168A4F11800FFF7E5FF10BD33
:101E8000E503000810B5202383F31188FFF7E2FF74
:101E900004460021FFF71CFF002383F3118820462E
:101EA00010BD00BF08B5034B1B6958610F20FFF739
:101EB000DDFE08BDB423002008B5202383F311887C
:101EC000FFF7F0FF08BD00BF08B50146202383F3EC
:101ED00011880820FFF7DCFE002383F3118808BD7A
:101EE00059B108B5064B1B69186042685A60136007
:101EF00043600420FFF7CCFE08BD4FF0FF30704771
:101F0000B423002008B503460068834205D0026868
:101F10001A6053604161FFF769FE08BD38B5044699
:101F20000D4605E0036823605C604561FFF75EFED7
:101F300020688442F6D138BD70B505460E461C4671
:101F40000368984209D0C068121AA21800D2144639
:101F50009B68A34210D82A6814E0C2608C6070604D
:101F600003680B6059602960092C00D80A24E868CE
:101F7000204401F03DFD14E0204401F049FDEAE772
:101F8000E41A126893689C42FAD8B46032605368CD
:101F900073601E60566093681B1B93604FF0FF33A5
:101FA000AB6070BD054B03F114025A619A614FF0AA
:101FB000FF32DA6100221A62704700BFB4230020AA
:101FC00038B504460D460361C26001F027FD0246A4
:101FD0002B4621460148FFF7AFFF38BDC82300203C
:101FE00038B51E4B5B69984210D042680368136095
:101FF00042685A600023C3600268816893680B449A
:102000009360164B4FF0FF32DA6138BD1968134AFE
:10201000134643F8141F4B600021C16052699A4275
:1020200018D0816893680B4493600C4D2C6A01F0C2
:10203000F5FC021B6B699B689342E6D9241A1C4489
:10204000092C01D802F10A03044A106A184401F06D
:10205000DFFCDAE701F0D6FCD7E700BFB4230020AD
:1020600038B507E0002383F311882069A8472023AF
:1020700083F31188144D6C6901F0D0FC2B6AC21AED
:10208000A168914211D819442B46296261682268DF
:102090000A6061685160E5680022E26053F8142F1D
:1020A0009A42DFD101F0AEFCDCE7074A52F8144F48
:1020B000944207D01A1A0A44092A00D80A22104466
:1020C00001F0A6FC38BD00BFB423002000207047FB
:1020D000FEE700BF704700BF4FF0FF30704700BF02
:1020E00002290DD0032905D0012901D00020704715
:1020F00005487047032A05D8044800EBC200704722
:102100000348704700207047184300083C22002015
:10211000CC42000830B59BB005460846144601A9DC
:1021200000F0D6F801A8FEF72BFF5FFA80FC431CF5
:102130005B002B606C6023700323637000230BE053
:10214000591C1AAA1A4412F8642C04F811205B00D6
:1021500003330022E254CBB26345F1D31BB030BD50
:1021600008B5202383F311880348FFF74DF90023B6
:1021700083F3118808BD00BF7025002008B590F8D2
:10218000803003F01F02012A11D003F06003202BDE
:102190000AD1B0F884303BB990F88130212B10D0AF
:1021A000222B1ED0202B14D0FFF704F908BD90F885
:1021B00081200B2AE9D1002343678367C36701208D
:1021C000F4E70B4B4367072383670023C3670120B2
:1021D000ECE7074B4367072383670023C3670120AE
:1021E000E4E7002343678367C3670120DEE700BF9E
:1021F0003422002010B5052917D8DFE801F01716A2
:10220000031717210446202383F31188114A012163
:10221000FFF7E6F9104A02212046FFF7E1F90F48DF
:10222000FFF7AEF8002383F3118810BD202383F35A
:1022300011880A48FFF774F8002383F31188F4E744
:10224000202383F311880548FFF78AF8002383F3DE
:102250001188EAE76C4200089042000870250020CF
:1022600038B50B4D0B4C2A460B4904F10800FFF71B
:1022700051FF05F1CA02094904F11000FFF74AFFB6
:1022800005F5CA72064904F11800FFF743FF38BD8F
:10229000483E00203C2200204842000854420008EA
:1022A0006042000870B504460D460846FEF768FE19
:1022B000064600E00134237843B1F2B229462046B5
:1022C000FEF746FE0028F5D1012000E0002070BD99
:1022D00070B506460C46FEF753FEC5B22749304698
:1022E000FFF7E0FF08B10C35EDB225493046FFF7A6
:1022F000D9FF08B11035EDB2632D28D931462046FB
:1023000001F056FF39E01F4D0FCD20606160A260E3
:10231000E3602A88AB782282A3740736133416E070
:1023200019495A5C12091948155C224602F8025BE9
:10233000595C01F00F01095C61700133DBB2144696
:102340000B2BEDD9083602E0013604F8015B357835
:102350008DB1252DF8D1072208493046FEF7F8FD4A
:102360000028D0D0082206493046FEF7F1FD0028AB
:10237000EAD10023E4E70023237070BD384300084E
:10238000604200084043000800E8F11F5443000881
:10239000BFF34F8F054B1B6913F0070FFAD1034BA7
:1023A000D3F8103113F0070FF4D17047002000521A
:1023B000034B4FF0FF325A61C3F81421704700BF3E
:1023C0000020005208B5104B1B7803B108BDFFF781
:1023D000DFFF0E4BDB6813F0010F05D00B4B0C4AEF
:1023E0005A6002F188325A60084BD3F80C3113F06E
:1023F000010FEBD0054B064AC3F8042102F18832E5
:10240000C3F80421E2E700BFA640002000200052EC
:1024100023016745002301E0043001338B4205D2DC
:102420000268B2F1FF3FF7D00020704701207047EB
:102430002DE9F04105460E4600F17843B3F5801FC3
:102440000FD2184CDFF86C80174FFFF7A1FF4FF049
:10245000FF33C8F800303B6843F002033B600022C2
:102460000EE0124CDFF85080114FEEE7236813F0B6
:10247000050FFBD156F8043B45F8043B0132D2B2BC
:10248000072AF3D9BFF34F8FFFF782FF4FF0FF33D7
:10249000C8F800303B6823F002033B600120BDE830
:1024A000F08100BF102000520C2000521021005279
:1024B0000C210052142000521421005208B5144B74
:1024C0001B781BBB134B1B6913F0040F04D0114A7C
:1024D000D36843F04003D3600E4BD3F8103113F0B0
:1024E000040F06D00B4AD2F80C3143F04003C2F877
:1024F0000C31FFF74DFF074BDA6842F00102DA605A
:10250000D3F80C2142F00102C3F80C2108BD00BF32
:10251000A6400020002000522DE9F84312F01F0FC2
:1025200035D104460D46164610F01F0F01D0002786
:102530002EE0FFF747FF02E02034203E20351F2E1B
:1025400021D920222146284601F022FE0028F3D07E
:1025500008212046FFF75EFF0746C8B1FFF73AFCA7
:10256000814629462046FFF763FF07464846FFF7A6
:1025700041FC4FB120222946204601F009FE0028E7
:10258000DAD0002700E00127FFF798FF00E00027DE
:102590003846BDE8F88300BF0F2803D800F58060F7
:1025A00040047047002070474FF40030704700BF70
:1025B000102070470F2811D838B50546FFF7ECFFFB
:1025C00004462846FFF7F0FF30B12368B3F1FF3F20
:1025D00006D104380434F7E7012038BD00207047E5
:1025E0000020FAE70F2801D90020704770B5044693
:1025F000FFF7F0FB0546FFF7CBFEFFF7E3FEFFF723
:10260000D7FE072C28D8224E4FF0FF333361FFF757
:10261000BFFE230243F02403F360F36843F080031A
:10262000F3601B4B1B6913F0040FFAD1FFF7B0FEE8
:102630002046FFF7B1FF06462046FFF7B5FF0146EB
:10264000304600F09DF8FFF739FF2846FFF7D2FB30
:102650002046FFF7AFFF70BD0D4E4FF0FF33C6F8B9
:102660001031FFF795FEA4F108031B0243F0240389
:10267000C6F80C31D6F80C3143F08003C6F80C31A3
:10268000034BD3F8103113F0040FF9D1CEE700BF9C
:102690000020005208B5FFF73FFF08BD08B503460C
:1026A00010B10A4A127822B113B9084B1B7833B91A
:1026B00008BDFFF787FE054B01221A70F8E7034BB0
:1026C00000221A70FFF7FAFEF2E700BFA6400020D2
:1026D00009E000F1010C064A52F8202041F8042BD1
:1026E0001A465FFA8CF0531EDBB2002AF1D1704714
:1026F0005040005810B4114B1B6F13F4004F06D11B
:102700000E4B1C6F1C671C6F44F400441C670C4C80
:10271000236843F48073236009E000F1010C51F851
:10272000044B084A42F820401A465FFA8CF0531EC8
:10273000DBB2002AF1D15DF8044B70470044025827
:10274000004802585040005800B583B0012201A94A
:102750000020FFF7BDFF019803B05DF804FB00BF48
:1027600010B582B00446FFF7EFFFA04201D102B0DE
:1027700010BD0194012201A90020FFF7BBFFF6E77D
:102780000144BFF34F8F03E0054BC3F85C022030D8
:102790008842F9D3BFF34F8FBFF36F8F704700BFED
:1027A00000ED00E0044B1B6823B9044BD3F8D024A0
:1027B000014B1A60704700BFA8400020004002583B
:1027C00008B5FFF7EFFF024B1868C0F3806008BD43
:1027D000A8400020EFF30983683305494A6B22F0D3
:1027E00001024A6383F30988002383F31188704749
:1027F00000EF00E0202080F3118862B60D4BD9680D
:1028000021F4E0610904090C0B4A0A43DA60D3F8A9
:10281000FC2042F08072C3F8FC20084A0849C2F844
:10282000B01F116841F0010111601022DA7783F8BE
:102830002200704700ED00E00003FA05001000E000
:1028400055CEACC5202383F31188104B5B6813F47D
:10285000006F03D1002383F31188704710B5F1EEA8
:10286000103AEFF30984683C4FF08073E361084B42
:10287000DB6B236684F30988FFF744FA10B1054B3C
:10288000A36110BD044BA361FBE700BF00ED00E0B6
:1028900000EF00E0F7030008FA03000810B4BFF3EC
:1028A0004F8FBFF36F8F1C4B0021C3F85012BFF343
:1028B0004F8FBFF36F8F5A6942F400325A61BFF3F2
:1028C0004F8FBFF36F8FC3F88410BFF34F8FD3F8D0
:1028D0008040C4F34E3000E01846C4F3C90243F60A
:1028E000E07303EA401343EA82730B49C1F8603294
:1028F0001346013A002BF2D1431E0028ECD1BFF35E
:102900004F8F4B6943F480334B61BFF34F8FBFF35D
:102910006F8F5DF8044B704700ED00E0FEE700BFED
:10292000084B094903E051F8042B43F8042B074AEC
:102930009342F8D302E0002243F8042B044A934266
:10294000F9D370477C420020344500087C420020C7
:102950007C420020704700BFD0F890200023D0F8C0
:1029600094108968994232D310B415E003F14801FC
:102970004901545844F08044545013E002EB431191
:102980004FF0FF34C1F80849C1F8084B0133D0F8C3
:1029900094108968994213D303F1480149015158B1
:1029A0000029E3DB03F15801490151580029E5DA18
:1029B00003F158014901545844F080445450DDE774
:1029C0004FF00113C2F81C385DF8044B70474FF00C
:1029D0000113C2F81C387047D0F894301B68C0F857
:1029E000983070470346D0F898000144C3F8981017
:1029F000704700BF01E0043A04310B680360042A09
:102A0000F9D8704710B44FF0000C644601E00CF1A7
:102A1000010C944509D21CF0030F00D104689C45B9
:102A2000F5D201F8014B240AF1E75DF8044B704739
:102A300070B5D0F89060336AC3F30A1503F00F0441
:102A400003F4F013B3F5802F0ED0B3F5402F0AD165
:102A5000023400EB8404616808232A46096A06F5FB
:102A60008050FFF7CFFF70BD023400EB8404636831
:102A700099690A684B68D31A2A46896806F5805016
:102A8000FFF7C0FF63689A6993682B44936063689B
:102A90009A6953682B445360E5E700BF70B506465A
:102AA0000D4629E0D6F89020D2F83438012000FAFB
:102AB00005F523EA0505C2F8345870BDD6F8900034
:102AC00000EB4513D3F818399BB2B4EB830F22D82F
:102AD0006B1C2246896800EB0330FFF78BFFAB1CB1
:102AE00006EB83035A6851698A6822448A605B68EE
:102AF0005A69536823445360AB1C06EB83035A683E
:102B0000516948680B689842CCD21B1A148A9C42BF
:102B1000D4D31C46D2E70020CFE700BF70B50546EE
:102B2000D0F89060002404E02146284698470134FC
:102B3000E4B2D5F894309B689C421ED8224604F13A
:102B400058035B01F35803F44023B3F5802FEED113
:102B500004F158035B01F358002BE8DA012303FA70
:102B600004F16B8923EA01036B81023205EB8202D7
:102B70005368DB68002BD7D1D9E770BD08B5D0F812
:102B80009020890141F020011161136913F0200F99
:102B9000FBD11220FFF748F908BD00BFF8B5074682
:102BA000D0F89050002408E0214638469847214646
:102BB0003846FFF773FF0134E4B22146D7F894306A
:102BC0009B689C422ED8264604F148035B01EB58D3
:102BD00003F44023B3F5802FEDD104F148035B01EA
:102BE000EB58002BE7DA04F148035B01EA5842F0A6
:102BF0009042EA5006F148035B01EB58002BF9DBE9
:102C00003846FFF7BBFF012303FA06F23B8923EAAC
:102C100002033B81023607EB860673689B68002B34
:102C2000C2D1C4E7F8BD00BF10B5D0F89040236909
:102C3000002BFCDA012323610C20FFF7F5F8236950
:102C400013F0010FFBD11220FFF7EEF82369002BE0
:102C5000FCDA10BD08B5D0F8902010231361136979
:102C600013F0100FFBD11220FFF7DEF808BD00BFF4
:102C700010B50A4C2046FEF783FC094BC4F890308F
:102C8000084BC4F89430084C2046FEF779FC074BFB
:102C9000C4F89030064BC4F8943010BDAC4000200E
:102CA000000008408C430008484100200000044018
:102CB0009843000870B5D0F890600378012B00D0DD
:102CC00070BD0446434B984225D0434B9C4249D0AB
:102CD0000025C6F8005EC02333604FF40413B363CD
:102CE0002046FFF7A1FFB5602046FFF735FEC6F886
:102CF0001058C6F81458C6F81C586368DB68002BD7
:102D000065D0364BB3614FF0FF337361B36843F066
:102D10000103B360D4E7324BD3F8D82042F000620D
:102D2000C3F8D820D3F8002142F00062C3F8002194
:102D3000D3F80021D3F8802042F00062C3F880204D
:102D4000D3F8802022F00062C3F88020D3F88030CE
:102D50000E21652000F01EFC224BF360224BC6F8CA
:102D60000038B2E71E4BD3F8D82042F00072C3F807
:102D7000D820D3F8002142F00072C3F80021D3F824
:102D80000021D3F8802042F00072C3F88020D3F8ED
:102D9000802022F00072C3F88020D3F88020D3F87E
:102DA000D82022F08062C3F8D820D3F8002122F086
:102DB0008062C3F80021D3F800310E214D2000F0CD
:102DC000E9FB084BF360084BC6F8003880E7074B77
:102DD000B36198E7AC40002048410020083C30C077
:102DE000004402584014004003002002003C30C060
:102DF00038B50546D0F890400021FFF7BFFE00230C
:102E0000C4F834384FF00112C4F81C2812E003F162
:102E1000480252014FF00061A15003F158025201E3
:102E2000A15004EB43124FF0FF31C2F80819C2F869
:102E3000081B0133D5F8942092689A42E7D22846BD
:102E4000FFF7CAFDD5F894301B6863622846FFF788
:102E500001FFD4F8003823F4FE63C4F80038A269F7
:102E60000E4B1343A3610923C4F81038C4F8143877
:102E70000B4BEB604FF0C043C4F8103B094BC4F858
:102E8000003B0022C4F81029C4F80039102128465C
:102E9000FFF7A8FD40F48010A06238BD10000C00C0
:102EA0006843000840800010D0F89020D2F8003825
:102EB00023F4FE6390F88A1043EA0113C2F8003845
:102EC000704700BF2DE9F04105460C46D0F89060F0
:102ED0008B1C00EB83035B681B6803F00303032B6D
:102EE00056D8DFE803F0025B5759444F06EB441312
:102EF0000022C3F8102BA31C05EB83035B689A69BF
:102F0000002A4DD05A8A3A4304F158035B01F2502B
:102F1000D6F81C3804F1100101228A401343C6F888
:102F20001C3806EB44130022C3F81029A31C05EB40
:102F300083035B685A69002A44D0198A89089B8BED
:102F4000012B01D903FB01F14FEA01482846FFF7A5
:102F500049FD48EA000004F13F0306EB8303586093
:102F600021462846FFF70AFE47EA8457A01C05EBD6
:102F700080056B681B8A1F4304F148035B01F7500F
:102F8000D6F81C38012101FA04F41C43C6F81C4889
:102F9000BDE8F0811A4FA9E71A4FA7E71A4FA5E736
:102FA00004F158035B01F25822F40042F250D6F8C3
:102FB0001C3804F1100101228A4023EA0203C6F8FA
:102FC0001C38AEE704F13F0306EB83030F4A5A6057
:102FD00021462846FFF7D2FD04F148035B01F25871
:102FE00022F40042F250D6F81C38012101FA04F410
:102FF00023EA0404C6F81C48CAE700BF008000109A
:103000000080081000800C100080041000040002F2
:1030100010B50446FFF7E0FC2046FFF79DFC10BD0D
:10302000D0F89030583149015B5813F4004F04D068
:1030300013F4001F03D102207047002070470120C5
:10304000704700BFD0F89030483149015B5813F405
:10305000004F04D013F4001F03D10220704700205A
:1030600070470120704700BF023100EB81004368C8
:103070001B6A19685B6811605360704710B48B1C41
:1030800000EB83035B689B691A68DA6019B9402A10
:1030900001D940221A601A6801F1020C00EB8C0C75
:1030A000DCF804305B8A1A44013AB2FBF3F202FB0B
:1030B00003F3033323F0030343EAC24343F0C04363
:1030C000D0F8902002EB4112C2F8103BDCF804303B
:1030D0001B6803F00303012B0AD0D0F8902058316D
:1030E0004901535843F0044353505DF8044B704773
:1030F000D0F89030D3F8082812F4807F07D001F17F
:10310000580252019C5844F080549C50E5E701F16C
:10311000580252019C5844F000549C50DDE700BF17
:10312000F8B507460C46D0F8906006EB4113D3F88B
:10313000085BC3F8085B15F0080F0AD0D6F81438FE
:1031400013F0080F05D08B1C00EB83035B685B68F2
:10315000984715F0010F21D0D6F8143813F0010F5D
:103160001CD0A31C07EB830359688A6954B95368C0
:10317000488AB3FBF0F500FB15331BB91068D36820
:1031800098420CD3012303FA04F27B8923EA020359
:103190007B81CB6813B1214638469847F8BD1B1A8E
:1031A000136000255560202383F31188214638469B
:1031B000FFF764FF85F31188F0E700BF10B48B1CA4
:1031C00000EB83035B685B691A68DA6032BBD0F896
:1031D000903003EB41134FF40022C3F810298B1CED
:1031E00000EB83035B681B6803F00303012B2FD004
:1031F000D0F8904001F148035B01E25842F00442EC
:10320000E250D0F89000D0F83438012202FA01F1EF
:103210001943C0F834185DF8044B704719B9402AB7
:1032200001D940221A601B688A1C00EB8202526896
:10323000148A1A19013AB2FBF4F2D0F8904043EA2A
:10324000C24343F0005304EB4114C4F81039C6E7FD
:10325000D0F89030D3F8082812F4807F07D001F11D
:10326000480252019C5844F080549C50C0E701F140
:10327000480252019C5844F000549C50B8E700BFEB
:103280002DE9F04107460C46D0F8906006EB41135B
:10329000D3F80859C3F8085915F0010F19D0D6F81A
:1032A000103813F0010F14D08B1C00EB8303596806
:1032B0004B691868DA68904216D3012303FA04F2C6
:1032C0003B8923EA02033B818B6813B121463846D0
:1032D000984715F0800F05D0D6F834280123A34075
:1032E0001A4211D1BDE8F081121A1A604FF000089D
:1032F000C3F80480202383F3118821463846FFF762
:103300005DFF88F31188E4E721463846FFF7C6FBE6
:10331000E8E700BF70B50646D0F890506C69AB691D
:103320001C406C6114F4805F6BD1002C6CDB14F4D6
:10333000006F7ED114F4005F0AD0D5F8083813F07E
:10334000060F7DD1EB6823F4705343F41053EB6008
:1033500014F0080F04D07368DB680BB1304698474F
:1033600014F4801F73D114F4001F74D114F0100FE3
:1033700075D1D5F8185814F4002F1BD015F4803FE0
:1033800071D115F4003F73D115F4802F75D115F468
:10339000002F77D115F4801F79D115F4001F7BD150
:1033A00015F4800F7DD115F4000F7FD115F0807FCB
:1033B00040F0818014F4802F22D015F0010F7FD1CE
:1033C00015F0020F40F0818015F0040F40F082806C
:1033D00015F0080F40F0838015F0100F40F0848046
:1033E00015F0200F40F0858015F0400F40F08680EA
:1033F00015F0800F40F0878015F4807F40F08880C2
:1034000070BDFEF795FAFBE7D5F8003E13F0030F09
:1034100005D0D5F8003E23F00303C5F8003ED5F8EB
:10342000043823F00103C5F804383046FEF7B4FA37
:103430007DE73046FFF790FA3046FEF79DFA79E7D0
:10344000EB6823F4705343F4A053EB6080E73046FD
:10345000FFF7A4FB87E73046FFF760FB86E73046BF
:10346000FFF7E6FA85E700213046FFF759FE88E7C7
:1034700001213046FFF754FE86E702213046FFF770
:103480004FFE84E703213046FFF74AFE82E704211E
:103490003046FFF745FE80E705213046FFF740FE46
:1034A0007EE706213046FFF73BFE7CE707213046EA
:1034B000FFF736FE7AE708213046FFF731FE79E75D
:1034C00000213046FFF7DCFE7AE701213046FFF7A6
:1034D000D7FE79E702213046FFF7D2FE78E70321D5
:1034E0003046FFF7CDFE77E704213046FFF7C8FEF0
:1034F00076E705213046FFF7C3FE75E70621304623
:10350000FFF7BEFE74E707213046FFF7B9FE73E709
:1035100008213046FFF7B4FE72E700BF08B5034844
:10352000FFF7F8FEFFF78EF908BD00BFAC400020A2
:1035300008B50348FFF7EEFEFFF784F908BD00BFAA
:1035400048410020D0F8902058314901535843F4A5
:1035500000135350704700BFD0F890204831490104
:10356000535843F400135350704700BFD0F89020D5
:1035700058314901535823F400135350704700BF8A
:10358000D0F8902048314901535823F40013535088
:10359000704700BF0901C9B2074A131883F8001326
:1035A00000F01F01400901238B4000F1600142F847
:1035B000213042F82030704700E100E030B4029C36
:1035C0000060406001720021C16042610261043309
:1035D00004FB03258561C361046242628162C162AA
:1035E000039B0363049B436330BC704708B5002210
:1035F000C260416A416101618262C2626FF0010191
:10360000FEF78CFC08BD00BF03694269934203D0FA
:10361000002232B9181D7047C268002AF9D0012271
:10362000F7E70020704700BF08B503691960C36859
:103630000133C360C2690369134403618269934221
:1036400001D3436A03610021FEF75CFC08BD00BFA3
:1036500038B504460D46E36843B9237A73B9294661
:103660002046FEF73DFC0028F5DA06E06269131DEE
:10367000A36212681344E362002038BD6FF00100BA
:10368000FBE700BF08B5C368013BC360C26943697B
:10369000134443618269934201D3436A4361002327
:1036A0008362036B03B1984708BD00BF38B5044679
:1036B000202383F31188836A5BB1A36A13F8015B4B
:1036C000A362E26A93420DD2002383F31188284655
:1036D00038BDFFF7BDFF05460028EED0002383F379
:1036E0001188F4E72046FFF7CDFFEDE72DE9F84319
:1036F00004460F4690469946202383F311880026FE
:1037000031E049462046FFF7A3FF78B3002383F357
:1037100011883046BDE8F883DCF80050DCF804007E
:10372000DCF80820DCF80C30CEF80050CEF80400AD
:10373000CEF80820CEF80C300CF1100C0EF1100E63
:103740008C45E9D14037A36A4033A3624036A26A70
:10375000E36A9A4222D2002383F311884645D8D2E5
:10376000202383F31188A36A002BCAD0E36AA16ADD
:103770005B1AA8EB06059D4200D31D46402D03D9D8
:103780008C46BE464031C7E72A463846FDF7D6FB91
:103790002F44A36A2B44A3622E44D8E72046FFF7A8
:1037A00071FFD8E710B4019C006040600172C460F2
:1037B00042610261043304FB03218161C36104623D
:1037C000426200238362C362029B0363039B4363E1
:1037D0005DF8044B704700BF08B5026AC260426AD8
:1037E0004261026100228262C2626FF00101FEF753
:1037F00095FB08BD026943699A4206D000224AB986
:103800001B680B60406904307047C268002AF6D01C
:103810000122F4E70020704708B5C3680133C36094
:10382000C2694369134443618269934201D3436A85
:1038300043610021FEF766FB08BD00BF38B50446B2
:103840000D46E36843B9237A73B929462046FEF74B
:1038500047FB0028F5DA06E023691A1DA262E26937
:103860001344E362002038BD6FF00100FBE700BFA6
:1038700008B503691960C368013BC360C269036985
:10388000134403618269934201D3436A03610023B5
:103890008362036B03B1984708BD00BF38B5044687
:1038A0000D46202383F31188836A5BB1A36A1D70E0
:1038B000A36A0133A362E26A93420CD2002080F330
:1038C000118838BD1146FFF7B9FF0028EED000235C
:1038D00083F31188F5E7E16904392046FFF7C8FF53
:1038E000ECE700BF2DE9F84304460E46174698461C
:1038F000202383F3118800252DE041462046FFF761
:103900009DFF58B3002383F311882846BDE8F88350
:10391000DCF800E0DCF80410DCF80820DCF80C30FF
:10392000C0F800E041608260C3600CF1100C103000
:10393000CC45EDD14036A36A4033A3624035A26A3C
:10394000E36A9A4223D2002383F31188BD42DCD27A
:10395000202383F31188A36A002BCED0E36AA06AE8
:103960001B1AA7EB0509994500D39946B9F1400FF9
:1039700003D9B44606F14009CAE74A463146FDF785
:10398000DDFA4E44A36A4B44A3624D44D7E7E16994
:1039900004392046FFF76CFFD5E700BF03460169F5
:1039A0004269914209D0002210462AB19A6ACAB1EE
:1039B000521A043A06D100207047C268002AF3D098
:1039C0000122F1E70A60DA68013ADA60D9691A6916
:1039D0000A441A6199698A4201D35A6A1A6100221B
:1039E0009A6270470020704708B500F0E9F808BDFA
:1039F000034B586300221A610222DA60704700BF4D
:103A0000000C0040014B0022DA607047000C0040BF
:103A1000014B5863704700BF000C0040014B586ACF
:103A2000704700BF000C00404B6843608B688360A8
:103A3000CB68C3600B6943614B6903628B69436266
:103A40000B680360704700BF10B52A4BD3F888207D
:103A500040F2FF710A43C3F88820D3F88800264A51
:103A60000240C3F88820D3F88820D3F8E0200A4326
:103A7000C3F8E020D3F808210A43C3F80821D3F89B
:103A800008311E4C21461E48FFF7CEFF04F11C01F1
:103A90001C48FFF7C9FF04F138011B48FFF7C4FFBA
:103AA00004F154011948FFF7BFFF04F170011848F1
:103AB000FFF7BAFF04F18C011648FFF7B5FF04F1D8
:103AC000A8011548FFF7B0FF04F1C4011348FFF740
:103AD000ABFF04F1E0011248FFF7A6FF04F1FC017F
:103AE0001048FFF7A1FF04F58C710F48FFF79CFF0A
:103AF00010BD00BF0044025800F8FFFFA4430008B7
:103B0000000002580004025800080258000C025835
:103B1000001002580014025800180258001C0258E5
:103B200000200258002402580028025808B5FFF768
:103B30008BFF00F0FDF80C4BD3F8902242F001020D
:103B4000C3F89022D3F8942242F00102C3F89422E1
:103B50000522C3F898204FF06052C3F89C20034A16
:103B6000C3F8A02008BD00BF00ED00E01F0008035F
:103B700008B500F0EFFAFEF709F90E4BD3F8DC2098
:103B800042F04002C3F8DC20D3F8042122F04002C6
:103B9000C3F80421D3F80431074B1A6842F0080235
:103BA0001A601A6842F004021A60FEF7FBFDFEF785
:103BB00057FB08BD0044025800180248704700BF78
:103BC000114BD3F8E82042F00802C3F8E820D3F8FC
:103BD000102142F00802C3F81021D3F810310B4A2B
:103BE000D36B43F00803D363094BC7229A624FF0AB
:103BF000FF32DA6200229A615A63DA605A60012267
:103C00005A611A60704700BF004402580010005CFF
:103C1000000C004008B50A4A1369D168C9B20B40CC
:103C2000D943116113F0020F00D108BD202383F3A3
:103C30001188FEF7CBF8002383F31188F5E700BF66
:103C4000000C004010B5384BD3F880204FF0FF3106
:103C5000C3F88010D3F880200022C3F88020D3F866
:103C60008000D3F88400C3F88410D3F88400C3F82C
:103C70008420D3F88400D86F40F0FF4040F4FF0068
:103C800040F43F5040F03F00D867D86F20F0FF402D
:103C900020F4FF0020F43F5020F03F00D867D86F99
:103CA000D3F8884021482043C3F88800D3F888001F
:103CB000C0F30A00C3F88800D3F88800D3F8900056
:103CC000C3F89010D3F89000C3F89020D3F8900078
:103CD000D3F89400C3F89410D3F89400C3F8942058
:103CE000D3F89400D3F89800C3F89810D3F898004C
:103CF000C3F89820D3F89800D3F88C00C3F88C1040
:103D0000D3F88C00C3F88C20D3F88C00D3F89C0037
:103D1000C3F89C10D3F89C10C3F89C20D3F89C30B7
:103D200000F0F2F910BD00BF0044025800F8FFFF98
:103D30006B4B0122C3F808216A4BD3F8F42042F000
:103D40000202C3F8F420D3F81C2142F00202C3F8A7
:103D50001C21D3F81C31644B0222DA60624B5B6891
:103D600013F4005FFAD0604B604A1A6001229A6037
:103D70005F4ADA6000221A614FF440429A615A4B5E
:103D80009B6913F4005FFAD0574A136843F48073B9
:103D90001360544B1B6F13F4407F05D0514B4FF40D
:103DA00080321A6700221A674E4A136843F00103F3
:103DB00013604C4B1B6813F0040FFAD0494B0022E0
:103DC0001A61484B1B6913F0380FFAD1454B012299
:103DD0001A604FF080425A6000225A67454ADA6200
:103DE000454A1A611A6842F480321A603D4B1B68DA
:103DF00013F4003FFAD03B4A136843F48053136036
:103E0000384B1B6813F4005FFAD0364B3B4A9A627A
:103E100000225A633A491963DA633A4999635A644A
:103E2000394A1A64394ADA621A6842F0A8521A60AA
:103E30002C4B1B6803F02853B3F1285FF8D1294BB2
:103E400048229A614FF48862DA6140221A62304A4D
:103E5000DA644FF080521A652E4A5A652E4A9A65E6
:103E60002E4B32221A602D4B1B6803F00F03022BDE
:103E7000F9D11C4A136943F003031361194B1B6901
:103E800003F03803182BF9D1164BD3F8DC2042F09D
:103E90000052C3F8DC20D3F8042142F00052C3F8EA
:103EA0000421D3F80421D3F8DC2042F08042C3F887
:103EB000DC20D3F8042142F08042C3F80421D3F877
:103EC0000421D3F8DC2042F00042C3F8DC20D3F810
:103ED000042142F00042C3F80421D3F804317047B2
:103EE00000800051004402580048025800C000F011
:103EF000020000010000FF0100889008121020005D
:103F0000630209012C02040047040508FD0BFF01B0
:103F1000200000200010E0000001010000200052FD
:103F200008B54FF0B042D2F8883003F00103C2F870
:103F300088302BB1044B1B6813B1034A5068984773
:103F4000FEF780FC08BD00BFFC41002008B54FF023
:103F5000B042D2F8883003F00203C2F888302BB1A7
:103F6000044B9B6813B1034AD0689847FEF76AFC7C
:103F700008BD00BFFC41002008B54FF0B042D2F8A8
:103F8000883003F00403C2F888302BB1044B1B695E
:103F900013B1034A50699847FEF754FC08BD00BFAF
:103FA000FC41002008B54FF0B042D2F8883003F051
:103FB0000803C2F888302BB1044B9B6913B1034A44
:103FC000D0699847FEF73EFC08BD00BFFC410020C9
:103FD00008B54FF0B042D2F8883003F01003C2F8B1
:103FE00088302BB1044B1B6A13B1034A506A9847BF
:103FF000FEF728FC08BD00BFFC41002010B54FF0C3
:10400000B043D3F8884004F47872C3F8882014F0E1
:10401000200F05D0164B9B6A13B1154AD06A9847FA
:1040200014F0400F05D0124B1B6B13B1104A506BAC
:10403000984714F0800F05D00D4B9B6B13B10C4AC1
:10404000D06B984714F4807F05D0094B1B6C13B1DB
:10405000074A506C984714F4007F05D0044B9B6CC2
:1040600013B1034AD06C9847FEF7ECFB10BD00BFBC
:10407000FC41002010B54FF0B043D3F8884004F461
:104080007C42C3F8882014F4806F05D01A4B1B6D56
:1040900013B1194A506D984714F4006F05D0164BB0
:1040A0009B6D13B1144AD06D984714F4805F05D00E
:1040B000114B1B6E13B1104A506E984714F4005FF9
:1040C00005D00D4B9B6E13B10B4AD06E984714F47C
:1040D000804F05D0084B1B6F13B1074A506F9847AC
:1040E00014F4004F05D0044B9B6F13B1024AD06FFC
:1040F0009847FEF7A7FB10BDFC41002008B5FFF76D
:1041000089FDFEF79FFB08BD08B506210846FFF7AD
:1041100041FA06210720FFF73DFA06210820FFF7A4
:1041200039FA06210920FFF735FA06210A20FFF7A0
:1041300031FA06211720FFF72DFA06212820FFF774
:1041400029FA09217A20FFF725FA07213220FFF703
:1041500021FA08BD08B5FFF775FD00F009F8FDF775
:104160000BFAFDF791F8FFF729FDFFF73DFC08BDBD
:10417000002307E0054A002142F8331002EBC30296
:10418000516001330F2BF5D9704700BFFC4100206F
:1041900010B501390244904201D1002005E00378B6
:1041A00011F8014FA34201D0181B10BD0130F2E7F6
:1041B000034611F8012B03F8012B002AF9D17047AF
:1041C00053544D333248373F3F3F000053544D3333
:1041D00032483734332F37353300000001105A008E
:1041E0000310590001205800032056000000000071
:1041F0004112000825120008791200085D1200081B
:104200006D1200085112000835120008191200083A
:10421000651100080000000001000000000000001F
:104220006D61696E0000000069646C65000000004B
:1042300028420008F823002070250020010000001B
:10424000891D0008000000004172647550696C6FA0
:104250007400000025424F415244252D424C00007D
:104260002553455249414C25000000000200000042
:104270000000000065140008F11400084000400030
:10428000183E0020283E0020020000000000000030
:1042900003000000000000004515000800000000B9
:1042A00010000000383E0020000000000100000067
:1042B00000000000AC40002001010200F5210008D0
:1042C000E12000087D210008612100084300000072
:1042D000D442000809024300020100C03209040070
:1042E0000001020201000524001001052401000163
:1042F000042402020524060001070582030800FFCA
:1043000009040100020A0000000705010240000044
:104310000705810240000000120000002043000851
:10432000120110010200004009124157000201026F
:10433000030100000403090425424F4152442500B3
:10434000536B797374617273483748442D62647398
:10435000686F740030313233343536373839414282
:10436000434445460000000000000000AD1900086D
:10437000AD1A00085D1B000840004000E441002029
:10438000E441002001000000F44100208000000012
:1043900040010000080000000001000000040000CF
:1043A000080000000000806A00000000AAAAAAAA73
:1043B00000000064FFFF00000000000000A00A00F1
:1043C0004000000100000000AAAAAAAA0000000103
:1043D000F7FF000000000000000000001004004093
:1043E00000000000AAAAAAAA00000040FFFF0000E7
:1043F00000000000000000001000000000000000AD
:10440000AAAAAAAA00000000FBFF0000000000000A
:10441000000000004001400000000000AAAAAAAA73
:1044200000004000FFFF000000000000000000004E
:104430000000000000000000AAAAAAAA00000000D4
:10444000FFFF00000000000000000000000000006E
:1044500000000000AAAAAAAA00000000FFFF0000B6
:10446000000000000000000000000000000000004C
:10447000AAAAAAAA00000000FFFF00000000000096
:10448000000000000000000000000000AAAAAAAA84
:1044900000000000FFFF000000000000000000001E
:1044A0000000000000000000AAAAAAAA0000000064
:1044B000FFFF0000000000000000000000000000FE
:1044C00000000000AAAAAAAA00000000FFFF000046
:1044D00000000000000000003304000000000000A5
:1044E00000001A0000000000FF00000000000000B3
:1044F000C04100083F00000050040000CC4100080B
:104500003F00000000960000000008000096000038
:104510000000080004000000344300080000000010
:10452000000000000000000000000000000000008B
:044530000000000087
:00000001FF
