:020000040800F2
:1000000000060020F5050008912500084525000898
:100010006D2500084525000865250008F70500083E
:10002000F7050008F7050008F70500083D5B000824
:10003000F7050008F7050008F7050008F7050008B0
:10004000F7050008F7050008F7050008F7050008A0
:10005000F7050008F7050008215F00084D5F00085C
:10006000795F0008A55F0008D15F0008F705000868
:10007000F7050008F7050008F7050008F705000870
:10008000F7050008F7050008F7050008F705000860
:10009000F7050008F7050008F7050008FD5F0008F0
:1000A000F7050008F7050008F7050008F705000840
:1000B000F7050008F7050008F7050008F705000830
:1000C000F7050008F7050008F7050008F705000820
:1000D000F7050008E9600008F7050008F7050008C3
:1000E00061600008F7050008F7050008F70500083B
:1000F000F7050008F7050008F7050008F7050008F0
:10010000F7050008F7050008FD600008F70500087E
:10011000F7050008F7050008F7050008F7050008CF
:10012000F7050008F7050008F7050008F7050008BF
:10013000F7050008F7050008F7050008F7050008AF
:10014000F7050008F7050008F7050008F70500089F
:10015000F7050008F7050008F7050008F70500088F
:10016000F7050008F7050008F7050008F70500087F
:10017000F7050008E14F0008F7050008F70500083B
:10018000F7050008F7050008F7050008F70500085F
:10019000F7050008F7050008F7050008F70500084F
:1001A000F7050008F7050008F7050008F70500083F
:1001B000D5600008F7050008F7050008F7050008F6
:1001C000F7050008F7050008F7050008F70500081F
:1001D000F7050008F7050008F7050008F70500080F
:1001E000F7050008F7050008F7050008F7050008FF
:1001F000F7050008F7050008F7050008F7050008EF
:10020000F7050008F7050008F7050008F7050008DE
:10021000F7050008F7050008F7050008F7050008CE
:10022000F7050008F7050008D9470008F70500089A
:10023000F7050008F7050008F7050008F7050008AE
:10024000F7050008F7050008F7050008F70500089E
:10025000F7050008F7050008F7050008F70500088E
:10026000F7050008F7050008F7050008F70500087E
:10027000F7050008F7050008F7050008F70500086E
:10028000F7050008F7050008F7050008F70500085E
:10029000F7050008F7050008F7050008F70500084E
:1002A000F7050008F7050008F7050008F70500083E
:1002B000F7050008F7050008F7050008F70500082E
:1002C000F7050008F7050008F7050008F70500081E
:1002D000F7050008F7050008F7050008F70500080E
:1002E000D50700080D2200081D25000800000000A9
:1002F00053B94AB9002908BF00281CBF4FF0FF318D
:100300004FF0FF3000F074B9ADF1080C6DE904CE88
:1003100000F006F8DDF804E0DDE9022304B07047E0
:100320002DE9F047089D04468E46002B4DD18A42A8
:10033000944669D9B2FA82F252B101FA02F3C2F1DB
:10034000200120FA01F10CFA02FC41EA030E94406C
:100350004FEA1C48210CBEFBF8F61FFA8CF708FB8D
:1003600016E341EA034306FB07F199420AD91CEB65
:10037000030306F1FF3080F01F81994240F21C8197
:10038000023E63445B1AA4B2B3FBF8F008FB1033DF
:1003900044EA034400FB07F7A7420AD91CEB040414
:1003A00000F1FF3380F00A81A74240F207816444E4
:1003B000023840EA0640E41B00261DB1D440002369
:1003C000C5E900433146BDE8F0878B4209D9002DCD
:1003D00000F0EF800026C5E9000130463146BDE857
:1003E000F087B3FA83F6002E4AD18B4202D38242C1
:1003F00000F2F980841A61EB030301209E46002D70
:10040000E0D0C5E9004EDDE702B9FFDEB2FA82F2C4
:10041000002A40F09280A1EB0C014FEA1C471FFA22
:100420008CFE0126200CB1FBF7F307FB131140EA09
:1004300001410EFB03F0884208D91CEB010103F1D6
:10044000FF3802D2884200F2CB804346091AA4B298
:10045000B1FBF7F007FB101144EA01440EFB00FE6C
:10046000A64508D91CEB040400F1FF3102D2A645D1
:1004700000F2BB800846A4EB0E0440EA03409CE770
:10048000C6F12007B34022FA07FC4CEA030C20FA1D
:1004900007F401FA06F31C43F9404FEA1C4900FA3D
:1004A00006F3B1FBF9F8200C1FFA8CFE09FB1811BA
:1004B00040EA014108FB0EF0884202FA06F20BD92D
:1004C0001CEB010108F1FF3A80F08880884240F27D
:1004D0008580A8F102086144091AA4B2B1FBF9F0C1
:1004E00009FB101144EA014100FB0EFE8E4508D9BC
:1004F0001CEB010100F1FF346CD28E456AD9023841
:10050000614440EA0840A0FB0294A1EB0E01A14225
:10051000C846A64656D353D05DB1B3EB080261EB93
:100520000E0101FA07F722FA06F3F1401F43C5E96D
:10053000007100263146BDE8F087C2F12003D840A3
:100540000CFA02FC21FA03F3914001434FEA1C47E5
:100550001FFA8CFEB3FBF7F007FB10360B0C43EAD7
:10056000064300FB0EF69E4204FA02F408D91CEB87
:10057000030300F1FF382FD29E422DD90238634485
:100580009B1B89B2B3FBF7F607FB163341EA034125
:1005900006FB0EF38B4208D91CEB010106F1FF3874
:1005A00016D28B4214D9023E6144C91A46EA00466B
:1005B00038E72E46284605E70646E3E61846F8E6FD
:1005C0004B45A9D2B9EB020864EB0C0E0138A3E746
:1005D0004646EAE7204694E74046D1E7D0467BE727
:1005E000023B614432E7304609E76444023842E79F
:1005F000704700BF02E000F000F8FEE772B637482F
:1006000080F30888364880F3098836483649086000
:1006100040F20000CCF200004EF63471CEF2000140
:100620000860BFF34F8FBFF36F8F40F20000C0F23E
:10063000F0004EF68851CEF200010860BFF34F8FF4
:10064000BFF36F8F4FF00000E1EE100A4EF63C71E1
:10065000CEF200010860062080F31488BFF36F8F8C
:1006600004F04AF805F0C4F94FF055301F491B4A11
:1006700091423CBF41F8040BFAE71D49184A9142E8
:100680003CBF41F8040BFAE71A491B4A1B4B9A423C
:100690003EBF51F8040B42F8040BF8E7002018495C
:1006A000184A91423CBF41F8040BFAE704F062F8A3
:1006B00005F018FA144C154DAC4203DA54F8041B3B
:1006C0008847F9E700F050F8114C124DAC4203DABC
:1006D00054F8041B8847F9E704F04AB800060020E4
:1006E000002200200000000808ED00E000000020CB
:1006F000000600201869000800220020D4220020F3
:10070000D82200200C4A0020E0020008EC02000879
:10071000EC020008EC0200082DE9F04F2DED108AE4
:10072000C1F80CD0D0F80CD0BDEC108ABDE8F08F29
:10073000002383F311882846A047002003F0DEF948
:10074000FEE703F0F7F800DFFEE70000054B10B509
:1007500004460360806810B103685B6898472046D0
:1007600010BD00BF6464000838B503F0EBFE054619
:1007700003F0B8FF0446F0B9144B9D421DD001337D
:100780009D4241F2883512BF044600250124002015
:1007900003F0E2FE0CB100F09FF80D4C00F0FAFE01
:1007A00000F0A2FD204601F03FFB40B944F6206076
:1007B00003F0AAF9F6E70025E9E70546E7E728464A
:1007C00000F030F900F088F8F9E700BF010007B049
:1007D000D82200200448054B054A03600023054940
:1007E000836005F0E5BC00BFD822002064640008E7
:1007F000F42400204D07000808B500F041FDA0F1E9
:1008000020035842584108BD07B5042101900DEB63
:10081000010000F053FD03B05DF804FB07B541F2A1
:100820001203022101A8ADF8043000F047FD03B027
:100830005DF804FB38B5302383F31188174803684B
:100840000BB103F03FFA0023154A4FF47A711348B5
:1008500003F02EFA002383F31188124C236813B19E
:100860002368013B2360636813B16368013B6360E5
:100870000D4D2B7833B963687BB9022000F0F4FD8D
:10088000322363602B78032B07D163682BB90220D6
:1008900000F0EAFD4FF47A73636038BD68230020EE
:1008A000350800088824002080230020084B187099
:1008B00003280CD8DFE800F008050208022000F049
:1008C000CBBD022000F0BEBD024B00225A60704733
:1008D0008023002088240020F7B54D4801A901F0AD
:1008E0002BFC002800F091804FF01043494A196812
:1008F000013100F0878004339342F8D14FF0104467
:100900006268A2427ED3444BDB6823449A4279D288
:10091000002000F003FD0220FFF7C8FF3F4B00213D
:10092000D3F8E820C3F8E810D3F81021C3F8101169
:10093000D3F81021D3F8EC20C3F8EC10D3F814212D
:10094000C3F81411D3F81421D3F8F020C3F8F01031
:10095000D3F81821C3F81811D3F81821D3F8802040
:1009600042F00072C3F88020D3F8802022F0007299
:10097000C3F88020D3F8803072B64FF0E023C3F87C
:10098000084DD4E90004BFF34F8FBFF36F8F244AA3
:10099000C2F88410BFF34F8F536923F4803353613F
:1009A000BFF34F8FD2F8803043F6E076C3F3C9052A
:1009B000C3F34E335B0103EA060C29464CEA817708
:1009C0000139C2F87472F9D2203B13F1200FF2D131
:1009D000BFF34F8FBFF36F8FBFF34F8FBFF36F8F97
:1009E000536923F4003353610023C2F85032BFF33C
:1009F0004F8FBFF36F8F302383F31188854680F3C9
:100A000008882047024800F063FE03B0F0BD00BF35
:100A1000D82200202000009000220020004402582C
:100A200000ED00E02DE9F04FB34B9DB02022FF21F7
:100A3000079014A89E68DB68069300F055FDAF4A46
:100A40001378A3B90121AE4811700360302383F3FA
:100A5000118803680BB103F035F90023A94A4FF45C
:100A60007A71A74803F024F9002383F31188079BC8
:100A700013B1A54B079A1A60A44A1378032B03D02D
:100A800000231370A04A53600023079DA04F98468F
:100A90009B46CDE90433012000F0DEFC25B19A4BE2
:100AA0001B68002B00F07C83002000F0E9FB0C9019
:100AB0000C9B002BF2DB012000F0C4FC0C9B213BC3
:100AC0001F2BE8D801A252F823F000BF4D0B0008FD
:100AD000750B00080F0C0008970A0008970A000819
:100AE000970A0008ED0E0008E5100008830F0008C3
:100AF0006310000889100008AF100008970A00086A
:100B0000C1100008970A00082D110008ED0B00081D
:100B1000970A0008A7110008AD0C0008DF0D0008B7
:100B2000970A0008CD0F0008970A0008970A0008E6
:100B3000970A0008970A0008970A0008970A000811
:100B4000970A0008970A00080F0C00080220FFF718
:100B500053FE002840F05083079B0221059A0FA8FE
:100B6000002A08BF1D4641F21233ADF83C3000F0B8
:100B7000A5FB90E74FF47A7000F082FB041EEBDBDC
:100B80000220FFF739FE0028E6D0013C052C00F2D8
:100B90003583DFE804F0030A0D101339052304211F
:100BA0000FA80F9300F08AFB17E004215248F9E7E1
:100BB00004215848F6E704215748F3E74FF01C0991
:100BC000484609F1040900F0ABFB04210F900FA87F
:100BD00000F074FBB9F12C0FF2D10120049B4FF00F
:100BE000000B00FA04F41C43E3B2049300F0C8FCC9
:100BF000B8F1000F05D0049B03F00B030B2B08BFCB
:100C00000025FFF70BFE46E704214448CAE7B8F188
:100C1000000FA1D0049B03F00B030B2B9CD10220EF
:100C2000FFF7EAFD0446002896D001204FF00008A7
:100C300000F074FB0220FFF739FE5FFA88F948469E
:100C400000F07CFB0546B8B10C99484608F1010854
:100C5000A1F140025142514100F080FB0028ECD14B
:100C60000546059441F2121302210FA8A046ADF8E3
:100C70003C3000F023FB0EE72E46DFF87C8001209D
:100C8000FFF714FED8F80830B34207D9304600F019
:100C900047FB013040F0B5820436F3E700261B4BDA
:100CA000A04605941E70184B5E609FE7B8F1000FD8
:100CB0003FF452AF049B03F00B030B2B7FF44CAFBC
:100CC00064210DA800F0F0FA814600287FF444AFBB
:100CD0000220FFF791FD044600283FF43DAF7A6AF9
:100CE0003B6A8DF82F9053430D9A93421AD20C48C9
:100CF00000F0C4FB30E700BF002200208424002065
:100D00006823002035080008882400208023002064
:100D1000D822002004220020082200200C220020DB
:100D200008630008BF48C846CA4600F0A7FBFFF7A3
:100D300075FD01210DF12F0000F0C0FA0D9B534508
:100D400041D900230EAA41463846CDE90E330FABF8
:100D500000F0C2FC002885D001F022FC0E9B00EBC5
:100D6000030901210DF12F0000F0A8FA01F018FC91
:100D7000484520D9384600F019FF80B964210D9B01
:100D8000A94808F1010801FB0AF1B1FBF3F18DF864
:100D90002F10C9B200F072FB3B6A9A44CEE701F013
:100DA000FFFB0F9B184448453FF65CAF01F0F8FB92
:100DB0000E9B00EB03090E9B4FF47A70A3FB00031C
:100DC00002F0A2FECDE7642301210DF12F00A04621
:100DD0008DF82F3000F072FA0023069306E7B8F181
:100DE000000F3FF4B9AE049B03F00B030B2B7FF411
:100DF000B3AE0220FFF75AFD322000F041FAB0F105
:100E0000000AFFF6A9AE069BD14653440893874BD0
:100E1000089ADB689A423FF69FAEBAF5807F3FF7AB
:100E20009BAE834A0024A24509920EDD4FF47A70EE
:100E300000F026FA0C900C9B002BFFF68DAE0C9B5D
:100E40000134099A02F8013BEDE7C820FFF7D4FC12
:100E5000044600283FF480AE069B1F2B11D8C3F137
:100E6000200223F0030014AB71495245184428BFF7
:100E70005246099200F006FB099AFF216C4800F0E7
:100E800033FB00239846CDE90E33B9F1000F02D1B0
:100E9000A046089BA1E70FAB654A06993846029326
:100EA0000EAB4244414401930DAB00934B4601F01D
:100EB000A3F800283FF4D6AE01F074FB0D9B8246E8
:100EC00009919844A9EB030901F06CFB0E9B099A68
:100ED00013EB0A0342F10002834272EB0103F3D2E7
:100EE000384600F063FE0028EED1CEE7B8F1000FDF
:100EF0003FF432AE049B03F00B030B2B7FF42CAEBC
:100F00000220FFF7D3FC322000F0BAF9B0F1000A5A
:100F1000FFF622AE1AF003047FF41EAE434A0AEB3A
:100F20000603926893423FF617AEBAF5807F3FF70B
:100F300013AEDFF8FC90A2450DDD4FF47A7000F09F
:100F40009FF90C900C9B002BFFF606AE0C9B013416
:100F500009F8013BEFE7C820FFF74EFC04460028E4
:100F60003FF4FAADCAF38702314930464FEAAA0985
:100F700000F0C2FA804600283FF474AE06EB890602
:100F800034E60220FFF738FC00283FF4E5AD00F01E
:100F900003FA00283FF4E0AD4FF00009DFF88CA021
:100FA0004C46DAF808304B450CD9484609F104099B
:100FB00000F0B6F904220F900FA9204601F02EF997
:100FC0000446EEE72046FFF71FFC0FE664210EA85B
:100FD00000F06AF9044600287FF4BEAD0220FFF756
:100FE0000BFC00283FF4B8AD0E9BA14603F0030AAA
:100FF0000E99A1EB0A01A14223D91F2C1AD8149BE8
:10100000013317D024F003031CAA134453F8203CE7
:101010000F93484604220FA9043401F0FFF88146DB
:10102000E6E700BF2D6300084563000800220020AA
:101030008423002004230FAA2146384601F028F813
:10104000E7E7BAF1000F0AD053460FAA384601F07D
:101050001FF8484652460FA901F0E0F8814648467D
:10106000B1E7002364210FA80F9300F01DF90028B9
:101070007FF472AD0220FFF7BFFB00283FF46CAD98
:101080000F9800F07FF99EE7002364210FA80F93CB
:1010900000F00AF900287FF45FAD0220FFF7ACFBF7
:1010A00000283FF459AD0F9800F06EF98BE702204D
:1010B000FFF7A2FB00283FF44FAD00F07DF982E777
:1010C0000220FFF799FB00283FF446AD0FA914203A
:1010D00000F078F90890FFF797FB08990FA800F047
:1010E000EDF883E5322000F0CBF8041EFFF634ADB6
:1010F000A3077FF431AD444A04EB0B03926893429B
:101100003FF62AAD0220FFF777FB00283FF424AD1D
:1011100024F003045C44A3453FF468AD58460BF14A
:10112000040B00F0FDF8FFF76FFBF4E74FF47A7063
:10113000FFF762FB00283FF40FAD00F02DF978B106
:10114000149B013327D00FAB14AA00213846029319
:101150000EAB01930DAB0093202300F04DFF08B9B7
:1011600044467FE501F01EFA284E04460D4601F084
:1011700019FA0E9B1B1945F10002834272EB010321
:10118000F5D2304600F012FD0028F0D12022FF21D8
:1011900014A800F0A9F9FFF741FB1D4802F0B4FCC8
:1011A0001DB0BDE8F08FB8F1000F3FF4D5AC049B43
:1011B00003F00B030B2B7FF4CFAC002364210FA8AB
:1011C0000F9300F071F8044600287FF4C5AC0220AC
:1011D000FFF712FB814600283FF4BEACFFF71EFB71
:1011E00041F2883002F090FC0F9800F015FAC846E2
:1011F000254600F0C5F94EE48046F7E44FF0000BB9
:10120000AAE405942EE500BF00220020D822002089
:10121000A08601002DE9F84F4FF47A7306460D467B
:10122000002402FB03F7DFF85080DFF8509098F9B4
:1012300000305FFA84FA5A1C01D0A34212D159F847
:1012400024002A4631460368D3F820B03B46D847ED
:10125000854207D1074B012083F800A0BDE8F88F35
:101260000124E4E7002CFBD04FF4FA7002F04CFCB0
:101270000020F3E7D42400201022002014220020B4
:10128000002307B5024601210DF107008DF8073054
:10129000FFF7C0FF20B19DF8070003B05DF804FB25
:1012A0004FF0FF30F9E700000A46042108B5FFF7C8
:1012B000B1FF80F00100C0B2404208BD074B0A46B2
:1012C00030B41978064B53F8214001462368204674
:1012D000DD69044BAC4630BC604700BFD42400201D
:1012E00014220020A086010070B50A4E00240A4D89
:1012F00002F028FF308028683388834208D902F042
:101300001DFF2B6804440133B4F5003F2B60F2D37A
:1013100070BD00BFD62400209024002002F0AABF98
:1013200000F1006000F500300068704700F10060D7
:10133000920000F5003002F03BBF0000054B1A6838
:10134000054B1B889B1A834202D9104402F0F6BE5B
:101350000020704790240020D624002038B5044691
:10136000074D29B128682044BDE8384002F0F2BE9C
:101370002868204402F0E8FE0028F3D038BD00BF02
:10138000902400200020704700F1FF5000F58F10DE
:10139000D0F8000870470000064991F8243033B1B6
:1013A00000230822086A81F82430FFF7BFBF01201C
:1013B000704700BF94240020014B1868704700BF9D
:1013C0000010005C1C4B0246F0B5186803261B4B4E
:1013D000C0F30B07000C5C6893F90850B3F800C029
:1013E000BC451AD15C6893F908500426144B1F8839
:1013F0000433874208BF13F9025C013EF7D1013A7A
:10140000013C0B460A4493420CD214F9016F581C5C
:1014100056B1034600F8016CF5E7013E03F10C03F9
:10142000DCD1E2E7184605E02C2482421C7001D989
:10143000981C5D70401AF0BD0010005C1C2200205A
:1014400080630008022803D1024B4FF400229A6106
:10145000704700BF00100258022802D1014B082239
:101460009A61704700100258022804D1024A536959
:1014700083F0080353617047001002580FB404B0A2
:1014800070470000002310B5934203D0CC5CC454D5
:101490000133F9E710BD0000013810B510F9013F24
:1014A0003BB191F900409C4203D11AB10131013A9C
:1014B000F4E71AB191F90020981A10BD1046FCE724
:1014C0000138013910F9013F11F9012F0BB1934295
:1014D000F8D0981A7047000003460246D01A12F955
:1014E000011B0029FAD1704702440346934202D0FF
:1014F00003F8011BFAE770472DE9F8431F4D144626
:101500000746884695F8242052BBDFF870909CB3BC
:1015100095F824302BB92022FF2148462F62FFF78F
:10152000E3FF95F824004146C0F1080205EB800076
:10153000A24228BF2246D6B29200FFF7A3FF95F839
:101540002430A41B17441E449044E4B2F6B2082E83
:1015500085F82460DBD1FFF71FFF0028D7D108E012
:101560002B6A03EB82038342CFD0FFF715FF0028DD
:10157000CBD10020BDE8F8830120FBE794240020B4
:10158000024B1A78024B1A70704700BFD424002017
:101590001022002038B51A4C1A4D204601F0F4FCF8
:1015A0002946204601F01CFD2D681748D5F89020EB
:1015B000D2F8043843F00203C2F8043802F0A4FA67
:1015C0001249284601F01AFED5F89020104DD2F8A5
:1015D0000438286823F002030E49A042C2F80438F8
:1015E0004FF4E1330B6001D001F02CFC6868A0429D
:1015F00004D00849BDE8384001F024BC38BD00BF24
:10160000F82B00208866000840420F009066000812
:1016100014220020BC2400200C4B70B50C4D044655
:101620001E780C4B55F826209A420DD00A4B00210B
:1016300018221846FFF758FF0460014655F82600A7
:10164000BDE8704001F0FEBB70BD00BFD424002097
:1016500014220020F82B0020BC2400208069704751
:10166000C0697047006A7047406A7047806A704777
:10167000F0B5ADF2044D0E46054600214FF47F72E1
:1016800001A80091FFF730FF2C6A744301362B6AE2
:101690007343A34216D92B686A46214628465F68E1
:1016A0004FF48063B84770B16A464FF4806312F814
:1016B000011BFF290AD1013B9BB2002BF7D104F596
:1016C0008064E4E701200DF2044DF0BD0020FAE74C
:1016D00080680368DB69184730B5456A85B0044601
:1016E0008D420FD30568CDE90023026A03ABAD6AD2
:1016F0005143A84720B1206A039BC31A584258415E
:1017000005B030BD0020FBE7F0B5C56987B00446E1
:101710008D4212D30C9F866905687143CDE901376C
:1017200005AB00936D69036AA84720B1A069059BCA
:10173000C31A5842584107B0F0BD0020FBE7000033
:10174000F0B5662389B00024054601268068079419
:1017500003A9CDE90336CDE9054403685B699847E1
:10176000A86822462146036800941F692346B847AB
:10177000A8689923079403A9CDE90336CDE9054468
:1017800003685B699847A86822462146036800946D
:101790001D692346A84709B0F0BD0000254B2DE97F
:1017A000F04F1B789FB0002504468DF828304FF08D
:1017B0009F0E806805A9204BADF829500995CDE909
:1017C00005E3CDE9075503685B699847A0680322E4
:1017D0002946036800922A461E690AABB04738B30F
:1017E0000C2294F88C30DFF858B09DF8281002FBDA
:1017F00003B31A7991421BD19DF829205B799A4253
:1018000016D1A0684FF05A0C0C4B082605A9099672
:10181000CDE905C3CDE9075503685B699847A06822
:101820002A462946036800961F690AABB84748B99B
:1018300000205EE1DC6200080100000101210001DE
:10184000386400080422B7490AA804F0EBFC0546F6
:101850000028EDD1BDF82C306FF48277A3813B4492
:10186000012BE5D8079605A9CDE90A00A068036811
:101870005B699847A0682A462946036800961E6956
:101880000AABB0470028D3D0DDE90A361A0202F4C9
:10189000706242EA1662FF2ACAD11B0E26F07F460A
:1018A00050222946142B26610AA828BF1423A373AB
:1018B000FFF71AFEA068079605A903685B699847B9
:1018C000A068A37B294602689B0000930AAB1669B7
:1018D0002A46B0470028ABD00B990029A8DBC908DD
:1018E0006FF07E43149D4FF0010E994228BF1946B8
:1018F000C5F303130EFA03F221FA03F302916161B7
:10190000A261E361002B93D02646A44600274FF046
:1019100002081EAAC7F3460302EB830353F834AC54
:1019200007F001031B01DA1D0EFA03F908FA02F2AF
:10193000A2EB090202EA0A02DA401BD0216A03F193
:1019400008090F330EFA02F203910EFA09F108FAB0
:1019500003F3CCF830205B1A03EA0A0323FA09F9EF
:10196000039B8CF82C909A42A36A88BF2262934210
:1019700088BFA26201370CF1100C042FC9D1236A71
:101980004FF0020C029A4FF0010E139F9A4224BFAF
:10199000B2FBF3F1616207F00F0138BF01234FF092
:1019A000090201F1010138BF63624900336B4BB397
:1019B000531C0EFA02F8A2F105090CFA03F30EFA11
:1019C00009FAA3EB080302F1FF380CFA08F83B40D0
:1019D000A8EB0A08D34008EA070828FA09F800F03B
:1019E0008B80012B00F08A80022B00F08980032B72
:1019F00008BF4FF47A735FFA88F808FB0333736308
:101A00004B43B36307321036252ACFD115F0C04FB0
:101A1000C5F3417376D0012B76D0022B0CBF4FF467
:101A20007A634FF47A43C5F3046202FB0333E3663F
:101A30004B432367199B9E0769D0062384F87430B3
:101A400015F4005F05F00F03C5F3042514BF402211
:101A50000822013305FB02250C225B00A5675D43CC
:101A600094F88C3002FB03B3E5679B68012B03D12C
:101A70009DF86930002B52D10A9B9B027FF5D8AEAE
:101A8000022300221EA901EB830353F8503CC3F349
:101A90000721C3F3421503F01F0384F8801084F874
:101AA000885084F8813000293FF4C2AE002A3FD12B
:101AB000189BC3F3025213F4401F84F883207FF471
:101AC000B7AEDF0630D4189B03F40072002A14BFAF
:101AD0000122002284F8872039D1179B1A0740D5AC
:101AE000002384F88630702384F88530012384F83D
:101AF0008D301FB0BDE8F08F01237CE710237AE71B
:101B0000802378E710238EE74FF480738BE7590723
:101B100001D5502392E713F0780F91D088E6024662
:101B20001023AFE790630008042A7FF481AECAE770
:101B30001C9BC3F30751C3F3025211F0060F84F844
:101B400083207FF475AE9E06BDD5012AEDE7DD0347
:101B500003D5002384F88930BFE79903BDD501235D
:101B6000F8E75B07C2D5012384F886300523BBE77D
:101B700030B58BB000240546806803920A4A05916F
:101B800005A9CDE90624CDE90844026852699047C9
:101B9000A8680121039B026800912146156922462D
:101BA000A8470BB030BD00BF0100000113B50446CB
:101BB000A0680368DB6C98470028F9D10DF1070293
:101BC00094F885102046FFF7D3FF94F886309DF8EF
:101BD00007001BB100F0010002B010BDC043C0F30C
:101BE000C010F9E730B50D4B8BB000240546806876
:101BF0008DF80F20059105A9CDE90634CDE90844FB
:101C000003685B699847A86801220DF10F0103681A
:101C100000941D692346A8470BB030BD01000001A8
:101C2000F7B517460DF1070206461D46FFF7A0FF60
:101C300068B19DF8074039469DF82020304624EAD7
:101C400005042A4022438DF80720FFF7CBFF03B09D
:101C5000F0BD000030B5012389B00024054680683E
:101C6000039103A9CDE90434CDE9064403685B6917
:101C70009847A86822462146036800941D692346B8
:101C8000A84709B030BD000010B5044623682046BF
:101C9000DB6A98470028F9D110BD000010B590F814
:101CA000743004465BB1FFF7EFFF012394F8741022
:101CB000204684F88E30BDE81040FFF7CBBF0120EE
:101CC00010BD000010B590F87430044653B1FFF712
:101CD000DBFF01232046042184F88E30BDE810404C
:101CE000FFF7B8BF012010BDF0B590F883708BB03E
:101CF0000446042F50D100270DF10E0205218DF866
:101D00000E708DF80F70FFF733FF00282FD00DF104
:101D10000F0235212046FFF72BFF40B32046404EEF
:101D2000FFF7BCFF2046FFF7AFFF05AD0FCE0FC595
:101D3000336805A99DF80E202B609DF80F30A06830
:101D400043F002038DF810208DF811308DF80F301C
:101D500003685B699847A068022204A9036800979A
:101D60001D693B46A84720B92046FFF7ABFF00207E
:101D700010E02046FFF7A6FF0DF10F0235212046A7
:101D8000FFF7F6FE0028F2D09DF80F309A07EED547
:101D9000012363600BB0F0BD012F3ED1214E05AD94
:101DA0000FCE0FC5336805A9A0682B6003685B6977
:101DB0009847A06800220368114600971D6904AB8C
:101DC000A8470028D3D02046FFF768FF2046FFF73A
:101DD0005BFF9DF810203121204642F004028DF86F
:101DE0001020FFF7FFFE0028BED02046FFF76AFF55
:101DF000A06805A903685B699847A068002203688A
:101E0000114600971D6904ABA8470028AFD09DF884
:101E100010305B07ABD50223BBE70120BAE700BF58
:101E2000E0620008F46200082DE9F3410023044653
:101E30008068A36010B103685B6898470025264E50
:101E4000264F0C2301A839465FFA85F86B439A594F
:101E500000F086FA019BA0680022A360019210B1F5
:101E600003685B689847019810B103685B689847FE
:101E7000A368E3B141F2883084F88C8001F044FE1D
:101E80002046FFF75DFC1E2001F03EFE2046FFF7D6
:101E900085FC054688B994F88C300C2210485343D1
:101EA000F158FFF7EBFA284602B0BDE8F0810135A2
:101EB000032DC6D10B4800F06DFB2046FFF714FF41
:101EC0000C2294F88C3005465343F15808B9064863
:101ED000E7E70648E5E700BF38640008D82400209B
:101EE000986300080E640008C2630008EC630008F1
:101EF0002DE9F041044688B00F461646FFF7CEFEA6
:101F00002046FFF7C1FE0025C722A06801230795E0
:101F100003A9CDE90323CDE9055503685B6998471B
:101F2000A0682A46294603680095D3F810802B46FE
:101F3000C047054630B92046FFF7C4FE284608B022
:101F4000BDE8F081E36E3B60236F3360F3E7000090
:101F50002DE9F041002588B01F4604460E460E9B31
:101F600000F1400CA8463D60016B81B1A9420ED33F
:101F700091420CD8B6FBF1FE01FB1E6139B9416BF1
:101F800090F82C800F9D1960816B296015461030E8
:101F90006045E9D16DB3AB196269934229D82046F7
:101FA000FFF77CFE2046FFF76FFE42F20113A068A8
:101FB00003A9CDF80C80CDE904360026CDE90666EC
:101FC00003685B699847A06832463146036800960B
:101FD000D3F810803346C047064620462EB9FFF797
:101FE00071FE304608B0BDE8F081FFF76BFE3D6042
:101FF000F7E70026F5E700002DE9F0418669054680
:1020000088B00F46B3429046B1FBF6FC06FB1C1CA1
:1020100028BF3346A6EB0C0C00269C45644628BF1F
:102020001C46FFF73BFE2846FFF72EFE0222A8685B
:1020300003A9164B0597CDE90323CDE9066603688E
:102040005B699847A86822464146036800961F6965
:102050003346B847064628462EB9FFF733FE3046CA
:1020600008B0BDE8F081FFF72DFE0E9B1C60AB6F42
:10207000AA696343B3FBF2F30F9A1360EA6F109BF4
:102080005443AA69B4FBF2F41C60E8E701210001A3
:102090002DE9F04FCE18436989B004469E420F46A1
:1020A00091463FD83D464FF00008DFF888A0FFF783
:1020B000EBFDAE423AD994F88030A6EB050B0393C2
:1020C00042F20103BBF5806F0493636828BF4FF4AD
:1020D000806B012BCDE905581FD1CDF810A094F8E5
:1020E000882003A994F88130012AA06808BF03F171
:1020F000FF33079303685B699847A068A9EB070360
:102100000268CDF800B02B44D2F810B0002211467E
:10211000D84740B105F58065CBE7022B04BF044BDF
:102120000493DCE7002009B0BDE8F08F0120FAE756
:102130000124040401230303F0B5044689B00E46CC
:10214000FFF7A2FD94F887502DB194F889302BB198
:10215000012B28D00025284609B0F0BD94F8803026
:102160000393F023069342F2010304936368012B67
:1021700015D1214B04930023059394F88130A06876
:1021800003A9079303685B699847A0683146036811
:102190009B6998470546642001F0B6FCDBE7022BFB
:1021A000E9D1164BE6E720460027FFF777FD2046EA
:1021B000FFF76AFD08238122852120460097FFF75B
:1021C0002FFD054618B92046FFF77CFDC3E794F8BC
:1021D0008030069703930A4B04936368012B07D161
:1021E000084B04930023059394F88130013BC6E724
:1021F000022BF7D1044BF4E7012303030124040469
:10220000012000800123038301240484014B024A3E
:102210001A607047D82400206065000830B50A4471
:10222000084D91420DD011F8013B5840082340F36E
:102230000004013B2C4013F0FF0384EA5000F6D168
:10224000EFE730BD2083B8ED704700007047000015
:10225000002070470020704713B56C4600F114034E
:1022600084E8060094E8030083E8050002B010BD8E
:102270000020704713B56C4600F10C0384E806009B
:1022800094E8030083E8050002B010BD0023C0E914
:102290000333704782B002AB03E9060002B0704717
:1022A0007047000000207047704700000020704712
:1022B000002070470120704782B0002002A901E988
:1022C0000C0002B0704700000020704700207047EB
:1022D000036B1A79034B53F83230DB69186AC0F389
:1022E00040107047F86400080B6883634B684363D1
:1022F0008B68C363CB6803640B6943647047000059
:1023000038B5036B0446154D1B7955F8330001F0C1
:1023100075FAD4E90B231B7955F8331002F1300319
:102320004968994218D000231363E26A5363D4E9E1
:102330000B12537C581E137C92681B0443EA002343
:1023400013438B63D4E90B131B79303155F83300F9
:10235000BDE8384001F0E6B938BD00BFF8640008B8
:10236000F8B51D4F05460E4611463868FFF7A8F828
:1023700078BB74683B7924B394F82C209A420BD034
:102380002468F8E70122B52100F00EF97368236094
:102390003B79746084F82C30482003F013FF68B157
:1023A00000220271C0E90322C0E90522027A42F04C
:1023B00007020272094AC0E90B47026028602846FA
:1023C000F8BD4C2003F0FEFE04460028DAD12C6054
:1023D000F5E700232B60F2E7E02400200865000801
:1023E000044B10B504460360406A08B103F0E8FEF0
:1023F000204610BDAC64000810B50446FFF7F0FF9E
:10240000204603F0DBFE204610BD000008B519B1E0
:10241000FFF776FF012008BD036B1A79024B53F8D2
:10242000320001F0EFF9F5E7F86400082DE9FF410B
:10243000DDF828800546174603911FFA88F60293B7
:10244000FFF75EFF02ABBAB203A9E86A009600F09C
:10245000BFF8044638B900212846FFF7D7FF2046C9
:1024600004B0BDE8F081AFB92B6B05F134011A79E6
:10247000134B53F83200B8F1000F19D101F060F995
:1024800080F00104E4B23346E86ADDE9022100F09D
:10249000C5F8E0E7029B83B92B6B3A46084805F183
:1024A00034011C79039B50F8340001F05FF9E7E731
:1024B000029B424601F070F9E2E70024E3E700BF27
:1024C000F864000813B504460191FFF719FF019A5B
:1024D000236B04F134011879054B53F8300001F0F7
:1024E00071F900212046FFF791FF012002B010BDD5
:1024F000F864000810B50446FFF702FF236B1A7951
:10250000054B53F8320001F06BF900212046FFF72C
:102510007DFF012010BD00BFF8640008064B0121BB
:10252000064A1A6000221A71054AC3E9021240F2F3
:1025300015121A82704700BFE02400202A640008A8
:1025400080A4BF0700B59BB0EFF3098168226846FD
:10255000FEF798FFEFF30583014B9B6BFEE700BF8F
:1025600000ED00E008B5FFF7EDFF000000B59BB0FF
:10257000EFF3098168226846FEF784FFEFF30583D5
:10258000014B5B6BFEE700BF00ED00E0FEE70000E3
:10259000FEE700000FB408B5029801F041FAFEE72B
:1025A00001F06EBF01F046BF38B5084B0446154632
:1025B000017543600A21243002F002F804F128007A
:1025C0002A460A2101F0FCFF204638BD7465000848
:1025D000F8B51E461B6805460C4617461BB923680E
:1025E00063B9012408E0BDF818203146806A01F083
:1025F000FFFF0028F3D100242046F8BD21463A46CB
:10260000686A02F02BF804460028EAD13368002BF0
:10261000F1D0A86A02F056F8EEE7000038B50D4692
:10262000114604461A4611B1806A02F009F82DB12C
:102630002946606ABDE8384002F03CB838BD000069
:10264000036800211B68184703790BB1002202714F
:102650001846704703685B681847000003791BB988
:10266000012303711846704700207047704700002F
:1026700010B5044603F0A2FD204610BDCB0702D5DD
:10268000014801F0CDB970478C65000810B50D4CBC
:10269000204601F03FF84FF0A0420B4BC4E906235F
:1026A00000232362094BD3F8D42042F40012C3F86C
:1026B000D420D3F8FC2022F40012C3F8FC20D3F875
:1026C000FC3010BDF8240020005000520044025895
:1026D00010B503780446012B1AD1164B984217D136
:1026E00002461549102002F007F9144B2062D3F876
:1026F000D42042F48042C3F8D420D3F8FC2042F422
:102700008042C3F8FC201622D3F8FC3003689A629A
:102710006268E36991689960D16841F00101D9600C
:102720001169526919615A61054A1A601B225A627D
:1027300010BD00BFF82400207D2600080044025888
:1027400005000200C36980691A6822F040521A60CD
:1027500000221A640A690243C868C3F808210A689B
:10276000C3F8002112F4E06FC3F820014868C3F8F1
:10277000100101D08A689A647047000030B5046A7D
:102780002468A361C369806903F15005E5610225EE
:102790006261013A25614225E5601D6825F04055DA
:1027A0001D601A640A690243C868C3F808210A68F0
:1027B000C3F8002112F4E06FC3F820014868C3F8A1
:1027C000100101D08A689A64E36843F00103E36072
:1027D00030BD000070B5D0E907452D6804F1500602
:1027E000AE61EB6108236A61013A2B614223EB6021
:1027F000236823F0405343F0805323600B69226425
:1028000082691343CA68C4F808310B68C4F8003100
:1028100013F4E06FC4F820214A68C4F8102101D0F5
:102820008B68A364EB6843F00103EB6070BD0000AC
:1028300030B5C369104C85691C600C692C43C3F822
:1028400008410C684968C3F80041C3F81011002121
:10285000C3F820119964C3F88811C3F88011C3F834
:102860009011C3F8A011054B984203D112B14FF05B
:102870001043136030BD00BF01000030F824002079
:10288000C3691A6842F002021A601A689207FCD4FF
:10289000014A1A60704700BF05000200C3691B228D
:1028A00010B55A62044643681B682BB105220270BA
:1028B00098472378052B01D102232370302383F31B
:1028C0001188002104F1080001F038F9002383F396
:1028D0001188236A1A68D368DB07FCD410BD000096
:1028E000026843681143016003B118477047000054
:1028F000024A136843F0C0031360704700100140A0
:1029000013B50E4C204600F091FA04F11400002398
:102910004FF400720A49009400F04EF9094B4FF44D
:102920000072094904F13800009400F0C7F9074A21
:10293000074BC4E9172302B010BD00BF1C250020BF
:1029400088250020F1280008882700200010014079
:1029500080A4BF07037C30B5244C002918BF0C4667
:10296000012B11D1224B98420ED1224BD3F8F020EB
:1029700042F01002C3F8F020D3F8182142F0100200
:10298000C3F81821D3F818312268036EC16D03EB28
:1029900052038466B3FBF2F36268150442BF23F06E
:1029A000070503F0070343EA4503CB60A36843F040
:1029B00040034B60E36843F001038B6042F496737D
:1029C00043F001030B604FF0FF330B62510505D557
:1029D00012F0102205D0B2F1805F04D080F864308C
:1029E00030BD7F23FAE73F23F8E700BF9C6500086E
:1029F0001C250020004402582DE9F047C66D05460D
:102A00003768F469210734621AD014F0080118BF3E
:102A10004FF48071E20748BF41F02001A3074FF057
:102A2000300348BF41F04001600748BF41F08001DA
:102A300083F31188281DFFF753FF002383F31188C8
:102A4000E2050AD5302383F311884FF48061281DF5
:102A5000FFF746FF002383F311884FF030094FF052
:102A6000000A14F0200838D13B0616D54FF0300983
:102A700005F1380A200610D589F31188504600F078
:102A800051F9002836DA0821281DFFF729FF27F021
:102A900080033360002383F31188790614D562061E
:102AA00012D5302383F31188D5E913239A4208D134
:102AB0002B6C33B127F040071021281DFFF710FFC2
:102AC0003760002383F31188E30618D5AA6E1369D3
:102AD000ABB15069BDE8F047184789F31188736AB4
:102AE000284695F86410194000F0BAF98AF3118865
:102AF000F469B6E7B06288F31188F469BAE7BDE813
:102B0000F0870000F8B51546826804460B46AA42D5
:102B100000D28568A1692669761AB5420BD218469B
:102B20002A46FEF7AFFCA3692B44A3612846A3689D
:102B30005B1BA360F8BD0CD9AF1B18463246FEF7ED
:102B4000A1FC3A46E1683044FEF79CFCE3683B4454
:102B5000EBE718462A46FEF795FCE368E5E7000038
:102B600083689342F7B50446154600D28568D4E9D8
:102B70000460361AB5420BD22A46FEF783FC63691D
:102B80002B4463612846A3685B1BA36003B0F0BDC0
:102B90000DD93246AF1B0191FEF774FC01993A46FC
:102BA000E0683144FEF76EFCE3683B44E9E72A46FF
:102BB000FEF768FCE368E4E710B50A440024C3614B
:102BC000029B8460C16002610362C0E90000C0E949
:102BD000051110BD08B5D0E90532934201D18268D4
:102BE00082B98268013282605A1C426119700021E8
:102BF000D0E904329A4224BFC368436100F0B8FFB1
:102C0000002008BD4FF0FF30FBE7000070B5302317
:102C100004460E4683F31188A568A5B1A368A2698E
:102C2000013BA360531CA36115782269934224BF22
:102C3000E368A361E3690BB120469847002383F35F
:102C40001188284607E03146204600F081FF002821
:102C5000E2DA85F3118870BD2DE9F74F04460E4680
:102C600017469846D0F81C904FF0300A8AF3118826
:102C70004FF0000B154665B12A4631462046FFF756
:102C800041FF034660B94146204600F061FF00283D
:102C9000F1D0002383F31188781B03B0BDE8F08FD7
:102CA000B9F1000F03D001902046C847019B8BF378
:102CB0001188ED1A1E448AF31188DCE7C160C361F4
:102CC000009B82600362C0E905111144C0E9000065
:102CD00001617047F8B504460D461646302383F36C
:102CE0001188A768A7B1A368013BA36063695A1C58
:102CF00062611D70D4E904329A4224BFE3686361C3
:102D0000E3690BB120469847002080F3118807E063
:102D10003146204600F01CFF0028E2DA87F31188D4
:102D2000F8BD0000D0E9052310B59A4201D18268B0
:102D30007AB982680021013282605A1C82611C7853
:102D400003699A4224BFC368836100F011FF2046E3
:102D500010BD4FF0FF30FBE72DE9F74F04460E465C
:102D600017469846D0F81C904FF0300A8AF3118825
:102D70004FF0000B154665B12A4631462046FFF755
:102D8000EFFE034660B94146204600F0E1FE002810
:102D9000F1D0002383F31188781B03B0BDE8F08FD6
:102DA000B9F1000F03D001902046C847019B8BF377
:102DB0001188ED1A1E448AF31188DCE70268436823
:102DC0001143016003B11847704700001430FFF74A
:102DD00043BF00004FF0FF331430FFF73DBF00004A
:102DE0003830FFF7B9BF00004FF0FF333830FFF73E
:102DF000B3BF00001430FFF709BF00004FF0FF31F0
:102E00001430FFF703BF00003830FFF763BF000046
:102E10004FF0FF323830FFF75DBF0000012914BFCB
:102E20006FF0130000207047FFF76ABD044B03608A
:102E300000234360C0E9023301230374704700BFDD
:102E4000B465000810B53023044683F31188FFF7FA
:102E500081FD02230020237480F3118810BD00003F
:102E600038B5C36904460D461BB904210844FFF771
:102E7000A5FF294604F11400FFF7ACFE002806DA8E
:102E8000201D4FF40061BDE83840FFF797BF38BD03
:102E9000026843681143016003B11847704700009E
:102EA00013B5406B00F58054D4F8A4381A68117833
:102EB000042914D1017C022911D119790123128925
:102EC0008B4013420BD101A94C3002F049FBD4F8DE
:102ED000A4480246019B2179206800F0DFF902B086
:102EE00010BD0000143002F0CBBA00004FF0FF33E9
:102EF000143002F0C5BA00004C3002F09DBB000057
:102F00004FF0FF334C3002F097BB0000143002F05A
:102F100099BA00004FF0FF31143002F093BA00006C
:102F20004C3002F069BB00004FF0FF324C3002F031
:102F300063BB00000020704710B500F58054D4F842
:102F4000A4381A681178042917D1017C022914D1F8
:102F50005979012352898B4013420ED1143002F06B
:102F60002BFA024648B1D4F8A4484FF44073617973
:102F70002068BDE8104000F07FB910BD406BFFF73E
:102F8000DBBF0000704700007FB5124B012504260F
:102F9000044603600023057400F18402436029465F
:102FA000C0E902330C4B0290143001934FF440738C
:102FB000009602F0DDF9094B04F69442294604F12B
:102FC0004C000294CDE900634FF4407302F0A4FA80
:102FD00004B070BDDC6500087D2F0008A12E00083C
:102FE0000A68302383F311880B790B3342F82300EE
:102FF0004B79133342F823008B7913B10B3342F82A
:10300000230000F58053C3F8A418022303740020A2
:1030100080F311887047000038B5037F044613B170
:1030200090F85430ABB90125201D0221FFF730FF85
:1030300004F114006FF00101257700F0A5FD04F103
:103040004C0084F854506FF00101BDE8384000F0A6
:103050009BBD38BD10B5012104460430FFF718FFB1
:103060000023237784F8543010BD000038B504469F
:103070000025143002F094F904F14C00257702F099
:1030800063FA201D84F854500121FFF701FF204608
:10309000BDE83840FFF750BF90F8803003F0600380
:1030A000202B06D190F881200023212A03D81F2A43
:1030B00006D800207047222AFBD1C0E91D3303E067
:1030C000034A426707228267C3670120704700BF37
:1030D0004022002037B500F58055D5F8A4381A688D
:1030E000117804291AD1017C022917D119790123F9
:1030F00012898B40134211D100F14C04204602F09A
:10310000E3FA58B101A9204602F02AFAD5F8A448FA
:103110000246019B2179206800F0C0F803B030BD61
:1031200001F10B03F0B550F8236085B004460D465D
:10313000FEB1302383F3118804EB8507301D08218D
:10314000FFF7A6FEFB6806F14C005B691B681BB12C
:10315000019002F013FA019803A902F001FA024665
:1031600048B1039B2946204600F098F8002383F3DA
:10317000118805B0F0BDFB685A691268002AF5D0C5
:103180001B8A013B1340F1D104F18002EAE7000001
:10319000133138B550F82140ECB1302383F3118856
:1031A00004F58053D3F8A4281368527903EB820303
:1031B000DB689B695D6845B104216018FFF768FE14
:1031C000294604F1140002F001F92046FFF7B4FE8D
:1031D000002383F3118838BD7047000001F0F6BB6F
:1031E00001234022002110B5044600F8303BFEF7D1
:1031F0007BF90023C4E9013310BD000010B5302372
:10320000044683F311882422416000210C30FEF72C
:103210006BF9204601F0ECFB02230020237080F3C1
:10322000118810BD70B500EB8103054650690E464C
:103230001446DA6018B110220021FEF755F9A06992
:1032400018B110220021FEF74FF931462846BDE89B
:10325000704001F0B9BC000083682022002103F017
:10326000011310B5044683601030FEF73DF9204687
:10327000BDE8104001F034BDF0B4012500EB81043D
:1032800047898D40E4683D43A4694581236000235C
:10329000A2606360F0BC01F051BD0000F0B40125F4
:1032A00000EB810407898D40E4683D436469058132
:1032B00023600023A2606360F0BC01F0CBBD00007E
:1032C00070B5022300250446242203702946C0F865
:1032D00088500C3040F8045CFEF706F9204684F86C
:1032E000705001F005FC63681B6823B12946204635
:1032F000BDE87040184770BD0378052B10B5044633
:103300000AD080F88C300523037043681B680BB12A
:10331000042198470023A36010BD0000017805290F
:1033200006D190F88C20436802701B6803B11847DF
:103330007047000070B590F87030044613B1002358
:1033400080F8703004F18002204601F0EDFC6368E3
:103350009B68B3B994F8803013F0600535D0002134
:10336000204601F0CBFF0021204601F0BBFF63683F
:103370001B6813B1062120469847062384F8703055
:1033800070BD204698470028E4D0B4F88630A26F7C
:103390009A4288BFA36794F98030A56F002B4FF045
:1033A000300380F20381002D00F0F280092284F8BE
:1033B000702083F3118800212046D4E91D23FFF7F4
:1033C0006DFF002383F31188DAE794F8812003F07E
:1033D0007F0343EA022340F20232934200F0C580A9
:1033E00021D8B3F5807F48D00DD8012B3FD0022BD8
:1033F00000F09380002BB2D104F1880262670222B0
:10340000A267E367C1E7B3F5817F00F09B80B3F566
:10341000407FA4D194F88230012BA0D1B4F8883039
:1034200043F0020332E0B3F5006F4DD017D8B3F587
:10343000A06F31D0A3F5C063012B90D863682046FC
:1034400094F882205E6894F88310B4F88430B04712
:10345000002884D0436863670368A3671AE0B3F564
:10346000106F36D040F6024293427FF478AF5C4B47
:1034700063670223A3670023C3E794F88230012B1C
:103480007FF46DAFB4F8883023F00203A4F88830DD
:10349000C4E91D55E56778E7B4F88030B3F5A06F4F
:1034A0000ED194F88230204684F88A3001F07EFBF9
:1034B00063681B6813B101212046984703232370DA
:1034C0000023C4E91D339CE704F18B0363670123E8
:1034D000C3E72378042B10D1302383F311882046CF
:1034E000FFF7BAFE85F311880321636884F88B50D7
:1034F00021701B680BB12046984794F88230002B4E
:10350000DED084F88B300423237063681B68002BA3
:10351000D6D0022120469847D2E794F8843020463E
:103520001D0603F00F010AD501F0F0FB012804D0BD
:1035300002287FF414AF2B4B9AE72B4B98E701F04E
:10354000D7FBF3E794F88230002B7FF408AF94F8B0
:10355000843013F00F01B3D01A06204602D501F0D3
:10356000E5FEADE701F0D6FEAAE794F88230002B25
:103570007FF4F5AE94F8843013F00F01A0D01B0651
:10358000204602D501F0BAFE9AE701F0ABFE97E7BC
:10359000142284F8702083F311882B462A4629468A
:1035A0002046FFF769FE85F31188E9E65DB1152233
:1035B00084F8702083F3118800212046D4E91D236C
:1035C000FFF75AFEFDE60B2284F8702083F3118882
:1035D0002B462A4629462046FFF760FEE3E700BF58
:1035E0000C660008046600080866000838B590F804
:1035F00070300446002B3ED0063BDAB20F2A34D896
:103600000F2B32D8DFE803F0373131082232313165
:103610003131313131313737856FB0F886309D42E5
:1036200014D2C3681B8AB5FBF3F203FB12556DB9C4
:10363000302383F311882B462A462946FFF72EFEB6
:1036400085F311880A2384F870300EE0142384F87F
:103650007030302383F31188002320461A46194620
:10366000FFF70AFE002383F3118838BDC36F03B14F
:1036700098470023E7E70021204601F03FFE0021A4
:10368000204601F02FFE63681B6813B10621204617
:1036900098470623D7E7000010B590F8703004462D
:1036A000142B29D017D8062B05D001D81BB110BD7B
:1036B000093B022BFBD80021204601F01FFE002110
:1036C000204601F00FFE63681B6813B106212046F7
:1036D0009847062319E0152BE9D10B2380F87030A9
:1036E000302383F3118800231A461946FFF7D6FDCD
:1036F000002383F31188DAE7C3689B695B68002BBA
:10370000D5D1C36F03B19847002384F87030CEE75A
:10371000FEF7BCBF012100230170C0E901330C306A
:1037200000F028B910B53023044683F311884160B6
:10373000FEF7CEFF02230020237080F3118810BD16
:1037400010B53023044683F31188032304F8083BA3
:10375000FEF7F8FF4FF0FF31204600F0E1F90023BB
:1037600083F31188C01A18BF012010BD38B5044674
:10377000302585F31188032504F8085BFEF7FEFF6A
:103780004FF0FF31204600F0CBF9002383F311887E
:10379000C01A18BF012038BD38B50446302585F35E
:1037A0001188042504F8085BFFF714F84FF0FF3187
:1037B000204600F0B5F9002383F31188C01A18BF22
:1037C000012038BD10B53023044683F31188FFF77C
:1037D0002FF806232370002383F3118810BD000007
:1037E00010B53023044683F31188FFF749F802230C
:1037F0002370002383F3118810BD00000C3000F00B
:10380000D5B800000C3000F0DBB80000002382685F
:10381000037503691B6899689142FBD25A6803607B
:103820004260106058607047002382680375036926
:103830001B6899689142FBD85A6803604260106027
:103840005860704708B50846302383F311880A7D15
:103850000023052A06D8DFE802F00B050503120E47
:10386000826913604FF0FF338361FFF7CFFF0023BE
:1038700083F3118808BD8269936801339360D0E9AE
:10388000003213605A60EDE7FFF7C0BF054BD968FF
:1038900008751868026853601A600122D8600275C2
:1038A000FCF73ABF882900200C4B30B5DD684B1C73
:1038B00087B004460FD02B46094A684600F0F8F955
:1038C0002046FFF7E3FF009B13B1684600F0FAF9CA
:1038D000A86907B030BDFFF7D9FFF9E788290020B4
:1038E0004538000838B50C4D04468161EB688168A5
:1038F0009A68914203D8BDE83840FFF787BF184661
:10390000FFF792FF01230146EC6020462375BDE8D6
:103910003840FCF701BF00BF88290020044B1A681B
:10392000DB6890689B68984294BF00200120704734
:1039300088290020084B10B51C68D868226853609D
:103940001A600122DC602275FFF76EFF01462046F7
:10395000BDE81040FCF7E0BE88290020044B1A683F
:10396000DB6892689B689A4201D9FFF7E3BF704712
:1039700088290020C0E90000816070478368013B0E
:10398000002B10B583600CDA074BDC684368A0613C
:10399000206063601C6044600520FFF777FFA0692A
:1039A00010BD0020FCE700BF8829002008B53023A7
:1039B00083F31188FFF7E2FF002383F3118808BD2A
:1039C00008B5302383F3118883680133002B8360AB
:1039D00007DC036800211A68026050601846FFF790
:1039E00081FF002383F3118808BD000038B501234F
:1039F000084C00252370656001F0A2FE01F0C8FEAE
:103A00000549064801F09CFF0223237085F31188C5
:103A100038BD00BFF02B0020146600088829002064
:103A200008B572B6044B186500F0F6FC00F0C6FD50
:103A3000024B03221A70FEE788290020F02B002099
:103A400000F076B9EFF3118020B9EFF3058330224F
:103A500082F311887047000010B530B9EFF3058488
:103A6000C4F3080414B180F3118810BDFFF776FF8A
:103A700084F31188F9E70000034A516853685B1A20
:103A80009842FBD8704700BF001000E08B60022313
:103A9000086108468B8270478368A3F1840243F86B
:103AA000142C026943F8442C426943F8402C094A1B
:103AB00043F8242CC268A3F1200043F8182C0222FA
:103AC00003F80C2C002203F80B2C034A43F8102CAB
:103AD000704700BF310700088829002008B5FFF7AC
:103AE000DBFFBDE80840FFF7CFBE0000024BDB68FC
:103AF00098610F20FFF7CABE88290020302383F386
:103B00001188FFF7F3BF000008B50146302383F3A7
:103B100011880820FFF7C8FE002383F3118808BD31
:103B2000054BDB6821B1036098610320FFF7BCBE41
:103B30004FF0FF30704700BF8829002003682BB189
:103B40000022026018469961FFF79EBE7047000090
:103B5000064BDB6839B1426818605A6013604360F5
:103B60000420FFF7A1BE4FF0FF30704788290020E6
:103B70000368984206D01A6802605060184699613E
:103B8000FFF782BE7047000038B504460D46206836
:103B9000844200D138BD036823605C608561FFF713
:103BA00073FEF4E7036810B59C68A2420CD85C6809
:103BB0008A600B604C602160596099688A1A9A602B
:103BC0004FF0FF33836010BD121B1B68ECE7000051
:103BD0000A2938BF0A2170B504460D460A26601925
:103BE00001F0A8FD01F090FD041BA54203D8751C4F
:103BF00004462E46F3E70A2E04D90120BDE87040A2
:103C000001F0DEBE70BD0000F8B5144B0D460A2A67
:103C10004FF00A07D96103F11001826038BF0A2210
:103C2000416019691446016048601861A81801F0E4
:103C300071FD01F069FD431B0646A34206D37C1CBF
:103C400028192746354601F075FDF2E70A2F04D9F9
:103C50000120BDE8F84001F0B3BEF8BD882900207E
:103C6000F8B506460D4601F04FFD0F4A134653F8CE
:103C7000107F9F4206D12A4601463046BDE8F840F3
:103C8000FFF7C2BFD169BB68441A2C1928BF2C4664
:103C9000A34202D92946FFF79BFF2246314603483B
:103CA000BDE8F840FFF77EBF882900209829002052
:103CB000C0E90323002310B45DF8044B4361FFF710
:103CC000CFBF000010B5194C236998420DD0816810
:103CD000D0E9003213605A609A680A449A6000235F
:103CE00003604FF0FF33A36110BD0268234643F821
:103CF000102F53600022026022699A4203D1BDE86E
:103D0000104001F011BD936881680B44936001F08D
:103D1000FBFC2269E1699268441AA242E4D9114489
:103D2000BDE81040091AFFF753BF00BF88290020E3
:103D30002DE9F047DFF8BC8008F110072C4ED8F8C9
:103D4000105001F0E1FCD8F81C40AA68031B9A420D
:103D50003ED814444FF00009D5E90032C8F81C40A1
:103D600013605A60C5F80090D8F81030B34201D102
:103D700001F0DAFC89F31188D5E903312846984728
:103D8000302383F311886B69002BD8D001F0BCFC81
:103D90006A69A0EB040982464A450DD2022001F06F
:103DA0000FFE0022D8F81030B34208D15146284601
:103DB000BDE8F047FFF728BF121A2244F2E712EBE2
:103DC00009092946384638BF4A46FFF7EBFEB5E7F2
:103DD000D8F81030B34208D01444C8F81C00211A97
:103DE000A960BDE8F047FFF7F3BEBDE8F08700BF6C
:103DF000982900208829002000207047FEE7000055
:103E0000704700004FF0FF307047000002290CD0CF
:103E1000032904D00129074818BF00207047032A4E
:103E200005D8054800EBC2007047044870470020E1
:103E3000704700BFEC66000850220020A066000812
:103E400070B59AB005460846144601A900F0C2F8BC
:103E500001A8FDF741FB431C0022C6B25B001046DF
:103E6000C5E9003423700323023404F8013C01AB9C
:103E7000D1B202348E4201D81AB070BD13F8011BC2
:103E8000013204F8010C04F8021CF1E708B53023F4
:103E900083F311880348FFF71DF9002383F311888A
:103EA00008BD00BFF82B002090F8803003F01F02FF
:103EB000012A07D190F881200B2A03D10023C0E901
:103EC0001D3315E003F06003202B08D1B0F88430D7
:103ED0002BB990F88120212A03D81F2A04D8FFF794
:103EE000DBB8222AEBD0FAE7034A4267072282674F
:103EF000C3670120704700BF4722002007B505298E
:103F000017D8DFE801F0191603191920302383F3BD
:103F10001188104A01210190FFF784F901980221CC
:103F20000D4AFFF77FF90D48FFF7A0F8002383F350
:103F3000118803B05DF804FB302383F31188074830
:103F4000FFF76AF8F2E7302383F311880348FFF79D
:103F500081F8EBE74066000864660008F82B002053
:103F600038B50C4D0C4C2A460C4904F10800FFF7FB
:103F700067FF05F1CA0204F110000949FFF760FF6D
:103F800005F5CA7204F118000649BDE83840FFF78C
:103F900057BF00BFD04400205022002020660008F8
:103FA0002A6600083566000870B5044608460D46C6
:103FB000FDF792FAC6B22046013403780BB91846D1
:103FC00070BD32462946FDF767FA0028F3D101207B
:103FD000F6E700002DE9F84F05460C46FDF77CFAA0
:103FE0002C49C6B22846FFF7DFFF08B10536F6B206
:103FF00029492846FFF7D8FF08B11036F6B2632EDC
:104000000DD8DFF89080DFF89090244FDFF894A06F
:10401000DFF894B02E7846B92670BDE8F88F2946AF
:104020002046BDE8F84F02F051B9252E2ED10722C7
:1040300041462846FDF730FA70B9DBF80030073505
:104040000C3444F80C3CDBF8043044F8083CDBF852
:10405000083044F8043CDDE7082249462846FDF7CD
:104060001BFA98B9A21C0E4B197802320909C95DD6
:1040700002F8041C13F8011B01F00F015345C95D40
:1040800002F8031CF0D118340835C3E7013504F8F1
:10409000016BBFE70C670008356600082167000860
:1040A00000E8F11F0CE8F11F14670008BFF34F8F01
:1040B000024A13695B07FCD1704700BF0020005221
:1040C00008B5074B1B7853B9FFF7F0FF054BDA68CB
:1040D000D20704D5044A5A6002F188325A6008BDFA
:1040E0002E47002000200052230167454FF0006357
:1040F000054A1968013104D104339342F9D10120F2
:1041000070470020704700BF0000020808B5094B47
:104110001B786BB908490B695B0703D5CB6843F083
:104120004003CB60FFF7C2FFCB6843F00103CB60D5
:1041300008BD00BF2E470020002000524FF4003081
:10414000704700000120704708B9FFF7CFBF00207B
:104150007047000010B538BBFFF774FC1349FFF738
:10416000A5FF0446FFF7ACFF4FF0FF334B610B6137
:10417000FFF79CFF2423CB60CB6843F08003CB6028
:104180000B695B07FCD44FF400314FF00060FFF780
:104190008DFF00F0EFF92046FFF7B8FFFFF75CFC5A
:1041A000BDE81040FFF7A2BF002010BD0020005264
:1041B0002DE9F84340EA020305460C461146D806AD
:1041C00002D00020BDE8F88321F01F01DFF8A080B5
:1041D0004FF0FF39FFF774FF6718BC4203D101208D
:1041E000FFF794FFEEE720222946204602F01AF856
:1041F00010B920352034F0E72B4605F120021E6867
:10420000711CDED104339342F9D1FFF71BFC291B4B
:10421000FFF74CFFC8F81460D8F80C3004F11C020A
:1042200043F00203C8F80C30231FD8F8106016F0D2
:104230000506FAD153F804CF9A4241F803C0F4D1ED
:10424000BFF34F8FFFF732FFC8F81490D8F80C3047
:1042500023F00203C8F80C30FFF7FEFB20222146B2
:10426000284601F0DFFF0028C3D03046B8E700BF82
:1042700000200052084908B50B7828B11BB9FFF798
:104280001FFF01230B7008BD002BFCD00870BDE898
:104290000840FFF73BBF00BF2E4700202DE9F74F36
:1042A0000E460546002864D011F0050763D139B9E0
:1042B00008222946304601F08DFA0446002848D1EC
:1042C00008224FF00109DFF8C08006F00403DFF890
:1042D000BCA006EA090BBBF1000F27D0D8F81410D8
:1042E000C80723D409F1010908F10C08B9F1060F38
:1042F000F1D18FB9224E2946F019009201F06AFAE5
:10430000044630BB1837009A782FF4D1294601F0C3
:1043100061FA0446E8B9009A29461A4801F05AFAA7
:10432000044608BB204603B0BDE8F08FABB1D8F817
:10433000141011F0040FD5D01820294600FB09A055
:10434000CDE9002301F046FA0446DDE90023002808
:10435000C8D02A460021204608E0B107ECD5D8F89D
:10436000141011F0020FE6E72A460021FDF7BCF811
:10437000D8E70446D6E71F35202225F01F05A0E721
:10438000604700203047002034670008484700207D
:104390000021FFF783BF00000121FFF77FBF00006E
:1043A000F8B5144D01241827134E40F2FF320021B6
:1043B0000120FDF799F807FB046001342A6955F8DC
:1043C0000C1F01F0F3F9062CF5D137254FF4C0543A
:1043D0002046FFF7E1FF014628B122460748BDE825
:1043E000F84001F0E3B9C4EBC404013D4FEAD40442
:1043F000EED1F8BD34670008484700203047002060
:104400000421FFF74BBF00004843FFF7C1BF000086
:1044100008B101F051BA704738B5054D0024033496
:10442000696855F80C0B00F0B7F8122CF7D138BDBD
:104430003467000870B5104E82B0FFF703FB0546E5
:1044400001F062F9326803469042336037BF0B4A8D
:104450000A495168146836BF0131D1E90041516001
:104460000419284641F100010191FFF7F5FA2046B1
:10447000019902B070BD00BFD8470020E04700207E
:1044800070B5124E82B0FFF7DDFA054601F03CF937
:10449000326803469042336037BF0D4A0C49516879
:1044A000146836BF0131D1E9004151600419284632
:1044B00041F100010191FFF7CFFA4FF47A72002326
:1044C00020460199FBF714FF02B070BDD8470020C9
:1044D000E04700200244074BD2B210B5904200D111
:1044E00010BD441C00B253F8200041F8040BE0B2A8
:1044F000F4E700BF504000580F4B30B51C6F240448
:1045000007D41C6F44F400741C671C6F44F400440F
:104510001C670A4C02442368D2B243F480732360C0
:10452000074B904200D130BD441C51F8045B00B2EF
:1045300043F82050E0B2F4E7004402580048025823
:104540005040005807B5012201A90020FFF7C2FF23
:10455000019803B05DF804FB13B50446FFF7F2FFC2
:10456000A04205D0012201A900200194FFF7C4FF59
:1045700002B010BD0144BFF34F8F064B884204D3F5
:10458000BFF34F8FBFF36F8F7047C3F85C022030CB
:10459000F4E700BF00ED00E00144BFF34F8F064B8E
:1045A000884204D3BFF34F8FBFF36F8F7047C3F8B8
:1045B00070022030F4E700BF00ED00E0704700001B
:1045C00070B5054616460C4601201021FFF71CFF6A
:1045D000286046733CB1204636B1FFF711FF2B68C7
:1045E000186000B19C6070BDFFF7D6FEF7E70000D1
:1045F00070B50E461546044600B30B6843608368E9
:10460000934210D213B10068FFF702FF637B284684
:104610002BB1FFF7F5FE206020B9A06070BDFFF759
:10462000BBFEF8E7A560206805F11F01306021F0AE
:104630001F01FFF79FFF01202073EFE70120EDE747
:1046400010B5044640B10068884205D1606808B1E1
:10465000FCF718FF0023237310BD000070B50E4651
:104660001546044620B383689A4210D913B10068F6
:10467000FFF7CEFE637B28462BB1FFF7C1FE20601B
:1046800020B9A06070BDFFF787FEF8E7A56031682C
:1046900019B12A462068FCF7F5FE206805F11F01D4
:1046A000306021F01F01FFF777FF01202073E9E759
:1046B0000120E7E720B103688B4204BF00230373A6
:1046C0007047000008B1002303737047034B1A685A
:1046D0001AB9034AD2F8D0241A607047E84700207C
:1046E0000040025808B5FFF7F1FF024B1868C0F30D
:1046F000806008BDE847002070B5BFF34F8FBFF35F
:104700006F8F1A4A0021C2F85012BFF34F8FBFF3C8
:104710006F8F536943F400335361BFF34F8FBFF37F
:104720006F8FC2F88410BFF34F8FD2F8803043F6FA
:10473000E074C3F3C900C3F34E335B0103EA04061C
:10474000014646EA81750139C2F86052F9D2203B30
:1047500013F1200FF2D1BFF34F8F536943F480332D
:104760005361BFF34F8FBFF36F8F70BD00ED00E05B
:10477000FEE7000008B50E480E4B0F4A904212D3D8
:104780000E4BC11EDA1C121A22F003028B4238BFF4
:1047900000220021FCF7A8FEBFF34F8FBFF34F8F1D
:1047A000BFF36F8F08BD53F8041B40F8041BE5E707
:1047B0000C4A0020EC6900080C4A00200C4A00203A
:1047C00003681A6899685A6043681BB142EA01415C
:1047D00080681847704700004FF0A44310B51C686C
:1047E000E00702D52848FFF7EBFFA10702D52748CD
:1047F000FFF7E6FF620702D52548FFF7E1FF230731
:1048000002D52448FFF7DCFFE00602D52248FFF777
:10481000D7FFA10602D52148FFF7D2FF620602D5D5
:104820001F48FFF7CDFF230602D51E48FFF7C8FF3C
:10483000E00502D51C48FFF7C3FFA10502D51B48C0
:10484000FFF7BEFF620502D51948FFF7B9FF230540
:1048500002D51848FFF7B4FFE00402D51648FFF769
:10486000AFFFA10402D51548FFF7AAFF620402D5E5
:104870001348FFF7A5FF230402D51248FFF7A0FF56
:10488000BDE8104001F092B9F0470020FC4700203D
:104890000848002014480020204800202C48002010
:1048A0003848002044480020504800205C48002040
:1048B0006848002074480020804800208C48002070
:1048C00098480020A448002030B5094B0021094C2D
:1048D00010200725196054F8042B0138C3E9012181
:1048E000D16003F10C0311615560F4D130BD00BFFC
:1048F000EC4700207C6700080F28F0B50AD9102883
:1049000006D10F230020144C01272568984203D9B3
:1049100000201DE00346F6E707FA00F6354218D1FD
:104920000C23354343432560181D2344C3E9021279
:104930000A4B2044D3F8D42042F00102C3F8D4201B
:10494000D3F8FC2042F00102C3F8FC20D3F8FC307D
:10495000F0BD0130DAE700BFEC4700200044025808
:1049600070B5D0E9244300224FF0FF359E6804EB78
:1049700042135101D3F80009002805DAD3F80009E1
:1049800040F08040C3F80009D3F8000B002805DA96
:10499000D3F8000B40F08040C3F8000B01326318DD
:1049A0009642C3F80859C3F8085BE0D24FF00113F0
:1049B000C4F81C3870BD0000890141F0200101617C
:1049C00003699B06FCD41220FFF756B810B5054CBE
:1049D0002046FEF705FC044BC4F89030034BC4F8A6
:1049E000943010BDB048002000000440E06700088B
:1049F00070B503780546012B6AD1374BD0F890404B
:104A0000984233D1354B0E214D20D3F8D82042F0B7
:104A10000072C3F8D820D3F8002142F00072C3F826
:104A20000021D3F80021D3F8802042F00072C3F8AF
:104A30008020D3F8802022F00072C3F88020D3F8C1
:104A40008020D3F8D82022F08062C3F8D820D3F891
:104A5000002122F08062C3F80021D3F8003100F079
:104A600071FC1F4BE3601F4BC4F800380023D5F8DE
:104A70009060C4F8003EC02323604FF40413A36386
:104A80003369002BFCDA01230C203361FEF7F4FFBD
:104A90003369DB07FCD41220FEF7EEFF3369002BED
:104AA000FCDA00262846A660FFF75AFF6B68C4F8B8
:104AB0001068DB68C4F81468C4F81C684BB90A4B6A
:104AC000A3614FF0FF336361A36843F00103A36068
:104AD00070BD064BF4E700BFB04800200044025808
:104AE0004014004003002002003C30C0083C30C0AD
:104AF000F8B5D0F89040054600214FF000662046FA
:104B0000FFF75AFFD5F8941000234FF001128F6879
:104B10004FF0FF30C4F83438C4F81C2804EB4312BB
:104B200001339F42C2F80069C2F8006BC2F808095D
:104B3000C2F8080BF2D20B68D5F89020C5F898306F
:104B4000636210231361166916F01006FBD1122060
:104B5000FEF792FFD4F8003823F4FE63C4F800385F
:104B6000A36943F4402343F01003A3610923C4F86D
:104B70001038C4F814380B4BEB604FF0C043C4F846
:104B8000103B094BC4F8003BC4F81069C4F8003965
:104B9000D5F8983003F1100243F48013C5F898203B
:104BA000A362F8BDBC67000840800010D0F89020D8
:104BB00090F88A10D2F8003823F4FE6343EA011318
:104BC000C2F80038704700002DE9F84300EB81037C
:104BD000D0F890500C468046DA680FFA81F9480107
:104BE000166806F00306731E022B05EB41134FF007
:104BF000000194BFB604384EC3F8101B4FF00101FA
:104C000004F1100398BF06F1805601FA03F391698D
:104C100098BF06F5004600293AD0578A04F158019A
:104C2000374349016F50D5F81C180B430021C5F8D4
:104C30001C382B180127C3F81019A7405369611EAF
:104C40009BB3138A928B9B08012A88BF5343D8F8E1
:104C50009820981842EA034301F140022146C8F81F
:104C60009800284605EB82025360FFF7A5FE08EB8B
:104C70008900C3681B8A43EA845348341E43640195
:104C80002E51D5F81C381F43C5F81C78BDE8F883B1
:104C900005EB4917D7F8001B21F40041C7F8001BAA
:104CA000D5F81C1821EA0303C0E704F13F030B4ABF
:104CB0002846214605EB83035A60FFF77DFE05EB8E
:104CC0004910D0F8003923F40043C0F80039D5F872
:104CD0001C3823EA0707D7E7008000100004000211
:104CE000D0F894201268C0F89820FFF739BE000071
:104CF0005831D0F8903049015B5813F4004004D08B
:104D000013F4001F0CBF0220012070474831D0F877
:104D1000903049015B5813F4004004D013F4001F95
:104D20000CBF02200120704700EB8101CB68196A9B
:104D30000B6813604B6853607047000000EB810301
:104D400030B5DD68AA691368D36019B9402B84BFF8
:104D5000402313606B8A1468D0F890201C4402EB47
:104D60004110013C09B2B4FBF3F46343033323F075
:104D7000030343EAC44343F0C043C0F8103B2B682D
:104D800003F00303012B0ED1D2F8083802EB4110D7
:104D900013F4807FD0F8003B14BF43F0805343F0FE
:104DA0000053C0F8003B02EB4112D2F8003B43F045
:104DB0000443C2F8003B30BD2DE9F041244D0446C8
:104DC000D5F8906006EB4013D3F8087B3807C3F89A
:104DD000087B0AD5D6F81438190706D505EB8403E5
:104DE00021462846DB685B689847FA071FD5D6F846
:104DF0001438DB071BD505EB8403D968CCB98B6964
:104E0000488A5A68B2FBF0F600FB16228AB9186885
:104E1000DA6890420DD2121AC3E90024302383F3DA
:104E200011880B482146FFF789FF84F31188BDE8FC
:104E3000F081012303FA04F26B8923EA02036B81F8
:104E4000CB68002BF3D021460148BDE8F04118475C
:104E5000B048002000EB81034A0170B5DD68D0F84E
:104E600090306C692668E66056BB1A444FF4002007
:104E7000C2F810092A6802F00302012A0AB20ED110
:104E8000D3F8080803EB421410F4807FD4F800092B
:104E900014BF40F0805040F00050C4F8000903EB0C
:104EA0004212D2F8000940F00440C2F80009012281
:104EB000D3F8340802FA01F10143C3F8341870BD85
:104EC00019B9402E84BF4020206020681A442E8AE1
:104ED0008419013CB4FBF6F440EAC44040F00050B1
:104EE000C6E700002DE9F8433C4D04464701D5F8DC
:104EF000906006EB4013D3F8088918F0010FC3F84F
:104F000008891AD0D6F81038DB0716D505EB8003D0
:104F1000D9684B691868DA68904231D2121A4FF09A
:104F200000091A60C3F80490302383F311882146E6
:104F30002846FFF78FFF89F3118818F0800F1DD0E6
:104F4000D6F834380126A640334217D005EB840347
:104F50000134D5F89050D3F80CC0E4B22F44DCF8FB
:104F6000142005EB0434D2F800E05168714515D3E4
:104F7000D5F8343823EA0606C5F83468BDE8F88366
:104F8000012303FA04F22B8923EA02032B818B68A5
:104F9000002BD2D0214628469847CEE7AEEB01033E
:104FA000BCF81000834228BF0346D7F8180980B226
:104FB000B3EB800FE2D89068A0F1040959F8048F90
:104FC000C4F80080A0EB09089844B8F1040FF5D8A4
:104FD00018440B4490605360C7E700BFB0480020FE
:104FE0002DE9F74FA94CD4F890506E69AB691E407B
:104FF00016F480586E6107D02046FEF761F903B0C1
:10500000BDE8F04F00F0D2BD002E12DAD5F8003E18
:105010009B0705D0D5F8003E23F00303C5F8003EFA
:10502000D5F80438994823F00103C5F80438FEF791
:1050300075F9370505D59548FFF792FC9348FEF7BB
:105040005BF9B0040CD5D5F8083813F0060FEB68FF
:1050500023F470530CBF43F4105343F4A053EB609C
:1050600031071BD56368DB681BB9AB6923F0080304
:10507000AB612378052B0CD1D5F8003E9A0705D0FB
:10508000D5F8003E23F00303C5F8003E7F48FEF745
:1050900045F96368DB680BB17C489847F30200F17F
:1050A000AA80B70228D5D4F8909000274FF0010AC3
:1050B000DFF8D8B109EB4712D2F8003B03F44023E4
:1050C000B3F5802F11D1D2F8003B002B0DDA6289A5
:1050D0000AFA07F322EA0303638104EB8703DB6820
:1050E000DB6813B13946584698470137D4F89430F5
:1050F000FFB29B689F42DDD9F00619D5D4F89070B5
:105100003A6AC2F30A1002F00F0302F4F012B2F589
:10511000802F00F0BD80B2F5402F09D104EB83034E
:10512000002207F58057DB681B6A904240F0A080A0
:105130003303D5F818482CD5E70302D50020FFF734
:105140003BFEA50302D50120FFF736FE600302D522
:105150000220FFF731FE210302D50320FFF72CFECA
:10516000E20202D50420FFF727FEA30202D50520A4
:10517000FFF722FE670202D50620FFF71DFE25027B
:1051800002D50720FFF718FEE00102D50820FFF73F
:1051900013FE71037FF533AFE20702D50020FFF75E
:1051A000A1FEA30702D50120FFF79CFE670702D5E9
:1051B0000220FFF797FE260702D50320FFF792FE95
:1051C000E50602D50420FFF78DFEA00602D50520D6
:1051D000FFF788FE610602D50620FFF783FE220650
:1051E00002D50720FFF77EFEE3057FF508AF082014
:1051F000FFF778FE03E7D4F8903000274FF001095D
:10520000DFF888A00193D4F894305FFA87FB9B689D
:105210009B453FF646AF019B03EB4B13D3F80019B8
:1052200001F44021B1F5802F20D1D3F800190029D5
:105230001CDAD3F8001941F09041C3F80019D3F8F3
:1052400000190029FBDB5946D4F89000FFF7B4FBA6
:10525000218909FA0BF321EA0303238104EB8B0371
:10526000DB689B6813B15946504698470137CAE737
:10527000910701D1D7F80080072A02F101029CBFF3
:1052800003F8018B4FEA18284FE700BFB048002011
:10529000023307F5805704EB83025268D2F818C036
:1052A000DCF80820DCE9001CA1EB0C0C0021884292
:1052B0000AD104EB830463689B699A6802449A608C
:1052C0005A6802445A6033E711F0030F01D1D7F84E
:1052D00000808C4501F1010184BF02F8018B4FEA87
:1052E0001828E4E7D0F8903003EB4111D1F8003BE7
:1052F00043F40013C1F8003B70470000D0F8903031
:1053000003EB4111D1F8003943F40013C1F800391F
:1053100070470000D0F8903003EB4111D1F8003B0A
:1053200023F40013C1F8003B70470000D0F8903020
:1053300003EB4111D1F8003923F40013C1F800390F
:1053400070470000090100F16043012203F5614349
:10535000C9B283F8001300F01F039A4043099B0071
:1053600003F1604303F56143C3F880211A6070477D
:1053700030B50433039C0172002104FB0325C16096
:10538000C0E90653049B0363059BC0E90000C0E924
:105390000422C0E90842C0E90A11436330BD00009D
:1053A0000022416AC260C0E90411C0E90A226FF01C
:1053B0000101FEF7E9BB0000D0E90432934201D1BC
:1053C000C2680AB9181D7047002070470369196048
:1053D0000021C2680132C260C269134482699342EB
:1053E000036124BF436A0361FEF7C2BB38B50446BC
:1053F0000D46E3683BB162690020131D1268A36289
:105400001344E36207E0237A33B929462046FEF7C6
:105410009FFB0028EDDA38BD6FF00100FBE70000CC
:10542000C368C269013BC360436913448269934204
:10543000436124BF436A436100238362036B03B16A
:105440001847704770B53023044683F31188866A85
:105450003EB9FFF7CBFF054618B186F31188284601
:1054600070BDA36AE26A13F8015B9342A36202D3A0
:105470002046FFF7D5FF002383F31188EFE70000F4
:105480002DE9F84F04460E46174698464FF030096E
:1054900089F311880025AA46D4F828B0BBF1000F83
:1054A00009D141462046FFF7A1FF20B18BF31188B7
:1054B0002846BDE8F88FD4E90A12A7EB050B521A6B
:1054C000934528BF9346BBF1400F1BD9334601F1EA
:1054D000400251F8040B914243F8040BF9D1A36A3E
:1054E000403640354033A362D4E90A239A4202D3BE
:1054F0002046FFF795FF8AF31188BD42D8D289F381
:105500001188C9E730465A46FBF7BCFFA36A5E44E0
:105510005D445B44A362E7E710B5029C043301726B
:1055200003FB0421C460C0E906130023C0E90A3369
:10553000039B0363049BC0E90000C0E90422C0E9A7
:105540000842436310BD0000026A6FF00101C260AF
:10555000426AC0E904220022C0E90A22FEF714BB15
:10556000D0E904239A4201D1C26822B9184650F802
:10557000043B0B60704700231846FAE7C36800211C
:10558000C2690133C3604369134482699342436132
:1055900024BF436A4361FEF7EBBA000038B5044606
:1055A0000D46E3683BB1236900201A1DA262E2693F
:1055B0001344E36207E0237A33B929462046FEF715
:1055C000C7FA0028EDDA38BD6FF00100FBE70000F4
:1055D00003691960C268013AC260C26913448269F2
:1055E0009342036124BF436A036100238362036B18
:1055F00003B118477047000070B530230D460446CC
:10560000114683F31188866A2EB9FFF7C7FF10B1E0
:1056100086F3118870BDA36A1D70A36AE26A013324
:105620009342A36204D3E16920460439FFF7D0FF17
:10563000002080F31188EDE72DE9F84F04460D4670
:10564000904699464FF0300A8AF311880026B346F7
:10565000A76A4FB949462046FFF7A0FF20B187F35C
:1056600011883046BDE8F88FD4E90A073A1AA8EB4A
:105670000607974228BF1746402F1BD905F1400364
:1056800055F8042B9D4240F8042BF9D1A36A40360B
:105690004033A362D4E90A239A4204D3E169204645
:1056A0000439FFF795FF8BF311884645D9D28AF369
:1056B0001188CDE729463A46FBF7E4FEA36A3D444C
:1056C0003E443B44A362E5E7D0E904239A4217D164
:1056D000C3689BB1836A8BB1043B9B1A0ED01360E5
:1056E000C368013BC360C3691A4483699A4202617B
:1056F00024BF436A03610023836201231846704775
:105700000023FBE700F07CBA014B586A704700BFEA
:10571000000C0040034B002258631A610222DA6039
:10572000704700BF000C0040014B0022DA60704758
:10573000000C0040014B5863704700BF000C004054
:10574000024B034A1A60034A5A60704764490020BA
:10575000104A002000000220074B494210B55C6847
:10576000201A08401968821A8A4203D3A24201D83B
:105770005A6010BD0020FCE76449002008B53023C2
:1057800083F31188FFF7E8FF002383F3118808BD36
:1057900004480121044B03600023C0E901330C30AD
:1057A000FEF7E8B86C4900207D570008CB1D083A89
:1057B00023F00703591A521A012110B4D208002409
:1057C000C0E9004384600C301C605A605DF8044BF3
:1057D000FEF7D0B82DE9F84F364ECD1D0F46002804
:1057E00018BF0646082A4FEAD50538BF082206F139
:1057F0000C08341D91464046FEF7D8F809F1070120
:10580000C9F1000E224624686CB94046FEF7D8F86C
:105810003368CBB308224946E8009847044698B35A
:1058200040E9026730E004EB010CD4F804A00CEA74
:105830000E0C0AF10100ACF1080304EBC000984221
:10584000E0D9A0EB0C0CB5EBEC0F4FEAEC0BD9D880
:105850009C421CD204F10802AB45A3EB02024FEAC2
:10586000E202626009D9691CED43206803EBC102C2
:105870005D44556043F8310022601C465F6040463D
:1058800044F8086BFEF79CF82046BDE8F88FAA455F
:10589000216802D111602346EFE7013504EBC5030F
:1058A00044F8351003F10801401AC0105860136025
:1058B000F1E700BF6C490020F8B550F8043C0446FD
:1058C00050F8085CA0F1080607332F1D0C35DB08E3
:1058D00040F8043C2846FEF769F83B469F421A68A8
:1058E00001D0B34228D20AB1964225D244F8082CFE
:1058F00054F8042C1E60013254F8081C06EBC20058
:10590000814206D14868024444F8042C0A6844F8ED
:10591000082C5868411C03EBC1018E4207D154F892
:10592000042C013202445A6054F8082C1A602846AC
:10593000BDE8F840FEF744B81346CFE7FEE70000A5
:1059400070B51B4B0025044686B058600E46856234
:10595000016300F003F904F11003A560E562C4E9F6
:1059600004334FF0FF33C4E90044C4E90635FFF7C0
:10597000CBFE2B46024604F134012046C4E908233D
:1059800080230C4A2565FEF781F801230A4AE0606E
:1059900000920375684672680192B268CDE90223ED
:1059A000064BCDE90435FEF799F806B070BD00BF8F
:1059B000F02B0020EC670008F16700083D59000853
:1059C000024AD36A1843D062704700BF882900207A
:1059D0004B6843608B688360CB68C3600B6943612D
:1059E0004B6903628B6943620B6803607047000078
:1059F00008B5364B40F2FF60D3F8E0100143C3F81E
:105A0000E010D3F8082102433148C3F80821314A95
:105A1000D3F808311146FFF7DBFF00F5806002F193
:105A20001C01FFF7D5FF00F5806002F13801FFF798
:105A3000CFFF00F5806002F15401FFF7C9FF00F5C8
:105A4000806002F17001FFF7C3FF00F5806002F192
:105A50008C01FFF7BDFF00F5806002F1A801FFF7A0
:105A6000B7FF00F5806002F1C401FFF7B1FF00F558
:105A7000006002F1E001FFF7ABFF02F1FC0100F56D
:105A80008060FFF7A5FF00F079F9134B0421D3F8EC
:105A9000902242F00102C3F89022D3F8942242F0FF
:105AA0000102C3F894220522C3F898204FF06052F7
:105AB000C3F89C20094AC3F8A020C3F898100849ED
:105AC000C3F89C10C3F8A02008BD00BF00440258D2
:105AD00000000258F867000800ED00E01B00080312
:105AE0000040042408B500F041FBFDF77FFF104B98
:105AF000D3F8DC2042F04002C3F8DC20D3F80421C4
:105B000022F04002C3F80421D3F80431094B1A688B
:105B100042F008021A601A6842F004021A60FEF7A6
:105B2000D5FDFEF73DFCBDE80840FEF719BA00BF01
:105B3000004402580018024870470000EFF3098340
:105B4000054968334A6B22F001024A6383F30988EE
:105B5000002383F31188704700EF00E0302080F3CA
:105B6000118862B60D4B0E4AD96821F4E061090430
:105B7000090C0A430B49DA60D3F8FC2042F080722A
:105B8000C3F8FC20084AC2F8B01F116841F00101B7
:105B900011602022DA7783F82200704700ED00E0E0
:105BA0000003FA0555CEACC5001000E0302310B557
:105BB00083F311880E4B5B6813F4006314D0F1EE8D
:105BC000103AEFF309844FF08073683CE361094BAE
:105BD000DB6B236684F30988FDF7A0FE10B1064B4A
:105BE000A36110BD054BFBE783F31188F9E700BF04
:105BF00000ED00E000EF00E0430700084607000862
:105C0000114BD3F8E82042F00802C3F8E820D3F89B
:105C1000102142F00802C3F810210C4AD3F81031C9
:105C2000D36B43F00803D36340F20312084B9A622C
:105C30004FF0FF32DA6200229A615A63DA605A60EA
:105C400001225A611A607047004402580010005C3B
:105C5000000C0040094A08B51169D3680B40D9B25D
:105C60009B076FEA0101116107D5302383F3118887
:105C7000FDF7E6FE002383F3118808BD000C004009
:105C80003C4B4FF0FF31D3F8802062F0004210B55A
:105C9000C3F88020D3F8802002F00042C3F88020AF
:105CA000D3F88020D3F88420C3F88410D3F884205C
:105CB0000022C3F88420D3F88400D86F40F0FF405E
:105CC00040F4FF0040F4DF4040F07F00D867D86F19
:105CD00020F0FF4020F4FF0020F4DF4020F07F00A0
:105CE000D867D86FD3F8884023482043C3F888008A
:105CF000D3F8880020F480704005400DC3F8880078
:105D0000D3F88800D3F89000C3F89010D3F890002F
:105D1000C3F89020D3F89000D3F89400C3F89410FF
:105D2000D3F89400C3F89420D3F89400D3F89800E3
:105D3000C3F89810D3F89800C3F89820D3F89800C7
:105D4000D3F88C00C3F88C10D3F88C00C3F88C20E7
:105D5000D3F88C00D3F89C00C3F89C10D3F89C10A7
:105D6000C3F89C20D3F89C30FEF7AEFDBDE8104090
:105D700000F0CCB90044025800F9FFFF5A4BD3F8A9
:105D8000F42042F00202C3F8F420D3F81C2142F0C0
:105D90000202C3F81C210222D3F81C31534BDA60F3
:105DA0005A689104FCD5524A1A6001229A60514AFD
:105DB000DA6000221A619A614C4B9A699204FCD510
:105DC0001A6842F480721A60474B1A6F02F44072EC
:105DD000B2F5007F04D04FF480321A6700221A67B0
:105DE0001A6842F001021A603F4B1A685007FCD54E
:105DF00000221A611A6912F03802FBD101211960E0
:105E00004FF0804159604FF00051D9605A673A4ACB
:105E1000DA623A4A1A611A6842F480321A60324BE6
:105E20001A689103FCD51A6842F480521A601A6805
:105E30009204FCD5324A33499A6200225A631963AC
:105E40003149DA6399635A64304A1A64304ADA6233
:105E50001A6842F0A8521A60234B1A6802F02852BE
:105E6000B2F1285FF9D148229A614FF48862DA6171
:105E700040221A624FF00052DA64264A1A654FF443
:105E800070025A65244A9A653323244A13601368C2
:105E900003F00F03032BFAD1134B1A6942F00302EC
:105EA0001A611A6902F03802182AFAD1D3F8DC20F4
:105EB00042F00052C3F8DC20D3F8042142F0005233
:105EC000C3F80421D3F80421D3F8DC2042F0804247
:105ED000C3F8DC20D3F8042142F08042C3F8042147
:105EE000D3F80431704700BF0044025800480258FC
:105EF00000C000F0020000010000FF0100828402E7
:105F000042808000030105038F050201BF000103E9
:105F10003503FF0100200010000101200020005285
:105F20004FF0B04208B5D2F8883003F00103C2F850
:105F3000883023B1044A13680BB150689847BDE814
:105F40000840FFF733BE00BF844900204FF0B04245
:105F500008B5D2F8883003F00203C2F8883023B1C4
:105F6000044A93680BB1D0689847BDE80840FFF732
:105F70001DBE00BF844900204FF0B04208B5D2F8E2
:105F8000883003F00403C2F8883023B1044A13694F
:105F90000BB150699847BDE80840FFF707BE00BF46
:105FA000844900204FF0B04208B5D2F8883003F0A1
:105FB0000803C2F8883023B1044A93690BB1D06951
:105FC0009847BDE80840FFF7F1BD00BF84490020B5
:105FD0004FF0B04208B5D2F8883003F01003C2F891
:105FE000883023B1044A136A0BB1506A9847BDE860
:105FF0000840FFF7DBBD00BF844900204FF0B043ED
:1060000010B5D3F8884004F47872C3F88820A3064A
:1060100004D5124A936A0BB1D06A9847600604D53A
:106020000E4A136B0BB1506B9847210604D50B4AEF
:10603000936B0BB1D06B9847E20504D5074A136CFC
:106040000BB1506C9847A30504D5044A936C0BB16F
:10605000D06C9847BDE81040FFF7A8BD84490020E8
:106060004FF0B04310B5D3F8884004F47C42C3F835
:106070008820620504D5164A136D0BB1506D984700
:10608000230504D5124A936D0BB1D06D9847E004F7
:1060900004D50F4A136E0BB1506E9847A10404D576
:1060A0000B4A936E0BB1D06E9847620404D5084A30
:1060B000136F0BB1506F9847230404D5044A936FB4
:1060C0000BB1D06F9847BDE81040FFF76FBD00BF20
:1060D0008449002008B50348FCF7E0FBBDE8084010
:1060E000FFF764BDF824002008B50348FCF784FCE2
:1060F000BDE80840FFF75ABD1C25002008B5FFF792
:10610000A9FDBDE80840FFF751BD0000062108B514
:106110000846FFF717F906210720FFF713F90621B4
:106120000820FFF70FF906210920FFF70BF90621D8
:106130000A20FFF707F906211720FFF703F90621C8
:106140002820FFF7FFF809217A20FFF7FBF80A2142
:106150005C20FFF7F7F807213220FFF7F3F80C2156
:106160002520BDE80840FFF7EDB8000008B5FFF7AF
:1061700087FD00F00FF8FCF757FEFDF72FF8FCF74E
:1061800001FFFDF7C5FAFFF7D7FCBDE80840FFF7B0
:10619000B9BA00000023054A19460133102BC2E9A1
:1061A000001102F10802F8D1704700BF84490020B5
:1061B0000B460146184600F027B80000FEF728B944
:1061C000FFF7FCBF012838BF012010B50446204668
:1061D000FEF7DEF830B900F007F808B900F00CF867
:1061E0008047F4E710BD0000024B1868BFF35B8FD7
:1061F000704700BF044A002008B5062000F04AF8A6
:106200000120FDF7FBFD000010B5054C13462CB135
:106210000A4601460220AFF3008010BD2046FCE78D
:106220000000000010B501390244904201D1002065
:1062300005E0037811F8014FA34201D0181B10BDEF
:106240000130F2E71F2938B504460D4604D916235C
:1062500003604FF0FF3038BD426C12B152F821306C
:106260004BB9204600F030F82A4601462046BDE8EA
:10627000384000F017B8012B0AD0591C03D116235F
:1062800003600120E7E7002442F8254028469847AC
:106290000020E0E7024B01461868FFF7D3BF00BFBC
:1062A0007022002038B5074D0023044608461146E9
:1062B0002B60FDF7A7FD431C02D12B6803B12360BF
:1062C00038BD00BF084A0020FDF796BD034611F80F
:1062D000012B03F8012B002AF9D1704700000000C0
:1062E00001000000010000010000000000000000AB
:1062F0000000000065000000010100010200000034
:106300000000000008000000526571756573746537
:106310006420746F206572617365206D6F726520F3
:106320007468616E2077652063616E0A0045726152
:10633000736520436F6D6D616E642052656365699E
:106340007665640A0050435420444F4E453A202558
:10635000640A000053544D333248373F3F3F0053E7
:10636000544D3332483733782F3732780053544DF9
:106370003332483734332F3735332F373530000039
:1063800001105A0003105900012058000320560044
:1063900053464450000000004A454445433A2046D5
:1063A00061696C656420746F206465746563742032
:1063B000666C617368206465766963653A2025734D
:1063C0000A004A454445433A204661696C656420A9
:1063D000746F20636F6E66696720666C61736820F6
:1063E0006465766963653A2025730A004A45444529
:1063F000433A20446574656374656420466C617338
:1064000068204465766963653A2025730A004578FB
:106410007420466C617368204E6F7420466F756EF1
:10642000642100006D743235710077323571007768
:106430003235712D647472002464000820BA0000A3
:10644000000000002A640008EF4000000000000087
:106450002F640008EF700000000000000000000042
:1064600000000000291E0008912000085D160008A9
:106470006116000809170008F91F000865160008D2
:1064800069160008F11E0008D9160008511F0008FF
:10649000AD1B0008711600086D16000839210008B0
:1064A000D1160008000000000000000000000000FD
:1064B00000000000492200088D2500088D250008F5
:1064C0004D220008512200085522000859220008D8
:1064D0008D2500088D2500088D25000871220008F3
:1064E000752200088D22000895220008A1220008CC
:1064F000A5220008A9220008F824002001000000BD
:106500000000000000000000E1230008F92300085B
:1065100049220008B52200082D240008E9220008BD
:10652000C5240008F524000859220008CD220008DF
:10653000B9220008C922000871220008752200084B
:106540008D22000895220008A1220008A52200083B
:10655000A9220008D122000800000000000000006D
:1065600061230008AD220008B122000800000000ED
:1065700000000000552600085D260008412600089E
:10658000492600086D260008712600084D444D413B
:10659000206661696C75726500000000009600005D
:1065A00000000000000000000000000000000000EB
:1065B0000000000000000000E92D0008D52D0008B3
:1065C000112E0008FD2D0008092E0008F52D0008E9
:1065D000E12D0008CD2D00081D2E00080000000050
:1065E000012F0008ED2E0008292F0008152F0008A4
:1065F000212F00080D2F0008F92E0008E52E0008B5
:10660000352F00080000000001000000000000001D
:106610006330000010660008E0290020F02B002005
:106620004172647550696C6F740025424F41524449
:10663000252D424C002553455249414C2500000070
:106640000200000000000000213100089131000824
:1066500040004000A0440020B044002002000000A0
:10666000000000000300000000000000D931000815
:106670000000000010000000C044002000000000E6
:106680000100000000000000B048002001010200ED
:10669000FD3E00080D3E0008A93E00088D3E0008A2
:1066A00043000000A866000809024300020100C080
:1066B0003209040000010202010005240010010556
:1066C00024010001042402020524060001070582BA
:1066D000030800FF09040100020A00000007050189
:1066E0000240000007058102400000001200000087
:1066F000F46600081201100102000040091241571F
:1067000000020102030100000403090425424F4175
:10671000524425005350526163696E6748375246B0
:10672000003031323334353637383941424344450D
:1067300046000000000000200000020002000000EF
:106740000000003000800000000000000000002475
:10675000004004000000000000400424004000004D
:10676000040000000004000000FC00000200000023
:10677000000000380040000001000000400000520E
:1067800080000052C000005200010052400100523F
:1067900080010052C001005200020052400200522B
:1067A00080020052C0020052000300524003005217
:1067B00080030052C0030052000400520000000099
:1067C00035330008ED3500089936000840004000D8
:1067D0004C4900204C490020010000005C49002089
:1067E0000001000000100000080000006D61696EEB
:1067F0000069646C650000000000806A0000000011
:10680000AAAAAAAA00000064FFFF0000000000007E
:1068100000000000202000A000000000AAAAAAAAF0
:1068200000000050FFFF00000009000A00000044C3
:106830000000004000000000AAAAAAAA0000000070
:10684000FFFF000000000000000000000000800AC0
:1068500000000000AAAAAAAA00000000FFFF000092
:10686000000000000090990060806A0000000000B5
:10687000AAAAAAAA00004000F7FF0000000900A091
:10688000AA0A00000000000000000000AAAAAAAAAC
:1068900000000000FFFF00000000000000000000FA
:1068A0000000000000000000AAAAAAAA0000000040
:1068B000FFFF0000000000000000000000000000DA
:1068C00000000000AAAAAAAA00000000FFFF000022
:1068D00000000000000000000000000000000000B8
:1068E000AAAAAAAA00000000FFFF00000000000002
:1068F000000000000000000000000000AAAAAAAAF0
:1069000000000000FFFF0000000000000000000089
:10691000109AFF7F010000005404000000000000F6
:106920000000000000002000FF000000F82B002005
:106930001C25002000000000546300083F000000F8
:10694000830400005F6300083F0000005004000063
:106950006D6300083F000000009600000000080082
:10696000960000000008000004000000086700080E
:106970000000000000000000000000000000000017
:106980000000000000000000742200200000000051
:1069900000000000000000000000000000000000F7
:1069A00000000000000000000000000000000000E7
:1069B00000000000000000000000000000000000D7
:1069C00000000000000000000000000000000000C7
:1069D00000000000000000000000000000000000B7
:0C69E000000000000000000000000000AB
:00000001FF
